{
    "abi": [
        {
            "inputs": [
                {
                    "internalType": "string",
                    "name": "_distributorName",
                    "type": "string"
                },
                {
                    "internalType": "int256",
                    "name": "_ratePerKilometer",
                    "type": "int256"
                }
            ],
            "stateMutability": "nonpayable",
            "type": "constructor"
        },
        {
            "inputs": [
                {
                    "internalType": "address",
                    "name": "_processor",
                    "type": "address"
                },
                {
                    "internalType": "int256",
                    "name": "_distanceInKm",
                    "type": "int256"
                }
            ],
            "name": "createShipment",
            "outputs": [
                {
                    "internalType": "bytes32",
                    "name": "",
                    "type": "bytes32"
                }
            ],
            "stateMutability": "nonpayable",
            "type": "function"
        },
        {
            "inputs": [
                {
                    "internalType": "bytes32",
                    "name": "_shipmentId",
                    "type": "bytes32"
                }
            ],
            "name": "deliverShipment",
            "outputs": [],
            "stateMutability": "nonpayable",
            "type": "function"
        },
        {
            "inputs": [],
            "name": "distributor",
            "outputs": [
                {
                    "internalType": "address",
                    "name": "",
                    "type": "address"
                }
            ],
            "stateMutability": "view",
            "type": "function"
        },
        {
            "inputs": [],
            "name": "distributorName",
            "outputs": [
                {
                    "internalType": "string",
                    "name": "",
                    "type": "string"
                }
            ],
            "stateMutability": "view",
            "type": "function"
        },
        {
            "inputs": [],
            "name": "ratePerKilometer",
            "outputs": [
                {
                    "internalType": "int256",
                    "name": "",
                    "type": "int256"
                }
            ],
            "stateMutability": "view",
            "type": "function"
        },
        {
            "inputs": [
                {
                    "internalType": "bytes32",
                    "name": "",
                    "type": "bytes32"
                }
            ],
            "name": "shipments",
            "outputs": [
                {
                    "internalType": "address",
                    "name": "processor",
                    "type": "address"
                },
                {
                    "internalType": "address",
                    "name": "retailer",
                    "type": "address"
                },
                {
                    "internalType": "int256",
                    "name": "distanceInKm",
                    "type": "int256"
                },
                {
                    "internalType": "int256",
                    "name": "totalPrice",
                    "type": "int256"
                },
                {
                    "internalType": "bool",
                    "name": "delivered",
                    "type": "bool"
                }
            ],
            "stateMutability": "view",
            "type": "function"
        }
    ],
    "devdoc": {
        "kind": "dev",
        "methods": {},
        "version": 1
    },
    "evm": {
        "assembly": "    /* \"Main.sol\":6437:7993  contract DistributorContract {... */\n  mstore(0x40, 0x80)\n    /* \"Main.sol\":6805:7010  constructor(string memory _distributorName, int256 _ratePerKilometer) {... */\n  callvalue\n  dup1\n  iszero\n  tag_1\n  jumpi\n  0x00\n  dup1\n  revert\ntag_1:\n  pop\n  mload(0x40)\n  sub(codesize, bytecodeSize)\n  dup1\n  bytecodeSize\n  dup4\n  codecopy\n  dup2\n  dup2\n  add\n  0x40\n  mstore\n  dup2\n  add\n  swap1\n  tag_2\n  swap2\n  swap1\n  tag_3\n  jump\t// in\ntag_2:\n    /* \"Main.sol\":6900:6910  msg.sender */\n  caller\n    /* \"Main.sol\":6886:6897  distributor */\n  0x00\n  dup1\n    /* \"Main.sol\":6886:6910  distributor = msg.sender */\n  0x0100\n  exp\n  dup2\n  sload\n  dup2\n  0xffffffffffffffffffffffffffffffffffffffff\n  mul\n  not\n  and\n  swap1\n  dup4\n  0xffffffffffffffffffffffffffffffffffffffff\n  and\n  mul\n  or\n  swap1\n  sstore\n  pop\n    /* \"Main.sol\":6939:6955  _distributorName */\n  dup2\n    /* \"Main.sol\":6921:6936  distributorName */\n  0x01\n    /* \"Main.sol\":6921:6955  distributorName = _distributorName */\n  swap1\n  dup1\n  mload\n  swap1\n  0x20\n  add\n  swap1\n  tag_6\n  swap3\n  swap2\n  swap1\n  tag_7\n  jump\t// in\ntag_6:\n  pop\n    /* \"Main.sol\":6985:7002  _ratePerKilometer */\n  dup1\n    /* \"Main.sol\":6966:6982  ratePerKilometer */\n  0x02\n    /* \"Main.sol\":6966:7002  ratePerKilometer = _ratePerKilometer */\n  dup2\n  swap1\n  sstore\n  pop\n    /* \"Main.sol\":6805:7010  constructor(string memory _distributorName, int256 _ratePerKilometer) {... */\n  pop\n  pop\n    /* \"Main.sol\":6437:7993  contract DistributorContract {... */\n  jump(tag_8)\ntag_7:\n  dup3\n  dup1\n  sload\n  tag_9\n  swap1\n  tag_10\n  jump\t// in\ntag_9:\n  swap1\n  0x00\n  mstore\n  keccak256(0x00, 0x20)\n  swap1\n  0x1f\n  add\n  0x20\n  swap1\n  div\n  dup2\n  add\n  swap3\n  dup3\n  tag_12\n  jumpi\n  0x00\n  dup6\n  sstore\n  jump(tag_11)\ntag_12:\n  dup3\n  0x1f\n  lt\n  tag_13\n  jumpi\n  dup1\n  mload\n  not(0xff)\n  and\n  dup4\n  dup1\n  add\n  or\n  dup6\n  sstore\n  jump(tag_11)\ntag_13:\n  dup3\n  dup1\n  add\n  0x01\n  add\n  dup6\n  sstore\n  dup3\n  iszero\n  tag_11\n  jumpi\n  swap2\n  dup3\n  add\ntag_14:\n  dup3\n  dup2\n  gt\n  iszero\n  tag_15\n  jumpi\n  dup3\n  mload\n  dup3\n  sstore\n  swap2\n  0x20\n  add\n  swap2\n  swap1\n  0x01\n  add\n  swap1\n  jump(tag_14)\ntag_15:\ntag_11:\n  pop\n  swap1\n  pop\n  tag_16\n  swap2\n  swap1\n  tag_17\n  jump\t// in\ntag_16:\n  pop\n  swap1\n  jump\t// out\ntag_17:\ntag_18:\n  dup1\n  dup3\n  gt\n  iszero\n  tag_19\n  jumpi\n  0x00\n  dup2\n  0x00\n  swap1\n  sstore\n  pop\n  0x01\n  add\n  jump(tag_18)\ntag_19:\n  pop\n  swap1\n  jump\t// out\n    /* \"#utility.yul\":7:82   */\ntag_20:\n    /* \"#utility.yul\":40:46   */\n  0x00\n    /* \"#utility.yul\":73:75   */\n  0x40\n    /* \"#utility.yul\":67:76   */\n  mload\n    /* \"#utility.yul\":57:76   */\n  swap1\n  pop\n    /* \"#utility.yul\":7:82   */\n  swap1\n  jump\t// out\n    /* \"#utility.yul\":88:205   */\ntag_21:\n    /* \"#utility.yul\":197:198   */\n  0x00\n    /* \"#utility.yul\":194:195   */\n  dup1\n    /* \"#utility.yul\":187:199   */\n  revert\n    /* \"#utility.yul\":211:328   */\ntag_22:\n    /* \"#utility.yul\":320:321   */\n  0x00\n    /* \"#utility.yul\":317:318   */\n  dup1\n    /* \"#utility.yul\":310:322   */\n  revert\n    /* \"#utility.yul\":334:451   */\ntag_23:\n    /* \"#utility.yul\":443:444   */\n  0x00\n    /* \"#utility.yul\":440:441   */\n  dup1\n    /* \"#utility.yul\":433:445   */\n  revert\n    /* \"#utility.yul\":457:574   */\ntag_24:\n    /* \"#utility.yul\":566:567   */\n  0x00\n    /* \"#utility.yul\":563:564   */\n  dup1\n    /* \"#utility.yul\":556:568   */\n  revert\n    /* \"#utility.yul\":580:682   */\ntag_25:\n    /* \"#utility.yul\":621:627   */\n  0x00\n    /* \"#utility.yul\":672:674   */\n  0x1f\n    /* \"#utility.yul\":668:675   */\n  not\n    /* \"#utility.yul\":663:665   */\n  0x1f\n    /* \"#utility.yul\":656:661   */\n  dup4\n    /* \"#utility.yul\":652:666   */\n  add\n    /* \"#utility.yul\":648:676   */\n  and\n    /* \"#utility.yul\":638:676   */\n  swap1\n  pop\n    /* \"#utility.yul\":580:682   */\n  swap2\n  swap1\n  pop\n  jump\t// out\n    /* \"#utility.yul\":688:868   */\ntag_26:\n    /* \"#utility.yul\":736:813   */\n  0x4e487b7100000000000000000000000000000000000000000000000000000000\n    /* \"#utility.yul\":733:734   */\n  0x00\n    /* \"#utility.yul\":726:814   */\n  mstore\n    /* \"#utility.yul\":833:837   */\n  0x41\n    /* \"#utility.yul\":830:831   */\n  0x04\n    /* \"#utility.yul\":823:838   */\n  mstore\n    /* \"#utility.yul\":857:861   */\n  0x24\n    /* \"#utility.yul\":854:855   */\n  0x00\n    /* \"#utility.yul\":847:862   */\n  revert\n    /* \"#utility.yul\":874:1155   */\ntag_27:\n    /* \"#utility.yul\":957:984   */\n  tag_46\n    /* \"#utility.yul\":979:983   */\n  dup3\n    /* \"#utility.yul\":957:984   */\n  tag_25\n  jump\t// in\ntag_46:\n    /* \"#utility.yul\":949:955   */\n  dup2\n    /* \"#utility.yul\":945:985   */\n  add\n    /* \"#utility.yul\":1087:1093   */\n  dup2\n    /* \"#utility.yul\":1075:1085   */\n  dup2\n    /* \"#utility.yul\":1072:1094   */\n  lt\n    /* \"#utility.yul\":1051:1069   */\n  0xffffffffffffffff\n    /* \"#utility.yul\":1039:1049   */\n  dup3\n    /* \"#utility.yul\":1036:1070   */\n  gt\n    /* \"#utility.yul\":1033:1095   */\n  or\n    /* \"#utility.yul\":1030:1118   */\n  iszero\n  tag_47\n  jumpi\n    /* \"#utility.yul\":1098:1116   */\n  tag_48\n  tag_26\n  jump\t// in\ntag_48:\n    /* \"#utility.yul\":1030:1118   */\ntag_47:\n    /* \"#utility.yul\":1138:1148   */\n  dup1\n    /* \"#utility.yul\":1134:1136   */\n  0x40\n    /* \"#utility.yul\":1127:1149   */\n  mstore\n    /* \"#utility.yul\":917:1155   */\n  pop\n    /* \"#utility.yul\":874:1155   */\n  pop\n  pop\n  jump\t// out\n    /* \"#utility.yul\":1161:1290   */\ntag_28:\n    /* \"#utility.yul\":1195:1201   */\n  0x00\n    /* \"#utility.yul\":1222:1242   */\n  tag_50\n  tag_20\n  jump\t// in\ntag_50:\n    /* \"#utility.yul\":1212:1242   */\n  swap1\n  pop\n    /* \"#utility.yul\":1251:1284   */\n  tag_51\n    /* \"#utility.yul\":1279:1283   */\n  dup3\n    /* \"#utility.yul\":1271:1277   */\n  dup3\n    /* \"#utility.yul\":1251:1284   */\n  tag_27\n  jump\t// in\ntag_51:\n    /* \"#utility.yul\":1161:1290   */\n  swap2\n  swap1\n  pop\n  jump\t// out\n    /* \"#utility.yul\":1296:1604   */\ntag_29:\n    /* \"#utility.yul\":1358:1362   */\n  0x00\n    /* \"#utility.yul\":1448:1466   */\n  0xffffffffffffffff\n    /* \"#utility.yul\":1440:1446   */\n  dup3\n    /* \"#utility.yul\":1437:1467   */\n  gt\n    /* \"#utility.yul\":1434:1490   */\n  iszero\n  tag_53\n  jumpi\n    /* \"#utility.yul\":1470:1488   */\n  tag_54\n  tag_26\n  jump\t// in\ntag_54:\n    /* \"#utility.yul\":1434:1490   */\ntag_53:\n    /* \"#utility.yul\":1508:1537   */\n  tag_55\n    /* \"#utility.yul\":1530:1536   */\n  dup3\n    /* \"#utility.yul\":1508:1537   */\n  tag_25\n  jump\t// in\ntag_55:\n    /* \"#utility.yul\":1500:1537   */\n  swap1\n  pop\n    /* \"#utility.yul\":1592:1596   */\n  0x20\n    /* \"#utility.yul\":1586:1590   */\n  dup2\n    /* \"#utility.yul\":1582:1597   */\n  add\n    /* \"#utility.yul\":1574:1597   */\n  swap1\n  pop\n    /* \"#utility.yul\":1296:1604   */\n  swap2\n  swap1\n  pop\n  jump\t// out\n    /* \"#utility.yul\":1610:1917   */\ntag_30:\n    /* \"#utility.yul\":1678:1679   */\n  0x00\n    /* \"#utility.yul\":1688:1801   */\ntag_57:\n    /* \"#utility.yul\":1702:1708   */\n  dup4\n    /* \"#utility.yul\":1699:1700   */\n  dup2\n    /* \"#utility.yul\":1696:1709   */\n  lt\n    /* \"#utility.yul\":1688:1801   */\n  iszero\n  tag_59\n  jumpi\n    /* \"#utility.yul\":1787:1788   */\n  dup1\n    /* \"#utility.yul\":1782:1785   */\n  dup3\n    /* \"#utility.yul\":1778:1789   */\n  add\n    /* \"#utility.yul\":1772:1790   */\n  mload\n    /* \"#utility.yul\":1768:1769   */\n  dup2\n    /* \"#utility.yul\":1763:1766   */\n  dup5\n    /* \"#utility.yul\":1759:1770   */\n  add\n    /* \"#utility.yul\":1752:1791   */\n  mstore\n    /* \"#utility.yul\":1724:1726   */\n  0x20\n    /* \"#utility.yul\":1721:1722   */\n  dup2\n    /* \"#utility.yul\":1717:1727   */\n  add\n    /* \"#utility.yul\":1712:1727   */\n  swap1\n  pop\n    /* \"#utility.yul\":1688:1801   */\n  jump(tag_57)\ntag_59:\n    /* \"#utility.yul\":1819:1825   */\n  dup4\n    /* \"#utility.yul\":1816:1817   */\n  dup2\n    /* \"#utility.yul\":1813:1826   */\n  gt\n    /* \"#utility.yul\":1810:1911   */\n  iszero\n  tag_60\n  jumpi\n    /* \"#utility.yul\":1899:1900   */\n  0x00\n    /* \"#utility.yul\":1890:1896   */\n  dup5\n    /* \"#utility.yul\":1885:1888   */\n  dup5\n    /* \"#utility.yul\":1881:1897   */\n  add\n    /* \"#utility.yul\":1874:1901   */\n  mstore\n    /* \"#utility.yul\":1810:1911   */\ntag_60:\n    /* \"#utility.yul\":1659:1917   */\n  pop\n    /* \"#utility.yul\":1610:1917   */\n  pop\n  pop\n  pop\n  jump\t// out\n    /* \"#utility.yul\":1923:2344   */\ntag_31:\n    /* \"#utility.yul\":2012:2017   */\n  0x00\n    /* \"#utility.yul\":2037:2103   */\n  tag_62\n    /* \"#utility.yul\":2053:2102   */\n  tag_63\n    /* \"#utility.yul\":2095:2101   */\n  dup5\n    /* \"#utility.yul\":2053:2102   */\n  tag_29\n  jump\t// in\ntag_63:\n    /* \"#utility.yul\":2037:2103   */\n  tag_28\n  jump\t// in\ntag_62:\n    /* \"#utility.yul\":2028:2103   */\n  swap1\n  pop\n    /* \"#utility.yul\":2126:2132   */\n  dup3\n    /* \"#utility.yul\":2119:2124   */\n  dup2\n    /* \"#utility.yul\":2112:2133   */\n  mstore\n    /* \"#utility.yul\":2164:2168   */\n  0x20\n    /* \"#utility.yul\":2157:2162   */\n  dup2\n    /* \"#utility.yul\":2153:2169   */\n  add\n    /* \"#utility.yul\":2202:2205   */\n  dup5\n    /* \"#utility.yul\":2193:2199   */\n  dup5\n    /* \"#utility.yul\":2188:2191   */\n  dup5\n    /* \"#utility.yul\":2184:2200   */\n  add\n    /* \"#utility.yul\":2181:2206   */\n  gt\n    /* \"#utility.yul\":2178:2290   */\n  iszero\n  tag_64\n  jumpi\n    /* \"#utility.yul\":2209:2288   */\n  tag_65\n  tag_24\n  jump\t// in\ntag_65:\n    /* \"#utility.yul\":2178:2290   */\ntag_64:\n    /* \"#utility.yul\":2299:2338   */\n  tag_66\n    /* \"#utility.yul\":2331:2337   */\n  dup5\n    /* \"#utility.yul\":2326:2329   */\n  dup3\n    /* \"#utility.yul\":2321:2324   */\n  dup6\n    /* \"#utility.yul\":2299:2338   */\n  tag_30\n  jump\t// in\ntag_66:\n    /* \"#utility.yul\":2018:2344   */\n  pop\n    /* \"#utility.yul\":1923:2344   */\n  swap4\n  swap3\n  pop\n  pop\n  pop\n  jump\t// out\n    /* \"#utility.yul\":2364:2719   */\ntag_32:\n    /* \"#utility.yul\":2431:2436   */\n  0x00\n    /* \"#utility.yul\":2480:2483   */\n  dup3\n    /* \"#utility.yul\":2473:2477   */\n  0x1f\n    /* \"#utility.yul\":2465:2471   */\n  dup4\n    /* \"#utility.yul\":2461:2478   */\n  add\n    /* \"#utility.yul\":2457:2484   */\n  slt\n    /* \"#utility.yul\":2447:2569   */\n  tag_68\n  jumpi\n    /* \"#utility.yul\":2488:2567   */\n  tag_69\n  tag_23\n  jump\t// in\ntag_69:\n    /* \"#utility.yul\":2447:2569   */\ntag_68:\n    /* \"#utility.yul\":2598:2604   */\n  dup2\n    /* \"#utility.yul\":2592:2605   */\n  mload\n    /* \"#utility.yul\":2623:2713   */\n  tag_70\n    /* \"#utility.yul\":2709:2712   */\n  dup5\n    /* \"#utility.yul\":2701:2707   */\n  dup3\n    /* \"#utility.yul\":2694:2698   */\n  0x20\n    /* \"#utility.yul\":2686:2692   */\n  dup7\n    /* \"#utility.yul\":2682:2699   */\n  add\n    /* \"#utility.yul\":2623:2713   */\n  tag_31\n  jump\t// in\ntag_70:\n    /* \"#utility.yul\":2614:2713   */\n  swap2\n  pop\n    /* \"#utility.yul\":2437:2719   */\n  pop\n    /* \"#utility.yul\":2364:2719   */\n  swap3\n  swap2\n  pop\n  pop\n  jump\t// out\n    /* \"#utility.yul\":2725:2801   */\ntag_33:\n    /* \"#utility.yul\":2761:2768   */\n  0x00\n    /* \"#utility.yul\":2790:2795   */\n  dup2\n    /* \"#utility.yul\":2779:2795   */\n  swap1\n  pop\n    /* \"#utility.yul\":2725:2801   */\n  swap2\n  swap1\n  pop\n  jump\t// out\n    /* \"#utility.yul\":2807:2927   */\ntag_34:\n    /* \"#utility.yul\":2879:2902   */\n  tag_73\n    /* \"#utility.yul\":2896:2901   */\n  dup2\n    /* \"#utility.yul\":2879:2902   */\n  tag_33\n  jump\t// in\ntag_73:\n    /* \"#utility.yul\":2872:2877   */\n  dup2\n    /* \"#utility.yul\":2869:2903   */\n  eq\n    /* \"#utility.yul\":2859:2921   */\n  tag_74\n  jumpi\n    /* \"#utility.yul\":2917:2918   */\n  0x00\n    /* \"#utility.yul\":2914:2915   */\n  dup1\n    /* \"#utility.yul\":2907:2919   */\n  revert\n    /* \"#utility.yul\":2859:2921   */\ntag_74:\n    /* \"#utility.yul\":2807:2927   */\n  pop\n  jump\t// out\n    /* \"#utility.yul\":2933:3074   */\ntag_35:\n    /* \"#utility.yul\":2989:2994   */\n  0x00\n    /* \"#utility.yul\":3020:3026   */\n  dup2\n    /* \"#utility.yul\":3014:3027   */\n  mload\n    /* \"#utility.yul\":3005:3027   */\n  swap1\n  pop\n    /* \"#utility.yul\":3036:3068   */\n  tag_76\n    /* \"#utility.yul\":3062:3067   */\n  dup2\n    /* \"#utility.yul\":3036:3068   */\n  tag_34\n  jump\t// in\ntag_76:\n    /* \"#utility.yul\":2933:3074   */\n  swap3\n  swap2\n  pop\n  pop\n  jump\t// out\n    /* \"#utility.yul\":3080:3758   */\ntag_3:\n    /* \"#utility.yul\":3168:3174   */\n  0x00\n    /* \"#utility.yul\":3176:3182   */\n  dup1\n    /* \"#utility.yul\":3225:3227   */\n  0x40\n    /* \"#utility.yul\":3213:3222   */\n  dup4\n    /* \"#utility.yul\":3204:3211   */\n  dup6\n    /* \"#utility.yul\":3200:3223   */\n  sub\n    /* \"#utility.yul\":3196:3228   */\n  slt\n    /* \"#utility.yul\":3193:3312   */\n  iszero\n  tag_78\n  jumpi\n    /* \"#utility.yul\":3231:3310   */\n  tag_79\n  tag_21\n  jump\t// in\ntag_79:\n    /* \"#utility.yul\":3193:3312   */\ntag_78:\n    /* \"#utility.yul\":3372:3373   */\n  0x00\n    /* \"#utility.yul\":3361:3370   */\n  dup4\n    /* \"#utility.yul\":3357:3374   */\n  add\n    /* \"#utility.yul\":3351:3375   */\n  mload\n    /* \"#utility.yul\":3402:3420   */\n  0xffffffffffffffff\n    /* \"#utility.yul\":3394:3400   */\n  dup2\n    /* \"#utility.yul\":3391:3421   */\n  gt\n    /* \"#utility.yul\":3388:3505   */\n  iszero\n  tag_80\n  jumpi\n    /* \"#utility.yul\":3424:3503   */\n  tag_81\n  tag_22\n  jump\t// in\ntag_81:\n    /* \"#utility.yul\":3388:3505   */\ntag_80:\n    /* \"#utility.yul\":3529:3603   */\n  tag_82\n    /* \"#utility.yul\":3595:3602   */\n  dup6\n    /* \"#utility.yul\":3586:3592   */\n  dup3\n    /* \"#utility.yul\":3575:3584   */\n  dup7\n    /* \"#utility.yul\":3571:3593   */\n  add\n    /* \"#utility.yul\":3529:3603   */\n  tag_32\n  jump\t// in\ntag_82:\n    /* \"#utility.yul\":3519:3603   */\n  swap3\n  pop\n    /* \"#utility.yul\":3322:3613   */\n  pop\n    /* \"#utility.yul\":3652:3654   */\n  0x20\n    /* \"#utility.yul\":3678:3741   */\n  tag_83\n    /* \"#utility.yul\":3733:3740   */\n  dup6\n    /* \"#utility.yul\":3724:3730   */\n  dup3\n    /* \"#utility.yul\":3713:3722   */\n  dup7\n    /* \"#utility.yul\":3709:3731   */\n  add\n    /* \"#utility.yul\":3678:3741   */\n  tag_35\n  jump\t// in\ntag_83:\n    /* \"#utility.yul\":3668:3741   */\n  swap2\n  pop\n    /* \"#utility.yul\":3623:3751   */\n  pop\n    /* \"#utility.yul\":3080:3758   */\n  swap3\n  pop\n  swap3\n  swap1\n  pop\n  jump\t// out\n    /* \"#utility.yul\":3764:3944   */\ntag_36:\n    /* \"#utility.yul\":3812:3889   */\n  0x4e487b7100000000000000000000000000000000000000000000000000000000\n    /* \"#utility.yul\":3809:3810   */\n  0x00\n    /* \"#utility.yul\":3802:3890   */\n  mstore\n    /* \"#utility.yul\":3909:3913   */\n  0x22\n    /* \"#utility.yul\":3906:3907   */\n  0x04\n    /* \"#utility.yul\":3899:3914   */\n  mstore\n    /* \"#utility.yul\":3933:3937   */\n  0x24\n    /* \"#utility.yul\":3930:3931   */\n  0x00\n    /* \"#utility.yul\":3923:3938   */\n  revert\n    /* \"#utility.yul\":3950:4270   */\ntag_10:\n    /* \"#utility.yul\":3994:4000   */\n  0x00\n    /* \"#utility.yul\":4031:4032   */\n  0x02\n    /* \"#utility.yul\":4025:4029   */\n  dup3\n    /* \"#utility.yul\":4021:4033   */\n  div\n    /* \"#utility.yul\":4011:4033   */\n  swap1\n  pop\n    /* \"#utility.yul\":4078:4079   */\n  0x01\n    /* \"#utility.yul\":4072:4076   */\n  dup3\n    /* \"#utility.yul\":4068:4080   */\n  and\n    /* \"#utility.yul\":4099:4117   */\n  dup1\n    /* \"#utility.yul\":4089:4170   */\n  tag_86\n  jumpi\n    /* \"#utility.yul\":4155:4159   */\n  0x7f\n    /* \"#utility.yul\":4147:4153   */\n  dup3\n    /* \"#utility.yul\":4143:4160   */\n  and\n    /* \"#utility.yul\":4133:4160   */\n  swap2\n  pop\n    /* \"#utility.yul\":4089:4170   */\ntag_86:\n    /* \"#utility.yul\":4217:4219   */\n  0x20\n    /* \"#utility.yul\":4209:4215   */\n  dup3\n    /* \"#utility.yul\":4206:4220   */\n  lt\n    /* \"#utility.yul\":4186:4204   */\n  dup2\n    /* \"#utility.yul\":4183:4221   */\n  eq\n    /* \"#utility.yul\":4180:4264   */\n  iszero\n  tag_87\n  jumpi\n    /* \"#utility.yul\":4236:4254   */\n  tag_88\n  tag_36\n  jump\t// in\ntag_88:\n    /* \"#utility.yul\":4180:4264   */\ntag_87:\n    /* \"#utility.yul\":4001:4270   */\n  pop\n    /* \"#utility.yul\":3950:4270   */\n  swap2\n  swap1\n  pop\n  jump\t// out\n    /* \"Main.sol\":6437:7993  contract DistributorContract {... */\ntag_8:\n  dataSize(sub_0)\n  dup1\n  dataOffset(sub_0)\n  0x00\n  codecopy\n  0x00\n  return\nstop\n\nsub_0: assembly {\n        /* \"Main.sol\":6437:7993  contract DistributorContract {... */\n      mstore(0x40, 0x80)\n      callvalue\n      dup1\n      iszero\n      tag_1\n      jumpi\n      0x00\n      dup1\n      revert\n    tag_1:\n      pop\n      jumpi(tag_2, lt(calldatasize, 0x04))\n      shr(0xe0, calldataload(0x00))\n      dup1\n      0x55c4c562\n      eq\n      tag_3\n      jumpi\n      dup1\n      0x5dc9b4dc\n      eq\n      tag_4\n      jumpi\n      dup1\n      0xa462fe9a\n      eq\n      tag_5\n      jumpi\n      dup1\n      0xbfe10928\n      eq\n      tag_6\n      jumpi\n      dup1\n      0xd87b4041\n      eq\n      tag_7\n      jumpi\n      dup1\n      0xdf3e1a50\n      eq\n      tag_8\n      jumpi\n    tag_2:\n      0x00\n      dup1\n      revert\n        /* \"Main.sol\":7192:7719  function createShipment(... */\n    tag_3:\n      tag_9\n      0x04\n      dup1\n      calldatasize\n      sub\n      dup2\n      add\n      swap1\n      tag_10\n      swap2\n      swap1\n      tag_11\n      jump\t// in\n    tag_10:\n      tag_12\n      jump\t// in\n    tag_9:\n      mload(0x40)\n      tag_13\n      swap2\n      swap1\n      tag_14\n      jump\t// in\n    tag_13:\n      mload(0x40)\n      dup1\n      swap2\n      sub\n      swap1\n      return\n        /* \"Main.sol\":6506:6535  string public distributorName */\n    tag_4:\n      tag_15\n      tag_16\n      jump\t// in\n    tag_15:\n      mload(0x40)\n      tag_17\n      swap2\n      swap1\n      tag_18\n      jump\t// in\n    tag_17:\n      mload(0x40)\n      dup1\n      swap2\n      sub\n      swap1\n      return\n        /* \"Main.sol\":7727:7990  function deliverShipment(bytes32 _shipmentId) public {... */\n    tag_5:\n      tag_19\n      0x04\n      dup1\n      calldatasize\n      sub\n      dup2\n      add\n      swap1\n      tag_20\n      swap2\n      swap1\n      tag_21\n      jump\t// in\n    tag_20:\n      tag_22\n      jump\t// in\n    tag_19:\n      stop\n        /* \"Main.sol\":6473:6499  address public distributor */\n    tag_6:\n      tag_23\n      tag_24\n      jump\t// in\n    tag_23:\n      mload(0x40)\n      tag_25\n      swap2\n      swap1\n      tag_26\n      jump\t// in\n    tag_25:\n      mload(0x40)\n      dup1\n      swap2\n      sub\n      swap1\n      return\n        /* \"Main.sol\":6751:6796  mapping(bytes32 => Shipment) public shipments */\n    tag_7:\n      tag_27\n      0x04\n      dup1\n      calldatasize\n      sub\n      dup2\n      add\n      swap1\n      tag_28\n      swap2\n      swap1\n      tag_21\n      jump\t// in\n    tag_28:\n      tag_29\n      jump\t// in\n    tag_27:\n      mload(0x40)\n      tag_30\n      swap6\n      swap5\n      swap4\n      swap3\n      swap2\n      swap1\n      tag_31\n      jump\t// in\n    tag_30:\n      mload(0x40)\n      dup1\n      swap2\n      sub\n      swap1\n      return\n        /* \"Main.sol\":6542:6572  int256 public ratePerKilometer */\n    tag_8:\n      tag_32\n      tag_33\n      jump\t// in\n    tag_32:\n      mload(0x40)\n      tag_34\n      swap2\n      swap1\n      tag_35\n      jump\t// in\n    tag_34:\n      mload(0x40)\n      dup1\n      swap2\n      sub\n      swap1\n      return\n        /* \"Main.sol\":7192:7719  function createShipment(... */\n    tag_12:\n        /* \"Main.sol\":7309:7316  bytes32 */\n      0x00\n        /* \"Main.sol\":7086:7097  distributor */\n      dup1\n      0x00\n      swap1\n      sload\n      swap1\n      0x0100\n      exp\n      swap1\n      div\n      0xffffffffffffffffffffffffffffffffffffffff\n      and\n        /* \"Main.sol\":7072:7097  msg.sender == distributor */\n      0xffffffffffffffffffffffffffffffffffffffff\n      and\n        /* \"Main.sol\":7072:7082  msg.sender */\n      caller\n        /* \"Main.sol\":7072:7097  msg.sender == distributor */\n      0xffffffffffffffffffffffffffffffffffffffff\n      and\n      eq\n        /* \"Main.sol\":7050:7164  require(... */\n      tag_37\n      jumpi\n      mload(0x40)\n      0x08c379a000000000000000000000000000000000000000000000000000000000\n      dup2\n      mstore\n      0x04\n      add\n      tag_38\n      swap1\n      tag_39\n      jump\t// in\n    tag_38:\n      mload(0x40)\n      dup1\n      swap2\n      sub\n      swap1\n      revert\n    tag_37:\n        /* \"Main.sol\":7329:7346  int256 totalPrice */\n      0x00\n        /* \"Main.sol\":7365:7381  ratePerKilometer */\n      sload(0x02)\n        /* \"Main.sol\":7349:7362  _distanceInKm */\n      dup4\n        /* \"Main.sol\":7349:7381  _distanceInKm * ratePerKilometer */\n      tag_41\n      swap2\n      swap1\n      tag_42\n      jump\t// in\n    tag_41:\n        /* \"Main.sol\":7329:7381  int256 totalPrice = _distanceInKm * ratePerKilometer */\n      swap1\n      pop\n        /* \"Main.sol\":7394:7412  bytes32 shipmentId */\n      0x00\n        /* \"Main.sol\":7415:7504  sha256(... */\n      0x02\n        /* \"Main.sol\":7453:7463  msg.sender */\n      caller\n        /* \"Main.sol\":7465:7475  _processor */\n      dup7\n        /* \"Main.sol\":7477:7492  block.timestamp */\n      timestamp\n        /* \"Main.sol\":7436:7493  abi.encodePacked(msg.sender, _processor, block.timestamp) */\n      add(0x20, mload(0x40))\n      tag_43\n      swap4\n      swap3\n      swap2\n      swap1\n      tag_44\n      jump\t// in\n    tag_43:\n      mload(0x40)\n      0x20\n      dup2\n      dup4\n      sub\n      sub\n      dup2\n      mstore\n      swap1\n      0x40\n      mstore\n        /* \"Main.sol\":7415:7504  sha256(... */\n      mload(0x40)\n      tag_45\n      swap2\n      swap1\n      tag_46\n      jump\t// in\n    tag_45:\n      0x20\n      mload(0x40)\n      dup1\n      dup4\n      sub\n      dup2\n      dup6\n      gas\n      staticcall\n      iszero\n      dup1\n      iszero\n      tag_48\n      jumpi\n      returndatasize\n      0x00\n      dup1\n      returndatacopy\n      revert(0x00, returndatasize)\n    tag_48:\n      pop\n      pop\n      pop\n      mload(0x40)\n      returndatasize\n      not(0x1f)\n      0x1f\n      dup3\n      add\n      and\n      dup3\n      add\n      dup1\n      0x40\n      mstore\n      pop\n      dup2\n      add\n      swap1\n      tag_49\n      swap2\n      swap1\n      tag_50\n      jump\t// in\n    tag_49:\n        /* \"Main.sol\":7394:7504  bytes32 shipmentId = sha256(... */\n      swap1\n      pop\n        /* \"Main.sol\":7539:7681  Shipment(... */\n      mload(0x40)\n      dup1\n      0xa0\n      add\n      0x40\n      mstore\n      dup1\n        /* \"Main.sol\":7562:7572  _processor */\n      dup7\n        /* \"Main.sol\":7539:7681  Shipment(... */\n      0xffffffffffffffffffffffffffffffffffffffff\n      and\n      dup2\n      mstore\n      0x20\n      add\n        /* \"Main.sol\":7587:7597  msg.sender */\n      caller\n        /* \"Main.sol\":7539:7681  Shipment(... */\n      0xffffffffffffffffffffffffffffffffffffffff\n      and\n      dup2\n      mstore\n      0x20\n      add\n        /* \"Main.sol\":7612:7625  _distanceInKm */\n      dup6\n        /* \"Main.sol\":7539:7681  Shipment(... */\n      dup2\n      mstore\n      0x20\n      add\n        /* \"Main.sol\":7640:7650  totalPrice */\n      dup4\n        /* \"Main.sol\":7539:7681  Shipment(... */\n      dup2\n      mstore\n      0x20\n      add\n        /* \"Main.sol\":7665:7670  false */\n      0x00\n        /* \"Main.sol\":7539:7681  Shipment(... */\n      iszero\n      iszero\n      dup2\n      mstore\n      pop\n        /* \"Main.sol\":7515:7524  shipments */\n      0x03\n        /* \"Main.sol\":7515:7536  shipments[shipmentId] */\n      0x00\n        /* \"Main.sol\":7525:7535  shipmentId */\n      dup4\n        /* \"Main.sol\":7515:7536  shipments[shipmentId] */\n      dup2\n      mstore\n      0x20\n      add\n      swap1\n      dup2\n      mstore\n      0x20\n      add\n      0x00\n      keccak256\n        /* \"Main.sol\":7515:7681  shipments[shipmentId] = Shipment(... */\n      0x00\n      dup3\n      add\n      mload\n      dup2\n      0x00\n      add\n      exp(0x0100, 0x00)\n      dup2\n      sload\n      dup2\n      0xffffffffffffffffffffffffffffffffffffffff\n      mul\n      not\n      and\n      swap1\n      dup4\n      0xffffffffffffffffffffffffffffffffffffffff\n      and\n      mul\n      or\n      swap1\n      sstore\n      pop\n      0x20\n      dup3\n      add\n      mload\n      dup2\n      0x01\n      add\n      exp(0x0100, 0x00)\n      dup2\n      sload\n      dup2\n      0xffffffffffffffffffffffffffffffffffffffff\n      mul\n      not\n      and\n      swap1\n      dup4\n      0xffffffffffffffffffffffffffffffffffffffff\n      and\n      mul\n      or\n      swap1\n      sstore\n      pop\n      0x40\n      dup3\n      add\n      mload\n      dup2\n      0x02\n      add\n      sstore\n      0x60\n      dup3\n      add\n      mload\n      dup2\n      0x03\n      add\n      sstore\n      0x80\n      dup3\n      add\n      mload\n      dup2\n      0x04\n      add\n      exp(0x0100, 0x00)\n      dup2\n      sload\n      dup2\n      0xff\n      mul\n      not\n      and\n      swap1\n      dup4\n      iszero\n      iszero\n      mul\n      or\n      swap1\n      sstore\n      pop\n      swap1\n      pop\n      pop\n        /* \"Main.sol\":7701:7711  shipmentId */\n      dup1\n        /* \"Main.sol\":7694:7711  return shipmentId */\n      swap3\n      pop\n      pop\n      pop\n        /* \"Main.sol\":7192:7719  function createShipment(... */\n      swap3\n      swap2\n      pop\n      pop\n      jump\t// out\n        /* \"Main.sol\":6506:6535  string public distributorName */\n    tag_16:\n      0x01\n      dup1\n      sload\n      tag_51\n      swap1\n      tag_52\n      jump\t// in\n    tag_51:\n      dup1\n      0x1f\n      add\n      0x20\n      dup1\n      swap2\n      div\n      mul\n      0x20\n      add\n      mload(0x40)\n      swap1\n      dup2\n      add\n      0x40\n      mstore\n      dup1\n      swap3\n      swap2\n      swap1\n      dup2\n      dup2\n      mstore\n      0x20\n      add\n      dup3\n      dup1\n      sload\n      tag_53\n      swap1\n      tag_52\n      jump\t// in\n    tag_53:\n      dup1\n      iszero\n      tag_54\n      jumpi\n      dup1\n      0x1f\n      lt\n      tag_55\n      jumpi\n      0x0100\n      dup1\n      dup4\n      sload\n      div\n      mul\n      dup4\n      mstore\n      swap2\n      0x20\n      add\n      swap2\n      jump(tag_54)\n    tag_55:\n      dup3\n      add\n      swap2\n      swap1\n      0x00\n      mstore\n      keccak256(0x00, 0x20)\n      swap1\n    tag_56:\n      dup2\n      sload\n      dup2\n      mstore\n      swap1\n      0x01\n      add\n      swap1\n      0x20\n      add\n      dup1\n      dup4\n      gt\n      tag_56\n      jumpi\n      dup3\n      swap1\n      sub\n      0x1f\n      and\n      dup3\n      add\n      swap2\n    tag_54:\n      pop\n      pop\n      pop\n      pop\n      pop\n      dup2\n      jump\t// out\n        /* \"Main.sol\":7727:7990  function deliverShipment(bytes32 _shipmentId) public {... */\n    tag_22:\n        /* \"Main.sol\":7849:7859  msg.sender */\n      caller\n        /* \"Main.sol\":7813:7859  shipments[_shipmentId].processor == msg.sender */\n      0xffffffffffffffffffffffffffffffffffffffff\n      and\n        /* \"Main.sol\":7813:7822  shipments */\n      0x03\n        /* \"Main.sol\":7813:7835  shipments[_shipmentId] */\n      0x00\n        /* \"Main.sol\":7823:7834  _shipmentId */\n      dup4\n        /* \"Main.sol\":7813:7835  shipments[_shipmentId] */\n      dup2\n      mstore\n      0x20\n      add\n      swap1\n      dup2\n      mstore\n      0x20\n      add\n      0x00\n      keccak256\n        /* \"Main.sol\":7813:7845  shipments[_shipmentId].processor */\n      0x00\n      add\n      0x00\n      swap1\n      sload\n      swap1\n      0x0100\n      exp\n      swap1\n      div\n      0xffffffffffffffffffffffffffffffffffffffff\n      and\n        /* \"Main.sol\":7813:7859  shipments[_shipmentId].processor == msg.sender */\n      0xffffffffffffffffffffffffffffffffffffffff\n      and\n      eq\n        /* \"Main.sol\":7791:7932  require(... */\n      tag_58\n      jumpi\n      mload(0x40)\n      0x08c379a000000000000000000000000000000000000000000000000000000000\n      dup2\n      mstore\n      0x04\n      add\n      tag_59\n      swap1\n      tag_60\n      jump\t// in\n    tag_59:\n      mload(0x40)\n      dup1\n      swap2\n      sub\n      swap1\n      revert\n    tag_58:\n        /* \"Main.sol\":7978:7982  true */\n      0x01\n        /* \"Main.sol\":7943:7952  shipments */\n      0x03\n        /* \"Main.sol\":7943:7965  shipments[_shipmentId] */\n      0x00\n        /* \"Main.sol\":7953:7964  _shipmentId */\n      dup4\n        /* \"Main.sol\":7943:7965  shipments[_shipmentId] */\n      dup2\n      mstore\n      0x20\n      add\n      swap1\n      dup2\n      mstore\n      0x20\n      add\n      0x00\n      keccak256\n        /* \"Main.sol\":7943:7975  shipments[_shipmentId].delivered */\n      0x04\n      add\n      0x00\n        /* \"Main.sol\":7943:7982  shipments[_shipmentId].delivered = true */\n      0x0100\n      exp\n      dup2\n      sload\n      dup2\n      0xff\n      mul\n      not\n      and\n      swap1\n      dup4\n      iszero\n      iszero\n      mul\n      or\n      swap1\n      sstore\n      pop\n        /* \"Main.sol\":7727:7990  function deliverShipment(bytes32 _shipmentId) public {... */\n      pop\n      jump\t// out\n        /* \"Main.sol\":6473:6499  address public distributor */\n    tag_24:\n      0x00\n      dup1\n      sload\n      swap1\n      0x0100\n      exp\n      swap1\n      div\n      0xffffffffffffffffffffffffffffffffffffffff\n      and\n      dup2\n      jump\t// out\n        /* \"Main.sol\":6751:6796  mapping(bytes32 => Shipment) public shipments */\n    tag_29:\n      mstore(0x20, 0x03)\n      dup1\n      0x00\n      mstore\n      keccak256(0x00, 0x40)\n      0x00\n      swap2\n      pop\n      swap1\n      pop\n      dup1\n      0x00\n      add\n      0x00\n      swap1\n      sload\n      swap1\n      0x0100\n      exp\n      swap1\n      div\n      0xffffffffffffffffffffffffffffffffffffffff\n      and\n      swap1\n      dup1\n      0x01\n      add\n      0x00\n      swap1\n      sload\n      swap1\n      0x0100\n      exp\n      swap1\n      div\n      0xffffffffffffffffffffffffffffffffffffffff\n      and\n      swap1\n      dup1\n      0x02\n      add\n      sload\n      swap1\n      dup1\n      0x03\n      add\n      sload\n      swap1\n      dup1\n      0x04\n      add\n      0x00\n      swap1\n      sload\n      swap1\n      0x0100\n      exp\n      swap1\n      div\n      0xff\n      and\n      swap1\n      pop\n      dup6\n      jump\t// out\n        /* \"Main.sol\":6542:6572  int256 public ratePerKilometer */\n    tag_33:\n      sload(0x02)\n      dup2\n      jump\t// out\n        /* \"#utility.yul\":88:205   */\n    tag_62:\n        /* \"#utility.yul\":197:198   */\n      0x00\n        /* \"#utility.yul\":194:195   */\n      dup1\n        /* \"#utility.yul\":187:199   */\n      revert\n        /* \"#utility.yul\":334:460   */\n    tag_64:\n        /* \"#utility.yul\":371:378   */\n      0x00\n        /* \"#utility.yul\":411:453   */\n      0xffffffffffffffffffffffffffffffffffffffff\n        /* \"#utility.yul\":404:409   */\n      dup3\n        /* \"#utility.yul\":400:454   */\n      and\n        /* \"#utility.yul\":389:454   */\n      swap1\n      pop\n        /* \"#utility.yul\":334:460   */\n      swap2\n      swap1\n      pop\n      jump\t// out\n        /* \"#utility.yul\":466:562   */\n    tag_65:\n        /* \"#utility.yul\":503:510   */\n      0x00\n        /* \"#utility.yul\":532:556   */\n      tag_107\n        /* \"#utility.yul\":550:555   */\n      dup3\n        /* \"#utility.yul\":532:556   */\n      tag_64\n      jump\t// in\n    tag_107:\n        /* \"#utility.yul\":521:556   */\n      swap1\n      pop\n        /* \"#utility.yul\":466:562   */\n      swap2\n      swap1\n      pop\n      jump\t// out\n        /* \"#utility.yul\":568:690   */\n    tag_66:\n        /* \"#utility.yul\":641:665   */\n      tag_109\n        /* \"#utility.yul\":659:664   */\n      dup2\n        /* \"#utility.yul\":641:665   */\n      tag_65\n      jump\t// in\n    tag_109:\n        /* \"#utility.yul\":634:639   */\n      dup2\n        /* \"#utility.yul\":631:666   */\n      eq\n        /* \"#utility.yul\":621:684   */\n      tag_110\n      jumpi\n        /* \"#utility.yul\":680:681   */\n      0x00\n        /* \"#utility.yul\":677:678   */\n      dup1\n        /* \"#utility.yul\":670:682   */\n      revert\n        /* \"#utility.yul\":621:684   */\n    tag_110:\n        /* \"#utility.yul\":568:690   */\n      pop\n      jump\t// out\n        /* \"#utility.yul\":696:835   */\n    tag_67:\n        /* \"#utility.yul\":742:747   */\n      0x00\n        /* \"#utility.yul\":780:786   */\n      dup2\n        /* \"#utility.yul\":767:787   */\n      calldataload\n        /* \"#utility.yul\":758:787   */\n      swap1\n      pop\n        /* \"#utility.yul\":796:829   */\n      tag_112\n        /* \"#utility.yul\":823:828   */\n      dup2\n        /* \"#utility.yul\":796:829   */\n      tag_66\n      jump\t// in\n    tag_112:\n        /* \"#utility.yul\":696:835   */\n      swap3\n      swap2\n      pop\n      pop\n      jump\t// out\n        /* \"#utility.yul\":841:917   */\n    tag_68:\n        /* \"#utility.yul\":877:884   */\n      0x00\n        /* \"#utility.yul\":906:911   */\n      dup2\n        /* \"#utility.yul\":895:911   */\n      swap1\n      pop\n        /* \"#utility.yul\":841:917   */\n      swap2\n      swap1\n      pop\n      jump\t// out\n        /* \"#utility.yul\":923:1043   */\n    tag_69:\n        /* \"#utility.yul\":995:1018   */\n      tag_115\n        /* \"#utility.yul\":1012:1017   */\n      dup2\n        /* \"#utility.yul\":995:1018   */\n      tag_68\n      jump\t// in\n    tag_115:\n        /* \"#utility.yul\":988:993   */\n      dup2\n        /* \"#utility.yul\":985:1019   */\n      eq\n        /* \"#utility.yul\":975:1037   */\n      tag_116\n      jumpi\n        /* \"#utility.yul\":1033:1034   */\n      0x00\n        /* \"#utility.yul\":1030:1031   */\n      dup1\n        /* \"#utility.yul\":1023:1035   */\n      revert\n        /* \"#utility.yul\":975:1037   */\n    tag_116:\n        /* \"#utility.yul\":923:1043   */\n      pop\n      jump\t// out\n        /* \"#utility.yul\":1049:1186   */\n    tag_70:\n        /* \"#utility.yul\":1094:1099   */\n      0x00\n        /* \"#utility.yul\":1132:1138   */\n      dup2\n        /* \"#utility.yul\":1119:1139   */\n      calldataload\n        /* \"#utility.yul\":1110:1139   */\n      swap1\n      pop\n        /* \"#utility.yul\":1148:1180   */\n      tag_118\n        /* \"#utility.yul\":1174:1179   */\n      dup2\n        /* \"#utility.yul\":1148:1180   */\n      tag_69\n      jump\t// in\n    tag_118:\n        /* \"#utility.yul\":1049:1186   */\n      swap3\n      swap2\n      pop\n      pop\n      jump\t// out\n        /* \"#utility.yul\":1192:1664   */\n    tag_11:\n        /* \"#utility.yul\":1259:1265   */\n      0x00\n        /* \"#utility.yul\":1267:1273   */\n      dup1\n        /* \"#utility.yul\":1316:1318   */\n      0x40\n        /* \"#utility.yul\":1304:1313   */\n      dup4\n        /* \"#utility.yul\":1295:1302   */\n      dup6\n        /* \"#utility.yul\":1291:1314   */\n      sub\n        /* \"#utility.yul\":1287:1319   */\n      slt\n        /* \"#utility.yul\":1284:1403   */\n      iszero\n      tag_120\n      jumpi\n        /* \"#utility.yul\":1322:1401   */\n      tag_121\n      tag_62\n      jump\t// in\n    tag_121:\n        /* \"#utility.yul\":1284:1403   */\n    tag_120:\n        /* \"#utility.yul\":1442:1443   */\n      0x00\n        /* \"#utility.yul\":1467:1520   */\n      tag_122\n        /* \"#utility.yul\":1512:1519   */\n      dup6\n        /* \"#utility.yul\":1503:1509   */\n      dup3\n        /* \"#utility.yul\":1492:1501   */\n      dup7\n        /* \"#utility.yul\":1488:1510   */\n      add\n        /* \"#utility.yul\":1467:1520   */\n      tag_67\n      jump\t// in\n    tag_122:\n        /* \"#utility.yul\":1457:1520   */\n      swap3\n      pop\n        /* \"#utility.yul\":1413:1530   */\n      pop\n        /* \"#utility.yul\":1569:1571   */\n      0x20\n        /* \"#utility.yul\":1595:1647   */\n      tag_123\n        /* \"#utility.yul\":1639:1646   */\n      dup6\n        /* \"#utility.yul\":1630:1636   */\n      dup3\n        /* \"#utility.yul\":1619:1628   */\n      dup7\n        /* \"#utility.yul\":1615:1637   */\n      add\n        /* \"#utility.yul\":1595:1647   */\n      tag_70\n      jump\t// in\n    tag_123:\n        /* \"#utility.yul\":1585:1647   */\n      swap2\n      pop\n        /* \"#utility.yul\":1540:1657   */\n      pop\n        /* \"#utility.yul\":1192:1664   */\n      swap3\n      pop\n      swap3\n      swap1\n      pop\n      jump\t// out\n        /* \"#utility.yul\":1670:1747   */\n    tag_71:\n        /* \"#utility.yul\":1707:1714   */\n      0x00\n        /* \"#utility.yul\":1736:1741   */\n      dup2\n        /* \"#utility.yul\":1725:1741   */\n      swap1\n      pop\n        /* \"#utility.yul\":1670:1747   */\n      swap2\n      swap1\n      pop\n      jump\t// out\n        /* \"#utility.yul\":1753:1871   */\n    tag_72:\n        /* \"#utility.yul\":1840:1864   */\n      tag_126\n        /* \"#utility.yul\":1858:1863   */\n      dup2\n        /* \"#utility.yul\":1840:1864   */\n      tag_71\n      jump\t// in\n    tag_126:\n        /* \"#utility.yul\":1835:1838   */\n      dup3\n        /* \"#utility.yul\":1828:1865   */\n      mstore\n        /* \"#utility.yul\":1753:1871   */\n      pop\n      pop\n      jump\t// out\n        /* \"#utility.yul\":1877:2099   */\n    tag_14:\n        /* \"#utility.yul\":1970:1974   */\n      0x00\n        /* \"#utility.yul\":2008:2010   */\n      0x20\n        /* \"#utility.yul\":1997:2006   */\n      dup3\n        /* \"#utility.yul\":1993:2011   */\n      add\n        /* \"#utility.yul\":1985:2011   */\n      swap1\n      pop\n        /* \"#utility.yul\":2021:2092   */\n      tag_128\n        /* \"#utility.yul\":2089:2090   */\n      0x00\n        /* \"#utility.yul\":2078:2087   */\n      dup4\n        /* \"#utility.yul\":2074:2091   */\n      add\n        /* \"#utility.yul\":2065:2071   */\n      dup5\n        /* \"#utility.yul\":2021:2092   */\n      tag_72\n      jump\t// in\n    tag_128:\n        /* \"#utility.yul\":1877:2099   */\n      swap3\n      swap2\n      pop\n      pop\n      jump\t// out\n        /* \"#utility.yul\":2105:2204   */\n    tag_73:\n        /* \"#utility.yul\":2157:2163   */\n      0x00\n        /* \"#utility.yul\":2191:2196   */\n      dup2\n        /* \"#utility.yul\":2185:2197   */\n      mload\n        /* \"#utility.yul\":2175:2197   */\n      swap1\n      pop\n        /* \"#utility.yul\":2105:2204   */\n      swap2\n      swap1\n      pop\n      jump\t// out\n        /* \"#utility.yul\":2210:2379   */\n    tag_74:\n        /* \"#utility.yul\":2294:2305   */\n      0x00\n        /* \"#utility.yul\":2328:2334   */\n      dup3\n        /* \"#utility.yul\":2323:2326   */\n      dup3\n        /* \"#utility.yul\":2316:2335   */\n      mstore\n        /* \"#utility.yul\":2368:2372   */\n      0x20\n        /* \"#utility.yul\":2363:2366   */\n      dup3\n        /* \"#utility.yul\":2359:2373   */\n      add\n        /* \"#utility.yul\":2344:2373   */\n      swap1\n      pop\n        /* \"#utility.yul\":2210:2379   */\n      swap3\n      swap2\n      pop\n      pop\n      jump\t// out\n        /* \"#utility.yul\":2385:2692   */\n    tag_75:\n        /* \"#utility.yul\":2453:2454   */\n      0x00\n        /* \"#utility.yul\":2463:2576   */\n    tag_132:\n        /* \"#utility.yul\":2477:2483   */\n      dup4\n        /* \"#utility.yul\":2474:2475   */\n      dup2\n        /* \"#utility.yul\":2471:2484   */\n      lt\n        /* \"#utility.yul\":2463:2576   */\n      iszero\n      tag_134\n      jumpi\n        /* \"#utility.yul\":2562:2563   */\n      dup1\n        /* \"#utility.yul\":2557:2560   */\n      dup3\n        /* \"#utility.yul\":2553:2564   */\n      add\n        /* \"#utility.yul\":2547:2565   */\n      mload\n        /* \"#utility.yul\":2543:2544   */\n      dup2\n        /* \"#utility.yul\":2538:2541   */\n      dup5\n        /* \"#utility.yul\":2534:2545   */\n      add\n        /* \"#utility.yul\":2527:2566   */\n      mstore\n        /* \"#utility.yul\":2499:2501   */\n      0x20\n        /* \"#utility.yul\":2496:2497   */\n      dup2\n        /* \"#utility.yul\":2492:2502   */\n      add\n        /* \"#utility.yul\":2487:2502   */\n      swap1\n      pop\n        /* \"#utility.yul\":2463:2576   */\n      jump(tag_132)\n    tag_134:\n        /* \"#utility.yul\":2594:2600   */\n      dup4\n        /* \"#utility.yul\":2591:2592   */\n      dup2\n        /* \"#utility.yul\":2588:2601   */\n      gt\n        /* \"#utility.yul\":2585:2686   */\n      iszero\n      tag_135\n      jumpi\n        /* \"#utility.yul\":2674:2675   */\n      0x00\n        /* \"#utility.yul\":2665:2671   */\n      dup5\n        /* \"#utility.yul\":2660:2663   */\n      dup5\n        /* \"#utility.yul\":2656:2672   */\n      add\n        /* \"#utility.yul\":2649:2676   */\n      mstore\n        /* \"#utility.yul\":2585:2686   */\n    tag_135:\n        /* \"#utility.yul\":2434:2692   */\n      pop\n        /* \"#utility.yul\":2385:2692   */\n      pop\n      pop\n      pop\n      jump\t// out\n        /* \"#utility.yul\":2698:2800   */\n    tag_76:\n        /* \"#utility.yul\":2739:2745   */\n      0x00\n        /* \"#utility.yul\":2790:2792   */\n      0x1f\n        /* \"#utility.yul\":2786:2793   */\n      not\n        /* \"#utility.yul\":2781:2783   */\n      0x1f\n        /* \"#utility.yul\":2774:2779   */\n      dup4\n        /* \"#utility.yul\":2770:2784   */\n      add\n        /* \"#utility.yul\":2766:2794   */\n      and\n        /* \"#utility.yul\":2756:2794   */\n      swap1\n      pop\n        /* \"#utility.yul\":2698:2800   */\n      swap2\n      swap1\n      pop\n      jump\t// out\n        /* \"#utility.yul\":2806:3170   */\n    tag_77:\n        /* \"#utility.yul\":2894:2897   */\n      0x00\n        /* \"#utility.yul\":2922:2961   */\n      tag_138\n        /* \"#utility.yul\":2955:2960   */\n      dup3\n        /* \"#utility.yul\":2922:2961   */\n      tag_73\n      jump\t// in\n    tag_138:\n        /* \"#utility.yul\":2977:3048   */\n      tag_139\n        /* \"#utility.yul\":3041:3047   */\n      dup2\n        /* \"#utility.yul\":3036:3039   */\n      dup6\n        /* \"#utility.yul\":2977:3048   */\n      tag_74\n      jump\t// in\n    tag_139:\n        /* \"#utility.yul\":2970:3048   */\n      swap4\n      pop\n        /* \"#utility.yul\":3057:3109   */\n      tag_140\n        /* \"#utility.yul\":3102:3108   */\n      dup2\n        /* \"#utility.yul\":3097:3100   */\n      dup6\n        /* \"#utility.yul\":3090:3094   */\n      0x20\n        /* \"#utility.yul\":3083:3088   */\n      dup7\n        /* \"#utility.yul\":3079:3095   */\n      add\n        /* \"#utility.yul\":3057:3109   */\n      tag_75\n      jump\t// in\n    tag_140:\n        /* \"#utility.yul\":3134:3163   */\n      tag_141\n        /* \"#utility.yul\":3156:3162   */\n      dup2\n        /* \"#utility.yul\":3134:3163   */\n      tag_76\n      jump\t// in\n    tag_141:\n        /* \"#utility.yul\":3129:3132   */\n      dup5\n        /* \"#utility.yul\":3125:3164   */\n      add\n        /* \"#utility.yul\":3118:3164   */\n      swap2\n      pop\n        /* \"#utility.yul\":2898:3170   */\n      pop\n        /* \"#utility.yul\":2806:3170   */\n      swap3\n      swap2\n      pop\n      pop\n      jump\t// out\n        /* \"#utility.yul\":3176:3489   */\n    tag_18:\n        /* \"#utility.yul\":3289:3293   */\n      0x00\n        /* \"#utility.yul\":3327:3329   */\n      0x20\n        /* \"#utility.yul\":3316:3325   */\n      dup3\n        /* \"#utility.yul\":3312:3330   */\n      add\n        /* \"#utility.yul\":3304:3330   */\n      swap1\n      pop\n        /* \"#utility.yul\":3376:3385   */\n      dup2\n        /* \"#utility.yul\":3370:3374   */\n      dup2\n        /* \"#utility.yul\":3366:3386   */\n      sub\n        /* \"#utility.yul\":3362:3363   */\n      0x00\n        /* \"#utility.yul\":3351:3360   */\n      dup4\n        /* \"#utility.yul\":3347:3364   */\n      add\n        /* \"#utility.yul\":3340:3387   */\n      mstore\n        /* \"#utility.yul\":3404:3482   */\n      tag_143\n        /* \"#utility.yul\":3477:3481   */\n      dup2\n        /* \"#utility.yul\":3468:3474   */\n      dup5\n        /* \"#utility.yul\":3404:3482   */\n      tag_77\n      jump\t// in\n    tag_143:\n        /* \"#utility.yul\":3396:3482   */\n      swap1\n      pop\n        /* \"#utility.yul\":3176:3489   */\n      swap3\n      swap2\n      pop\n      pop\n      jump\t// out\n        /* \"#utility.yul\":3495:3617   */\n    tag_78:\n        /* \"#utility.yul\":3568:3592   */\n      tag_145\n        /* \"#utility.yul\":3586:3591   */\n      dup2\n        /* \"#utility.yul\":3568:3592   */\n      tag_71\n      jump\t// in\n    tag_145:\n        /* \"#utility.yul\":3561:3566   */\n      dup2\n        /* \"#utility.yul\":3558:3593   */\n      eq\n        /* \"#utility.yul\":3548:3611   */\n      tag_146\n      jumpi\n        /* \"#utility.yul\":3607:3608   */\n      0x00\n        /* \"#utility.yul\":3604:3605   */\n      dup1\n        /* \"#utility.yul\":3597:3609   */\n      revert\n        /* \"#utility.yul\":3548:3611   */\n    tag_146:\n        /* \"#utility.yul\":3495:3617   */\n      pop\n      jump\t// out\n        /* \"#utility.yul\":3623:3762   */\n    tag_79:\n        /* \"#utility.yul\":3669:3674   */\n      0x00\n        /* \"#utility.yul\":3707:3713   */\n      dup2\n        /* \"#utility.yul\":3694:3714   */\n      calldataload\n        /* \"#utility.yul\":3685:3714   */\n      swap1\n      pop\n        /* \"#utility.yul\":3723:3756   */\n      tag_148\n        /* \"#utility.yul\":3750:3755   */\n      dup2\n        /* \"#utility.yul\":3723:3756   */\n      tag_78\n      jump\t// in\n    tag_148:\n        /* \"#utility.yul\":3623:3762   */\n      swap3\n      swap2\n      pop\n      pop\n      jump\t// out\n        /* \"#utility.yul\":3768:4097   */\n    tag_21:\n        /* \"#utility.yul\":3827:3833   */\n      0x00\n        /* \"#utility.yul\":3876:3878   */\n      0x20\n        /* \"#utility.yul\":3864:3873   */\n      dup3\n        /* \"#utility.yul\":3855:3862   */\n      dup5\n        /* \"#utility.yul\":3851:3874   */\n      sub\n        /* \"#utility.yul\":3847:3879   */\n      slt\n        /* \"#utility.yul\":3844:3963   */\n      iszero\n      tag_150\n      jumpi\n        /* \"#utility.yul\":3882:3961   */\n      tag_151\n      tag_62\n      jump\t// in\n    tag_151:\n        /* \"#utility.yul\":3844:3963   */\n    tag_150:\n        /* \"#utility.yul\":4002:4003   */\n      0x00\n        /* \"#utility.yul\":4027:4080   */\n      tag_152\n        /* \"#utility.yul\":4072:4079   */\n      dup5\n        /* \"#utility.yul\":4063:4069   */\n      dup3\n        /* \"#utility.yul\":4052:4061   */\n      dup6\n        /* \"#utility.yul\":4048:4070   */\n      add\n        /* \"#utility.yul\":4027:4080   */\n      tag_79\n      jump\t// in\n    tag_152:\n        /* \"#utility.yul\":4017:4080   */\n      swap2\n      pop\n        /* \"#utility.yul\":3973:4090   */\n      pop\n        /* \"#utility.yul\":3768:4097   */\n      swap3\n      swap2\n      pop\n      pop\n      jump\t// out\n        /* \"#utility.yul\":4103:4221   */\n    tag_80:\n        /* \"#utility.yul\":4190:4214   */\n      tag_154\n        /* \"#utility.yul\":4208:4213   */\n      dup2\n        /* \"#utility.yul\":4190:4214   */\n      tag_65\n      jump\t// in\n    tag_154:\n        /* \"#utility.yul\":4185:4188   */\n      dup3\n        /* \"#utility.yul\":4178:4215   */\n      mstore\n        /* \"#utility.yul\":4103:4221   */\n      pop\n      pop\n      jump\t// out\n        /* \"#utility.yul\":4227:4449   */\n    tag_26:\n        /* \"#utility.yul\":4320:4324   */\n      0x00\n        /* \"#utility.yul\":4358:4360   */\n      0x20\n        /* \"#utility.yul\":4347:4356   */\n      dup3\n        /* \"#utility.yul\":4343:4361   */\n      add\n        /* \"#utility.yul\":4335:4361   */\n      swap1\n      pop\n        /* \"#utility.yul\":4371:4442   */\n      tag_156\n        /* \"#utility.yul\":4439:4440   */\n      0x00\n        /* \"#utility.yul\":4428:4437   */\n      dup4\n        /* \"#utility.yul\":4424:4441   */\n      add\n        /* \"#utility.yul\":4415:4421   */\n      dup5\n        /* \"#utility.yul\":4371:4442   */\n      tag_80\n      jump\t// in\n    tag_156:\n        /* \"#utility.yul\":4227:4449   */\n      swap3\n      swap2\n      pop\n      pop\n      jump\t// out\n        /* \"#utility.yul\":4455:4570   */\n    tag_81:\n        /* \"#utility.yul\":4540:4563   */\n      tag_158\n        /* \"#utility.yul\":4557:4562   */\n      dup2\n        /* \"#utility.yul\":4540:4563   */\n      tag_68\n      jump\t// in\n    tag_158:\n        /* \"#utility.yul\":4535:4538   */\n      dup3\n        /* \"#utility.yul\":4528:4564   */\n      mstore\n        /* \"#utility.yul\":4455:4570   */\n      pop\n      pop\n      jump\t// out\n        /* \"#utility.yul\":4576:4666   */\n    tag_82:\n        /* \"#utility.yul\":4610:4617   */\n      0x00\n        /* \"#utility.yul\":4653:4658   */\n      dup2\n        /* \"#utility.yul\":4646:4659   */\n      iszero\n        /* \"#utility.yul\":4639:4660   */\n      iszero\n        /* \"#utility.yul\":4628:4660   */\n      swap1\n      pop\n        /* \"#utility.yul\":4576:4666   */\n      swap2\n      swap1\n      pop\n      jump\t// out\n        /* \"#utility.yul\":4672:4781   */\n    tag_83:\n        /* \"#utility.yul\":4753:4774   */\n      tag_161\n        /* \"#utility.yul\":4768:4773   */\n      dup2\n        /* \"#utility.yul\":4753:4774   */\n      tag_82\n      jump\t// in\n    tag_161:\n        /* \"#utility.yul\":4748:4751   */\n      dup3\n        /* \"#utility.yul\":4741:4775   */\n      mstore\n        /* \"#utility.yul\":4672:4781   */\n      pop\n      pop\n      jump\t// out\n        /* \"#utility.yul\":4787:5431   */\n    tag_31:\n        /* \"#utility.yul\":4982:4986   */\n      0x00\n        /* \"#utility.yul\":5020:5023   */\n      0xa0\n        /* \"#utility.yul\":5009:5018   */\n      dup3\n        /* \"#utility.yul\":5005:5024   */\n      add\n        /* \"#utility.yul\":4997:5024   */\n      swap1\n      pop\n        /* \"#utility.yul\":5034:5105   */\n      tag_163\n        /* \"#utility.yul\":5102:5103   */\n      0x00\n        /* \"#utility.yul\":5091:5100   */\n      dup4\n        /* \"#utility.yul\":5087:5104   */\n      add\n        /* \"#utility.yul\":5078:5084   */\n      dup9\n        /* \"#utility.yul\":5034:5105   */\n      tag_80\n      jump\t// in\n    tag_163:\n        /* \"#utility.yul\":5115:5187   */\n      tag_164\n        /* \"#utility.yul\":5183:5185   */\n      0x20\n        /* \"#utility.yul\":5172:5181   */\n      dup4\n        /* \"#utility.yul\":5168:5186   */\n      add\n        /* \"#utility.yul\":5159:5165   */\n      dup8\n        /* \"#utility.yul\":5115:5187   */\n      tag_80\n      jump\t// in\n    tag_164:\n        /* \"#utility.yul\":5197:5267   */\n      tag_165\n        /* \"#utility.yul\":5263:5265   */\n      0x40\n        /* \"#utility.yul\":5252:5261   */\n      dup4\n        /* \"#utility.yul\":5248:5266   */\n      add\n        /* \"#utility.yul\":5239:5245   */\n      dup7\n        /* \"#utility.yul\":5197:5267   */\n      tag_81\n      jump\t// in\n    tag_165:\n        /* \"#utility.yul\":5277:5347   */\n      tag_166\n        /* \"#utility.yul\":5343:5345   */\n      0x60\n        /* \"#utility.yul\":5332:5341   */\n      dup4\n        /* \"#utility.yul\":5328:5346   */\n      add\n        /* \"#utility.yul\":5319:5325   */\n      dup6\n        /* \"#utility.yul\":5277:5347   */\n      tag_81\n      jump\t// in\n    tag_166:\n        /* \"#utility.yul\":5357:5424   */\n      tag_167\n        /* \"#utility.yul\":5419:5422   */\n      0x80\n        /* \"#utility.yul\":5408:5417   */\n      dup4\n        /* \"#utility.yul\":5404:5423   */\n      add\n        /* \"#utility.yul\":5395:5401   */\n      dup5\n        /* \"#utility.yul\":5357:5424   */\n      tag_83\n      jump\t// in\n    tag_167:\n        /* \"#utility.yul\":4787:5431   */\n      swap7\n      swap6\n      pop\n      pop\n      pop\n      pop\n      pop\n      pop\n      jump\t// out\n        /* \"#utility.yul\":5437:5655   */\n    tag_35:\n        /* \"#utility.yul\":5528:5532   */\n      0x00\n        /* \"#utility.yul\":5566:5568   */\n      0x20\n        /* \"#utility.yul\":5555:5564   */\n      dup3\n        /* \"#utility.yul\":5551:5569   */\n      add\n        /* \"#utility.yul\":5543:5569   */\n      swap1\n      pop\n        /* \"#utility.yul\":5579:5648   */\n      tag_169\n        /* \"#utility.yul\":5645:5646   */\n      0x00\n        /* \"#utility.yul\":5634:5643   */\n      dup4\n        /* \"#utility.yul\":5630:5647   */\n      add\n        /* \"#utility.yul\":5621:5627   */\n      dup5\n        /* \"#utility.yul\":5579:5648   */\n      tag_81\n      jump\t// in\n    tag_169:\n        /* \"#utility.yul\":5437:5655   */\n      swap3\n      swap2\n      pop\n      pop\n      jump\t// out\n        /* \"#utility.yul\":5661:5887   */\n    tag_84:\n        /* \"#utility.yul\":5801:5835   */\n      0x4f6e6c79206469737472696275746f722063616e2063616c6c20746869732066\n        /* \"#utility.yul\":5797:5798   */\n      0x00\n        /* \"#utility.yul\":5789:5795   */\n      dup3\n        /* \"#utility.yul\":5785:5799   */\n      add\n        /* \"#utility.yul\":5778:5836   */\n      mstore\n        /* \"#utility.yul\":5870:5879   */\n      0x756e6374696f6e00000000000000000000000000000000000000000000000000\n        /* \"#utility.yul\":5865:5867   */\n      0x20\n        /* \"#utility.yul\":5857:5863   */\n      dup3\n        /* \"#utility.yul\":5853:5868   */\n      add\n        /* \"#utility.yul\":5846:5880   */\n      mstore\n        /* \"#utility.yul\":5661:5887   */\n      pop\n      jump\t// out\n        /* \"#utility.yul\":5893:6259   */\n    tag_85:\n        /* \"#utility.yul\":6035:6038   */\n      0x00\n        /* \"#utility.yul\":6056:6123   */\n      tag_172\n        /* \"#utility.yul\":6120:6122   */\n      0x27\n        /* \"#utility.yul\":6115:6118   */\n      dup4\n        /* \"#utility.yul\":6056:6123   */\n      tag_74\n      jump\t// in\n    tag_172:\n        /* \"#utility.yul\":6049:6123   */\n      swap2\n      pop\n        /* \"#utility.yul\":6132:6225   */\n      tag_173\n        /* \"#utility.yul\":6221:6224   */\n      dup3\n        /* \"#utility.yul\":6132:6225   */\n      tag_84\n      jump\t// in\n    tag_173:\n        /* \"#utility.yul\":6250:6252   */\n      0x40\n        /* \"#utility.yul\":6245:6248   */\n      dup3\n        /* \"#utility.yul\":6241:6253   */\n      add\n        /* \"#utility.yul\":6234:6253   */\n      swap1\n      pop\n        /* \"#utility.yul\":5893:6259   */\n      swap2\n      swap1\n      pop\n      jump\t// out\n        /* \"#utility.yul\":6265:6684   */\n    tag_39:\n        /* \"#utility.yul\":6431:6435   */\n      0x00\n        /* \"#utility.yul\":6469:6471   */\n      0x20\n        /* \"#utility.yul\":6458:6467   */\n      dup3\n        /* \"#utility.yul\":6454:6472   */\n      add\n        /* \"#utility.yul\":6446:6472   */\n      swap1\n      pop\n        /* \"#utility.yul\":6518:6527   */\n      dup2\n        /* \"#utility.yul\":6512:6516   */\n      dup2\n        /* \"#utility.yul\":6508:6528   */\n      sub\n        /* \"#utility.yul\":6504:6505   */\n      0x00\n        /* \"#utility.yul\":6493:6502   */\n      dup4\n        /* \"#utility.yul\":6489:6506   */\n      add\n        /* \"#utility.yul\":6482:6529   */\n      mstore\n        /* \"#utility.yul\":6546:6677   */\n      tag_175\n        /* \"#utility.yul\":6672:6676   */\n      dup2\n        /* \"#utility.yul\":6546:6677   */\n      tag_85\n      jump\t// in\n    tag_175:\n        /* \"#utility.yul\":6538:6677   */\n      swap1\n      pop\n        /* \"#utility.yul\":6265:6684   */\n      swap2\n      swap1\n      pop\n      jump\t// out\n        /* \"#utility.yul\":6690:6870   */\n    tag_86:\n        /* \"#utility.yul\":6738:6815   */\n      0x4e487b7100000000000000000000000000000000000000000000000000000000\n        /* \"#utility.yul\":6735:6736   */\n      0x00\n        /* \"#utility.yul\":6728:6816   */\n      mstore\n        /* \"#utility.yul\":6835:6839   */\n      0x11\n        /* \"#utility.yul\":6832:6833   */\n      0x04\n        /* \"#utility.yul\":6825:6840   */\n      mstore\n        /* \"#utility.yul\":6859:6863   */\n      0x24\n        /* \"#utility.yul\":6856:6857   */\n      0x00\n        /* \"#utility.yul\":6849:6864   */\n      revert\n        /* \"#utility.yul\":6876:7867   */\n    tag_42:\n        /* \"#utility.yul\":6915:6922   */\n      0x00\n        /* \"#utility.yul\":6938:6957   */\n      tag_178\n        /* \"#utility.yul\":6955:6956   */\n      dup3\n        /* \"#utility.yul\":6938:6957   */\n      tag_68\n      jump\t// in\n    tag_178:\n        /* \"#utility.yul\":6933:6957   */\n      swap2\n      pop\n        /* \"#utility.yul\":6971:6990   */\n      tag_179\n        /* \"#utility.yul\":6988:6989   */\n      dup4\n        /* \"#utility.yul\":6971:6990   */\n      tag_68\n      jump\t// in\n    tag_179:\n        /* \"#utility.yul\":6966:6990   */\n      swap3\n      pop\n        /* \"#utility.yul\":7172:7173   */\n      dup3\n        /* \"#utility.yul\":7104:7170   */\n      0x7fffffffffffffffffffffffffffffffffffffffffffffffffffffffffffffff\n        /* \"#utility.yul\":7100:7174   */\n      div\n        /* \"#utility.yul\":7097:7098   */\n      dup3\n        /* \"#utility.yul\":7094:7175   */\n      gt\n        /* \"#utility.yul\":7089:7090   */\n      0x00\n        /* \"#utility.yul\":7086:7087   */\n      dup5\n        /* \"#utility.yul\":7082:7091   */\n      sgt\n        /* \"#utility.yul\":7078:7079   */\n      0x00\n        /* \"#utility.yul\":7075:7076   */\n      dup5\n        /* \"#utility.yul\":7071:7080   */\n      sgt\n        /* \"#utility.yul\":7067:7092   */\n      and\n        /* \"#utility.yul\":7063:7176   */\n      and\n        /* \"#utility.yul\":7060:7199   */\n      iszero\n      tag_180\n      jumpi\n        /* \"#utility.yul\":7179:7197   */\n      tag_181\n      tag_86\n      jump\t// in\n    tag_181:\n        /* \"#utility.yul\":7060:7199   */\n    tag_180:\n        /* \"#utility.yul\":7383:7384   */\n      dup2\n        /* \"#utility.yul\":7315:7381   */\n      0x8000000000000000000000000000000000000000000000000000000000000000\n        /* \"#utility.yul\":7310:7385   */\n      sdiv\n        /* \"#utility.yul\":7307:7308   */\n      dup4\n        /* \"#utility.yul\":7303:7386   */\n      slt\n        /* \"#utility.yul\":7298:7299   */\n      0x00\n        /* \"#utility.yul\":7295:7296   */\n      dup5\n        /* \"#utility.yul\":7291:7300   */\n      slt\n        /* \"#utility.yul\":7287:7288   */\n      0x00\n        /* \"#utility.yul\":7284:7285   */\n      dup5\n        /* \"#utility.yul\":7280:7289   */\n      sgt\n        /* \"#utility.yul\":7276:7301   */\n      and\n        /* \"#utility.yul\":7272:7387   */\n      and\n        /* \"#utility.yul\":7269:7410   */\n      iszero\n      tag_182\n      jumpi\n        /* \"#utility.yul\":7390:7408   */\n      tag_183\n      tag_86\n      jump\t// in\n    tag_183:\n        /* \"#utility.yul\":7269:7410   */\n    tag_182:\n        /* \"#utility.yul\":7594:7595   */\n      dup3\n        /* \"#utility.yul\":7526:7592   */\n      0x8000000000000000000000000000000000000000000000000000000000000000\n        /* \"#utility.yul\":7521:7596   */\n      sdiv\n        /* \"#utility.yul\":7518:7519   */\n      dup3\n        /* \"#utility.yul\":7514:7597   */\n      slt\n        /* \"#utility.yul\":7509:7510   */\n      0x00\n        /* \"#utility.yul\":7506:7507   */\n      dup5\n        /* \"#utility.yul\":7502:7511   */\n      sgt\n        /* \"#utility.yul\":7498:7499   */\n      0x00\n        /* \"#utility.yul\":7495:7496   */\n      dup5\n        /* \"#utility.yul\":7491:7500   */\n      slt\n        /* \"#utility.yul\":7487:7512   */\n      and\n        /* \"#utility.yul\":7483:7598   */\n      and\n        /* \"#utility.yul\":7480:7621   */\n      iszero\n      tag_184\n      jumpi\n        /* \"#utility.yul\":7601:7619   */\n      tag_185\n      tag_86\n      jump\t// in\n    tag_185:\n        /* \"#utility.yul\":7480:7621   */\n    tag_184:\n        /* \"#utility.yul\":7804:7805   */\n      dup3\n        /* \"#utility.yul\":7736:7802   */\n      0x7fffffffffffffffffffffffffffffffffffffffffffffffffffffffffffffff\n        /* \"#utility.yul\":7731:7806   */\n      sdiv\n        /* \"#utility.yul\":7728:7729   */\n      dup3\n        /* \"#utility.yul\":7724:7807   */\n      slt\n        /* \"#utility.yul\":7719:7720   */\n      0x00\n        /* \"#utility.yul\":7716:7717   */\n      dup5\n        /* \"#utility.yul\":7712:7721   */\n      slt\n        /* \"#utility.yul\":7708:7709   */\n      0x00\n        /* \"#utility.yul\":7705:7706   */\n      dup5\n        /* \"#utility.yul\":7701:7710   */\n      slt\n        /* \"#utility.yul\":7697:7722   */\n      and\n        /* \"#utility.yul\":7693:7808   */\n      and\n        /* \"#utility.yul\":7690:7831   */\n      iszero\n      tag_186\n      jumpi\n        /* \"#utility.yul\":7811:7829   */\n      tag_187\n      tag_86\n      jump\t// in\n    tag_187:\n        /* \"#utility.yul\":7690:7831   */\n    tag_186:\n        /* \"#utility.yul\":7859:7860   */\n      dup3\n        /* \"#utility.yul\":7856:7857   */\n      dup3\n        /* \"#utility.yul\":7852:7861   */\n      mul\n        /* \"#utility.yul\":7841:7861   */\n      swap1\n      pop\n        /* \"#utility.yul\":6876:7867   */\n      swap3\n      swap2\n      pop\n      pop\n      jump\t// out\n        /* \"#utility.yul\":7873:7967   */\n    tag_87:\n        /* \"#utility.yul\":7906:7914   */\n      0x00\n        /* \"#utility.yul\":7954:7959   */\n      dup2\n        /* \"#utility.yul\":7950:7952   */\n      0x60\n        /* \"#utility.yul\":7946:7960   */\n      shl\n        /* \"#utility.yul\":7925:7960   */\n      swap1\n      pop\n        /* \"#utility.yul\":7873:7967   */\n      swap2\n      swap1\n      pop\n      jump\t// out\n        /* \"#utility.yul\":7973:8067   */\n    tag_88:\n        /* \"#utility.yul\":8012:8019   */\n      0x00\n        /* \"#utility.yul\":8041:8061   */\n      tag_190\n        /* \"#utility.yul\":8055:8060   */\n      dup3\n        /* \"#utility.yul\":8041:8061   */\n      tag_87\n      jump\t// in\n    tag_190:\n        /* \"#utility.yul\":8030:8061   */\n      swap1\n      pop\n        /* \"#utility.yul\":7973:8067   */\n      swap2\n      swap1\n      pop\n      jump\t// out\n        /* \"#utility.yul\":8073:8173   */\n    tag_89:\n        /* \"#utility.yul\":8112:8119   */\n      0x00\n        /* \"#utility.yul\":8141:8167   */\n      tag_192\n        /* \"#utility.yul\":8161:8166   */\n      dup3\n        /* \"#utility.yul\":8141:8167   */\n      tag_88\n      jump\t// in\n    tag_192:\n        /* \"#utility.yul\":8130:8167   */\n      swap1\n      pop\n        /* \"#utility.yul\":8073:8173   */\n      swap2\n      swap1\n      pop\n      jump\t// out\n        /* \"#utility.yul\":8179:8336   */\n    tag_90:\n        /* \"#utility.yul\":8284:8329   */\n      tag_194\n        /* \"#utility.yul\":8304:8328   */\n      tag_195\n        /* \"#utility.yul\":8322:8327   */\n      dup3\n        /* \"#utility.yul\":8304:8328   */\n      tag_65\n      jump\t// in\n    tag_195:\n        /* \"#utility.yul\":8284:8329   */\n      tag_89\n      jump\t// in\n    tag_194:\n        /* \"#utility.yul\":8279:8282   */\n      dup3\n        /* \"#utility.yul\":8272:8330   */\n      mstore\n        /* \"#utility.yul\":8179:8336   */\n      pop\n      pop\n      jump\t// out\n        /* \"#utility.yul\":8342:8419   */\n    tag_91:\n        /* \"#utility.yul\":8379:8386   */\n      0x00\n        /* \"#utility.yul\":8408:8413   */\n      dup2\n        /* \"#utility.yul\":8397:8413   */\n      swap1\n      pop\n        /* \"#utility.yul\":8342:8419   */\n      swap2\n      swap1\n      pop\n      jump\t// out\n        /* \"#utility.yul\":8425:8504   */\n    tag_92:\n        /* \"#utility.yul\":8464:8471   */\n      0x00\n        /* \"#utility.yul\":8493:8498   */\n      dup2\n        /* \"#utility.yul\":8482:8498   */\n      swap1\n      pop\n        /* \"#utility.yul\":8425:8504   */\n      swap2\n      swap1\n      pop\n      jump\t// out\n        /* \"#utility.yul\":8510:8667   */\n    tag_93:\n        /* \"#utility.yul\":8615:8660   */\n      tag_199\n        /* \"#utility.yul\":8635:8659   */\n      tag_200\n        /* \"#utility.yul\":8653:8658   */\n      dup3\n        /* \"#utility.yul\":8635:8659   */\n      tag_91\n      jump\t// in\n    tag_200:\n        /* \"#utility.yul\":8615:8660   */\n      tag_92\n      jump\t// in\n    tag_199:\n        /* \"#utility.yul\":8610:8613   */\n      dup3\n        /* \"#utility.yul\":8603:8661   */\n      mstore\n        /* \"#utility.yul\":8510:8667   */\n      pop\n      pop\n      jump\t// out\n        /* \"#utility.yul\":8673:9211   */\n    tag_44:\n        /* \"#utility.yul\":8841:8844   */\n      0x00\n        /* \"#utility.yul\":8856:8931   */\n      tag_202\n        /* \"#utility.yul\":8927:8930   */\n      dup3\n        /* \"#utility.yul\":8918:8924   */\n      dup7\n        /* \"#utility.yul\":8856:8931   */\n      tag_90\n      jump\t// in\n    tag_202:\n        /* \"#utility.yul\":8956:8958   */\n      0x14\n        /* \"#utility.yul\":8951:8954   */\n      dup3\n        /* \"#utility.yul\":8947:8959   */\n      add\n        /* \"#utility.yul\":8940:8959   */\n      swap2\n      pop\n        /* \"#utility.yul\":8969:9044   */\n      tag_203\n        /* \"#utility.yul\":9040:9043   */\n      dup3\n        /* \"#utility.yul\":9031:9037   */\n      dup6\n        /* \"#utility.yul\":8969:9044   */\n      tag_90\n      jump\t// in\n    tag_203:\n        /* \"#utility.yul\":9069:9071   */\n      0x14\n        /* \"#utility.yul\":9064:9067   */\n      dup3\n        /* \"#utility.yul\":9060:9072   */\n      add\n        /* \"#utility.yul\":9053:9072   */\n      swap2\n      pop\n        /* \"#utility.yul\":9082:9157   */\n      tag_204\n        /* \"#utility.yul\":9153:9156   */\n      dup3\n        /* \"#utility.yul\":9144:9150   */\n      dup5\n        /* \"#utility.yul\":9082:9157   */\n      tag_93\n      jump\t// in\n    tag_204:\n        /* \"#utility.yul\":9182:9184   */\n      0x20\n        /* \"#utility.yul\":9177:9180   */\n      dup3\n        /* \"#utility.yul\":9173:9185   */\n      add\n        /* \"#utility.yul\":9166:9185   */\n      swap2\n      pop\n        /* \"#utility.yul\":9202:9205   */\n      dup2\n        /* \"#utility.yul\":9195:9205   */\n      swap1\n      pop\n        /* \"#utility.yul\":8673:9211   */\n      swap5\n      swap4\n      pop\n      pop\n      pop\n      pop\n      jump\t// out\n        /* \"#utility.yul\":9217:9315   */\n    tag_94:\n        /* \"#utility.yul\":9268:9274   */\n      0x00\n        /* \"#utility.yul\":9302:9307   */\n      dup2\n        /* \"#utility.yul\":9296:9308   */\n      mload\n        /* \"#utility.yul\":9286:9308   */\n      swap1\n      pop\n        /* \"#utility.yul\":9217:9315   */\n      swap2\n      swap1\n      pop\n      jump\t// out\n        /* \"#utility.yul\":9321:9468   */\n    tag_95:\n        /* \"#utility.yul\":9422:9433   */\n      0x00\n        /* \"#utility.yul\":9459:9462   */\n      dup2\n        /* \"#utility.yul\":9444:9462   */\n      swap1\n      pop\n        /* \"#utility.yul\":9321:9468   */\n      swap3\n      swap2\n      pop\n      pop\n      jump\t// out\n        /* \"#utility.yul\":9474:9847   */\n    tag_96:\n        /* \"#utility.yul\":9578:9581   */\n      0x00\n        /* \"#utility.yul\":9606:9644   */\n      tag_208\n        /* \"#utility.yul\":9638:9643   */\n      dup3\n        /* \"#utility.yul\":9606:9644   */\n      tag_94\n      jump\t// in\n    tag_208:\n        /* \"#utility.yul\":9660:9748   */\n      tag_209\n        /* \"#utility.yul\":9741:9747   */\n      dup2\n        /* \"#utility.yul\":9736:9739   */\n      dup6\n        /* \"#utility.yul\":9660:9748   */\n      tag_95\n      jump\t// in\n    tag_209:\n        /* \"#utility.yul\":9653:9748   */\n      swap4\n      pop\n        /* \"#utility.yul\":9757:9809   */\n      tag_210\n        /* \"#utility.yul\":9802:9808   */\n      dup2\n        /* \"#utility.yul\":9797:9800   */\n      dup6\n        /* \"#utility.yul\":9790:9794   */\n      0x20\n        /* \"#utility.yul\":9783:9788   */\n      dup7\n        /* \"#utility.yul\":9779:9795   */\n      add\n        /* \"#utility.yul\":9757:9809   */\n      tag_75\n      jump\t// in\n    tag_210:\n        /* \"#utility.yul\":9834:9840   */\n      dup1\n        /* \"#utility.yul\":9829:9832   */\n      dup5\n        /* \"#utility.yul\":9825:9841   */\n      add\n        /* \"#utility.yul\":9818:9841   */\n      swap2\n      pop\n        /* \"#utility.yul\":9582:9847   */\n      pop\n        /* \"#utility.yul\":9474:9847   */\n      swap3\n      swap2\n      pop\n      pop\n      jump\t// out\n        /* \"#utility.yul\":9853:10124   */\n    tag_46:\n        /* \"#utility.yul\":9983:9986   */\n      0x00\n        /* \"#utility.yul\":10005:10098   */\n      tag_212\n        /* \"#utility.yul\":10094:10097   */\n      dup3\n        /* \"#utility.yul\":10085:10091   */\n      dup5\n        /* \"#utility.yul\":10005:10098   */\n      tag_96\n      jump\t// in\n    tag_212:\n        /* \"#utility.yul\":9998:10098   */\n      swap2\n      pop\n        /* \"#utility.yul\":10115:10118   */\n      dup2\n        /* \"#utility.yul\":10108:10118   */\n      swap1\n      pop\n        /* \"#utility.yul\":9853:10124   */\n      swap3\n      swap2\n      pop\n      pop\n      jump\t// out\n        /* \"#utility.yul\":10130:10273   */\n    tag_97:\n        /* \"#utility.yul\":10187:10192   */\n      0x00\n        /* \"#utility.yul\":10218:10224   */\n      dup2\n        /* \"#utility.yul\":10212:10225   */\n      mload\n        /* \"#utility.yul\":10203:10225   */\n      swap1\n      pop\n        /* \"#utility.yul\":10234:10267   */\n      tag_214\n        /* \"#utility.yul\":10261:10266   */\n      dup2\n        /* \"#utility.yul\":10234:10267   */\n      tag_78\n      jump\t// in\n    tag_214:\n        /* \"#utility.yul\":10130:10273   */\n      swap3\n      swap2\n      pop\n      pop\n      jump\t// out\n        /* \"#utility.yul\":10279:10630   */\n    tag_50:\n        /* \"#utility.yul\":10349:10355   */\n      0x00\n        /* \"#utility.yul\":10398:10400   */\n      0x20\n        /* \"#utility.yul\":10386:10395   */\n      dup3\n        /* \"#utility.yul\":10377:10384   */\n      dup5\n        /* \"#utility.yul\":10373:10396   */\n      sub\n        /* \"#utility.yul\":10369:10401   */\n      slt\n        /* \"#utility.yul\":10366:10485   */\n      iszero\n      tag_216\n      jumpi\n        /* \"#utility.yul\":10404:10483   */\n      tag_217\n      tag_62\n      jump\t// in\n    tag_217:\n        /* \"#utility.yul\":10366:10485   */\n    tag_216:\n        /* \"#utility.yul\":10524:10525   */\n      0x00\n        /* \"#utility.yul\":10549:10613   */\n      tag_218\n        /* \"#utility.yul\":10605:10612   */\n      dup5\n        /* \"#utility.yul\":10596:10602   */\n      dup3\n        /* \"#utility.yul\":10585:10594   */\n      dup6\n        /* \"#utility.yul\":10581:10603   */\n      add\n        /* \"#utility.yul\":10549:10613   */\n      tag_97\n      jump\t// in\n    tag_218:\n        /* \"#utility.yul\":10539:10613   */\n      swap2\n      pop\n        /* \"#utility.yul\":10495:10623   */\n      pop\n        /* \"#utility.yul\":10279:10630   */\n      swap3\n      swap2\n      pop\n      pop\n      jump\t// out\n        /* \"#utility.yul\":10636:10816   */\n    tag_98:\n        /* \"#utility.yul\":10684:10761   */\n      0x4e487b7100000000000000000000000000000000000000000000000000000000\n        /* \"#utility.yul\":10681:10682   */\n      0x00\n        /* \"#utility.yul\":10674:10762   */\n      mstore\n        /* \"#utility.yul\":10781:10785   */\n      0x22\n        /* \"#utility.yul\":10778:10779   */\n      0x04\n        /* \"#utility.yul\":10771:10786   */\n      mstore\n        /* \"#utility.yul\":10805:10809   */\n      0x24\n        /* \"#utility.yul\":10802:10803   */\n      0x00\n        /* \"#utility.yul\":10795:10810   */\n      revert\n        /* \"#utility.yul\":10822:11142   */\n    tag_52:\n        /* \"#utility.yul\":10866:10872   */\n      0x00\n        /* \"#utility.yul\":10903:10904   */\n      0x02\n        /* \"#utility.yul\":10897:10901   */\n      dup3\n        /* \"#utility.yul\":10893:10905   */\n      div\n        /* \"#utility.yul\":10883:10905   */\n      swap1\n      pop\n        /* \"#utility.yul\":10950:10951   */\n      0x01\n        /* \"#utility.yul\":10944:10948   */\n      dup3\n        /* \"#utility.yul\":10940:10952   */\n      and\n        /* \"#utility.yul\":10971:10989   */\n      dup1\n        /* \"#utility.yul\":10961:11042   */\n      tag_221\n      jumpi\n        /* \"#utility.yul\":11027:11031   */\n      0x7f\n        /* \"#utility.yul\":11019:11025   */\n      dup3\n        /* \"#utility.yul\":11015:11032   */\n      and\n        /* \"#utility.yul\":11005:11032   */\n      swap2\n      pop\n        /* \"#utility.yul\":10961:11042   */\n    tag_221:\n        /* \"#utility.yul\":11089:11091   */\n      0x20\n        /* \"#utility.yul\":11081:11087   */\n      dup3\n        /* \"#utility.yul\":11078:11092   */\n      lt\n        /* \"#utility.yul\":11058:11076   */\n      dup2\n        /* \"#utility.yul\":11055:11093   */\n      eq\n        /* \"#utility.yul\":11052:11136   */\n      iszero\n      tag_222\n      jumpi\n        /* \"#utility.yul\":11108:11126   */\n      tag_223\n      tag_98\n      jump\t// in\n    tag_223:\n        /* \"#utility.yul\":11052:11136   */\n    tag_222:\n        /* \"#utility.yul\":10873:11142   */\n      pop\n        /* \"#utility.yul\":10822:11142   */\n      swap2\n      swap1\n      pop\n      jump\t// out\n        /* \"#utility.yul\":11148:11380   */\n    tag_99:\n        /* \"#utility.yul\":11288:11322   */\n      0x4f6e6c792070726f636573736f722063616e206d61726b20736869706d656e74\n        /* \"#utility.yul\":11284:11285   */\n      0x00\n        /* \"#utility.yul\":11276:11282   */\n      dup3\n        /* \"#utility.yul\":11272:11286   */\n      add\n        /* \"#utility.yul\":11265:11323   */\n      mstore\n        /* \"#utility.yul\":11357:11372   */\n      0x2061732064656c69766572656400000000000000000000000000000000000000\n        /* \"#utility.yul\":11352:11354   */\n      0x20\n        /* \"#utility.yul\":11344:11350   */\n      dup3\n        /* \"#utility.yul\":11340:11355   */\n      add\n        /* \"#utility.yul\":11333:11373   */\n      mstore\n        /* \"#utility.yul\":11148:11380   */\n      pop\n      jump\t// out\n        /* \"#utility.yul\":11386:11752   */\n    tag_100:\n        /* \"#utility.yul\":11528:11531   */\n      0x00\n        /* \"#utility.yul\":11549:11616   */\n      tag_226\n        /* \"#utility.yul\":11613:11615   */\n      0x2d\n        /* \"#utility.yul\":11608:11611   */\n      dup4\n        /* \"#utility.yul\":11549:11616   */\n      tag_74\n      jump\t// in\n    tag_226:\n        /* \"#utility.yul\":11542:11616   */\n      swap2\n      pop\n        /* \"#utility.yul\":11625:11718   */\n      tag_227\n        /* \"#utility.yul\":11714:11717   */\n      dup3\n        /* \"#utility.yul\":11625:11718   */\n      tag_99\n      jump\t// in\n    tag_227:\n        /* \"#utility.yul\":11743:11745   */\n      0x40\n        /* \"#utility.yul\":11738:11741   */\n      dup3\n        /* \"#utility.yul\":11734:11746   */\n      add\n        /* \"#utility.yul\":11727:11746   */\n      swap1\n      pop\n        /* \"#utility.yul\":11386:11752   */\n      swap2\n      swap1\n      pop\n      jump\t// out\n        /* \"#utility.yul\":11758:12177   */\n    tag_60:\n        /* \"#utility.yul\":11924:11928   */\n      0x00\n        /* \"#utility.yul\":11962:11964   */\n      0x20\n        /* \"#utility.yul\":11951:11960   */\n      dup3\n        /* \"#utility.yul\":11947:11965   */\n      add\n        /* \"#utility.yul\":11939:11965   */\n      swap1\n      pop\n        /* \"#utility.yul\":12011:12020   */\n      dup2\n        /* \"#utility.yul\":12005:12009   */\n      dup2\n        /* \"#utility.yul\":12001:12021   */\n      sub\n        /* \"#utility.yul\":11997:11998   */\n      0x00\n        /* \"#utility.yul\":11986:11995   */\n      dup4\n        /* \"#utility.yul\":11982:11999   */\n      add\n        /* \"#utility.yul\":11975:12022   */\n      mstore\n        /* \"#utility.yul\":12039:12170   */\n      tag_229\n        /* \"#utility.yul\":12165:12169   */\n      dup2\n        /* \"#utility.yul\":12039:12170   */\n      tag_100\n      jump\t// in\n    tag_229:\n        /* \"#utility.yul\":12031:12170   */\n      swap1\n      pop\n        /* \"#utility.yul\":11758:12177   */\n      swap2\n      swap1\n      pop\n      jump\t// out\n\n    auxdata: 0xa2646970667358221220436415f0e7f832bf55ccaf116b935c5aeb2f16fa98133a39db98115fdce7589764736f6c63430008090033\n}\n",
        "bytecode": {
            "linkReferences": {},
            "object": "60806040523480156200001157600080fd5b50604051620010db380380620010db833981810160405281019062000037919062000327565b336000806101000a81548173ffffffffffffffffffffffffffffffffffffffff021916908373ffffffffffffffffffffffffffffffffffffffff16021790555081600190805190602001906200008f9291906200009f565b50806002819055505050620003f2565b828054620000ad90620003bc565b90600052602060002090601f016020900481019282620000d157600085556200011d565b82601f10620000ec57805160ff19168380011785556200011d565b828001600101855582156200011d579182015b828111156200011c578251825591602001919060010190620000ff565b5b5090506200012c919062000130565b5090565b5b808211156200014b57600081600090555060010162000131565b5090565b6000604051905090565b600080fd5b600080fd5b600080fd5b600080fd5b6000601f19601f8301169050919050565b7f4e487b7100000000000000000000000000000000000000000000000000000000600052604160045260246000fd5b620001b8826200016d565b810181811067ffffffffffffffff82111715620001da57620001d96200017e565b5b80604052505050565b6000620001ef6200014f565b9050620001fd8282620001ad565b919050565b600067ffffffffffffffff82111562000220576200021f6200017e565b5b6200022b826200016d565b9050602081019050919050565b60005b83811015620002585780820151818401526020810190506200023b565b8381111562000268576000848401525b50505050565b6000620002856200027f8462000202565b620001e3565b905082815260208101848484011115620002a457620002a362000168565b5b620002b184828562000238565b509392505050565b600082601f830112620002d157620002d062000163565b5b8151620002e38482602086016200026e565b91505092915050565b6000819050919050565b6200030181620002ec565b81146200030d57600080fd5b50565b6000815190506200032181620002f6565b92915050565b6000806040838503121562000341576200034062000159565b5b600083015167ffffffffffffffff8111156200036257620003616200015e565b5b6200037085828601620002b9565b9250506020620003838582860162000310565b9150509250929050565b7f4e487b7100000000000000000000000000000000000000000000000000000000600052602260045260246000fd5b60006002820490506001821680620003d557607f821691505b60208210811415620003ec57620003eb6200038d565b5b50919050565b610cd980620004026000396000f3fe608060405234801561001057600080fd5b50600436106100625760003560e01c806355c4c562146100675780635dc9b4dc14610097578063a462fe9a146100b5578063bfe10928146100d1578063d87b4041146100ef578063df3e1a5014610123575b600080fd5b610081600480360381019061007c919061063e565b610141565b60405161008e9190610697565b60405180910390f35b61009f610394565b6040516100ac919061074b565b60405180910390f35b6100cf60048036038101906100ca9190610799565b610422565b005b6100d96104f8565b6040516100e691906107d5565b60405180910390f35b61010960048036038101906101049190610799565b61051c565b60405161011a95949392919061081a565b60405180910390f35b61012b61059f565b604051610138919061086d565b60405180910390f35b60008060009054906101000a900473ffffffffffffffffffffffffffffffffffffffff1673ffffffffffffffffffffffffffffffffffffffff163373ffffffffffffffffffffffffffffffffffffffff16146101d2576040517f08c379a00000000000000000000000000000000000000000000000000000000081526004016101c9906108fa565b60405180910390fd5b6000600254836101e29190610949565b9050600060023386426040516020016101fd93929190610ad3565b6040516020818303038152906040526040516102199190610b57565b602060405180830381855afa158015610236573d6000803e3d6000fd5b5050506040513d601f19601f820116820180604052508101906102599190610b83565b90506040518060a001604052808673ffffffffffffffffffffffffffffffffffffffff1681526020013373ffffffffffffffffffffffffffffffffffffffff168152602001858152602001838152602001600015158152506003600083815260200190815260200160002060008201518160000160006101000a81548173ffffffffffffffffffffffffffffffffffffffff021916908373ffffffffffffffffffffffffffffffffffffffff16021790555060208201518160010160006101000a81548173ffffffffffffffffffffffffffffffffffffffff021916908373ffffffffffffffffffffffffffffffffffffffff160217905550604082015181600201556060820151816003015560808201518160040160006101000a81548160ff021916908315150217905550905050809250505092915050565b600180546103a190610bdf565b80601f01602080910402602001604051908101604052809291908181526020018280546103cd90610bdf565b801561041a5780601f106103ef5761010080835404028352916020019161041a565b820191906000526020600020905b8154815290600101906020018083116103fd57829003601f168201915b505050505081565b3373ffffffffffffffffffffffffffffffffffffffff166003600083815260200190815260200160002060000160009054906101000a900473ffffffffffffffffffffffffffffffffffffffff1673ffffffffffffffffffffffffffffffffffffffff16146104c6576040517f08c379a00000000000000000000000000000000000000000000000000000000081526004016104bd90610c83565b60405180910390fd5b60016003600083815260200190815260200160002060040160006101000a81548160ff02191690831515021790555050565b60008054906101000a900473ffffffffffffffffffffffffffffffffffffffff1681565b60036020528060005260406000206000915090508060000160009054906101000a900473ffffffffffffffffffffffffffffffffffffffff16908060010160009054906101000a900473ffffffffffffffffffffffffffffffffffffffff16908060020154908060030154908060040160009054906101000a900460ff16905085565b60025481565b600080fd5b600073ffffffffffffffffffffffffffffffffffffffff82169050919050565b60006105d5826105aa565b9050919050565b6105e5816105ca565b81146105f057600080fd5b50565b600081359050610602816105dc565b92915050565b6000819050919050565b61061b81610608565b811461062657600080fd5b50565b60008135905061063881610612565b92915050565b60008060408385031215610655576106546105a5565b5b6000610663858286016105f3565b925050602061067485828601610629565b9150509250929050565b6000819050919050565b6106918161067e565b82525050565b60006020820190506106ac6000830184610688565b92915050565b600081519050919050565b600082825260208201905092915050565b60005b838110156106ec5780820151818401526020810190506106d1565b838111156106fb576000848401525b50505050565b6000601f19601f8301169050919050565b600061071d826106b2565b61072781856106bd565b93506107378185602086016106ce565b61074081610701565b840191505092915050565b600060208201905081810360008301526107658184610712565b905092915050565b6107768161067e565b811461078157600080fd5b50565b6000813590506107938161076d565b92915050565b6000602082840312156107af576107ae6105a5565b5b60006107bd84828501610784565b91505092915050565b6107cf816105ca565b82525050565b60006020820190506107ea60008301846107c6565b92915050565b6107f981610608565b82525050565b60008115159050919050565b610814816107ff565b82525050565b600060a08201905061082f60008301886107c6565b61083c60208301876107c6565b61084960408301866107f0565b61085660608301856107f0565b610863608083018461080b565b9695505050505050565b600060208201905061088260008301846107f0565b92915050565b7f4f6e6c79206469737472696275746f722063616e2063616c6c2074686973206660008201527f756e6374696f6e00000000000000000000000000000000000000000000000000602082015250565b60006108e46027836106bd565b91506108ef82610888565b604082019050919050565b60006020820190508181036000830152610913816108d7565b9050919050565b7f4e487b7100000000000000000000000000000000000000000000000000000000600052601160045260246000fd5b600061095482610608565b915061095f83610608565b9250827f7fffffffffffffffffffffffffffffffffffffffffffffffffffffffffffffff048211600084136000841316161561099e5761099d61091a565b5b817f800000000000000000000000000000000000000000000000000000000000000005831260008412600084131616156109db576109da61091a565b5b827f80000000000000000000000000000000000000000000000000000000000000000582126000841360008412161615610a1857610a1761091a565b5b827f7fffffffffffffffffffffffffffffffffffffffffffffffffffffffffffffff0582126000841260008412161615610a5557610a5461091a565b5b828202905092915050565b60008160601b9050919050565b6000610a7882610a60565b9050919050565b6000610a8a82610a6d565b9050919050565b610aa2610a9d826105ca565b610a7f565b82525050565b6000819050919050565b6000819050919050565b610acd610ac882610aa8565b610ab2565b82525050565b6000610adf8286610a91565b601482019150610aef8285610a91565b601482019150610aff8284610abc565b602082019150819050949350505050565b600081519050919050565b600081905092915050565b6000610b3182610b10565b610b3b8185610b1b565b9350610b4b8185602086016106ce565b80840191505092915050565b6000610b638284610b26565b915081905092915050565b600081519050610b7d8161076d565b92915050565b600060208284031215610b9957610b986105a5565b5b6000610ba784828501610b6e565b91505092915050565b7f4e487b7100000000000000000000000000000000000000000000000000000000600052602260045260246000fd5b60006002820490506001821680610bf757607f821691505b60208210811415610c0b57610c0a610bb0565b5b50919050565b7f4f6e6c792070726f636573736f722063616e206d61726b20736869706d656e7460008201527f2061732064656c69766572656400000000000000000000000000000000000000602082015250565b6000610c6d602d836106bd565b9150610c7882610c11565b604082019050919050565b60006020820190508181036000830152610c9c81610c60565b905091905056fea2646970667358221220436415f0e7f832bf55ccaf116b935c5aeb2f16fa98133a39db98115fdce7589764736f6c63430008090033",
            "opcodes": "PUSH1 0x80 PUSH1 0x40 MSTORE CALLVALUE DUP1 ISZERO PUSH3 0x11 JUMPI PUSH1 0x0 DUP1 REVERT JUMPDEST POP PUSH1 0x40 MLOAD PUSH3 0x10DB CODESIZE SUB DUP1 PUSH3 0x10DB DUP4 CODECOPY DUP2 DUP2 ADD PUSH1 0x40 MSTORE DUP2 ADD SWAP1 PUSH3 0x37 SWAP2 SWAP1 PUSH3 0x327 JUMP JUMPDEST CALLER PUSH1 0x0 DUP1 PUSH2 0x100 EXP DUP2 SLOAD DUP2 PUSH20 0xFFFFFFFFFFFFFFFFFFFFFFFFFFFFFFFFFFFFFFFF MUL NOT AND SWAP1 DUP4 PUSH20 0xFFFFFFFFFFFFFFFFFFFFFFFFFFFFFFFFFFFFFFFF AND MUL OR SWAP1 SSTORE POP DUP2 PUSH1 0x1 SWAP1 DUP1 MLOAD SWAP1 PUSH1 0x20 ADD SWAP1 PUSH3 0x8F SWAP3 SWAP2 SWAP1 PUSH3 0x9F JUMP JUMPDEST POP DUP1 PUSH1 0x2 DUP2 SWAP1 SSTORE POP POP POP PUSH3 0x3F2 JUMP JUMPDEST DUP3 DUP1 SLOAD PUSH3 0xAD SWAP1 PUSH3 0x3BC JUMP JUMPDEST SWAP1 PUSH1 0x0 MSTORE PUSH1 0x20 PUSH1 0x0 KECCAK256 SWAP1 PUSH1 0x1F ADD PUSH1 0x20 SWAP1 DIV DUP2 ADD SWAP3 DUP3 PUSH3 0xD1 JUMPI PUSH1 0x0 DUP6 SSTORE PUSH3 0x11D JUMP JUMPDEST DUP3 PUSH1 0x1F LT PUSH3 0xEC JUMPI DUP1 MLOAD PUSH1 0xFF NOT AND DUP4 DUP1 ADD OR DUP6 SSTORE PUSH3 0x11D JUMP JUMPDEST DUP3 DUP1 ADD PUSH1 0x1 ADD DUP6 SSTORE DUP3 ISZERO PUSH3 0x11D JUMPI SWAP2 DUP3 ADD JUMPDEST DUP3 DUP2 GT ISZERO PUSH3 0x11C JUMPI DUP3 MLOAD DUP3 SSTORE SWAP2 PUSH1 0x20 ADD SWAP2 SWAP1 PUSH1 0x1 ADD SWAP1 PUSH3 0xFF JUMP JUMPDEST JUMPDEST POP SWAP1 POP PUSH3 0x12C SWAP2 SWAP1 PUSH3 0x130 JUMP JUMPDEST POP SWAP1 JUMP JUMPDEST JUMPDEST DUP1 DUP3 GT ISZERO PUSH3 0x14B JUMPI PUSH1 0x0 DUP2 PUSH1 0x0 SWAP1 SSTORE POP PUSH1 0x1 ADD PUSH3 0x131 JUMP JUMPDEST POP SWAP1 JUMP JUMPDEST PUSH1 0x0 PUSH1 0x40 MLOAD SWAP1 POP SWAP1 JUMP JUMPDEST PUSH1 0x0 DUP1 REVERT JUMPDEST PUSH1 0x0 DUP1 REVERT JUMPDEST PUSH1 0x0 DUP1 REVERT JUMPDEST PUSH1 0x0 DUP1 REVERT JUMPDEST PUSH1 0x0 PUSH1 0x1F NOT PUSH1 0x1F DUP4 ADD AND SWAP1 POP SWAP2 SWAP1 POP JUMP JUMPDEST PUSH32 0x4E487B7100000000000000000000000000000000000000000000000000000000 PUSH1 0x0 MSTORE PUSH1 0x41 PUSH1 0x4 MSTORE PUSH1 0x24 PUSH1 0x0 REVERT JUMPDEST PUSH3 0x1B8 DUP3 PUSH3 0x16D JUMP JUMPDEST DUP2 ADD DUP2 DUP2 LT PUSH8 0xFFFFFFFFFFFFFFFF DUP3 GT OR ISZERO PUSH3 0x1DA JUMPI PUSH3 0x1D9 PUSH3 0x17E JUMP JUMPDEST JUMPDEST DUP1 PUSH1 0x40 MSTORE POP POP POP JUMP JUMPDEST PUSH1 0x0 PUSH3 0x1EF PUSH3 0x14F JUMP JUMPDEST SWAP1 POP PUSH3 0x1FD DUP3 DUP3 PUSH3 0x1AD JUMP JUMPDEST SWAP2 SWAP1 POP JUMP JUMPDEST PUSH1 0x0 PUSH8 0xFFFFFFFFFFFFFFFF DUP3 GT ISZERO PUSH3 0x220 JUMPI PUSH3 0x21F PUSH3 0x17E JUMP JUMPDEST JUMPDEST PUSH3 0x22B DUP3 PUSH3 0x16D JUMP JUMPDEST SWAP1 POP PUSH1 0x20 DUP2 ADD SWAP1 POP SWAP2 SWAP1 POP JUMP JUMPDEST PUSH1 0x0 JUMPDEST DUP4 DUP2 LT ISZERO PUSH3 0x258 JUMPI DUP1 DUP3 ADD MLOAD DUP2 DUP5 ADD MSTORE PUSH1 0x20 DUP2 ADD SWAP1 POP PUSH3 0x23B JUMP JUMPDEST DUP4 DUP2 GT ISZERO PUSH3 0x268 JUMPI PUSH1 0x0 DUP5 DUP5 ADD MSTORE JUMPDEST POP POP POP POP JUMP JUMPDEST PUSH1 0x0 PUSH3 0x285 PUSH3 0x27F DUP5 PUSH3 0x202 JUMP JUMPDEST PUSH3 0x1E3 JUMP JUMPDEST SWAP1 POP DUP3 DUP2 MSTORE PUSH1 0x20 DUP2 ADD DUP5 DUP5 DUP5 ADD GT ISZERO PUSH3 0x2A4 JUMPI PUSH3 0x2A3 PUSH3 0x168 JUMP JUMPDEST JUMPDEST PUSH3 0x2B1 DUP5 DUP3 DUP6 PUSH3 0x238 JUMP JUMPDEST POP SWAP4 SWAP3 POP POP POP JUMP JUMPDEST PUSH1 0x0 DUP3 PUSH1 0x1F DUP4 ADD SLT PUSH3 0x2D1 JUMPI PUSH3 0x2D0 PUSH3 0x163 JUMP JUMPDEST JUMPDEST DUP2 MLOAD PUSH3 0x2E3 DUP5 DUP3 PUSH1 0x20 DUP7 ADD PUSH3 0x26E JUMP JUMPDEST SWAP2 POP POP SWAP3 SWAP2 POP POP JUMP JUMPDEST PUSH1 0x0 DUP2 SWAP1 POP SWAP2 SWAP1 POP JUMP JUMPDEST PUSH3 0x301 DUP2 PUSH3 0x2EC JUMP JUMPDEST DUP2 EQ PUSH3 0x30D JUMPI PUSH1 0x0 DUP1 REVERT JUMPDEST POP JUMP JUMPDEST PUSH1 0x0 DUP2 MLOAD SWAP1 POP PUSH3 0x321 DUP2 PUSH3 0x2F6 JUMP JUMPDEST SWAP3 SWAP2 POP POP JUMP JUMPDEST PUSH1 0x0 DUP1 PUSH1 0x40 DUP4 DUP6 SUB SLT ISZERO PUSH3 0x341 JUMPI PUSH3 0x340 PUSH3 0x159 JUMP JUMPDEST JUMPDEST PUSH1 0x0 DUP4 ADD MLOAD PUSH8 0xFFFFFFFFFFFFFFFF DUP2 GT ISZERO PUSH3 0x362 JUMPI PUSH3 0x361 PUSH3 0x15E JUMP JUMPDEST JUMPDEST PUSH3 0x370 DUP6 DUP3 DUP7 ADD PUSH3 0x2B9 JUMP JUMPDEST SWAP3 POP POP PUSH1 0x20 PUSH3 0x383 DUP6 DUP3 DUP7 ADD PUSH3 0x310 JUMP JUMPDEST SWAP2 POP POP SWAP3 POP SWAP3 SWAP1 POP JUMP JUMPDEST PUSH32 0x4E487B7100000000000000000000000000000000000000000000000000000000 PUSH1 0x0 MSTORE PUSH1 0x22 PUSH1 0x4 MSTORE PUSH1 0x24 PUSH1 0x0 REVERT JUMPDEST PUSH1 0x0 PUSH1 0x2 DUP3 DIV SWAP1 POP PUSH1 0x1 DUP3 AND DUP1 PUSH3 0x3D5 JUMPI PUSH1 0x7F DUP3 AND SWAP2 POP JUMPDEST PUSH1 0x20 DUP3 LT DUP2 EQ ISZERO PUSH3 0x3EC JUMPI PUSH3 0x3EB PUSH3 0x38D JUMP JUMPDEST JUMPDEST POP SWAP2 SWAP1 POP JUMP JUMPDEST PUSH2 0xCD9 DUP1 PUSH3 0x402 PUSH1 0x0 CODECOPY PUSH1 0x0 RETURN INVALID PUSH1 0x80 PUSH1 0x40 MSTORE CALLVALUE DUP1 ISZERO PUSH2 0x10 JUMPI PUSH1 0x0 DUP1 REVERT JUMPDEST POP PUSH1 0x4 CALLDATASIZE LT PUSH2 0x62 JUMPI PUSH1 0x0 CALLDATALOAD PUSH1 0xE0 SHR DUP1 PUSH4 0x55C4C562 EQ PUSH2 0x67 JUMPI DUP1 PUSH4 0x5DC9B4DC EQ PUSH2 0x97 JUMPI DUP1 PUSH4 0xA462FE9A EQ PUSH2 0xB5 JUMPI DUP1 PUSH4 0xBFE10928 EQ PUSH2 0xD1 JUMPI DUP1 PUSH4 0xD87B4041 EQ PUSH2 0xEF JUMPI DUP1 PUSH4 0xDF3E1A50 EQ PUSH2 0x123 JUMPI JUMPDEST PUSH1 0x0 DUP1 REVERT JUMPDEST PUSH2 0x81 PUSH1 0x4 DUP1 CALLDATASIZE SUB DUP2 ADD SWAP1 PUSH2 0x7C SWAP2 SWAP1 PUSH2 0x63E JUMP JUMPDEST PUSH2 0x141 JUMP JUMPDEST PUSH1 0x40 MLOAD PUSH2 0x8E SWAP2 SWAP1 PUSH2 0x697 JUMP JUMPDEST PUSH1 0x40 MLOAD DUP1 SWAP2 SUB SWAP1 RETURN JUMPDEST PUSH2 0x9F PUSH2 0x394 JUMP JUMPDEST PUSH1 0x40 MLOAD PUSH2 0xAC SWAP2 SWAP1 PUSH2 0x74B JUMP JUMPDEST PUSH1 0x40 MLOAD DUP1 SWAP2 SUB SWAP1 RETURN JUMPDEST PUSH2 0xCF PUSH1 0x4 DUP1 CALLDATASIZE SUB DUP2 ADD SWAP1 PUSH2 0xCA SWAP2 SWAP1 PUSH2 0x799 JUMP JUMPDEST PUSH2 0x422 JUMP JUMPDEST STOP JUMPDEST PUSH2 0xD9 PUSH2 0x4F8 JUMP JUMPDEST PUSH1 0x40 MLOAD PUSH2 0xE6 SWAP2 SWAP1 PUSH2 0x7D5 JUMP JUMPDEST PUSH1 0x40 MLOAD DUP1 SWAP2 SUB SWAP1 RETURN JUMPDEST PUSH2 0x109 PUSH1 0x4 DUP1 CALLDATASIZE SUB DUP2 ADD SWAP1 PUSH2 0x104 SWAP2 SWAP1 PUSH2 0x799 JUMP JUMPDEST PUSH2 0x51C JUMP JUMPDEST PUSH1 0x40 MLOAD PUSH2 0x11A SWAP6 SWAP5 SWAP4 SWAP3 SWAP2 SWAP1 PUSH2 0x81A JUMP JUMPDEST PUSH1 0x40 MLOAD DUP1 SWAP2 SUB SWAP1 RETURN JUMPDEST PUSH2 0x12B PUSH2 0x59F JUMP JUMPDEST PUSH1 0x40 MLOAD PUSH2 0x138 SWAP2 SWAP1 PUSH2 0x86D JUMP JUMPDEST PUSH1 0x40 MLOAD DUP1 SWAP2 SUB SWAP1 RETURN JUMPDEST PUSH1 0x0 DUP1 PUSH1 0x0 SWAP1 SLOAD SWAP1 PUSH2 0x100 EXP SWAP1 DIV PUSH20 0xFFFFFFFFFFFFFFFFFFFFFFFFFFFFFFFFFFFFFFFF AND PUSH20 0xFFFFFFFFFFFFFFFFFFFFFFFFFFFFFFFFFFFFFFFF AND CALLER PUSH20 0xFFFFFFFFFFFFFFFFFFFFFFFFFFFFFFFFFFFFFFFF AND EQ PUSH2 0x1D2 JUMPI PUSH1 0x40 MLOAD PUSH32 0x8C379A000000000000000000000000000000000000000000000000000000000 DUP2 MSTORE PUSH1 0x4 ADD PUSH2 0x1C9 SWAP1 PUSH2 0x8FA JUMP JUMPDEST PUSH1 0x40 MLOAD DUP1 SWAP2 SUB SWAP1 REVERT JUMPDEST PUSH1 0x0 PUSH1 0x2 SLOAD DUP4 PUSH2 0x1E2 SWAP2 SWAP1 PUSH2 0x949 JUMP JUMPDEST SWAP1 POP PUSH1 0x0 PUSH1 0x2 CALLER DUP7 TIMESTAMP PUSH1 0x40 MLOAD PUSH1 0x20 ADD PUSH2 0x1FD SWAP4 SWAP3 SWAP2 SWAP1 PUSH2 0xAD3 JUMP JUMPDEST PUSH1 0x40 MLOAD PUSH1 0x20 DUP2 DUP4 SUB SUB DUP2 MSTORE SWAP1 PUSH1 0x40 MSTORE PUSH1 0x40 MLOAD PUSH2 0x219 SWAP2 SWAP1 PUSH2 0xB57 JUMP JUMPDEST PUSH1 0x20 PUSH1 0x40 MLOAD DUP1 DUP4 SUB DUP2 DUP6 GAS STATICCALL ISZERO DUP1 ISZERO PUSH2 0x236 JUMPI RETURNDATASIZE PUSH1 0x0 DUP1 RETURNDATACOPY RETURNDATASIZE PUSH1 0x0 REVERT JUMPDEST POP POP POP PUSH1 0x40 MLOAD RETURNDATASIZE PUSH1 0x1F NOT PUSH1 0x1F DUP3 ADD AND DUP3 ADD DUP1 PUSH1 0x40 MSTORE POP DUP2 ADD SWAP1 PUSH2 0x259 SWAP2 SWAP1 PUSH2 0xB83 JUMP JUMPDEST SWAP1 POP PUSH1 0x40 MLOAD DUP1 PUSH1 0xA0 ADD PUSH1 0x40 MSTORE DUP1 DUP7 PUSH20 0xFFFFFFFFFFFFFFFFFFFFFFFFFFFFFFFFFFFFFFFF AND DUP2 MSTORE PUSH1 0x20 ADD CALLER PUSH20 0xFFFFFFFFFFFFFFFFFFFFFFFFFFFFFFFFFFFFFFFF AND DUP2 MSTORE PUSH1 0x20 ADD DUP6 DUP2 MSTORE PUSH1 0x20 ADD DUP4 DUP2 MSTORE PUSH1 0x20 ADD PUSH1 0x0 ISZERO ISZERO DUP2 MSTORE POP PUSH1 0x3 PUSH1 0x0 DUP4 DUP2 MSTORE PUSH1 0x20 ADD SWAP1 DUP2 MSTORE PUSH1 0x20 ADD PUSH1 0x0 KECCAK256 PUSH1 0x0 DUP3 ADD MLOAD DUP2 PUSH1 0x0 ADD PUSH1 0x0 PUSH2 0x100 EXP DUP2 SLOAD DUP2 PUSH20 0xFFFFFFFFFFFFFFFFFFFFFFFFFFFFFFFFFFFFFFFF MUL NOT AND SWAP1 DUP4 PUSH20 0xFFFFFFFFFFFFFFFFFFFFFFFFFFFFFFFFFFFFFFFF AND MUL OR SWAP1 SSTORE POP PUSH1 0x20 DUP3 ADD MLOAD DUP2 PUSH1 0x1 ADD PUSH1 0x0 PUSH2 0x100 EXP DUP2 SLOAD DUP2 PUSH20 0xFFFFFFFFFFFFFFFFFFFFFFFFFFFFFFFFFFFFFFFF MUL NOT AND SWAP1 DUP4 PUSH20 0xFFFFFFFFFFFFFFFFFFFFFFFFFFFFFFFFFFFFFFFF AND MUL OR SWAP1 SSTORE POP PUSH1 0x40 DUP3 ADD MLOAD DUP2 PUSH1 0x2 ADD SSTORE PUSH1 0x60 DUP3 ADD MLOAD DUP2 PUSH1 0x3 ADD SSTORE PUSH1 0x80 DUP3 ADD MLOAD DUP2 PUSH1 0x4 ADD PUSH1 0x0 PUSH2 0x100 EXP DUP2 SLOAD DUP2 PUSH1 0xFF MUL NOT AND SWAP1 DUP4 ISZERO ISZERO MUL OR SWAP1 SSTORE POP SWAP1 POP POP DUP1 SWAP3 POP POP POP SWAP3 SWAP2 POP POP JUMP JUMPDEST PUSH1 0x1 DUP1 SLOAD PUSH2 0x3A1 SWAP1 PUSH2 0xBDF JUMP JUMPDEST DUP1 PUSH1 0x1F ADD PUSH1 0x20 DUP1 SWAP2 DIV MUL PUSH1 0x20 ADD PUSH1 0x40 MLOAD SWAP1 DUP2 ADD PUSH1 0x40 MSTORE DUP1 SWAP3 SWAP2 SWAP1 DUP2 DUP2 MSTORE PUSH1 0x20 ADD DUP3 DUP1 SLOAD PUSH2 0x3CD SWAP1 PUSH2 0xBDF JUMP JUMPDEST DUP1 ISZERO PUSH2 0x41A JUMPI DUP1 PUSH1 0x1F LT PUSH2 0x3EF JUMPI PUSH2 0x100 DUP1 DUP4 SLOAD DIV MUL DUP4 MSTORE SWAP2 PUSH1 0x20 ADD SWAP2 PUSH2 0x41A JUMP JUMPDEST DUP3 ADD SWAP2 SWAP1 PUSH1 0x0 MSTORE PUSH1 0x20 PUSH1 0x0 KECCAK256 SWAP1 JUMPDEST DUP2 SLOAD DUP2 MSTORE SWAP1 PUSH1 0x1 ADD SWAP1 PUSH1 0x20 ADD DUP1 DUP4 GT PUSH2 0x3FD JUMPI DUP3 SWAP1 SUB PUSH1 0x1F AND DUP3 ADD SWAP2 JUMPDEST POP POP POP POP POP DUP2 JUMP JUMPDEST CALLER PUSH20 0xFFFFFFFFFFFFFFFFFFFFFFFFFFFFFFFFFFFFFFFF AND PUSH1 0x3 PUSH1 0x0 DUP4 DUP2 MSTORE PUSH1 0x20 ADD SWAP1 DUP2 MSTORE PUSH1 0x20 ADD PUSH1 0x0 KECCAK256 PUSH1 0x0 ADD PUSH1 0x0 SWAP1 SLOAD SWAP1 PUSH2 0x100 EXP SWAP1 DIV PUSH20 0xFFFFFFFFFFFFFFFFFFFFFFFFFFFFFFFFFFFFFFFF AND PUSH20 0xFFFFFFFFFFFFFFFFFFFFFFFFFFFFFFFFFFFFFFFF AND EQ PUSH2 0x4C6 JUMPI PUSH1 0x40 MLOAD PUSH32 0x8C379A000000000000000000000000000000000000000000000000000000000 DUP2 MSTORE PUSH1 0x4 ADD PUSH2 0x4BD SWAP1 PUSH2 0xC83 JUMP JUMPDEST PUSH1 0x40 MLOAD DUP1 SWAP2 SUB SWAP1 REVERT JUMPDEST PUSH1 0x1 PUSH1 0x3 PUSH1 0x0 DUP4 DUP2 MSTORE PUSH1 0x20 ADD SWAP1 DUP2 MSTORE PUSH1 0x20 ADD PUSH1 0x0 KECCAK256 PUSH1 0x4 ADD PUSH1 0x0 PUSH2 0x100 EXP DUP2 SLOAD DUP2 PUSH1 0xFF MUL NOT AND SWAP1 DUP4 ISZERO ISZERO MUL OR SWAP1 SSTORE POP POP JUMP JUMPDEST PUSH1 0x0 DUP1 SLOAD SWAP1 PUSH2 0x100 EXP SWAP1 DIV PUSH20 0xFFFFFFFFFFFFFFFFFFFFFFFFFFFFFFFFFFFFFFFF AND DUP2 JUMP JUMPDEST PUSH1 0x3 PUSH1 0x20 MSTORE DUP1 PUSH1 0x0 MSTORE PUSH1 0x40 PUSH1 0x0 KECCAK256 PUSH1 0x0 SWAP2 POP SWAP1 POP DUP1 PUSH1 0x0 ADD PUSH1 0x0 SWAP1 SLOAD SWAP1 PUSH2 0x100 EXP SWAP1 DIV PUSH20 0xFFFFFFFFFFFFFFFFFFFFFFFFFFFFFFFFFFFFFFFF AND SWAP1 DUP1 PUSH1 0x1 ADD PUSH1 0x0 SWAP1 SLOAD SWAP1 PUSH2 0x100 EXP SWAP1 DIV PUSH20 0xFFFFFFFFFFFFFFFFFFFFFFFFFFFFFFFFFFFFFFFF AND SWAP1 DUP1 PUSH1 0x2 ADD SLOAD SWAP1 DUP1 PUSH1 0x3 ADD SLOAD SWAP1 DUP1 PUSH1 0x4 ADD PUSH1 0x0 SWAP1 SLOAD SWAP1 PUSH2 0x100 EXP SWAP1 DIV PUSH1 0xFF AND SWAP1 POP DUP6 JUMP JUMPDEST PUSH1 0x2 SLOAD DUP2 JUMP JUMPDEST PUSH1 0x0 DUP1 REVERT JUMPDEST PUSH1 0x0 PUSH20 0xFFFFFFFFFFFFFFFFFFFFFFFFFFFFFFFFFFFFFFFF DUP3 AND SWAP1 POP SWAP2 SWAP1 POP JUMP JUMPDEST PUSH1 0x0 PUSH2 0x5D5 DUP3 PUSH2 0x5AA JUMP JUMPDEST SWAP1 POP SWAP2 SWAP1 POP JUMP JUMPDEST PUSH2 0x5E5 DUP2 PUSH2 0x5CA JUMP JUMPDEST DUP2 EQ PUSH2 0x5F0 JUMPI PUSH1 0x0 DUP1 REVERT JUMPDEST POP JUMP JUMPDEST PUSH1 0x0 DUP2 CALLDATALOAD SWAP1 POP PUSH2 0x602 DUP2 PUSH2 0x5DC JUMP JUMPDEST SWAP3 SWAP2 POP POP JUMP JUMPDEST PUSH1 0x0 DUP2 SWAP1 POP SWAP2 SWAP1 POP JUMP JUMPDEST PUSH2 0x61B DUP2 PUSH2 0x608 JUMP JUMPDEST DUP2 EQ PUSH2 0x626 JUMPI PUSH1 0x0 DUP1 REVERT JUMPDEST POP JUMP JUMPDEST PUSH1 0x0 DUP2 CALLDATALOAD SWAP1 POP PUSH2 0x638 DUP2 PUSH2 0x612 JUMP JUMPDEST SWAP3 SWAP2 POP POP JUMP JUMPDEST PUSH1 0x0 DUP1 PUSH1 0x40 DUP4 DUP6 SUB SLT ISZERO PUSH2 0x655 JUMPI PUSH2 0x654 PUSH2 0x5A5 JUMP JUMPDEST JUMPDEST PUSH1 0x0 PUSH2 0x663 DUP6 DUP3 DUP7 ADD PUSH2 0x5F3 JUMP JUMPDEST SWAP3 POP POP PUSH1 0x20 PUSH2 0x674 DUP6 DUP3 DUP7 ADD PUSH2 0x629 JUMP JUMPDEST SWAP2 POP POP SWAP3 POP SWAP3 SWAP1 POP JUMP JUMPDEST PUSH1 0x0 DUP2 SWAP1 POP SWAP2 SWAP1 POP JUMP JUMPDEST PUSH2 0x691 DUP2 PUSH2 0x67E JUMP JUMPDEST DUP3 MSTORE POP POP JUMP JUMPDEST PUSH1 0x0 PUSH1 0x20 DUP3 ADD SWAP1 POP PUSH2 0x6AC PUSH1 0x0 DUP4 ADD DUP5 PUSH2 0x688 JUMP JUMPDEST SWAP3 SWAP2 POP POP JUMP JUMPDEST PUSH1 0x0 DUP2 MLOAD SWAP1 POP SWAP2 SWAP1 POP JUMP JUMPDEST PUSH1 0x0 DUP3 DUP3 MSTORE PUSH1 0x20 DUP3 ADD SWAP1 POP SWAP3 SWAP2 POP POP JUMP JUMPDEST PUSH1 0x0 JUMPDEST DUP4 DUP2 LT ISZERO PUSH2 0x6EC JUMPI DUP1 DUP3 ADD MLOAD DUP2 DUP5 ADD MSTORE PUSH1 0x20 DUP2 ADD SWAP1 POP PUSH2 0x6D1 JUMP JUMPDEST DUP4 DUP2 GT ISZERO PUSH2 0x6FB JUMPI PUSH1 0x0 DUP5 DUP5 ADD MSTORE JUMPDEST POP POP POP POP JUMP JUMPDEST PUSH1 0x0 PUSH1 0x1F NOT PUSH1 0x1F DUP4 ADD AND SWAP1 POP SWAP2 SWAP1 POP JUMP JUMPDEST PUSH1 0x0 PUSH2 0x71D DUP3 PUSH2 0x6B2 JUMP JUMPDEST PUSH2 0x727 DUP2 DUP6 PUSH2 0x6BD JUMP JUMPDEST SWAP4 POP PUSH2 0x737 DUP2 DUP6 PUSH1 0x20 DUP7 ADD PUSH2 0x6CE JUMP JUMPDEST PUSH2 0x740 DUP2 PUSH2 0x701 JUMP JUMPDEST DUP5 ADD SWAP2 POP POP SWAP3 SWAP2 POP POP JUMP JUMPDEST PUSH1 0x0 PUSH1 0x20 DUP3 ADD SWAP1 POP DUP2 DUP2 SUB PUSH1 0x0 DUP4 ADD MSTORE PUSH2 0x765 DUP2 DUP5 PUSH2 0x712 JUMP JUMPDEST SWAP1 POP SWAP3 SWAP2 POP POP JUMP JUMPDEST PUSH2 0x776 DUP2 PUSH2 0x67E JUMP JUMPDEST DUP2 EQ PUSH2 0x781 JUMPI PUSH1 0x0 DUP1 REVERT JUMPDEST POP JUMP JUMPDEST PUSH1 0x0 DUP2 CALLDATALOAD SWAP1 POP PUSH2 0x793 DUP2 PUSH2 0x76D JUMP JUMPDEST SWAP3 SWAP2 POP POP JUMP JUMPDEST PUSH1 0x0 PUSH1 0x20 DUP3 DUP5 SUB SLT ISZERO PUSH2 0x7AF JUMPI PUSH2 0x7AE PUSH2 0x5A5 JUMP JUMPDEST JUMPDEST PUSH1 0x0 PUSH2 0x7BD DUP5 DUP3 DUP6 ADD PUSH2 0x784 JUMP JUMPDEST SWAP2 POP POP SWAP3 SWAP2 POP POP JUMP JUMPDEST PUSH2 0x7CF DUP2 PUSH2 0x5CA JUMP JUMPDEST DUP3 MSTORE POP POP JUMP JUMPDEST PUSH1 0x0 PUSH1 0x20 DUP3 ADD SWAP1 POP PUSH2 0x7EA PUSH1 0x0 DUP4 ADD DUP5 PUSH2 0x7C6 JUMP JUMPDEST SWAP3 SWAP2 POP POP JUMP JUMPDEST PUSH2 0x7F9 DUP2 PUSH2 0x608 JUMP JUMPDEST DUP3 MSTORE POP POP JUMP JUMPDEST PUSH1 0x0 DUP2 ISZERO ISZERO SWAP1 POP SWAP2 SWAP1 POP JUMP JUMPDEST PUSH2 0x814 DUP2 PUSH2 0x7FF JUMP JUMPDEST DUP3 MSTORE POP POP JUMP JUMPDEST PUSH1 0x0 PUSH1 0xA0 DUP3 ADD SWAP1 POP PUSH2 0x82F PUSH1 0x0 DUP4 ADD DUP9 PUSH2 0x7C6 JUMP JUMPDEST PUSH2 0x83C PUSH1 0x20 DUP4 ADD DUP8 PUSH2 0x7C6 JUMP JUMPDEST PUSH2 0x849 PUSH1 0x40 DUP4 ADD DUP7 PUSH2 0x7F0 JUMP JUMPDEST PUSH2 0x856 PUSH1 0x60 DUP4 ADD DUP6 PUSH2 0x7F0 JUMP JUMPDEST PUSH2 0x863 PUSH1 0x80 DUP4 ADD DUP5 PUSH2 0x80B JUMP JUMPDEST SWAP7 SWAP6 POP POP POP POP POP POP JUMP JUMPDEST PUSH1 0x0 PUSH1 0x20 DUP3 ADD SWAP1 POP PUSH2 0x882 PUSH1 0x0 DUP4 ADD DUP5 PUSH2 0x7F0 JUMP JUMPDEST SWAP3 SWAP2 POP POP JUMP JUMPDEST PUSH32 0x4F6E6C79206469737472696275746F722063616E2063616C6C20746869732066 PUSH1 0x0 DUP3 ADD MSTORE PUSH32 0x756E6374696F6E00000000000000000000000000000000000000000000000000 PUSH1 0x20 DUP3 ADD MSTORE POP JUMP JUMPDEST PUSH1 0x0 PUSH2 0x8E4 PUSH1 0x27 DUP4 PUSH2 0x6BD JUMP JUMPDEST SWAP2 POP PUSH2 0x8EF DUP3 PUSH2 0x888 JUMP JUMPDEST PUSH1 0x40 DUP3 ADD SWAP1 POP SWAP2 SWAP1 POP JUMP JUMPDEST PUSH1 0x0 PUSH1 0x20 DUP3 ADD SWAP1 POP DUP2 DUP2 SUB PUSH1 0x0 DUP4 ADD MSTORE PUSH2 0x913 DUP2 PUSH2 0x8D7 JUMP JUMPDEST SWAP1 POP SWAP2 SWAP1 POP JUMP JUMPDEST PUSH32 0x4E487B7100000000000000000000000000000000000000000000000000000000 PUSH1 0x0 MSTORE PUSH1 0x11 PUSH1 0x4 MSTORE PUSH1 0x24 PUSH1 0x0 REVERT JUMPDEST PUSH1 0x0 PUSH2 0x954 DUP3 PUSH2 0x608 JUMP JUMPDEST SWAP2 POP PUSH2 0x95F DUP4 PUSH2 0x608 JUMP JUMPDEST SWAP3 POP DUP3 PUSH32 0x7FFFFFFFFFFFFFFFFFFFFFFFFFFFFFFFFFFFFFFFFFFFFFFFFFFFFFFFFFFFFFFF DIV DUP3 GT PUSH1 0x0 DUP5 SGT PUSH1 0x0 DUP5 SGT AND AND ISZERO PUSH2 0x99E JUMPI PUSH2 0x99D PUSH2 0x91A JUMP JUMPDEST JUMPDEST DUP2 PUSH32 0x8000000000000000000000000000000000000000000000000000000000000000 SDIV DUP4 SLT PUSH1 0x0 DUP5 SLT PUSH1 0x0 DUP5 SGT AND AND ISZERO PUSH2 0x9DB JUMPI PUSH2 0x9DA PUSH2 0x91A JUMP JUMPDEST JUMPDEST DUP3 PUSH32 0x8000000000000000000000000000000000000000000000000000000000000000 SDIV DUP3 SLT PUSH1 0x0 DUP5 SGT PUSH1 0x0 DUP5 SLT AND AND ISZERO PUSH2 0xA18 JUMPI PUSH2 0xA17 PUSH2 0x91A JUMP JUMPDEST JUMPDEST DUP3 PUSH32 0x7FFFFFFFFFFFFFFFFFFFFFFFFFFFFFFFFFFFFFFFFFFFFFFFFFFFFFFFFFFFFFFF SDIV DUP3 SLT PUSH1 0x0 DUP5 SLT PUSH1 0x0 DUP5 SLT AND AND ISZERO PUSH2 0xA55 JUMPI PUSH2 0xA54 PUSH2 0x91A JUMP JUMPDEST JUMPDEST DUP3 DUP3 MUL SWAP1 POP SWAP3 SWAP2 POP POP JUMP JUMPDEST PUSH1 0x0 DUP2 PUSH1 0x60 SHL SWAP1 POP SWAP2 SWAP1 POP JUMP JUMPDEST PUSH1 0x0 PUSH2 0xA78 DUP3 PUSH2 0xA60 JUMP JUMPDEST SWAP1 POP SWAP2 SWAP1 POP JUMP JUMPDEST PUSH1 0x0 PUSH2 0xA8A DUP3 PUSH2 0xA6D JUMP JUMPDEST SWAP1 POP SWAP2 SWAP1 POP JUMP JUMPDEST PUSH2 0xAA2 PUSH2 0xA9D DUP3 PUSH2 0x5CA JUMP JUMPDEST PUSH2 0xA7F JUMP JUMPDEST DUP3 MSTORE POP POP JUMP JUMPDEST PUSH1 0x0 DUP2 SWAP1 POP SWAP2 SWAP1 POP JUMP JUMPDEST PUSH1 0x0 DUP2 SWAP1 POP SWAP2 SWAP1 POP JUMP JUMPDEST PUSH2 0xACD PUSH2 0xAC8 DUP3 PUSH2 0xAA8 JUMP JUMPDEST PUSH2 0xAB2 JUMP JUMPDEST DUP3 MSTORE POP POP JUMP JUMPDEST PUSH1 0x0 PUSH2 0xADF DUP3 DUP7 PUSH2 0xA91 JUMP JUMPDEST PUSH1 0x14 DUP3 ADD SWAP2 POP PUSH2 0xAEF DUP3 DUP6 PUSH2 0xA91 JUMP JUMPDEST PUSH1 0x14 DUP3 ADD SWAP2 POP PUSH2 0xAFF DUP3 DUP5 PUSH2 0xABC JUMP JUMPDEST PUSH1 0x20 DUP3 ADD SWAP2 POP DUP2 SWAP1 POP SWAP5 SWAP4 POP POP POP POP JUMP JUMPDEST PUSH1 0x0 DUP2 MLOAD SWAP1 POP SWAP2 SWAP1 POP JUMP JUMPDEST PUSH1 0x0 DUP2 SWAP1 POP SWAP3 SWAP2 POP POP JUMP JUMPDEST PUSH1 0x0 PUSH2 0xB31 DUP3 PUSH2 0xB10 JUMP JUMPDEST PUSH2 0xB3B DUP2 DUP6 PUSH2 0xB1B JUMP JUMPDEST SWAP4 POP PUSH2 0xB4B DUP2 DUP6 PUSH1 0x20 DUP7 ADD PUSH2 0x6CE JUMP JUMPDEST DUP1 DUP5 ADD SWAP2 POP POP SWAP3 SWAP2 POP POP JUMP JUMPDEST PUSH1 0x0 PUSH2 0xB63 DUP3 DUP5 PUSH2 0xB26 JUMP JUMPDEST SWAP2 POP DUP2 SWAP1 POP SWAP3 SWAP2 POP POP JUMP JUMPDEST PUSH1 0x0 DUP2 MLOAD SWAP1 POP PUSH2 0xB7D DUP2 PUSH2 0x76D JUMP JUMPDEST SWAP3 SWAP2 POP POP JUMP JUMPDEST PUSH1 0x0 PUSH1 0x20 DUP3 DUP5 SUB SLT ISZERO PUSH2 0xB99 JUMPI PUSH2 0xB98 PUSH2 0x5A5 JUMP JUMPDEST JUMPDEST PUSH1 0x0 PUSH2 0xBA7 DUP5 DUP3 DUP6 ADD PUSH2 0xB6E JUMP JUMPDEST SWAP2 POP POP SWAP3 SWAP2 POP POP JUMP JUMPDEST PUSH32 0x4E487B7100000000000000000000000000000000000000000000000000000000 PUSH1 0x0 MSTORE PUSH1 0x22 PUSH1 0x4 MSTORE PUSH1 0x24 PUSH1 0x0 REVERT JUMPDEST PUSH1 0x0 PUSH1 0x2 DUP3 DIV SWAP1 POP PUSH1 0x1 DUP3 AND DUP1 PUSH2 0xBF7 JUMPI PUSH1 0x7F DUP3 AND SWAP2 POP JUMPDEST PUSH1 0x20 DUP3 LT DUP2 EQ ISZERO PUSH2 0xC0B JUMPI PUSH2 0xC0A PUSH2 0xBB0 JUMP JUMPDEST JUMPDEST POP SWAP2 SWAP1 POP JUMP JUMPDEST PUSH32 0x4F6E6C792070726F636573736F722063616E206D61726B20736869706D656E74 PUSH1 0x0 DUP3 ADD MSTORE PUSH32 0x2061732064656C69766572656400000000000000000000000000000000000000 PUSH1 0x20 DUP3 ADD MSTORE POP JUMP JUMPDEST PUSH1 0x0 PUSH2 0xC6D PUSH1 0x2D DUP4 PUSH2 0x6BD JUMP JUMPDEST SWAP2 POP PUSH2 0xC78 DUP3 PUSH2 0xC11 JUMP JUMPDEST PUSH1 0x40 DUP3 ADD SWAP1 POP SWAP2 SWAP1 POP JUMP JUMPDEST PUSH1 0x0 PUSH1 0x20 DUP3 ADD SWAP1 POP DUP2 DUP2 SUB PUSH1 0x0 DUP4 ADD MSTORE PUSH2 0xC9C DUP2 PUSH2 0xC60 JUMP JUMPDEST SWAP1 POP SWAP2 SWAP1 POP JUMP INVALID LOG2 PUSH5 0x6970667358 0x22 SLT KECCAK256 NUMBER PUSH5 0x15F0E7F832 0xBF SSTORE 0xCC 0xAF GT PUSH12 0x935C5AEB2F16FA98133A39DB SWAP9 GT 0x5F 0xDC 0xE7 PC SWAP8 PUSH5 0x736F6C6343 STOP ADDMOD MULMOD STOP CALLER "
        },
        "gasEstimates": {
            "creation": {
                "codeDepositCost": "657800",
                "executionCost": "infinite",
                "totalCost": "infinite"
            },
            "external": {
                "createShipment(address,int256)": "infinite",
                "deliverShipment(bytes32)": "27033",
                "distributor()": "2555",
                "distributorName()": "infinite",
                "ratePerKilometer()": "2517",
                "shipments(bytes32)": "infinite"
            }
        },
        "methodIdentifiers": {
            "createShipment(address,int256)": "55c4c562",
            "deliverShipment(bytes32)": "a462fe9a",
            "distributor()": "bfe10928",
            "distributorName()": "5dc9b4dc",
            "ratePerKilometer()": "df3e1a50",
            "shipments(bytes32)": "d87b4041"
        }
    },
    "storageLayout": {
        "storage": [
            {
                "astId": 579,
                "contract": "Main.sol:DistributorContract",
                "label": "distributor",
                "offset": 0,
                "slot": "0",
                "type": "t_address"
            },
            {
                "astId": 581,
                "contract": "Main.sol:DistributorContract",
                "label": "distributorName",
                "offset": 0,
                "slot": "1",
                "type": "t_string_storage"
            },
            {
                "astId": 583,
                "contract": "Main.sol:DistributorContract",
                "label": "ratePerKilometer",
                "offset": 0,
                "slot": "2",
                "type": "t_int256"
            },
            {
                "astId": 599,
                "contract": "Main.sol:DistributorContract",
                "label": "shipments",
                "offset": 0,
                "slot": "3",
                "type": "t_mapping(t_bytes32,t_struct(Shipment)594_storage)"
            }
        ],
        "types": {
            "t_address": {
                "encoding": "inplace",
                "label": "address",
                "numberOfBytes": "20"
            },
            "t_bool": {
                "encoding": "inplace",
                "label": "bool",
                "numberOfBytes": "1"
            },
            "t_bytes32": {
                "encoding": "inplace",
                "label": "bytes32",
                "numberOfBytes": "32"
            },
            "t_int256": {
                "encoding": "inplace",
                "label": "int256",
                "numberOfBytes": "32"
            },
            "t_mapping(t_bytes32,t_struct(Shipment)594_storage)": {
                "encoding": "mapping",
                "key": "t_bytes32",
                "label": "mapping(bytes32 => struct DistributorContract.Shipment)",
                "numberOfBytes": "32",
                "value": "t_struct(Shipment)594_storage"
            },
            "t_string_storage": {
                "encoding": "bytes",
                "label": "string",
                "numberOfBytes": "32"
            },
            "t_struct(Shipment)594_storage": {
                "encoding": "inplace",
                "label": "struct DistributorContract.Shipment",
                "members": [
                    {
                        "astId": 585,
                        "contract": "Main.sol:DistributorContract",
                        "label": "processor",
                        "offset": 0,
                        "slot": "0",
                        "type": "t_address"
                    },
                    {
                        "astId": 587,
                        "contract": "Main.sol:DistributorContract",
                        "label": "retailer",
                        "offset": 0,
                        "slot": "1",
                        "type": "t_address"
                    },
                    {
                        "astId": 589,
                        "contract": "Main.sol:DistributorContract",
                        "label": "distanceInKm",
                        "offset": 0,
                        "slot": "2",
                        "type": "t_int256"
                    },
                    {
                        "astId": 591,
                        "contract": "Main.sol:DistributorContract",
                        "label": "totalPrice",
                        "offset": 0,
                        "slot": "3",
                        "type": "t_int256"
                    },
                    {
                        "astId": 593,
                        "contract": "Main.sol:DistributorContract",
                        "label": "delivered",
                        "offset": 0,
                        "slot": "4",
                        "type": "t_bool"
                    }
                ],
                "numberOfBytes": "160"
            }
        }
    },
    "userdoc": {
        "kind": "user",
        "methods": {},
        "version": 1
    }
}