{
    "abi": [
        {
            "inputs": [
                {
                    "internalType": "string",
                    "name": "_processorName",
                    "type": "string"
                }
            ],
            "stateMutability": "nonpayable",
            "type": "constructor"
        },
        {
            "inputs": [
                {
                    "internalType": "string",
                    "name": "_productName",
                    "type": "string"
                },
                {
                    "internalType": "string",
                    "name": "_productQuality",
                    "type": "string"
                },
                {
                    "internalType": "int256",
                    "name": "_productPrice",
                    "type": "int256"
                },
                {
                    "internalType": "int256",
                    "name": "_productQuantity",
                    "type": "int256"
                }
            ],
            "name": "addProduct",
            "outputs": [],
            "stateMutability": "nonpayable",
            "type": "function"
        },
        {
            "inputs": [
                {
                    "internalType": "uint256",
                    "name": "_index",
                    "type": "uint256"
                },
                {
                    "internalType": "int256",
                    "name": "_additionalQuantity",
                    "type": "int256"
                }
            ],
            "name": "adjustProductQuantity",
            "outputs": [],
            "stateMutability": "nonpayable",
            "type": "function"
        },
        {
            "inputs": [],
            "name": "getAllProducts",
            "outputs": [
                {
                    "components": [
                        {
                            "internalType": "string",
                            "name": "productName",
                            "type": "string"
                        },
                        {
                            "internalType": "string",
                            "name": "productQuality",
                            "type": "string"
                        },
                        {
                            "internalType": "int256",
                            "name": "productPrice",
                            "type": "int256"
                        },
                        {
                            "internalType": "int256",
                            "name": "productQuantity",
                            "type": "int256"
                        }
                    ],
                    "internalType": "struct ProcessorContract.Product[]",
                    "name": "",
                    "type": "tuple[]"
                }
            ],
            "stateMutability": "view",
            "type": "function"
        },
        {
            "inputs": [
                {
                    "internalType": "uint256",
                    "name": "_index",
                    "type": "uint256"
                }
            ],
            "name": "getProduct",
            "outputs": [
                {
                    "internalType": "string",
                    "name": "",
                    "type": "string"
                },
                {
                    "internalType": "int256",
                    "name": "",
                    "type": "int256"
                },
                {
                    "internalType": "string",
                    "name": "",
                    "type": "string"
                },
                {
                    "internalType": "int256",
                    "name": "",
                    "type": "int256"
                }
            ],
            "stateMutability": "view",
            "type": "function"
        },
        {
            "inputs": [],
            "name": "processorAddress",
            "outputs": [
                {
                    "internalType": "address",
                    "name": "",
                    "type": "address"
                }
            ],
            "stateMutability": "view",
            "type": "function"
        },
        {
            "inputs": [],
            "name": "processorName",
            "outputs": [
                {
                    "internalType": "string",
                    "name": "",
                    "type": "string"
                }
            ],
            "stateMutability": "view",
            "type": "function"
        },
        {
            "inputs": [
                {
                    "internalType": "uint256",
                    "name": "",
                    "type": "uint256"
                }
            ],
            "name": "products",
            "outputs": [
                {
                    "internalType": "string",
                    "name": "productName",
                    "type": "string"
                },
                {
                    "internalType": "string",
                    "name": "productQuality",
                    "type": "string"
                },
                {
                    "internalType": "int256",
                    "name": "productPrice",
                    "type": "int256"
                },
                {
                    "internalType": "int256",
                    "name": "productQuantity",
                    "type": "int256"
                }
            ],
            "stateMutability": "view",
            "type": "function"
        },
        {
            "inputs": [
                {
                    "internalType": "uint256",
                    "name": "_index",
                    "type": "uint256"
                },
                {
                    "internalType": "int256",
                    "name": "_quantity",
                    "type": "int256"
                }
            ],
            "name": "sellProduct",
            "outputs": [],
            "stateMutability": "nonpayable",
            "type": "function"
        },
        {
            "inputs": [],
            "name": "totalSales",
            "outputs": [
                {
                    "internalType": "int256",
                    "name": "",
                    "type": "int256"
                }
            ],
            "stateMutability": "view",
            "type": "function"
        }
    ],
    "devdoc": {
        "kind": "dev",
        "methods": {},
        "version": 1
    },
    "evm": {
        "assembly": "    /* \"Main.sol\":4141:6433  contract ProcessorContract {... */\n  mstore(0x40, 0x80)\n    /* \"Main.sol\":4650:4781  constructor(string memory _processorName) {... */\n  callvalue\n  dup1\n  iszero\n  tag_1\n  jumpi\n  0x00\n  dup1\n  revert\ntag_1:\n  pop\n  mload(0x40)\n  sub(codesize, bytecodeSize)\n  dup1\n  bytecodeSize\n  dup4\n  codecopy\n  dup2\n  dup2\n  add\n  0x40\n  mstore\n  dup2\n  add\n  swap1\n  tag_2\n  swap2\n  swap1\n  tag_3\n  jump\t// in\ntag_2:\n    /* \"Main.sol\":4722:4732  msg.sender */\n  caller\n    /* \"Main.sol\":4703:4719  processorAddress */\n  0x00\n  dup1\n    /* \"Main.sol\":4703:4732  processorAddress = msg.sender */\n  0x0100\n  exp\n  dup2\n  sload\n  dup2\n  0xffffffffffffffffffffffffffffffffffffffff\n  mul\n  not\n  and\n  swap1\n  dup4\n  0xffffffffffffffffffffffffffffffffffffffff\n  and\n  mul\n  or\n  swap1\n  sstore\n  pop\n    /* \"Main.sol\":4759:4773  _processorName */\n  dup1\n    /* \"Main.sol\":4743:4756  processorName */\n  0x01\n    /* \"Main.sol\":4743:4773  processorName = _processorName */\n  swap1\n  dup1\n  mload\n  swap1\n  0x20\n  add\n  swap1\n  tag_6\n  swap3\n  swap2\n  swap1\n  tag_7\n  jump\t// in\ntag_6:\n  pop\n    /* \"Main.sol\":4650:4781  constructor(string memory _processorName) {... */\n  pop\n    /* \"Main.sol\":4141:6433  contract ProcessorContract {... */\n  jump(tag_8)\ntag_7:\n  dup3\n  dup1\n  sload\n  tag_9\n  swap1\n  tag_10\n  jump\t// in\ntag_9:\n  swap1\n  0x00\n  mstore\n  keccak256(0x00, 0x20)\n  swap1\n  0x1f\n  add\n  0x20\n  swap1\n  div\n  dup2\n  add\n  swap3\n  dup3\n  tag_12\n  jumpi\n  0x00\n  dup6\n  sstore\n  jump(tag_11)\ntag_12:\n  dup3\n  0x1f\n  lt\n  tag_13\n  jumpi\n  dup1\n  mload\n  not(0xff)\n  and\n  dup4\n  dup1\n  add\n  or\n  dup6\n  sstore\n  jump(tag_11)\ntag_13:\n  dup3\n  dup1\n  add\n  0x01\n  add\n  dup6\n  sstore\n  dup3\n  iszero\n  tag_11\n  jumpi\n  swap2\n  dup3\n  add\ntag_14:\n  dup3\n  dup2\n  gt\n  iszero\n  tag_15\n  jumpi\n  dup3\n  mload\n  dup3\n  sstore\n  swap2\n  0x20\n  add\n  swap2\n  swap1\n  0x01\n  add\n  swap1\n  jump(tag_14)\ntag_15:\ntag_11:\n  pop\n  swap1\n  pop\n  tag_16\n  swap2\n  swap1\n  tag_17\n  jump\t// in\ntag_16:\n  pop\n  swap1\n  jump\t// out\ntag_17:\ntag_18:\n  dup1\n  dup3\n  gt\n  iszero\n  tag_19\n  jumpi\n  0x00\n  dup2\n  0x00\n  swap1\n  sstore\n  pop\n  0x01\n  add\n  jump(tag_18)\ntag_19:\n  pop\n  swap1\n  jump\t// out\n    /* \"#utility.yul\":7:82   */\ntag_20:\n    /* \"#utility.yul\":40:46   */\n  0x00\n    /* \"#utility.yul\":73:75   */\n  0x40\n    /* \"#utility.yul\":67:76   */\n  mload\n    /* \"#utility.yul\":57:76   */\n  swap1\n  pop\n    /* \"#utility.yul\":7:82   */\n  swap1\n  jump\t// out\n    /* \"#utility.yul\":88:205   */\ntag_21:\n    /* \"#utility.yul\":197:198   */\n  0x00\n    /* \"#utility.yul\":194:195   */\n  dup1\n    /* \"#utility.yul\":187:199   */\n  revert\n    /* \"#utility.yul\":211:328   */\ntag_22:\n    /* \"#utility.yul\":320:321   */\n  0x00\n    /* \"#utility.yul\":317:318   */\n  dup1\n    /* \"#utility.yul\":310:322   */\n  revert\n    /* \"#utility.yul\":334:451   */\ntag_23:\n    /* \"#utility.yul\":443:444   */\n  0x00\n    /* \"#utility.yul\":440:441   */\n  dup1\n    /* \"#utility.yul\":433:445   */\n  revert\n    /* \"#utility.yul\":457:574   */\ntag_24:\n    /* \"#utility.yul\":566:567   */\n  0x00\n    /* \"#utility.yul\":563:564   */\n  dup1\n    /* \"#utility.yul\":556:568   */\n  revert\n    /* \"#utility.yul\":580:682   */\ntag_25:\n    /* \"#utility.yul\":621:627   */\n  0x00\n    /* \"#utility.yul\":672:674   */\n  0x1f\n    /* \"#utility.yul\":668:675   */\n  not\n    /* \"#utility.yul\":663:665   */\n  0x1f\n    /* \"#utility.yul\":656:661   */\n  dup4\n    /* \"#utility.yul\":652:666   */\n  add\n    /* \"#utility.yul\":648:676   */\n  and\n    /* \"#utility.yul\":638:676   */\n  swap1\n  pop\n    /* \"#utility.yul\":580:682   */\n  swap2\n  swap1\n  pop\n  jump\t// out\n    /* \"#utility.yul\":688:868   */\ntag_26:\n    /* \"#utility.yul\":736:813   */\n  0x4e487b7100000000000000000000000000000000000000000000000000000000\n    /* \"#utility.yul\":733:734   */\n  0x00\n    /* \"#utility.yul\":726:814   */\n  mstore\n    /* \"#utility.yul\":833:837   */\n  0x41\n    /* \"#utility.yul\":830:831   */\n  0x04\n    /* \"#utility.yul\":823:838   */\n  mstore\n    /* \"#utility.yul\":857:861   */\n  0x24\n    /* \"#utility.yul\":854:855   */\n  0x00\n    /* \"#utility.yul\":847:862   */\n  revert\n    /* \"#utility.yul\":874:1155   */\ntag_27:\n    /* \"#utility.yul\":957:984   */\n  tag_43\n    /* \"#utility.yul\":979:983   */\n  dup3\n    /* \"#utility.yul\":957:984   */\n  tag_25\n  jump\t// in\ntag_43:\n    /* \"#utility.yul\":949:955   */\n  dup2\n    /* \"#utility.yul\":945:985   */\n  add\n    /* \"#utility.yul\":1087:1093   */\n  dup2\n    /* \"#utility.yul\":1075:1085   */\n  dup2\n    /* \"#utility.yul\":1072:1094   */\n  lt\n    /* \"#utility.yul\":1051:1069   */\n  0xffffffffffffffff\n    /* \"#utility.yul\":1039:1049   */\n  dup3\n    /* \"#utility.yul\":1036:1070   */\n  gt\n    /* \"#utility.yul\":1033:1095   */\n  or\n    /* \"#utility.yul\":1030:1118   */\n  iszero\n  tag_44\n  jumpi\n    /* \"#utility.yul\":1098:1116   */\n  tag_45\n  tag_26\n  jump\t// in\ntag_45:\n    /* \"#utility.yul\":1030:1118   */\ntag_44:\n    /* \"#utility.yul\":1138:1148   */\n  dup1\n    /* \"#utility.yul\":1134:1136   */\n  0x40\n    /* \"#utility.yul\":1127:1149   */\n  mstore\n    /* \"#utility.yul\":917:1155   */\n  pop\n    /* \"#utility.yul\":874:1155   */\n  pop\n  pop\n  jump\t// out\n    /* \"#utility.yul\":1161:1290   */\ntag_28:\n    /* \"#utility.yul\":1195:1201   */\n  0x00\n    /* \"#utility.yul\":1222:1242   */\n  tag_47\n  tag_20\n  jump\t// in\ntag_47:\n    /* \"#utility.yul\":1212:1242   */\n  swap1\n  pop\n    /* \"#utility.yul\":1251:1284   */\n  tag_48\n    /* \"#utility.yul\":1279:1283   */\n  dup3\n    /* \"#utility.yul\":1271:1277   */\n  dup3\n    /* \"#utility.yul\":1251:1284   */\n  tag_27\n  jump\t// in\ntag_48:\n    /* \"#utility.yul\":1161:1290   */\n  swap2\n  swap1\n  pop\n  jump\t// out\n    /* \"#utility.yul\":1296:1604   */\ntag_29:\n    /* \"#utility.yul\":1358:1362   */\n  0x00\n    /* \"#utility.yul\":1448:1466   */\n  0xffffffffffffffff\n    /* \"#utility.yul\":1440:1446   */\n  dup3\n    /* \"#utility.yul\":1437:1467   */\n  gt\n    /* \"#utility.yul\":1434:1490   */\n  iszero\n  tag_50\n  jumpi\n    /* \"#utility.yul\":1470:1488   */\n  tag_51\n  tag_26\n  jump\t// in\ntag_51:\n    /* \"#utility.yul\":1434:1490   */\ntag_50:\n    /* \"#utility.yul\":1508:1537   */\n  tag_52\n    /* \"#utility.yul\":1530:1536   */\n  dup3\n    /* \"#utility.yul\":1508:1537   */\n  tag_25\n  jump\t// in\ntag_52:\n    /* \"#utility.yul\":1500:1537   */\n  swap1\n  pop\n    /* \"#utility.yul\":1592:1596   */\n  0x20\n    /* \"#utility.yul\":1586:1590   */\n  dup2\n    /* \"#utility.yul\":1582:1597   */\n  add\n    /* \"#utility.yul\":1574:1597   */\n  swap1\n  pop\n    /* \"#utility.yul\":1296:1604   */\n  swap2\n  swap1\n  pop\n  jump\t// out\n    /* \"#utility.yul\":1610:1917   */\ntag_30:\n    /* \"#utility.yul\":1678:1679   */\n  0x00\n    /* \"#utility.yul\":1688:1801   */\ntag_54:\n    /* \"#utility.yul\":1702:1708   */\n  dup4\n    /* \"#utility.yul\":1699:1700   */\n  dup2\n    /* \"#utility.yul\":1696:1709   */\n  lt\n    /* \"#utility.yul\":1688:1801   */\n  iszero\n  tag_56\n  jumpi\n    /* \"#utility.yul\":1787:1788   */\n  dup1\n    /* \"#utility.yul\":1782:1785   */\n  dup3\n    /* \"#utility.yul\":1778:1789   */\n  add\n    /* \"#utility.yul\":1772:1790   */\n  mload\n    /* \"#utility.yul\":1768:1769   */\n  dup2\n    /* \"#utility.yul\":1763:1766   */\n  dup5\n    /* \"#utility.yul\":1759:1770   */\n  add\n    /* \"#utility.yul\":1752:1791   */\n  mstore\n    /* \"#utility.yul\":1724:1726   */\n  0x20\n    /* \"#utility.yul\":1721:1722   */\n  dup2\n    /* \"#utility.yul\":1717:1727   */\n  add\n    /* \"#utility.yul\":1712:1727   */\n  swap1\n  pop\n    /* \"#utility.yul\":1688:1801   */\n  jump(tag_54)\ntag_56:\n    /* \"#utility.yul\":1819:1825   */\n  dup4\n    /* \"#utility.yul\":1816:1817   */\n  dup2\n    /* \"#utility.yul\":1813:1826   */\n  gt\n    /* \"#utility.yul\":1810:1911   */\n  iszero\n  tag_57\n  jumpi\n    /* \"#utility.yul\":1899:1900   */\n  0x00\n    /* \"#utility.yul\":1890:1896   */\n  dup5\n    /* \"#utility.yul\":1885:1888   */\n  dup5\n    /* \"#utility.yul\":1881:1897   */\n  add\n    /* \"#utility.yul\":1874:1901   */\n  mstore\n    /* \"#utility.yul\":1810:1911   */\ntag_57:\n    /* \"#utility.yul\":1659:1917   */\n  pop\n    /* \"#utility.yul\":1610:1917   */\n  pop\n  pop\n  pop\n  jump\t// out\n    /* \"#utility.yul\":1923:2344   */\ntag_31:\n    /* \"#utility.yul\":2012:2017   */\n  0x00\n    /* \"#utility.yul\":2037:2103   */\n  tag_59\n    /* \"#utility.yul\":2053:2102   */\n  tag_60\n    /* \"#utility.yul\":2095:2101   */\n  dup5\n    /* \"#utility.yul\":2053:2102   */\n  tag_29\n  jump\t// in\ntag_60:\n    /* \"#utility.yul\":2037:2103   */\n  tag_28\n  jump\t// in\ntag_59:\n    /* \"#utility.yul\":2028:2103   */\n  swap1\n  pop\n    /* \"#utility.yul\":2126:2132   */\n  dup3\n    /* \"#utility.yul\":2119:2124   */\n  dup2\n    /* \"#utility.yul\":2112:2133   */\n  mstore\n    /* \"#utility.yul\":2164:2168   */\n  0x20\n    /* \"#utility.yul\":2157:2162   */\n  dup2\n    /* \"#utility.yul\":2153:2169   */\n  add\n    /* \"#utility.yul\":2202:2205   */\n  dup5\n    /* \"#utility.yul\":2193:2199   */\n  dup5\n    /* \"#utility.yul\":2188:2191   */\n  dup5\n    /* \"#utility.yul\":2184:2200   */\n  add\n    /* \"#utility.yul\":2181:2206   */\n  gt\n    /* \"#utility.yul\":2178:2290   */\n  iszero\n  tag_61\n  jumpi\n    /* \"#utility.yul\":2209:2288   */\n  tag_62\n  tag_24\n  jump\t// in\ntag_62:\n    /* \"#utility.yul\":2178:2290   */\ntag_61:\n    /* \"#utility.yul\":2299:2338   */\n  tag_63\n    /* \"#utility.yul\":2331:2337   */\n  dup5\n    /* \"#utility.yul\":2326:2329   */\n  dup3\n    /* \"#utility.yul\":2321:2324   */\n  dup6\n    /* \"#utility.yul\":2299:2338   */\n  tag_30\n  jump\t// in\ntag_63:\n    /* \"#utility.yul\":2018:2344   */\n  pop\n    /* \"#utility.yul\":1923:2344   */\n  swap4\n  swap3\n  pop\n  pop\n  pop\n  jump\t// out\n    /* \"#utility.yul\":2364:2719   */\ntag_32:\n    /* \"#utility.yul\":2431:2436   */\n  0x00\n    /* \"#utility.yul\":2480:2483   */\n  dup3\n    /* \"#utility.yul\":2473:2477   */\n  0x1f\n    /* \"#utility.yul\":2465:2471   */\n  dup4\n    /* \"#utility.yul\":2461:2478   */\n  add\n    /* \"#utility.yul\":2457:2484   */\n  slt\n    /* \"#utility.yul\":2447:2569   */\n  tag_65\n  jumpi\n    /* \"#utility.yul\":2488:2567   */\n  tag_66\n  tag_23\n  jump\t// in\ntag_66:\n    /* \"#utility.yul\":2447:2569   */\ntag_65:\n    /* \"#utility.yul\":2598:2604   */\n  dup2\n    /* \"#utility.yul\":2592:2605   */\n  mload\n    /* \"#utility.yul\":2623:2713   */\n  tag_67\n    /* \"#utility.yul\":2709:2712   */\n  dup5\n    /* \"#utility.yul\":2701:2707   */\n  dup3\n    /* \"#utility.yul\":2694:2698   */\n  0x20\n    /* \"#utility.yul\":2686:2692   */\n  dup7\n    /* \"#utility.yul\":2682:2699   */\n  add\n    /* \"#utility.yul\":2623:2713   */\n  tag_31\n  jump\t// in\ntag_67:\n    /* \"#utility.yul\":2614:2713   */\n  swap2\n  pop\n    /* \"#utility.yul\":2437:2719   */\n  pop\n    /* \"#utility.yul\":2364:2719   */\n  swap3\n  swap2\n  pop\n  pop\n  jump\t// out\n    /* \"#utility.yul\":2725:3249   */\ntag_3:\n    /* \"#utility.yul\":2805:2811   */\n  0x00\n    /* \"#utility.yul\":2854:2856   */\n  0x20\n    /* \"#utility.yul\":2842:2851   */\n  dup3\n    /* \"#utility.yul\":2833:2840   */\n  dup5\n    /* \"#utility.yul\":2829:2852   */\n  sub\n    /* \"#utility.yul\":2825:2857   */\n  slt\n    /* \"#utility.yul\":2822:2941   */\n  iszero\n  tag_69\n  jumpi\n    /* \"#utility.yul\":2860:2939   */\n  tag_70\n  tag_21\n  jump\t// in\ntag_70:\n    /* \"#utility.yul\":2822:2941   */\ntag_69:\n    /* \"#utility.yul\":3001:3002   */\n  0x00\n    /* \"#utility.yul\":2990:2999   */\n  dup3\n    /* \"#utility.yul\":2986:3003   */\n  add\n    /* \"#utility.yul\":2980:3004   */\n  mload\n    /* \"#utility.yul\":3031:3049   */\n  0xffffffffffffffff\n    /* \"#utility.yul\":3023:3029   */\n  dup2\n    /* \"#utility.yul\":3020:3050   */\n  gt\n    /* \"#utility.yul\":3017:3134   */\n  iszero\n  tag_71\n  jumpi\n    /* \"#utility.yul\":3053:3132   */\n  tag_72\n  tag_22\n  jump\t// in\ntag_72:\n    /* \"#utility.yul\":3017:3134   */\ntag_71:\n    /* \"#utility.yul\":3158:3232   */\n  tag_73\n    /* \"#utility.yul\":3224:3231   */\n  dup5\n    /* \"#utility.yul\":3215:3221   */\n  dup3\n    /* \"#utility.yul\":3204:3213   */\n  dup6\n    /* \"#utility.yul\":3200:3222   */\n  add\n    /* \"#utility.yul\":3158:3232   */\n  tag_32\n  jump\t// in\ntag_73:\n    /* \"#utility.yul\":3148:3232   */\n  swap2\n  pop\n    /* \"#utility.yul\":2951:3242   */\n  pop\n    /* \"#utility.yul\":2725:3249   */\n  swap3\n  swap2\n  pop\n  pop\n  jump\t// out\n    /* \"#utility.yul\":3255:3435   */\ntag_33:\n    /* \"#utility.yul\":3303:3380   */\n  0x4e487b7100000000000000000000000000000000000000000000000000000000\n    /* \"#utility.yul\":3300:3301   */\n  0x00\n    /* \"#utility.yul\":3293:3381   */\n  mstore\n    /* \"#utility.yul\":3400:3404   */\n  0x22\n    /* \"#utility.yul\":3397:3398   */\n  0x04\n    /* \"#utility.yul\":3390:3405   */\n  mstore\n    /* \"#utility.yul\":3424:3428   */\n  0x24\n    /* \"#utility.yul\":3421:3422   */\n  0x00\n    /* \"#utility.yul\":3414:3429   */\n  revert\n    /* \"#utility.yul\":3441:3761   */\ntag_10:\n    /* \"#utility.yul\":3485:3491   */\n  0x00\n    /* \"#utility.yul\":3522:3523   */\n  0x02\n    /* \"#utility.yul\":3516:3520   */\n  dup3\n    /* \"#utility.yul\":3512:3524   */\n  div\n    /* \"#utility.yul\":3502:3524   */\n  swap1\n  pop\n    /* \"#utility.yul\":3569:3570   */\n  0x01\n    /* \"#utility.yul\":3563:3567   */\n  dup3\n    /* \"#utility.yul\":3559:3571   */\n  and\n    /* \"#utility.yul\":3590:3608   */\n  dup1\n    /* \"#utility.yul\":3580:3661   */\n  tag_76\n  jumpi\n    /* \"#utility.yul\":3646:3650   */\n  0x7f\n    /* \"#utility.yul\":3638:3644   */\n  dup3\n    /* \"#utility.yul\":3634:3651   */\n  and\n    /* \"#utility.yul\":3624:3651   */\n  swap2\n  pop\n    /* \"#utility.yul\":3580:3661   */\ntag_76:\n    /* \"#utility.yul\":3708:3710   */\n  0x20\n    /* \"#utility.yul\":3700:3706   */\n  dup3\n    /* \"#utility.yul\":3697:3711   */\n  lt\n    /* \"#utility.yul\":3677:3695   */\n  dup2\n    /* \"#utility.yul\":3674:3712   */\n  eq\n    /* \"#utility.yul\":3671:3755   */\n  iszero\n  tag_77\n  jumpi\n    /* \"#utility.yul\":3727:3745   */\n  tag_78\n  tag_33\n  jump\t// in\ntag_78:\n    /* \"#utility.yul\":3671:3755   */\ntag_77:\n    /* \"#utility.yul\":3492:3761   */\n  pop\n    /* \"#utility.yul\":3441:3761   */\n  swap2\n  swap1\n  pop\n  jump\t// out\n    /* \"Main.sol\":4141:6433  contract ProcessorContract {... */\ntag_8:\n  dataSize(sub_0)\n  dup1\n  dataOffset(sub_0)\n  0x00\n  codecopy\n  0x00\n  return\nstop\n\nsub_0: assembly {\n        /* \"Main.sol\":4141:6433  contract ProcessorContract {... */\n      mstore(0x40, 0x80)\n      callvalue\n      dup1\n      iszero\n      tag_1\n      jumpi\n      0x00\n      dup1\n      revert\n    tag_1:\n      pop\n      jumpi(tag_2, lt(calldatasize, 0x04))\n      shr(0xe0, calldataload(0x00))\n      dup1\n      0xa7cdbb32\n      gt\n      tag_12\n      jumpi\n      dup1\n      0xa7cdbb32\n      eq\n      tag_7\n      jumpi\n      dup1\n      0xb27daded\n      eq\n      tag_8\n      jumpi\n      dup1\n      0xb9db15b4\n      eq\n      tag_9\n      jumpi\n      dup1\n      0xc11e4e0b\n      eq\n      tag_10\n      jumpi\n      dup1\n      0xd24de1f5\n      eq\n      tag_11\n      jumpi\n      jump(tag_2)\n    tag_12:\n      dup1\n      0x02ee3a52\n      eq\n      tag_3\n      jumpi\n      dup1\n      0x6605ff66\n      eq\n      tag_4\n      jumpi\n      dup1\n      0x7acc0b20\n      eq\n      tag_5\n      jumpi\n      dup1\n      0x7e88ce3a\n      eq\n      tag_6\n      jumpi\n    tag_2:\n      0x00\n      dup1\n      revert\n        /* \"Main.sol\":6061:6160  function getAllProducts() public view returns (Product[] memory) {... */\n    tag_3:\n      tag_13\n      tag_14\n      jump\t// in\n    tag_13:\n      mload(0x40)\n      tag_15\n      swap2\n      swap1\n      tag_16\n      jump\t// in\n    tag_15:\n      mload(0x40)\n      dup1\n      swap2\n      sub\n      swap1\n      return\n        /* \"Main.sol\":4279:4303  int256 public totalSales */\n    tag_4:\n      tag_17\n      tag_18\n      jump\t// in\n    tag_17:\n      mload(0x40)\n      tag_19\n      swap2\n      swap1\n      tag_20\n      jump\t// in\n    tag_19:\n      mload(0x40)\n      dup1\n      swap2\n      sub\n      swap1\n      return\n        /* \"Main.sol\":4247:4272  Product[] public products */\n    tag_5:\n      tag_21\n      0x04\n      dup1\n      calldatasize\n      sub\n      dup2\n      add\n      swap1\n      tag_22\n      swap2\n      swap1\n      tag_23\n      jump\t// in\n    tag_22:\n      tag_24\n      jump\t// in\n    tag_21:\n      mload(0x40)\n      tag_25\n      swap5\n      swap4\n      swap3\n      swap2\n      swap1\n      tag_26\n      jump\t// in\n    tag_25:\n      mload(0x40)\n      dup1\n      swap2\n      sub\n      swap1\n      return\n        /* \"Main.sol\":4213:4240  string public processorName */\n    tag_6:\n      tag_27\n      tag_28\n      jump\t// in\n    tag_27:\n      mload(0x40)\n      tag_29\n      swap2\n      swap1\n      tag_30\n      jump\t// in\n    tag_29:\n      mload(0x40)\n      dup1\n      swap2\n      sub\n      swap1\n      return\n        /* \"Main.sol\":5626:6055  function sellProduct(uint256 _index, int256 _quantity) public {... */\n    tag_7:\n      tag_31\n      0x04\n      dup1\n      calldatasize\n      sub\n      dup2\n      add\n      swap1\n      tag_32\n      swap2\n      swap1\n      tag_33\n      jump\t// in\n    tag_32:\n      tag_34\n      jump\t// in\n    tag_31:\n      stop\n        /* \"Main.sol\":4175:4206  address public processorAddress */\n    tag_8:\n      tag_35\n      tag_36\n      jump\t// in\n    tag_35:\n      mload(0x40)\n      tag_37\n      swap2\n      swap1\n      tag_38\n      jump\t// in\n    tag_37:\n      mload(0x40)\n      dup1\n      swap2\n      sub\n      swap1\n      return\n        /* \"Main.sol\":5199:5618  function getProduct(... */\n    tag_9:\n      tag_39\n      0x04\n      dup1\n      calldatasize\n      sub\n      dup2\n      add\n      swap1\n      tag_40\n      swap2\n      swap1\n      tag_23\n      jump\t// in\n    tag_40:\n      tag_41\n      jump\t// in\n    tag_39:\n      mload(0x40)\n      tag_42\n      swap5\n      swap4\n      swap3\n      swap2\n      swap1\n      tag_43\n      jump\t// in\n    tag_42:\n      mload(0x40)\n      dup1\n      swap2\n      sub\n      swap1\n      return\n        /* \"Main.sol\":6168:6430  function adjustProductQuantity(... */\n    tag_10:\n      tag_44\n      0x04\n      dup1\n      calldatasize\n      sub\n      dup2\n      add\n      swap1\n      tag_45\n      swap2\n      swap1\n      tag_33\n      jump\t// in\n    tag_45:\n      tag_46\n      jump\t// in\n    tag_44:\n      stop\n        /* \"Main.sol\":4789:5191  function addProduct(... */\n    tag_11:\n      tag_47\n      0x04\n      dup1\n      calldatasize\n      sub\n      dup2\n      add\n      swap1\n      tag_48\n      swap2\n      swap1\n      tag_49\n      jump\t// in\n    tag_48:\n      tag_50\n      jump\t// in\n    tag_47:\n      stop\n        /* \"Main.sol\":6061:6160  function getAllProducts() public view returns (Product[] memory) {... */\n    tag_14:\n        /* \"Main.sol\":6108:6124  Product[] memory */\n      0x60\n        /* \"Main.sol\":6144:6152  products */\n      0x02\n        /* \"Main.sol\":6137:6152  return products */\n      dup1\n      sload\n      dup1\n      0x20\n      mul\n      0x20\n      add\n      mload(0x40)\n      swap1\n      dup2\n      add\n      0x40\n      mstore\n      dup1\n      swap3\n      swap2\n      swap1\n      dup2\n      dup2\n      mstore\n      0x20\n      add\n      0x00\n      swap1\n    tag_52:\n      dup3\n      dup3\n      lt\n      iszero\n      tag_53\n      jumpi\n      dup4\n      dup3\n      swap1\n      0x00\n      mstore\n      keccak256(0x00, 0x20)\n      swap1\n      0x04\n      mul\n      add\n      mload(0x40)\n      dup1\n      0x80\n      add\n      0x40\n      mstore\n      swap1\n      dup2\n      0x00\n      dup3\n      add\n      dup1\n      sload\n      tag_55\n      swap1\n      tag_56\n      jump\t// in\n    tag_55:\n      dup1\n      0x1f\n      add\n      0x20\n      dup1\n      swap2\n      div\n      mul\n      0x20\n      add\n      mload(0x40)\n      swap1\n      dup2\n      add\n      0x40\n      mstore\n      dup1\n      swap3\n      swap2\n      swap1\n      dup2\n      dup2\n      mstore\n      0x20\n      add\n      dup3\n      dup1\n      sload\n      tag_57\n      swap1\n      tag_56\n      jump\t// in\n    tag_57:\n      dup1\n      iszero\n      tag_58\n      jumpi\n      dup1\n      0x1f\n      lt\n      tag_59\n      jumpi\n      0x0100\n      dup1\n      dup4\n      sload\n      div\n      mul\n      dup4\n      mstore\n      swap2\n      0x20\n      add\n      swap2\n      jump(tag_58)\n    tag_59:\n      dup3\n      add\n      swap2\n      swap1\n      0x00\n      mstore\n      keccak256(0x00, 0x20)\n      swap1\n    tag_60:\n      dup2\n      sload\n      dup2\n      mstore\n      swap1\n      0x01\n      add\n      swap1\n      0x20\n      add\n      dup1\n      dup4\n      gt\n      tag_60\n      jumpi\n      dup3\n      swap1\n      sub\n      0x1f\n      and\n      dup3\n      add\n      swap2\n    tag_58:\n      pop\n      pop\n      pop\n      pop\n      pop\n      dup2\n      mstore\n      0x20\n      add\n      0x01\n      dup3\n      add\n      dup1\n      sload\n      tag_61\n      swap1\n      tag_56\n      jump\t// in\n    tag_61:\n      dup1\n      0x1f\n      add\n      0x20\n      dup1\n      swap2\n      div\n      mul\n      0x20\n      add\n      mload(0x40)\n      swap1\n      dup2\n      add\n      0x40\n      mstore\n      dup1\n      swap3\n      swap2\n      swap1\n      dup2\n      dup2\n      mstore\n      0x20\n      add\n      dup3\n      dup1\n      sload\n      tag_62\n      swap1\n      tag_56\n      jump\t// in\n    tag_62:\n      dup1\n      iszero\n      tag_63\n      jumpi\n      dup1\n      0x1f\n      lt\n      tag_64\n      jumpi\n      0x0100\n      dup1\n      dup4\n      sload\n      div\n      mul\n      dup4\n      mstore\n      swap2\n      0x20\n      add\n      swap2\n      jump(tag_63)\n    tag_64:\n      dup3\n      add\n      swap2\n      swap1\n      0x00\n      mstore\n      keccak256(0x00, 0x20)\n      swap1\n    tag_65:\n      dup2\n      sload\n      dup2\n      mstore\n      swap1\n      0x01\n      add\n      swap1\n      0x20\n      add\n      dup1\n      dup4\n      gt\n      tag_65\n      jumpi\n      dup3\n      swap1\n      sub\n      0x1f\n      and\n      dup3\n      add\n      swap2\n    tag_63:\n      pop\n      pop\n      pop\n      pop\n      pop\n      dup2\n      mstore\n      0x20\n      add\n      0x02\n      dup3\n      add\n      sload\n      dup2\n      mstore\n      0x20\n      add\n      0x03\n      dup3\n      add\n      sload\n      dup2\n      mstore\n      pop\n      pop\n      dup2\n      mstore\n      0x20\n      add\n      swap1\n      0x01\n      add\n      swap1\n      jump(tag_52)\n    tag_53:\n      pop\n      pop\n      pop\n      pop\n      swap1\n      pop\n        /* \"Main.sol\":6061:6160  function getAllProducts() public view returns (Product[] memory) {... */\n      swap1\n      jump\t// out\n        /* \"Main.sol\":4279:4303  int256 public totalSales */\n    tag_18:\n      sload(0x03)\n      dup2\n      jump\t// out\n        /* \"Main.sol\":4247:4272  Product[] public products */\n    tag_24:\n      0x02\n      dup2\n      dup2\n      sload\n      dup2\n      lt\n      tag_66\n      jumpi\n      0x00\n      dup1\n      revert\n    tag_66:\n      swap1\n      0x00\n      mstore\n      keccak256(0x00, 0x20)\n      swap1\n      0x04\n      mul\n      add\n      0x00\n      swap2\n      pop\n      swap1\n      pop\n      dup1\n      0x00\n      add\n      dup1\n      sload\n      tag_68\n      swap1\n      tag_56\n      jump\t// in\n    tag_68:\n      dup1\n      0x1f\n      add\n      0x20\n      dup1\n      swap2\n      div\n      mul\n      0x20\n      add\n      mload(0x40)\n      swap1\n      dup2\n      add\n      0x40\n      mstore\n      dup1\n      swap3\n      swap2\n      swap1\n      dup2\n      dup2\n      mstore\n      0x20\n      add\n      dup3\n      dup1\n      sload\n      tag_69\n      swap1\n      tag_56\n      jump\t// in\n    tag_69:\n      dup1\n      iszero\n      tag_70\n      jumpi\n      dup1\n      0x1f\n      lt\n      tag_71\n      jumpi\n      0x0100\n      dup1\n      dup4\n      sload\n      div\n      mul\n      dup4\n      mstore\n      swap2\n      0x20\n      add\n      swap2\n      jump(tag_70)\n    tag_71:\n      dup3\n      add\n      swap2\n      swap1\n      0x00\n      mstore\n      keccak256(0x00, 0x20)\n      swap1\n    tag_72:\n      dup2\n      sload\n      dup2\n      mstore\n      swap1\n      0x01\n      add\n      swap1\n      0x20\n      add\n      dup1\n      dup4\n      gt\n      tag_72\n      jumpi\n      dup3\n      swap1\n      sub\n      0x1f\n      and\n      dup3\n      add\n      swap2\n    tag_70:\n      pop\n      pop\n      pop\n      pop\n      pop\n      swap1\n      dup1\n      0x01\n      add\n      dup1\n      sload\n      tag_73\n      swap1\n      tag_56\n      jump\t// in\n    tag_73:\n      dup1\n      0x1f\n      add\n      0x20\n      dup1\n      swap2\n      div\n      mul\n      0x20\n      add\n      mload(0x40)\n      swap1\n      dup2\n      add\n      0x40\n      mstore\n      dup1\n      swap3\n      swap2\n      swap1\n      dup2\n      dup2\n      mstore\n      0x20\n      add\n      dup3\n      dup1\n      sload\n      tag_74\n      swap1\n      tag_56\n      jump\t// in\n    tag_74:\n      dup1\n      iszero\n      tag_75\n      jumpi\n      dup1\n      0x1f\n      lt\n      tag_76\n      jumpi\n      0x0100\n      dup1\n      dup4\n      sload\n      div\n      mul\n      dup4\n      mstore\n      swap2\n      0x20\n      add\n      swap2\n      jump(tag_75)\n    tag_76:\n      dup3\n      add\n      swap2\n      swap1\n      0x00\n      mstore\n      keccak256(0x00, 0x20)\n      swap1\n    tag_77:\n      dup2\n      sload\n      dup2\n      mstore\n      swap1\n      0x01\n      add\n      swap1\n      0x20\n      add\n      dup1\n      dup4\n      gt\n      tag_77\n      jumpi\n      dup3\n      swap1\n      sub\n      0x1f\n      and\n      dup3\n      add\n      swap2\n    tag_75:\n      pop\n      pop\n      pop\n      pop\n      pop\n      swap1\n      dup1\n      0x02\n      add\n      sload\n      swap1\n      dup1\n      0x03\n      add\n      sload\n      swap1\n      pop\n      dup5\n      jump\t// out\n        /* \"Main.sol\":4213:4240  string public processorName */\n    tag_28:\n      0x01\n      dup1\n      sload\n      tag_78\n      swap1\n      tag_56\n      jump\t// in\n    tag_78:\n      dup1\n      0x1f\n      add\n      0x20\n      dup1\n      swap2\n      div\n      mul\n      0x20\n      add\n      mload(0x40)\n      swap1\n      dup2\n      add\n      0x40\n      mstore\n      dup1\n      swap3\n      swap2\n      swap1\n      dup2\n      dup2\n      mstore\n      0x20\n      add\n      dup3\n      dup1\n      sload\n      tag_79\n      swap1\n      tag_56\n      jump\t// in\n    tag_79:\n      dup1\n      iszero\n      tag_80\n      jumpi\n      dup1\n      0x1f\n      lt\n      tag_81\n      jumpi\n      0x0100\n      dup1\n      dup4\n      sload\n      div\n      mul\n      dup4\n      mstore\n      swap2\n      0x20\n      add\n      swap2\n      jump(tag_80)\n    tag_81:\n      dup3\n      add\n      swap2\n      swap1\n      0x00\n      mstore\n      keccak256(0x00, 0x20)\n      swap1\n    tag_82:\n      dup2\n      sload\n      dup2\n      mstore\n      swap1\n      0x01\n      add\n      swap1\n      0x20\n      add\n      dup1\n      dup4\n      gt\n      tag_82\n      jumpi\n      dup3\n      swap1\n      sub\n      0x1f\n      and\n      dup3\n      add\n      swap2\n    tag_80:\n      pop\n      pop\n      pop\n      pop\n      pop\n      dup2\n      jump\t// out\n        /* \"Main.sol\":5626:6055  function sellProduct(uint256 _index, int256 _quantity) public {... */\n    tag_34:\n        /* \"Main.sol\":5716:5724  products */\n      0x02\n        /* \"Main.sol\":5716:5731  products.length */\n      dup1\n      sload\n      swap1\n      pop\n        /* \"Main.sol\":5707:5713  _index */\n      dup3\n        /* \"Main.sol\":5707:5731  _index < products.length */\n      lt\n        /* \"Main.sol\":5699:5755  require(_index < products.length, \"Index out of bounds\") */\n      tag_84\n      jumpi\n      mload(0x40)\n      0x08c379a000000000000000000000000000000000000000000000000000000000\n      dup2\n      mstore\n      0x04\n      add\n      tag_85\n      swap1\n      tag_86\n      jump\t// in\n    tag_85:\n      mload(0x40)\n      dup1\n      swap2\n      sub\n      swap1\n      revert\n    tag_84:\n        /* \"Main.sol\":5801:5809  products */\n      0x02\n        /* \"Main.sol\":5810:5816  _index */\n      dup3\n        /* \"Main.sol\":5801:5817  products[_index] */\n      dup2\n      sload\n      dup2\n      lt\n      tag_87\n      jumpi\n      tag_88\n      tag_89\n      jump\t// in\n    tag_88:\n    tag_87:\n      swap1\n      0x00\n      mstore\n      keccak256(0x00, 0x20)\n      swap1\n      0x04\n      mul\n      add\n        /* \"Main.sol\":5801:5833  products[_index].productQuantity */\n      0x03\n      add\n      sload\n        /* \"Main.sol\":5788:5797  _quantity */\n      dup2\n        /* \"Main.sol\":5788:5833  _quantity <= products[_index].productQuantity */\n      sgt\n      iszero\n        /* \"Main.sol\":5766:5882  require(... */\n      tag_91\n      jumpi\n      mload(0x40)\n      0x08c379a000000000000000000000000000000000000000000000000000000000\n      dup2\n      mstore\n      0x04\n      add\n      tag_92\n      swap1\n      tag_93\n      jump\t// in\n    tag_92:\n      mload(0x40)\n      dup1\n      swap2\n      sub\n      swap1\n      revert\n    tag_91:\n        /* \"Main.sol\":5895:5912  int256 totalPrice */\n      0x00\n        /* \"Main.sol\":5947:5956  _quantity */\n      dup2\n        /* \"Main.sol\":5915:5923  products */\n      0x02\n        /* \"Main.sol\":5924:5930  _index */\n      dup5\n        /* \"Main.sol\":5915:5931  products[_index] */\n      dup2\n      sload\n      dup2\n      lt\n      tag_94\n      jumpi\n      tag_95\n      tag_89\n      jump\t// in\n    tag_95:\n    tag_94:\n      swap1\n      0x00\n      mstore\n      keccak256(0x00, 0x20)\n      swap1\n      0x04\n      mul\n      add\n        /* \"Main.sol\":5915:5944  products[_index].productPrice */\n      0x02\n      add\n      sload\n        /* \"Main.sol\":5915:5956  products[_index].productPrice * _quantity */\n      tag_97\n      swap2\n      swap1\n      tag_98\n      jump\t// in\n    tag_97:\n        /* \"Main.sol\":5895:5956  int256 totalPrice = products[_index].productPrice * _quantity */\n      swap1\n      pop\n        /* \"Main.sol\":6003:6012  _quantity */\n      dup2\n        /* \"Main.sol\":5967:5975  products */\n      0x02\n        /* \"Main.sol\":5976:5982  _index */\n      dup5\n        /* \"Main.sol\":5967:5983  products[_index] */\n      dup2\n      sload\n      dup2\n      lt\n      tag_99\n      jumpi\n      tag_100\n      tag_89\n      jump\t// in\n    tag_100:\n    tag_99:\n      swap1\n      0x00\n      mstore\n      keccak256(0x00, 0x20)\n      swap1\n      0x04\n      mul\n      add\n        /* \"Main.sol\":5967:5999  products[_index].productQuantity */\n      0x03\n      add\n      0x00\n        /* \"Main.sol\":5967:6012  products[_index].productQuantity -= _quantity */\n      dup3\n      dup3\n      sload\n      tag_102\n      swap2\n      swap1\n      tag_103\n      jump\t// in\n    tag_102:\n      swap3\n      pop\n      pop\n      dup2\n      swap1\n      sstore\n      pop\n        /* \"Main.sol\":6037:6047  totalPrice */\n      dup1\n        /* \"Main.sol\":6023:6033  totalSales */\n      0x03\n      0x00\n        /* \"Main.sol\":6023:6047  totalSales += totalPrice */\n      dup3\n      dup3\n      sload\n      tag_104\n      swap2\n      swap1\n      tag_105\n      jump\t// in\n    tag_104:\n      swap3\n      pop\n      pop\n      dup2\n      swap1\n      sstore\n      pop\n        /* \"Main.sol\":5688:6055  {... */\n      pop\n        /* \"Main.sol\":5626:6055  function sellProduct(uint256 _index, int256 _quantity) public {... */\n      pop\n      pop\n      jump\t// out\n        /* \"Main.sol\":4175:4206  address public processorAddress */\n    tag_36:\n      0x00\n      dup1\n      sload\n      swap1\n      0x0100\n      exp\n      swap1\n      div\n      0xffffffffffffffffffffffffffffffffffffffff\n      and\n      dup2\n      jump\t// out\n        /* \"Main.sol\":5199:5618  function getProduct(... */\n    tag_41:\n        /* \"Main.sol\":5272:5285  string memory */\n      0x60\n        /* \"Main.sol\":5287:5293  int256 */\n      0x00\n        /* \"Main.sol\":5295:5308  string memory */\n      0x60\n        /* \"Main.sol\":5310:5316  int256 */\n      0x00\n        /* \"Main.sol\":5346:5354  products */\n      0x02\n        /* \"Main.sol\":5346:5361  products.length */\n      dup1\n      sload\n      swap1\n      pop\n        /* \"Main.sol\":5337:5343  _index */\n      dup6\n        /* \"Main.sol\":5337:5361  _index < products.length */\n      lt\n        /* \"Main.sol\":5329:5385  require(_index < products.length, \"Index out of bounds\") */\n      tag_107\n      jumpi\n      mload(0x40)\n      0x08c379a000000000000000000000000000000000000000000000000000000000\n      dup2\n      mstore\n      0x04\n      add\n      tag_108\n      swap1\n      tag_86\n      jump\t// in\n    tag_108:\n      mload(0x40)\n      dup1\n      swap2\n      sub\n      swap1\n      revert\n    tag_107:\n        /* \"Main.sol\":5396:5418  Product memory product */\n      0x00\n        /* \"Main.sol\":5421:5429  products */\n      0x02\n        /* \"Main.sol\":5430:5436  _index */\n      dup7\n        /* \"Main.sol\":5421:5437  products[_index] */\n      dup2\n      sload\n      dup2\n      lt\n      tag_109\n      jumpi\n      tag_110\n      tag_89\n      jump\t// in\n    tag_110:\n    tag_109:\n      swap1\n      0x00\n      mstore\n      keccak256(0x00, 0x20)\n      swap1\n      0x04\n      mul\n      add\n        /* \"Main.sol\":5396:5437  Product memory product = products[_index] */\n      mload(0x40)\n      dup1\n      0x80\n      add\n      0x40\n      mstore\n      swap1\n      dup2\n      0x00\n      dup3\n      add\n      dup1\n      sload\n      tag_112\n      swap1\n      tag_56\n      jump\t// in\n    tag_112:\n      dup1\n      0x1f\n      add\n      0x20\n      dup1\n      swap2\n      div\n      mul\n      0x20\n      add\n      mload(0x40)\n      swap1\n      dup2\n      add\n      0x40\n      mstore\n      dup1\n      swap3\n      swap2\n      swap1\n      dup2\n      dup2\n      mstore\n      0x20\n      add\n      dup3\n      dup1\n      sload\n      tag_113\n      swap1\n      tag_56\n      jump\t// in\n    tag_113:\n      dup1\n      iszero\n      tag_114\n      jumpi\n      dup1\n      0x1f\n      lt\n      tag_115\n      jumpi\n      0x0100\n      dup1\n      dup4\n      sload\n      div\n      mul\n      dup4\n      mstore\n      swap2\n      0x20\n      add\n      swap2\n      jump(tag_114)\n    tag_115:\n      dup3\n      add\n      swap2\n      swap1\n      0x00\n      mstore\n      keccak256(0x00, 0x20)\n      swap1\n    tag_116:\n      dup2\n      sload\n      dup2\n      mstore\n      swap1\n      0x01\n      add\n      swap1\n      0x20\n      add\n      dup1\n      dup4\n      gt\n      tag_116\n      jumpi\n      dup3\n      swap1\n      sub\n      0x1f\n      and\n      dup3\n      add\n      swap2\n    tag_114:\n      pop\n      pop\n      pop\n      pop\n      pop\n      dup2\n      mstore\n      0x20\n      add\n      0x01\n      dup3\n      add\n      dup1\n      sload\n      tag_117\n      swap1\n      tag_56\n      jump\t// in\n    tag_117:\n      dup1\n      0x1f\n      add\n      0x20\n      dup1\n      swap2\n      div\n      mul\n      0x20\n      add\n      mload(0x40)\n      swap1\n      dup2\n      add\n      0x40\n      mstore\n      dup1\n      swap3\n      swap2\n      swap1\n      dup2\n      dup2\n      mstore\n      0x20\n      add\n      dup3\n      dup1\n      sload\n      tag_118\n      swap1\n      tag_56\n      jump\t// in\n    tag_118:\n      dup1\n      iszero\n      tag_119\n      jumpi\n      dup1\n      0x1f\n      lt\n      tag_120\n      jumpi\n      0x0100\n      dup1\n      dup4\n      sload\n      div\n      mul\n      dup4\n      mstore\n      swap2\n      0x20\n      add\n      swap2\n      jump(tag_119)\n    tag_120:\n      dup3\n      add\n      swap2\n      swap1\n      0x00\n      mstore\n      keccak256(0x00, 0x20)\n      swap1\n    tag_121:\n      dup2\n      sload\n      dup2\n      mstore\n      swap1\n      0x01\n      add\n      swap1\n      0x20\n      add\n      dup1\n      dup4\n      gt\n      tag_121\n      jumpi\n      dup3\n      swap1\n      sub\n      0x1f\n      and\n      dup3\n      add\n      swap2\n    tag_119:\n      pop\n      pop\n      pop\n      pop\n      pop\n      dup2\n      mstore\n      0x20\n      add\n      0x02\n      dup3\n      add\n      sload\n      dup2\n      mstore\n      0x20\n      add\n      0x03\n      dup3\n      add\n      sload\n      dup2\n      mstore\n      pop\n      pop\n      swap1\n      pop\n        /* \"Main.sol\":5470:5477  product */\n      dup1\n        /* \"Main.sol\":5470:5489  product.productName */\n      0x00\n      add\n      mload\n        /* \"Main.sol\":5504:5511  product */\n      dup2\n        /* \"Main.sol\":5504:5524  product.productPrice */\n      0x40\n      add\n      mload\n        /* \"Main.sol\":5539:5546  product */\n      dup3\n        /* \"Main.sol\":5539:5561  product.productQuality */\n      0x20\n      add\n      mload\n        /* \"Main.sol\":5576:5583  product */\n      dup4\n        /* \"Main.sol\":5576:5599  product.productQuantity */\n      0x60\n      add\n      mload\n        /* \"Main.sol\":5448:5610  return (... */\n      swap5\n      pop\n      swap5\n      pop\n      swap5\n      pop\n      swap5\n      pop\n      pop\n        /* \"Main.sol\":5199:5618  function getProduct(... */\n      swap2\n      swap4\n      pop\n      swap2\n      swap4\n      jump\t// out\n        /* \"Main.sol\":6168:6430  function adjustProductQuantity(... */\n    tag_46:\n        /* \"Main.sol\":4539:4555  processorAddress */\n      0x00\n      dup1\n      sload\n      swap1\n      0x0100\n      exp\n      swap1\n      div\n      0xffffffffffffffffffffffffffffffffffffffff\n      and\n        /* \"Main.sol\":4525:4555  msg.sender == processorAddress */\n      0xffffffffffffffffffffffffffffffffffffffff\n      and\n        /* \"Main.sol\":4525:4535  msg.sender */\n      caller\n        /* \"Main.sol\":4525:4555  msg.sender == processorAddress */\n      0xffffffffffffffffffffffffffffffffffffffff\n      and\n      eq\n        /* \"Main.sol\":4503:4622  require(... */\n      tag_123\n      jumpi\n      mload(0x40)\n      0x08c379a000000000000000000000000000000000000000000000000000000000\n      dup2\n      mstore\n      0x04\n      add\n      tag_124\n      swap1\n      tag_125\n      jump\t// in\n    tag_124:\n      mload(0x40)\n      dup1\n      swap2\n      sub\n      swap1\n      revert\n    tag_123:\n        /* \"Main.sol\":6317:6325  products */\n      0x02\n        /* \"Main.sol\":6317:6332  products.length */\n      dup1\n      sload\n      swap1\n      pop\n        /* \"Main.sol\":6308:6314  _index */\n      dup3\n        /* \"Main.sol\":6308:6332  _index < products.length */\n      lt\n        /* \"Main.sol\":6300:6356  require(_index < products.length, \"Index out of bounds\") */\n      tag_127\n      jumpi\n      mload(0x40)\n      0x08c379a000000000000000000000000000000000000000000000000000000000\n      dup2\n      mstore\n      0x04\n      add\n      tag_128\n      swap1\n      tag_86\n      jump\t// in\n    tag_128:\n      mload(0x40)\n      dup1\n      swap2\n      sub\n      swap1\n      revert\n    tag_127:\n        /* \"Main.sol\":6403:6422  _additionalQuantity */\n      dup1\n        /* \"Main.sol\":6367:6375  products */\n      0x02\n        /* \"Main.sol\":6376:6382  _index */\n      dup4\n        /* \"Main.sol\":6367:6383  products[_index] */\n      dup2\n      sload\n      dup2\n      lt\n      tag_129\n      jumpi\n      tag_130\n      tag_89\n      jump\t// in\n    tag_130:\n    tag_129:\n      swap1\n      0x00\n      mstore\n      keccak256(0x00, 0x20)\n      swap1\n      0x04\n      mul\n      add\n        /* \"Main.sol\":6367:6399  products[_index].productQuantity */\n      0x03\n      add\n      0x00\n        /* \"Main.sol\":6367:6422  products[_index].productQuantity += _additionalQuantity */\n      dup3\n      dup3\n      sload\n      tag_132\n      swap2\n      swap1\n      tag_105\n      jump\t// in\n    tag_132:\n      swap3\n      pop\n      pop\n      dup2\n      swap1\n      sstore\n      pop\n        /* \"Main.sol\":6168:6430  function adjustProductQuantity(... */\n      pop\n      pop\n      jump\t// out\n        /* \"Main.sol\":4789:5191  function addProduct(... */\n    tag_50:\n        /* \"Main.sol\":4539:4555  processorAddress */\n      0x00\n      dup1\n      sload\n      swap1\n      0x0100\n      exp\n      swap1\n      div\n      0xffffffffffffffffffffffffffffffffffffffff\n      and\n        /* \"Main.sol\":4525:4555  msg.sender == processorAddress */\n      0xffffffffffffffffffffffffffffffffffffffff\n      and\n        /* \"Main.sol\":4525:4535  msg.sender */\n      caller\n        /* \"Main.sol\":4525:4555  msg.sender == processorAddress */\n      0xffffffffffffffffffffffffffffffffffffffff\n      and\n      eq\n        /* \"Main.sol\":4503:4622  require(... */\n      tag_134\n      jumpi\n      mload(0x40)\n      0x08c379a000000000000000000000000000000000000000000000000000000000\n      dup2\n      mstore\n      0x04\n      add\n      tag_135\n      swap1\n      tag_125\n      jump\t// in\n    tag_135:\n      mload(0x40)\n      dup1\n      swap2\n      sub\n      swap1\n      revert\n    tag_134:\n        /* \"Main.sol\":4990:4998  products */\n      0x02\n        /* \"Main.sol\":5018:5172  Product(... */\n      mload(0x40)\n      dup1\n      0x80\n      add\n      0x40\n      mstore\n      dup1\n        /* \"Main.sol\":5044:5056  _productName */\n      dup7\n        /* \"Main.sol\":5018:5172  Product(... */\n      dup2\n      mstore\n      0x20\n      add\n        /* \"Main.sol\":5075:5090  _productQuality */\n      dup6\n        /* \"Main.sol\":5018:5172  Product(... */\n      dup2\n      mstore\n      0x20\n      add\n        /* \"Main.sol\":5109:5122  _productPrice */\n      dup5\n        /* \"Main.sol\":5018:5172  Product(... */\n      dup2\n      mstore\n      0x20\n      add\n        /* \"Main.sol\":5141:5157  _productQuantity */\n      dup4\n        /* \"Main.sol\":5018:5172  Product(... */\n      dup2\n      mstore\n      pop\n        /* \"Main.sol\":4990:5183  products.push(... */\n      swap1\n      dup1\n      0x01\n      dup2\n      sload\n      add\n      dup1\n      dup3\n      sstore\n      dup1\n      swap2\n      pop\n      pop\n      0x01\n      swap1\n      sub\n      swap1\n      0x00\n      mstore\n      keccak256(0x00, 0x20)\n      swap1\n      0x04\n      mul\n      add\n      0x00\n      swap1\n      swap2\n      swap1\n      swap2\n      swap1\n      swap2\n      pop\n      0x00\n      dup3\n      add\n      mload\n      dup2\n      0x00\n      add\n      swap1\n      dup1\n      mload\n      swap1\n      0x20\n      add\n      swap1\n      tag_138\n      swap3\n      swap2\n      swap1\n      tag_139\n      jump\t// in\n    tag_138:\n      pop\n      0x20\n      dup3\n      add\n      mload\n      dup2\n      0x01\n      add\n      swap1\n      dup1\n      mload\n      swap1\n      0x20\n      add\n      swap1\n      tag_140\n      swap3\n      swap2\n      swap1\n      tag_139\n      jump\t// in\n    tag_140:\n      pop\n      0x40\n      dup3\n      add\n      mload\n      dup2\n      0x02\n      add\n      sstore\n      0x60\n      dup3\n      add\n      mload\n      dup2\n      0x03\n      add\n      sstore\n      pop\n      pop\n        /* \"Main.sol\":4789:5191  function addProduct(... */\n      pop\n      pop\n      pop\n      pop\n      jump\t// out\n    tag_139:\n      dup3\n      dup1\n      sload\n      tag_141\n      swap1\n      tag_56\n      jump\t// in\n    tag_141:\n      swap1\n      0x00\n      mstore\n      keccak256(0x00, 0x20)\n      swap1\n      0x1f\n      add\n      0x20\n      swap1\n      div\n      dup2\n      add\n      swap3\n      dup3\n      tag_143\n      jumpi\n      0x00\n      dup6\n      sstore\n      jump(tag_142)\n    tag_143:\n      dup3\n      0x1f\n      lt\n      tag_144\n      jumpi\n      dup1\n      mload\n      not(0xff)\n      and\n      dup4\n      dup1\n      add\n      or\n      dup6\n      sstore\n      jump(tag_142)\n    tag_144:\n      dup3\n      dup1\n      add\n      0x01\n      add\n      dup6\n      sstore\n      dup3\n      iszero\n      tag_142\n      jumpi\n      swap2\n      dup3\n      add\n    tag_145:\n      dup3\n      dup2\n      gt\n      iszero\n      tag_146\n      jumpi\n      dup3\n      mload\n      dup3\n      sstore\n      swap2\n      0x20\n      add\n      swap2\n      swap1\n      0x01\n      add\n      swap1\n      jump(tag_145)\n    tag_146:\n    tag_142:\n      pop\n      swap1\n      pop\n      tag_147\n      swap2\n      swap1\n      tag_148\n      jump\t// in\n    tag_147:\n      pop\n      swap1\n      jump\t// out\n    tag_148:\n    tag_149:\n      dup1\n      dup3\n      gt\n      iszero\n      tag_150\n      jumpi\n      0x00\n      dup2\n      0x00\n      swap1\n      sstore\n      pop\n      0x01\n      add\n      jump(tag_149)\n    tag_150:\n      pop\n      swap1\n      jump\t// out\n        /* \"#utility.yul\":7:145   */\n    tag_151:\n        /* \"#utility.yul\":98:104   */\n      0x00\n        /* \"#utility.yul\":132:137   */\n      dup2\n        /* \"#utility.yul\":126:138   */\n      mload\n        /* \"#utility.yul\":116:138   */\n      swap1\n      pop\n        /* \"#utility.yul\":7:145   */\n      swap2\n      swap1\n      pop\n      jump\t// out\n        /* \"#utility.yul\":151:359   */\n    tag_152:\n        /* \"#utility.yul\":274:285   */\n      0x00\n        /* \"#utility.yul\":308:314   */\n      dup3\n        /* \"#utility.yul\":303:306   */\n      dup3\n        /* \"#utility.yul\":296:315   */\n      mstore\n        /* \"#utility.yul\":348:352   */\n      0x20\n        /* \"#utility.yul\":343:346   */\n      dup3\n        /* \"#utility.yul\":339:353   */\n      add\n        /* \"#utility.yul\":324:353   */\n      swap1\n      pop\n        /* \"#utility.yul\":151:359   */\n      swap3\n      swap2\n      pop\n      pop\n      jump\t// out\n        /* \"#utility.yul\":365:521   */\n    tag_153:\n        /* \"#utility.yul\":456:460   */\n      0x00\n        /* \"#utility.yul\":479:482   */\n      dup2\n        /* \"#utility.yul\":471:482   */\n      swap1\n      pop\n        /* \"#utility.yul\":509:513   */\n      0x20\n        /* \"#utility.yul\":504:507   */\n      dup3\n        /* \"#utility.yul\":500:514   */\n      add\n        /* \"#utility.yul\":492:514   */\n      swap1\n      pop\n        /* \"#utility.yul\":365:521   */\n      swap2\n      swap1\n      pop\n      jump\t// out\n        /* \"#utility.yul\":527:626   */\n    tag_154:\n        /* \"#utility.yul\":579:585   */\n      0x00\n        /* \"#utility.yul\":613:618   */\n      dup2\n        /* \"#utility.yul\":607:619   */\n      mload\n        /* \"#utility.yul\":597:619   */\n      swap1\n      pop\n        /* \"#utility.yul\":527:626   */\n      swap2\n      swap1\n      pop\n      jump\t// out\n        /* \"#utility.yul\":632:791   */\n    tag_155:\n        /* \"#utility.yul\":706:717   */\n      0x00\n        /* \"#utility.yul\":740:746   */\n      dup3\n        /* \"#utility.yul\":735:738   */\n      dup3\n        /* \"#utility.yul\":728:747   */\n      mstore\n        /* \"#utility.yul\":780:784   */\n      0x20\n        /* \"#utility.yul\":775:778   */\n      dup3\n        /* \"#utility.yul\":771:785   */\n      add\n        /* \"#utility.yul\":756:785   */\n      swap1\n      pop\n        /* \"#utility.yul\":632:791   */\n      swap3\n      swap2\n      pop\n      pop\n      jump\t// out\n        /* \"#utility.yul\":797:1104   */\n    tag_156:\n        /* \"#utility.yul\":865:866   */\n      0x00\n        /* \"#utility.yul\":875:988   */\n    tag_203:\n        /* \"#utility.yul\":889:895   */\n      dup4\n        /* \"#utility.yul\":886:887   */\n      dup2\n        /* \"#utility.yul\":883:896   */\n      lt\n        /* \"#utility.yul\":875:988   */\n      iszero\n      tag_205\n      jumpi\n        /* \"#utility.yul\":974:975   */\n      dup1\n        /* \"#utility.yul\":969:972   */\n      dup3\n        /* \"#utility.yul\":965:976   */\n      add\n        /* \"#utility.yul\":959:977   */\n      mload\n        /* \"#utility.yul\":955:956   */\n      dup2\n        /* \"#utility.yul\":950:953   */\n      dup5\n        /* \"#utility.yul\":946:957   */\n      add\n        /* \"#utility.yul\":939:978   */\n      mstore\n        /* \"#utility.yul\":911:913   */\n      0x20\n        /* \"#utility.yul\":908:909   */\n      dup2\n        /* \"#utility.yul\":904:914   */\n      add\n        /* \"#utility.yul\":899:914   */\n      swap1\n      pop\n        /* \"#utility.yul\":875:988   */\n      jump(tag_203)\n    tag_205:\n        /* \"#utility.yul\":1006:1012   */\n      dup4\n        /* \"#utility.yul\":1003:1004   */\n      dup2\n        /* \"#utility.yul\":1000:1013   */\n      gt\n        /* \"#utility.yul\":997:1098   */\n      iszero\n      tag_206\n      jumpi\n        /* \"#utility.yul\":1086:1087   */\n      0x00\n        /* \"#utility.yul\":1077:1083   */\n      dup5\n        /* \"#utility.yul\":1072:1075   */\n      dup5\n        /* \"#utility.yul\":1068:1084   */\n      add\n        /* \"#utility.yul\":1061:1088   */\n      mstore\n        /* \"#utility.yul\":997:1098   */\n    tag_206:\n        /* \"#utility.yul\":846:1104   */\n      pop\n        /* \"#utility.yul\":797:1104   */\n      pop\n      pop\n      pop\n      jump\t// out\n        /* \"#utility.yul\":1110:1212   */\n    tag_157:\n        /* \"#utility.yul\":1151:1157   */\n      0x00\n        /* \"#utility.yul\":1202:1204   */\n      0x1f\n        /* \"#utility.yul\":1198:1205   */\n      not\n        /* \"#utility.yul\":1193:1195   */\n      0x1f\n        /* \"#utility.yul\":1186:1191   */\n      dup4\n        /* \"#utility.yul\":1182:1196   */\n      add\n        /* \"#utility.yul\":1178:1206   */\n      and\n        /* \"#utility.yul\":1168:1206   */\n      swap1\n      pop\n        /* \"#utility.yul\":1110:1212   */\n      swap2\n      swap1\n      pop\n      jump\t// out\n        /* \"#utility.yul\":1218:1562   */\n    tag_158:\n        /* \"#utility.yul\":1296:1299   */\n      0x00\n        /* \"#utility.yul\":1324:1363   */\n      tag_209\n        /* \"#utility.yul\":1357:1362   */\n      dup3\n        /* \"#utility.yul\":1324:1363   */\n      tag_154\n      jump\t// in\n    tag_209:\n        /* \"#utility.yul\":1379:1440   */\n      tag_210\n        /* \"#utility.yul\":1433:1439   */\n      dup2\n        /* \"#utility.yul\":1428:1431   */\n      dup6\n        /* \"#utility.yul\":1379:1440   */\n      tag_155\n      jump\t// in\n    tag_210:\n        /* \"#utility.yul\":1372:1440   */\n      swap4\n      pop\n        /* \"#utility.yul\":1449:1501   */\n      tag_211\n        /* \"#utility.yul\":1494:1500   */\n      dup2\n        /* \"#utility.yul\":1489:1492   */\n      dup6\n        /* \"#utility.yul\":1482:1486   */\n      0x20\n        /* \"#utility.yul\":1475:1480   */\n      dup7\n        /* \"#utility.yul\":1471:1487   */\n      add\n        /* \"#utility.yul\":1449:1501   */\n      tag_156\n      jump\t// in\n    tag_211:\n        /* \"#utility.yul\":1526:1555   */\n      tag_212\n        /* \"#utility.yul\":1548:1554   */\n      dup2\n        /* \"#utility.yul\":1526:1555   */\n      tag_157\n      jump\t// in\n    tag_212:\n        /* \"#utility.yul\":1521:1524   */\n      dup5\n        /* \"#utility.yul\":1517:1556   */\n      add\n        /* \"#utility.yul\":1510:1556   */\n      swap2\n      pop\n        /* \"#utility.yul\":1300:1562   */\n      pop\n        /* \"#utility.yul\":1218:1562   */\n      swap3\n      swap2\n      pop\n      pop\n      jump\t// out\n        /* \"#utility.yul\":1568:1644   */\n    tag_159:\n        /* \"#utility.yul\":1604:1611   */\n      0x00\n        /* \"#utility.yul\":1633:1638   */\n      dup2\n        /* \"#utility.yul\":1622:1638   */\n      swap1\n      pop\n        /* \"#utility.yul\":1568:1644   */\n      swap2\n      swap1\n      pop\n      jump\t// out\n        /* \"#utility.yul\":1650:1755   */\n    tag_160:\n        /* \"#utility.yul\":1725:1748   */\n      tag_215\n        /* \"#utility.yul\":1742:1747   */\n      dup2\n        /* \"#utility.yul\":1725:1748   */\n      tag_159\n      jump\t// in\n    tag_215:\n        /* \"#utility.yul\":1720:1723   */\n      dup3\n        /* \"#utility.yul\":1713:1749   */\n      mstore\n        /* \"#utility.yul\":1650:1755   */\n      pop\n      pop\n      jump\t// out\n        /* \"#utility.yul\":1837:2882   */\n    tag_161:\n        /* \"#utility.yul\":1944:1947   */\n      0x00\n        /* \"#utility.yul\":1980:1984   */\n      0x80\n        /* \"#utility.yul\":1975:1978   */\n      dup4\n        /* \"#utility.yul\":1971:1985   */\n      add\n        /* \"#utility.yul\":2074:2078   */\n      0x00\n        /* \"#utility.yul\":2067:2072   */\n      dup4\n        /* \"#utility.yul\":2063:2079   */\n      add\n        /* \"#utility.yul\":2057:2080   */\n      mload\n        /* \"#utility.yul\":2127:2130   */\n      dup5\n        /* \"#utility.yul\":2121:2125   */\n      dup3\n        /* \"#utility.yul\":2117:2131   */\n      sub\n        /* \"#utility.yul\":2110:2114   */\n      0x00\n        /* \"#utility.yul\":2105:2108   */\n      dup7\n        /* \"#utility.yul\":2101:2115   */\n      add\n        /* \"#utility.yul\":2094:2132   */\n      mstore\n        /* \"#utility.yul\":2153:2226   */\n      tag_217\n        /* \"#utility.yul\":2221:2225   */\n      dup3\n        /* \"#utility.yul\":2207:2219   */\n      dup3\n        /* \"#utility.yul\":2153:2226   */\n      tag_158\n      jump\t// in\n    tag_217:\n        /* \"#utility.yul\":2145:2226   */\n      swap2\n      pop\n        /* \"#utility.yul\":1995:2237   */\n      pop\n        /* \"#utility.yul\":2329:2333   */\n      0x20\n        /* \"#utility.yul\":2322:2327   */\n      dup4\n        /* \"#utility.yul\":2318:2334   */\n      add\n        /* \"#utility.yul\":2312:2335   */\n      mload\n        /* \"#utility.yul\":2382:2385   */\n      dup5\n        /* \"#utility.yul\":2376:2380   */\n      dup3\n        /* \"#utility.yul\":2372:2386   */\n      sub\n        /* \"#utility.yul\":2365:2369   */\n      0x20\n        /* \"#utility.yul\":2360:2363   */\n      dup7\n        /* \"#utility.yul\":2356:2370   */\n      add\n        /* \"#utility.yul\":2349:2387   */\n      mstore\n        /* \"#utility.yul\":2408:2481   */\n      tag_218\n        /* \"#utility.yul\":2476:2480   */\n      dup3\n        /* \"#utility.yul\":2462:2474   */\n      dup3\n        /* \"#utility.yul\":2408:2481   */\n      tag_158\n      jump\t// in\n    tag_218:\n        /* \"#utility.yul\":2400:2481   */\n      swap2\n      pop\n        /* \"#utility.yul\":2247:2492   */\n      pop\n        /* \"#utility.yul\":2582:2586   */\n      0x40\n        /* \"#utility.yul\":2575:2580   */\n      dup4\n        /* \"#utility.yul\":2571:2587   */\n      add\n        /* \"#utility.yul\":2565:2588   */\n      mload\n        /* \"#utility.yul\":2601:2662   */\n      tag_219\n        /* \"#utility.yul\":2656:2660   */\n      0x40\n        /* \"#utility.yul\":2651:2654   */\n      dup7\n        /* \"#utility.yul\":2647:2661   */\n      add\n        /* \"#utility.yul\":2633:2645   */\n      dup3\n        /* \"#utility.yul\":2601:2662   */\n      tag_160\n      jump\t// in\n    tag_219:\n        /* \"#utility.yul\":2502:2672   */\n      pop\n        /* \"#utility.yul\":2765:2769   */\n      0x60\n        /* \"#utility.yul\":2758:2763   */\n      dup4\n        /* \"#utility.yul\":2754:2770   */\n      add\n        /* \"#utility.yul\":2748:2771   */\n      mload\n        /* \"#utility.yul\":2784:2845   */\n      tag_220\n        /* \"#utility.yul\":2839:2843   */\n      0x60\n        /* \"#utility.yul\":2834:2837   */\n      dup7\n        /* \"#utility.yul\":2830:2844   */\n      add\n        /* \"#utility.yul\":2816:2828   */\n      dup3\n        /* \"#utility.yul\":2784:2845   */\n      tag_160\n      jump\t// in\n    tag_220:\n        /* \"#utility.yul\":2682:2855   */\n      pop\n        /* \"#utility.yul\":2872:2876   */\n      dup1\n        /* \"#utility.yul\":2865:2876   */\n      swap2\n      pop\n        /* \"#utility.yul\":1949:2882   */\n      pop\n        /* \"#utility.yul\":1837:2882   */\n      swap3\n      swap2\n      pop\n      pop\n      jump\t// out\n        /* \"#utility.yul\":2888:3140   */\n    tag_162:\n        /* \"#utility.yul\":3005:3015   */\n      0x00\n        /* \"#utility.yul\":3040:3134   */\n      tag_222\n        /* \"#utility.yul\":3130:3133   */\n      dup4\n        /* \"#utility.yul\":3122:3128   */\n      dup4\n        /* \"#utility.yul\":3040:3134   */\n      tag_161\n      jump\t// in\n    tag_222:\n        /* \"#utility.yul\":3026:3134   */\n      swap1\n      pop\n        /* \"#utility.yul\":2888:3140   */\n      swap3\n      swap2\n      pop\n      pop\n      jump\t// out\n        /* \"#utility.yul\":3146:3283   */\n    tag_163:\n        /* \"#utility.yul\":3240:3244   */\n      0x00\n        /* \"#utility.yul\":3272:3276   */\n      0x20\n        /* \"#utility.yul\":3267:3270   */\n      dup3\n        /* \"#utility.yul\":3263:3277   */\n      add\n        /* \"#utility.yul\":3255:3277   */\n      swap1\n      pop\n        /* \"#utility.yul\":3146:3283   */\n      swap2\n      swap1\n      pop\n      jump\t// out\n        /* \"#utility.yul\":3369:4472   */\n    tag_164:\n        /* \"#utility.yul\":3536:3539   */\n      0x00\n        /* \"#utility.yul\":3565:3643   */\n      tag_225\n        /* \"#utility.yul\":3637:3642   */\n      dup3\n        /* \"#utility.yul\":3565:3643   */\n      tag_151\n      jump\t// in\n    tag_225:\n        /* \"#utility.yul\":3659:3769   */\n      tag_226\n        /* \"#utility.yul\":3762:3768   */\n      dup2\n        /* \"#utility.yul\":3757:3760   */\n      dup6\n        /* \"#utility.yul\":3659:3769   */\n      tag_152\n      jump\t// in\n    tag_226:\n        /* \"#utility.yul\":3652:3769   */\n      swap4\n      pop\n        /* \"#utility.yul\":3795:3798   */\n      dup4\n        /* \"#utility.yul\":3840:3844   */\n      0x20\n        /* \"#utility.yul\":3832:3838   */\n      dup3\n        /* \"#utility.yul\":3828:3845   */\n      mul\n        /* \"#utility.yul\":3823:3826   */\n      dup6\n        /* \"#utility.yul\":3819:3846   */\n      add\n        /* \"#utility.yul\":3870:3950   */\n      tag_227\n        /* \"#utility.yul\":3944:3949   */\n      dup6\n        /* \"#utility.yul\":3870:3950   */\n      tag_153\n      jump\t// in\n    tag_227:\n        /* \"#utility.yul\":3973:3980   */\n      dup1\n        /* \"#utility.yul\":4004:4005   */\n      0x00\n        /* \"#utility.yul\":3989:4427   */\n    tag_228:\n        /* \"#utility.yul\":4014:4020   */\n      dup6\n        /* \"#utility.yul\":4011:4012   */\n      dup2\n        /* \"#utility.yul\":4008:4021   */\n      lt\n        /* \"#utility.yul\":3989:4427   */\n      iszero\n      tag_230\n      jumpi\n        /* \"#utility.yul\":4085:4094   */\n      dup5\n        /* \"#utility.yul\":4079:4083   */\n      dup5\n        /* \"#utility.yul\":4075:4095   */\n      sub\n        /* \"#utility.yul\":4070:4073   */\n      dup10\n        /* \"#utility.yul\":4063:4096   */\n      mstore\n        /* \"#utility.yul\":4136:4142   */\n      dup2\n        /* \"#utility.yul\":4130:4143   */\n      mload\n        /* \"#utility.yul\":4164:4276   */\n      tag_231\n        /* \"#utility.yul\":4271:4275   */\n      dup6\n        /* \"#utility.yul\":4256:4269   */\n      dup3\n        /* \"#utility.yul\":4164:4276   */\n      tag_162\n      jump\t// in\n    tag_231:\n        /* \"#utility.yul\":4156:4276   */\n      swap5\n      pop\n        /* \"#utility.yul\":4299:4383   */\n      tag_232\n        /* \"#utility.yul\":4376:4382   */\n      dup4\n        /* \"#utility.yul\":4299:4383   */\n      tag_163\n      jump\t// in\n    tag_232:\n        /* \"#utility.yul\":4289:4383   */\n      swap3\n      pop\n        /* \"#utility.yul\":4412:4416   */\n      0x20\n        /* \"#utility.yul\":4407:4410   */\n      dup11\n        /* \"#utility.yul\":4403:4417   */\n      add\n        /* \"#utility.yul\":4396:4417   */\n      swap10\n      pop\n        /* \"#utility.yul\":4049:4427   */\n      pop\n        /* \"#utility.yul\":4036:4037   */\n      0x01\n        /* \"#utility.yul\":4033:4034   */\n      dup2\n        /* \"#utility.yul\":4029:4038   */\n      add\n        /* \"#utility.yul\":4024:4038   */\n      swap1\n      pop\n        /* \"#utility.yul\":3989:4427   */\n      jump(tag_228)\n    tag_230:\n        /* \"#utility.yul\":3993:4007   */\n      pop\n        /* \"#utility.yul\":4443:4447   */\n      dup3\n        /* \"#utility.yul\":4436:4447   */\n      swap8\n      pop\n        /* \"#utility.yul\":4463:4466   */\n      dup8\n        /* \"#utility.yul\":4456:4466   */\n      swap6\n      pop\n        /* \"#utility.yul\":3541:4472   */\n      pop\n      pop\n      pop\n      pop\n      pop\n        /* \"#utility.yul\":3369:4472   */\n      swap3\n      swap2\n      pop\n      pop\n      jump\t// out\n        /* \"#utility.yul\":4478:4947   */\n    tag_16:\n        /* \"#utility.yul\":4669:4673   */\n      0x00\n        /* \"#utility.yul\":4707:4709   */\n      0x20\n        /* \"#utility.yul\":4696:4705   */\n      dup3\n        /* \"#utility.yul\":4692:4710   */\n      add\n        /* \"#utility.yul\":4684:4710   */\n      swap1\n      pop\n        /* \"#utility.yul\":4756:4765   */\n      dup2\n        /* \"#utility.yul\":4750:4754   */\n      dup2\n        /* \"#utility.yul\":4746:4766   */\n      sub\n        /* \"#utility.yul\":4742:4743   */\n      0x00\n        /* \"#utility.yul\":4731:4740   */\n      dup4\n        /* \"#utility.yul\":4727:4744   */\n      add\n        /* \"#utility.yul\":4720:4767   */\n      mstore\n        /* \"#utility.yul\":4784:4940   */\n      tag_234\n        /* \"#utility.yul\":4935:4939   */\n      dup2\n        /* \"#utility.yul\":4926:4932   */\n      dup5\n        /* \"#utility.yul\":4784:4940   */\n      tag_164\n      jump\t// in\n    tag_234:\n        /* \"#utility.yul\":4776:4940   */\n      swap1\n      pop\n        /* \"#utility.yul\":4478:4947   */\n      swap3\n      swap2\n      pop\n      pop\n      jump\t// out\n        /* \"#utility.yul\":4953:5068   */\n    tag_165:\n        /* \"#utility.yul\":5038:5061   */\n      tag_236\n        /* \"#utility.yul\":5055:5060   */\n      dup2\n        /* \"#utility.yul\":5038:5061   */\n      tag_159\n      jump\t// in\n    tag_236:\n        /* \"#utility.yul\":5033:5036   */\n      dup3\n        /* \"#utility.yul\":5026:5062   */\n      mstore\n        /* \"#utility.yul\":4953:5068   */\n      pop\n      pop\n      jump\t// out\n        /* \"#utility.yul\":5074:5292   */\n    tag_20:\n        /* \"#utility.yul\":5165:5169   */\n      0x00\n        /* \"#utility.yul\":5203:5205   */\n      0x20\n        /* \"#utility.yul\":5192:5201   */\n      dup3\n        /* \"#utility.yul\":5188:5206   */\n      add\n        /* \"#utility.yul\":5180:5206   */\n      swap1\n      pop\n        /* \"#utility.yul\":5216:5285   */\n      tag_238\n        /* \"#utility.yul\":5282:5283   */\n      0x00\n        /* \"#utility.yul\":5271:5280   */\n      dup4\n        /* \"#utility.yul\":5267:5284   */\n      add\n        /* \"#utility.yul\":5258:5264   */\n      dup5\n        /* \"#utility.yul\":5216:5285   */\n      tag_165\n      jump\t// in\n    tag_238:\n        /* \"#utility.yul\":5074:5292   */\n      swap3\n      swap2\n      pop\n      pop\n      jump\t// out\n        /* \"#utility.yul\":5298:5373   */\n    tag_166:\n        /* \"#utility.yul\":5331:5337   */\n      0x00\n        /* \"#utility.yul\":5364:5366   */\n      0x40\n        /* \"#utility.yul\":5358:5367   */\n      mload\n        /* \"#utility.yul\":5348:5367   */\n      swap1\n      pop\n        /* \"#utility.yul\":5298:5373   */\n      swap1\n      jump\t// out\n        /* \"#utility.yul\":5379:5496   */\n    tag_167:\n        /* \"#utility.yul\":5488:5489   */\n      0x00\n        /* \"#utility.yul\":5485:5486   */\n      dup1\n        /* \"#utility.yul\":5478:5490   */\n      revert\n        /* \"#utility.yul\":5502:5619   */\n    tag_168:\n        /* \"#utility.yul\":5611:5612   */\n      0x00\n        /* \"#utility.yul\":5608:5609   */\n      dup1\n        /* \"#utility.yul\":5601:5613   */\n      revert\n        /* \"#utility.yul\":5625:5702   */\n    tag_169:\n        /* \"#utility.yul\":5662:5669   */\n      0x00\n        /* \"#utility.yul\":5691:5696   */\n      dup2\n        /* \"#utility.yul\":5680:5696   */\n      swap1\n      pop\n        /* \"#utility.yul\":5625:5702   */\n      swap2\n      swap1\n      pop\n      jump\t// out\n        /* \"#utility.yul\":5708:5830   */\n    tag_170:\n        /* \"#utility.yul\":5781:5805   */\n      tag_244\n        /* \"#utility.yul\":5799:5804   */\n      dup2\n        /* \"#utility.yul\":5781:5805   */\n      tag_169\n      jump\t// in\n    tag_244:\n        /* \"#utility.yul\":5774:5779   */\n      dup2\n        /* \"#utility.yul\":5771:5806   */\n      eq\n        /* \"#utility.yul\":5761:5824   */\n      tag_245\n      jumpi\n        /* \"#utility.yul\":5820:5821   */\n      0x00\n        /* \"#utility.yul\":5817:5818   */\n      dup1\n        /* \"#utility.yul\":5810:5822   */\n      revert\n        /* \"#utility.yul\":5761:5824   */\n    tag_245:\n        /* \"#utility.yul\":5708:5830   */\n      pop\n      jump\t// out\n        /* \"#utility.yul\":5836:5975   */\n    tag_171:\n        /* \"#utility.yul\":5882:5887   */\n      0x00\n        /* \"#utility.yul\":5920:5926   */\n      dup2\n        /* \"#utility.yul\":5907:5927   */\n      calldataload\n        /* \"#utility.yul\":5898:5927   */\n      swap1\n      pop\n        /* \"#utility.yul\":5936:5969   */\n      tag_247\n        /* \"#utility.yul\":5963:5968   */\n      dup2\n        /* \"#utility.yul\":5936:5969   */\n      tag_170\n      jump\t// in\n    tag_247:\n        /* \"#utility.yul\":5836:5975   */\n      swap3\n      swap2\n      pop\n      pop\n      jump\t// out\n        /* \"#utility.yul\":5981:6310   */\n    tag_23:\n        /* \"#utility.yul\":6040:6046   */\n      0x00\n        /* \"#utility.yul\":6089:6091   */\n      0x20\n        /* \"#utility.yul\":6077:6086   */\n      dup3\n        /* \"#utility.yul\":6068:6075   */\n      dup5\n        /* \"#utility.yul\":6064:6087   */\n      sub\n        /* \"#utility.yul\":6060:6092   */\n      slt\n        /* \"#utility.yul\":6057:6176   */\n      iszero\n      tag_249\n      jumpi\n        /* \"#utility.yul\":6095:6174   */\n      tag_250\n      tag_167\n      jump\t// in\n    tag_250:\n        /* \"#utility.yul\":6057:6176   */\n    tag_249:\n        /* \"#utility.yul\":6215:6216   */\n      0x00\n        /* \"#utility.yul\":6240:6293   */\n      tag_251\n        /* \"#utility.yul\":6285:6292   */\n      dup5\n        /* \"#utility.yul\":6276:6282   */\n      dup3\n        /* \"#utility.yul\":6265:6274   */\n      dup6\n        /* \"#utility.yul\":6261:6283   */\n      add\n        /* \"#utility.yul\":6240:6293   */\n      tag_171\n      jump\t// in\n    tag_251:\n        /* \"#utility.yul\":6230:6293   */\n      swap2\n      pop\n        /* \"#utility.yul\":6186:6303   */\n      pop\n        /* \"#utility.yul\":5981:6310   */\n      swap3\n      swap2\n      pop\n      pop\n      jump\t// out\n        /* \"#utility.yul\":6316:6485   */\n    tag_172:\n        /* \"#utility.yul\":6400:6411   */\n      0x00\n        /* \"#utility.yul\":6434:6440   */\n      dup3\n        /* \"#utility.yul\":6429:6432   */\n      dup3\n        /* \"#utility.yul\":6422:6441   */\n      mstore\n        /* \"#utility.yul\":6474:6478   */\n      0x20\n        /* \"#utility.yul\":6469:6472   */\n      dup3\n        /* \"#utility.yul\":6465:6479   */\n      add\n        /* \"#utility.yul\":6450:6479   */\n      swap1\n      pop\n        /* \"#utility.yul\":6316:6485   */\n      swap3\n      swap2\n      pop\n      pop\n      jump\t// out\n        /* \"#utility.yul\":6491:6855   */\n    tag_173:\n        /* \"#utility.yul\":6579:6582   */\n      0x00\n        /* \"#utility.yul\":6607:6646   */\n      tag_254\n        /* \"#utility.yul\":6640:6645   */\n      dup3\n        /* \"#utility.yul\":6607:6646   */\n      tag_154\n      jump\t// in\n    tag_254:\n        /* \"#utility.yul\":6662:6733   */\n      tag_255\n        /* \"#utility.yul\":6726:6732   */\n      dup2\n        /* \"#utility.yul\":6721:6724   */\n      dup6\n        /* \"#utility.yul\":6662:6733   */\n      tag_172\n      jump\t// in\n    tag_255:\n        /* \"#utility.yul\":6655:6733   */\n      swap4\n      pop\n        /* \"#utility.yul\":6742:6794   */\n      tag_256\n        /* \"#utility.yul\":6787:6793   */\n      dup2\n        /* \"#utility.yul\":6782:6785   */\n      dup6\n        /* \"#utility.yul\":6775:6779   */\n      0x20\n        /* \"#utility.yul\":6768:6773   */\n      dup7\n        /* \"#utility.yul\":6764:6780   */\n      add\n        /* \"#utility.yul\":6742:6794   */\n      tag_156\n      jump\t// in\n    tag_256:\n        /* \"#utility.yul\":6819:6848   */\n      tag_257\n        /* \"#utility.yul\":6841:6847   */\n      dup2\n        /* \"#utility.yul\":6819:6848   */\n      tag_157\n      jump\t// in\n    tag_257:\n        /* \"#utility.yul\":6814:6817   */\n      dup5\n        /* \"#utility.yul\":6810:6849   */\n      add\n        /* \"#utility.yul\":6803:6849   */\n      swap2\n      pop\n        /* \"#utility.yul\":6583:6855   */\n      pop\n        /* \"#utility.yul\":6491:6855   */\n      swap3\n      swap2\n      pop\n      pop\n      jump\t// out\n        /* \"#utility.yul\":6861:7588   */\n    tag_26:\n        /* \"#utility.yul\":7074:7078   */\n      0x00\n        /* \"#utility.yul\":7112:7115   */\n      0x80\n        /* \"#utility.yul\":7101:7110   */\n      dup3\n        /* \"#utility.yul\":7097:7116   */\n      add\n        /* \"#utility.yul\":7089:7116   */\n      swap1\n      pop\n        /* \"#utility.yul\":7162:7171   */\n      dup2\n        /* \"#utility.yul\":7156:7160   */\n      dup2\n        /* \"#utility.yul\":7152:7172   */\n      sub\n        /* \"#utility.yul\":7148:7149   */\n      0x00\n        /* \"#utility.yul\":7137:7146   */\n      dup4\n        /* \"#utility.yul\":7133:7150   */\n      add\n        /* \"#utility.yul\":7126:7173   */\n      mstore\n        /* \"#utility.yul\":7190:7268   */\n      tag_259\n        /* \"#utility.yul\":7263:7267   */\n      dup2\n        /* \"#utility.yul\":7254:7260   */\n      dup8\n        /* \"#utility.yul\":7190:7268   */\n      tag_173\n      jump\t// in\n    tag_259:\n        /* \"#utility.yul\":7182:7268   */\n      swap1\n      pop\n        /* \"#utility.yul\":7315:7324   */\n      dup2\n        /* \"#utility.yul\":7309:7313   */\n      dup2\n        /* \"#utility.yul\":7305:7325   */\n      sub\n        /* \"#utility.yul\":7300:7302   */\n      0x20\n        /* \"#utility.yul\":7289:7298   */\n      dup4\n        /* \"#utility.yul\":7285:7303   */\n      add\n        /* \"#utility.yul\":7278:7326   */\n      mstore\n        /* \"#utility.yul\":7343:7421   */\n      tag_260\n        /* \"#utility.yul\":7416:7420   */\n      dup2\n        /* \"#utility.yul\":7407:7413   */\n      dup7\n        /* \"#utility.yul\":7343:7421   */\n      tag_173\n      jump\t// in\n    tag_260:\n        /* \"#utility.yul\":7335:7421   */\n      swap1\n      pop\n        /* \"#utility.yul\":7431:7501   */\n      tag_261\n        /* \"#utility.yul\":7497:7499   */\n      0x40\n        /* \"#utility.yul\":7486:7495   */\n      dup4\n        /* \"#utility.yul\":7482:7500   */\n      add\n        /* \"#utility.yul\":7473:7479   */\n      dup6\n        /* \"#utility.yul\":7431:7501   */\n      tag_165\n      jump\t// in\n    tag_261:\n        /* \"#utility.yul\":7511:7581   */\n      tag_262\n        /* \"#utility.yul\":7577:7579   */\n      0x60\n        /* \"#utility.yul\":7566:7575   */\n      dup4\n        /* \"#utility.yul\":7562:7580   */\n      add\n        /* \"#utility.yul\":7553:7559   */\n      dup5\n        /* \"#utility.yul\":7511:7581   */\n      tag_165\n      jump\t// in\n    tag_262:\n        /* \"#utility.yul\":6861:7588   */\n      swap6\n      swap5\n      pop\n      pop\n      pop\n      pop\n      pop\n      jump\t// out\n        /* \"#utility.yul\":7594:7907   */\n    tag_30:\n        /* \"#utility.yul\":7707:7711   */\n      0x00\n        /* \"#utility.yul\":7745:7747   */\n      0x20\n        /* \"#utility.yul\":7734:7743   */\n      dup3\n        /* \"#utility.yul\":7730:7748   */\n      add\n        /* \"#utility.yul\":7722:7748   */\n      swap1\n      pop\n        /* \"#utility.yul\":7794:7803   */\n      dup2\n        /* \"#utility.yul\":7788:7792   */\n      dup2\n        /* \"#utility.yul\":7784:7804   */\n      sub\n        /* \"#utility.yul\":7780:7781   */\n      0x00\n        /* \"#utility.yul\":7769:7778   */\n      dup4\n        /* \"#utility.yul\":7765:7782   */\n      add\n        /* \"#utility.yul\":7758:7805   */\n      mstore\n        /* \"#utility.yul\":7822:7900   */\n      tag_264\n        /* \"#utility.yul\":7895:7899   */\n      dup2\n        /* \"#utility.yul\":7886:7892   */\n      dup5\n        /* \"#utility.yul\":7822:7900   */\n      tag_173\n      jump\t// in\n    tag_264:\n        /* \"#utility.yul\":7814:7900   */\n      swap1\n      pop\n        /* \"#utility.yul\":7594:7907   */\n      swap3\n      swap2\n      pop\n      pop\n      jump\t// out\n        /* \"#utility.yul\":7913:8033   */\n    tag_174:\n        /* \"#utility.yul\":7985:8008   */\n      tag_266\n        /* \"#utility.yul\":8002:8007   */\n      dup2\n        /* \"#utility.yul\":7985:8008   */\n      tag_159\n      jump\t// in\n    tag_266:\n        /* \"#utility.yul\":7978:7983   */\n      dup2\n        /* \"#utility.yul\":7975:8009   */\n      eq\n        /* \"#utility.yul\":7965:8027   */\n      tag_267\n      jumpi\n        /* \"#utility.yul\":8023:8024   */\n      0x00\n        /* \"#utility.yul\":8020:8021   */\n      dup1\n        /* \"#utility.yul\":8013:8025   */\n      revert\n        /* \"#utility.yul\":7965:8027   */\n    tag_267:\n        /* \"#utility.yul\":7913:8033   */\n      pop\n      jump\t// out\n        /* \"#utility.yul\":8039:8176   */\n    tag_175:\n        /* \"#utility.yul\":8084:8089   */\n      0x00\n        /* \"#utility.yul\":8122:8128   */\n      dup2\n        /* \"#utility.yul\":8109:8129   */\n      calldataload\n        /* \"#utility.yul\":8100:8129   */\n      swap1\n      pop\n        /* \"#utility.yul\":8138:8170   */\n      tag_269\n        /* \"#utility.yul\":8164:8169   */\n      dup2\n        /* \"#utility.yul\":8138:8170   */\n      tag_174\n      jump\t// in\n    tag_269:\n        /* \"#utility.yul\":8039:8176   */\n      swap3\n      swap2\n      pop\n      pop\n      jump\t// out\n        /* \"#utility.yul\":8182:8654   */\n    tag_33:\n        /* \"#utility.yul\":8249:8255   */\n      0x00\n        /* \"#utility.yul\":8257:8263   */\n      dup1\n        /* \"#utility.yul\":8306:8308   */\n      0x40\n        /* \"#utility.yul\":8294:8303   */\n      dup4\n        /* \"#utility.yul\":8285:8292   */\n      dup6\n        /* \"#utility.yul\":8281:8304   */\n      sub\n        /* \"#utility.yul\":8277:8309   */\n      slt\n        /* \"#utility.yul\":8274:8393   */\n      iszero\n      tag_271\n      jumpi\n        /* \"#utility.yul\":8312:8391   */\n      tag_272\n      tag_167\n      jump\t// in\n    tag_272:\n        /* \"#utility.yul\":8274:8393   */\n    tag_271:\n        /* \"#utility.yul\":8432:8433   */\n      0x00\n        /* \"#utility.yul\":8457:8510   */\n      tag_273\n        /* \"#utility.yul\":8502:8509   */\n      dup6\n        /* \"#utility.yul\":8493:8499   */\n      dup3\n        /* \"#utility.yul\":8482:8491   */\n      dup7\n        /* \"#utility.yul\":8478:8500   */\n      add\n        /* \"#utility.yul\":8457:8510   */\n      tag_171\n      jump\t// in\n    tag_273:\n        /* \"#utility.yul\":8447:8510   */\n      swap3\n      pop\n        /* \"#utility.yul\":8403:8520   */\n      pop\n        /* \"#utility.yul\":8559:8561   */\n      0x20\n        /* \"#utility.yul\":8585:8637   */\n      tag_274\n        /* \"#utility.yul\":8629:8636   */\n      dup6\n        /* \"#utility.yul\":8620:8626   */\n      dup3\n        /* \"#utility.yul\":8609:8618   */\n      dup7\n        /* \"#utility.yul\":8605:8627   */\n      add\n        /* \"#utility.yul\":8585:8637   */\n      tag_175\n      jump\t// in\n    tag_274:\n        /* \"#utility.yul\":8575:8637   */\n      swap2\n      pop\n        /* \"#utility.yul\":8530:8647   */\n      pop\n        /* \"#utility.yul\":8182:8654   */\n      swap3\n      pop\n      swap3\n      swap1\n      pop\n      jump\t// out\n        /* \"#utility.yul\":8660:8786   */\n    tag_176:\n        /* \"#utility.yul\":8697:8704   */\n      0x00\n        /* \"#utility.yul\":8737:8779   */\n      0xffffffffffffffffffffffffffffffffffffffff\n        /* \"#utility.yul\":8730:8735   */\n      dup3\n        /* \"#utility.yul\":8726:8780   */\n      and\n        /* \"#utility.yul\":8715:8780   */\n      swap1\n      pop\n        /* \"#utility.yul\":8660:8786   */\n      swap2\n      swap1\n      pop\n      jump\t// out\n        /* \"#utility.yul\":8792:8888   */\n    tag_177:\n        /* \"#utility.yul\":8829:8836   */\n      0x00\n        /* \"#utility.yul\":8858:8882   */\n      tag_277\n        /* \"#utility.yul\":8876:8881   */\n      dup3\n        /* \"#utility.yul\":8858:8882   */\n      tag_176\n      jump\t// in\n    tag_277:\n        /* \"#utility.yul\":8847:8882   */\n      swap1\n      pop\n        /* \"#utility.yul\":8792:8888   */\n      swap2\n      swap1\n      pop\n      jump\t// out\n        /* \"#utility.yul\":8894:9012   */\n    tag_178:\n        /* \"#utility.yul\":8981:9005   */\n      tag_279\n        /* \"#utility.yul\":8999:9004   */\n      dup2\n        /* \"#utility.yul\":8981:9005   */\n      tag_177\n      jump\t// in\n    tag_279:\n        /* \"#utility.yul\":8976:8979   */\n      dup3\n        /* \"#utility.yul\":8969:9006   */\n      mstore\n        /* \"#utility.yul\":8894:9012   */\n      pop\n      pop\n      jump\t// out\n        /* \"#utility.yul\":9018:9240   */\n    tag_38:\n        /* \"#utility.yul\":9111:9115   */\n      0x00\n        /* \"#utility.yul\":9149:9151   */\n      0x20\n        /* \"#utility.yul\":9138:9147   */\n      dup3\n        /* \"#utility.yul\":9134:9152   */\n      add\n        /* \"#utility.yul\":9126:9152   */\n      swap1\n      pop\n        /* \"#utility.yul\":9162:9233   */\n      tag_281\n        /* \"#utility.yul\":9230:9231   */\n      0x00\n        /* \"#utility.yul\":9219:9228   */\n      dup4\n        /* \"#utility.yul\":9215:9232   */\n      add\n        /* \"#utility.yul\":9206:9212   */\n      dup5\n        /* \"#utility.yul\":9162:9233   */\n      tag_178\n      jump\t// in\n    tag_281:\n        /* \"#utility.yul\":9018:9240   */\n      swap3\n      swap2\n      pop\n      pop\n      jump\t// out\n        /* \"#utility.yul\":9246:9973   */\n    tag_43:\n        /* \"#utility.yul\":9459:9463   */\n      0x00\n        /* \"#utility.yul\":9497:9500   */\n      0x80\n        /* \"#utility.yul\":9486:9495   */\n      dup3\n        /* \"#utility.yul\":9482:9501   */\n      add\n        /* \"#utility.yul\":9474:9501   */\n      swap1\n      pop\n        /* \"#utility.yul\":9547:9556   */\n      dup2\n        /* \"#utility.yul\":9541:9545   */\n      dup2\n        /* \"#utility.yul\":9537:9557   */\n      sub\n        /* \"#utility.yul\":9533:9534   */\n      0x00\n        /* \"#utility.yul\":9522:9531   */\n      dup4\n        /* \"#utility.yul\":9518:9535   */\n      add\n        /* \"#utility.yul\":9511:9558   */\n      mstore\n        /* \"#utility.yul\":9575:9653   */\n      tag_283\n        /* \"#utility.yul\":9648:9652   */\n      dup2\n        /* \"#utility.yul\":9639:9645   */\n      dup8\n        /* \"#utility.yul\":9575:9653   */\n      tag_173\n      jump\t// in\n    tag_283:\n        /* \"#utility.yul\":9567:9653   */\n      swap1\n      pop\n        /* \"#utility.yul\":9663:9733   */\n      tag_284\n        /* \"#utility.yul\":9729:9731   */\n      0x20\n        /* \"#utility.yul\":9718:9727   */\n      dup4\n        /* \"#utility.yul\":9714:9732   */\n      add\n        /* \"#utility.yul\":9705:9711   */\n      dup7\n        /* \"#utility.yul\":9663:9733   */\n      tag_165\n      jump\t// in\n    tag_284:\n        /* \"#utility.yul\":9780:9789   */\n      dup2\n        /* \"#utility.yul\":9774:9778   */\n      dup2\n        /* \"#utility.yul\":9770:9790   */\n      sub\n        /* \"#utility.yul\":9765:9767   */\n      0x40\n        /* \"#utility.yul\":9754:9763   */\n      dup4\n        /* \"#utility.yul\":9750:9768   */\n      add\n        /* \"#utility.yul\":9743:9791   */\n      mstore\n        /* \"#utility.yul\":9808:9886   */\n      tag_285\n        /* \"#utility.yul\":9881:9885   */\n      dup2\n        /* \"#utility.yul\":9872:9878   */\n      dup6\n        /* \"#utility.yul\":9808:9886   */\n      tag_173\n      jump\t// in\n    tag_285:\n        /* \"#utility.yul\":9800:9886   */\n      swap1\n      pop\n        /* \"#utility.yul\":9896:9966   */\n      tag_286\n        /* \"#utility.yul\":9962:9964   */\n      0x60\n        /* \"#utility.yul\":9951:9960   */\n      dup4\n        /* \"#utility.yul\":9947:9965   */\n      add\n        /* \"#utility.yul\":9938:9944   */\n      dup5\n        /* \"#utility.yul\":9896:9966   */\n      tag_165\n      jump\t// in\n    tag_286:\n        /* \"#utility.yul\":9246:9973   */\n      swap6\n      swap5\n      pop\n      pop\n      pop\n      pop\n      pop\n      jump\t// out\n        /* \"#utility.yul\":9979:10096   */\n    tag_179:\n        /* \"#utility.yul\":10088:10089   */\n      0x00\n        /* \"#utility.yul\":10085:10086   */\n      dup1\n        /* \"#utility.yul\":10078:10090   */\n      revert\n        /* \"#utility.yul\":10102:10219   */\n    tag_180:\n        /* \"#utility.yul\":10211:10212   */\n      0x00\n        /* \"#utility.yul\":10208:10209   */\n      dup1\n        /* \"#utility.yul\":10201:10213   */\n      revert\n        /* \"#utility.yul\":10225:10405   */\n    tag_181:\n        /* \"#utility.yul\":10273:10350   */\n      0x4e487b7100000000000000000000000000000000000000000000000000000000\n        /* \"#utility.yul\":10270:10271   */\n      0x00\n        /* \"#utility.yul\":10263:10351   */\n      mstore\n        /* \"#utility.yul\":10370:10374   */\n      0x41\n        /* \"#utility.yul\":10367:10368   */\n      0x04\n        /* \"#utility.yul\":10360:10375   */\n      mstore\n        /* \"#utility.yul\":10394:10398   */\n      0x24\n        /* \"#utility.yul\":10391:10392   */\n      0x00\n        /* \"#utility.yul\":10384:10399   */\n      revert\n        /* \"#utility.yul\":10411:10692   */\n    tag_182:\n        /* \"#utility.yul\":10494:10521   */\n      tag_291\n        /* \"#utility.yul\":10516:10520   */\n      dup3\n        /* \"#utility.yul\":10494:10521   */\n      tag_157\n      jump\t// in\n    tag_291:\n        /* \"#utility.yul\":10486:10492   */\n      dup2\n        /* \"#utility.yul\":10482:10522   */\n      add\n        /* \"#utility.yul\":10624:10630   */\n      dup2\n        /* \"#utility.yul\":10612:10622   */\n      dup2\n        /* \"#utility.yul\":10609:10631   */\n      lt\n        /* \"#utility.yul\":10588:10606   */\n      0xffffffffffffffff\n        /* \"#utility.yul\":10576:10586   */\n      dup3\n        /* \"#utility.yul\":10573:10607   */\n      gt\n        /* \"#utility.yul\":10570:10632   */\n      or\n        /* \"#utility.yul\":10567:10655   */\n      iszero\n      tag_292\n      jumpi\n        /* \"#utility.yul\":10635:10653   */\n      tag_293\n      tag_181\n      jump\t// in\n    tag_293:\n        /* \"#utility.yul\":10567:10655   */\n    tag_292:\n        /* \"#utility.yul\":10675:10685   */\n      dup1\n        /* \"#utility.yul\":10671:10673   */\n      0x40\n        /* \"#utility.yul\":10664:10686   */\n      mstore\n        /* \"#utility.yul\":10454:10692   */\n      pop\n        /* \"#utility.yul\":10411:10692   */\n      pop\n      pop\n      jump\t// out\n        /* \"#utility.yul\":10698:10827   */\n    tag_183:\n        /* \"#utility.yul\":10732:10738   */\n      0x00\n        /* \"#utility.yul\":10759:10779   */\n      tag_295\n      tag_166\n      jump\t// in\n    tag_295:\n        /* \"#utility.yul\":10749:10779   */\n      swap1\n      pop\n        /* \"#utility.yul\":10788:10821   */\n      tag_296\n        /* \"#utility.yul\":10816:10820   */\n      dup3\n        /* \"#utility.yul\":10808:10814   */\n      dup3\n        /* \"#utility.yul\":10788:10821   */\n      tag_182\n      jump\t// in\n    tag_296:\n        /* \"#utility.yul\":10698:10827   */\n      swap2\n      swap1\n      pop\n      jump\t// out\n        /* \"#utility.yul\":10833:11141   */\n    tag_184:\n        /* \"#utility.yul\":10895:10899   */\n      0x00\n        /* \"#utility.yul\":10985:11003   */\n      0xffffffffffffffff\n        /* \"#utility.yul\":10977:10983   */\n      dup3\n        /* \"#utility.yul\":10974:11004   */\n      gt\n        /* \"#utility.yul\":10971:11027   */\n      iszero\n      tag_298\n      jumpi\n        /* \"#utility.yul\":11007:11025   */\n      tag_299\n      tag_181\n      jump\t// in\n    tag_299:\n        /* \"#utility.yul\":10971:11027   */\n    tag_298:\n        /* \"#utility.yul\":11045:11074   */\n      tag_300\n        /* \"#utility.yul\":11067:11073   */\n      dup3\n        /* \"#utility.yul\":11045:11074   */\n      tag_157\n      jump\t// in\n    tag_300:\n        /* \"#utility.yul\":11037:11074   */\n      swap1\n      pop\n        /* \"#utility.yul\":11129:11133   */\n      0x20\n        /* \"#utility.yul\":11123:11127   */\n      dup2\n        /* \"#utility.yul\":11119:11134   */\n      add\n        /* \"#utility.yul\":11111:11134   */\n      swap1\n      pop\n        /* \"#utility.yul\":10833:11141   */\n      swap2\n      swap1\n      pop\n      jump\t// out\n        /* \"#utility.yul\":11147:11301   */\n    tag_185:\n        /* \"#utility.yul\":11231:11237   */\n      dup3\n        /* \"#utility.yul\":11226:11229   */\n      dup2\n        /* \"#utility.yul\":11221:11224   */\n      dup4\n        /* \"#utility.yul\":11208:11238   */\n      calldatacopy\n        /* \"#utility.yul\":11293:11294   */\n      0x00\n        /* \"#utility.yul\":11284:11290   */\n      dup4\n        /* \"#utility.yul\":11279:11282   */\n      dup4\n        /* \"#utility.yul\":11275:11291   */\n      add\n        /* \"#utility.yul\":11268:11295   */\n      mstore\n        /* \"#utility.yul\":11147:11301   */\n      pop\n      pop\n      pop\n      jump\t// out\n        /* \"#utility.yul\":11307:11719   */\n    tag_186:\n        /* \"#utility.yul\":11385:11390   */\n      0x00\n        /* \"#utility.yul\":11410:11476   */\n      tag_303\n        /* \"#utility.yul\":11426:11475   */\n      tag_304\n        /* \"#utility.yul\":11468:11474   */\n      dup5\n        /* \"#utility.yul\":11426:11475   */\n      tag_184\n      jump\t// in\n    tag_304:\n        /* \"#utility.yul\":11410:11476   */\n      tag_183\n      jump\t// in\n    tag_303:\n        /* \"#utility.yul\":11401:11476   */\n      swap1\n      pop\n        /* \"#utility.yul\":11499:11505   */\n      dup3\n        /* \"#utility.yul\":11492:11497   */\n      dup2\n        /* \"#utility.yul\":11485:11506   */\n      mstore\n        /* \"#utility.yul\":11537:11541   */\n      0x20\n        /* \"#utility.yul\":11530:11535   */\n      dup2\n        /* \"#utility.yul\":11526:11542   */\n      add\n        /* \"#utility.yul\":11575:11578   */\n      dup5\n        /* \"#utility.yul\":11566:11572   */\n      dup5\n        /* \"#utility.yul\":11561:11564   */\n      dup5\n        /* \"#utility.yul\":11557:11573   */\n      add\n        /* \"#utility.yul\":11554:11579   */\n      gt\n        /* \"#utility.yul\":11551:11663   */\n      iszero\n      tag_305\n      jumpi\n        /* \"#utility.yul\":11582:11661   */\n      tag_306\n      tag_180\n      jump\t// in\n    tag_306:\n        /* \"#utility.yul\":11551:11663   */\n    tag_305:\n        /* \"#utility.yul\":11672:11713   */\n      tag_307\n        /* \"#utility.yul\":11706:11712   */\n      dup5\n        /* \"#utility.yul\":11701:11704   */\n      dup3\n        /* \"#utility.yul\":11696:11699   */\n      dup6\n        /* \"#utility.yul\":11672:11713   */\n      tag_185\n      jump\t// in\n    tag_307:\n        /* \"#utility.yul\":11391:11719   */\n      pop\n        /* \"#utility.yul\":11307:11719   */\n      swap4\n      swap3\n      pop\n      pop\n      pop\n      jump\t// out\n        /* \"#utility.yul\":11739:12079   */\n    tag_187:\n        /* \"#utility.yul\":11795:11800   */\n      0x00\n        /* \"#utility.yul\":11844:11847   */\n      dup3\n        /* \"#utility.yul\":11837:11841   */\n      0x1f\n        /* \"#utility.yul\":11829:11835   */\n      dup4\n        /* \"#utility.yul\":11825:11842   */\n      add\n        /* \"#utility.yul\":11821:11848   */\n      slt\n        /* \"#utility.yul\":11811:11933   */\n      tag_309\n      jumpi\n        /* \"#utility.yul\":11852:11931   */\n      tag_310\n      tag_179\n      jump\t// in\n    tag_310:\n        /* \"#utility.yul\":11811:11933   */\n    tag_309:\n        /* \"#utility.yul\":11969:11975   */\n      dup2\n        /* \"#utility.yul\":11956:11976   */\n      calldataload\n        /* \"#utility.yul\":11994:12073   */\n      tag_311\n        /* \"#utility.yul\":12069:12072   */\n      dup5\n        /* \"#utility.yul\":12061:12067   */\n      dup3\n        /* \"#utility.yul\":12054:12058   */\n      0x20\n        /* \"#utility.yul\":12046:12052   */\n      dup7\n        /* \"#utility.yul\":12042:12059   */\n      add\n        /* \"#utility.yul\":11994:12073   */\n      tag_186\n      jump\t// in\n    tag_311:\n        /* \"#utility.yul\":11985:12073   */\n      swap2\n      pop\n        /* \"#utility.yul\":11801:12079   */\n      pop\n        /* \"#utility.yul\":11739:12079   */\n      swap3\n      swap2\n      pop\n      pop\n      jump\t// out\n        /* \"#utility.yul\":12085:13206   */\n    tag_49:\n        /* \"#utility.yul\":12189:12195   */\n      0x00\n        /* \"#utility.yul\":12197:12203   */\n      dup1\n        /* \"#utility.yul\":12205:12211   */\n      0x00\n        /* \"#utility.yul\":12213:12219   */\n      dup1\n        /* \"#utility.yul\":12262:12265   */\n      0x80\n        /* \"#utility.yul\":12250:12259   */\n      dup6\n        /* \"#utility.yul\":12241:12248   */\n      dup8\n        /* \"#utility.yul\":12237:12260   */\n      sub\n        /* \"#utility.yul\":12233:12266   */\n      slt\n        /* \"#utility.yul\":12230:12350   */\n      iszero\n      tag_313\n      jumpi\n        /* \"#utility.yul\":12269:12348   */\n      tag_314\n      tag_167\n      jump\t// in\n    tag_314:\n        /* \"#utility.yul\":12230:12350   */\n    tag_313:\n        /* \"#utility.yul\":12417:12418   */\n      0x00\n        /* \"#utility.yul\":12406:12415   */\n      dup6\n        /* \"#utility.yul\":12402:12419   */\n      add\n        /* \"#utility.yul\":12389:12420   */\n      calldataload\n        /* \"#utility.yul\":12447:12465   */\n      0xffffffffffffffff\n        /* \"#utility.yul\":12439:12445   */\n      dup2\n        /* \"#utility.yul\":12436:12466   */\n      gt\n        /* \"#utility.yul\":12433:12550   */\n      iszero\n      tag_315\n      jumpi\n        /* \"#utility.yul\":12469:12548   */\n      tag_316\n      tag_168\n      jump\t// in\n    tag_316:\n        /* \"#utility.yul\":12433:12550   */\n    tag_315:\n        /* \"#utility.yul\":12574:12637   */\n      tag_317\n        /* \"#utility.yul\":12629:12636   */\n      dup8\n        /* \"#utility.yul\":12620:12626   */\n      dup3\n        /* \"#utility.yul\":12609:12618   */\n      dup9\n        /* \"#utility.yul\":12605:12627   */\n      add\n        /* \"#utility.yul\":12574:12637   */\n      tag_187\n      jump\t// in\n    tag_317:\n        /* \"#utility.yul\":12564:12637   */\n      swap5\n      pop\n        /* \"#utility.yul\":12360:12647   */\n      pop\n        /* \"#utility.yul\":12714:12716   */\n      0x20\n        /* \"#utility.yul\":12703:12712   */\n      dup6\n        /* \"#utility.yul\":12699:12717   */\n      add\n        /* \"#utility.yul\":12686:12718   */\n      calldataload\n        /* \"#utility.yul\":12745:12763   */\n      0xffffffffffffffff\n        /* \"#utility.yul\":12737:12743   */\n      dup2\n        /* \"#utility.yul\":12734:12764   */\n      gt\n        /* \"#utility.yul\":12731:12848   */\n      iszero\n      tag_318\n      jumpi\n        /* \"#utility.yul\":12767:12846   */\n      tag_319\n      tag_168\n      jump\t// in\n    tag_319:\n        /* \"#utility.yul\":12731:12848   */\n    tag_318:\n        /* \"#utility.yul\":12872:12935   */\n      tag_320\n        /* \"#utility.yul\":12927:12934   */\n      dup8\n        /* \"#utility.yul\":12918:12924   */\n      dup3\n        /* \"#utility.yul\":12907:12916   */\n      dup9\n        /* \"#utility.yul\":12903:12925   */\n      add\n        /* \"#utility.yul\":12872:12935   */\n      tag_187\n      jump\t// in\n    tag_320:\n        /* \"#utility.yul\":12862:12935   */\n      swap4\n      pop\n        /* \"#utility.yul\":12657:12945   */\n      pop\n        /* \"#utility.yul\":12984:12986   */\n      0x40\n        /* \"#utility.yul\":13010:13062   */\n      tag_321\n        /* \"#utility.yul\":13054:13061   */\n      dup8\n        /* \"#utility.yul\":13045:13051   */\n      dup3\n        /* \"#utility.yul\":13034:13043   */\n      dup9\n        /* \"#utility.yul\":13030:13052   */\n      add\n        /* \"#utility.yul\":13010:13062   */\n      tag_175\n      jump\t// in\n    tag_321:\n        /* \"#utility.yul\":13000:13062   */\n      swap3\n      pop\n        /* \"#utility.yul\":12955:13072   */\n      pop\n        /* \"#utility.yul\":13111:13113   */\n      0x60\n        /* \"#utility.yul\":13137:13189   */\n      tag_322\n        /* \"#utility.yul\":13181:13188   */\n      dup8\n        /* \"#utility.yul\":13172:13178   */\n      dup3\n        /* \"#utility.yul\":13161:13170   */\n      dup9\n        /* \"#utility.yul\":13157:13179   */\n      add\n        /* \"#utility.yul\":13137:13189   */\n      tag_175\n      jump\t// in\n    tag_322:\n        /* \"#utility.yul\":13127:13189   */\n      swap2\n      pop\n        /* \"#utility.yul\":13082:13199   */\n      pop\n        /* \"#utility.yul\":12085:13206   */\n      swap3\n      swap6\n      swap2\n      swap5\n      pop\n      swap3\n      pop\n      jump\t// out\n        /* \"#utility.yul\":13212:13392   */\n    tag_188:\n        /* \"#utility.yul\":13260:13337   */\n      0x4e487b7100000000000000000000000000000000000000000000000000000000\n        /* \"#utility.yul\":13257:13258   */\n      0x00\n        /* \"#utility.yul\":13250:13338   */\n      mstore\n        /* \"#utility.yul\":13357:13361   */\n      0x22\n        /* \"#utility.yul\":13354:13355   */\n      0x04\n        /* \"#utility.yul\":13347:13362   */\n      mstore\n        /* \"#utility.yul\":13381:13385   */\n      0x24\n        /* \"#utility.yul\":13378:13379   */\n      0x00\n        /* \"#utility.yul\":13371:13386   */\n      revert\n        /* \"#utility.yul\":13398:13718   */\n    tag_56:\n        /* \"#utility.yul\":13442:13448   */\n      0x00\n        /* \"#utility.yul\":13479:13480   */\n      0x02\n        /* \"#utility.yul\":13473:13477   */\n      dup3\n        /* \"#utility.yul\":13469:13481   */\n      div\n        /* \"#utility.yul\":13459:13481   */\n      swap1\n      pop\n        /* \"#utility.yul\":13526:13527   */\n      0x01\n        /* \"#utility.yul\":13520:13524   */\n      dup3\n        /* \"#utility.yul\":13516:13528   */\n      and\n        /* \"#utility.yul\":13547:13565   */\n      dup1\n        /* \"#utility.yul\":13537:13618   */\n      tag_325\n      jumpi\n        /* \"#utility.yul\":13603:13607   */\n      0x7f\n        /* \"#utility.yul\":13595:13601   */\n      dup3\n        /* \"#utility.yul\":13591:13608   */\n      and\n        /* \"#utility.yul\":13581:13608   */\n      swap2\n      pop\n        /* \"#utility.yul\":13537:13618   */\n    tag_325:\n        /* \"#utility.yul\":13665:13667   */\n      0x20\n        /* \"#utility.yul\":13657:13663   */\n      dup3\n        /* \"#utility.yul\":13654:13668   */\n      lt\n        /* \"#utility.yul\":13634:13652   */\n      dup2\n        /* \"#utility.yul\":13631:13669   */\n      eq\n        /* \"#utility.yul\":13628:13712   */\n      iszero\n      tag_326\n      jumpi\n        /* \"#utility.yul\":13684:13702   */\n      tag_327\n      tag_188\n      jump\t// in\n    tag_327:\n        /* \"#utility.yul\":13628:13712   */\n    tag_326:\n        /* \"#utility.yul\":13449:13718   */\n      pop\n        /* \"#utility.yul\":13398:13718   */\n      swap2\n      swap1\n      pop\n      jump\t// out\n        /* \"#utility.yul\":13724:13893   */\n    tag_189:\n        /* \"#utility.yul\":13864:13885   */\n      0x496e646578206f7574206f6620626f756e647300000000000000000000000000\n        /* \"#utility.yul\":13860:13861   */\n      0x00\n        /* \"#utility.yul\":13852:13858   */\n      dup3\n        /* \"#utility.yul\":13848:13862   */\n      add\n        /* \"#utility.yul\":13841:13886   */\n      mstore\n        /* \"#utility.yul\":13724:13893   */\n      pop\n      jump\t// out\n        /* \"#utility.yul\":13899:14265   */\n    tag_190:\n        /* \"#utility.yul\":14041:14044   */\n      0x00\n        /* \"#utility.yul\":14062:14129   */\n      tag_330\n        /* \"#utility.yul\":14126:14128   */\n      0x13\n        /* \"#utility.yul\":14121:14124   */\n      dup4\n        /* \"#utility.yul\":14062:14129   */\n      tag_172\n      jump\t// in\n    tag_330:\n        /* \"#utility.yul\":14055:14129   */\n      swap2\n      pop\n        /* \"#utility.yul\":14138:14231   */\n      tag_331\n        /* \"#utility.yul\":14227:14230   */\n      dup3\n        /* \"#utility.yul\":14138:14231   */\n      tag_189\n      jump\t// in\n    tag_331:\n        /* \"#utility.yul\":14256:14258   */\n      0x20\n        /* \"#utility.yul\":14251:14254   */\n      dup3\n        /* \"#utility.yul\":14247:14259   */\n      add\n        /* \"#utility.yul\":14240:14259   */\n      swap1\n      pop\n        /* \"#utility.yul\":13899:14265   */\n      swap2\n      swap1\n      pop\n      jump\t// out\n        /* \"#utility.yul\":14271:14690   */\n    tag_86:\n        /* \"#utility.yul\":14437:14441   */\n      0x00\n        /* \"#utility.yul\":14475:14477   */\n      0x20\n        /* \"#utility.yul\":14464:14473   */\n      dup3\n        /* \"#utility.yul\":14460:14478   */\n      add\n        /* \"#utility.yul\":14452:14478   */\n      swap1\n      pop\n        /* \"#utility.yul\":14524:14533   */\n      dup2\n        /* \"#utility.yul\":14518:14522   */\n      dup2\n        /* \"#utility.yul\":14514:14534   */\n      sub\n        /* \"#utility.yul\":14510:14511   */\n      0x00\n        /* \"#utility.yul\":14499:14508   */\n      dup4\n        /* \"#utility.yul\":14495:14512   */\n      add\n        /* \"#utility.yul\":14488:14535   */\n      mstore\n        /* \"#utility.yul\":14552:14683   */\n      tag_333\n        /* \"#utility.yul\":14678:14682   */\n      dup2\n        /* \"#utility.yul\":14552:14683   */\n      tag_190\n      jump\t// in\n    tag_333:\n        /* \"#utility.yul\":14544:14683   */\n      swap1\n      pop\n        /* \"#utility.yul\":14271:14690   */\n      swap2\n      swap1\n      pop\n      jump\t// out\n        /* \"#utility.yul\":14696:14876   */\n    tag_89:\n        /* \"#utility.yul\":14744:14821   */\n      0x4e487b7100000000000000000000000000000000000000000000000000000000\n        /* \"#utility.yul\":14741:14742   */\n      0x00\n        /* \"#utility.yul\":14734:14822   */\n      mstore\n        /* \"#utility.yul\":14841:14845   */\n      0x32\n        /* \"#utility.yul\":14838:14839   */\n      0x04\n        /* \"#utility.yul\":14831:14846   */\n      mstore\n        /* \"#utility.yul\":14865:14869   */\n      0x24\n        /* \"#utility.yul\":14862:14863   */\n      0x00\n        /* \"#utility.yul\":14855:14870   */\n      revert\n        /* \"#utility.yul\":14882:15053   */\n    tag_191:\n        /* \"#utility.yul\":15022:15045   */\n      0x496e73756666696369656e74207175616e746974790000000000000000000000\n        /* \"#utility.yul\":15018:15019   */\n      0x00\n        /* \"#utility.yul\":15010:15016   */\n      dup3\n        /* \"#utility.yul\":15006:15020   */\n      add\n        /* \"#utility.yul\":14999:15046   */\n      mstore\n        /* \"#utility.yul\":14882:15053   */\n      pop\n      jump\t// out\n        /* \"#utility.yul\":15059:15425   */\n    tag_192:\n        /* \"#utility.yul\":15201:15204   */\n      0x00\n        /* \"#utility.yul\":15222:15289   */\n      tag_337\n        /* \"#utility.yul\":15286:15288   */\n      0x15\n        /* \"#utility.yul\":15281:15284   */\n      dup4\n        /* \"#utility.yul\":15222:15289   */\n      tag_172\n      jump\t// in\n    tag_337:\n        /* \"#utility.yul\":15215:15289   */\n      swap2\n      pop\n        /* \"#utility.yul\":15298:15391   */\n      tag_338\n        /* \"#utility.yul\":15387:15390   */\n      dup3\n        /* \"#utility.yul\":15298:15391   */\n      tag_191\n      jump\t// in\n    tag_338:\n        /* \"#utility.yul\":15416:15418   */\n      0x20\n        /* \"#utility.yul\":15411:15414   */\n      dup3\n        /* \"#utility.yul\":15407:15419   */\n      add\n        /* \"#utility.yul\":15400:15419   */\n      swap1\n      pop\n        /* \"#utility.yul\":15059:15425   */\n      swap2\n      swap1\n      pop\n      jump\t// out\n        /* \"#utility.yul\":15431:15850   */\n    tag_93:\n        /* \"#utility.yul\":15597:15601   */\n      0x00\n        /* \"#utility.yul\":15635:15637   */\n      0x20\n        /* \"#utility.yul\":15624:15633   */\n      dup3\n        /* \"#utility.yul\":15620:15638   */\n      add\n        /* \"#utility.yul\":15612:15638   */\n      swap1\n      pop\n        /* \"#utility.yul\":15684:15693   */\n      dup2\n        /* \"#utility.yul\":15678:15682   */\n      dup2\n        /* \"#utility.yul\":15674:15694   */\n      sub\n        /* \"#utility.yul\":15670:15671   */\n      0x00\n        /* \"#utility.yul\":15659:15668   */\n      dup4\n        /* \"#utility.yul\":15655:15672   */\n      add\n        /* \"#utility.yul\":15648:15695   */\n      mstore\n        /* \"#utility.yul\":15712:15843   */\n      tag_340\n        /* \"#utility.yul\":15838:15842   */\n      dup2\n        /* \"#utility.yul\":15712:15843   */\n      tag_192\n      jump\t// in\n    tag_340:\n        /* \"#utility.yul\":15704:15843   */\n      swap1\n      pop\n        /* \"#utility.yul\":15431:15850   */\n      swap2\n      swap1\n      pop\n      jump\t// out\n        /* \"#utility.yul\":15856:16036   */\n    tag_193:\n        /* \"#utility.yul\":15904:15981   */\n      0x4e487b7100000000000000000000000000000000000000000000000000000000\n        /* \"#utility.yul\":15901:15902   */\n      0x00\n        /* \"#utility.yul\":15894:15982   */\n      mstore\n        /* \"#utility.yul\":16001:16005   */\n      0x11\n        /* \"#utility.yul\":15998:15999   */\n      0x04\n        /* \"#utility.yul\":15991:16006   */\n      mstore\n        /* \"#utility.yul\":16025:16029   */\n      0x24\n        /* \"#utility.yul\":16022:16023   */\n      0x00\n        /* \"#utility.yul\":16015:16030   */\n      revert\n        /* \"#utility.yul\":16042:17033   */\n    tag_98:\n        /* \"#utility.yul\":16081:16088   */\n      0x00\n        /* \"#utility.yul\":16104:16123   */\n      tag_343\n        /* \"#utility.yul\":16121:16122   */\n      dup3\n        /* \"#utility.yul\":16104:16123   */\n      tag_159\n      jump\t// in\n    tag_343:\n        /* \"#utility.yul\":16099:16123   */\n      swap2\n      pop\n        /* \"#utility.yul\":16137:16156   */\n      tag_344\n        /* \"#utility.yul\":16154:16155   */\n      dup4\n        /* \"#utility.yul\":16137:16156   */\n      tag_159\n      jump\t// in\n    tag_344:\n        /* \"#utility.yul\":16132:16156   */\n      swap3\n      pop\n        /* \"#utility.yul\":16338:16339   */\n      dup3\n        /* \"#utility.yul\":16270:16336   */\n      0x7fffffffffffffffffffffffffffffffffffffffffffffffffffffffffffffff\n        /* \"#utility.yul\":16266:16340   */\n      div\n        /* \"#utility.yul\":16263:16264   */\n      dup3\n        /* \"#utility.yul\":16260:16341   */\n      gt\n        /* \"#utility.yul\":16255:16256   */\n      0x00\n        /* \"#utility.yul\":16252:16253   */\n      dup5\n        /* \"#utility.yul\":16248:16257   */\n      sgt\n        /* \"#utility.yul\":16244:16245   */\n      0x00\n        /* \"#utility.yul\":16241:16242   */\n      dup5\n        /* \"#utility.yul\":16237:16246   */\n      sgt\n        /* \"#utility.yul\":16233:16258   */\n      and\n        /* \"#utility.yul\":16229:16342   */\n      and\n        /* \"#utility.yul\":16226:16365   */\n      iszero\n      tag_345\n      jumpi\n        /* \"#utility.yul\":16345:16363   */\n      tag_346\n      tag_193\n      jump\t// in\n    tag_346:\n        /* \"#utility.yul\":16226:16365   */\n    tag_345:\n        /* \"#utility.yul\":16549:16550   */\n      dup2\n        /* \"#utility.yul\":16481:16547   */\n      0x8000000000000000000000000000000000000000000000000000000000000000\n        /* \"#utility.yul\":16476:16551   */\n      sdiv\n        /* \"#utility.yul\":16473:16474   */\n      dup4\n        /* \"#utility.yul\":16469:16552   */\n      slt\n        /* \"#utility.yul\":16464:16465   */\n      0x00\n        /* \"#utility.yul\":16461:16462   */\n      dup5\n        /* \"#utility.yul\":16457:16466   */\n      slt\n        /* \"#utility.yul\":16453:16454   */\n      0x00\n        /* \"#utility.yul\":16450:16451   */\n      dup5\n        /* \"#utility.yul\":16446:16455   */\n      sgt\n        /* \"#utility.yul\":16442:16467   */\n      and\n        /* \"#utility.yul\":16438:16553   */\n      and\n        /* \"#utility.yul\":16435:16576   */\n      iszero\n      tag_347\n      jumpi\n        /* \"#utility.yul\":16556:16574   */\n      tag_348\n      tag_193\n      jump\t// in\n    tag_348:\n        /* \"#utility.yul\":16435:16576   */\n    tag_347:\n        /* \"#utility.yul\":16760:16761   */\n      dup3\n        /* \"#utility.yul\":16692:16758   */\n      0x8000000000000000000000000000000000000000000000000000000000000000\n        /* \"#utility.yul\":16687:16762   */\n      sdiv\n        /* \"#utility.yul\":16684:16685   */\n      dup3\n        /* \"#utility.yul\":16680:16763   */\n      slt\n        /* \"#utility.yul\":16675:16676   */\n      0x00\n        /* \"#utility.yul\":16672:16673   */\n      dup5\n        /* \"#utility.yul\":16668:16677   */\n      sgt\n        /* \"#utility.yul\":16664:16665   */\n      0x00\n        /* \"#utility.yul\":16661:16662   */\n      dup5\n        /* \"#utility.yul\":16657:16666   */\n      slt\n        /* \"#utility.yul\":16653:16678   */\n      and\n        /* \"#utility.yul\":16649:16764   */\n      and\n        /* \"#utility.yul\":16646:16787   */\n      iszero\n      tag_349\n      jumpi\n        /* \"#utility.yul\":16767:16785   */\n      tag_350\n      tag_193\n      jump\t// in\n    tag_350:\n        /* \"#utility.yul\":16646:16787   */\n    tag_349:\n        /* \"#utility.yul\":16970:16971   */\n      dup3\n        /* \"#utility.yul\":16902:16968   */\n      0x7fffffffffffffffffffffffffffffffffffffffffffffffffffffffffffffff\n        /* \"#utility.yul\":16897:16972   */\n      sdiv\n        /* \"#utility.yul\":16894:16895   */\n      dup3\n        /* \"#utility.yul\":16890:16973   */\n      slt\n        /* \"#utility.yul\":16885:16886   */\n      0x00\n        /* \"#utility.yul\":16882:16883   */\n      dup5\n        /* \"#utility.yul\":16878:16887   */\n      slt\n        /* \"#utility.yul\":16874:16875   */\n      0x00\n        /* \"#utility.yul\":16871:16872   */\n      dup5\n        /* \"#utility.yul\":16867:16876   */\n      slt\n        /* \"#utility.yul\":16863:16888   */\n      and\n        /* \"#utility.yul\":16859:16974   */\n      and\n        /* \"#utility.yul\":16856:16997   */\n      iszero\n      tag_351\n      jumpi\n        /* \"#utility.yul\":16977:16995   */\n      tag_352\n      tag_193\n      jump\t// in\n    tag_352:\n        /* \"#utility.yul\":16856:16997   */\n    tag_351:\n        /* \"#utility.yul\":17025:17026   */\n      dup3\n        /* \"#utility.yul\":17022:17023   */\n      dup3\n        /* \"#utility.yul\":17018:17027   */\n      mul\n        /* \"#utility.yul\":17007:17027   */\n      swap1\n      pop\n        /* \"#utility.yul\":16042:17033   */\n      swap3\n      swap2\n      pop\n      pop\n      jump\t// out\n        /* \"#utility.yul\":17039:17566   */\n    tag_103:\n        /* \"#utility.yul\":17078:17082   */\n      0x00\n        /* \"#utility.yul\":17098:17117   */\n      tag_354\n        /* \"#utility.yul\":17115:17116   */\n      dup3\n        /* \"#utility.yul\":17098:17117   */\n      tag_159\n      jump\t// in\n    tag_354:\n        /* \"#utility.yul\":17093:17117   */\n      swap2\n      pop\n        /* \"#utility.yul\":17131:17150   */\n      tag_355\n        /* \"#utility.yul\":17148:17149   */\n      dup4\n        /* \"#utility.yul\":17131:17150   */\n      tag_159\n      jump\t// in\n    tag_355:\n        /* \"#utility.yul\":17126:17150   */\n      swap3\n      pop\n        /* \"#utility.yul\":17320:17321   */\n      dup3\n        /* \"#utility.yul\":17252:17318   */\n      0x8000000000000000000000000000000000000000000000000000000000000000\n        /* \"#utility.yul\":17248:17322   */\n      add\n        /* \"#utility.yul\":17245:17246   */\n      dup3\n        /* \"#utility.yul\":17241:17323   */\n      slt\n        /* \"#utility.yul\":17236:17237   */\n      0x00\n        /* \"#utility.yul\":17233:17234   */\n      dup5\n        /* \"#utility.yul\":17229:17238   */\n      slt\n        /* \"#utility.yul\":17222:17239   */\n      iszero\n        /* \"#utility.yul\":17218:17324   */\n      and\n        /* \"#utility.yul\":17215:17347   */\n      iszero\n      tag_356\n      jumpi\n        /* \"#utility.yul\":17327:17345   */\n      tag_357\n      tag_193\n      jump\t// in\n    tag_357:\n        /* \"#utility.yul\":17215:17347   */\n    tag_356:\n        /* \"#utility.yul\":17506:17507   */\n      dup3\n        /* \"#utility.yul\":17438:17504   */\n      0x7fffffffffffffffffffffffffffffffffffffffffffffffffffffffffffffff\n        /* \"#utility.yul\":17434:17508   */\n      add\n        /* \"#utility.yul\":17431:17432   */\n      dup3\n        /* \"#utility.yul\":17427:17509   */\n      sgt\n        /* \"#utility.yul\":17423:17424   */\n      0x00\n        /* \"#utility.yul\":17420:17421   */\n      dup5\n        /* \"#utility.yul\":17416:17425   */\n      slt\n        /* \"#utility.yul\":17412:17510   */\n      and\n        /* \"#utility.yul\":17409:17533   */\n      iszero\n      tag_358\n      jumpi\n        /* \"#utility.yul\":17513:17531   */\n      tag_359\n      tag_193\n      jump\t// in\n    tag_359:\n        /* \"#utility.yul\":17409:17533   */\n    tag_358:\n        /* \"#utility.yul\":17558:17559   */\n      dup3\n        /* \"#utility.yul\":17555:17556   */\n      dup3\n        /* \"#utility.yul\":17551:17560   */\n      sub\n        /* \"#utility.yul\":17543:17560   */\n      swap1\n      pop\n        /* \"#utility.yul\":17039:17566   */\n      swap3\n      swap2\n      pop\n      pop\n      jump\t// out\n        /* \"#utility.yul\":17572:18097   */\n    tag_105:\n        /* \"#utility.yul\":17611:17614   */\n      0x00\n        /* \"#utility.yul\":17630:17649   */\n      tag_361\n        /* \"#utility.yul\":17647:17648   */\n      dup3\n        /* \"#utility.yul\":17630:17649   */\n      tag_159\n      jump\t// in\n    tag_361:\n        /* \"#utility.yul\":17625:17649   */\n      swap2\n      pop\n        /* \"#utility.yul\":17663:17682   */\n      tag_362\n        /* \"#utility.yul\":17680:17681   */\n      dup4\n        /* \"#utility.yul\":17663:17682   */\n      tag_159\n      jump\t// in\n    tag_362:\n        /* \"#utility.yul\":17658:17682   */\n      swap3\n      pop\n        /* \"#utility.yul\":17851:17852   */\n      dup2\n        /* \"#utility.yul\":17783:17849   */\n      0x7fffffffffffffffffffffffffffffffffffffffffffffffffffffffffffffff\n        /* \"#utility.yul\":17779:17853   */\n      sub\n        /* \"#utility.yul\":17776:17777   */\n      dup4\n        /* \"#utility.yul\":17772:17854   */\n      sgt\n        /* \"#utility.yul\":17767:17768   */\n      0x00\n        /* \"#utility.yul\":17764:17765   */\n      dup4\n        /* \"#utility.yul\":17760:17769   */\n      slt\n        /* \"#utility.yul\":17753:17770   */\n      iszero\n        /* \"#utility.yul\":17749:17855   */\n      and\n        /* \"#utility.yul\":17746:17878   */\n      iszero\n      tag_363\n      jumpi\n        /* \"#utility.yul\":17858:17876   */\n      tag_364\n      tag_193\n      jump\t// in\n    tag_364:\n        /* \"#utility.yul\":17746:17878   */\n    tag_363:\n        /* \"#utility.yul\":18038:18039   */\n      dup2\n        /* \"#utility.yul\":17970:18036   */\n      0x8000000000000000000000000000000000000000000000000000000000000000\n        /* \"#utility.yul\":17966:18040   */\n      sub\n        /* \"#utility.yul\":17963:17964   */\n      dup4\n        /* \"#utility.yul\":17959:18041   */\n      slt\n        /* \"#utility.yul\":17955:17956   */\n      0x00\n        /* \"#utility.yul\":17952:17953   */\n      dup4\n        /* \"#utility.yul\":17948:17957   */\n      slt\n        /* \"#utility.yul\":17944:18042   */\n      and\n        /* \"#utility.yul\":17941:18065   */\n      iszero\n      tag_365\n      jumpi\n        /* \"#utility.yul\":18045:18063   */\n      tag_366\n      tag_193\n      jump\t// in\n    tag_366:\n        /* \"#utility.yul\":17941:18065   */\n    tag_365:\n        /* \"#utility.yul\":18089:18090   */\n      dup3\n        /* \"#utility.yul\":18086:18087   */\n      dup3\n        /* \"#utility.yul\":18082:18091   */\n      add\n        /* \"#utility.yul\":18075:18091   */\n      swap1\n      pop\n        /* \"#utility.yul\":17572:18097   */\n      swap3\n      swap2\n      pop\n      pop\n      jump\t// out\n        /* \"#utility.yul\":18103:18329   */\n    tag_194:\n        /* \"#utility.yul\":18243:18277   */\n      0x4f6e6c792070726f636573736f722063616e2061636365737320746869732066\n        /* \"#utility.yul\":18239:18240   */\n      0x00\n        /* \"#utility.yul\":18231:18237   */\n      dup3\n        /* \"#utility.yul\":18227:18241   */\n      add\n        /* \"#utility.yul\":18220:18278   */\n      mstore\n        /* \"#utility.yul\":18312:18321   */\n      0x756e6374696f6e00000000000000000000000000000000000000000000000000\n        /* \"#utility.yul\":18307:18309   */\n      0x20\n        /* \"#utility.yul\":18299:18305   */\n      dup3\n        /* \"#utility.yul\":18295:18310   */\n      add\n        /* \"#utility.yul\":18288:18322   */\n      mstore\n        /* \"#utility.yul\":18103:18329   */\n      pop\n      jump\t// out\n        /* \"#utility.yul\":18335:18701   */\n    tag_195:\n        /* \"#utility.yul\":18477:18480   */\n      0x00\n        /* \"#utility.yul\":18498:18565   */\n      tag_369\n        /* \"#utility.yul\":18562:18564   */\n      0x27\n        /* \"#utility.yul\":18557:18560   */\n      dup4\n        /* \"#utility.yul\":18498:18565   */\n      tag_172\n      jump\t// in\n    tag_369:\n        /* \"#utility.yul\":18491:18565   */\n      swap2\n      pop\n        /* \"#utility.yul\":18574:18667   */\n      tag_370\n        /* \"#utility.yul\":18663:18666   */\n      dup3\n        /* \"#utility.yul\":18574:18667   */\n      tag_194\n      jump\t// in\n    tag_370:\n        /* \"#utility.yul\":18692:18694   */\n      0x40\n        /* \"#utility.yul\":18687:18690   */\n      dup3\n        /* \"#utility.yul\":18683:18695   */\n      add\n        /* \"#utility.yul\":18676:18695   */\n      swap1\n      pop\n        /* \"#utility.yul\":18335:18701   */\n      swap2\n      swap1\n      pop\n      jump\t// out\n        /* \"#utility.yul\":18707:19126   */\n    tag_125:\n        /* \"#utility.yul\":18873:18877   */\n      0x00\n        /* \"#utility.yul\":18911:18913   */\n      0x20\n        /* \"#utility.yul\":18900:18909   */\n      dup3\n        /* \"#utility.yul\":18896:18914   */\n      add\n        /* \"#utility.yul\":18888:18914   */\n      swap1\n      pop\n        /* \"#utility.yul\":18960:18969   */\n      dup2\n        /* \"#utility.yul\":18954:18958   */\n      dup2\n        /* \"#utility.yul\":18950:18970   */\n      sub\n        /* \"#utility.yul\":18946:18947   */\n      0x00\n        /* \"#utility.yul\":18935:18944   */\n      dup4\n        /* \"#utility.yul\":18931:18948   */\n      add\n        /* \"#utility.yul\":18924:18971   */\n      mstore\n        /* \"#utility.yul\":18988:19119   */\n      tag_372\n        /* \"#utility.yul\":19114:19118   */\n      dup2\n        /* \"#utility.yul\":18988:19119   */\n      tag_195\n      jump\t// in\n    tag_372:\n        /* \"#utility.yul\":18980:19119   */\n      swap1\n      pop\n        /* \"#utility.yul\":18707:19126   */\n      swap2\n      swap1\n      pop\n      jump\t// out\n\n    auxdata: 0xa26469706673582212208285b8d13a431d3474ca7dcb332866be2fb01ceba406af440ac1328e266f33c864736f6c63430008090033\n}\n",
        "bytecode": {
            "linkReferences": {},
            "object": "60806040523480156200001157600080fd5b5060405162001a0238038062001a028339818101604052810190620000379190620002e4565b336000806101000a81548173ffffffffffffffffffffffffffffffffffffffff021916908373ffffffffffffffffffffffffffffffffffffffff16021790555080600190805190602001906200008f92919062000097565b50506200039a565b828054620000a59062000364565b90600052602060002090601f016020900481019282620000c9576000855562000115565b82601f10620000e457805160ff191683800117855562000115565b8280016001018555821562000115579182015b8281111562000114578251825591602001919060010190620000f7565b5b50905062000124919062000128565b5090565b5b808211156200014357600081600090555060010162000129565b5090565b6000604051905090565b600080fd5b600080fd5b600080fd5b600080fd5b6000601f19601f8301169050919050565b7f4e487b7100000000000000000000000000000000000000000000000000000000600052604160045260246000fd5b620001b08262000165565b810181811067ffffffffffffffff82111715620001d257620001d162000176565b5b80604052505050565b6000620001e762000147565b9050620001f58282620001a5565b919050565b600067ffffffffffffffff82111562000218576200021762000176565b5b620002238262000165565b9050602081019050919050565b60005b838110156200025057808201518184015260208101905062000233565b8381111562000260576000848401525b50505050565b60006200027d6200027784620001fa565b620001db565b9050828152602081018484840111156200029c576200029b62000160565b5b620002a984828562000230565b509392505050565b600082601f830112620002c957620002c86200015b565b5b8151620002db84826020860162000266565b91505092915050565b600060208284031215620002fd57620002fc62000151565b5b600082015167ffffffffffffffff8111156200031e576200031d62000156565b5b6200032c84828501620002b1565b91505092915050565b7f4e487b7100000000000000000000000000000000000000000000000000000000600052602260045260246000fd5b600060028204905060018216806200037d57607f821691505b6020821081141562000394576200039362000335565b5b50919050565b61165880620003aa6000396000f3fe608060405234801561001057600080fd5b50600436106100935760003560e01c8063a7cdbb3211610066578063a7cdbb3214610125578063b27daded14610141578063b9db15b41461015f578063c11e4e0b14610192578063d24de1f5146101ae57610093565b806302ee3a52146100985780636605ff66146100b65780637acc0b20146100d45780637e88ce3a14610107575b600080fd5b6100a06101ca565b6040516100ad9190610d49565b60405180910390f35b6100be610361565b6040516100cb9190610d7a565b60405180910390f35b6100ee60048036038101906100e99190610ddf565b610367565b6040516100fe9493929190610e56565b60405180910390f35b61010f6104b7565b60405161011c9190610ea9565b60405180910390f35b61013f600480360381019061013a9190610ef7565b610545565b005b610149610683565b6040516101569190610f78565b60405180910390f35b61017960048036038101906101749190610ddf565b6106a7565b6040516101899493929190610f93565b60405180910390f35b6101ac60048036038101906101a79190610ef7565b610883565b005b6101c860048036038101906101c3919061111b565b610998565b005b60606002805480602002602001604051908101604052809291908181526020016000905b828210156103585783829060005260206000209060040201604051806080016040529081600082018054610221906111e9565b80601f016020809104026020016040519081016040528092919081815260200182805461024d906111e9565b801561029a5780601f1061026f5761010080835404028352916020019161029a565b820191906000526020600020905b81548152906001019060200180831161027d57829003601f168201915b505050505081526020016001820180546102b3906111e9565b80601f01602080910402602001604051908101604052809291908181526020018280546102df906111e9565b801561032c5780601f106103015761010080835404028352916020019161032c565b820191906000526020600020905b81548152906001019060200180831161030f57829003601f168201915b5050505050815260200160028201548152602001600382015481525050815260200190600101906101ee565b50505050905090565b60035481565b6002818154811061037757600080fd5b906000526020600020906004020160009150905080600001805461039a906111e9565b80601f01602080910402602001604051908101604052809291908181526020018280546103c6906111e9565b80156104135780601f106103e857610100808354040283529160200191610413565b820191906000526020600020905b8154815290600101906020018083116103f657829003601f168201915b505050505090806001018054610428906111e9565b80601f0160208091040260200160405190810160405280929190818152602001828054610454906111e9565b80156104a15780601f10610476576101008083540402835291602001916104a1565b820191906000526020600020905b81548152906001019060200180831161048457829003601f168201915b5050505050908060020154908060030154905084565b600180546104c4906111e9565b80601f01602080910402602001604051908101604052809291908181526020018280546104f0906111e9565b801561053d5780601f106105125761010080835404028352916020019161053d565b820191906000526020600020905b81548152906001019060200180831161052057829003601f168201915b505050505081565b600280549050821061058c576040517f08c379a000000000000000000000000000000000000000000000000000000000815260040161058390611267565b60405180910390fd5b600282815481106105a05761059f611287565b5b9060005260206000209060040201600301548113156105f4576040517f08c379a00000000000000000000000000000000000000000000000000000000081526004016105eb90611302565b60405180910390fd5b6000816002848154811061060b5761060a611287565b5b9060005260206000209060040201600201546106279190611351565b9050816002848154811061063e5761063d611287565b5b9060005260206000209060040201600301600082825461065e9190611468565b92505081905550806003600082825461067791906114fc565b92505081905550505050565b60008054906101000a900473ffffffffffffffffffffffffffffffffffffffff1681565b606060006060600060028054905085106106f6576040517f08c379a00000000000000000000000000000000000000000000000000000000081526004016106ed90611267565b60405180910390fd5b60006002868154811061070c5761070b611287565b5b9060005260206000209060040201604051806080016040529081600082018054610735906111e9565b80601f0160208091040260200160405190810160405280929190818152602001828054610761906111e9565b80156107ae5780601f10610783576101008083540402835291602001916107ae565b820191906000526020600020905b81548152906001019060200180831161079157829003601f168201915b505050505081526020016001820180546107c7906111e9565b80601f01602080910402602001604051908101604052809291908181526020018280546107f3906111e9565b80156108405780601f1061081557610100808354040283529160200191610840565b820191906000526020600020905b81548152906001019060200180831161082357829003601f168201915b5050505050815260200160028201548152602001600382015481525050905080600001518160400151826020015183606001519450945094509450509193509193565b60008054906101000a900473ffffffffffffffffffffffffffffffffffffffff1673ffffffffffffffffffffffffffffffffffffffff163373ffffffffffffffffffffffffffffffffffffffff1614610911576040517f08c379a000000000000000000000000000000000000000000000000000000000815260040161090890611602565b60405180910390fd5b6002805490508210610958576040517f08c379a000000000000000000000000000000000000000000000000000000000815260040161094f90611267565b60405180910390fd5b806002838154811061096d5761096c611287565b5b9060005260206000209060040201600301600082825461098d91906114fc565b925050819055505050565b60008054906101000a900473ffffffffffffffffffffffffffffffffffffffff1673ffffffffffffffffffffffffffffffffffffffff163373ffffffffffffffffffffffffffffffffffffffff1614610a26576040517f08c379a0000000000000000000000000000000000000000000000000000000008152600401610a1d90611602565b60405180910390fd5b600260405180608001604052808681526020018581526020018481526020018381525090806001815401808255809150506001900390600052602060002090600402016000909190919091506000820151816000019080519060200190610a8e929190610ac8565b506020820151816001019080519060200190610aab929190610ac8565b506040820151816002015560608201518160030155505050505050565b828054610ad4906111e9565b90600052602060002090601f016020900481019282610af65760008555610b3d565b82601f10610b0f57805160ff1916838001178555610b3d565b82800160010185558215610b3d579182015b82811115610b3c578251825591602001919060010190610b21565b5b509050610b4a9190610b4e565b5090565b5b80821115610b67576000816000905550600101610b4f565b5090565b600081519050919050565b600082825260208201905092915050565b6000819050602082019050919050565b600081519050919050565b600082825260208201905092915050565b60005b83811015610bd1578082015181840152602081019050610bb6565b83811115610be0576000848401525b50505050565b6000601f19601f8301169050919050565b6000610c0282610b97565b610c0c8185610ba2565b9350610c1c818560208601610bb3565b610c2581610be6565b840191505092915050565b6000819050919050565b610c4381610c30565b82525050565b60006080830160008301518482036000860152610c668282610bf7565b91505060208301518482036020860152610c808282610bf7565b9150506040830151610c956040860182610c3a565b506060830151610ca86060860182610c3a565b508091505092915050565b6000610cbf8383610c49565b905092915050565b6000602082019050919050565b6000610cdf82610b6b565b610ce98185610b76565b935083602082028501610cfb85610b87565b8060005b85811015610d375784840389528151610d188582610cb3565b9450610d2383610cc7565b925060208a01995050600181019050610cff565b50829750879550505050505092915050565b60006020820190508181036000830152610d638184610cd4565b905092915050565b610d7481610c30565b82525050565b6000602082019050610d8f6000830184610d6b565b92915050565b6000604051905090565b600080fd5b600080fd5b6000819050919050565b610dbc81610da9565b8114610dc757600080fd5b50565b600081359050610dd981610db3565b92915050565b600060208284031215610df557610df4610d9f565b5b6000610e0384828501610dca565b91505092915050565b600082825260208201905092915050565b6000610e2882610b97565b610e328185610e0c565b9350610e42818560208601610bb3565b610e4b81610be6565b840191505092915050565b60006080820190508181036000830152610e708187610e1d565b90508181036020830152610e848186610e1d565b9050610e936040830185610d6b565b610ea06060830184610d6b565b95945050505050565b60006020820190508181036000830152610ec38184610e1d565b905092915050565b610ed481610c30565b8114610edf57600080fd5b50565b600081359050610ef181610ecb565b92915050565b60008060408385031215610f0e57610f0d610d9f565b5b6000610f1c85828601610dca565b9250506020610f2d85828601610ee2565b9150509250929050565b600073ffffffffffffffffffffffffffffffffffffffff82169050919050565b6000610f6282610f37565b9050919050565b610f7281610f57565b82525050565b6000602082019050610f8d6000830184610f69565b92915050565b60006080820190508181036000830152610fad8187610e1d565b9050610fbc6020830186610d6b565b8181036040830152610fce8185610e1d565b9050610fdd6060830184610d6b565b95945050505050565b600080fd5b600080fd5b7f4e487b7100000000000000000000000000000000000000000000000000000000600052604160045260246000fd5b61102882610be6565b810181811067ffffffffffffffff8211171561104757611046610ff0565b5b80604052505050565b600061105a610d95565b9050611066828261101f565b919050565b600067ffffffffffffffff82111561108657611085610ff0565b5b61108f82610be6565b9050602081019050919050565b82818337600083830152505050565b60006110be6110b98461106b565b611050565b9050828152602081018484840111156110da576110d9610feb565b5b6110e584828561109c565b509392505050565b600082601f83011261110257611101610fe6565b5b81356111128482602086016110ab565b91505092915050565b6000806000806080858703121561113557611134610d9f565b5b600085013567ffffffffffffffff81111561115357611152610da4565b5b61115f878288016110ed565b945050602085013567ffffffffffffffff8111156111805761117f610da4565b5b61118c878288016110ed565b935050604061119d87828801610ee2565b92505060606111ae87828801610ee2565b91505092959194509250565b7f4e487b7100000000000000000000000000000000000000000000000000000000600052602260045260246000fd5b6000600282049050600182168061120157607f821691505b60208210811415611215576112146111ba565b5b50919050565b7f496e646578206f7574206f6620626f756e647300000000000000000000000000600082015250565b6000611251601383610e0c565b915061125c8261121b565b602082019050919050565b6000602082019050818103600083015261128081611244565b9050919050565b7f4e487b7100000000000000000000000000000000000000000000000000000000600052603260045260246000fd5b7f496e73756666696369656e74207175616e746974790000000000000000000000600082015250565b60006112ec601583610e0c565b91506112f7826112b6565b602082019050919050565b6000602082019050818103600083015261131b816112df565b9050919050565b7f4e487b7100000000000000000000000000000000000000000000000000000000600052601160045260246000fd5b600061135c82610c30565b915061136783610c30565b9250827f7fffffffffffffffffffffffffffffffffffffffffffffffffffffffffffffff04821160008413600084131616156113a6576113a5611322565b5b817f800000000000000000000000000000000000000000000000000000000000000005831260008412600084131616156113e3576113e2611322565b5b827f800000000000000000000000000000000000000000000000000000000000000005821260008413600084121616156114205761141f611322565b5b827f7fffffffffffffffffffffffffffffffffffffffffffffffffffffffffffffff058212600084126000841216161561145d5761145c611322565b5b828202905092915050565b600061147382610c30565b915061147e83610c30565b9250827f8000000000000000000000000000000000000000000000000000000000000000018212600084121516156114b9576114b8611322565b5b827f7fffffffffffffffffffffffffffffffffffffffffffffffffffffffffffffff0182136000841216156114f1576114f0611322565b5b828203905092915050565b600061150782610c30565b915061151283610c30565b9250817f7fffffffffffffffffffffffffffffffffffffffffffffffffffffffffffffff0383136000831215161561154d5761154c611322565b5b817f800000000000000000000000000000000000000000000000000000000000000003831260008312161561158557611584611322565b5b828201905092915050565b7f4f6e6c792070726f636573736f722063616e206163636573732074686973206660008201527f756e6374696f6e00000000000000000000000000000000000000000000000000602082015250565b60006115ec602783610e0c565b91506115f782611590565b604082019050919050565b6000602082019050818103600083015261161b816115df565b905091905056fea26469706673582212208285b8d13a431d3474ca7dcb332866be2fb01ceba406af440ac1328e266f33c864736f6c63430008090033",
            "opcodes": "PUSH1 0x80 PUSH1 0x40 MSTORE CALLVALUE DUP1 ISZERO PUSH3 0x11 JUMPI PUSH1 0x0 DUP1 REVERT JUMPDEST POP PUSH1 0x40 MLOAD PUSH3 0x1A02 CODESIZE SUB DUP1 PUSH3 0x1A02 DUP4 CODECOPY DUP2 DUP2 ADD PUSH1 0x40 MSTORE DUP2 ADD SWAP1 PUSH3 0x37 SWAP2 SWAP1 PUSH3 0x2E4 JUMP JUMPDEST CALLER PUSH1 0x0 DUP1 PUSH2 0x100 EXP DUP2 SLOAD DUP2 PUSH20 0xFFFFFFFFFFFFFFFFFFFFFFFFFFFFFFFFFFFFFFFF MUL NOT AND SWAP1 DUP4 PUSH20 0xFFFFFFFFFFFFFFFFFFFFFFFFFFFFFFFFFFFFFFFF AND MUL OR SWAP1 SSTORE POP DUP1 PUSH1 0x1 SWAP1 DUP1 MLOAD SWAP1 PUSH1 0x20 ADD SWAP1 PUSH3 0x8F SWAP3 SWAP2 SWAP1 PUSH3 0x97 JUMP JUMPDEST POP POP PUSH3 0x39A JUMP JUMPDEST DUP3 DUP1 SLOAD PUSH3 0xA5 SWAP1 PUSH3 0x364 JUMP JUMPDEST SWAP1 PUSH1 0x0 MSTORE PUSH1 0x20 PUSH1 0x0 KECCAK256 SWAP1 PUSH1 0x1F ADD PUSH1 0x20 SWAP1 DIV DUP2 ADD SWAP3 DUP3 PUSH3 0xC9 JUMPI PUSH1 0x0 DUP6 SSTORE PUSH3 0x115 JUMP JUMPDEST DUP3 PUSH1 0x1F LT PUSH3 0xE4 JUMPI DUP1 MLOAD PUSH1 0xFF NOT AND DUP4 DUP1 ADD OR DUP6 SSTORE PUSH3 0x115 JUMP JUMPDEST DUP3 DUP1 ADD PUSH1 0x1 ADD DUP6 SSTORE DUP3 ISZERO PUSH3 0x115 JUMPI SWAP2 DUP3 ADD JUMPDEST DUP3 DUP2 GT ISZERO PUSH3 0x114 JUMPI DUP3 MLOAD DUP3 SSTORE SWAP2 PUSH1 0x20 ADD SWAP2 SWAP1 PUSH1 0x1 ADD SWAP1 PUSH3 0xF7 JUMP JUMPDEST JUMPDEST POP SWAP1 POP PUSH3 0x124 SWAP2 SWAP1 PUSH3 0x128 JUMP JUMPDEST POP SWAP1 JUMP JUMPDEST JUMPDEST DUP1 DUP3 GT ISZERO PUSH3 0x143 JUMPI PUSH1 0x0 DUP2 PUSH1 0x0 SWAP1 SSTORE POP PUSH1 0x1 ADD PUSH3 0x129 JUMP JUMPDEST POP SWAP1 JUMP JUMPDEST PUSH1 0x0 PUSH1 0x40 MLOAD SWAP1 POP SWAP1 JUMP JUMPDEST PUSH1 0x0 DUP1 REVERT JUMPDEST PUSH1 0x0 DUP1 REVERT JUMPDEST PUSH1 0x0 DUP1 REVERT JUMPDEST PUSH1 0x0 DUP1 REVERT JUMPDEST PUSH1 0x0 PUSH1 0x1F NOT PUSH1 0x1F DUP4 ADD AND SWAP1 POP SWAP2 SWAP1 POP JUMP JUMPDEST PUSH32 0x4E487B7100000000000000000000000000000000000000000000000000000000 PUSH1 0x0 MSTORE PUSH1 0x41 PUSH1 0x4 MSTORE PUSH1 0x24 PUSH1 0x0 REVERT JUMPDEST PUSH3 0x1B0 DUP3 PUSH3 0x165 JUMP JUMPDEST DUP2 ADD DUP2 DUP2 LT PUSH8 0xFFFFFFFFFFFFFFFF DUP3 GT OR ISZERO PUSH3 0x1D2 JUMPI PUSH3 0x1D1 PUSH3 0x176 JUMP JUMPDEST JUMPDEST DUP1 PUSH1 0x40 MSTORE POP POP POP JUMP JUMPDEST PUSH1 0x0 PUSH3 0x1E7 PUSH3 0x147 JUMP JUMPDEST SWAP1 POP PUSH3 0x1F5 DUP3 DUP3 PUSH3 0x1A5 JUMP JUMPDEST SWAP2 SWAP1 POP JUMP JUMPDEST PUSH1 0x0 PUSH8 0xFFFFFFFFFFFFFFFF DUP3 GT ISZERO PUSH3 0x218 JUMPI PUSH3 0x217 PUSH3 0x176 JUMP JUMPDEST JUMPDEST PUSH3 0x223 DUP3 PUSH3 0x165 JUMP JUMPDEST SWAP1 POP PUSH1 0x20 DUP2 ADD SWAP1 POP SWAP2 SWAP1 POP JUMP JUMPDEST PUSH1 0x0 JUMPDEST DUP4 DUP2 LT ISZERO PUSH3 0x250 JUMPI DUP1 DUP3 ADD MLOAD DUP2 DUP5 ADD MSTORE PUSH1 0x20 DUP2 ADD SWAP1 POP PUSH3 0x233 JUMP JUMPDEST DUP4 DUP2 GT ISZERO PUSH3 0x260 JUMPI PUSH1 0x0 DUP5 DUP5 ADD MSTORE JUMPDEST POP POP POP POP JUMP JUMPDEST PUSH1 0x0 PUSH3 0x27D PUSH3 0x277 DUP5 PUSH3 0x1FA JUMP JUMPDEST PUSH3 0x1DB JUMP JUMPDEST SWAP1 POP DUP3 DUP2 MSTORE PUSH1 0x20 DUP2 ADD DUP5 DUP5 DUP5 ADD GT ISZERO PUSH3 0x29C JUMPI PUSH3 0x29B PUSH3 0x160 JUMP JUMPDEST JUMPDEST PUSH3 0x2A9 DUP5 DUP3 DUP6 PUSH3 0x230 JUMP JUMPDEST POP SWAP4 SWAP3 POP POP POP JUMP JUMPDEST PUSH1 0x0 DUP3 PUSH1 0x1F DUP4 ADD SLT PUSH3 0x2C9 JUMPI PUSH3 0x2C8 PUSH3 0x15B JUMP JUMPDEST JUMPDEST DUP2 MLOAD PUSH3 0x2DB DUP5 DUP3 PUSH1 0x20 DUP7 ADD PUSH3 0x266 JUMP JUMPDEST SWAP2 POP POP SWAP3 SWAP2 POP POP JUMP JUMPDEST PUSH1 0x0 PUSH1 0x20 DUP3 DUP5 SUB SLT ISZERO PUSH3 0x2FD JUMPI PUSH3 0x2FC PUSH3 0x151 JUMP JUMPDEST JUMPDEST PUSH1 0x0 DUP3 ADD MLOAD PUSH8 0xFFFFFFFFFFFFFFFF DUP2 GT ISZERO PUSH3 0x31E JUMPI PUSH3 0x31D PUSH3 0x156 JUMP JUMPDEST JUMPDEST PUSH3 0x32C DUP5 DUP3 DUP6 ADD PUSH3 0x2B1 JUMP JUMPDEST SWAP2 POP POP SWAP3 SWAP2 POP POP JUMP JUMPDEST PUSH32 0x4E487B7100000000000000000000000000000000000000000000000000000000 PUSH1 0x0 MSTORE PUSH1 0x22 PUSH1 0x4 MSTORE PUSH1 0x24 PUSH1 0x0 REVERT JUMPDEST PUSH1 0x0 PUSH1 0x2 DUP3 DIV SWAP1 POP PUSH1 0x1 DUP3 AND DUP1 PUSH3 0x37D JUMPI PUSH1 0x7F DUP3 AND SWAP2 POP JUMPDEST PUSH1 0x20 DUP3 LT DUP2 EQ ISZERO PUSH3 0x394 JUMPI PUSH3 0x393 PUSH3 0x335 JUMP JUMPDEST JUMPDEST POP SWAP2 SWAP1 POP JUMP JUMPDEST PUSH2 0x1658 DUP1 PUSH3 0x3AA PUSH1 0x0 CODECOPY PUSH1 0x0 RETURN INVALID PUSH1 0x80 PUSH1 0x40 MSTORE CALLVALUE DUP1 ISZERO PUSH2 0x10 JUMPI PUSH1 0x0 DUP1 REVERT JUMPDEST POP PUSH1 0x4 CALLDATASIZE LT PUSH2 0x93 JUMPI PUSH1 0x0 CALLDATALOAD PUSH1 0xE0 SHR DUP1 PUSH4 0xA7CDBB32 GT PUSH2 0x66 JUMPI DUP1 PUSH4 0xA7CDBB32 EQ PUSH2 0x125 JUMPI DUP1 PUSH4 0xB27DADED EQ PUSH2 0x141 JUMPI DUP1 PUSH4 0xB9DB15B4 EQ PUSH2 0x15F JUMPI DUP1 PUSH4 0xC11E4E0B EQ PUSH2 0x192 JUMPI DUP1 PUSH4 0xD24DE1F5 EQ PUSH2 0x1AE JUMPI PUSH2 0x93 JUMP JUMPDEST DUP1 PUSH4 0x2EE3A52 EQ PUSH2 0x98 JUMPI DUP1 PUSH4 0x6605FF66 EQ PUSH2 0xB6 JUMPI DUP1 PUSH4 0x7ACC0B20 EQ PUSH2 0xD4 JUMPI DUP1 PUSH4 0x7E88CE3A EQ PUSH2 0x107 JUMPI JUMPDEST PUSH1 0x0 DUP1 REVERT JUMPDEST PUSH2 0xA0 PUSH2 0x1CA JUMP JUMPDEST PUSH1 0x40 MLOAD PUSH2 0xAD SWAP2 SWAP1 PUSH2 0xD49 JUMP JUMPDEST PUSH1 0x40 MLOAD DUP1 SWAP2 SUB SWAP1 RETURN JUMPDEST PUSH2 0xBE PUSH2 0x361 JUMP JUMPDEST PUSH1 0x40 MLOAD PUSH2 0xCB SWAP2 SWAP1 PUSH2 0xD7A JUMP JUMPDEST PUSH1 0x40 MLOAD DUP1 SWAP2 SUB SWAP1 RETURN JUMPDEST PUSH2 0xEE PUSH1 0x4 DUP1 CALLDATASIZE SUB DUP2 ADD SWAP1 PUSH2 0xE9 SWAP2 SWAP1 PUSH2 0xDDF JUMP JUMPDEST PUSH2 0x367 JUMP JUMPDEST PUSH1 0x40 MLOAD PUSH2 0xFE SWAP5 SWAP4 SWAP3 SWAP2 SWAP1 PUSH2 0xE56 JUMP JUMPDEST PUSH1 0x40 MLOAD DUP1 SWAP2 SUB SWAP1 RETURN JUMPDEST PUSH2 0x10F PUSH2 0x4B7 JUMP JUMPDEST PUSH1 0x40 MLOAD PUSH2 0x11C SWAP2 SWAP1 PUSH2 0xEA9 JUMP JUMPDEST PUSH1 0x40 MLOAD DUP1 SWAP2 SUB SWAP1 RETURN JUMPDEST PUSH2 0x13F PUSH1 0x4 DUP1 CALLDATASIZE SUB DUP2 ADD SWAP1 PUSH2 0x13A SWAP2 SWAP1 PUSH2 0xEF7 JUMP JUMPDEST PUSH2 0x545 JUMP JUMPDEST STOP JUMPDEST PUSH2 0x149 PUSH2 0x683 JUMP JUMPDEST PUSH1 0x40 MLOAD PUSH2 0x156 SWAP2 SWAP1 PUSH2 0xF78 JUMP JUMPDEST PUSH1 0x40 MLOAD DUP1 SWAP2 SUB SWAP1 RETURN JUMPDEST PUSH2 0x179 PUSH1 0x4 DUP1 CALLDATASIZE SUB DUP2 ADD SWAP1 PUSH2 0x174 SWAP2 SWAP1 PUSH2 0xDDF JUMP JUMPDEST PUSH2 0x6A7 JUMP JUMPDEST PUSH1 0x40 MLOAD PUSH2 0x189 SWAP5 SWAP4 SWAP3 SWAP2 SWAP1 PUSH2 0xF93 JUMP JUMPDEST PUSH1 0x40 MLOAD DUP1 SWAP2 SUB SWAP1 RETURN JUMPDEST PUSH2 0x1AC PUSH1 0x4 DUP1 CALLDATASIZE SUB DUP2 ADD SWAP1 PUSH2 0x1A7 SWAP2 SWAP1 PUSH2 0xEF7 JUMP JUMPDEST PUSH2 0x883 JUMP JUMPDEST STOP JUMPDEST PUSH2 0x1C8 PUSH1 0x4 DUP1 CALLDATASIZE SUB DUP2 ADD SWAP1 PUSH2 0x1C3 SWAP2 SWAP1 PUSH2 0x111B JUMP JUMPDEST PUSH2 0x998 JUMP JUMPDEST STOP JUMPDEST PUSH1 0x60 PUSH1 0x2 DUP1 SLOAD DUP1 PUSH1 0x20 MUL PUSH1 0x20 ADD PUSH1 0x40 MLOAD SWAP1 DUP2 ADD PUSH1 0x40 MSTORE DUP1 SWAP3 SWAP2 SWAP1 DUP2 DUP2 MSTORE PUSH1 0x20 ADD PUSH1 0x0 SWAP1 JUMPDEST DUP3 DUP3 LT ISZERO PUSH2 0x358 JUMPI DUP4 DUP3 SWAP1 PUSH1 0x0 MSTORE PUSH1 0x20 PUSH1 0x0 KECCAK256 SWAP1 PUSH1 0x4 MUL ADD PUSH1 0x40 MLOAD DUP1 PUSH1 0x80 ADD PUSH1 0x40 MSTORE SWAP1 DUP2 PUSH1 0x0 DUP3 ADD DUP1 SLOAD PUSH2 0x221 SWAP1 PUSH2 0x11E9 JUMP JUMPDEST DUP1 PUSH1 0x1F ADD PUSH1 0x20 DUP1 SWAP2 DIV MUL PUSH1 0x20 ADD PUSH1 0x40 MLOAD SWAP1 DUP2 ADD PUSH1 0x40 MSTORE DUP1 SWAP3 SWAP2 SWAP1 DUP2 DUP2 MSTORE PUSH1 0x20 ADD DUP3 DUP1 SLOAD PUSH2 0x24D SWAP1 PUSH2 0x11E9 JUMP JUMPDEST DUP1 ISZERO PUSH2 0x29A JUMPI DUP1 PUSH1 0x1F LT PUSH2 0x26F JUMPI PUSH2 0x100 DUP1 DUP4 SLOAD DIV MUL DUP4 MSTORE SWAP2 PUSH1 0x20 ADD SWAP2 PUSH2 0x29A JUMP JUMPDEST DUP3 ADD SWAP2 SWAP1 PUSH1 0x0 MSTORE PUSH1 0x20 PUSH1 0x0 KECCAK256 SWAP1 JUMPDEST DUP2 SLOAD DUP2 MSTORE SWAP1 PUSH1 0x1 ADD SWAP1 PUSH1 0x20 ADD DUP1 DUP4 GT PUSH2 0x27D JUMPI DUP3 SWAP1 SUB PUSH1 0x1F AND DUP3 ADD SWAP2 JUMPDEST POP POP POP POP POP DUP2 MSTORE PUSH1 0x20 ADD PUSH1 0x1 DUP3 ADD DUP1 SLOAD PUSH2 0x2B3 SWAP1 PUSH2 0x11E9 JUMP JUMPDEST DUP1 PUSH1 0x1F ADD PUSH1 0x20 DUP1 SWAP2 DIV MUL PUSH1 0x20 ADD PUSH1 0x40 MLOAD SWAP1 DUP2 ADD PUSH1 0x40 MSTORE DUP1 SWAP3 SWAP2 SWAP1 DUP2 DUP2 MSTORE PUSH1 0x20 ADD DUP3 DUP1 SLOAD PUSH2 0x2DF SWAP1 PUSH2 0x11E9 JUMP JUMPDEST DUP1 ISZERO PUSH2 0x32C JUMPI DUP1 PUSH1 0x1F LT PUSH2 0x301 JUMPI PUSH2 0x100 DUP1 DUP4 SLOAD DIV MUL DUP4 MSTORE SWAP2 PUSH1 0x20 ADD SWAP2 PUSH2 0x32C JUMP JUMPDEST DUP3 ADD SWAP2 SWAP1 PUSH1 0x0 MSTORE PUSH1 0x20 PUSH1 0x0 KECCAK256 SWAP1 JUMPDEST DUP2 SLOAD DUP2 MSTORE SWAP1 PUSH1 0x1 ADD SWAP1 PUSH1 0x20 ADD DUP1 DUP4 GT PUSH2 0x30F JUMPI DUP3 SWAP1 SUB PUSH1 0x1F AND DUP3 ADD SWAP2 JUMPDEST POP POP POP POP POP DUP2 MSTORE PUSH1 0x20 ADD PUSH1 0x2 DUP3 ADD SLOAD DUP2 MSTORE PUSH1 0x20 ADD PUSH1 0x3 DUP3 ADD SLOAD DUP2 MSTORE POP POP DUP2 MSTORE PUSH1 0x20 ADD SWAP1 PUSH1 0x1 ADD SWAP1 PUSH2 0x1EE JUMP JUMPDEST POP POP POP POP SWAP1 POP SWAP1 JUMP JUMPDEST PUSH1 0x3 SLOAD DUP2 JUMP JUMPDEST PUSH1 0x2 DUP2 DUP2 SLOAD DUP2 LT PUSH2 0x377 JUMPI PUSH1 0x0 DUP1 REVERT JUMPDEST SWAP1 PUSH1 0x0 MSTORE PUSH1 0x20 PUSH1 0x0 KECCAK256 SWAP1 PUSH1 0x4 MUL ADD PUSH1 0x0 SWAP2 POP SWAP1 POP DUP1 PUSH1 0x0 ADD DUP1 SLOAD PUSH2 0x39A SWAP1 PUSH2 0x11E9 JUMP JUMPDEST DUP1 PUSH1 0x1F ADD PUSH1 0x20 DUP1 SWAP2 DIV MUL PUSH1 0x20 ADD PUSH1 0x40 MLOAD SWAP1 DUP2 ADD PUSH1 0x40 MSTORE DUP1 SWAP3 SWAP2 SWAP1 DUP2 DUP2 MSTORE PUSH1 0x20 ADD DUP3 DUP1 SLOAD PUSH2 0x3C6 SWAP1 PUSH2 0x11E9 JUMP JUMPDEST DUP1 ISZERO PUSH2 0x413 JUMPI DUP1 PUSH1 0x1F LT PUSH2 0x3E8 JUMPI PUSH2 0x100 DUP1 DUP4 SLOAD DIV MUL DUP4 MSTORE SWAP2 PUSH1 0x20 ADD SWAP2 PUSH2 0x413 JUMP JUMPDEST DUP3 ADD SWAP2 SWAP1 PUSH1 0x0 MSTORE PUSH1 0x20 PUSH1 0x0 KECCAK256 SWAP1 JUMPDEST DUP2 SLOAD DUP2 MSTORE SWAP1 PUSH1 0x1 ADD SWAP1 PUSH1 0x20 ADD DUP1 DUP4 GT PUSH2 0x3F6 JUMPI DUP3 SWAP1 SUB PUSH1 0x1F AND DUP3 ADD SWAP2 JUMPDEST POP POP POP POP POP SWAP1 DUP1 PUSH1 0x1 ADD DUP1 SLOAD PUSH2 0x428 SWAP1 PUSH2 0x11E9 JUMP JUMPDEST DUP1 PUSH1 0x1F ADD PUSH1 0x20 DUP1 SWAP2 DIV MUL PUSH1 0x20 ADD PUSH1 0x40 MLOAD SWAP1 DUP2 ADD PUSH1 0x40 MSTORE DUP1 SWAP3 SWAP2 SWAP1 DUP2 DUP2 MSTORE PUSH1 0x20 ADD DUP3 DUP1 SLOAD PUSH2 0x454 SWAP1 PUSH2 0x11E9 JUMP JUMPDEST DUP1 ISZERO PUSH2 0x4A1 JUMPI DUP1 PUSH1 0x1F LT PUSH2 0x476 JUMPI PUSH2 0x100 DUP1 DUP4 SLOAD DIV MUL DUP4 MSTORE SWAP2 PUSH1 0x20 ADD SWAP2 PUSH2 0x4A1 JUMP JUMPDEST DUP3 ADD SWAP2 SWAP1 PUSH1 0x0 MSTORE PUSH1 0x20 PUSH1 0x0 KECCAK256 SWAP1 JUMPDEST DUP2 SLOAD DUP2 MSTORE SWAP1 PUSH1 0x1 ADD SWAP1 PUSH1 0x20 ADD DUP1 DUP4 GT PUSH2 0x484 JUMPI DUP3 SWAP1 SUB PUSH1 0x1F AND DUP3 ADD SWAP2 JUMPDEST POP POP POP POP POP SWAP1 DUP1 PUSH1 0x2 ADD SLOAD SWAP1 DUP1 PUSH1 0x3 ADD SLOAD SWAP1 POP DUP5 JUMP JUMPDEST PUSH1 0x1 DUP1 SLOAD PUSH2 0x4C4 SWAP1 PUSH2 0x11E9 JUMP JUMPDEST DUP1 PUSH1 0x1F ADD PUSH1 0x20 DUP1 SWAP2 DIV MUL PUSH1 0x20 ADD PUSH1 0x40 MLOAD SWAP1 DUP2 ADD PUSH1 0x40 MSTORE DUP1 SWAP3 SWAP2 SWAP1 DUP2 DUP2 MSTORE PUSH1 0x20 ADD DUP3 DUP1 SLOAD PUSH2 0x4F0 SWAP1 PUSH2 0x11E9 JUMP JUMPDEST DUP1 ISZERO PUSH2 0x53D JUMPI DUP1 PUSH1 0x1F LT PUSH2 0x512 JUMPI PUSH2 0x100 DUP1 DUP4 SLOAD DIV MUL DUP4 MSTORE SWAP2 PUSH1 0x20 ADD SWAP2 PUSH2 0x53D JUMP JUMPDEST DUP3 ADD SWAP2 SWAP1 PUSH1 0x0 MSTORE PUSH1 0x20 PUSH1 0x0 KECCAK256 SWAP1 JUMPDEST DUP2 SLOAD DUP2 MSTORE SWAP1 PUSH1 0x1 ADD SWAP1 PUSH1 0x20 ADD DUP1 DUP4 GT PUSH2 0x520 JUMPI DUP3 SWAP1 SUB PUSH1 0x1F AND DUP3 ADD SWAP2 JUMPDEST POP POP POP POP POP DUP2 JUMP JUMPDEST PUSH1 0x2 DUP1 SLOAD SWAP1 POP DUP3 LT PUSH2 0x58C JUMPI PUSH1 0x40 MLOAD PUSH32 0x8C379A000000000000000000000000000000000000000000000000000000000 DUP2 MSTORE PUSH1 0x4 ADD PUSH2 0x583 SWAP1 PUSH2 0x1267 JUMP JUMPDEST PUSH1 0x40 MLOAD DUP1 SWAP2 SUB SWAP1 REVERT JUMPDEST PUSH1 0x2 DUP3 DUP2 SLOAD DUP2 LT PUSH2 0x5A0 JUMPI PUSH2 0x59F PUSH2 0x1287 JUMP JUMPDEST JUMPDEST SWAP1 PUSH1 0x0 MSTORE PUSH1 0x20 PUSH1 0x0 KECCAK256 SWAP1 PUSH1 0x4 MUL ADD PUSH1 0x3 ADD SLOAD DUP2 SGT ISZERO PUSH2 0x5F4 JUMPI PUSH1 0x40 MLOAD PUSH32 0x8C379A000000000000000000000000000000000000000000000000000000000 DUP2 MSTORE PUSH1 0x4 ADD PUSH2 0x5EB SWAP1 PUSH2 0x1302 JUMP JUMPDEST PUSH1 0x40 MLOAD DUP1 SWAP2 SUB SWAP1 REVERT JUMPDEST PUSH1 0x0 DUP2 PUSH1 0x2 DUP5 DUP2 SLOAD DUP2 LT PUSH2 0x60B JUMPI PUSH2 0x60A PUSH2 0x1287 JUMP JUMPDEST JUMPDEST SWAP1 PUSH1 0x0 MSTORE PUSH1 0x20 PUSH1 0x0 KECCAK256 SWAP1 PUSH1 0x4 MUL ADD PUSH1 0x2 ADD SLOAD PUSH2 0x627 SWAP2 SWAP1 PUSH2 0x1351 JUMP JUMPDEST SWAP1 POP DUP2 PUSH1 0x2 DUP5 DUP2 SLOAD DUP2 LT PUSH2 0x63E JUMPI PUSH2 0x63D PUSH2 0x1287 JUMP JUMPDEST JUMPDEST SWAP1 PUSH1 0x0 MSTORE PUSH1 0x20 PUSH1 0x0 KECCAK256 SWAP1 PUSH1 0x4 MUL ADD PUSH1 0x3 ADD PUSH1 0x0 DUP3 DUP3 SLOAD PUSH2 0x65E SWAP2 SWAP1 PUSH2 0x1468 JUMP JUMPDEST SWAP3 POP POP DUP2 SWAP1 SSTORE POP DUP1 PUSH1 0x3 PUSH1 0x0 DUP3 DUP3 SLOAD PUSH2 0x677 SWAP2 SWAP1 PUSH2 0x14FC JUMP JUMPDEST SWAP3 POP POP DUP2 SWAP1 SSTORE POP POP POP POP JUMP JUMPDEST PUSH1 0x0 DUP1 SLOAD SWAP1 PUSH2 0x100 EXP SWAP1 DIV PUSH20 0xFFFFFFFFFFFFFFFFFFFFFFFFFFFFFFFFFFFFFFFF AND DUP2 JUMP JUMPDEST PUSH1 0x60 PUSH1 0x0 PUSH1 0x60 PUSH1 0x0 PUSH1 0x2 DUP1 SLOAD SWAP1 POP DUP6 LT PUSH2 0x6F6 JUMPI PUSH1 0x40 MLOAD PUSH32 0x8C379A000000000000000000000000000000000000000000000000000000000 DUP2 MSTORE PUSH1 0x4 ADD PUSH2 0x6ED SWAP1 PUSH2 0x1267 JUMP JUMPDEST PUSH1 0x40 MLOAD DUP1 SWAP2 SUB SWAP1 REVERT JUMPDEST PUSH1 0x0 PUSH1 0x2 DUP7 DUP2 SLOAD DUP2 LT PUSH2 0x70C JUMPI PUSH2 0x70B PUSH2 0x1287 JUMP JUMPDEST JUMPDEST SWAP1 PUSH1 0x0 MSTORE PUSH1 0x20 PUSH1 0x0 KECCAK256 SWAP1 PUSH1 0x4 MUL ADD PUSH1 0x40 MLOAD DUP1 PUSH1 0x80 ADD PUSH1 0x40 MSTORE SWAP1 DUP2 PUSH1 0x0 DUP3 ADD DUP1 SLOAD PUSH2 0x735 SWAP1 PUSH2 0x11E9 JUMP JUMPDEST DUP1 PUSH1 0x1F ADD PUSH1 0x20 DUP1 SWAP2 DIV MUL PUSH1 0x20 ADD PUSH1 0x40 MLOAD SWAP1 DUP2 ADD PUSH1 0x40 MSTORE DUP1 SWAP3 SWAP2 SWAP1 DUP2 DUP2 MSTORE PUSH1 0x20 ADD DUP3 DUP1 SLOAD PUSH2 0x761 SWAP1 PUSH2 0x11E9 JUMP JUMPDEST DUP1 ISZERO PUSH2 0x7AE JUMPI DUP1 PUSH1 0x1F LT PUSH2 0x783 JUMPI PUSH2 0x100 DUP1 DUP4 SLOAD DIV MUL DUP4 MSTORE SWAP2 PUSH1 0x20 ADD SWAP2 PUSH2 0x7AE JUMP JUMPDEST DUP3 ADD SWAP2 SWAP1 PUSH1 0x0 MSTORE PUSH1 0x20 PUSH1 0x0 KECCAK256 SWAP1 JUMPDEST DUP2 SLOAD DUP2 MSTORE SWAP1 PUSH1 0x1 ADD SWAP1 PUSH1 0x20 ADD DUP1 DUP4 GT PUSH2 0x791 JUMPI DUP3 SWAP1 SUB PUSH1 0x1F AND DUP3 ADD SWAP2 JUMPDEST POP POP POP POP POP DUP2 MSTORE PUSH1 0x20 ADD PUSH1 0x1 DUP3 ADD DUP1 SLOAD PUSH2 0x7C7 SWAP1 PUSH2 0x11E9 JUMP JUMPDEST DUP1 PUSH1 0x1F ADD PUSH1 0x20 DUP1 SWAP2 DIV MUL PUSH1 0x20 ADD PUSH1 0x40 MLOAD SWAP1 DUP2 ADD PUSH1 0x40 MSTORE DUP1 SWAP3 SWAP2 SWAP1 DUP2 DUP2 MSTORE PUSH1 0x20 ADD DUP3 DUP1 SLOAD PUSH2 0x7F3 SWAP1 PUSH2 0x11E9 JUMP JUMPDEST DUP1 ISZERO PUSH2 0x840 JUMPI DUP1 PUSH1 0x1F LT PUSH2 0x815 JUMPI PUSH2 0x100 DUP1 DUP4 SLOAD DIV MUL DUP4 MSTORE SWAP2 PUSH1 0x20 ADD SWAP2 PUSH2 0x840 JUMP JUMPDEST DUP3 ADD SWAP2 SWAP1 PUSH1 0x0 MSTORE PUSH1 0x20 PUSH1 0x0 KECCAK256 SWAP1 JUMPDEST DUP2 SLOAD DUP2 MSTORE SWAP1 PUSH1 0x1 ADD SWAP1 PUSH1 0x20 ADD DUP1 DUP4 GT PUSH2 0x823 JUMPI DUP3 SWAP1 SUB PUSH1 0x1F AND DUP3 ADD SWAP2 JUMPDEST POP POP POP POP POP DUP2 MSTORE PUSH1 0x20 ADD PUSH1 0x2 DUP3 ADD SLOAD DUP2 MSTORE PUSH1 0x20 ADD PUSH1 0x3 DUP3 ADD SLOAD DUP2 MSTORE POP POP SWAP1 POP DUP1 PUSH1 0x0 ADD MLOAD DUP2 PUSH1 0x40 ADD MLOAD DUP3 PUSH1 0x20 ADD MLOAD DUP4 PUSH1 0x60 ADD MLOAD SWAP5 POP SWAP5 POP SWAP5 POP SWAP5 POP POP SWAP2 SWAP4 POP SWAP2 SWAP4 JUMP JUMPDEST PUSH1 0x0 DUP1 SLOAD SWAP1 PUSH2 0x100 EXP SWAP1 DIV PUSH20 0xFFFFFFFFFFFFFFFFFFFFFFFFFFFFFFFFFFFFFFFF AND PUSH20 0xFFFFFFFFFFFFFFFFFFFFFFFFFFFFFFFFFFFFFFFF AND CALLER PUSH20 0xFFFFFFFFFFFFFFFFFFFFFFFFFFFFFFFFFFFFFFFF AND EQ PUSH2 0x911 JUMPI PUSH1 0x40 MLOAD PUSH32 0x8C379A000000000000000000000000000000000000000000000000000000000 DUP2 MSTORE PUSH1 0x4 ADD PUSH2 0x908 SWAP1 PUSH2 0x1602 JUMP JUMPDEST PUSH1 0x40 MLOAD DUP1 SWAP2 SUB SWAP1 REVERT JUMPDEST PUSH1 0x2 DUP1 SLOAD SWAP1 POP DUP3 LT PUSH2 0x958 JUMPI PUSH1 0x40 MLOAD PUSH32 0x8C379A000000000000000000000000000000000000000000000000000000000 DUP2 MSTORE PUSH1 0x4 ADD PUSH2 0x94F SWAP1 PUSH2 0x1267 JUMP JUMPDEST PUSH1 0x40 MLOAD DUP1 SWAP2 SUB SWAP1 REVERT JUMPDEST DUP1 PUSH1 0x2 DUP4 DUP2 SLOAD DUP2 LT PUSH2 0x96D JUMPI PUSH2 0x96C PUSH2 0x1287 JUMP JUMPDEST JUMPDEST SWAP1 PUSH1 0x0 MSTORE PUSH1 0x20 PUSH1 0x0 KECCAK256 SWAP1 PUSH1 0x4 MUL ADD PUSH1 0x3 ADD PUSH1 0x0 DUP3 DUP3 SLOAD PUSH2 0x98D SWAP2 SWAP1 PUSH2 0x14FC JUMP JUMPDEST SWAP3 POP POP DUP2 SWAP1 SSTORE POP POP POP JUMP JUMPDEST PUSH1 0x0 DUP1 SLOAD SWAP1 PUSH2 0x100 EXP SWAP1 DIV PUSH20 0xFFFFFFFFFFFFFFFFFFFFFFFFFFFFFFFFFFFFFFFF AND PUSH20 0xFFFFFFFFFFFFFFFFFFFFFFFFFFFFFFFFFFFFFFFF AND CALLER PUSH20 0xFFFFFFFFFFFFFFFFFFFFFFFFFFFFFFFFFFFFFFFF AND EQ PUSH2 0xA26 JUMPI PUSH1 0x40 MLOAD PUSH32 0x8C379A000000000000000000000000000000000000000000000000000000000 DUP2 MSTORE PUSH1 0x4 ADD PUSH2 0xA1D SWAP1 PUSH2 0x1602 JUMP JUMPDEST PUSH1 0x40 MLOAD DUP1 SWAP2 SUB SWAP1 REVERT JUMPDEST PUSH1 0x2 PUSH1 0x40 MLOAD DUP1 PUSH1 0x80 ADD PUSH1 0x40 MSTORE DUP1 DUP7 DUP2 MSTORE PUSH1 0x20 ADD DUP6 DUP2 MSTORE PUSH1 0x20 ADD DUP5 DUP2 MSTORE PUSH1 0x20 ADD DUP4 DUP2 MSTORE POP SWAP1 DUP1 PUSH1 0x1 DUP2 SLOAD ADD DUP1 DUP3 SSTORE DUP1 SWAP2 POP POP PUSH1 0x1 SWAP1 SUB SWAP1 PUSH1 0x0 MSTORE PUSH1 0x20 PUSH1 0x0 KECCAK256 SWAP1 PUSH1 0x4 MUL ADD PUSH1 0x0 SWAP1 SWAP2 SWAP1 SWAP2 SWAP1 SWAP2 POP PUSH1 0x0 DUP3 ADD MLOAD DUP2 PUSH1 0x0 ADD SWAP1 DUP1 MLOAD SWAP1 PUSH1 0x20 ADD SWAP1 PUSH2 0xA8E SWAP3 SWAP2 SWAP1 PUSH2 0xAC8 JUMP JUMPDEST POP PUSH1 0x20 DUP3 ADD MLOAD DUP2 PUSH1 0x1 ADD SWAP1 DUP1 MLOAD SWAP1 PUSH1 0x20 ADD SWAP1 PUSH2 0xAAB SWAP3 SWAP2 SWAP1 PUSH2 0xAC8 JUMP JUMPDEST POP PUSH1 0x40 DUP3 ADD MLOAD DUP2 PUSH1 0x2 ADD SSTORE PUSH1 0x60 DUP3 ADD MLOAD DUP2 PUSH1 0x3 ADD SSTORE POP POP POP POP POP POP JUMP JUMPDEST DUP3 DUP1 SLOAD PUSH2 0xAD4 SWAP1 PUSH2 0x11E9 JUMP JUMPDEST SWAP1 PUSH1 0x0 MSTORE PUSH1 0x20 PUSH1 0x0 KECCAK256 SWAP1 PUSH1 0x1F ADD PUSH1 0x20 SWAP1 DIV DUP2 ADD SWAP3 DUP3 PUSH2 0xAF6 JUMPI PUSH1 0x0 DUP6 SSTORE PUSH2 0xB3D JUMP JUMPDEST DUP3 PUSH1 0x1F LT PUSH2 0xB0F JUMPI DUP1 MLOAD PUSH1 0xFF NOT AND DUP4 DUP1 ADD OR DUP6 SSTORE PUSH2 0xB3D JUMP JUMPDEST DUP3 DUP1 ADD PUSH1 0x1 ADD DUP6 SSTORE DUP3 ISZERO PUSH2 0xB3D JUMPI SWAP2 DUP3 ADD JUMPDEST DUP3 DUP2 GT ISZERO PUSH2 0xB3C JUMPI DUP3 MLOAD DUP3 SSTORE SWAP2 PUSH1 0x20 ADD SWAP2 SWAP1 PUSH1 0x1 ADD SWAP1 PUSH2 0xB21 JUMP JUMPDEST JUMPDEST POP SWAP1 POP PUSH2 0xB4A SWAP2 SWAP1 PUSH2 0xB4E JUMP JUMPDEST POP SWAP1 JUMP JUMPDEST JUMPDEST DUP1 DUP3 GT ISZERO PUSH2 0xB67 JUMPI PUSH1 0x0 DUP2 PUSH1 0x0 SWAP1 SSTORE POP PUSH1 0x1 ADD PUSH2 0xB4F JUMP JUMPDEST POP SWAP1 JUMP JUMPDEST PUSH1 0x0 DUP2 MLOAD SWAP1 POP SWAP2 SWAP1 POP JUMP JUMPDEST PUSH1 0x0 DUP3 DUP3 MSTORE PUSH1 0x20 DUP3 ADD SWAP1 POP SWAP3 SWAP2 POP POP JUMP JUMPDEST PUSH1 0x0 DUP2 SWAP1 POP PUSH1 0x20 DUP3 ADD SWAP1 POP SWAP2 SWAP1 POP JUMP JUMPDEST PUSH1 0x0 DUP2 MLOAD SWAP1 POP SWAP2 SWAP1 POP JUMP JUMPDEST PUSH1 0x0 DUP3 DUP3 MSTORE PUSH1 0x20 DUP3 ADD SWAP1 POP SWAP3 SWAP2 POP POP JUMP JUMPDEST PUSH1 0x0 JUMPDEST DUP4 DUP2 LT ISZERO PUSH2 0xBD1 JUMPI DUP1 DUP3 ADD MLOAD DUP2 DUP5 ADD MSTORE PUSH1 0x20 DUP2 ADD SWAP1 POP PUSH2 0xBB6 JUMP JUMPDEST DUP4 DUP2 GT ISZERO PUSH2 0xBE0 JUMPI PUSH1 0x0 DUP5 DUP5 ADD MSTORE JUMPDEST POP POP POP POP JUMP JUMPDEST PUSH1 0x0 PUSH1 0x1F NOT PUSH1 0x1F DUP4 ADD AND SWAP1 POP SWAP2 SWAP1 POP JUMP JUMPDEST PUSH1 0x0 PUSH2 0xC02 DUP3 PUSH2 0xB97 JUMP JUMPDEST PUSH2 0xC0C DUP2 DUP6 PUSH2 0xBA2 JUMP JUMPDEST SWAP4 POP PUSH2 0xC1C DUP2 DUP6 PUSH1 0x20 DUP7 ADD PUSH2 0xBB3 JUMP JUMPDEST PUSH2 0xC25 DUP2 PUSH2 0xBE6 JUMP JUMPDEST DUP5 ADD SWAP2 POP POP SWAP3 SWAP2 POP POP JUMP JUMPDEST PUSH1 0x0 DUP2 SWAP1 POP SWAP2 SWAP1 POP JUMP JUMPDEST PUSH2 0xC43 DUP2 PUSH2 0xC30 JUMP JUMPDEST DUP3 MSTORE POP POP JUMP JUMPDEST PUSH1 0x0 PUSH1 0x80 DUP4 ADD PUSH1 0x0 DUP4 ADD MLOAD DUP5 DUP3 SUB PUSH1 0x0 DUP7 ADD MSTORE PUSH2 0xC66 DUP3 DUP3 PUSH2 0xBF7 JUMP JUMPDEST SWAP2 POP POP PUSH1 0x20 DUP4 ADD MLOAD DUP5 DUP3 SUB PUSH1 0x20 DUP7 ADD MSTORE PUSH2 0xC80 DUP3 DUP3 PUSH2 0xBF7 JUMP JUMPDEST SWAP2 POP POP PUSH1 0x40 DUP4 ADD MLOAD PUSH2 0xC95 PUSH1 0x40 DUP7 ADD DUP3 PUSH2 0xC3A JUMP JUMPDEST POP PUSH1 0x60 DUP4 ADD MLOAD PUSH2 0xCA8 PUSH1 0x60 DUP7 ADD DUP3 PUSH2 0xC3A JUMP JUMPDEST POP DUP1 SWAP2 POP POP SWAP3 SWAP2 POP POP JUMP JUMPDEST PUSH1 0x0 PUSH2 0xCBF DUP4 DUP4 PUSH2 0xC49 JUMP JUMPDEST SWAP1 POP SWAP3 SWAP2 POP POP JUMP JUMPDEST PUSH1 0x0 PUSH1 0x20 DUP3 ADD SWAP1 POP SWAP2 SWAP1 POP JUMP JUMPDEST PUSH1 0x0 PUSH2 0xCDF DUP3 PUSH2 0xB6B JUMP JUMPDEST PUSH2 0xCE9 DUP2 DUP6 PUSH2 0xB76 JUMP JUMPDEST SWAP4 POP DUP4 PUSH1 0x20 DUP3 MUL DUP6 ADD PUSH2 0xCFB DUP6 PUSH2 0xB87 JUMP JUMPDEST DUP1 PUSH1 0x0 JUMPDEST DUP6 DUP2 LT ISZERO PUSH2 0xD37 JUMPI DUP5 DUP5 SUB DUP10 MSTORE DUP2 MLOAD PUSH2 0xD18 DUP6 DUP3 PUSH2 0xCB3 JUMP JUMPDEST SWAP5 POP PUSH2 0xD23 DUP4 PUSH2 0xCC7 JUMP JUMPDEST SWAP3 POP PUSH1 0x20 DUP11 ADD SWAP10 POP POP PUSH1 0x1 DUP2 ADD SWAP1 POP PUSH2 0xCFF JUMP JUMPDEST POP DUP3 SWAP8 POP DUP8 SWAP6 POP POP POP POP POP POP SWAP3 SWAP2 POP POP JUMP JUMPDEST PUSH1 0x0 PUSH1 0x20 DUP3 ADD SWAP1 POP DUP2 DUP2 SUB PUSH1 0x0 DUP4 ADD MSTORE PUSH2 0xD63 DUP2 DUP5 PUSH2 0xCD4 JUMP JUMPDEST SWAP1 POP SWAP3 SWAP2 POP POP JUMP JUMPDEST PUSH2 0xD74 DUP2 PUSH2 0xC30 JUMP JUMPDEST DUP3 MSTORE POP POP JUMP JUMPDEST PUSH1 0x0 PUSH1 0x20 DUP3 ADD SWAP1 POP PUSH2 0xD8F PUSH1 0x0 DUP4 ADD DUP5 PUSH2 0xD6B JUMP JUMPDEST SWAP3 SWAP2 POP POP JUMP JUMPDEST PUSH1 0x0 PUSH1 0x40 MLOAD SWAP1 POP SWAP1 JUMP JUMPDEST PUSH1 0x0 DUP1 REVERT JUMPDEST PUSH1 0x0 DUP1 REVERT JUMPDEST PUSH1 0x0 DUP2 SWAP1 POP SWAP2 SWAP1 POP JUMP JUMPDEST PUSH2 0xDBC DUP2 PUSH2 0xDA9 JUMP JUMPDEST DUP2 EQ PUSH2 0xDC7 JUMPI PUSH1 0x0 DUP1 REVERT JUMPDEST POP JUMP JUMPDEST PUSH1 0x0 DUP2 CALLDATALOAD SWAP1 POP PUSH2 0xDD9 DUP2 PUSH2 0xDB3 JUMP JUMPDEST SWAP3 SWAP2 POP POP JUMP JUMPDEST PUSH1 0x0 PUSH1 0x20 DUP3 DUP5 SUB SLT ISZERO PUSH2 0xDF5 JUMPI PUSH2 0xDF4 PUSH2 0xD9F JUMP JUMPDEST JUMPDEST PUSH1 0x0 PUSH2 0xE03 DUP5 DUP3 DUP6 ADD PUSH2 0xDCA JUMP JUMPDEST SWAP2 POP POP SWAP3 SWAP2 POP POP JUMP JUMPDEST PUSH1 0x0 DUP3 DUP3 MSTORE PUSH1 0x20 DUP3 ADD SWAP1 POP SWAP3 SWAP2 POP POP JUMP JUMPDEST PUSH1 0x0 PUSH2 0xE28 DUP3 PUSH2 0xB97 JUMP JUMPDEST PUSH2 0xE32 DUP2 DUP6 PUSH2 0xE0C JUMP JUMPDEST SWAP4 POP PUSH2 0xE42 DUP2 DUP6 PUSH1 0x20 DUP7 ADD PUSH2 0xBB3 JUMP JUMPDEST PUSH2 0xE4B DUP2 PUSH2 0xBE6 JUMP JUMPDEST DUP5 ADD SWAP2 POP POP SWAP3 SWAP2 POP POP JUMP JUMPDEST PUSH1 0x0 PUSH1 0x80 DUP3 ADD SWAP1 POP DUP2 DUP2 SUB PUSH1 0x0 DUP4 ADD MSTORE PUSH2 0xE70 DUP2 DUP8 PUSH2 0xE1D JUMP JUMPDEST SWAP1 POP DUP2 DUP2 SUB PUSH1 0x20 DUP4 ADD MSTORE PUSH2 0xE84 DUP2 DUP7 PUSH2 0xE1D JUMP JUMPDEST SWAP1 POP PUSH2 0xE93 PUSH1 0x40 DUP4 ADD DUP6 PUSH2 0xD6B JUMP JUMPDEST PUSH2 0xEA0 PUSH1 0x60 DUP4 ADD DUP5 PUSH2 0xD6B JUMP JUMPDEST SWAP6 SWAP5 POP POP POP POP POP JUMP JUMPDEST PUSH1 0x0 PUSH1 0x20 DUP3 ADD SWAP1 POP DUP2 DUP2 SUB PUSH1 0x0 DUP4 ADD MSTORE PUSH2 0xEC3 DUP2 DUP5 PUSH2 0xE1D JUMP JUMPDEST SWAP1 POP SWAP3 SWAP2 POP POP JUMP JUMPDEST PUSH2 0xED4 DUP2 PUSH2 0xC30 JUMP JUMPDEST DUP2 EQ PUSH2 0xEDF JUMPI PUSH1 0x0 DUP1 REVERT JUMPDEST POP JUMP JUMPDEST PUSH1 0x0 DUP2 CALLDATALOAD SWAP1 POP PUSH2 0xEF1 DUP2 PUSH2 0xECB JUMP JUMPDEST SWAP3 SWAP2 POP POP JUMP JUMPDEST PUSH1 0x0 DUP1 PUSH1 0x40 DUP4 DUP6 SUB SLT ISZERO PUSH2 0xF0E JUMPI PUSH2 0xF0D PUSH2 0xD9F JUMP JUMPDEST JUMPDEST PUSH1 0x0 PUSH2 0xF1C DUP6 DUP3 DUP7 ADD PUSH2 0xDCA JUMP JUMPDEST SWAP3 POP POP PUSH1 0x20 PUSH2 0xF2D DUP6 DUP3 DUP7 ADD PUSH2 0xEE2 JUMP JUMPDEST SWAP2 POP POP SWAP3 POP SWAP3 SWAP1 POP JUMP JUMPDEST PUSH1 0x0 PUSH20 0xFFFFFFFFFFFFFFFFFFFFFFFFFFFFFFFFFFFFFFFF DUP3 AND SWAP1 POP SWAP2 SWAP1 POP JUMP JUMPDEST PUSH1 0x0 PUSH2 0xF62 DUP3 PUSH2 0xF37 JUMP JUMPDEST SWAP1 POP SWAP2 SWAP1 POP JUMP JUMPDEST PUSH2 0xF72 DUP2 PUSH2 0xF57 JUMP JUMPDEST DUP3 MSTORE POP POP JUMP JUMPDEST PUSH1 0x0 PUSH1 0x20 DUP3 ADD SWAP1 POP PUSH2 0xF8D PUSH1 0x0 DUP4 ADD DUP5 PUSH2 0xF69 JUMP JUMPDEST SWAP3 SWAP2 POP POP JUMP JUMPDEST PUSH1 0x0 PUSH1 0x80 DUP3 ADD SWAP1 POP DUP2 DUP2 SUB PUSH1 0x0 DUP4 ADD MSTORE PUSH2 0xFAD DUP2 DUP8 PUSH2 0xE1D JUMP JUMPDEST SWAP1 POP PUSH2 0xFBC PUSH1 0x20 DUP4 ADD DUP7 PUSH2 0xD6B JUMP JUMPDEST DUP2 DUP2 SUB PUSH1 0x40 DUP4 ADD MSTORE PUSH2 0xFCE DUP2 DUP6 PUSH2 0xE1D JUMP JUMPDEST SWAP1 POP PUSH2 0xFDD PUSH1 0x60 DUP4 ADD DUP5 PUSH2 0xD6B JUMP JUMPDEST SWAP6 SWAP5 POP POP POP POP POP JUMP JUMPDEST PUSH1 0x0 DUP1 REVERT JUMPDEST PUSH1 0x0 DUP1 REVERT JUMPDEST PUSH32 0x4E487B7100000000000000000000000000000000000000000000000000000000 PUSH1 0x0 MSTORE PUSH1 0x41 PUSH1 0x4 MSTORE PUSH1 0x24 PUSH1 0x0 REVERT JUMPDEST PUSH2 0x1028 DUP3 PUSH2 0xBE6 JUMP JUMPDEST DUP2 ADD DUP2 DUP2 LT PUSH8 0xFFFFFFFFFFFFFFFF DUP3 GT OR ISZERO PUSH2 0x1047 JUMPI PUSH2 0x1046 PUSH2 0xFF0 JUMP JUMPDEST JUMPDEST DUP1 PUSH1 0x40 MSTORE POP POP POP JUMP JUMPDEST PUSH1 0x0 PUSH2 0x105A PUSH2 0xD95 JUMP JUMPDEST SWAP1 POP PUSH2 0x1066 DUP3 DUP3 PUSH2 0x101F JUMP JUMPDEST SWAP2 SWAP1 POP JUMP JUMPDEST PUSH1 0x0 PUSH8 0xFFFFFFFFFFFFFFFF DUP3 GT ISZERO PUSH2 0x1086 JUMPI PUSH2 0x1085 PUSH2 0xFF0 JUMP JUMPDEST JUMPDEST PUSH2 0x108F DUP3 PUSH2 0xBE6 JUMP JUMPDEST SWAP1 POP PUSH1 0x20 DUP2 ADD SWAP1 POP SWAP2 SWAP1 POP JUMP JUMPDEST DUP3 DUP2 DUP4 CALLDATACOPY PUSH1 0x0 DUP4 DUP4 ADD MSTORE POP POP POP JUMP JUMPDEST PUSH1 0x0 PUSH2 0x10BE PUSH2 0x10B9 DUP5 PUSH2 0x106B JUMP JUMPDEST PUSH2 0x1050 JUMP JUMPDEST SWAP1 POP DUP3 DUP2 MSTORE PUSH1 0x20 DUP2 ADD DUP5 DUP5 DUP5 ADD GT ISZERO PUSH2 0x10DA JUMPI PUSH2 0x10D9 PUSH2 0xFEB JUMP JUMPDEST JUMPDEST PUSH2 0x10E5 DUP5 DUP3 DUP6 PUSH2 0x109C JUMP JUMPDEST POP SWAP4 SWAP3 POP POP POP JUMP JUMPDEST PUSH1 0x0 DUP3 PUSH1 0x1F DUP4 ADD SLT PUSH2 0x1102 JUMPI PUSH2 0x1101 PUSH2 0xFE6 JUMP JUMPDEST JUMPDEST DUP2 CALLDATALOAD PUSH2 0x1112 DUP5 DUP3 PUSH1 0x20 DUP7 ADD PUSH2 0x10AB JUMP JUMPDEST SWAP2 POP POP SWAP3 SWAP2 POP POP JUMP JUMPDEST PUSH1 0x0 DUP1 PUSH1 0x0 DUP1 PUSH1 0x80 DUP6 DUP8 SUB SLT ISZERO PUSH2 0x1135 JUMPI PUSH2 0x1134 PUSH2 0xD9F JUMP JUMPDEST JUMPDEST PUSH1 0x0 DUP6 ADD CALLDATALOAD PUSH8 0xFFFFFFFFFFFFFFFF DUP2 GT ISZERO PUSH2 0x1153 JUMPI PUSH2 0x1152 PUSH2 0xDA4 JUMP JUMPDEST JUMPDEST PUSH2 0x115F DUP8 DUP3 DUP9 ADD PUSH2 0x10ED JUMP JUMPDEST SWAP5 POP POP PUSH1 0x20 DUP6 ADD CALLDATALOAD PUSH8 0xFFFFFFFFFFFFFFFF DUP2 GT ISZERO PUSH2 0x1180 JUMPI PUSH2 0x117F PUSH2 0xDA4 JUMP JUMPDEST JUMPDEST PUSH2 0x118C DUP8 DUP3 DUP9 ADD PUSH2 0x10ED JUMP JUMPDEST SWAP4 POP POP PUSH1 0x40 PUSH2 0x119D DUP8 DUP3 DUP9 ADD PUSH2 0xEE2 JUMP JUMPDEST SWAP3 POP POP PUSH1 0x60 PUSH2 0x11AE DUP8 DUP3 DUP9 ADD PUSH2 0xEE2 JUMP JUMPDEST SWAP2 POP POP SWAP3 SWAP6 SWAP2 SWAP5 POP SWAP3 POP JUMP JUMPDEST PUSH32 0x4E487B7100000000000000000000000000000000000000000000000000000000 PUSH1 0x0 MSTORE PUSH1 0x22 PUSH1 0x4 MSTORE PUSH1 0x24 PUSH1 0x0 REVERT JUMPDEST PUSH1 0x0 PUSH1 0x2 DUP3 DIV SWAP1 POP PUSH1 0x1 DUP3 AND DUP1 PUSH2 0x1201 JUMPI PUSH1 0x7F DUP3 AND SWAP2 POP JUMPDEST PUSH1 0x20 DUP3 LT DUP2 EQ ISZERO PUSH2 0x1215 JUMPI PUSH2 0x1214 PUSH2 0x11BA JUMP JUMPDEST JUMPDEST POP SWAP2 SWAP1 POP JUMP JUMPDEST PUSH32 0x496E646578206F7574206F6620626F756E647300000000000000000000000000 PUSH1 0x0 DUP3 ADD MSTORE POP JUMP JUMPDEST PUSH1 0x0 PUSH2 0x1251 PUSH1 0x13 DUP4 PUSH2 0xE0C JUMP JUMPDEST SWAP2 POP PUSH2 0x125C DUP3 PUSH2 0x121B JUMP JUMPDEST PUSH1 0x20 DUP3 ADD SWAP1 POP SWAP2 SWAP1 POP JUMP JUMPDEST PUSH1 0x0 PUSH1 0x20 DUP3 ADD SWAP1 POP DUP2 DUP2 SUB PUSH1 0x0 DUP4 ADD MSTORE PUSH2 0x1280 DUP2 PUSH2 0x1244 JUMP JUMPDEST SWAP1 POP SWAP2 SWAP1 POP JUMP JUMPDEST PUSH32 0x4E487B7100000000000000000000000000000000000000000000000000000000 PUSH1 0x0 MSTORE PUSH1 0x32 PUSH1 0x4 MSTORE PUSH1 0x24 PUSH1 0x0 REVERT JUMPDEST PUSH32 0x496E73756666696369656E74207175616E746974790000000000000000000000 PUSH1 0x0 DUP3 ADD MSTORE POP JUMP JUMPDEST PUSH1 0x0 PUSH2 0x12EC PUSH1 0x15 DUP4 PUSH2 0xE0C JUMP JUMPDEST SWAP2 POP PUSH2 0x12F7 DUP3 PUSH2 0x12B6 JUMP JUMPDEST PUSH1 0x20 DUP3 ADD SWAP1 POP SWAP2 SWAP1 POP JUMP JUMPDEST PUSH1 0x0 PUSH1 0x20 DUP3 ADD SWAP1 POP DUP2 DUP2 SUB PUSH1 0x0 DUP4 ADD MSTORE PUSH2 0x131B DUP2 PUSH2 0x12DF JUMP JUMPDEST SWAP1 POP SWAP2 SWAP1 POP JUMP JUMPDEST PUSH32 0x4E487B7100000000000000000000000000000000000000000000000000000000 PUSH1 0x0 MSTORE PUSH1 0x11 PUSH1 0x4 MSTORE PUSH1 0x24 PUSH1 0x0 REVERT JUMPDEST PUSH1 0x0 PUSH2 0x135C DUP3 PUSH2 0xC30 JUMP JUMPDEST SWAP2 POP PUSH2 0x1367 DUP4 PUSH2 0xC30 JUMP JUMPDEST SWAP3 POP DUP3 PUSH32 0x7FFFFFFFFFFFFFFFFFFFFFFFFFFFFFFFFFFFFFFFFFFFFFFFFFFFFFFFFFFFFFFF DIV DUP3 GT PUSH1 0x0 DUP5 SGT PUSH1 0x0 DUP5 SGT AND AND ISZERO PUSH2 0x13A6 JUMPI PUSH2 0x13A5 PUSH2 0x1322 JUMP JUMPDEST JUMPDEST DUP2 PUSH32 0x8000000000000000000000000000000000000000000000000000000000000000 SDIV DUP4 SLT PUSH1 0x0 DUP5 SLT PUSH1 0x0 DUP5 SGT AND AND ISZERO PUSH2 0x13E3 JUMPI PUSH2 0x13E2 PUSH2 0x1322 JUMP JUMPDEST JUMPDEST DUP3 PUSH32 0x8000000000000000000000000000000000000000000000000000000000000000 SDIV DUP3 SLT PUSH1 0x0 DUP5 SGT PUSH1 0x0 DUP5 SLT AND AND ISZERO PUSH2 0x1420 JUMPI PUSH2 0x141F PUSH2 0x1322 JUMP JUMPDEST JUMPDEST DUP3 PUSH32 0x7FFFFFFFFFFFFFFFFFFFFFFFFFFFFFFFFFFFFFFFFFFFFFFFFFFFFFFFFFFFFFFF SDIV DUP3 SLT PUSH1 0x0 DUP5 SLT PUSH1 0x0 DUP5 SLT AND AND ISZERO PUSH2 0x145D JUMPI PUSH2 0x145C PUSH2 0x1322 JUMP JUMPDEST JUMPDEST DUP3 DUP3 MUL SWAP1 POP SWAP3 SWAP2 POP POP JUMP JUMPDEST PUSH1 0x0 PUSH2 0x1473 DUP3 PUSH2 0xC30 JUMP JUMPDEST SWAP2 POP PUSH2 0x147E DUP4 PUSH2 0xC30 JUMP JUMPDEST SWAP3 POP DUP3 PUSH32 0x8000000000000000000000000000000000000000000000000000000000000000 ADD DUP3 SLT PUSH1 0x0 DUP5 SLT ISZERO AND ISZERO PUSH2 0x14B9 JUMPI PUSH2 0x14B8 PUSH2 0x1322 JUMP JUMPDEST JUMPDEST DUP3 PUSH32 0x7FFFFFFFFFFFFFFFFFFFFFFFFFFFFFFFFFFFFFFFFFFFFFFFFFFFFFFFFFFFFFFF ADD DUP3 SGT PUSH1 0x0 DUP5 SLT AND ISZERO PUSH2 0x14F1 JUMPI PUSH2 0x14F0 PUSH2 0x1322 JUMP JUMPDEST JUMPDEST DUP3 DUP3 SUB SWAP1 POP SWAP3 SWAP2 POP POP JUMP JUMPDEST PUSH1 0x0 PUSH2 0x1507 DUP3 PUSH2 0xC30 JUMP JUMPDEST SWAP2 POP PUSH2 0x1512 DUP4 PUSH2 0xC30 JUMP JUMPDEST SWAP3 POP DUP2 PUSH32 0x7FFFFFFFFFFFFFFFFFFFFFFFFFFFFFFFFFFFFFFFFFFFFFFFFFFFFFFFFFFFFFFF SUB DUP4 SGT PUSH1 0x0 DUP4 SLT ISZERO AND ISZERO PUSH2 0x154D JUMPI PUSH2 0x154C PUSH2 0x1322 JUMP JUMPDEST JUMPDEST DUP2 PUSH32 0x8000000000000000000000000000000000000000000000000000000000000000 SUB DUP4 SLT PUSH1 0x0 DUP4 SLT AND ISZERO PUSH2 0x1585 JUMPI PUSH2 0x1584 PUSH2 0x1322 JUMP JUMPDEST JUMPDEST DUP3 DUP3 ADD SWAP1 POP SWAP3 SWAP2 POP POP JUMP JUMPDEST PUSH32 0x4F6E6C792070726F636573736F722063616E2061636365737320746869732066 PUSH1 0x0 DUP3 ADD MSTORE PUSH32 0x756E6374696F6E00000000000000000000000000000000000000000000000000 PUSH1 0x20 DUP3 ADD MSTORE POP JUMP JUMPDEST PUSH1 0x0 PUSH2 0x15EC PUSH1 0x27 DUP4 PUSH2 0xE0C JUMP JUMPDEST SWAP2 POP PUSH2 0x15F7 DUP3 PUSH2 0x1590 JUMP JUMPDEST PUSH1 0x40 DUP3 ADD SWAP1 POP SWAP2 SWAP1 POP JUMP JUMPDEST PUSH1 0x0 PUSH1 0x20 DUP3 ADD SWAP1 POP DUP2 DUP2 SUB PUSH1 0x0 DUP4 ADD MSTORE PUSH2 0x161B DUP2 PUSH2 0x15DF JUMP JUMPDEST SWAP1 POP SWAP2 SWAP1 POP JUMP INVALID LOG2 PUSH5 0x6970667358 0x22 SLT KECCAK256 DUP3 DUP6 0xB8 0xD1 GASPRICE NUMBER SAR CALLVALUE PUSH21 0xCA7DCB332866BE2FB01CEBA406AF440AC1328E266F CALLER 0xC8 PUSH5 0x736F6C6343 STOP ADDMOD MULMOD STOP CALLER "
        },
        "gasEstimates": {
            "creation": {
                "codeDepositCost": "1144000",
                "executionCost": "infinite",
                "totalCost": "infinite"
            },
            "external": {
                "addProduct(string,string,int256,int256)": "infinite",
                "adjustProductQuantity(uint256,int256)": "infinite",
                "getAllProducts()": "infinite",
                "getProduct(uint256)": "infinite",
                "processorAddress()": "2533",
                "processorName()": "infinite",
                "products(uint256)": "infinite",
                "sellProduct(uint256,int256)": "infinite",
                "totalSales()": "2452"
            }
        },
        "methodIdentifiers": {
            "addProduct(string,string,int256,int256)": "d24de1f5",
            "adjustProductQuantity(uint256,int256)": "c11e4e0b",
            "getAllProducts()": "02ee3a52",
            "getProduct(uint256)": "b9db15b4",
            "processorAddress()": "b27daded",
            "processorName()": "7e88ce3a",
            "products(uint256)": "7acc0b20",
            "sellProduct(uint256,int256)": "a7cdbb32",
            "totalSales()": "6605ff66"
        }
    },
    "storageLayout": {
        "storage": [
            {
                "astId": 387,
                "contract": "Main.sol:ProcessorContract",
                "label": "processorAddress",
                "offset": 0,
                "slot": "0",
                "type": "t_address"
            },
            {
                "astId": 389,
                "contract": "Main.sol:ProcessorContract",
                "label": "processorName",
                "offset": 0,
                "slot": "1",
                "type": "t_string_storage"
            },
            {
                "astId": 393,
                "contract": "Main.sol:ProcessorContract",
                "label": "products",
                "offset": 0,
                "slot": "2",
                "type": "t_array(t_struct(Product)404_storage)dyn_storage"
            },
            {
                "astId": 395,
                "contract": "Main.sol:ProcessorContract",
                "label": "totalSales",
                "offset": 0,
                "slot": "3",
                "type": "t_int256"
            }
        ],
        "types": {
            "t_address": {
                "encoding": "inplace",
                "label": "address",
                "numberOfBytes": "20"
            },
            "t_array(t_struct(Product)404_storage)dyn_storage": {
                "base": "t_struct(Product)404_storage",
                "encoding": "dynamic_array",
                "label": "struct ProcessorContract.Product[]",
                "numberOfBytes": "32"
            },
            "t_int256": {
                "encoding": "inplace",
                "label": "int256",
                "numberOfBytes": "32"
            },
            "t_string_storage": {
                "encoding": "bytes",
                "label": "string",
                "numberOfBytes": "32"
            },
            "t_struct(Product)404_storage": {
                "encoding": "inplace",
                "label": "struct ProcessorContract.Product",
                "members": [
                    {
                        "astId": 397,
                        "contract": "Main.sol:ProcessorContract",
                        "label": "productName",
                        "offset": 0,
                        "slot": "0",
                        "type": "t_string_storage"
                    },
                    {
                        "astId": 399,
                        "contract": "Main.sol:ProcessorContract",
                        "label": "productQuality",
                        "offset": 0,
                        "slot": "1",
                        "type": "t_string_storage"
                    },
                    {
                        "astId": 401,
                        "contract": "Main.sol:ProcessorContract",
                        "label": "productPrice",
                        "offset": 0,
                        "slot": "2",
                        "type": "t_int256"
                    },
                    {
                        "astId": 403,
                        "contract": "Main.sol:ProcessorContract",
                        "label": "productQuantity",
                        "offset": 0,
                        "slot": "3",
                        "type": "t_int256"
                    }
                ],
                "numberOfBytes": "128"
            }
        }
    },
    "userdoc": {
        "kind": "user",
        "methods": {},
        "version": 1
    }
}