{
    "abi": [
        {
            "inputs": [
                {
                    "internalType": "string",
                    "name": "_producerName",
                    "type": "string"
                }
            ],
            "stateMutability": "nonpayable",
            "type": "constructor"
        },
        {
            "inputs": [
                {
                    "internalType": "string",
                    "name": "_cropName",
                    "type": "string"
                },
                {
                    "internalType": "string",
                    "name": "_cropQuality",
                    "type": "string"
                },
                {
                    "internalType": "int256",
                    "name": "_cropPrice",
                    "type": "int256"
                },
                {
                    "internalType": "int256",
                    "name": "_cropQuantity",
                    "type": "int256"
                }
            ],
            "name": "addCrop",
            "outputs": [],
            "stateMutability": "nonpayable",
            "type": "function"
        },
        {
            "inputs": [
                {
                    "internalType": "uint256",
                    "name": "_index",
                    "type": "uint256"
                },
                {
                    "internalType": "int256",
                    "name": "_additionalQuantity",
                    "type": "int256"
                }
            ],
            "name": "adjustCropQuantity",
            "outputs": [],
            "stateMutability": "nonpayable",
            "type": "function"
        },
        {
            "inputs": [
                {
                    "internalType": "uint256",
                    "name": "",
                    "type": "uint256"
                }
            ],
            "name": "crops",
            "outputs": [
                {
                    "internalType": "string",
                    "name": "cropName",
                    "type": "string"
                },
                {
                    "internalType": "string",
                    "name": "cropQuality",
                    "type": "string"
                },
                {
                    "internalType": "int256",
                    "name": "cropPrice",
                    "type": "int256"
                },
                {
                    "internalType": "int256",
                    "name": "cropQuantity",
                    "type": "int256"
                }
            ],
            "stateMutability": "view",
            "type": "function"
        },
        {
            "inputs": [],
            "name": "getAllCrops",
            "outputs": [
                {
                    "components": [
                        {
                            "internalType": "string",
                            "name": "cropName",
                            "type": "string"
                        },
                        {
                            "internalType": "string",
                            "name": "cropQuality",
                            "type": "string"
                        },
                        {
                            "internalType": "int256",
                            "name": "cropPrice",
                            "type": "int256"
                        },
                        {
                            "internalType": "int256",
                            "name": "cropQuantity",
                            "type": "int256"
                        }
                    ],
                    "internalType": "struct ProducerContract.Crop[]",
                    "name": "",
                    "type": "tuple[]"
                }
            ],
            "stateMutability": "view",
            "type": "function"
        },
        {
            "inputs": [
                {
                    "internalType": "uint256",
                    "name": "_index",
                    "type": "uint256"
                }
            ],
            "name": "getCrop",
            "outputs": [
                {
                    "internalType": "string",
                    "name": "",
                    "type": "string"
                },
                {
                    "internalType": "int256",
                    "name": "",
                    "type": "int256"
                },
                {
                    "internalType": "string",
                    "name": "",
                    "type": "string"
                },
                {
                    "internalType": "int256",
                    "name": "",
                    "type": "int256"
                }
            ],
            "stateMutability": "view",
            "type": "function"
        },
        {
            "inputs": [],
            "name": "producerName",
            "outputs": [
                {
                    "internalType": "string",
                    "name": "",
                    "type": "string"
                }
            ],
            "stateMutability": "view",
            "type": "function"
        },
        {
            "inputs": [],
            "name": "prroducerAddress",
            "outputs": [
                {
                    "internalType": "address",
                    "name": "",
                    "type": "address"
                }
            ],
            "stateMutability": "view",
            "type": "function"
        },
        {
            "inputs": [
                {
                    "internalType": "uint256",
                    "name": "_index",
                    "type": "uint256"
                },
                {
                    "internalType": "int256",
                    "name": "_quantity",
                    "type": "int256"
                }
            ],
            "name": "sellCrop",
            "outputs": [],
            "stateMutability": "nonpayable",
            "type": "function"
        },
        {
            "inputs": [],
            "name": "totalSales",
            "outputs": [
                {
                    "internalType": "int256",
                    "name": "",
                    "type": "int256"
                }
            ],
            "stateMutability": "view",
            "type": "function"
        }
    ],
    "devdoc": {
        "kind": "dev",
        "methods": {},
        "version": 1
    },
    "evm": {
        "assembly": "    /* \"Main.sol\":2099:4137  contract ProducerContract {... */\n  mstore(0x40, 0x80)\n    /* \"Main.sol\":2583:2711  constructor(string memory _producerName) {... */\n  callvalue\n  dup1\n  iszero\n  tag_1\n  jumpi\n  0x00\n  dup1\n  revert\ntag_1:\n  pop\n  mload(0x40)\n  sub(codesize, bytecodeSize)\n  dup1\n  bytecodeSize\n  dup4\n  codecopy\n  dup2\n  dup2\n  add\n  0x40\n  mstore\n  dup2\n  add\n  swap1\n  tag_2\n  swap2\n  swap1\n  tag_3\n  jump\t// in\ntag_2:\n    /* \"Main.sol\":2654:2664  msg.sender */\n  caller\n    /* \"Main.sol\":2635:2651  prroducerAddress */\n  0x00\n  dup1\n    /* \"Main.sol\":2635:2664  prroducerAddress = msg.sender */\n  0x0100\n  exp\n  dup2\n  sload\n  dup2\n  0xffffffffffffffffffffffffffffffffffffffff\n  mul\n  not\n  and\n  swap1\n  dup4\n  0xffffffffffffffffffffffffffffffffffffffff\n  and\n  mul\n  or\n  swap1\n  sstore\n  pop\n    /* \"Main.sol\":2690:2703  _producerName */\n  dup1\n    /* \"Main.sol\":2675:2687  producerName */\n  0x01\n    /* \"Main.sol\":2675:2703  producerName = _producerName */\n  swap1\n  dup1\n  mload\n  swap1\n  0x20\n  add\n  swap1\n  tag_6\n  swap3\n  swap2\n  swap1\n  tag_7\n  jump\t// in\ntag_6:\n  pop\n    /* \"Main.sol\":2583:2711  constructor(string memory _producerName) {... */\n  pop\n    /* \"Main.sol\":2099:4137  contract ProducerContract {... */\n  jump(tag_8)\ntag_7:\n  dup3\n  dup1\n  sload\n  tag_9\n  swap1\n  tag_10\n  jump\t// in\ntag_9:\n  swap1\n  0x00\n  mstore\n  keccak256(0x00, 0x20)\n  swap1\n  0x1f\n  add\n  0x20\n  swap1\n  div\n  dup2\n  add\n  swap3\n  dup3\n  tag_12\n  jumpi\n  0x00\n  dup6\n  sstore\n  jump(tag_11)\ntag_12:\n  dup3\n  0x1f\n  lt\n  tag_13\n  jumpi\n  dup1\n  mload\n  not(0xff)\n  and\n  dup4\n  dup1\n  add\n  or\n  dup6\n  sstore\n  jump(tag_11)\ntag_13:\n  dup3\n  dup1\n  add\n  0x01\n  add\n  dup6\n  sstore\n  dup3\n  iszero\n  tag_11\n  jumpi\n  swap2\n  dup3\n  add\ntag_14:\n  dup3\n  dup2\n  gt\n  iszero\n  tag_15\n  jumpi\n  dup3\n  mload\n  dup3\n  sstore\n  swap2\n  0x20\n  add\n  swap2\n  swap1\n  0x01\n  add\n  swap1\n  jump(tag_14)\ntag_15:\ntag_11:\n  pop\n  swap1\n  pop\n  tag_16\n  swap2\n  swap1\n  tag_17\n  jump\t// in\ntag_16:\n  pop\n  swap1\n  jump\t// out\ntag_17:\ntag_18:\n  dup1\n  dup3\n  gt\n  iszero\n  tag_19\n  jumpi\n  0x00\n  dup2\n  0x00\n  swap1\n  sstore\n  pop\n  0x01\n  add\n  jump(tag_18)\ntag_19:\n  pop\n  swap1\n  jump\t// out\n    /* \"#utility.yul\":7:82   */\ntag_20:\n    /* \"#utility.yul\":40:46   */\n  0x00\n    /* \"#utility.yul\":73:75   */\n  0x40\n    /* \"#utility.yul\":67:76   */\n  mload\n    /* \"#utility.yul\":57:76   */\n  swap1\n  pop\n    /* \"#utility.yul\":7:82   */\n  swap1\n  jump\t// out\n    /* \"#utility.yul\":88:205   */\ntag_21:\n    /* \"#utility.yul\":197:198   */\n  0x00\n    /* \"#utility.yul\":194:195   */\n  dup1\n    /* \"#utility.yul\":187:199   */\n  revert\n    /* \"#utility.yul\":211:328   */\ntag_22:\n    /* \"#utility.yul\":320:321   */\n  0x00\n    /* \"#utility.yul\":317:318   */\n  dup1\n    /* \"#utility.yul\":310:322   */\n  revert\n    /* \"#utility.yul\":334:451   */\ntag_23:\n    /* \"#utility.yul\":443:444   */\n  0x00\n    /* \"#utility.yul\":440:441   */\n  dup1\n    /* \"#utility.yul\":433:445   */\n  revert\n    /* \"#utility.yul\":457:574   */\ntag_24:\n    /* \"#utility.yul\":566:567   */\n  0x00\n    /* \"#utility.yul\":563:564   */\n  dup1\n    /* \"#utility.yul\":556:568   */\n  revert\n    /* \"#utility.yul\":580:682   */\ntag_25:\n    /* \"#utility.yul\":621:627   */\n  0x00\n    /* \"#utility.yul\":672:674   */\n  0x1f\n    /* \"#utility.yul\":668:675   */\n  not\n    /* \"#utility.yul\":663:665   */\n  0x1f\n    /* \"#utility.yul\":656:661   */\n  dup4\n    /* \"#utility.yul\":652:666   */\n  add\n    /* \"#utility.yul\":648:676   */\n  and\n    /* \"#utility.yul\":638:676   */\n  swap1\n  pop\n    /* \"#utility.yul\":580:682   */\n  swap2\n  swap1\n  pop\n  jump\t// out\n    /* \"#utility.yul\":688:868   */\ntag_26:\n    /* \"#utility.yul\":736:813   */\n  0x4e487b7100000000000000000000000000000000000000000000000000000000\n    /* \"#utility.yul\":733:734   */\n  0x00\n    /* \"#utility.yul\":726:814   */\n  mstore\n    /* \"#utility.yul\":833:837   */\n  0x41\n    /* \"#utility.yul\":830:831   */\n  0x04\n    /* \"#utility.yul\":823:838   */\n  mstore\n    /* \"#utility.yul\":857:861   */\n  0x24\n    /* \"#utility.yul\":854:855   */\n  0x00\n    /* \"#utility.yul\":847:862   */\n  revert\n    /* \"#utility.yul\":874:1155   */\ntag_27:\n    /* \"#utility.yul\":957:984   */\n  tag_43\n    /* \"#utility.yul\":979:983   */\n  dup3\n    /* \"#utility.yul\":957:984   */\n  tag_25\n  jump\t// in\ntag_43:\n    /* \"#utility.yul\":949:955   */\n  dup2\n    /* \"#utility.yul\":945:985   */\n  add\n    /* \"#utility.yul\":1087:1093   */\n  dup2\n    /* \"#utility.yul\":1075:1085   */\n  dup2\n    /* \"#utility.yul\":1072:1094   */\n  lt\n    /* \"#utility.yul\":1051:1069   */\n  0xffffffffffffffff\n    /* \"#utility.yul\":1039:1049   */\n  dup3\n    /* \"#utility.yul\":1036:1070   */\n  gt\n    /* \"#utility.yul\":1033:1095   */\n  or\n    /* \"#utility.yul\":1030:1118   */\n  iszero\n  tag_44\n  jumpi\n    /* \"#utility.yul\":1098:1116   */\n  tag_45\n  tag_26\n  jump\t// in\ntag_45:\n    /* \"#utility.yul\":1030:1118   */\ntag_44:\n    /* \"#utility.yul\":1138:1148   */\n  dup1\n    /* \"#utility.yul\":1134:1136   */\n  0x40\n    /* \"#utility.yul\":1127:1149   */\n  mstore\n    /* \"#utility.yul\":917:1155   */\n  pop\n    /* \"#utility.yul\":874:1155   */\n  pop\n  pop\n  jump\t// out\n    /* \"#utility.yul\":1161:1290   */\ntag_28:\n    /* \"#utility.yul\":1195:1201   */\n  0x00\n    /* \"#utility.yul\":1222:1242   */\n  tag_47\n  tag_20\n  jump\t// in\ntag_47:\n    /* \"#utility.yul\":1212:1242   */\n  swap1\n  pop\n    /* \"#utility.yul\":1251:1284   */\n  tag_48\n    /* \"#utility.yul\":1279:1283   */\n  dup3\n    /* \"#utility.yul\":1271:1277   */\n  dup3\n    /* \"#utility.yul\":1251:1284   */\n  tag_27\n  jump\t// in\ntag_48:\n    /* \"#utility.yul\":1161:1290   */\n  swap2\n  swap1\n  pop\n  jump\t// out\n    /* \"#utility.yul\":1296:1604   */\ntag_29:\n    /* \"#utility.yul\":1358:1362   */\n  0x00\n    /* \"#utility.yul\":1448:1466   */\n  0xffffffffffffffff\n    /* \"#utility.yul\":1440:1446   */\n  dup3\n    /* \"#utility.yul\":1437:1467   */\n  gt\n    /* \"#utility.yul\":1434:1490   */\n  iszero\n  tag_50\n  jumpi\n    /* \"#utility.yul\":1470:1488   */\n  tag_51\n  tag_26\n  jump\t// in\ntag_51:\n    /* \"#utility.yul\":1434:1490   */\ntag_50:\n    /* \"#utility.yul\":1508:1537   */\n  tag_52\n    /* \"#utility.yul\":1530:1536   */\n  dup3\n    /* \"#utility.yul\":1508:1537   */\n  tag_25\n  jump\t// in\ntag_52:\n    /* \"#utility.yul\":1500:1537   */\n  swap1\n  pop\n    /* \"#utility.yul\":1592:1596   */\n  0x20\n    /* \"#utility.yul\":1586:1590   */\n  dup2\n    /* \"#utility.yul\":1582:1597   */\n  add\n    /* \"#utility.yul\":1574:1597   */\n  swap1\n  pop\n    /* \"#utility.yul\":1296:1604   */\n  swap2\n  swap1\n  pop\n  jump\t// out\n    /* \"#utility.yul\":1610:1917   */\ntag_30:\n    /* \"#utility.yul\":1678:1679   */\n  0x00\n    /* \"#utility.yul\":1688:1801   */\ntag_54:\n    /* \"#utility.yul\":1702:1708   */\n  dup4\n    /* \"#utility.yul\":1699:1700   */\n  dup2\n    /* \"#utility.yul\":1696:1709   */\n  lt\n    /* \"#utility.yul\":1688:1801   */\n  iszero\n  tag_56\n  jumpi\n    /* \"#utility.yul\":1787:1788   */\n  dup1\n    /* \"#utility.yul\":1782:1785   */\n  dup3\n    /* \"#utility.yul\":1778:1789   */\n  add\n    /* \"#utility.yul\":1772:1790   */\n  mload\n    /* \"#utility.yul\":1768:1769   */\n  dup2\n    /* \"#utility.yul\":1763:1766   */\n  dup5\n    /* \"#utility.yul\":1759:1770   */\n  add\n    /* \"#utility.yul\":1752:1791   */\n  mstore\n    /* \"#utility.yul\":1724:1726   */\n  0x20\n    /* \"#utility.yul\":1721:1722   */\n  dup2\n    /* \"#utility.yul\":1717:1727   */\n  add\n    /* \"#utility.yul\":1712:1727   */\n  swap1\n  pop\n    /* \"#utility.yul\":1688:1801   */\n  jump(tag_54)\ntag_56:\n    /* \"#utility.yul\":1819:1825   */\n  dup4\n    /* \"#utility.yul\":1816:1817   */\n  dup2\n    /* \"#utility.yul\":1813:1826   */\n  gt\n    /* \"#utility.yul\":1810:1911   */\n  iszero\n  tag_57\n  jumpi\n    /* \"#utility.yul\":1899:1900   */\n  0x00\n    /* \"#utility.yul\":1890:1896   */\n  dup5\n    /* \"#utility.yul\":1885:1888   */\n  dup5\n    /* \"#utility.yul\":1881:1897   */\n  add\n    /* \"#utility.yul\":1874:1901   */\n  mstore\n    /* \"#utility.yul\":1810:1911   */\ntag_57:\n    /* \"#utility.yul\":1659:1917   */\n  pop\n    /* \"#utility.yul\":1610:1917   */\n  pop\n  pop\n  pop\n  jump\t// out\n    /* \"#utility.yul\":1923:2344   */\ntag_31:\n    /* \"#utility.yul\":2012:2017   */\n  0x00\n    /* \"#utility.yul\":2037:2103   */\n  tag_59\n    /* \"#utility.yul\":2053:2102   */\n  tag_60\n    /* \"#utility.yul\":2095:2101   */\n  dup5\n    /* \"#utility.yul\":2053:2102   */\n  tag_29\n  jump\t// in\ntag_60:\n    /* \"#utility.yul\":2037:2103   */\n  tag_28\n  jump\t// in\ntag_59:\n    /* \"#utility.yul\":2028:2103   */\n  swap1\n  pop\n    /* \"#utility.yul\":2126:2132   */\n  dup3\n    /* \"#utility.yul\":2119:2124   */\n  dup2\n    /* \"#utility.yul\":2112:2133   */\n  mstore\n    /* \"#utility.yul\":2164:2168   */\n  0x20\n    /* \"#utility.yul\":2157:2162   */\n  dup2\n    /* \"#utility.yul\":2153:2169   */\n  add\n    /* \"#utility.yul\":2202:2205   */\n  dup5\n    /* \"#utility.yul\":2193:2199   */\n  dup5\n    /* \"#utility.yul\":2188:2191   */\n  dup5\n    /* \"#utility.yul\":2184:2200   */\n  add\n    /* \"#utility.yul\":2181:2206   */\n  gt\n    /* \"#utility.yul\":2178:2290   */\n  iszero\n  tag_61\n  jumpi\n    /* \"#utility.yul\":2209:2288   */\n  tag_62\n  tag_24\n  jump\t// in\ntag_62:\n    /* \"#utility.yul\":2178:2290   */\ntag_61:\n    /* \"#utility.yul\":2299:2338   */\n  tag_63\n    /* \"#utility.yul\":2331:2337   */\n  dup5\n    /* \"#utility.yul\":2326:2329   */\n  dup3\n    /* \"#utility.yul\":2321:2324   */\n  dup6\n    /* \"#utility.yul\":2299:2338   */\n  tag_30\n  jump\t// in\ntag_63:\n    /* \"#utility.yul\":2018:2344   */\n  pop\n    /* \"#utility.yul\":1923:2344   */\n  swap4\n  swap3\n  pop\n  pop\n  pop\n  jump\t// out\n    /* \"#utility.yul\":2364:2719   */\ntag_32:\n    /* \"#utility.yul\":2431:2436   */\n  0x00\n    /* \"#utility.yul\":2480:2483   */\n  dup3\n    /* \"#utility.yul\":2473:2477   */\n  0x1f\n    /* \"#utility.yul\":2465:2471   */\n  dup4\n    /* \"#utility.yul\":2461:2478   */\n  add\n    /* \"#utility.yul\":2457:2484   */\n  slt\n    /* \"#utility.yul\":2447:2569   */\n  tag_65\n  jumpi\n    /* \"#utility.yul\":2488:2567   */\n  tag_66\n  tag_23\n  jump\t// in\ntag_66:\n    /* \"#utility.yul\":2447:2569   */\ntag_65:\n    /* \"#utility.yul\":2598:2604   */\n  dup2\n    /* \"#utility.yul\":2592:2605   */\n  mload\n    /* \"#utility.yul\":2623:2713   */\n  tag_67\n    /* \"#utility.yul\":2709:2712   */\n  dup5\n    /* \"#utility.yul\":2701:2707   */\n  dup3\n    /* \"#utility.yul\":2694:2698   */\n  0x20\n    /* \"#utility.yul\":2686:2692   */\n  dup7\n    /* \"#utility.yul\":2682:2699   */\n  add\n    /* \"#utility.yul\":2623:2713   */\n  tag_31\n  jump\t// in\ntag_67:\n    /* \"#utility.yul\":2614:2713   */\n  swap2\n  pop\n    /* \"#utility.yul\":2437:2719   */\n  pop\n    /* \"#utility.yul\":2364:2719   */\n  swap3\n  swap2\n  pop\n  pop\n  jump\t// out\n    /* \"#utility.yul\":2725:3249   */\ntag_3:\n    /* \"#utility.yul\":2805:2811   */\n  0x00\n    /* \"#utility.yul\":2854:2856   */\n  0x20\n    /* \"#utility.yul\":2842:2851   */\n  dup3\n    /* \"#utility.yul\":2833:2840   */\n  dup5\n    /* \"#utility.yul\":2829:2852   */\n  sub\n    /* \"#utility.yul\":2825:2857   */\n  slt\n    /* \"#utility.yul\":2822:2941   */\n  iszero\n  tag_69\n  jumpi\n    /* \"#utility.yul\":2860:2939   */\n  tag_70\n  tag_21\n  jump\t// in\ntag_70:\n    /* \"#utility.yul\":2822:2941   */\ntag_69:\n    /* \"#utility.yul\":3001:3002   */\n  0x00\n    /* \"#utility.yul\":2990:2999   */\n  dup3\n    /* \"#utility.yul\":2986:3003   */\n  add\n    /* \"#utility.yul\":2980:3004   */\n  mload\n    /* \"#utility.yul\":3031:3049   */\n  0xffffffffffffffff\n    /* \"#utility.yul\":3023:3029   */\n  dup2\n    /* \"#utility.yul\":3020:3050   */\n  gt\n    /* \"#utility.yul\":3017:3134   */\n  iszero\n  tag_71\n  jumpi\n    /* \"#utility.yul\":3053:3132   */\n  tag_72\n  tag_22\n  jump\t// in\ntag_72:\n    /* \"#utility.yul\":3017:3134   */\ntag_71:\n    /* \"#utility.yul\":3158:3232   */\n  tag_73\n    /* \"#utility.yul\":3224:3231   */\n  dup5\n    /* \"#utility.yul\":3215:3221   */\n  dup3\n    /* \"#utility.yul\":3204:3213   */\n  dup6\n    /* \"#utility.yul\":3200:3222   */\n  add\n    /* \"#utility.yul\":3158:3232   */\n  tag_32\n  jump\t// in\ntag_73:\n    /* \"#utility.yul\":3148:3232   */\n  swap2\n  pop\n    /* \"#utility.yul\":2951:3242   */\n  pop\n    /* \"#utility.yul\":2725:3249   */\n  swap3\n  swap2\n  pop\n  pop\n  jump\t// out\n    /* \"#utility.yul\":3255:3435   */\ntag_33:\n    /* \"#utility.yul\":3303:3380   */\n  0x4e487b7100000000000000000000000000000000000000000000000000000000\n    /* \"#utility.yul\":3300:3301   */\n  0x00\n    /* \"#utility.yul\":3293:3381   */\n  mstore\n    /* \"#utility.yul\":3400:3404   */\n  0x22\n    /* \"#utility.yul\":3397:3398   */\n  0x04\n    /* \"#utility.yul\":3390:3405   */\n  mstore\n    /* \"#utility.yul\":3424:3428   */\n  0x24\n    /* \"#utility.yul\":3421:3422   */\n  0x00\n    /* \"#utility.yul\":3414:3429   */\n  revert\n    /* \"#utility.yul\":3441:3761   */\ntag_10:\n    /* \"#utility.yul\":3485:3491   */\n  0x00\n    /* \"#utility.yul\":3522:3523   */\n  0x02\n    /* \"#utility.yul\":3516:3520   */\n  dup3\n    /* \"#utility.yul\":3512:3524   */\n  div\n    /* \"#utility.yul\":3502:3524   */\n  swap1\n  pop\n    /* \"#utility.yul\":3569:3570   */\n  0x01\n    /* \"#utility.yul\":3563:3567   */\n  dup3\n    /* \"#utility.yul\":3559:3571   */\n  and\n    /* \"#utility.yul\":3590:3608   */\n  dup1\n    /* \"#utility.yul\":3580:3661   */\n  tag_76\n  jumpi\n    /* \"#utility.yul\":3646:3650   */\n  0x7f\n    /* \"#utility.yul\":3638:3644   */\n  dup3\n    /* \"#utility.yul\":3634:3651   */\n  and\n    /* \"#utility.yul\":3624:3651   */\n  swap2\n  pop\n    /* \"#utility.yul\":3580:3661   */\ntag_76:\n    /* \"#utility.yul\":3708:3710   */\n  0x20\n    /* \"#utility.yul\":3700:3706   */\n  dup3\n    /* \"#utility.yul\":3697:3711   */\n  lt\n    /* \"#utility.yul\":3677:3695   */\n  dup2\n    /* \"#utility.yul\":3674:3712   */\n  eq\n    /* \"#utility.yul\":3671:3755   */\n  iszero\n  tag_77\n  jumpi\n    /* \"#utility.yul\":3727:3745   */\n  tag_78\n  tag_33\n  jump\t// in\ntag_78:\n    /* \"#utility.yul\":3671:3755   */\ntag_77:\n    /* \"#utility.yul\":3492:3761   */\n  pop\n    /* \"#utility.yul\":3441:3761   */\n  swap2\n  swap1\n  pop\n  jump\t// out\n    /* \"Main.sol\":2099:4137  contract ProducerContract {... */\ntag_8:\n  dataSize(sub_0)\n  dup1\n  dataOffset(sub_0)\n  0x00\n  codecopy\n  0x00\n  return\nstop\n\nsub_0: assembly {\n        /* \"Main.sol\":2099:4137  contract ProducerContract {... */\n      mstore(0x40, 0x80)\n      callvalue\n      dup1\n      iszero\n      tag_1\n      jumpi\n      0x00\n      dup1\n      revert\n    tag_1:\n      pop\n      jumpi(tag_2, lt(calldatasize, 0x04))\n      shr(0xe0, calldataload(0x00))\n      dup1\n      0x8bc7fa9c\n      gt\n      tag_12\n      jumpi\n      dup1\n      0x8bc7fa9c\n      eq\n      tag_7\n      jumpi\n      dup1\n      0x8d8e11dc\n      eq\n      tag_8\n      jumpi\n      dup1\n      0xa7ca997d\n      eq\n      tag_9\n      jumpi\n      dup1\n      0xc93bfbb5\n      eq\n      tag_10\n      jumpi\n      dup1\n      0xe4177269\n      eq\n      tag_11\n      jumpi\n      jump(tag_2)\n    tag_12:\n      dup1\n      0x1d48dc90\n      eq\n      tag_3\n      jumpi\n      dup1\n      0x6605ff66\n      eq\n      tag_4\n      jumpi\n      dup1\n      0x70c9f1a5\n      eq\n      tag_5\n      jumpi\n      dup1\n      0x8a23163f\n      eq\n      tag_6\n      jumpi\n    tag_2:\n      0x00\n      dup1\n      revert\n        /* \"Main.sol\":3787:3877  function getAllCrops() public view returns (Crop[] memory) {... */\n    tag_3:\n      tag_13\n      tag_14\n      jump\t// in\n    tag_13:\n      mload(0x40)\n      tag_15\n      swap2\n      swap1\n      tag_16\n      jump\t// in\n    tag_15:\n      mload(0x40)\n      dup1\n      swap2\n      sub\n      swap1\n      return\n        /* \"Main.sol\":2229:2253  int256 public totalSales */\n    tag_4:\n      tag_17\n      tag_18\n      jump\t// in\n    tag_17:\n      mload(0x40)\n      tag_19\n      swap2\n      swap1\n      tag_20\n      jump\t// in\n    tag_19:\n      mload(0x40)\n      dup1\n      swap2\n      sub\n      swap1\n      return\n        /* \"Main.sol\":2203:2222  Crop[] public crops */\n    tag_5:\n      tag_21\n      0x04\n      dup1\n      calldatasize\n      sub\n      dup2\n      add\n      swap1\n      tag_22\n      swap2\n      swap1\n      tag_23\n      jump\t// in\n    tag_22:\n      tag_24\n      jump\t// in\n    tag_21:\n      mload(0x40)\n      tag_25\n      swap5\n      swap4\n      swap3\n      swap2\n      swap1\n      tag_26\n      jump\t// in\n    tag_25:\n      mload(0x40)\n      dup1\n      swap2\n      sub\n      swap1\n      return\n        /* \"Main.sol\":3376:3781  function sellCrop(uint256 _index, int256 _quantity) public {... */\n    tag_6:\n      tag_27\n      0x04\n      dup1\n      calldatasize\n      sub\n      dup2\n      add\n      swap1\n      tag_28\n      swap2\n      swap1\n      tag_29\n      jump\t// in\n    tag_28:\n      tag_30\n      jump\t// in\n    tag_27:\n      stop\n        /* \"Main.sol\":2988:3368  function getCrop(... */\n    tag_7:\n      tag_31\n      0x04\n      dup1\n      calldatasize\n      sub\n      dup2\n      add\n      swap1\n      tag_32\n      swap2\n      swap1\n      tag_23\n      jump\t// in\n    tag_32:\n      tag_33\n      jump\t// in\n    tag_31:\n      mload(0x40)\n      tag_34\n      swap5\n      swap4\n      swap3\n      swap2\n      swap1\n      tag_35\n      jump\t// in\n    tag_34:\n      mload(0x40)\n      dup1\n      swap2\n      sub\n      swap1\n      return\n        /* \"Main.sol\":2719:2980  function addCrop(... */\n    tag_8:\n      tag_36\n      0x04\n      dup1\n      calldatasize\n      sub\n      dup2\n      add\n      swap1\n      tag_37\n      swap2\n      swap1\n      tag_38\n      jump\t// in\n    tag_37:\n      tag_39\n      jump\t// in\n    tag_36:\n      stop\n        /* \"Main.sol\":2132:2163  address public prroducerAddress */\n    tag_9:\n      tag_40\n      tag_41\n      jump\t// in\n    tag_40:\n      mload(0x40)\n      tag_42\n      swap2\n      swap1\n      tag_43\n      jump\t// in\n    tag_42:\n      mload(0x40)\n      dup1\n      swap2\n      sub\n      swap1\n      return\n        /* \"Main.sol\":3885:4134  function adjustCropQuantity(... */\n    tag_10:\n      tag_44\n      0x04\n      dup1\n      calldatasize\n      sub\n      dup2\n      add\n      swap1\n      tag_45\n      swap2\n      swap1\n      tag_29\n      jump\t// in\n    tag_45:\n      tag_46\n      jump\t// in\n    tag_44:\n      stop\n        /* \"Main.sol\":2170:2196  string public producerName */\n    tag_11:\n      tag_47\n      tag_48\n      jump\t// in\n    tag_47:\n      mload(0x40)\n      tag_49\n      swap2\n      swap1\n      tag_50\n      jump\t// in\n    tag_49:\n      mload(0x40)\n      dup1\n      swap2\n      sub\n      swap1\n      return\n        /* \"Main.sol\":3787:3877  function getAllCrops() public view returns (Crop[] memory) {... */\n    tag_14:\n        /* \"Main.sol\":3831:3844  Crop[] memory */\n      0x60\n        /* \"Main.sol\":3864:3869  crops */\n      0x02\n        /* \"Main.sol\":3857:3869  return crops */\n      dup1\n      sload\n      dup1\n      0x20\n      mul\n      0x20\n      add\n      mload(0x40)\n      swap1\n      dup2\n      add\n      0x40\n      mstore\n      dup1\n      swap3\n      swap2\n      swap1\n      dup2\n      dup2\n      mstore\n      0x20\n      add\n      0x00\n      swap1\n    tag_52:\n      dup3\n      dup3\n      lt\n      iszero\n      tag_53\n      jumpi\n      dup4\n      dup3\n      swap1\n      0x00\n      mstore\n      keccak256(0x00, 0x20)\n      swap1\n      0x04\n      mul\n      add\n      mload(0x40)\n      dup1\n      0x80\n      add\n      0x40\n      mstore\n      swap1\n      dup2\n      0x00\n      dup3\n      add\n      dup1\n      sload\n      tag_55\n      swap1\n      tag_56\n      jump\t// in\n    tag_55:\n      dup1\n      0x1f\n      add\n      0x20\n      dup1\n      swap2\n      div\n      mul\n      0x20\n      add\n      mload(0x40)\n      swap1\n      dup2\n      add\n      0x40\n      mstore\n      dup1\n      swap3\n      swap2\n      swap1\n      dup2\n      dup2\n      mstore\n      0x20\n      add\n      dup3\n      dup1\n      sload\n      tag_57\n      swap1\n      tag_56\n      jump\t// in\n    tag_57:\n      dup1\n      iszero\n      tag_58\n      jumpi\n      dup1\n      0x1f\n      lt\n      tag_59\n      jumpi\n      0x0100\n      dup1\n      dup4\n      sload\n      div\n      mul\n      dup4\n      mstore\n      swap2\n      0x20\n      add\n      swap2\n      jump(tag_58)\n    tag_59:\n      dup3\n      add\n      swap2\n      swap1\n      0x00\n      mstore\n      keccak256(0x00, 0x20)\n      swap1\n    tag_60:\n      dup2\n      sload\n      dup2\n      mstore\n      swap1\n      0x01\n      add\n      swap1\n      0x20\n      add\n      dup1\n      dup4\n      gt\n      tag_60\n      jumpi\n      dup3\n      swap1\n      sub\n      0x1f\n      and\n      dup3\n      add\n      swap2\n    tag_58:\n      pop\n      pop\n      pop\n      pop\n      pop\n      dup2\n      mstore\n      0x20\n      add\n      0x01\n      dup3\n      add\n      dup1\n      sload\n      tag_61\n      swap1\n      tag_56\n      jump\t// in\n    tag_61:\n      dup1\n      0x1f\n      add\n      0x20\n      dup1\n      swap2\n      div\n      mul\n      0x20\n      add\n      mload(0x40)\n      swap1\n      dup2\n      add\n      0x40\n      mstore\n      dup1\n      swap3\n      swap2\n      swap1\n      dup2\n      dup2\n      mstore\n      0x20\n      add\n      dup3\n      dup1\n      sload\n      tag_62\n      swap1\n      tag_56\n      jump\t// in\n    tag_62:\n      dup1\n      iszero\n      tag_63\n      jumpi\n      dup1\n      0x1f\n      lt\n      tag_64\n      jumpi\n      0x0100\n      dup1\n      dup4\n      sload\n      div\n      mul\n      dup4\n      mstore\n      swap2\n      0x20\n      add\n      swap2\n      jump(tag_63)\n    tag_64:\n      dup3\n      add\n      swap2\n      swap1\n      0x00\n      mstore\n      keccak256(0x00, 0x20)\n      swap1\n    tag_65:\n      dup2\n      sload\n      dup2\n      mstore\n      swap1\n      0x01\n      add\n      swap1\n      0x20\n      add\n      dup1\n      dup4\n      gt\n      tag_65\n      jumpi\n      dup3\n      swap1\n      sub\n      0x1f\n      and\n      dup3\n      add\n      swap2\n    tag_63:\n      pop\n      pop\n      pop\n      pop\n      pop\n      dup2\n      mstore\n      0x20\n      add\n      0x02\n      dup3\n      add\n      sload\n      dup2\n      mstore\n      0x20\n      add\n      0x03\n      dup3\n      add\n      sload\n      dup2\n      mstore\n      pop\n      pop\n      dup2\n      mstore\n      0x20\n      add\n      swap1\n      0x01\n      add\n      swap1\n      jump(tag_52)\n    tag_53:\n      pop\n      pop\n      pop\n      pop\n      swap1\n      pop\n        /* \"Main.sol\":3787:3877  function getAllCrops() public view returns (Crop[] memory) {... */\n      swap1\n      jump\t// out\n        /* \"Main.sol\":2229:2253  int256 public totalSales */\n    tag_18:\n      sload(0x03)\n      dup2\n      jump\t// out\n        /* \"Main.sol\":2203:2222  Crop[] public crops */\n    tag_24:\n      0x02\n      dup2\n      dup2\n      sload\n      dup2\n      lt\n      tag_66\n      jumpi\n      0x00\n      dup1\n      revert\n    tag_66:\n      swap1\n      0x00\n      mstore\n      keccak256(0x00, 0x20)\n      swap1\n      0x04\n      mul\n      add\n      0x00\n      swap2\n      pop\n      swap1\n      pop\n      dup1\n      0x00\n      add\n      dup1\n      sload\n      tag_68\n      swap1\n      tag_56\n      jump\t// in\n    tag_68:\n      dup1\n      0x1f\n      add\n      0x20\n      dup1\n      swap2\n      div\n      mul\n      0x20\n      add\n      mload(0x40)\n      swap1\n      dup2\n      add\n      0x40\n      mstore\n      dup1\n      swap3\n      swap2\n      swap1\n      dup2\n      dup2\n      mstore\n      0x20\n      add\n      dup3\n      dup1\n      sload\n      tag_69\n      swap1\n      tag_56\n      jump\t// in\n    tag_69:\n      dup1\n      iszero\n      tag_70\n      jumpi\n      dup1\n      0x1f\n      lt\n      tag_71\n      jumpi\n      0x0100\n      dup1\n      dup4\n      sload\n      div\n      mul\n      dup4\n      mstore\n      swap2\n      0x20\n      add\n      swap2\n      jump(tag_70)\n    tag_71:\n      dup3\n      add\n      swap2\n      swap1\n      0x00\n      mstore\n      keccak256(0x00, 0x20)\n      swap1\n    tag_72:\n      dup2\n      sload\n      dup2\n      mstore\n      swap1\n      0x01\n      add\n      swap1\n      0x20\n      add\n      dup1\n      dup4\n      gt\n      tag_72\n      jumpi\n      dup3\n      swap1\n      sub\n      0x1f\n      and\n      dup3\n      add\n      swap2\n    tag_70:\n      pop\n      pop\n      pop\n      pop\n      pop\n      swap1\n      dup1\n      0x01\n      add\n      dup1\n      sload\n      tag_73\n      swap1\n      tag_56\n      jump\t// in\n    tag_73:\n      dup1\n      0x1f\n      add\n      0x20\n      dup1\n      swap2\n      div\n      mul\n      0x20\n      add\n      mload(0x40)\n      swap1\n      dup2\n      add\n      0x40\n      mstore\n      dup1\n      swap3\n      swap2\n      swap1\n      dup2\n      dup2\n      mstore\n      0x20\n      add\n      dup3\n      dup1\n      sload\n      tag_74\n      swap1\n      tag_56\n      jump\t// in\n    tag_74:\n      dup1\n      iszero\n      tag_75\n      jumpi\n      dup1\n      0x1f\n      lt\n      tag_76\n      jumpi\n      0x0100\n      dup1\n      dup4\n      sload\n      div\n      mul\n      dup4\n      mstore\n      swap2\n      0x20\n      add\n      swap2\n      jump(tag_75)\n    tag_76:\n      dup3\n      add\n      swap2\n      swap1\n      0x00\n      mstore\n      keccak256(0x00, 0x20)\n      swap1\n    tag_77:\n      dup2\n      sload\n      dup2\n      mstore\n      swap1\n      0x01\n      add\n      swap1\n      0x20\n      add\n      dup1\n      dup4\n      gt\n      tag_77\n      jumpi\n      dup3\n      swap1\n      sub\n      0x1f\n      and\n      dup3\n      add\n      swap2\n    tag_75:\n      pop\n      pop\n      pop\n      pop\n      pop\n      swap1\n      dup1\n      0x02\n      add\n      sload\n      swap1\n      dup1\n      0x03\n      add\n      sload\n      swap1\n      pop\n      dup5\n      jump\t// out\n        /* \"Main.sol\":3376:3781  function sellCrop(uint256 _index, int256 _quantity) public {... */\n    tag_30:\n        /* \"Main.sol\":3463:3468  crops */\n      0x02\n        /* \"Main.sol\":3463:3475  crops.length */\n      dup1\n      sload\n      swap1\n      pop\n        /* \"Main.sol\":3454:3460  _index */\n      dup3\n        /* \"Main.sol\":3454:3475  _index < crops.length */\n      lt\n        /* \"Main.sol\":3446:3499  require(_index < crops.length, \"Index out of bounds\") */\n      tag_79\n      jumpi\n      mload(0x40)\n      0x08c379a000000000000000000000000000000000000000000000000000000000\n      dup2\n      mstore\n      0x04\n      add\n      tag_80\n      swap1\n      tag_81\n      jump\t// in\n    tag_80:\n      mload(0x40)\n      dup1\n      swap2\n      sub\n      swap1\n      revert\n    tag_79:\n        /* \"Main.sol\":3545:3550  crops */\n      0x02\n        /* \"Main.sol\":3551:3557  _index */\n      dup3\n        /* \"Main.sol\":3545:3558  crops[_index] */\n      dup2\n      sload\n      dup2\n      lt\n      tag_82\n      jumpi\n      tag_83\n      tag_84\n      jump\t// in\n    tag_83:\n    tag_82:\n      swap1\n      0x00\n      mstore\n      keccak256(0x00, 0x20)\n      swap1\n      0x04\n      mul\n      add\n        /* \"Main.sol\":3545:3571  crops[_index].cropQuantity */\n      0x03\n      add\n      sload\n        /* \"Main.sol\":3532:3541  _quantity */\n      dup2\n        /* \"Main.sol\":3532:3571  _quantity <= crops[_index].cropQuantity */\n      sgt\n      iszero\n        /* \"Main.sol\":3510:3620  require(... */\n      tag_86\n      jumpi\n      mload(0x40)\n      0x08c379a000000000000000000000000000000000000000000000000000000000\n      dup2\n      mstore\n      0x04\n      add\n      tag_87\n      swap1\n      tag_88\n      jump\t// in\n    tag_87:\n      mload(0x40)\n      dup1\n      swap2\n      sub\n      swap1\n      revert\n    tag_86:\n        /* \"Main.sol\":3633:3650  int256 totalPrice */\n      0x00\n        /* \"Main.sol\":3679:3688  _quantity */\n      dup2\n        /* \"Main.sol\":3653:3658  crops */\n      0x02\n        /* \"Main.sol\":3659:3665  _index */\n      dup5\n        /* \"Main.sol\":3653:3666  crops[_index] */\n      dup2\n      sload\n      dup2\n      lt\n      tag_89\n      jumpi\n      tag_90\n      tag_84\n      jump\t// in\n    tag_90:\n    tag_89:\n      swap1\n      0x00\n      mstore\n      keccak256(0x00, 0x20)\n      swap1\n      0x04\n      mul\n      add\n        /* \"Main.sol\":3653:3676  crops[_index].cropPrice */\n      0x02\n      add\n      sload\n        /* \"Main.sol\":3653:3688  crops[_index].cropPrice * _quantity */\n      tag_92\n      swap2\n      swap1\n      tag_93\n      jump\t// in\n    tag_92:\n        /* \"Main.sol\":3633:3688  int256 totalPrice = crops[_index].cropPrice * _quantity */\n      swap1\n      pop\n        /* \"Main.sol\":3729:3738  _quantity */\n      dup2\n        /* \"Main.sol\":3699:3704  crops */\n      0x02\n        /* \"Main.sol\":3705:3711  _index */\n      dup5\n        /* \"Main.sol\":3699:3712  crops[_index] */\n      dup2\n      sload\n      dup2\n      lt\n      tag_94\n      jumpi\n      tag_95\n      tag_84\n      jump\t// in\n    tag_95:\n    tag_94:\n      swap1\n      0x00\n      mstore\n      keccak256(0x00, 0x20)\n      swap1\n      0x04\n      mul\n      add\n        /* \"Main.sol\":3699:3725  crops[_index].cropQuantity */\n      0x03\n      add\n      0x00\n        /* \"Main.sol\":3699:3738  crops[_index].cropQuantity -= _quantity */\n      dup3\n      dup3\n      sload\n      tag_97\n      swap2\n      swap1\n      tag_98\n      jump\t// in\n    tag_97:\n      swap3\n      pop\n      pop\n      dup2\n      swap1\n      sstore\n      pop\n        /* \"Main.sol\":3763:3773  totalPrice */\n      dup1\n        /* \"Main.sol\":3749:3759  totalSales */\n      0x03\n      0x00\n        /* \"Main.sol\":3749:3773  totalSales += totalPrice */\n      dup3\n      dup3\n      sload\n      tag_99\n      swap2\n      swap1\n      tag_100\n      jump\t// in\n    tag_99:\n      swap3\n      pop\n      pop\n      dup2\n      swap1\n      sstore\n      pop\n        /* \"Main.sol\":3435:3781  {... */\n      pop\n        /* \"Main.sol\":3376:3781  function sellCrop(uint256 _index, int256 _quantity) public {... */\n      pop\n      pop\n      jump\t// out\n        /* \"Main.sol\":2988:3368  function getCrop(... */\n    tag_33:\n        /* \"Main.sol\":3058:3071  string memory */\n      0x60\n        /* \"Main.sol\":3073:3079  int256 */\n      0x00\n        /* \"Main.sol\":3081:3094  string memory */\n      0x60\n        /* \"Main.sol\":3096:3102  int256 */\n      0x00\n        /* \"Main.sol\":3132:3137  crops */\n      0x02\n        /* \"Main.sol\":3132:3144  crops.length */\n      dup1\n      sload\n      swap1\n      pop\n        /* \"Main.sol\":3123:3129  _index */\n      dup6\n        /* \"Main.sol\":3123:3144  _index < crops.length */\n      lt\n        /* \"Main.sol\":3115:3168  require(_index < crops.length, \"Index out of bounds\") */\n      tag_102\n      jumpi\n      mload(0x40)\n      0x08c379a000000000000000000000000000000000000000000000000000000000\n      dup2\n      mstore\n      0x04\n      add\n      tag_103\n      swap1\n      tag_81\n      jump\t// in\n    tag_103:\n      mload(0x40)\n      dup1\n      swap2\n      sub\n      swap1\n      revert\n    tag_102:\n        /* \"Main.sol\":3179:3195  Crop memory crop */\n      0x00\n        /* \"Main.sol\":3198:3203  crops */\n      0x02\n        /* \"Main.sol\":3204:3210  _index */\n      dup7\n        /* \"Main.sol\":3198:3211  crops[_index] */\n      dup2\n      sload\n      dup2\n      lt\n      tag_104\n      jumpi\n      tag_105\n      tag_84\n      jump\t// in\n    tag_105:\n    tag_104:\n      swap1\n      0x00\n      mstore\n      keccak256(0x00, 0x20)\n      swap1\n      0x04\n      mul\n      add\n        /* \"Main.sol\":3179:3211  Crop memory crop = crops[_index] */\n      mload(0x40)\n      dup1\n      0x80\n      add\n      0x40\n      mstore\n      swap1\n      dup2\n      0x00\n      dup3\n      add\n      dup1\n      sload\n      tag_107\n      swap1\n      tag_56\n      jump\t// in\n    tag_107:\n      dup1\n      0x1f\n      add\n      0x20\n      dup1\n      swap2\n      div\n      mul\n      0x20\n      add\n      mload(0x40)\n      swap1\n      dup2\n      add\n      0x40\n      mstore\n      dup1\n      swap3\n      swap2\n      swap1\n      dup2\n      dup2\n      mstore\n      0x20\n      add\n      dup3\n      dup1\n      sload\n      tag_108\n      swap1\n      tag_56\n      jump\t// in\n    tag_108:\n      dup1\n      iszero\n      tag_109\n      jumpi\n      dup1\n      0x1f\n      lt\n      tag_110\n      jumpi\n      0x0100\n      dup1\n      dup4\n      sload\n      div\n      mul\n      dup4\n      mstore\n      swap2\n      0x20\n      add\n      swap2\n      jump(tag_109)\n    tag_110:\n      dup3\n      add\n      swap2\n      swap1\n      0x00\n      mstore\n      keccak256(0x00, 0x20)\n      swap1\n    tag_111:\n      dup2\n      sload\n      dup2\n      mstore\n      swap1\n      0x01\n      add\n      swap1\n      0x20\n      add\n      dup1\n      dup4\n      gt\n      tag_111\n      jumpi\n      dup3\n      swap1\n      sub\n      0x1f\n      and\n      dup3\n      add\n      swap2\n    tag_109:\n      pop\n      pop\n      pop\n      pop\n      pop\n      dup2\n      mstore\n      0x20\n      add\n      0x01\n      dup3\n      add\n      dup1\n      sload\n      tag_112\n      swap1\n      tag_56\n      jump\t// in\n    tag_112:\n      dup1\n      0x1f\n      add\n      0x20\n      dup1\n      swap2\n      div\n      mul\n      0x20\n      add\n      mload(0x40)\n      swap1\n      dup2\n      add\n      0x40\n      mstore\n      dup1\n      swap3\n      swap2\n      swap1\n      dup2\n      dup2\n      mstore\n      0x20\n      add\n      dup3\n      dup1\n      sload\n      tag_113\n      swap1\n      tag_56\n      jump\t// in\n    tag_113:\n      dup1\n      iszero\n      tag_114\n      jumpi\n      dup1\n      0x1f\n      lt\n      tag_115\n      jumpi\n      0x0100\n      dup1\n      dup4\n      sload\n      div\n      mul\n      dup4\n      mstore\n      swap2\n      0x20\n      add\n      swap2\n      jump(tag_114)\n    tag_115:\n      dup3\n      add\n      swap2\n      swap1\n      0x00\n      mstore\n      keccak256(0x00, 0x20)\n      swap1\n    tag_116:\n      dup2\n      sload\n      dup2\n      mstore\n      swap1\n      0x01\n      add\n      swap1\n      0x20\n      add\n      dup1\n      dup4\n      gt\n      tag_116\n      jumpi\n      dup3\n      swap1\n      sub\n      0x1f\n      and\n      dup3\n      add\n      swap2\n    tag_114:\n      pop\n      pop\n      pop\n      pop\n      pop\n      dup2\n      mstore\n      0x20\n      add\n      0x02\n      dup3\n      add\n      sload\n      dup2\n      mstore\n      0x20\n      add\n      0x03\n      dup3\n      add\n      sload\n      dup2\n      mstore\n      pop\n      pop\n      swap1\n      pop\n        /* \"Main.sol\":3244:3248  crop */\n      dup1\n        /* \"Main.sol\":3244:3257  crop.cropName */\n      0x00\n      add\n      mload\n        /* \"Main.sol\":3272:3276  crop */\n      dup2\n        /* \"Main.sol\":3272:3286  crop.cropPrice */\n      0x40\n      add\n      mload\n        /* \"Main.sol\":3301:3305  crop */\n      dup3\n        /* \"Main.sol\":3301:3317  crop.cropQuality */\n      0x20\n      add\n      mload\n        /* \"Main.sol\":3332:3336  crop */\n      dup4\n        /* \"Main.sol\":3332:3349  crop.cropQuantity */\n      0x60\n      add\n      mload\n        /* \"Main.sol\":3222:3360  return (... */\n      swap5\n      pop\n      swap5\n      pop\n      swap5\n      pop\n      swap5\n      pop\n      pop\n        /* \"Main.sol\":2988:3368  function getCrop(... */\n      swap2\n      swap4\n      pop\n      swap2\n      swap4\n      jump\t// out\n        /* \"Main.sol\":2719:2980  function addCrop(... */\n    tag_39:\n        /* \"Main.sol\":2473:2489  prroducerAddress */\n      0x00\n      dup1\n      sload\n      swap1\n      0x0100\n      exp\n      swap1\n      div\n      0xffffffffffffffffffffffffffffffffffffffff\n      and\n        /* \"Main.sol\":2459:2489  msg.sender == prroducerAddress */\n      0xffffffffffffffffffffffffffffffffffffffff\n      and\n        /* \"Main.sol\":2459:2469  msg.sender */\n      caller\n        /* \"Main.sol\":2459:2489  msg.sender == prroducerAddress */\n      0xffffffffffffffffffffffffffffffffffffffff\n      and\n      eq\n        /* \"Main.sol\":2437:2555  require(... */\n      tag_118\n      jumpi\n      mload(0x40)\n      0x08c379a000000000000000000000000000000000000000000000000000000000\n      dup2\n      mstore\n      0x04\n      add\n      tag_119\n      swap1\n      tag_120\n      jump\t// in\n    tag_119:\n      mload(0x40)\n      dup1\n      swap2\n      sub\n      swap1\n      revert\n    tag_118:\n        /* \"Main.sol\":2904:2909  crops */\n      0x02\n        /* \"Main.sol\":2915:2971  Crop(_cropName, _cropQuality, _cropPrice, _cropQuantity) */\n      mload(0x40)\n      dup1\n      0x80\n      add\n      0x40\n      mstore\n      dup1\n        /* \"Main.sol\":2920:2929  _cropName */\n      dup7\n        /* \"Main.sol\":2915:2971  Crop(_cropName, _cropQuality, _cropPrice, _cropQuantity) */\n      dup2\n      mstore\n      0x20\n      add\n        /* \"Main.sol\":2931:2943  _cropQuality */\n      dup6\n        /* \"Main.sol\":2915:2971  Crop(_cropName, _cropQuality, _cropPrice, _cropQuantity) */\n      dup2\n      mstore\n      0x20\n      add\n        /* \"Main.sol\":2945:2955  _cropPrice */\n      dup5\n        /* \"Main.sol\":2915:2971  Crop(_cropName, _cropQuality, _cropPrice, _cropQuantity) */\n      dup2\n      mstore\n      0x20\n      add\n        /* \"Main.sol\":2957:2970  _cropQuantity */\n      dup4\n        /* \"Main.sol\":2915:2971  Crop(_cropName, _cropQuality, _cropPrice, _cropQuantity) */\n      dup2\n      mstore\n      pop\n        /* \"Main.sol\":2904:2972  crops.push(Crop(_cropName, _cropQuality, _cropPrice, _cropQuantity)) */\n      swap1\n      dup1\n      0x01\n      dup2\n      sload\n      add\n      dup1\n      dup3\n      sstore\n      dup1\n      swap2\n      pop\n      pop\n      0x01\n      swap1\n      sub\n      swap1\n      0x00\n      mstore\n      keccak256(0x00, 0x20)\n      swap1\n      0x04\n      mul\n      add\n      0x00\n      swap1\n      swap2\n      swap1\n      swap2\n      swap1\n      swap2\n      pop\n      0x00\n      dup3\n      add\n      mload\n      dup2\n      0x00\n      add\n      swap1\n      dup1\n      mload\n      swap1\n      0x20\n      add\n      swap1\n      tag_123\n      swap3\n      swap2\n      swap1\n      tag_124\n      jump\t// in\n    tag_123:\n      pop\n      0x20\n      dup3\n      add\n      mload\n      dup2\n      0x01\n      add\n      swap1\n      dup1\n      mload\n      swap1\n      0x20\n      add\n      swap1\n      tag_125\n      swap3\n      swap2\n      swap1\n      tag_124\n      jump\t// in\n    tag_125:\n      pop\n      0x40\n      dup3\n      add\n      mload\n      dup2\n      0x02\n      add\n      sstore\n      0x60\n      dup3\n      add\n      mload\n      dup2\n      0x03\n      add\n      sstore\n      pop\n      pop\n        /* \"Main.sol\":2719:2980  function addCrop(... */\n      pop\n      pop\n      pop\n      pop\n      jump\t// out\n        /* \"Main.sol\":2132:2163  address public prroducerAddress */\n    tag_41:\n      0x00\n      dup1\n      sload\n      swap1\n      0x0100\n      exp\n      swap1\n      div\n      0xffffffffffffffffffffffffffffffffffffffff\n      and\n      dup2\n      jump\t// out\n        /* \"Main.sol\":3885:4134  function adjustCropQuantity(... */\n    tag_46:\n        /* \"Main.sol\":2473:2489  prroducerAddress */\n      0x00\n      dup1\n      sload\n      swap1\n      0x0100\n      exp\n      swap1\n      div\n      0xffffffffffffffffffffffffffffffffffffffff\n      and\n        /* \"Main.sol\":2459:2489  msg.sender == prroducerAddress */\n      0xffffffffffffffffffffffffffffffffffffffff\n      and\n        /* \"Main.sol\":2459:2469  msg.sender */\n      caller\n        /* \"Main.sol\":2459:2489  msg.sender == prroducerAddress */\n      0xffffffffffffffffffffffffffffffffffffffff\n      and\n      eq\n        /* \"Main.sol\":2437:2555  require(... */\n      tag_127\n      jumpi\n      mload(0x40)\n      0x08c379a000000000000000000000000000000000000000000000000000000000\n      dup2\n      mstore\n      0x04\n      add\n      tag_128\n      swap1\n      tag_120\n      jump\t// in\n    tag_128:\n      mload(0x40)\n      dup1\n      swap2\n      sub\n      swap1\n      revert\n    tag_127:\n        /* \"Main.sol\":4030:4035  crops */\n      0x02\n        /* \"Main.sol\":4030:4042  crops.length */\n      dup1\n      sload\n      swap1\n      pop\n        /* \"Main.sol\":4021:4027  _index */\n      dup3\n        /* \"Main.sol\":4021:4042  _index < crops.length */\n      lt\n        /* \"Main.sol\":4013:4066  require(_index < crops.length, \"Index out of bounds\") */\n      tag_130\n      jumpi\n      mload(0x40)\n      0x08c379a000000000000000000000000000000000000000000000000000000000\n      dup2\n      mstore\n      0x04\n      add\n      tag_131\n      swap1\n      tag_81\n      jump\t// in\n    tag_131:\n      mload(0x40)\n      dup1\n      swap2\n      sub\n      swap1\n      revert\n    tag_130:\n        /* \"Main.sol\":4107:4126  _additionalQuantity */\n      dup1\n        /* \"Main.sol\":4077:4082  crops */\n      0x02\n        /* \"Main.sol\":4083:4089  _index */\n      dup4\n        /* \"Main.sol\":4077:4090  crops[_index] */\n      dup2\n      sload\n      dup2\n      lt\n      tag_132\n      jumpi\n      tag_133\n      tag_84\n      jump\t// in\n    tag_133:\n    tag_132:\n      swap1\n      0x00\n      mstore\n      keccak256(0x00, 0x20)\n      swap1\n      0x04\n      mul\n      add\n        /* \"Main.sol\":4077:4103  crops[_index].cropQuantity */\n      0x03\n      add\n      0x00\n        /* \"Main.sol\":4077:4126  crops[_index].cropQuantity += _additionalQuantity */\n      dup3\n      dup3\n      sload\n      tag_135\n      swap2\n      swap1\n      tag_100\n      jump\t// in\n    tag_135:\n      swap3\n      pop\n      pop\n      dup2\n      swap1\n      sstore\n      pop\n        /* \"Main.sol\":3885:4134  function adjustCropQuantity(... */\n      pop\n      pop\n      jump\t// out\n        /* \"Main.sol\":2170:2196  string public producerName */\n    tag_48:\n      0x01\n      dup1\n      sload\n      tag_136\n      swap1\n      tag_56\n      jump\t// in\n    tag_136:\n      dup1\n      0x1f\n      add\n      0x20\n      dup1\n      swap2\n      div\n      mul\n      0x20\n      add\n      mload(0x40)\n      swap1\n      dup2\n      add\n      0x40\n      mstore\n      dup1\n      swap3\n      swap2\n      swap1\n      dup2\n      dup2\n      mstore\n      0x20\n      add\n      dup3\n      dup1\n      sload\n      tag_137\n      swap1\n      tag_56\n      jump\t// in\n    tag_137:\n      dup1\n      iszero\n      tag_138\n      jumpi\n      dup1\n      0x1f\n      lt\n      tag_139\n      jumpi\n      0x0100\n      dup1\n      dup4\n      sload\n      div\n      mul\n      dup4\n      mstore\n      swap2\n      0x20\n      add\n      swap2\n      jump(tag_138)\n    tag_139:\n      dup3\n      add\n      swap2\n      swap1\n      0x00\n      mstore\n      keccak256(0x00, 0x20)\n      swap1\n    tag_140:\n      dup2\n      sload\n      dup2\n      mstore\n      swap1\n      0x01\n      add\n      swap1\n      0x20\n      add\n      dup1\n      dup4\n      gt\n      tag_140\n      jumpi\n      dup3\n      swap1\n      sub\n      0x1f\n      and\n      dup3\n      add\n      swap2\n    tag_138:\n      pop\n      pop\n      pop\n      pop\n      pop\n      dup2\n      jump\t// out\n    tag_124:\n      dup3\n      dup1\n      sload\n      tag_141\n      swap1\n      tag_56\n      jump\t// in\n    tag_141:\n      swap1\n      0x00\n      mstore\n      keccak256(0x00, 0x20)\n      swap1\n      0x1f\n      add\n      0x20\n      swap1\n      div\n      dup2\n      add\n      swap3\n      dup3\n      tag_143\n      jumpi\n      0x00\n      dup6\n      sstore\n      jump(tag_142)\n    tag_143:\n      dup3\n      0x1f\n      lt\n      tag_144\n      jumpi\n      dup1\n      mload\n      not(0xff)\n      and\n      dup4\n      dup1\n      add\n      or\n      dup6\n      sstore\n      jump(tag_142)\n    tag_144:\n      dup3\n      dup1\n      add\n      0x01\n      add\n      dup6\n      sstore\n      dup3\n      iszero\n      tag_142\n      jumpi\n      swap2\n      dup3\n      add\n    tag_145:\n      dup3\n      dup2\n      gt\n      iszero\n      tag_146\n      jumpi\n      dup3\n      mload\n      dup3\n      sstore\n      swap2\n      0x20\n      add\n      swap2\n      swap1\n      0x01\n      add\n      swap1\n      jump(tag_145)\n    tag_146:\n    tag_142:\n      pop\n      swap1\n      pop\n      tag_147\n      swap2\n      swap1\n      tag_148\n      jump\t// in\n    tag_147:\n      pop\n      swap1\n      jump\t// out\n    tag_148:\n    tag_149:\n      dup1\n      dup3\n      gt\n      iszero\n      tag_150\n      jumpi\n      0x00\n      dup2\n      0x00\n      swap1\n      sstore\n      pop\n      0x01\n      add\n      jump(tag_149)\n    tag_150:\n      pop\n      swap1\n      jump\t// out\n        /* \"#utility.yul\":7:142   */\n    tag_151:\n        /* \"#utility.yul\":95:101   */\n      0x00\n        /* \"#utility.yul\":129:134   */\n      dup2\n        /* \"#utility.yul\":123:135   */\n      mload\n        /* \"#utility.yul\":113:135   */\n      swap1\n      pop\n        /* \"#utility.yul\":7:142   */\n      swap2\n      swap1\n      pop\n      jump\t// out\n        /* \"#utility.yul\":148:353   */\n    tag_152:\n        /* \"#utility.yul\":268:279   */\n      0x00\n        /* \"#utility.yul\":302:308   */\n      dup3\n        /* \"#utility.yul\":297:300   */\n      dup3\n        /* \"#utility.yul\":290:309   */\n      mstore\n        /* \"#utility.yul\":342:346   */\n      0x20\n        /* \"#utility.yul\":337:340   */\n      dup3\n        /* \"#utility.yul\":333:347   */\n      add\n        /* \"#utility.yul\":318:347   */\n      swap1\n      pop\n        /* \"#utility.yul\":148:353   */\n      swap3\n      swap2\n      pop\n      pop\n      jump\t// out\n        /* \"#utility.yul\":359:512   */\n    tag_153:\n        /* \"#utility.yul\":447:451   */\n      0x00\n        /* \"#utility.yul\":470:473   */\n      dup2\n        /* \"#utility.yul\":462:473   */\n      swap1\n      pop\n        /* \"#utility.yul\":500:504   */\n      0x20\n        /* \"#utility.yul\":495:498   */\n      dup3\n        /* \"#utility.yul\":491:505   */\n      add\n        /* \"#utility.yul\":483:505   */\n      swap1\n      pop\n        /* \"#utility.yul\":359:512   */\n      swap2\n      swap1\n      pop\n      jump\t// out\n        /* \"#utility.yul\":518:617   */\n    tag_154:\n        /* \"#utility.yul\":570:576   */\n      0x00\n        /* \"#utility.yul\":604:609   */\n      dup2\n        /* \"#utility.yul\":598:610   */\n      mload\n        /* \"#utility.yul\":588:610   */\n      swap1\n      pop\n        /* \"#utility.yul\":518:617   */\n      swap2\n      swap1\n      pop\n      jump\t// out\n        /* \"#utility.yul\":623:782   */\n    tag_155:\n        /* \"#utility.yul\":697:708   */\n      0x00\n        /* \"#utility.yul\":731:737   */\n      dup3\n        /* \"#utility.yul\":726:729   */\n      dup3\n        /* \"#utility.yul\":719:738   */\n      mstore\n        /* \"#utility.yul\":771:775   */\n      0x20\n        /* \"#utility.yul\":766:769   */\n      dup3\n        /* \"#utility.yul\":762:776   */\n      add\n        /* \"#utility.yul\":747:776   */\n      swap1\n      pop\n        /* \"#utility.yul\":623:782   */\n      swap3\n      swap2\n      pop\n      pop\n      jump\t// out\n        /* \"#utility.yul\":788:1095   */\n    tag_156:\n        /* \"#utility.yul\":856:857   */\n      0x00\n        /* \"#utility.yul\":866:979   */\n    tag_203:\n        /* \"#utility.yul\":880:886   */\n      dup4\n        /* \"#utility.yul\":877:878   */\n      dup2\n        /* \"#utility.yul\":874:887   */\n      lt\n        /* \"#utility.yul\":866:979   */\n      iszero\n      tag_205\n      jumpi\n        /* \"#utility.yul\":965:966   */\n      dup1\n        /* \"#utility.yul\":960:963   */\n      dup3\n        /* \"#utility.yul\":956:967   */\n      add\n        /* \"#utility.yul\":950:968   */\n      mload\n        /* \"#utility.yul\":946:947   */\n      dup2\n        /* \"#utility.yul\":941:944   */\n      dup5\n        /* \"#utility.yul\":937:948   */\n      add\n        /* \"#utility.yul\":930:969   */\n      mstore\n        /* \"#utility.yul\":902:904   */\n      0x20\n        /* \"#utility.yul\":899:900   */\n      dup2\n        /* \"#utility.yul\":895:905   */\n      add\n        /* \"#utility.yul\":890:905   */\n      swap1\n      pop\n        /* \"#utility.yul\":866:979   */\n      jump(tag_203)\n    tag_205:\n        /* \"#utility.yul\":997:1003   */\n      dup4\n        /* \"#utility.yul\":994:995   */\n      dup2\n        /* \"#utility.yul\":991:1004   */\n      gt\n        /* \"#utility.yul\":988:1089   */\n      iszero\n      tag_206\n      jumpi\n        /* \"#utility.yul\":1077:1078   */\n      0x00\n        /* \"#utility.yul\":1068:1074   */\n      dup5\n        /* \"#utility.yul\":1063:1066   */\n      dup5\n        /* \"#utility.yul\":1059:1075   */\n      add\n        /* \"#utility.yul\":1052:1079   */\n      mstore\n        /* \"#utility.yul\":988:1089   */\n    tag_206:\n        /* \"#utility.yul\":837:1095   */\n      pop\n        /* \"#utility.yul\":788:1095   */\n      pop\n      pop\n      pop\n      jump\t// out\n        /* \"#utility.yul\":1101:1203   */\n    tag_157:\n        /* \"#utility.yul\":1142:1148   */\n      0x00\n        /* \"#utility.yul\":1193:1195   */\n      0x1f\n        /* \"#utility.yul\":1189:1196   */\n      not\n        /* \"#utility.yul\":1184:1186   */\n      0x1f\n        /* \"#utility.yul\":1177:1182   */\n      dup4\n        /* \"#utility.yul\":1173:1187   */\n      add\n        /* \"#utility.yul\":1169:1197   */\n      and\n        /* \"#utility.yul\":1159:1197   */\n      swap1\n      pop\n        /* \"#utility.yul\":1101:1203   */\n      swap2\n      swap1\n      pop\n      jump\t// out\n        /* \"#utility.yul\":1209:1553   */\n    tag_158:\n        /* \"#utility.yul\":1287:1290   */\n      0x00\n        /* \"#utility.yul\":1315:1354   */\n      tag_209\n        /* \"#utility.yul\":1348:1353   */\n      dup3\n        /* \"#utility.yul\":1315:1354   */\n      tag_154\n      jump\t// in\n    tag_209:\n        /* \"#utility.yul\":1370:1431   */\n      tag_210\n        /* \"#utility.yul\":1424:1430   */\n      dup2\n        /* \"#utility.yul\":1419:1422   */\n      dup6\n        /* \"#utility.yul\":1370:1431   */\n      tag_155\n      jump\t// in\n    tag_210:\n        /* \"#utility.yul\":1363:1431   */\n      swap4\n      pop\n        /* \"#utility.yul\":1440:1492   */\n      tag_211\n        /* \"#utility.yul\":1485:1491   */\n      dup2\n        /* \"#utility.yul\":1480:1483   */\n      dup6\n        /* \"#utility.yul\":1473:1477   */\n      0x20\n        /* \"#utility.yul\":1466:1471   */\n      dup7\n        /* \"#utility.yul\":1462:1478   */\n      add\n        /* \"#utility.yul\":1440:1492   */\n      tag_156\n      jump\t// in\n    tag_211:\n        /* \"#utility.yul\":1517:1546   */\n      tag_212\n        /* \"#utility.yul\":1539:1545   */\n      dup2\n        /* \"#utility.yul\":1517:1546   */\n      tag_157\n      jump\t// in\n    tag_212:\n        /* \"#utility.yul\":1512:1515   */\n      dup5\n        /* \"#utility.yul\":1508:1547   */\n      add\n        /* \"#utility.yul\":1501:1547   */\n      swap2\n      pop\n        /* \"#utility.yul\":1291:1553   */\n      pop\n        /* \"#utility.yul\":1209:1553   */\n      swap3\n      swap2\n      pop\n      pop\n      jump\t// out\n        /* \"#utility.yul\":1559:1635   */\n    tag_159:\n        /* \"#utility.yul\":1595:1602   */\n      0x00\n        /* \"#utility.yul\":1624:1629   */\n      dup2\n        /* \"#utility.yul\":1613:1629   */\n      swap1\n      pop\n        /* \"#utility.yul\":1559:1635   */\n      swap2\n      swap1\n      pop\n      jump\t// out\n        /* \"#utility.yul\":1641:1746   */\n    tag_160:\n        /* \"#utility.yul\":1716:1739   */\n      tag_215\n        /* \"#utility.yul\":1733:1738   */\n      dup2\n        /* \"#utility.yul\":1716:1739   */\n      tag_159\n      jump\t// in\n    tag_215:\n        /* \"#utility.yul\":1711:1714   */\n      dup3\n        /* \"#utility.yul\":1704:1740   */\n      mstore\n        /* \"#utility.yul\":1641:1746   */\n      pop\n      pop\n      jump\t// out\n        /* \"#utility.yul\":1820:2847   */\n    tag_161:\n        /* \"#utility.yul\":1921:1924   */\n      0x00\n        /* \"#utility.yul\":1957:1961   */\n      0x80\n        /* \"#utility.yul\":1952:1955   */\n      dup4\n        /* \"#utility.yul\":1948:1962   */\n      add\n        /* \"#utility.yul\":2048:2052   */\n      0x00\n        /* \"#utility.yul\":2041:2046   */\n      dup4\n        /* \"#utility.yul\":2037:2053   */\n      add\n        /* \"#utility.yul\":2031:2054   */\n      mload\n        /* \"#utility.yul\":2101:2104   */\n      dup5\n        /* \"#utility.yul\":2095:2099   */\n      dup3\n        /* \"#utility.yul\":2091:2105   */\n      sub\n        /* \"#utility.yul\":2084:2088   */\n      0x00\n        /* \"#utility.yul\":2079:2082   */\n      dup7\n        /* \"#utility.yul\":2075:2089   */\n      add\n        /* \"#utility.yul\":2068:2106   */\n      mstore\n        /* \"#utility.yul\":2127:2200   */\n      tag_217\n        /* \"#utility.yul\":2195:2199   */\n      dup3\n        /* \"#utility.yul\":2181:2193   */\n      dup3\n        /* \"#utility.yul\":2127:2200   */\n      tag_158\n      jump\t// in\n    tag_217:\n        /* \"#utility.yul\":2119:2200   */\n      swap2\n      pop\n        /* \"#utility.yul\":1972:2211   */\n      pop\n        /* \"#utility.yul\":2300:2304   */\n      0x20\n        /* \"#utility.yul\":2293:2298   */\n      dup4\n        /* \"#utility.yul\":2289:2305   */\n      add\n        /* \"#utility.yul\":2283:2306   */\n      mload\n        /* \"#utility.yul\":2353:2356   */\n      dup5\n        /* \"#utility.yul\":2347:2351   */\n      dup3\n        /* \"#utility.yul\":2343:2357   */\n      sub\n        /* \"#utility.yul\":2336:2340   */\n      0x20\n        /* \"#utility.yul\":2331:2334   */\n      dup7\n        /* \"#utility.yul\":2327:2341   */\n      add\n        /* \"#utility.yul\":2320:2358   */\n      mstore\n        /* \"#utility.yul\":2379:2452   */\n      tag_218\n        /* \"#utility.yul\":2447:2451   */\n      dup3\n        /* \"#utility.yul\":2433:2445   */\n      dup3\n        /* \"#utility.yul\":2379:2452   */\n      tag_158\n      jump\t// in\n    tag_218:\n        /* \"#utility.yul\":2371:2452   */\n      swap2\n      pop\n        /* \"#utility.yul\":2221:2463   */\n      pop\n        /* \"#utility.yul\":2550:2554   */\n      0x40\n        /* \"#utility.yul\":2543:2548   */\n      dup4\n        /* \"#utility.yul\":2539:2555   */\n      add\n        /* \"#utility.yul\":2533:2556   */\n      mload\n        /* \"#utility.yul\":2569:2630   */\n      tag_219\n        /* \"#utility.yul\":2624:2628   */\n      0x40\n        /* \"#utility.yul\":2619:2622   */\n      dup7\n        /* \"#utility.yul\":2615:2629   */\n      add\n        /* \"#utility.yul\":2601:2613   */\n      dup3\n        /* \"#utility.yul\":2569:2630   */\n      tag_160\n      jump\t// in\n    tag_219:\n        /* \"#utility.yul\":2473:2640   */\n      pop\n        /* \"#utility.yul\":2730:2734   */\n      0x60\n        /* \"#utility.yul\":2723:2728   */\n      dup4\n        /* \"#utility.yul\":2719:2735   */\n      add\n        /* \"#utility.yul\":2713:2736   */\n      mload\n        /* \"#utility.yul\":2749:2810   */\n      tag_220\n        /* \"#utility.yul\":2804:2808   */\n      0x60\n        /* \"#utility.yul\":2799:2802   */\n      dup7\n        /* \"#utility.yul\":2795:2809   */\n      add\n        /* \"#utility.yul\":2781:2793   */\n      dup3\n        /* \"#utility.yul\":2749:2810   */\n      tag_160\n      jump\t// in\n    tag_220:\n        /* \"#utility.yul\":2650:2820   */\n      pop\n        /* \"#utility.yul\":2837:2841   */\n      dup1\n        /* \"#utility.yul\":2830:2841   */\n      swap2\n      pop\n        /* \"#utility.yul\":1926:2847   */\n      pop\n        /* \"#utility.yul\":1820:2847   */\n      swap3\n      swap2\n      pop\n      pop\n      jump\t// out\n        /* \"#utility.yul\":2853:3093   */\n    tag_162:\n        /* \"#utility.yul\":2964:2974   */\n      0x00\n        /* \"#utility.yul\":2999:3087   */\n      tag_222\n        /* \"#utility.yul\":3083:3086   */\n      dup4\n        /* \"#utility.yul\":3075:3081   */\n      dup4\n        /* \"#utility.yul\":2999:3087   */\n      tag_161\n      jump\t// in\n    tag_222:\n        /* \"#utility.yul\":2985:3087   */\n      swap1\n      pop\n        /* \"#utility.yul\":2853:3093   */\n      swap3\n      swap2\n      pop\n      pop\n      jump\t// out\n        /* \"#utility.yul\":3099:3233   */\n    tag_163:\n        /* \"#utility.yul\":3190:3194   */\n      0x00\n        /* \"#utility.yul\":3222:3226   */\n      0x20\n        /* \"#utility.yul\":3217:3220   */\n      dup3\n        /* \"#utility.yul\":3213:3227   */\n      add\n        /* \"#utility.yul\":3205:3227   */\n      swap1\n      pop\n        /* \"#utility.yul\":3099:3233   */\n      swap2\n      swap1\n      pop\n      jump\t// out\n        /* \"#utility.yul\":3311:4390   */\n    tag_164:\n        /* \"#utility.yul\":3472:3475   */\n      0x00\n        /* \"#utility.yul\":3501:3576   */\n      tag_225\n        /* \"#utility.yul\":3570:3575   */\n      dup3\n        /* \"#utility.yul\":3501:3576   */\n      tag_151\n      jump\t// in\n    tag_225:\n        /* \"#utility.yul\":3592:3699   */\n      tag_226\n        /* \"#utility.yul\":3692:3698   */\n      dup2\n        /* \"#utility.yul\":3687:3690   */\n      dup6\n        /* \"#utility.yul\":3592:3699   */\n      tag_152\n      jump\t// in\n    tag_226:\n        /* \"#utility.yul\":3585:3699   */\n      swap4\n      pop\n        /* \"#utility.yul\":3725:3728   */\n      dup4\n        /* \"#utility.yul\":3770:3774   */\n      0x20\n        /* \"#utility.yul\":3762:3768   */\n      dup3\n        /* \"#utility.yul\":3758:3775   */\n      mul\n        /* \"#utility.yul\":3753:3756   */\n      dup6\n        /* \"#utility.yul\":3749:3776   */\n      add\n        /* \"#utility.yul\":3800:3877   */\n      tag_227\n        /* \"#utility.yul\":3871:3876   */\n      dup6\n        /* \"#utility.yul\":3800:3877   */\n      tag_153\n      jump\t// in\n    tag_227:\n        /* \"#utility.yul\":3900:3907   */\n      dup1\n        /* \"#utility.yul\":3931:3932   */\n      0x00\n        /* \"#utility.yul\":3916:4345   */\n    tag_228:\n        /* \"#utility.yul\":3941:3947   */\n      dup6\n        /* \"#utility.yul\":3938:3939   */\n      dup2\n        /* \"#utility.yul\":3935:3948   */\n      lt\n        /* \"#utility.yul\":3916:4345   */\n      iszero\n      tag_230\n      jumpi\n        /* \"#utility.yul\":4012:4021   */\n      dup5\n        /* \"#utility.yul\":4006:4010   */\n      dup5\n        /* \"#utility.yul\":4002:4022   */\n      sub\n        /* \"#utility.yul\":3997:4000   */\n      dup10\n        /* \"#utility.yul\":3990:4023   */\n      mstore\n        /* \"#utility.yul\":4063:4069   */\n      dup2\n        /* \"#utility.yul\":4057:4070   */\n      mload\n        /* \"#utility.yul\":4091:4197   */\n      tag_231\n        /* \"#utility.yul\":4192:4196   */\n      dup6\n        /* \"#utility.yul\":4177:4190   */\n      dup3\n        /* \"#utility.yul\":4091:4197   */\n      tag_162\n      jump\t// in\n    tag_231:\n        /* \"#utility.yul\":4083:4197   */\n      swap5\n      pop\n        /* \"#utility.yul\":4220:4301   */\n      tag_232\n        /* \"#utility.yul\":4294:4300   */\n      dup4\n        /* \"#utility.yul\":4220:4301   */\n      tag_163\n      jump\t// in\n    tag_232:\n        /* \"#utility.yul\":4210:4301   */\n      swap3\n      pop\n        /* \"#utility.yul\":4330:4334   */\n      0x20\n        /* \"#utility.yul\":4325:4328   */\n      dup11\n        /* \"#utility.yul\":4321:4335   */\n      add\n        /* \"#utility.yul\":4314:4335   */\n      swap10\n      pop\n        /* \"#utility.yul\":3976:4345   */\n      pop\n        /* \"#utility.yul\":3963:3964   */\n      0x01\n        /* \"#utility.yul\":3960:3961   */\n      dup2\n        /* \"#utility.yul\":3956:3965   */\n      add\n        /* \"#utility.yul\":3951:3965   */\n      swap1\n      pop\n        /* \"#utility.yul\":3916:4345   */\n      jump(tag_228)\n    tag_230:\n        /* \"#utility.yul\":3920:3934   */\n      pop\n        /* \"#utility.yul\":4361:4365   */\n      dup3\n        /* \"#utility.yul\":4354:4365   */\n      swap8\n      pop\n        /* \"#utility.yul\":4381:4384   */\n      dup8\n        /* \"#utility.yul\":4374:4384   */\n      swap6\n      pop\n        /* \"#utility.yul\":3477:4390   */\n      pop\n      pop\n      pop\n      pop\n      pop\n        /* \"#utility.yul\":3311:4390   */\n      swap3\n      swap2\n      pop\n      pop\n      jump\t// out\n        /* \"#utility.yul\":4396:4853   */\n    tag_16:\n        /* \"#utility.yul\":4581:4585   */\n      0x00\n        /* \"#utility.yul\":4619:4621   */\n      0x20\n        /* \"#utility.yul\":4608:4617   */\n      dup3\n        /* \"#utility.yul\":4604:4622   */\n      add\n        /* \"#utility.yul\":4596:4622   */\n      swap1\n      pop\n        /* \"#utility.yul\":4668:4677   */\n      dup2\n        /* \"#utility.yul\":4662:4666   */\n      dup2\n        /* \"#utility.yul\":4658:4678   */\n      sub\n        /* \"#utility.yul\":4654:4655   */\n      0x00\n        /* \"#utility.yul\":4643:4652   */\n      dup4\n        /* \"#utility.yul\":4639:4656   */\n      add\n        /* \"#utility.yul\":4632:4679   */\n      mstore\n        /* \"#utility.yul\":4696:4846   */\n      tag_234\n        /* \"#utility.yul\":4841:4845   */\n      dup2\n        /* \"#utility.yul\":4832:4838   */\n      dup5\n        /* \"#utility.yul\":4696:4846   */\n      tag_164\n      jump\t// in\n    tag_234:\n        /* \"#utility.yul\":4688:4846   */\n      swap1\n      pop\n        /* \"#utility.yul\":4396:4853   */\n      swap3\n      swap2\n      pop\n      pop\n      jump\t// out\n        /* \"#utility.yul\":4859:4974   */\n    tag_165:\n        /* \"#utility.yul\":4944:4967   */\n      tag_236\n        /* \"#utility.yul\":4961:4966   */\n      dup2\n        /* \"#utility.yul\":4944:4967   */\n      tag_159\n      jump\t// in\n    tag_236:\n        /* \"#utility.yul\":4939:4942   */\n      dup3\n        /* \"#utility.yul\":4932:4968   */\n      mstore\n        /* \"#utility.yul\":4859:4974   */\n      pop\n      pop\n      jump\t// out\n        /* \"#utility.yul\":4980:5198   */\n    tag_20:\n        /* \"#utility.yul\":5071:5075   */\n      0x00\n        /* \"#utility.yul\":5109:5111   */\n      0x20\n        /* \"#utility.yul\":5098:5107   */\n      dup3\n        /* \"#utility.yul\":5094:5112   */\n      add\n        /* \"#utility.yul\":5086:5112   */\n      swap1\n      pop\n        /* \"#utility.yul\":5122:5191   */\n      tag_238\n        /* \"#utility.yul\":5188:5189   */\n      0x00\n        /* \"#utility.yul\":5177:5186   */\n      dup4\n        /* \"#utility.yul\":5173:5190   */\n      add\n        /* \"#utility.yul\":5164:5170   */\n      dup5\n        /* \"#utility.yul\":5122:5191   */\n      tag_165\n      jump\t// in\n    tag_238:\n        /* \"#utility.yul\":4980:5198   */\n      swap3\n      swap2\n      pop\n      pop\n      jump\t// out\n        /* \"#utility.yul\":5204:5279   */\n    tag_166:\n        /* \"#utility.yul\":5237:5243   */\n      0x00\n        /* \"#utility.yul\":5270:5272   */\n      0x40\n        /* \"#utility.yul\":5264:5273   */\n      mload\n        /* \"#utility.yul\":5254:5273   */\n      swap1\n      pop\n        /* \"#utility.yul\":5204:5279   */\n      swap1\n      jump\t// out\n        /* \"#utility.yul\":5285:5402   */\n    tag_167:\n        /* \"#utility.yul\":5394:5395   */\n      0x00\n        /* \"#utility.yul\":5391:5392   */\n      dup1\n        /* \"#utility.yul\":5384:5396   */\n      revert\n        /* \"#utility.yul\":5408:5525   */\n    tag_168:\n        /* \"#utility.yul\":5517:5518   */\n      0x00\n        /* \"#utility.yul\":5514:5515   */\n      dup1\n        /* \"#utility.yul\":5507:5519   */\n      revert\n        /* \"#utility.yul\":5531:5608   */\n    tag_169:\n        /* \"#utility.yul\":5568:5575   */\n      0x00\n        /* \"#utility.yul\":5597:5602   */\n      dup2\n        /* \"#utility.yul\":5586:5602   */\n      swap1\n      pop\n        /* \"#utility.yul\":5531:5608   */\n      swap2\n      swap1\n      pop\n      jump\t// out\n        /* \"#utility.yul\":5614:5736   */\n    tag_170:\n        /* \"#utility.yul\":5687:5711   */\n      tag_244\n        /* \"#utility.yul\":5705:5710   */\n      dup2\n        /* \"#utility.yul\":5687:5711   */\n      tag_169\n      jump\t// in\n    tag_244:\n        /* \"#utility.yul\":5680:5685   */\n      dup2\n        /* \"#utility.yul\":5677:5712   */\n      eq\n        /* \"#utility.yul\":5667:5730   */\n      tag_245\n      jumpi\n        /* \"#utility.yul\":5726:5727   */\n      0x00\n        /* \"#utility.yul\":5723:5724   */\n      dup1\n        /* \"#utility.yul\":5716:5728   */\n      revert\n        /* \"#utility.yul\":5667:5730   */\n    tag_245:\n        /* \"#utility.yul\":5614:5736   */\n      pop\n      jump\t// out\n        /* \"#utility.yul\":5742:5881   */\n    tag_171:\n        /* \"#utility.yul\":5788:5793   */\n      0x00\n        /* \"#utility.yul\":5826:5832   */\n      dup2\n        /* \"#utility.yul\":5813:5833   */\n      calldataload\n        /* \"#utility.yul\":5804:5833   */\n      swap1\n      pop\n        /* \"#utility.yul\":5842:5875   */\n      tag_247\n        /* \"#utility.yul\":5869:5874   */\n      dup2\n        /* \"#utility.yul\":5842:5875   */\n      tag_170\n      jump\t// in\n    tag_247:\n        /* \"#utility.yul\":5742:5881   */\n      swap3\n      swap2\n      pop\n      pop\n      jump\t// out\n        /* \"#utility.yul\":5887:6216   */\n    tag_23:\n        /* \"#utility.yul\":5946:5952   */\n      0x00\n        /* \"#utility.yul\":5995:5997   */\n      0x20\n        /* \"#utility.yul\":5983:5992   */\n      dup3\n        /* \"#utility.yul\":5974:5981   */\n      dup5\n        /* \"#utility.yul\":5970:5993   */\n      sub\n        /* \"#utility.yul\":5966:5998   */\n      slt\n        /* \"#utility.yul\":5963:6082   */\n      iszero\n      tag_249\n      jumpi\n        /* \"#utility.yul\":6001:6080   */\n      tag_250\n      tag_167\n      jump\t// in\n    tag_250:\n        /* \"#utility.yul\":5963:6082   */\n    tag_249:\n        /* \"#utility.yul\":6121:6122   */\n      0x00\n        /* \"#utility.yul\":6146:6199   */\n      tag_251\n        /* \"#utility.yul\":6191:6198   */\n      dup5\n        /* \"#utility.yul\":6182:6188   */\n      dup3\n        /* \"#utility.yul\":6171:6180   */\n      dup6\n        /* \"#utility.yul\":6167:6189   */\n      add\n        /* \"#utility.yul\":6146:6199   */\n      tag_171\n      jump\t// in\n    tag_251:\n        /* \"#utility.yul\":6136:6199   */\n      swap2\n      pop\n        /* \"#utility.yul\":6092:6209   */\n      pop\n        /* \"#utility.yul\":5887:6216   */\n      swap3\n      swap2\n      pop\n      pop\n      jump\t// out\n        /* \"#utility.yul\":6222:6391   */\n    tag_172:\n        /* \"#utility.yul\":6306:6317   */\n      0x00\n        /* \"#utility.yul\":6340:6346   */\n      dup3\n        /* \"#utility.yul\":6335:6338   */\n      dup3\n        /* \"#utility.yul\":6328:6347   */\n      mstore\n        /* \"#utility.yul\":6380:6384   */\n      0x20\n        /* \"#utility.yul\":6375:6378   */\n      dup3\n        /* \"#utility.yul\":6371:6385   */\n      add\n        /* \"#utility.yul\":6356:6385   */\n      swap1\n      pop\n        /* \"#utility.yul\":6222:6391   */\n      swap3\n      swap2\n      pop\n      pop\n      jump\t// out\n        /* \"#utility.yul\":6397:6761   */\n    tag_173:\n        /* \"#utility.yul\":6485:6488   */\n      0x00\n        /* \"#utility.yul\":6513:6552   */\n      tag_254\n        /* \"#utility.yul\":6546:6551   */\n      dup3\n        /* \"#utility.yul\":6513:6552   */\n      tag_154\n      jump\t// in\n    tag_254:\n        /* \"#utility.yul\":6568:6639   */\n      tag_255\n        /* \"#utility.yul\":6632:6638   */\n      dup2\n        /* \"#utility.yul\":6627:6630   */\n      dup6\n        /* \"#utility.yul\":6568:6639   */\n      tag_172\n      jump\t// in\n    tag_255:\n        /* \"#utility.yul\":6561:6639   */\n      swap4\n      pop\n        /* \"#utility.yul\":6648:6700   */\n      tag_256\n        /* \"#utility.yul\":6693:6699   */\n      dup2\n        /* \"#utility.yul\":6688:6691   */\n      dup6\n        /* \"#utility.yul\":6681:6685   */\n      0x20\n        /* \"#utility.yul\":6674:6679   */\n      dup7\n        /* \"#utility.yul\":6670:6686   */\n      add\n        /* \"#utility.yul\":6648:6700   */\n      tag_156\n      jump\t// in\n    tag_256:\n        /* \"#utility.yul\":6725:6754   */\n      tag_257\n        /* \"#utility.yul\":6747:6753   */\n      dup2\n        /* \"#utility.yul\":6725:6754   */\n      tag_157\n      jump\t// in\n    tag_257:\n        /* \"#utility.yul\":6720:6723   */\n      dup5\n        /* \"#utility.yul\":6716:6755   */\n      add\n        /* \"#utility.yul\":6709:6755   */\n      swap2\n      pop\n        /* \"#utility.yul\":6489:6761   */\n      pop\n        /* \"#utility.yul\":6397:6761   */\n      swap3\n      swap2\n      pop\n      pop\n      jump\t// out\n        /* \"#utility.yul\":6767:7494   */\n    tag_26:\n        /* \"#utility.yul\":6980:6984   */\n      0x00\n        /* \"#utility.yul\":7018:7021   */\n      0x80\n        /* \"#utility.yul\":7007:7016   */\n      dup3\n        /* \"#utility.yul\":7003:7022   */\n      add\n        /* \"#utility.yul\":6995:7022   */\n      swap1\n      pop\n        /* \"#utility.yul\":7068:7077   */\n      dup2\n        /* \"#utility.yul\":7062:7066   */\n      dup2\n        /* \"#utility.yul\":7058:7078   */\n      sub\n        /* \"#utility.yul\":7054:7055   */\n      0x00\n        /* \"#utility.yul\":7043:7052   */\n      dup4\n        /* \"#utility.yul\":7039:7056   */\n      add\n        /* \"#utility.yul\":7032:7079   */\n      mstore\n        /* \"#utility.yul\":7096:7174   */\n      tag_259\n        /* \"#utility.yul\":7169:7173   */\n      dup2\n        /* \"#utility.yul\":7160:7166   */\n      dup8\n        /* \"#utility.yul\":7096:7174   */\n      tag_173\n      jump\t// in\n    tag_259:\n        /* \"#utility.yul\":7088:7174   */\n      swap1\n      pop\n        /* \"#utility.yul\":7221:7230   */\n      dup2\n        /* \"#utility.yul\":7215:7219   */\n      dup2\n        /* \"#utility.yul\":7211:7231   */\n      sub\n        /* \"#utility.yul\":7206:7208   */\n      0x20\n        /* \"#utility.yul\":7195:7204   */\n      dup4\n        /* \"#utility.yul\":7191:7209   */\n      add\n        /* \"#utility.yul\":7184:7232   */\n      mstore\n        /* \"#utility.yul\":7249:7327   */\n      tag_260\n        /* \"#utility.yul\":7322:7326   */\n      dup2\n        /* \"#utility.yul\":7313:7319   */\n      dup7\n        /* \"#utility.yul\":7249:7327   */\n      tag_173\n      jump\t// in\n    tag_260:\n        /* \"#utility.yul\":7241:7327   */\n      swap1\n      pop\n        /* \"#utility.yul\":7337:7407   */\n      tag_261\n        /* \"#utility.yul\":7403:7405   */\n      0x40\n        /* \"#utility.yul\":7392:7401   */\n      dup4\n        /* \"#utility.yul\":7388:7406   */\n      add\n        /* \"#utility.yul\":7379:7385   */\n      dup6\n        /* \"#utility.yul\":7337:7407   */\n      tag_165\n      jump\t// in\n    tag_261:\n        /* \"#utility.yul\":7417:7487   */\n      tag_262\n        /* \"#utility.yul\":7483:7485   */\n      0x60\n        /* \"#utility.yul\":7472:7481   */\n      dup4\n        /* \"#utility.yul\":7468:7486   */\n      add\n        /* \"#utility.yul\":7459:7465   */\n      dup5\n        /* \"#utility.yul\":7417:7487   */\n      tag_165\n      jump\t// in\n    tag_262:\n        /* \"#utility.yul\":6767:7494   */\n      swap6\n      swap5\n      pop\n      pop\n      pop\n      pop\n      pop\n      jump\t// out\n        /* \"#utility.yul\":7500:7620   */\n    tag_174:\n        /* \"#utility.yul\":7572:7595   */\n      tag_264\n        /* \"#utility.yul\":7589:7594   */\n      dup2\n        /* \"#utility.yul\":7572:7595   */\n      tag_159\n      jump\t// in\n    tag_264:\n        /* \"#utility.yul\":7565:7570   */\n      dup2\n        /* \"#utility.yul\":7562:7596   */\n      eq\n        /* \"#utility.yul\":7552:7614   */\n      tag_265\n      jumpi\n        /* \"#utility.yul\":7610:7611   */\n      0x00\n        /* \"#utility.yul\":7607:7608   */\n      dup1\n        /* \"#utility.yul\":7600:7612   */\n      revert\n        /* \"#utility.yul\":7552:7614   */\n    tag_265:\n        /* \"#utility.yul\":7500:7620   */\n      pop\n      jump\t// out\n        /* \"#utility.yul\":7626:7763   */\n    tag_175:\n        /* \"#utility.yul\":7671:7676   */\n      0x00\n        /* \"#utility.yul\":7709:7715   */\n      dup2\n        /* \"#utility.yul\":7696:7716   */\n      calldataload\n        /* \"#utility.yul\":7687:7716   */\n      swap1\n      pop\n        /* \"#utility.yul\":7725:7757   */\n      tag_267\n        /* \"#utility.yul\":7751:7756   */\n      dup2\n        /* \"#utility.yul\":7725:7757   */\n      tag_174\n      jump\t// in\n    tag_267:\n        /* \"#utility.yul\":7626:7763   */\n      swap3\n      swap2\n      pop\n      pop\n      jump\t// out\n        /* \"#utility.yul\":7769:8241   */\n    tag_29:\n        /* \"#utility.yul\":7836:7842   */\n      0x00\n        /* \"#utility.yul\":7844:7850   */\n      dup1\n        /* \"#utility.yul\":7893:7895   */\n      0x40\n        /* \"#utility.yul\":7881:7890   */\n      dup4\n        /* \"#utility.yul\":7872:7879   */\n      dup6\n        /* \"#utility.yul\":7868:7891   */\n      sub\n        /* \"#utility.yul\":7864:7896   */\n      slt\n        /* \"#utility.yul\":7861:7980   */\n      iszero\n      tag_269\n      jumpi\n        /* \"#utility.yul\":7899:7978   */\n      tag_270\n      tag_167\n      jump\t// in\n    tag_270:\n        /* \"#utility.yul\":7861:7980   */\n    tag_269:\n        /* \"#utility.yul\":8019:8020   */\n      0x00\n        /* \"#utility.yul\":8044:8097   */\n      tag_271\n        /* \"#utility.yul\":8089:8096   */\n      dup6\n        /* \"#utility.yul\":8080:8086   */\n      dup3\n        /* \"#utility.yul\":8069:8078   */\n      dup7\n        /* \"#utility.yul\":8065:8087   */\n      add\n        /* \"#utility.yul\":8044:8097   */\n      tag_171\n      jump\t// in\n    tag_271:\n        /* \"#utility.yul\":8034:8097   */\n      swap3\n      pop\n        /* \"#utility.yul\":7990:8107   */\n      pop\n        /* \"#utility.yul\":8146:8148   */\n      0x20\n        /* \"#utility.yul\":8172:8224   */\n      tag_272\n        /* \"#utility.yul\":8216:8223   */\n      dup6\n        /* \"#utility.yul\":8207:8213   */\n      dup3\n        /* \"#utility.yul\":8196:8205   */\n      dup7\n        /* \"#utility.yul\":8192:8214   */\n      add\n        /* \"#utility.yul\":8172:8224   */\n      tag_175\n      jump\t// in\n    tag_272:\n        /* \"#utility.yul\":8162:8224   */\n      swap2\n      pop\n        /* \"#utility.yul\":8117:8234   */\n      pop\n        /* \"#utility.yul\":7769:8241   */\n      swap3\n      pop\n      swap3\n      swap1\n      pop\n      jump\t// out\n        /* \"#utility.yul\":8247:8974   */\n    tag_35:\n        /* \"#utility.yul\":8460:8464   */\n      0x00\n        /* \"#utility.yul\":8498:8501   */\n      0x80\n        /* \"#utility.yul\":8487:8496   */\n      dup3\n        /* \"#utility.yul\":8483:8502   */\n      add\n        /* \"#utility.yul\":8475:8502   */\n      swap1\n      pop\n        /* \"#utility.yul\":8548:8557   */\n      dup2\n        /* \"#utility.yul\":8542:8546   */\n      dup2\n        /* \"#utility.yul\":8538:8558   */\n      sub\n        /* \"#utility.yul\":8534:8535   */\n      0x00\n        /* \"#utility.yul\":8523:8532   */\n      dup4\n        /* \"#utility.yul\":8519:8536   */\n      add\n        /* \"#utility.yul\":8512:8559   */\n      mstore\n        /* \"#utility.yul\":8576:8654   */\n      tag_274\n        /* \"#utility.yul\":8649:8653   */\n      dup2\n        /* \"#utility.yul\":8640:8646   */\n      dup8\n        /* \"#utility.yul\":8576:8654   */\n      tag_173\n      jump\t// in\n    tag_274:\n        /* \"#utility.yul\":8568:8654   */\n      swap1\n      pop\n        /* \"#utility.yul\":8664:8734   */\n      tag_275\n        /* \"#utility.yul\":8730:8732   */\n      0x20\n        /* \"#utility.yul\":8719:8728   */\n      dup4\n        /* \"#utility.yul\":8715:8733   */\n      add\n        /* \"#utility.yul\":8706:8712   */\n      dup7\n        /* \"#utility.yul\":8664:8734   */\n      tag_165\n      jump\t// in\n    tag_275:\n        /* \"#utility.yul\":8781:8790   */\n      dup2\n        /* \"#utility.yul\":8775:8779   */\n      dup2\n        /* \"#utility.yul\":8771:8791   */\n      sub\n        /* \"#utility.yul\":8766:8768   */\n      0x40\n        /* \"#utility.yul\":8755:8764   */\n      dup4\n        /* \"#utility.yul\":8751:8769   */\n      add\n        /* \"#utility.yul\":8744:8792   */\n      mstore\n        /* \"#utility.yul\":8809:8887   */\n      tag_276\n        /* \"#utility.yul\":8882:8886   */\n      dup2\n        /* \"#utility.yul\":8873:8879   */\n      dup6\n        /* \"#utility.yul\":8809:8887   */\n      tag_173\n      jump\t// in\n    tag_276:\n        /* \"#utility.yul\":8801:8887   */\n      swap1\n      pop\n        /* \"#utility.yul\":8897:8967   */\n      tag_277\n        /* \"#utility.yul\":8963:8965   */\n      0x60\n        /* \"#utility.yul\":8952:8961   */\n      dup4\n        /* \"#utility.yul\":8948:8966   */\n      add\n        /* \"#utility.yul\":8939:8945   */\n      dup5\n        /* \"#utility.yul\":8897:8967   */\n      tag_165\n      jump\t// in\n    tag_277:\n        /* \"#utility.yul\":8247:8974   */\n      swap6\n      swap5\n      pop\n      pop\n      pop\n      pop\n      pop\n      jump\t// out\n        /* \"#utility.yul\":8980:9097   */\n    tag_176:\n        /* \"#utility.yul\":9089:9090   */\n      0x00\n        /* \"#utility.yul\":9086:9087   */\n      dup1\n        /* \"#utility.yul\":9079:9091   */\n      revert\n        /* \"#utility.yul\":9103:9220   */\n    tag_177:\n        /* \"#utility.yul\":9212:9213   */\n      0x00\n        /* \"#utility.yul\":9209:9210   */\n      dup1\n        /* \"#utility.yul\":9202:9214   */\n      revert\n        /* \"#utility.yul\":9226:9406   */\n    tag_178:\n        /* \"#utility.yul\":9274:9351   */\n      0x4e487b7100000000000000000000000000000000000000000000000000000000\n        /* \"#utility.yul\":9271:9272   */\n      0x00\n        /* \"#utility.yul\":9264:9352   */\n      mstore\n        /* \"#utility.yul\":9371:9375   */\n      0x41\n        /* \"#utility.yul\":9368:9369   */\n      0x04\n        /* \"#utility.yul\":9361:9376   */\n      mstore\n        /* \"#utility.yul\":9395:9399   */\n      0x24\n        /* \"#utility.yul\":9392:9393   */\n      0x00\n        /* \"#utility.yul\":9385:9400   */\n      revert\n        /* \"#utility.yul\":9412:9693   */\n    tag_179:\n        /* \"#utility.yul\":9495:9522   */\n      tag_282\n        /* \"#utility.yul\":9517:9521   */\n      dup3\n        /* \"#utility.yul\":9495:9522   */\n      tag_157\n      jump\t// in\n    tag_282:\n        /* \"#utility.yul\":9487:9493   */\n      dup2\n        /* \"#utility.yul\":9483:9523   */\n      add\n        /* \"#utility.yul\":9625:9631   */\n      dup2\n        /* \"#utility.yul\":9613:9623   */\n      dup2\n        /* \"#utility.yul\":9610:9632   */\n      lt\n        /* \"#utility.yul\":9589:9607   */\n      0xffffffffffffffff\n        /* \"#utility.yul\":9577:9587   */\n      dup3\n        /* \"#utility.yul\":9574:9608   */\n      gt\n        /* \"#utility.yul\":9571:9633   */\n      or\n        /* \"#utility.yul\":9568:9656   */\n      iszero\n      tag_283\n      jumpi\n        /* \"#utility.yul\":9636:9654   */\n      tag_284\n      tag_178\n      jump\t// in\n    tag_284:\n        /* \"#utility.yul\":9568:9656   */\n    tag_283:\n        /* \"#utility.yul\":9676:9686   */\n      dup1\n        /* \"#utility.yul\":9672:9674   */\n      0x40\n        /* \"#utility.yul\":9665:9687   */\n      mstore\n        /* \"#utility.yul\":9455:9693   */\n      pop\n        /* \"#utility.yul\":9412:9693   */\n      pop\n      pop\n      jump\t// out\n        /* \"#utility.yul\":9699:9828   */\n    tag_180:\n        /* \"#utility.yul\":9733:9739   */\n      0x00\n        /* \"#utility.yul\":9760:9780   */\n      tag_286\n      tag_166\n      jump\t// in\n    tag_286:\n        /* \"#utility.yul\":9750:9780   */\n      swap1\n      pop\n        /* \"#utility.yul\":9789:9822   */\n      tag_287\n        /* \"#utility.yul\":9817:9821   */\n      dup3\n        /* \"#utility.yul\":9809:9815   */\n      dup3\n        /* \"#utility.yul\":9789:9822   */\n      tag_179\n      jump\t// in\n    tag_287:\n        /* \"#utility.yul\":9699:9828   */\n      swap2\n      swap1\n      pop\n      jump\t// out\n        /* \"#utility.yul\":9834:10142   */\n    tag_181:\n        /* \"#utility.yul\":9896:9900   */\n      0x00\n        /* \"#utility.yul\":9986:10004   */\n      0xffffffffffffffff\n        /* \"#utility.yul\":9978:9984   */\n      dup3\n        /* \"#utility.yul\":9975:10005   */\n      gt\n        /* \"#utility.yul\":9972:10028   */\n      iszero\n      tag_289\n      jumpi\n        /* \"#utility.yul\":10008:10026   */\n      tag_290\n      tag_178\n      jump\t// in\n    tag_290:\n        /* \"#utility.yul\":9972:10028   */\n    tag_289:\n        /* \"#utility.yul\":10046:10075   */\n      tag_291\n        /* \"#utility.yul\":10068:10074   */\n      dup3\n        /* \"#utility.yul\":10046:10075   */\n      tag_157\n      jump\t// in\n    tag_291:\n        /* \"#utility.yul\":10038:10075   */\n      swap1\n      pop\n        /* \"#utility.yul\":10130:10134   */\n      0x20\n        /* \"#utility.yul\":10124:10128   */\n      dup2\n        /* \"#utility.yul\":10120:10135   */\n      add\n        /* \"#utility.yul\":10112:10135   */\n      swap1\n      pop\n        /* \"#utility.yul\":9834:10142   */\n      swap2\n      swap1\n      pop\n      jump\t// out\n        /* \"#utility.yul\":10148:10302   */\n    tag_182:\n        /* \"#utility.yul\":10232:10238   */\n      dup3\n        /* \"#utility.yul\":10227:10230   */\n      dup2\n        /* \"#utility.yul\":10222:10225   */\n      dup4\n        /* \"#utility.yul\":10209:10239   */\n      calldatacopy\n        /* \"#utility.yul\":10294:10295   */\n      0x00\n        /* \"#utility.yul\":10285:10291   */\n      dup4\n        /* \"#utility.yul\":10280:10283   */\n      dup4\n        /* \"#utility.yul\":10276:10292   */\n      add\n        /* \"#utility.yul\":10269:10296   */\n      mstore\n        /* \"#utility.yul\":10148:10302   */\n      pop\n      pop\n      pop\n      jump\t// out\n        /* \"#utility.yul\":10308:10720   */\n    tag_183:\n        /* \"#utility.yul\":10386:10391   */\n      0x00\n        /* \"#utility.yul\":10411:10477   */\n      tag_294\n        /* \"#utility.yul\":10427:10476   */\n      tag_295\n        /* \"#utility.yul\":10469:10475   */\n      dup5\n        /* \"#utility.yul\":10427:10476   */\n      tag_181\n      jump\t// in\n    tag_295:\n        /* \"#utility.yul\":10411:10477   */\n      tag_180\n      jump\t// in\n    tag_294:\n        /* \"#utility.yul\":10402:10477   */\n      swap1\n      pop\n        /* \"#utility.yul\":10500:10506   */\n      dup3\n        /* \"#utility.yul\":10493:10498   */\n      dup2\n        /* \"#utility.yul\":10486:10507   */\n      mstore\n        /* \"#utility.yul\":10538:10542   */\n      0x20\n        /* \"#utility.yul\":10531:10536   */\n      dup2\n        /* \"#utility.yul\":10527:10543   */\n      add\n        /* \"#utility.yul\":10576:10579   */\n      dup5\n        /* \"#utility.yul\":10567:10573   */\n      dup5\n        /* \"#utility.yul\":10562:10565   */\n      dup5\n        /* \"#utility.yul\":10558:10574   */\n      add\n        /* \"#utility.yul\":10555:10580   */\n      gt\n        /* \"#utility.yul\":10552:10664   */\n      iszero\n      tag_296\n      jumpi\n        /* \"#utility.yul\":10583:10662   */\n      tag_297\n      tag_177\n      jump\t// in\n    tag_297:\n        /* \"#utility.yul\":10552:10664   */\n    tag_296:\n        /* \"#utility.yul\":10673:10714   */\n      tag_298\n        /* \"#utility.yul\":10707:10713   */\n      dup5\n        /* \"#utility.yul\":10702:10705   */\n      dup3\n        /* \"#utility.yul\":10697:10700   */\n      dup6\n        /* \"#utility.yul\":10673:10714   */\n      tag_182\n      jump\t// in\n    tag_298:\n        /* \"#utility.yul\":10392:10720   */\n      pop\n        /* \"#utility.yul\":10308:10720   */\n      swap4\n      swap3\n      pop\n      pop\n      pop\n      jump\t// out\n        /* \"#utility.yul\":10740:11080   */\n    tag_184:\n        /* \"#utility.yul\":10796:10801   */\n      0x00\n        /* \"#utility.yul\":10845:10848   */\n      dup3\n        /* \"#utility.yul\":10838:10842   */\n      0x1f\n        /* \"#utility.yul\":10830:10836   */\n      dup4\n        /* \"#utility.yul\":10826:10843   */\n      add\n        /* \"#utility.yul\":10822:10849   */\n      slt\n        /* \"#utility.yul\":10812:10934   */\n      tag_300\n      jumpi\n        /* \"#utility.yul\":10853:10932   */\n      tag_301\n      tag_176\n      jump\t// in\n    tag_301:\n        /* \"#utility.yul\":10812:10934   */\n    tag_300:\n        /* \"#utility.yul\":10970:10976   */\n      dup2\n        /* \"#utility.yul\":10957:10977   */\n      calldataload\n        /* \"#utility.yul\":10995:11074   */\n      tag_302\n        /* \"#utility.yul\":11070:11073   */\n      dup5\n        /* \"#utility.yul\":11062:11068   */\n      dup3\n        /* \"#utility.yul\":11055:11059   */\n      0x20\n        /* \"#utility.yul\":11047:11053   */\n      dup7\n        /* \"#utility.yul\":11043:11060   */\n      add\n        /* \"#utility.yul\":10995:11074   */\n      tag_183\n      jump\t// in\n    tag_302:\n        /* \"#utility.yul\":10986:11074   */\n      swap2\n      pop\n        /* \"#utility.yul\":10802:11080   */\n      pop\n        /* \"#utility.yul\":10740:11080   */\n      swap3\n      swap2\n      pop\n      pop\n      jump\t// out\n        /* \"#utility.yul\":11086:12207   */\n    tag_38:\n        /* \"#utility.yul\":11190:11196   */\n      0x00\n        /* \"#utility.yul\":11198:11204   */\n      dup1\n        /* \"#utility.yul\":11206:11212   */\n      0x00\n        /* \"#utility.yul\":11214:11220   */\n      dup1\n        /* \"#utility.yul\":11263:11266   */\n      0x80\n        /* \"#utility.yul\":11251:11260   */\n      dup6\n        /* \"#utility.yul\":11242:11249   */\n      dup8\n        /* \"#utility.yul\":11238:11261   */\n      sub\n        /* \"#utility.yul\":11234:11267   */\n      slt\n        /* \"#utility.yul\":11231:11351   */\n      iszero\n      tag_304\n      jumpi\n        /* \"#utility.yul\":11270:11349   */\n      tag_305\n      tag_167\n      jump\t// in\n    tag_305:\n        /* \"#utility.yul\":11231:11351   */\n    tag_304:\n        /* \"#utility.yul\":11418:11419   */\n      0x00\n        /* \"#utility.yul\":11407:11416   */\n      dup6\n        /* \"#utility.yul\":11403:11420   */\n      add\n        /* \"#utility.yul\":11390:11421   */\n      calldataload\n        /* \"#utility.yul\":11448:11466   */\n      0xffffffffffffffff\n        /* \"#utility.yul\":11440:11446   */\n      dup2\n        /* \"#utility.yul\":11437:11467   */\n      gt\n        /* \"#utility.yul\":11434:11551   */\n      iszero\n      tag_306\n      jumpi\n        /* \"#utility.yul\":11470:11549   */\n      tag_307\n      tag_168\n      jump\t// in\n    tag_307:\n        /* \"#utility.yul\":11434:11551   */\n    tag_306:\n        /* \"#utility.yul\":11575:11638   */\n      tag_308\n        /* \"#utility.yul\":11630:11637   */\n      dup8\n        /* \"#utility.yul\":11621:11627   */\n      dup3\n        /* \"#utility.yul\":11610:11619   */\n      dup9\n        /* \"#utility.yul\":11606:11628   */\n      add\n        /* \"#utility.yul\":11575:11638   */\n      tag_184\n      jump\t// in\n    tag_308:\n        /* \"#utility.yul\":11565:11638   */\n      swap5\n      pop\n        /* \"#utility.yul\":11361:11648   */\n      pop\n        /* \"#utility.yul\":11715:11717   */\n      0x20\n        /* \"#utility.yul\":11704:11713   */\n      dup6\n        /* \"#utility.yul\":11700:11718   */\n      add\n        /* \"#utility.yul\":11687:11719   */\n      calldataload\n        /* \"#utility.yul\":11746:11764   */\n      0xffffffffffffffff\n        /* \"#utility.yul\":11738:11744   */\n      dup2\n        /* \"#utility.yul\":11735:11765   */\n      gt\n        /* \"#utility.yul\":11732:11849   */\n      iszero\n      tag_309\n      jumpi\n        /* \"#utility.yul\":11768:11847   */\n      tag_310\n      tag_168\n      jump\t// in\n    tag_310:\n        /* \"#utility.yul\":11732:11849   */\n    tag_309:\n        /* \"#utility.yul\":11873:11936   */\n      tag_311\n        /* \"#utility.yul\":11928:11935   */\n      dup8\n        /* \"#utility.yul\":11919:11925   */\n      dup3\n        /* \"#utility.yul\":11908:11917   */\n      dup9\n        /* \"#utility.yul\":11904:11926   */\n      add\n        /* \"#utility.yul\":11873:11936   */\n      tag_184\n      jump\t// in\n    tag_311:\n        /* \"#utility.yul\":11863:11936   */\n      swap4\n      pop\n        /* \"#utility.yul\":11658:11946   */\n      pop\n        /* \"#utility.yul\":11985:11987   */\n      0x40\n        /* \"#utility.yul\":12011:12063   */\n      tag_312\n        /* \"#utility.yul\":12055:12062   */\n      dup8\n        /* \"#utility.yul\":12046:12052   */\n      dup3\n        /* \"#utility.yul\":12035:12044   */\n      dup9\n        /* \"#utility.yul\":12031:12053   */\n      add\n        /* \"#utility.yul\":12011:12063   */\n      tag_175\n      jump\t// in\n    tag_312:\n        /* \"#utility.yul\":12001:12063   */\n      swap3\n      pop\n        /* \"#utility.yul\":11956:12073   */\n      pop\n        /* \"#utility.yul\":12112:12114   */\n      0x60\n        /* \"#utility.yul\":12138:12190   */\n      tag_313\n        /* \"#utility.yul\":12182:12189   */\n      dup8\n        /* \"#utility.yul\":12173:12179   */\n      dup3\n        /* \"#utility.yul\":12162:12171   */\n      dup9\n        /* \"#utility.yul\":12158:12180   */\n      add\n        /* \"#utility.yul\":12138:12190   */\n      tag_175\n      jump\t// in\n    tag_313:\n        /* \"#utility.yul\":12128:12190   */\n      swap2\n      pop\n        /* \"#utility.yul\":12083:12200   */\n      pop\n        /* \"#utility.yul\":11086:12207   */\n      swap3\n      swap6\n      swap2\n      swap5\n      pop\n      swap3\n      pop\n      jump\t// out\n        /* \"#utility.yul\":12213:12339   */\n    tag_185:\n        /* \"#utility.yul\":12250:12257   */\n      0x00\n        /* \"#utility.yul\":12290:12332   */\n      0xffffffffffffffffffffffffffffffffffffffff\n        /* \"#utility.yul\":12283:12288   */\n      dup3\n        /* \"#utility.yul\":12279:12333   */\n      and\n        /* \"#utility.yul\":12268:12333   */\n      swap1\n      pop\n        /* \"#utility.yul\":12213:12339   */\n      swap2\n      swap1\n      pop\n      jump\t// out\n        /* \"#utility.yul\":12345:12441   */\n    tag_186:\n        /* \"#utility.yul\":12382:12389   */\n      0x00\n        /* \"#utility.yul\":12411:12435   */\n      tag_316\n        /* \"#utility.yul\":12429:12434   */\n      dup3\n        /* \"#utility.yul\":12411:12435   */\n      tag_185\n      jump\t// in\n    tag_316:\n        /* \"#utility.yul\":12400:12435   */\n      swap1\n      pop\n        /* \"#utility.yul\":12345:12441   */\n      swap2\n      swap1\n      pop\n      jump\t// out\n        /* \"#utility.yul\":12447:12565   */\n    tag_187:\n        /* \"#utility.yul\":12534:12558   */\n      tag_318\n        /* \"#utility.yul\":12552:12557   */\n      dup2\n        /* \"#utility.yul\":12534:12558   */\n      tag_186\n      jump\t// in\n    tag_318:\n        /* \"#utility.yul\":12529:12532   */\n      dup3\n        /* \"#utility.yul\":12522:12559   */\n      mstore\n        /* \"#utility.yul\":12447:12565   */\n      pop\n      pop\n      jump\t// out\n        /* \"#utility.yul\":12571:12793   */\n    tag_43:\n        /* \"#utility.yul\":12664:12668   */\n      0x00\n        /* \"#utility.yul\":12702:12704   */\n      0x20\n        /* \"#utility.yul\":12691:12700   */\n      dup3\n        /* \"#utility.yul\":12687:12705   */\n      add\n        /* \"#utility.yul\":12679:12705   */\n      swap1\n      pop\n        /* \"#utility.yul\":12715:12786   */\n      tag_320\n        /* \"#utility.yul\":12783:12784   */\n      0x00\n        /* \"#utility.yul\":12772:12781   */\n      dup4\n        /* \"#utility.yul\":12768:12785   */\n      add\n        /* \"#utility.yul\":12759:12765   */\n      dup5\n        /* \"#utility.yul\":12715:12786   */\n      tag_187\n      jump\t// in\n    tag_320:\n        /* \"#utility.yul\":12571:12793   */\n      swap3\n      swap2\n      pop\n      pop\n      jump\t// out\n        /* \"#utility.yul\":12799:13112   */\n    tag_50:\n        /* \"#utility.yul\":12912:12916   */\n      0x00\n        /* \"#utility.yul\":12950:12952   */\n      0x20\n        /* \"#utility.yul\":12939:12948   */\n      dup3\n        /* \"#utility.yul\":12935:12953   */\n      add\n        /* \"#utility.yul\":12927:12953   */\n      swap1\n      pop\n        /* \"#utility.yul\":12999:13008   */\n      dup2\n        /* \"#utility.yul\":12993:12997   */\n      dup2\n        /* \"#utility.yul\":12989:13009   */\n      sub\n        /* \"#utility.yul\":12985:12986   */\n      0x00\n        /* \"#utility.yul\":12974:12983   */\n      dup4\n        /* \"#utility.yul\":12970:12987   */\n      add\n        /* \"#utility.yul\":12963:13010   */\n      mstore\n        /* \"#utility.yul\":13027:13105   */\n      tag_322\n        /* \"#utility.yul\":13100:13104   */\n      dup2\n        /* \"#utility.yul\":13091:13097   */\n      dup5\n        /* \"#utility.yul\":13027:13105   */\n      tag_173\n      jump\t// in\n    tag_322:\n        /* \"#utility.yul\":13019:13105   */\n      swap1\n      pop\n        /* \"#utility.yul\":12799:13112   */\n      swap3\n      swap2\n      pop\n      pop\n      jump\t// out\n        /* \"#utility.yul\":13118:13298   */\n    tag_188:\n        /* \"#utility.yul\":13166:13243   */\n      0x4e487b7100000000000000000000000000000000000000000000000000000000\n        /* \"#utility.yul\":13163:13164   */\n      0x00\n        /* \"#utility.yul\":13156:13244   */\n      mstore\n        /* \"#utility.yul\":13263:13267   */\n      0x22\n        /* \"#utility.yul\":13260:13261   */\n      0x04\n        /* \"#utility.yul\":13253:13268   */\n      mstore\n        /* \"#utility.yul\":13287:13291   */\n      0x24\n        /* \"#utility.yul\":13284:13285   */\n      0x00\n        /* \"#utility.yul\":13277:13292   */\n      revert\n        /* \"#utility.yul\":13304:13624   */\n    tag_56:\n        /* \"#utility.yul\":13348:13354   */\n      0x00\n        /* \"#utility.yul\":13385:13386   */\n      0x02\n        /* \"#utility.yul\":13379:13383   */\n      dup3\n        /* \"#utility.yul\":13375:13387   */\n      div\n        /* \"#utility.yul\":13365:13387   */\n      swap1\n      pop\n        /* \"#utility.yul\":13432:13433   */\n      0x01\n        /* \"#utility.yul\":13426:13430   */\n      dup3\n        /* \"#utility.yul\":13422:13434   */\n      and\n        /* \"#utility.yul\":13453:13471   */\n      dup1\n        /* \"#utility.yul\":13443:13524   */\n      tag_325\n      jumpi\n        /* \"#utility.yul\":13509:13513   */\n      0x7f\n        /* \"#utility.yul\":13501:13507   */\n      dup3\n        /* \"#utility.yul\":13497:13514   */\n      and\n        /* \"#utility.yul\":13487:13514   */\n      swap2\n      pop\n        /* \"#utility.yul\":13443:13524   */\n    tag_325:\n        /* \"#utility.yul\":13571:13573   */\n      0x20\n        /* \"#utility.yul\":13563:13569   */\n      dup3\n        /* \"#utility.yul\":13560:13574   */\n      lt\n        /* \"#utility.yul\":13540:13558   */\n      dup2\n        /* \"#utility.yul\":13537:13575   */\n      eq\n        /* \"#utility.yul\":13534:13618   */\n      iszero\n      tag_326\n      jumpi\n        /* \"#utility.yul\":13590:13608   */\n      tag_327\n      tag_188\n      jump\t// in\n    tag_327:\n        /* \"#utility.yul\":13534:13618   */\n    tag_326:\n        /* \"#utility.yul\":13355:13624   */\n      pop\n        /* \"#utility.yul\":13304:13624   */\n      swap2\n      swap1\n      pop\n      jump\t// out\n        /* \"#utility.yul\":13630:13799   */\n    tag_189:\n        /* \"#utility.yul\":13770:13791   */\n      0x496e646578206f7574206f6620626f756e647300000000000000000000000000\n        /* \"#utility.yul\":13766:13767   */\n      0x00\n        /* \"#utility.yul\":13758:13764   */\n      dup3\n        /* \"#utility.yul\":13754:13768   */\n      add\n        /* \"#utility.yul\":13747:13792   */\n      mstore\n        /* \"#utility.yul\":13630:13799   */\n      pop\n      jump\t// out\n        /* \"#utility.yul\":13805:14171   */\n    tag_190:\n        /* \"#utility.yul\":13947:13950   */\n      0x00\n        /* \"#utility.yul\":13968:14035   */\n      tag_330\n        /* \"#utility.yul\":14032:14034   */\n      0x13\n        /* \"#utility.yul\":14027:14030   */\n      dup4\n        /* \"#utility.yul\":13968:14035   */\n      tag_172\n      jump\t// in\n    tag_330:\n        /* \"#utility.yul\":13961:14035   */\n      swap2\n      pop\n        /* \"#utility.yul\":14044:14137   */\n      tag_331\n        /* \"#utility.yul\":14133:14136   */\n      dup3\n        /* \"#utility.yul\":14044:14137   */\n      tag_189\n      jump\t// in\n    tag_331:\n        /* \"#utility.yul\":14162:14164   */\n      0x20\n        /* \"#utility.yul\":14157:14160   */\n      dup3\n        /* \"#utility.yul\":14153:14165   */\n      add\n        /* \"#utility.yul\":14146:14165   */\n      swap1\n      pop\n        /* \"#utility.yul\":13805:14171   */\n      swap2\n      swap1\n      pop\n      jump\t// out\n        /* \"#utility.yul\":14177:14596   */\n    tag_81:\n        /* \"#utility.yul\":14343:14347   */\n      0x00\n        /* \"#utility.yul\":14381:14383   */\n      0x20\n        /* \"#utility.yul\":14370:14379   */\n      dup3\n        /* \"#utility.yul\":14366:14384   */\n      add\n        /* \"#utility.yul\":14358:14384   */\n      swap1\n      pop\n        /* \"#utility.yul\":14430:14439   */\n      dup2\n        /* \"#utility.yul\":14424:14428   */\n      dup2\n        /* \"#utility.yul\":14420:14440   */\n      sub\n        /* \"#utility.yul\":14416:14417   */\n      0x00\n        /* \"#utility.yul\":14405:14414   */\n      dup4\n        /* \"#utility.yul\":14401:14418   */\n      add\n        /* \"#utility.yul\":14394:14441   */\n      mstore\n        /* \"#utility.yul\":14458:14589   */\n      tag_333\n        /* \"#utility.yul\":14584:14588   */\n      dup2\n        /* \"#utility.yul\":14458:14589   */\n      tag_190\n      jump\t// in\n    tag_333:\n        /* \"#utility.yul\":14450:14589   */\n      swap1\n      pop\n        /* \"#utility.yul\":14177:14596   */\n      swap2\n      swap1\n      pop\n      jump\t// out\n        /* \"#utility.yul\":14602:14782   */\n    tag_84:\n        /* \"#utility.yul\":14650:14727   */\n      0x4e487b7100000000000000000000000000000000000000000000000000000000\n        /* \"#utility.yul\":14647:14648   */\n      0x00\n        /* \"#utility.yul\":14640:14728   */\n      mstore\n        /* \"#utility.yul\":14747:14751   */\n      0x32\n        /* \"#utility.yul\":14744:14745   */\n      0x04\n        /* \"#utility.yul\":14737:14752   */\n      mstore\n        /* \"#utility.yul\":14771:14775   */\n      0x24\n        /* \"#utility.yul\":14768:14769   */\n      0x00\n        /* \"#utility.yul\":14761:14776   */\n      revert\n        /* \"#utility.yul\":14788:14959   */\n    tag_191:\n        /* \"#utility.yul\":14928:14951   */\n      0x496e73756666696369656e74207175616e746974790000000000000000000000\n        /* \"#utility.yul\":14924:14925   */\n      0x00\n        /* \"#utility.yul\":14916:14922   */\n      dup3\n        /* \"#utility.yul\":14912:14926   */\n      add\n        /* \"#utility.yul\":14905:14952   */\n      mstore\n        /* \"#utility.yul\":14788:14959   */\n      pop\n      jump\t// out\n        /* \"#utility.yul\":14965:15331   */\n    tag_192:\n        /* \"#utility.yul\":15107:15110   */\n      0x00\n        /* \"#utility.yul\":15128:15195   */\n      tag_337\n        /* \"#utility.yul\":15192:15194   */\n      0x15\n        /* \"#utility.yul\":15187:15190   */\n      dup4\n        /* \"#utility.yul\":15128:15195   */\n      tag_172\n      jump\t// in\n    tag_337:\n        /* \"#utility.yul\":15121:15195   */\n      swap2\n      pop\n        /* \"#utility.yul\":15204:15297   */\n      tag_338\n        /* \"#utility.yul\":15293:15296   */\n      dup3\n        /* \"#utility.yul\":15204:15297   */\n      tag_191\n      jump\t// in\n    tag_338:\n        /* \"#utility.yul\":15322:15324   */\n      0x20\n        /* \"#utility.yul\":15317:15320   */\n      dup3\n        /* \"#utility.yul\":15313:15325   */\n      add\n        /* \"#utility.yul\":15306:15325   */\n      swap1\n      pop\n        /* \"#utility.yul\":14965:15331   */\n      swap2\n      swap1\n      pop\n      jump\t// out\n        /* \"#utility.yul\":15337:15756   */\n    tag_88:\n        /* \"#utility.yul\":15503:15507   */\n      0x00\n        /* \"#utility.yul\":15541:15543   */\n      0x20\n        /* \"#utility.yul\":15530:15539   */\n      dup3\n        /* \"#utility.yul\":15526:15544   */\n      add\n        /* \"#utility.yul\":15518:15544   */\n      swap1\n      pop\n        /* \"#utility.yul\":15590:15599   */\n      dup2\n        /* \"#utility.yul\":15584:15588   */\n      dup2\n        /* \"#utility.yul\":15580:15600   */\n      sub\n        /* \"#utility.yul\":15576:15577   */\n      0x00\n        /* \"#utility.yul\":15565:15574   */\n      dup4\n        /* \"#utility.yul\":15561:15578   */\n      add\n        /* \"#utility.yul\":15554:15601   */\n      mstore\n        /* \"#utility.yul\":15618:15749   */\n      tag_340\n        /* \"#utility.yul\":15744:15748   */\n      dup2\n        /* \"#utility.yul\":15618:15749   */\n      tag_192\n      jump\t// in\n    tag_340:\n        /* \"#utility.yul\":15610:15749   */\n      swap1\n      pop\n        /* \"#utility.yul\":15337:15756   */\n      swap2\n      swap1\n      pop\n      jump\t// out\n        /* \"#utility.yul\":15762:15942   */\n    tag_193:\n        /* \"#utility.yul\":15810:15887   */\n      0x4e487b7100000000000000000000000000000000000000000000000000000000\n        /* \"#utility.yul\":15807:15808   */\n      0x00\n        /* \"#utility.yul\":15800:15888   */\n      mstore\n        /* \"#utility.yul\":15907:15911   */\n      0x11\n        /* \"#utility.yul\":15904:15905   */\n      0x04\n        /* \"#utility.yul\":15897:15912   */\n      mstore\n        /* \"#utility.yul\":15931:15935   */\n      0x24\n        /* \"#utility.yul\":15928:15929   */\n      0x00\n        /* \"#utility.yul\":15921:15936   */\n      revert\n        /* \"#utility.yul\":15948:16939   */\n    tag_93:\n        /* \"#utility.yul\":15987:15994   */\n      0x00\n        /* \"#utility.yul\":16010:16029   */\n      tag_343\n        /* \"#utility.yul\":16027:16028   */\n      dup3\n        /* \"#utility.yul\":16010:16029   */\n      tag_159\n      jump\t// in\n    tag_343:\n        /* \"#utility.yul\":16005:16029   */\n      swap2\n      pop\n        /* \"#utility.yul\":16043:16062   */\n      tag_344\n        /* \"#utility.yul\":16060:16061   */\n      dup4\n        /* \"#utility.yul\":16043:16062   */\n      tag_159\n      jump\t// in\n    tag_344:\n        /* \"#utility.yul\":16038:16062   */\n      swap3\n      pop\n        /* \"#utility.yul\":16244:16245   */\n      dup3\n        /* \"#utility.yul\":16176:16242   */\n      0x7fffffffffffffffffffffffffffffffffffffffffffffffffffffffffffffff\n        /* \"#utility.yul\":16172:16246   */\n      div\n        /* \"#utility.yul\":16169:16170   */\n      dup3\n        /* \"#utility.yul\":16166:16247   */\n      gt\n        /* \"#utility.yul\":16161:16162   */\n      0x00\n        /* \"#utility.yul\":16158:16159   */\n      dup5\n        /* \"#utility.yul\":16154:16163   */\n      sgt\n        /* \"#utility.yul\":16150:16151   */\n      0x00\n        /* \"#utility.yul\":16147:16148   */\n      dup5\n        /* \"#utility.yul\":16143:16152   */\n      sgt\n        /* \"#utility.yul\":16139:16164   */\n      and\n        /* \"#utility.yul\":16135:16248   */\n      and\n        /* \"#utility.yul\":16132:16271   */\n      iszero\n      tag_345\n      jumpi\n        /* \"#utility.yul\":16251:16269   */\n      tag_346\n      tag_193\n      jump\t// in\n    tag_346:\n        /* \"#utility.yul\":16132:16271   */\n    tag_345:\n        /* \"#utility.yul\":16455:16456   */\n      dup2\n        /* \"#utility.yul\":16387:16453   */\n      0x8000000000000000000000000000000000000000000000000000000000000000\n        /* \"#utility.yul\":16382:16457   */\n      sdiv\n        /* \"#utility.yul\":16379:16380   */\n      dup4\n        /* \"#utility.yul\":16375:16458   */\n      slt\n        /* \"#utility.yul\":16370:16371   */\n      0x00\n        /* \"#utility.yul\":16367:16368   */\n      dup5\n        /* \"#utility.yul\":16363:16372   */\n      slt\n        /* \"#utility.yul\":16359:16360   */\n      0x00\n        /* \"#utility.yul\":16356:16357   */\n      dup5\n        /* \"#utility.yul\":16352:16361   */\n      sgt\n        /* \"#utility.yul\":16348:16373   */\n      and\n        /* \"#utility.yul\":16344:16459   */\n      and\n        /* \"#utility.yul\":16341:16482   */\n      iszero\n      tag_347\n      jumpi\n        /* \"#utility.yul\":16462:16480   */\n      tag_348\n      tag_193\n      jump\t// in\n    tag_348:\n        /* \"#utility.yul\":16341:16482   */\n    tag_347:\n        /* \"#utility.yul\":16666:16667   */\n      dup3\n        /* \"#utility.yul\":16598:16664   */\n      0x8000000000000000000000000000000000000000000000000000000000000000\n        /* \"#utility.yul\":16593:16668   */\n      sdiv\n        /* \"#utility.yul\":16590:16591   */\n      dup3\n        /* \"#utility.yul\":16586:16669   */\n      slt\n        /* \"#utility.yul\":16581:16582   */\n      0x00\n        /* \"#utility.yul\":16578:16579   */\n      dup5\n        /* \"#utility.yul\":16574:16583   */\n      sgt\n        /* \"#utility.yul\":16570:16571   */\n      0x00\n        /* \"#utility.yul\":16567:16568   */\n      dup5\n        /* \"#utility.yul\":16563:16572   */\n      slt\n        /* \"#utility.yul\":16559:16584   */\n      and\n        /* \"#utility.yul\":16555:16670   */\n      and\n        /* \"#utility.yul\":16552:16693   */\n      iszero\n      tag_349\n      jumpi\n        /* \"#utility.yul\":16673:16691   */\n      tag_350\n      tag_193\n      jump\t// in\n    tag_350:\n        /* \"#utility.yul\":16552:16693   */\n    tag_349:\n        /* \"#utility.yul\":16876:16877   */\n      dup3\n        /* \"#utility.yul\":16808:16874   */\n      0x7fffffffffffffffffffffffffffffffffffffffffffffffffffffffffffffff\n        /* \"#utility.yul\":16803:16878   */\n      sdiv\n        /* \"#utility.yul\":16800:16801   */\n      dup3\n        /* \"#utility.yul\":16796:16879   */\n      slt\n        /* \"#utility.yul\":16791:16792   */\n      0x00\n        /* \"#utility.yul\":16788:16789   */\n      dup5\n        /* \"#utility.yul\":16784:16793   */\n      slt\n        /* \"#utility.yul\":16780:16781   */\n      0x00\n        /* \"#utility.yul\":16777:16778   */\n      dup5\n        /* \"#utility.yul\":16773:16782   */\n      slt\n        /* \"#utility.yul\":16769:16794   */\n      and\n        /* \"#utility.yul\":16765:16880   */\n      and\n        /* \"#utility.yul\":16762:16903   */\n      iszero\n      tag_351\n      jumpi\n        /* \"#utility.yul\":16883:16901   */\n      tag_352\n      tag_193\n      jump\t// in\n    tag_352:\n        /* \"#utility.yul\":16762:16903   */\n    tag_351:\n        /* \"#utility.yul\":16931:16932   */\n      dup3\n        /* \"#utility.yul\":16928:16929   */\n      dup3\n        /* \"#utility.yul\":16924:16933   */\n      mul\n        /* \"#utility.yul\":16913:16933   */\n      swap1\n      pop\n        /* \"#utility.yul\":15948:16939   */\n      swap3\n      swap2\n      pop\n      pop\n      jump\t// out\n        /* \"#utility.yul\":16945:17472   */\n    tag_98:\n        /* \"#utility.yul\":16984:16988   */\n      0x00\n        /* \"#utility.yul\":17004:17023   */\n      tag_354\n        /* \"#utility.yul\":17021:17022   */\n      dup3\n        /* \"#utility.yul\":17004:17023   */\n      tag_159\n      jump\t// in\n    tag_354:\n        /* \"#utility.yul\":16999:17023   */\n      swap2\n      pop\n        /* \"#utility.yul\":17037:17056   */\n      tag_355\n        /* \"#utility.yul\":17054:17055   */\n      dup4\n        /* \"#utility.yul\":17037:17056   */\n      tag_159\n      jump\t// in\n    tag_355:\n        /* \"#utility.yul\":17032:17056   */\n      swap3\n      pop\n        /* \"#utility.yul\":17226:17227   */\n      dup3\n        /* \"#utility.yul\":17158:17224   */\n      0x8000000000000000000000000000000000000000000000000000000000000000\n        /* \"#utility.yul\":17154:17228   */\n      add\n        /* \"#utility.yul\":17151:17152   */\n      dup3\n        /* \"#utility.yul\":17147:17229   */\n      slt\n        /* \"#utility.yul\":17142:17143   */\n      0x00\n        /* \"#utility.yul\":17139:17140   */\n      dup5\n        /* \"#utility.yul\":17135:17144   */\n      slt\n        /* \"#utility.yul\":17128:17145   */\n      iszero\n        /* \"#utility.yul\":17124:17230   */\n      and\n        /* \"#utility.yul\":17121:17253   */\n      iszero\n      tag_356\n      jumpi\n        /* \"#utility.yul\":17233:17251   */\n      tag_357\n      tag_193\n      jump\t// in\n    tag_357:\n        /* \"#utility.yul\":17121:17253   */\n    tag_356:\n        /* \"#utility.yul\":17412:17413   */\n      dup3\n        /* \"#utility.yul\":17344:17410   */\n      0x7fffffffffffffffffffffffffffffffffffffffffffffffffffffffffffffff\n        /* \"#utility.yul\":17340:17414   */\n      add\n        /* \"#utility.yul\":17337:17338   */\n      dup3\n        /* \"#utility.yul\":17333:17415   */\n      sgt\n        /* \"#utility.yul\":17329:17330   */\n      0x00\n        /* \"#utility.yul\":17326:17327   */\n      dup5\n        /* \"#utility.yul\":17322:17331   */\n      slt\n        /* \"#utility.yul\":17318:17416   */\n      and\n        /* \"#utility.yul\":17315:17439   */\n      iszero\n      tag_358\n      jumpi\n        /* \"#utility.yul\":17419:17437   */\n      tag_359\n      tag_193\n      jump\t// in\n    tag_359:\n        /* \"#utility.yul\":17315:17439   */\n    tag_358:\n        /* \"#utility.yul\":17464:17465   */\n      dup3\n        /* \"#utility.yul\":17461:17462   */\n      dup3\n        /* \"#utility.yul\":17457:17466   */\n      sub\n        /* \"#utility.yul\":17449:17466   */\n      swap1\n      pop\n        /* \"#utility.yul\":16945:17472   */\n      swap3\n      swap2\n      pop\n      pop\n      jump\t// out\n        /* \"#utility.yul\":17478:18003   */\n    tag_100:\n        /* \"#utility.yul\":17517:17520   */\n      0x00\n        /* \"#utility.yul\":17536:17555   */\n      tag_361\n        /* \"#utility.yul\":17553:17554   */\n      dup3\n        /* \"#utility.yul\":17536:17555   */\n      tag_159\n      jump\t// in\n    tag_361:\n        /* \"#utility.yul\":17531:17555   */\n      swap2\n      pop\n        /* \"#utility.yul\":17569:17588   */\n      tag_362\n        /* \"#utility.yul\":17586:17587   */\n      dup4\n        /* \"#utility.yul\":17569:17588   */\n      tag_159\n      jump\t// in\n    tag_362:\n        /* \"#utility.yul\":17564:17588   */\n      swap3\n      pop\n        /* \"#utility.yul\":17757:17758   */\n      dup2\n        /* \"#utility.yul\":17689:17755   */\n      0x7fffffffffffffffffffffffffffffffffffffffffffffffffffffffffffffff\n        /* \"#utility.yul\":17685:17759   */\n      sub\n        /* \"#utility.yul\":17682:17683   */\n      dup4\n        /* \"#utility.yul\":17678:17760   */\n      sgt\n        /* \"#utility.yul\":17673:17674   */\n      0x00\n        /* \"#utility.yul\":17670:17671   */\n      dup4\n        /* \"#utility.yul\":17666:17675   */\n      slt\n        /* \"#utility.yul\":17659:17676   */\n      iszero\n        /* \"#utility.yul\":17655:17761   */\n      and\n        /* \"#utility.yul\":17652:17784   */\n      iszero\n      tag_363\n      jumpi\n        /* \"#utility.yul\":17764:17782   */\n      tag_364\n      tag_193\n      jump\t// in\n    tag_364:\n        /* \"#utility.yul\":17652:17784   */\n    tag_363:\n        /* \"#utility.yul\":17944:17945   */\n      dup2\n        /* \"#utility.yul\":17876:17942   */\n      0x8000000000000000000000000000000000000000000000000000000000000000\n        /* \"#utility.yul\":17872:17946   */\n      sub\n        /* \"#utility.yul\":17869:17870   */\n      dup4\n        /* \"#utility.yul\":17865:17947   */\n      slt\n        /* \"#utility.yul\":17861:17862   */\n      0x00\n        /* \"#utility.yul\":17858:17859   */\n      dup4\n        /* \"#utility.yul\":17854:17863   */\n      slt\n        /* \"#utility.yul\":17850:17948   */\n      and\n        /* \"#utility.yul\":17847:17971   */\n      iszero\n      tag_365\n      jumpi\n        /* \"#utility.yul\":17951:17969   */\n      tag_366\n      tag_193\n      jump\t// in\n    tag_366:\n        /* \"#utility.yul\":17847:17971   */\n    tag_365:\n        /* \"#utility.yul\":17995:17996   */\n      dup3\n        /* \"#utility.yul\":17992:17993   */\n      dup3\n        /* \"#utility.yul\":17988:17997   */\n      add\n        /* \"#utility.yul\":17981:17997   */\n      swap1\n      pop\n        /* \"#utility.yul\":17478:18003   */\n      swap3\n      swap2\n      pop\n      pop\n      jump\t// out\n        /* \"#utility.yul\":18009:18234   */\n    tag_194:\n        /* \"#utility.yul\":18149:18183   */\n      0x4f6e6c792070726f64756365722063616e206163636573732074686973206675\n        /* \"#utility.yul\":18145:18146   */\n      0x00\n        /* \"#utility.yul\":18137:18143   */\n      dup3\n        /* \"#utility.yul\":18133:18147   */\n      add\n        /* \"#utility.yul\":18126:18184   */\n      mstore\n        /* \"#utility.yul\":18218:18226   */\n      0x6e6374696f6e0000000000000000000000000000000000000000000000000000\n        /* \"#utility.yul\":18213:18215   */\n      0x20\n        /* \"#utility.yul\":18205:18211   */\n      dup3\n        /* \"#utility.yul\":18201:18216   */\n      add\n        /* \"#utility.yul\":18194:18227   */\n      mstore\n        /* \"#utility.yul\":18009:18234   */\n      pop\n      jump\t// out\n        /* \"#utility.yul\":18240:18606   */\n    tag_195:\n        /* \"#utility.yul\":18382:18385   */\n      0x00\n        /* \"#utility.yul\":18403:18470   */\n      tag_369\n        /* \"#utility.yul\":18467:18469   */\n      0x26\n        /* \"#utility.yul\":18462:18465   */\n      dup4\n        /* \"#utility.yul\":18403:18470   */\n      tag_172\n      jump\t// in\n    tag_369:\n        /* \"#utility.yul\":18396:18470   */\n      swap2\n      pop\n        /* \"#utility.yul\":18479:18572   */\n      tag_370\n        /* \"#utility.yul\":18568:18571   */\n      dup3\n        /* \"#utility.yul\":18479:18572   */\n      tag_194\n      jump\t// in\n    tag_370:\n        /* \"#utility.yul\":18597:18599   */\n      0x40\n        /* \"#utility.yul\":18592:18595   */\n      dup3\n        /* \"#utility.yul\":18588:18600   */\n      add\n        /* \"#utility.yul\":18581:18600   */\n      swap1\n      pop\n        /* \"#utility.yul\":18240:18606   */\n      swap2\n      swap1\n      pop\n      jump\t// out\n        /* \"#utility.yul\":18612:19031   */\n    tag_120:\n        /* \"#utility.yul\":18778:18782   */\n      0x00\n        /* \"#utility.yul\":18816:18818   */\n      0x20\n        /* \"#utility.yul\":18805:18814   */\n      dup3\n        /* \"#utility.yul\":18801:18819   */\n      add\n        /* \"#utility.yul\":18793:18819   */\n      swap1\n      pop\n        /* \"#utility.yul\":18865:18874   */\n      dup2\n        /* \"#utility.yul\":18859:18863   */\n      dup2\n        /* \"#utility.yul\":18855:18875   */\n      sub\n        /* \"#utility.yul\":18851:18852   */\n      0x00\n        /* \"#utility.yul\":18840:18849   */\n      dup4\n        /* \"#utility.yul\":18836:18853   */\n      add\n        /* \"#utility.yul\":18829:18876   */\n      mstore\n        /* \"#utility.yul\":18893:19024   */\n      tag_372\n        /* \"#utility.yul\":19019:19023   */\n      dup2\n        /* \"#utility.yul\":18893:19024   */\n      tag_195\n      jump\t// in\n    tag_372:\n        /* \"#utility.yul\":18885:19024   */\n      swap1\n      pop\n        /* \"#utility.yul\":18612:19031   */\n      swap2\n      swap1\n      pop\n      jump\t// out\n\n    auxdata: 0xa2646970667358221220a7511c6765bac96e38bef642350aa7f5f6223e1d2d4ad785f1380ce4196d83b964736f6c63430008090033\n}\n",
        "bytecode": {
            "linkReferences": {},
            "object": "60806040523480156200001157600080fd5b5060405162001a0238038062001a028339818101604052810190620000379190620002e4565b336000806101000a81548173ffffffffffffffffffffffffffffffffffffffff021916908373ffffffffffffffffffffffffffffffffffffffff16021790555080600190805190602001906200008f92919062000097565b50506200039a565b828054620000a59062000364565b90600052602060002090601f016020900481019282620000c9576000855562000115565b82601f10620000e457805160ff191683800117855562000115565b8280016001018555821562000115579182015b8281111562000114578251825591602001919060010190620000f7565b5b50905062000124919062000128565b5090565b5b808211156200014357600081600090555060010162000129565b5090565b6000604051905090565b600080fd5b600080fd5b600080fd5b600080fd5b6000601f19601f8301169050919050565b7f4e487b7100000000000000000000000000000000000000000000000000000000600052604160045260246000fd5b620001b08262000165565b810181811067ffffffffffffffff82111715620001d257620001d162000176565b5b80604052505050565b6000620001e762000147565b9050620001f58282620001a5565b919050565b600067ffffffffffffffff82111562000218576200021762000176565b5b620002238262000165565b9050602081019050919050565b60005b838110156200025057808201518184015260208101905062000233565b8381111562000260576000848401525b50505050565b60006200027d6200027784620001fa565b620001db565b9050828152602081018484840111156200029c576200029b62000160565b5b620002a984828562000230565b509392505050565b600082601f830112620002c957620002c86200015b565b5b8151620002db84826020860162000266565b91505092915050565b600060208284031215620002fd57620002fc62000151565b5b600082015167ffffffffffffffff8111156200031e576200031d62000156565b5b6200032c84828501620002b1565b91505092915050565b7f4e487b7100000000000000000000000000000000000000000000000000000000600052602260045260246000fd5b600060028204905060018216806200037d57607f821691505b6020821081141562000394576200039362000335565b5b50919050565b61165880620003aa6000396000f3fe608060405234801561001057600080fd5b50600436106100935760003560e01c80638bc7fa9c116100665780638bc7fa9c146101235780638d8e11dc14610156578063a7ca997d14610172578063c93bfbb514610190578063e4177269146101ac57610093565b80631d48dc90146100985780636605ff66146100b657806370c9f1a5146100d45780638a23163f14610107575b600080fd5b6100a06101ca565b6040516100ad9190610d49565b60405180910390f35b6100be610361565b6040516100cb9190610d7a565b60405180910390f35b6100ee60048036038101906100e99190610ddf565b610367565b6040516100fe9493929190610e56565b60405180910390f35b610121600480360381019061011c9190610ed5565b6104b7565b005b61013d60048036038101906101389190610ddf565b6105f5565b60405161014d9493929190610f15565b60405180910390f35b610170600480360381019061016b919061109d565b6107d1565b005b61017a610901565b604051610187919061117d565b60405180910390f35b6101aa60048036038101906101a59190610ed5565b610925565b005b6101b4610a3a565b6040516101c19190611198565b60405180910390f35b60606002805480602002602001604051908101604052809291908181526020016000905b828210156103585783829060005260206000209060040201604051806080016040529081600082018054610221906111e9565b80601f016020809104026020016040519081016040528092919081815260200182805461024d906111e9565b801561029a5780601f1061026f5761010080835404028352916020019161029a565b820191906000526020600020905b81548152906001019060200180831161027d57829003601f168201915b505050505081526020016001820180546102b3906111e9565b80601f01602080910402602001604051908101604052809291908181526020018280546102df906111e9565b801561032c5780601f106103015761010080835404028352916020019161032c565b820191906000526020600020905b81548152906001019060200180831161030f57829003601f168201915b5050505050815260200160028201548152602001600382015481525050815260200190600101906101ee565b50505050905090565b60035481565b6002818154811061037757600080fd5b906000526020600020906004020160009150905080600001805461039a906111e9565b80601f01602080910402602001604051908101604052809291908181526020018280546103c6906111e9565b80156104135780601f106103e857610100808354040283529160200191610413565b820191906000526020600020905b8154815290600101906020018083116103f657829003601f168201915b505050505090806001018054610428906111e9565b80601f0160208091040260200160405190810160405280929190818152602001828054610454906111e9565b80156104a15780601f10610476576101008083540402835291602001916104a1565b820191906000526020600020905b81548152906001019060200180831161048457829003601f168201915b5050505050908060020154908060030154905084565b60028054905082106104fe576040517f08c379a00000000000000000000000000000000000000000000000000000000081526004016104f590611267565b60405180910390fd5b6002828154811061051257610511611287565b5b906000526020600020906004020160030154811315610566576040517f08c379a000000000000000000000000000000000000000000000000000000000815260040161055d90611302565b60405180910390fd5b6000816002848154811061057d5761057c611287565b5b9060005260206000209060040201600201546105999190611351565b905081600284815481106105b0576105af611287565b5b906000526020600020906004020160030160008282546105d09190611468565b9250508190555080600360008282546105e991906114fc565b92505081905550505050565b60606000606060006002805490508510610644576040517f08c379a000000000000000000000000000000000000000000000000000000000815260040161063b90611267565b60405180910390fd5b60006002868154811061065a57610659611287565b5b9060005260206000209060040201604051806080016040529081600082018054610683906111e9565b80601f01602080910402602001604051908101604052809291908181526020018280546106af906111e9565b80156106fc5780601f106106d1576101008083540402835291602001916106fc565b820191906000526020600020905b8154815290600101906020018083116106df57829003601f168201915b50505050508152602001600182018054610715906111e9565b80601f0160208091040260200160405190810160405280929190818152602001828054610741906111e9565b801561078e5780601f106107635761010080835404028352916020019161078e565b820191906000526020600020905b81548152906001019060200180831161077157829003601f168201915b5050505050815260200160028201548152602001600382015481525050905080600001518160400151826020015183606001519450945094509450509193509193565b60008054906101000a900473ffffffffffffffffffffffffffffffffffffffff1673ffffffffffffffffffffffffffffffffffffffff163373ffffffffffffffffffffffffffffffffffffffff161461085f576040517f08c379a000000000000000000000000000000000000000000000000000000000815260040161085690611602565b60405180910390fd5b6002604051806080016040528086815260200185815260200184815260200183815250908060018154018082558091505060019003906000526020600020906004020160009091909190915060008201518160000190805190602001906108c7929190610ac8565b5060208201518160010190805190602001906108e4929190610ac8565b506040820151816002015560608201518160030155505050505050565b60008054906101000a900473ffffffffffffffffffffffffffffffffffffffff1681565b60008054906101000a900473ffffffffffffffffffffffffffffffffffffffff1673ffffffffffffffffffffffffffffffffffffffff163373ffffffffffffffffffffffffffffffffffffffff16146109b3576040517f08c379a00000000000000000000000000000000000000000000000000000000081526004016109aa90611602565b60405180910390fd5b60028054905082106109fa576040517f08c379a00000000000000000000000000000000000000000000000000000000081526004016109f190611267565b60405180910390fd5b8060028381548110610a0f57610a0e611287565b5b90600052602060002090600402016003016000828254610a2f91906114fc565b925050819055505050565b60018054610a47906111e9565b80601f0160208091040260200160405190810160405280929190818152602001828054610a73906111e9565b8015610ac05780601f10610a9557610100808354040283529160200191610ac0565b820191906000526020600020905b815481529060010190602001808311610aa357829003601f168201915b505050505081565b828054610ad4906111e9565b90600052602060002090601f016020900481019282610af65760008555610b3d565b82601f10610b0f57805160ff1916838001178555610b3d565b82800160010185558215610b3d579182015b82811115610b3c578251825591602001919060010190610b21565b5b509050610b4a9190610b4e565b5090565b5b80821115610b67576000816000905550600101610b4f565b5090565b600081519050919050565b600082825260208201905092915050565b6000819050602082019050919050565b600081519050919050565b600082825260208201905092915050565b60005b83811015610bd1578082015181840152602081019050610bb6565b83811115610be0576000848401525b50505050565b6000601f19601f8301169050919050565b6000610c0282610b97565b610c0c8185610ba2565b9350610c1c818560208601610bb3565b610c2581610be6565b840191505092915050565b6000819050919050565b610c4381610c30565b82525050565b60006080830160008301518482036000860152610c668282610bf7565b91505060208301518482036020860152610c808282610bf7565b9150506040830151610c956040860182610c3a565b506060830151610ca86060860182610c3a565b508091505092915050565b6000610cbf8383610c49565b905092915050565b6000602082019050919050565b6000610cdf82610b6b565b610ce98185610b76565b935083602082028501610cfb85610b87565b8060005b85811015610d375784840389528151610d188582610cb3565b9450610d2383610cc7565b925060208a01995050600181019050610cff565b50829750879550505050505092915050565b60006020820190508181036000830152610d638184610cd4565b905092915050565b610d7481610c30565b82525050565b6000602082019050610d8f6000830184610d6b565b92915050565b6000604051905090565b600080fd5b600080fd5b6000819050919050565b610dbc81610da9565b8114610dc757600080fd5b50565b600081359050610dd981610db3565b92915050565b600060208284031215610df557610df4610d9f565b5b6000610e0384828501610dca565b91505092915050565b600082825260208201905092915050565b6000610e2882610b97565b610e328185610e0c565b9350610e42818560208601610bb3565b610e4b81610be6565b840191505092915050565b60006080820190508181036000830152610e708187610e1d565b90508181036020830152610e848186610e1d565b9050610e936040830185610d6b565b610ea06060830184610d6b565b95945050505050565b610eb281610c30565b8114610ebd57600080fd5b50565b600081359050610ecf81610ea9565b92915050565b60008060408385031215610eec57610eeb610d9f565b5b6000610efa85828601610dca565b9250506020610f0b85828601610ec0565b9150509250929050565b60006080820190508181036000830152610f2f8187610e1d565b9050610f3e6020830186610d6b565b8181036040830152610f508185610e1d565b9050610f5f6060830184610d6b565b95945050505050565b600080fd5b600080fd5b7f4e487b7100000000000000000000000000000000000000000000000000000000600052604160045260246000fd5b610faa82610be6565b810181811067ffffffffffffffff82111715610fc957610fc8610f72565b5b80604052505050565b6000610fdc610d95565b9050610fe88282610fa1565b919050565b600067ffffffffffffffff82111561100857611007610f72565b5b61101182610be6565b9050602081019050919050565b82818337600083830152505050565b600061104061103b84610fed565b610fd2565b90508281526020810184848401111561105c5761105b610f6d565b5b61106784828561101e565b509392505050565b600082601f83011261108457611083610f68565b5b813561109484826020860161102d565b91505092915050565b600080600080608085870312156110b7576110b6610d9f565b5b600085013567ffffffffffffffff8111156110d5576110d4610da4565b5b6110e18782880161106f565b945050602085013567ffffffffffffffff81111561110257611101610da4565b5b61110e8782880161106f565b935050604061111f87828801610ec0565b925050606061113087828801610ec0565b91505092959194509250565b600073ffffffffffffffffffffffffffffffffffffffff82169050919050565b60006111678261113c565b9050919050565b6111778161115c565b82525050565b6000602082019050611192600083018461116e565b92915050565b600060208201905081810360008301526111b28184610e1d565b905092915050565b7f4e487b7100000000000000000000000000000000000000000000000000000000600052602260045260246000fd5b6000600282049050600182168061120157607f821691505b60208210811415611215576112146111ba565b5b50919050565b7f496e646578206f7574206f6620626f756e647300000000000000000000000000600082015250565b6000611251601383610e0c565b915061125c8261121b565b602082019050919050565b6000602082019050818103600083015261128081611244565b9050919050565b7f4e487b7100000000000000000000000000000000000000000000000000000000600052603260045260246000fd5b7f496e73756666696369656e74207175616e746974790000000000000000000000600082015250565b60006112ec601583610e0c565b91506112f7826112b6565b602082019050919050565b6000602082019050818103600083015261131b816112df565b9050919050565b7f4e487b7100000000000000000000000000000000000000000000000000000000600052601160045260246000fd5b600061135c82610c30565b915061136783610c30565b9250827f7fffffffffffffffffffffffffffffffffffffffffffffffffffffffffffffff04821160008413600084131616156113a6576113a5611322565b5b817f800000000000000000000000000000000000000000000000000000000000000005831260008412600084131616156113e3576113e2611322565b5b827f800000000000000000000000000000000000000000000000000000000000000005821260008413600084121616156114205761141f611322565b5b827f7fffffffffffffffffffffffffffffffffffffffffffffffffffffffffffffff058212600084126000841216161561145d5761145c611322565b5b828202905092915050565b600061147382610c30565b915061147e83610c30565b9250827f8000000000000000000000000000000000000000000000000000000000000000018212600084121516156114b9576114b8611322565b5b827f7fffffffffffffffffffffffffffffffffffffffffffffffffffffffffffffff0182136000841216156114f1576114f0611322565b5b828203905092915050565b600061150782610c30565b915061151283610c30565b9250817f7fffffffffffffffffffffffffffffffffffffffffffffffffffffffffffffff0383136000831215161561154d5761154c611322565b5b817f800000000000000000000000000000000000000000000000000000000000000003831260008312161561158557611584611322565b5b828201905092915050565b7f4f6e6c792070726f64756365722063616e20616363657373207468697320667560008201527f6e6374696f6e0000000000000000000000000000000000000000000000000000602082015250565b60006115ec602683610e0c565b91506115f782611590565b604082019050919050565b6000602082019050818103600083015261161b816115df565b905091905056fea2646970667358221220a7511c6765bac96e38bef642350aa7f5f6223e1d2d4ad785f1380ce4196d83b964736f6c63430008090033",
            "opcodes": "PUSH1 0x80 PUSH1 0x40 MSTORE CALLVALUE DUP1 ISZERO PUSH3 0x11 JUMPI PUSH1 0x0 DUP1 REVERT JUMPDEST POP PUSH1 0x40 MLOAD PUSH3 0x1A02 CODESIZE SUB DUP1 PUSH3 0x1A02 DUP4 CODECOPY DUP2 DUP2 ADD PUSH1 0x40 MSTORE DUP2 ADD SWAP1 PUSH3 0x37 SWAP2 SWAP1 PUSH3 0x2E4 JUMP JUMPDEST CALLER PUSH1 0x0 DUP1 PUSH2 0x100 EXP DUP2 SLOAD DUP2 PUSH20 0xFFFFFFFFFFFFFFFFFFFFFFFFFFFFFFFFFFFFFFFF MUL NOT AND SWAP1 DUP4 PUSH20 0xFFFFFFFFFFFFFFFFFFFFFFFFFFFFFFFFFFFFFFFF AND MUL OR SWAP1 SSTORE POP DUP1 PUSH1 0x1 SWAP1 DUP1 MLOAD SWAP1 PUSH1 0x20 ADD SWAP1 PUSH3 0x8F SWAP3 SWAP2 SWAP1 PUSH3 0x97 JUMP JUMPDEST POP POP PUSH3 0x39A JUMP JUMPDEST DUP3 DUP1 SLOAD PUSH3 0xA5 SWAP1 PUSH3 0x364 JUMP JUMPDEST SWAP1 PUSH1 0x0 MSTORE PUSH1 0x20 PUSH1 0x0 KECCAK256 SWAP1 PUSH1 0x1F ADD PUSH1 0x20 SWAP1 DIV DUP2 ADD SWAP3 DUP3 PUSH3 0xC9 JUMPI PUSH1 0x0 DUP6 SSTORE PUSH3 0x115 JUMP JUMPDEST DUP3 PUSH1 0x1F LT PUSH3 0xE4 JUMPI DUP1 MLOAD PUSH1 0xFF NOT AND DUP4 DUP1 ADD OR DUP6 SSTORE PUSH3 0x115 JUMP JUMPDEST DUP3 DUP1 ADD PUSH1 0x1 ADD DUP6 SSTORE DUP3 ISZERO PUSH3 0x115 JUMPI SWAP2 DUP3 ADD JUMPDEST DUP3 DUP2 GT ISZERO PUSH3 0x114 JUMPI DUP3 MLOAD DUP3 SSTORE SWAP2 PUSH1 0x20 ADD SWAP2 SWAP1 PUSH1 0x1 ADD SWAP1 PUSH3 0xF7 JUMP JUMPDEST JUMPDEST POP SWAP1 POP PUSH3 0x124 SWAP2 SWAP1 PUSH3 0x128 JUMP JUMPDEST POP SWAP1 JUMP JUMPDEST JUMPDEST DUP1 DUP3 GT ISZERO PUSH3 0x143 JUMPI PUSH1 0x0 DUP2 PUSH1 0x0 SWAP1 SSTORE POP PUSH1 0x1 ADD PUSH3 0x129 JUMP JUMPDEST POP SWAP1 JUMP JUMPDEST PUSH1 0x0 PUSH1 0x40 MLOAD SWAP1 POP SWAP1 JUMP JUMPDEST PUSH1 0x0 DUP1 REVERT JUMPDEST PUSH1 0x0 DUP1 REVERT JUMPDEST PUSH1 0x0 DUP1 REVERT JUMPDEST PUSH1 0x0 DUP1 REVERT JUMPDEST PUSH1 0x0 PUSH1 0x1F NOT PUSH1 0x1F DUP4 ADD AND SWAP1 POP SWAP2 SWAP1 POP JUMP JUMPDEST PUSH32 0x4E487B7100000000000000000000000000000000000000000000000000000000 PUSH1 0x0 MSTORE PUSH1 0x41 PUSH1 0x4 MSTORE PUSH1 0x24 PUSH1 0x0 REVERT JUMPDEST PUSH3 0x1B0 DUP3 PUSH3 0x165 JUMP JUMPDEST DUP2 ADD DUP2 DUP2 LT PUSH8 0xFFFFFFFFFFFFFFFF DUP3 GT OR ISZERO PUSH3 0x1D2 JUMPI PUSH3 0x1D1 PUSH3 0x176 JUMP JUMPDEST JUMPDEST DUP1 PUSH1 0x40 MSTORE POP POP POP JUMP JUMPDEST PUSH1 0x0 PUSH3 0x1E7 PUSH3 0x147 JUMP JUMPDEST SWAP1 POP PUSH3 0x1F5 DUP3 DUP3 PUSH3 0x1A5 JUMP JUMPDEST SWAP2 SWAP1 POP JUMP JUMPDEST PUSH1 0x0 PUSH8 0xFFFFFFFFFFFFFFFF DUP3 GT ISZERO PUSH3 0x218 JUMPI PUSH3 0x217 PUSH3 0x176 JUMP JUMPDEST JUMPDEST PUSH3 0x223 DUP3 PUSH3 0x165 JUMP JUMPDEST SWAP1 POP PUSH1 0x20 DUP2 ADD SWAP1 POP SWAP2 SWAP1 POP JUMP JUMPDEST PUSH1 0x0 JUMPDEST DUP4 DUP2 LT ISZERO PUSH3 0x250 JUMPI DUP1 DUP3 ADD MLOAD DUP2 DUP5 ADD MSTORE PUSH1 0x20 DUP2 ADD SWAP1 POP PUSH3 0x233 JUMP JUMPDEST DUP4 DUP2 GT ISZERO PUSH3 0x260 JUMPI PUSH1 0x0 DUP5 DUP5 ADD MSTORE JUMPDEST POP POP POP POP JUMP JUMPDEST PUSH1 0x0 PUSH3 0x27D PUSH3 0x277 DUP5 PUSH3 0x1FA JUMP JUMPDEST PUSH3 0x1DB JUMP JUMPDEST SWAP1 POP DUP3 DUP2 MSTORE PUSH1 0x20 DUP2 ADD DUP5 DUP5 DUP5 ADD GT ISZERO PUSH3 0x29C JUMPI PUSH3 0x29B PUSH3 0x160 JUMP JUMPDEST JUMPDEST PUSH3 0x2A9 DUP5 DUP3 DUP6 PUSH3 0x230 JUMP JUMPDEST POP SWAP4 SWAP3 POP POP POP JUMP JUMPDEST PUSH1 0x0 DUP3 PUSH1 0x1F DUP4 ADD SLT PUSH3 0x2C9 JUMPI PUSH3 0x2C8 PUSH3 0x15B JUMP JUMPDEST JUMPDEST DUP2 MLOAD PUSH3 0x2DB DUP5 DUP3 PUSH1 0x20 DUP7 ADD PUSH3 0x266 JUMP JUMPDEST SWAP2 POP POP SWAP3 SWAP2 POP POP JUMP JUMPDEST PUSH1 0x0 PUSH1 0x20 DUP3 DUP5 SUB SLT ISZERO PUSH3 0x2FD JUMPI PUSH3 0x2FC PUSH3 0x151 JUMP JUMPDEST JUMPDEST PUSH1 0x0 DUP3 ADD MLOAD PUSH8 0xFFFFFFFFFFFFFFFF DUP2 GT ISZERO PUSH3 0x31E JUMPI PUSH3 0x31D PUSH3 0x156 JUMP JUMPDEST JUMPDEST PUSH3 0x32C DUP5 DUP3 DUP6 ADD PUSH3 0x2B1 JUMP JUMPDEST SWAP2 POP POP SWAP3 SWAP2 POP POP JUMP JUMPDEST PUSH32 0x4E487B7100000000000000000000000000000000000000000000000000000000 PUSH1 0x0 MSTORE PUSH1 0x22 PUSH1 0x4 MSTORE PUSH1 0x24 PUSH1 0x0 REVERT JUMPDEST PUSH1 0x0 PUSH1 0x2 DUP3 DIV SWAP1 POP PUSH1 0x1 DUP3 AND DUP1 PUSH3 0x37D JUMPI PUSH1 0x7F DUP3 AND SWAP2 POP JUMPDEST PUSH1 0x20 DUP3 LT DUP2 EQ ISZERO PUSH3 0x394 JUMPI PUSH3 0x393 PUSH3 0x335 JUMP JUMPDEST JUMPDEST POP SWAP2 SWAP1 POP JUMP JUMPDEST PUSH2 0x1658 DUP1 PUSH3 0x3AA PUSH1 0x0 CODECOPY PUSH1 0x0 RETURN INVALID PUSH1 0x80 PUSH1 0x40 MSTORE CALLVALUE DUP1 ISZERO PUSH2 0x10 JUMPI PUSH1 0x0 DUP1 REVERT JUMPDEST POP PUSH1 0x4 CALLDATASIZE LT PUSH2 0x93 JUMPI PUSH1 0x0 CALLDATALOAD PUSH1 0xE0 SHR DUP1 PUSH4 0x8BC7FA9C GT PUSH2 0x66 JUMPI DUP1 PUSH4 0x8BC7FA9C EQ PUSH2 0x123 JUMPI DUP1 PUSH4 0x8D8E11DC EQ PUSH2 0x156 JUMPI DUP1 PUSH4 0xA7CA997D EQ PUSH2 0x172 JUMPI DUP1 PUSH4 0xC93BFBB5 EQ PUSH2 0x190 JUMPI DUP1 PUSH4 0xE4177269 EQ PUSH2 0x1AC JUMPI PUSH2 0x93 JUMP JUMPDEST DUP1 PUSH4 0x1D48DC90 EQ PUSH2 0x98 JUMPI DUP1 PUSH4 0x6605FF66 EQ PUSH2 0xB6 JUMPI DUP1 PUSH4 0x70C9F1A5 EQ PUSH2 0xD4 JUMPI DUP1 PUSH4 0x8A23163F EQ PUSH2 0x107 JUMPI JUMPDEST PUSH1 0x0 DUP1 REVERT JUMPDEST PUSH2 0xA0 PUSH2 0x1CA JUMP JUMPDEST PUSH1 0x40 MLOAD PUSH2 0xAD SWAP2 SWAP1 PUSH2 0xD49 JUMP JUMPDEST PUSH1 0x40 MLOAD DUP1 SWAP2 SUB SWAP1 RETURN JUMPDEST PUSH2 0xBE PUSH2 0x361 JUMP JUMPDEST PUSH1 0x40 MLOAD PUSH2 0xCB SWAP2 SWAP1 PUSH2 0xD7A JUMP JUMPDEST PUSH1 0x40 MLOAD DUP1 SWAP2 SUB SWAP1 RETURN JUMPDEST PUSH2 0xEE PUSH1 0x4 DUP1 CALLDATASIZE SUB DUP2 ADD SWAP1 PUSH2 0xE9 SWAP2 SWAP1 PUSH2 0xDDF JUMP JUMPDEST PUSH2 0x367 JUMP JUMPDEST PUSH1 0x40 MLOAD PUSH2 0xFE SWAP5 SWAP4 SWAP3 SWAP2 SWAP1 PUSH2 0xE56 JUMP JUMPDEST PUSH1 0x40 MLOAD DUP1 SWAP2 SUB SWAP1 RETURN JUMPDEST PUSH2 0x121 PUSH1 0x4 DUP1 CALLDATASIZE SUB DUP2 ADD SWAP1 PUSH2 0x11C SWAP2 SWAP1 PUSH2 0xED5 JUMP JUMPDEST PUSH2 0x4B7 JUMP JUMPDEST STOP JUMPDEST PUSH2 0x13D PUSH1 0x4 DUP1 CALLDATASIZE SUB DUP2 ADD SWAP1 PUSH2 0x138 SWAP2 SWAP1 PUSH2 0xDDF JUMP JUMPDEST PUSH2 0x5F5 JUMP JUMPDEST PUSH1 0x40 MLOAD PUSH2 0x14D SWAP5 SWAP4 SWAP3 SWAP2 SWAP1 PUSH2 0xF15 JUMP JUMPDEST PUSH1 0x40 MLOAD DUP1 SWAP2 SUB SWAP1 RETURN JUMPDEST PUSH2 0x170 PUSH1 0x4 DUP1 CALLDATASIZE SUB DUP2 ADD SWAP1 PUSH2 0x16B SWAP2 SWAP1 PUSH2 0x109D JUMP JUMPDEST PUSH2 0x7D1 JUMP JUMPDEST STOP JUMPDEST PUSH2 0x17A PUSH2 0x901 JUMP JUMPDEST PUSH1 0x40 MLOAD PUSH2 0x187 SWAP2 SWAP1 PUSH2 0x117D JUMP JUMPDEST PUSH1 0x40 MLOAD DUP1 SWAP2 SUB SWAP1 RETURN JUMPDEST PUSH2 0x1AA PUSH1 0x4 DUP1 CALLDATASIZE SUB DUP2 ADD SWAP1 PUSH2 0x1A5 SWAP2 SWAP1 PUSH2 0xED5 JUMP JUMPDEST PUSH2 0x925 JUMP JUMPDEST STOP JUMPDEST PUSH2 0x1B4 PUSH2 0xA3A JUMP JUMPDEST PUSH1 0x40 MLOAD PUSH2 0x1C1 SWAP2 SWAP1 PUSH2 0x1198 JUMP JUMPDEST PUSH1 0x40 MLOAD DUP1 SWAP2 SUB SWAP1 RETURN JUMPDEST PUSH1 0x60 PUSH1 0x2 DUP1 SLOAD DUP1 PUSH1 0x20 MUL PUSH1 0x20 ADD PUSH1 0x40 MLOAD SWAP1 DUP2 ADD PUSH1 0x40 MSTORE DUP1 SWAP3 SWAP2 SWAP1 DUP2 DUP2 MSTORE PUSH1 0x20 ADD PUSH1 0x0 SWAP1 JUMPDEST DUP3 DUP3 LT ISZERO PUSH2 0x358 JUMPI DUP4 DUP3 SWAP1 PUSH1 0x0 MSTORE PUSH1 0x20 PUSH1 0x0 KECCAK256 SWAP1 PUSH1 0x4 MUL ADD PUSH1 0x40 MLOAD DUP1 PUSH1 0x80 ADD PUSH1 0x40 MSTORE SWAP1 DUP2 PUSH1 0x0 DUP3 ADD DUP1 SLOAD PUSH2 0x221 SWAP1 PUSH2 0x11E9 JUMP JUMPDEST DUP1 PUSH1 0x1F ADD PUSH1 0x20 DUP1 SWAP2 DIV MUL PUSH1 0x20 ADD PUSH1 0x40 MLOAD SWAP1 DUP2 ADD PUSH1 0x40 MSTORE DUP1 SWAP3 SWAP2 SWAP1 DUP2 DUP2 MSTORE PUSH1 0x20 ADD DUP3 DUP1 SLOAD PUSH2 0x24D SWAP1 PUSH2 0x11E9 JUMP JUMPDEST DUP1 ISZERO PUSH2 0x29A JUMPI DUP1 PUSH1 0x1F LT PUSH2 0x26F JUMPI PUSH2 0x100 DUP1 DUP4 SLOAD DIV MUL DUP4 MSTORE SWAP2 PUSH1 0x20 ADD SWAP2 PUSH2 0x29A JUMP JUMPDEST DUP3 ADD SWAP2 SWAP1 PUSH1 0x0 MSTORE PUSH1 0x20 PUSH1 0x0 KECCAK256 SWAP1 JUMPDEST DUP2 SLOAD DUP2 MSTORE SWAP1 PUSH1 0x1 ADD SWAP1 PUSH1 0x20 ADD DUP1 DUP4 GT PUSH2 0x27D JUMPI DUP3 SWAP1 SUB PUSH1 0x1F AND DUP3 ADD SWAP2 JUMPDEST POP POP POP POP POP DUP2 MSTORE PUSH1 0x20 ADD PUSH1 0x1 DUP3 ADD DUP1 SLOAD PUSH2 0x2B3 SWAP1 PUSH2 0x11E9 JUMP JUMPDEST DUP1 PUSH1 0x1F ADD PUSH1 0x20 DUP1 SWAP2 DIV MUL PUSH1 0x20 ADD PUSH1 0x40 MLOAD SWAP1 DUP2 ADD PUSH1 0x40 MSTORE DUP1 SWAP3 SWAP2 SWAP1 DUP2 DUP2 MSTORE PUSH1 0x20 ADD DUP3 DUP1 SLOAD PUSH2 0x2DF SWAP1 PUSH2 0x11E9 JUMP JUMPDEST DUP1 ISZERO PUSH2 0x32C JUMPI DUP1 PUSH1 0x1F LT PUSH2 0x301 JUMPI PUSH2 0x100 DUP1 DUP4 SLOAD DIV MUL DUP4 MSTORE SWAP2 PUSH1 0x20 ADD SWAP2 PUSH2 0x32C JUMP JUMPDEST DUP3 ADD SWAP2 SWAP1 PUSH1 0x0 MSTORE PUSH1 0x20 PUSH1 0x0 KECCAK256 SWAP1 JUMPDEST DUP2 SLOAD DUP2 MSTORE SWAP1 PUSH1 0x1 ADD SWAP1 PUSH1 0x20 ADD DUP1 DUP4 GT PUSH2 0x30F JUMPI DUP3 SWAP1 SUB PUSH1 0x1F AND DUP3 ADD SWAP2 JUMPDEST POP POP POP POP POP DUP2 MSTORE PUSH1 0x20 ADD PUSH1 0x2 DUP3 ADD SLOAD DUP2 MSTORE PUSH1 0x20 ADD PUSH1 0x3 DUP3 ADD SLOAD DUP2 MSTORE POP POP DUP2 MSTORE PUSH1 0x20 ADD SWAP1 PUSH1 0x1 ADD SWAP1 PUSH2 0x1EE JUMP JUMPDEST POP POP POP POP SWAP1 POP SWAP1 JUMP JUMPDEST PUSH1 0x3 SLOAD DUP2 JUMP JUMPDEST PUSH1 0x2 DUP2 DUP2 SLOAD DUP2 LT PUSH2 0x377 JUMPI PUSH1 0x0 DUP1 REVERT JUMPDEST SWAP1 PUSH1 0x0 MSTORE PUSH1 0x20 PUSH1 0x0 KECCAK256 SWAP1 PUSH1 0x4 MUL ADD PUSH1 0x0 SWAP2 POP SWAP1 POP DUP1 PUSH1 0x0 ADD DUP1 SLOAD PUSH2 0x39A SWAP1 PUSH2 0x11E9 JUMP JUMPDEST DUP1 PUSH1 0x1F ADD PUSH1 0x20 DUP1 SWAP2 DIV MUL PUSH1 0x20 ADD PUSH1 0x40 MLOAD SWAP1 DUP2 ADD PUSH1 0x40 MSTORE DUP1 SWAP3 SWAP2 SWAP1 DUP2 DUP2 MSTORE PUSH1 0x20 ADD DUP3 DUP1 SLOAD PUSH2 0x3C6 SWAP1 PUSH2 0x11E9 JUMP JUMPDEST DUP1 ISZERO PUSH2 0x413 JUMPI DUP1 PUSH1 0x1F LT PUSH2 0x3E8 JUMPI PUSH2 0x100 DUP1 DUP4 SLOAD DIV MUL DUP4 MSTORE SWAP2 PUSH1 0x20 ADD SWAP2 PUSH2 0x413 JUMP JUMPDEST DUP3 ADD SWAP2 SWAP1 PUSH1 0x0 MSTORE PUSH1 0x20 PUSH1 0x0 KECCAK256 SWAP1 JUMPDEST DUP2 SLOAD DUP2 MSTORE SWAP1 PUSH1 0x1 ADD SWAP1 PUSH1 0x20 ADD DUP1 DUP4 GT PUSH2 0x3F6 JUMPI DUP3 SWAP1 SUB PUSH1 0x1F AND DUP3 ADD SWAP2 JUMPDEST POP POP POP POP POP SWAP1 DUP1 PUSH1 0x1 ADD DUP1 SLOAD PUSH2 0x428 SWAP1 PUSH2 0x11E9 JUMP JUMPDEST DUP1 PUSH1 0x1F ADD PUSH1 0x20 DUP1 SWAP2 DIV MUL PUSH1 0x20 ADD PUSH1 0x40 MLOAD SWAP1 DUP2 ADD PUSH1 0x40 MSTORE DUP1 SWAP3 SWAP2 SWAP1 DUP2 DUP2 MSTORE PUSH1 0x20 ADD DUP3 DUP1 SLOAD PUSH2 0x454 SWAP1 PUSH2 0x11E9 JUMP JUMPDEST DUP1 ISZERO PUSH2 0x4A1 JUMPI DUP1 PUSH1 0x1F LT PUSH2 0x476 JUMPI PUSH2 0x100 DUP1 DUP4 SLOAD DIV MUL DUP4 MSTORE SWAP2 PUSH1 0x20 ADD SWAP2 PUSH2 0x4A1 JUMP JUMPDEST DUP3 ADD SWAP2 SWAP1 PUSH1 0x0 MSTORE PUSH1 0x20 PUSH1 0x0 KECCAK256 SWAP1 JUMPDEST DUP2 SLOAD DUP2 MSTORE SWAP1 PUSH1 0x1 ADD SWAP1 PUSH1 0x20 ADD DUP1 DUP4 GT PUSH2 0x484 JUMPI DUP3 SWAP1 SUB PUSH1 0x1F AND DUP3 ADD SWAP2 JUMPDEST POP POP POP POP POP SWAP1 DUP1 PUSH1 0x2 ADD SLOAD SWAP1 DUP1 PUSH1 0x3 ADD SLOAD SWAP1 POP DUP5 JUMP JUMPDEST PUSH1 0x2 DUP1 SLOAD SWAP1 POP DUP3 LT PUSH2 0x4FE JUMPI PUSH1 0x40 MLOAD PUSH32 0x8C379A000000000000000000000000000000000000000000000000000000000 DUP2 MSTORE PUSH1 0x4 ADD PUSH2 0x4F5 SWAP1 PUSH2 0x1267 JUMP JUMPDEST PUSH1 0x40 MLOAD DUP1 SWAP2 SUB SWAP1 REVERT JUMPDEST PUSH1 0x2 DUP3 DUP2 SLOAD DUP2 LT PUSH2 0x512 JUMPI PUSH2 0x511 PUSH2 0x1287 JUMP JUMPDEST JUMPDEST SWAP1 PUSH1 0x0 MSTORE PUSH1 0x20 PUSH1 0x0 KECCAK256 SWAP1 PUSH1 0x4 MUL ADD PUSH1 0x3 ADD SLOAD DUP2 SGT ISZERO PUSH2 0x566 JUMPI PUSH1 0x40 MLOAD PUSH32 0x8C379A000000000000000000000000000000000000000000000000000000000 DUP2 MSTORE PUSH1 0x4 ADD PUSH2 0x55D SWAP1 PUSH2 0x1302 JUMP JUMPDEST PUSH1 0x40 MLOAD DUP1 SWAP2 SUB SWAP1 REVERT JUMPDEST PUSH1 0x0 DUP2 PUSH1 0x2 DUP5 DUP2 SLOAD DUP2 LT PUSH2 0x57D JUMPI PUSH2 0x57C PUSH2 0x1287 JUMP JUMPDEST JUMPDEST SWAP1 PUSH1 0x0 MSTORE PUSH1 0x20 PUSH1 0x0 KECCAK256 SWAP1 PUSH1 0x4 MUL ADD PUSH1 0x2 ADD SLOAD PUSH2 0x599 SWAP2 SWAP1 PUSH2 0x1351 JUMP JUMPDEST SWAP1 POP DUP2 PUSH1 0x2 DUP5 DUP2 SLOAD DUP2 LT PUSH2 0x5B0 JUMPI PUSH2 0x5AF PUSH2 0x1287 JUMP JUMPDEST JUMPDEST SWAP1 PUSH1 0x0 MSTORE PUSH1 0x20 PUSH1 0x0 KECCAK256 SWAP1 PUSH1 0x4 MUL ADD PUSH1 0x3 ADD PUSH1 0x0 DUP3 DUP3 SLOAD PUSH2 0x5D0 SWAP2 SWAP1 PUSH2 0x1468 JUMP JUMPDEST SWAP3 POP POP DUP2 SWAP1 SSTORE POP DUP1 PUSH1 0x3 PUSH1 0x0 DUP3 DUP3 SLOAD PUSH2 0x5E9 SWAP2 SWAP1 PUSH2 0x14FC JUMP JUMPDEST SWAP3 POP POP DUP2 SWAP1 SSTORE POP POP POP POP JUMP JUMPDEST PUSH1 0x60 PUSH1 0x0 PUSH1 0x60 PUSH1 0x0 PUSH1 0x2 DUP1 SLOAD SWAP1 POP DUP6 LT PUSH2 0x644 JUMPI PUSH1 0x40 MLOAD PUSH32 0x8C379A000000000000000000000000000000000000000000000000000000000 DUP2 MSTORE PUSH1 0x4 ADD PUSH2 0x63B SWAP1 PUSH2 0x1267 JUMP JUMPDEST PUSH1 0x40 MLOAD DUP1 SWAP2 SUB SWAP1 REVERT JUMPDEST PUSH1 0x0 PUSH1 0x2 DUP7 DUP2 SLOAD DUP2 LT PUSH2 0x65A JUMPI PUSH2 0x659 PUSH2 0x1287 JUMP JUMPDEST JUMPDEST SWAP1 PUSH1 0x0 MSTORE PUSH1 0x20 PUSH1 0x0 KECCAK256 SWAP1 PUSH1 0x4 MUL ADD PUSH1 0x40 MLOAD DUP1 PUSH1 0x80 ADD PUSH1 0x40 MSTORE SWAP1 DUP2 PUSH1 0x0 DUP3 ADD DUP1 SLOAD PUSH2 0x683 SWAP1 PUSH2 0x11E9 JUMP JUMPDEST DUP1 PUSH1 0x1F ADD PUSH1 0x20 DUP1 SWAP2 DIV MUL PUSH1 0x20 ADD PUSH1 0x40 MLOAD SWAP1 DUP2 ADD PUSH1 0x40 MSTORE DUP1 SWAP3 SWAP2 SWAP1 DUP2 DUP2 MSTORE PUSH1 0x20 ADD DUP3 DUP1 SLOAD PUSH2 0x6AF SWAP1 PUSH2 0x11E9 JUMP JUMPDEST DUP1 ISZERO PUSH2 0x6FC JUMPI DUP1 PUSH1 0x1F LT PUSH2 0x6D1 JUMPI PUSH2 0x100 DUP1 DUP4 SLOAD DIV MUL DUP4 MSTORE SWAP2 PUSH1 0x20 ADD SWAP2 PUSH2 0x6FC JUMP JUMPDEST DUP3 ADD SWAP2 SWAP1 PUSH1 0x0 MSTORE PUSH1 0x20 PUSH1 0x0 KECCAK256 SWAP1 JUMPDEST DUP2 SLOAD DUP2 MSTORE SWAP1 PUSH1 0x1 ADD SWAP1 PUSH1 0x20 ADD DUP1 DUP4 GT PUSH2 0x6DF JUMPI DUP3 SWAP1 SUB PUSH1 0x1F AND DUP3 ADD SWAP2 JUMPDEST POP POP POP POP POP DUP2 MSTORE PUSH1 0x20 ADD PUSH1 0x1 DUP3 ADD DUP1 SLOAD PUSH2 0x715 SWAP1 PUSH2 0x11E9 JUMP JUMPDEST DUP1 PUSH1 0x1F ADD PUSH1 0x20 DUP1 SWAP2 DIV MUL PUSH1 0x20 ADD PUSH1 0x40 MLOAD SWAP1 DUP2 ADD PUSH1 0x40 MSTORE DUP1 SWAP3 SWAP2 SWAP1 DUP2 DUP2 MSTORE PUSH1 0x20 ADD DUP3 DUP1 SLOAD PUSH2 0x741 SWAP1 PUSH2 0x11E9 JUMP JUMPDEST DUP1 ISZERO PUSH2 0x78E JUMPI DUP1 PUSH1 0x1F LT PUSH2 0x763 JUMPI PUSH2 0x100 DUP1 DUP4 SLOAD DIV MUL DUP4 MSTORE SWAP2 PUSH1 0x20 ADD SWAP2 PUSH2 0x78E JUMP JUMPDEST DUP3 ADD SWAP2 SWAP1 PUSH1 0x0 MSTORE PUSH1 0x20 PUSH1 0x0 KECCAK256 SWAP1 JUMPDEST DUP2 SLOAD DUP2 MSTORE SWAP1 PUSH1 0x1 ADD SWAP1 PUSH1 0x20 ADD DUP1 DUP4 GT PUSH2 0x771 JUMPI DUP3 SWAP1 SUB PUSH1 0x1F AND DUP3 ADD SWAP2 JUMPDEST POP POP POP POP POP DUP2 MSTORE PUSH1 0x20 ADD PUSH1 0x2 DUP3 ADD SLOAD DUP2 MSTORE PUSH1 0x20 ADD PUSH1 0x3 DUP3 ADD SLOAD DUP2 MSTORE POP POP SWAP1 POP DUP1 PUSH1 0x0 ADD MLOAD DUP2 PUSH1 0x40 ADD MLOAD DUP3 PUSH1 0x20 ADD MLOAD DUP4 PUSH1 0x60 ADD MLOAD SWAP5 POP SWAP5 POP SWAP5 POP SWAP5 POP POP SWAP2 SWAP4 POP SWAP2 SWAP4 JUMP JUMPDEST PUSH1 0x0 DUP1 SLOAD SWAP1 PUSH2 0x100 EXP SWAP1 DIV PUSH20 0xFFFFFFFFFFFFFFFFFFFFFFFFFFFFFFFFFFFFFFFF AND PUSH20 0xFFFFFFFFFFFFFFFFFFFFFFFFFFFFFFFFFFFFFFFF AND CALLER PUSH20 0xFFFFFFFFFFFFFFFFFFFFFFFFFFFFFFFFFFFFFFFF AND EQ PUSH2 0x85F JUMPI PUSH1 0x40 MLOAD PUSH32 0x8C379A000000000000000000000000000000000000000000000000000000000 DUP2 MSTORE PUSH1 0x4 ADD PUSH2 0x856 SWAP1 PUSH2 0x1602 JUMP JUMPDEST PUSH1 0x40 MLOAD DUP1 SWAP2 SUB SWAP1 REVERT JUMPDEST PUSH1 0x2 PUSH1 0x40 MLOAD DUP1 PUSH1 0x80 ADD PUSH1 0x40 MSTORE DUP1 DUP7 DUP2 MSTORE PUSH1 0x20 ADD DUP6 DUP2 MSTORE PUSH1 0x20 ADD DUP5 DUP2 MSTORE PUSH1 0x20 ADD DUP4 DUP2 MSTORE POP SWAP1 DUP1 PUSH1 0x1 DUP2 SLOAD ADD DUP1 DUP3 SSTORE DUP1 SWAP2 POP POP PUSH1 0x1 SWAP1 SUB SWAP1 PUSH1 0x0 MSTORE PUSH1 0x20 PUSH1 0x0 KECCAK256 SWAP1 PUSH1 0x4 MUL ADD PUSH1 0x0 SWAP1 SWAP2 SWAP1 SWAP2 SWAP1 SWAP2 POP PUSH1 0x0 DUP3 ADD MLOAD DUP2 PUSH1 0x0 ADD SWAP1 DUP1 MLOAD SWAP1 PUSH1 0x20 ADD SWAP1 PUSH2 0x8C7 SWAP3 SWAP2 SWAP1 PUSH2 0xAC8 JUMP JUMPDEST POP PUSH1 0x20 DUP3 ADD MLOAD DUP2 PUSH1 0x1 ADD SWAP1 DUP1 MLOAD SWAP1 PUSH1 0x20 ADD SWAP1 PUSH2 0x8E4 SWAP3 SWAP2 SWAP1 PUSH2 0xAC8 JUMP JUMPDEST POP PUSH1 0x40 DUP3 ADD MLOAD DUP2 PUSH1 0x2 ADD SSTORE PUSH1 0x60 DUP3 ADD MLOAD DUP2 PUSH1 0x3 ADD SSTORE POP POP POP POP POP POP JUMP JUMPDEST PUSH1 0x0 DUP1 SLOAD SWAP1 PUSH2 0x100 EXP SWAP1 DIV PUSH20 0xFFFFFFFFFFFFFFFFFFFFFFFFFFFFFFFFFFFFFFFF AND DUP2 JUMP JUMPDEST PUSH1 0x0 DUP1 SLOAD SWAP1 PUSH2 0x100 EXP SWAP1 DIV PUSH20 0xFFFFFFFFFFFFFFFFFFFFFFFFFFFFFFFFFFFFFFFF AND PUSH20 0xFFFFFFFFFFFFFFFFFFFFFFFFFFFFFFFFFFFFFFFF AND CALLER PUSH20 0xFFFFFFFFFFFFFFFFFFFFFFFFFFFFFFFFFFFFFFFF AND EQ PUSH2 0x9B3 JUMPI PUSH1 0x40 MLOAD PUSH32 0x8C379A000000000000000000000000000000000000000000000000000000000 DUP2 MSTORE PUSH1 0x4 ADD PUSH2 0x9AA SWAP1 PUSH2 0x1602 JUMP JUMPDEST PUSH1 0x40 MLOAD DUP1 SWAP2 SUB SWAP1 REVERT JUMPDEST PUSH1 0x2 DUP1 SLOAD SWAP1 POP DUP3 LT PUSH2 0x9FA JUMPI PUSH1 0x40 MLOAD PUSH32 0x8C379A000000000000000000000000000000000000000000000000000000000 DUP2 MSTORE PUSH1 0x4 ADD PUSH2 0x9F1 SWAP1 PUSH2 0x1267 JUMP JUMPDEST PUSH1 0x40 MLOAD DUP1 SWAP2 SUB SWAP1 REVERT JUMPDEST DUP1 PUSH1 0x2 DUP4 DUP2 SLOAD DUP2 LT PUSH2 0xA0F JUMPI PUSH2 0xA0E PUSH2 0x1287 JUMP JUMPDEST JUMPDEST SWAP1 PUSH1 0x0 MSTORE PUSH1 0x20 PUSH1 0x0 KECCAK256 SWAP1 PUSH1 0x4 MUL ADD PUSH1 0x3 ADD PUSH1 0x0 DUP3 DUP3 SLOAD PUSH2 0xA2F SWAP2 SWAP1 PUSH2 0x14FC JUMP JUMPDEST SWAP3 POP POP DUP2 SWAP1 SSTORE POP POP POP JUMP JUMPDEST PUSH1 0x1 DUP1 SLOAD PUSH2 0xA47 SWAP1 PUSH2 0x11E9 JUMP JUMPDEST DUP1 PUSH1 0x1F ADD PUSH1 0x20 DUP1 SWAP2 DIV MUL PUSH1 0x20 ADD PUSH1 0x40 MLOAD SWAP1 DUP2 ADD PUSH1 0x40 MSTORE DUP1 SWAP3 SWAP2 SWAP1 DUP2 DUP2 MSTORE PUSH1 0x20 ADD DUP3 DUP1 SLOAD PUSH2 0xA73 SWAP1 PUSH2 0x11E9 JUMP JUMPDEST DUP1 ISZERO PUSH2 0xAC0 JUMPI DUP1 PUSH1 0x1F LT PUSH2 0xA95 JUMPI PUSH2 0x100 DUP1 DUP4 SLOAD DIV MUL DUP4 MSTORE SWAP2 PUSH1 0x20 ADD SWAP2 PUSH2 0xAC0 JUMP JUMPDEST DUP3 ADD SWAP2 SWAP1 PUSH1 0x0 MSTORE PUSH1 0x20 PUSH1 0x0 KECCAK256 SWAP1 JUMPDEST DUP2 SLOAD DUP2 MSTORE SWAP1 PUSH1 0x1 ADD SWAP1 PUSH1 0x20 ADD DUP1 DUP4 GT PUSH2 0xAA3 JUMPI DUP3 SWAP1 SUB PUSH1 0x1F AND DUP3 ADD SWAP2 JUMPDEST POP POP POP POP POP DUP2 JUMP JUMPDEST DUP3 DUP1 SLOAD PUSH2 0xAD4 SWAP1 PUSH2 0x11E9 JUMP JUMPDEST SWAP1 PUSH1 0x0 MSTORE PUSH1 0x20 PUSH1 0x0 KECCAK256 SWAP1 PUSH1 0x1F ADD PUSH1 0x20 SWAP1 DIV DUP2 ADD SWAP3 DUP3 PUSH2 0xAF6 JUMPI PUSH1 0x0 DUP6 SSTORE PUSH2 0xB3D JUMP JUMPDEST DUP3 PUSH1 0x1F LT PUSH2 0xB0F JUMPI DUP1 MLOAD PUSH1 0xFF NOT AND DUP4 DUP1 ADD OR DUP6 SSTORE PUSH2 0xB3D JUMP JUMPDEST DUP3 DUP1 ADD PUSH1 0x1 ADD DUP6 SSTORE DUP3 ISZERO PUSH2 0xB3D JUMPI SWAP2 DUP3 ADD JUMPDEST DUP3 DUP2 GT ISZERO PUSH2 0xB3C JUMPI DUP3 MLOAD DUP3 SSTORE SWAP2 PUSH1 0x20 ADD SWAP2 SWAP1 PUSH1 0x1 ADD SWAP1 PUSH2 0xB21 JUMP JUMPDEST JUMPDEST POP SWAP1 POP PUSH2 0xB4A SWAP2 SWAP1 PUSH2 0xB4E JUMP JUMPDEST POP SWAP1 JUMP JUMPDEST JUMPDEST DUP1 DUP3 GT ISZERO PUSH2 0xB67 JUMPI PUSH1 0x0 DUP2 PUSH1 0x0 SWAP1 SSTORE POP PUSH1 0x1 ADD PUSH2 0xB4F JUMP JUMPDEST POP SWAP1 JUMP JUMPDEST PUSH1 0x0 DUP2 MLOAD SWAP1 POP SWAP2 SWAP1 POP JUMP JUMPDEST PUSH1 0x0 DUP3 DUP3 MSTORE PUSH1 0x20 DUP3 ADD SWAP1 POP SWAP3 SWAP2 POP POP JUMP JUMPDEST PUSH1 0x0 DUP2 SWAP1 POP PUSH1 0x20 DUP3 ADD SWAP1 POP SWAP2 SWAP1 POP JUMP JUMPDEST PUSH1 0x0 DUP2 MLOAD SWAP1 POP SWAP2 SWAP1 POP JUMP JUMPDEST PUSH1 0x0 DUP3 DUP3 MSTORE PUSH1 0x20 DUP3 ADD SWAP1 POP SWAP3 SWAP2 POP POP JUMP JUMPDEST PUSH1 0x0 JUMPDEST DUP4 DUP2 LT ISZERO PUSH2 0xBD1 JUMPI DUP1 DUP3 ADD MLOAD DUP2 DUP5 ADD MSTORE PUSH1 0x20 DUP2 ADD SWAP1 POP PUSH2 0xBB6 JUMP JUMPDEST DUP4 DUP2 GT ISZERO PUSH2 0xBE0 JUMPI PUSH1 0x0 DUP5 DUP5 ADD MSTORE JUMPDEST POP POP POP POP JUMP JUMPDEST PUSH1 0x0 PUSH1 0x1F NOT PUSH1 0x1F DUP4 ADD AND SWAP1 POP SWAP2 SWAP1 POP JUMP JUMPDEST PUSH1 0x0 PUSH2 0xC02 DUP3 PUSH2 0xB97 JUMP JUMPDEST PUSH2 0xC0C DUP2 DUP6 PUSH2 0xBA2 JUMP JUMPDEST SWAP4 POP PUSH2 0xC1C DUP2 DUP6 PUSH1 0x20 DUP7 ADD PUSH2 0xBB3 JUMP JUMPDEST PUSH2 0xC25 DUP2 PUSH2 0xBE6 JUMP JUMPDEST DUP5 ADD SWAP2 POP POP SWAP3 SWAP2 POP POP JUMP JUMPDEST PUSH1 0x0 DUP2 SWAP1 POP SWAP2 SWAP1 POP JUMP JUMPDEST PUSH2 0xC43 DUP2 PUSH2 0xC30 JUMP JUMPDEST DUP3 MSTORE POP POP JUMP JUMPDEST PUSH1 0x0 PUSH1 0x80 DUP4 ADD PUSH1 0x0 DUP4 ADD MLOAD DUP5 DUP3 SUB PUSH1 0x0 DUP7 ADD MSTORE PUSH2 0xC66 DUP3 DUP3 PUSH2 0xBF7 JUMP JUMPDEST SWAP2 POP POP PUSH1 0x20 DUP4 ADD MLOAD DUP5 DUP3 SUB PUSH1 0x20 DUP7 ADD MSTORE PUSH2 0xC80 DUP3 DUP3 PUSH2 0xBF7 JUMP JUMPDEST SWAP2 POP POP PUSH1 0x40 DUP4 ADD MLOAD PUSH2 0xC95 PUSH1 0x40 DUP7 ADD DUP3 PUSH2 0xC3A JUMP JUMPDEST POP PUSH1 0x60 DUP4 ADD MLOAD PUSH2 0xCA8 PUSH1 0x60 DUP7 ADD DUP3 PUSH2 0xC3A JUMP JUMPDEST POP DUP1 SWAP2 POP POP SWAP3 SWAP2 POP POP JUMP JUMPDEST PUSH1 0x0 PUSH2 0xCBF DUP4 DUP4 PUSH2 0xC49 JUMP JUMPDEST SWAP1 POP SWAP3 SWAP2 POP POP JUMP JUMPDEST PUSH1 0x0 PUSH1 0x20 DUP3 ADD SWAP1 POP SWAP2 SWAP1 POP JUMP JUMPDEST PUSH1 0x0 PUSH2 0xCDF DUP3 PUSH2 0xB6B JUMP JUMPDEST PUSH2 0xCE9 DUP2 DUP6 PUSH2 0xB76 JUMP JUMPDEST SWAP4 POP DUP4 PUSH1 0x20 DUP3 MUL DUP6 ADD PUSH2 0xCFB DUP6 PUSH2 0xB87 JUMP JUMPDEST DUP1 PUSH1 0x0 JUMPDEST DUP6 DUP2 LT ISZERO PUSH2 0xD37 JUMPI DUP5 DUP5 SUB DUP10 MSTORE DUP2 MLOAD PUSH2 0xD18 DUP6 DUP3 PUSH2 0xCB3 JUMP JUMPDEST SWAP5 POP PUSH2 0xD23 DUP4 PUSH2 0xCC7 JUMP JUMPDEST SWAP3 POP PUSH1 0x20 DUP11 ADD SWAP10 POP POP PUSH1 0x1 DUP2 ADD SWAP1 POP PUSH2 0xCFF JUMP JUMPDEST POP DUP3 SWAP8 POP DUP8 SWAP6 POP POP POP POP POP POP SWAP3 SWAP2 POP POP JUMP JUMPDEST PUSH1 0x0 PUSH1 0x20 DUP3 ADD SWAP1 POP DUP2 DUP2 SUB PUSH1 0x0 DUP4 ADD MSTORE PUSH2 0xD63 DUP2 DUP5 PUSH2 0xCD4 JUMP JUMPDEST SWAP1 POP SWAP3 SWAP2 POP POP JUMP JUMPDEST PUSH2 0xD74 DUP2 PUSH2 0xC30 JUMP JUMPDEST DUP3 MSTORE POP POP JUMP JUMPDEST PUSH1 0x0 PUSH1 0x20 DUP3 ADD SWAP1 POP PUSH2 0xD8F PUSH1 0x0 DUP4 ADD DUP5 PUSH2 0xD6B JUMP JUMPDEST SWAP3 SWAP2 POP POP JUMP JUMPDEST PUSH1 0x0 PUSH1 0x40 MLOAD SWAP1 POP SWAP1 JUMP JUMPDEST PUSH1 0x0 DUP1 REVERT JUMPDEST PUSH1 0x0 DUP1 REVERT JUMPDEST PUSH1 0x0 DUP2 SWAP1 POP SWAP2 SWAP1 POP JUMP JUMPDEST PUSH2 0xDBC DUP2 PUSH2 0xDA9 JUMP JUMPDEST DUP2 EQ PUSH2 0xDC7 JUMPI PUSH1 0x0 DUP1 REVERT JUMPDEST POP JUMP JUMPDEST PUSH1 0x0 DUP2 CALLDATALOAD SWAP1 POP PUSH2 0xDD9 DUP2 PUSH2 0xDB3 JUMP JUMPDEST SWAP3 SWAP2 POP POP JUMP JUMPDEST PUSH1 0x0 PUSH1 0x20 DUP3 DUP5 SUB SLT ISZERO PUSH2 0xDF5 JUMPI PUSH2 0xDF4 PUSH2 0xD9F JUMP JUMPDEST JUMPDEST PUSH1 0x0 PUSH2 0xE03 DUP5 DUP3 DUP6 ADD PUSH2 0xDCA JUMP JUMPDEST SWAP2 POP POP SWAP3 SWAP2 POP POP JUMP JUMPDEST PUSH1 0x0 DUP3 DUP3 MSTORE PUSH1 0x20 DUP3 ADD SWAP1 POP SWAP3 SWAP2 POP POP JUMP JUMPDEST PUSH1 0x0 PUSH2 0xE28 DUP3 PUSH2 0xB97 JUMP JUMPDEST PUSH2 0xE32 DUP2 DUP6 PUSH2 0xE0C JUMP JUMPDEST SWAP4 POP PUSH2 0xE42 DUP2 DUP6 PUSH1 0x20 DUP7 ADD PUSH2 0xBB3 JUMP JUMPDEST PUSH2 0xE4B DUP2 PUSH2 0xBE6 JUMP JUMPDEST DUP5 ADD SWAP2 POP POP SWAP3 SWAP2 POP POP JUMP JUMPDEST PUSH1 0x0 PUSH1 0x80 DUP3 ADD SWAP1 POP DUP2 DUP2 SUB PUSH1 0x0 DUP4 ADD MSTORE PUSH2 0xE70 DUP2 DUP8 PUSH2 0xE1D JUMP JUMPDEST SWAP1 POP DUP2 DUP2 SUB PUSH1 0x20 DUP4 ADD MSTORE PUSH2 0xE84 DUP2 DUP7 PUSH2 0xE1D JUMP JUMPDEST SWAP1 POP PUSH2 0xE93 PUSH1 0x40 DUP4 ADD DUP6 PUSH2 0xD6B JUMP JUMPDEST PUSH2 0xEA0 PUSH1 0x60 DUP4 ADD DUP5 PUSH2 0xD6B JUMP JUMPDEST SWAP6 SWAP5 POP POP POP POP POP JUMP JUMPDEST PUSH2 0xEB2 DUP2 PUSH2 0xC30 JUMP JUMPDEST DUP2 EQ PUSH2 0xEBD JUMPI PUSH1 0x0 DUP1 REVERT JUMPDEST POP JUMP JUMPDEST PUSH1 0x0 DUP2 CALLDATALOAD SWAP1 POP PUSH2 0xECF DUP2 PUSH2 0xEA9 JUMP JUMPDEST SWAP3 SWAP2 POP POP JUMP JUMPDEST PUSH1 0x0 DUP1 PUSH1 0x40 DUP4 DUP6 SUB SLT ISZERO PUSH2 0xEEC JUMPI PUSH2 0xEEB PUSH2 0xD9F JUMP JUMPDEST JUMPDEST PUSH1 0x0 PUSH2 0xEFA DUP6 DUP3 DUP7 ADD PUSH2 0xDCA JUMP JUMPDEST SWAP3 POP POP PUSH1 0x20 PUSH2 0xF0B DUP6 DUP3 DUP7 ADD PUSH2 0xEC0 JUMP JUMPDEST SWAP2 POP POP SWAP3 POP SWAP3 SWAP1 POP JUMP JUMPDEST PUSH1 0x0 PUSH1 0x80 DUP3 ADD SWAP1 POP DUP2 DUP2 SUB PUSH1 0x0 DUP4 ADD MSTORE PUSH2 0xF2F DUP2 DUP8 PUSH2 0xE1D JUMP JUMPDEST SWAP1 POP PUSH2 0xF3E PUSH1 0x20 DUP4 ADD DUP7 PUSH2 0xD6B JUMP JUMPDEST DUP2 DUP2 SUB PUSH1 0x40 DUP4 ADD MSTORE PUSH2 0xF50 DUP2 DUP6 PUSH2 0xE1D JUMP JUMPDEST SWAP1 POP PUSH2 0xF5F PUSH1 0x60 DUP4 ADD DUP5 PUSH2 0xD6B JUMP JUMPDEST SWAP6 SWAP5 POP POP POP POP POP JUMP JUMPDEST PUSH1 0x0 DUP1 REVERT JUMPDEST PUSH1 0x0 DUP1 REVERT JUMPDEST PUSH32 0x4E487B7100000000000000000000000000000000000000000000000000000000 PUSH1 0x0 MSTORE PUSH1 0x41 PUSH1 0x4 MSTORE PUSH1 0x24 PUSH1 0x0 REVERT JUMPDEST PUSH2 0xFAA DUP3 PUSH2 0xBE6 JUMP JUMPDEST DUP2 ADD DUP2 DUP2 LT PUSH8 0xFFFFFFFFFFFFFFFF DUP3 GT OR ISZERO PUSH2 0xFC9 JUMPI PUSH2 0xFC8 PUSH2 0xF72 JUMP JUMPDEST JUMPDEST DUP1 PUSH1 0x40 MSTORE POP POP POP JUMP JUMPDEST PUSH1 0x0 PUSH2 0xFDC PUSH2 0xD95 JUMP JUMPDEST SWAP1 POP PUSH2 0xFE8 DUP3 DUP3 PUSH2 0xFA1 JUMP JUMPDEST SWAP2 SWAP1 POP JUMP JUMPDEST PUSH1 0x0 PUSH8 0xFFFFFFFFFFFFFFFF DUP3 GT ISZERO PUSH2 0x1008 JUMPI PUSH2 0x1007 PUSH2 0xF72 JUMP JUMPDEST JUMPDEST PUSH2 0x1011 DUP3 PUSH2 0xBE6 JUMP JUMPDEST SWAP1 POP PUSH1 0x20 DUP2 ADD SWAP1 POP SWAP2 SWAP1 POP JUMP JUMPDEST DUP3 DUP2 DUP4 CALLDATACOPY PUSH1 0x0 DUP4 DUP4 ADD MSTORE POP POP POP JUMP JUMPDEST PUSH1 0x0 PUSH2 0x1040 PUSH2 0x103B DUP5 PUSH2 0xFED JUMP JUMPDEST PUSH2 0xFD2 JUMP JUMPDEST SWAP1 POP DUP3 DUP2 MSTORE PUSH1 0x20 DUP2 ADD DUP5 DUP5 DUP5 ADD GT ISZERO PUSH2 0x105C JUMPI PUSH2 0x105B PUSH2 0xF6D JUMP JUMPDEST JUMPDEST PUSH2 0x1067 DUP5 DUP3 DUP6 PUSH2 0x101E JUMP JUMPDEST POP SWAP4 SWAP3 POP POP POP JUMP JUMPDEST PUSH1 0x0 DUP3 PUSH1 0x1F DUP4 ADD SLT PUSH2 0x1084 JUMPI PUSH2 0x1083 PUSH2 0xF68 JUMP JUMPDEST JUMPDEST DUP2 CALLDATALOAD PUSH2 0x1094 DUP5 DUP3 PUSH1 0x20 DUP7 ADD PUSH2 0x102D JUMP JUMPDEST SWAP2 POP POP SWAP3 SWAP2 POP POP JUMP JUMPDEST PUSH1 0x0 DUP1 PUSH1 0x0 DUP1 PUSH1 0x80 DUP6 DUP8 SUB SLT ISZERO PUSH2 0x10B7 JUMPI PUSH2 0x10B6 PUSH2 0xD9F JUMP JUMPDEST JUMPDEST PUSH1 0x0 DUP6 ADD CALLDATALOAD PUSH8 0xFFFFFFFFFFFFFFFF DUP2 GT ISZERO PUSH2 0x10D5 JUMPI PUSH2 0x10D4 PUSH2 0xDA4 JUMP JUMPDEST JUMPDEST PUSH2 0x10E1 DUP8 DUP3 DUP9 ADD PUSH2 0x106F JUMP JUMPDEST SWAP5 POP POP PUSH1 0x20 DUP6 ADD CALLDATALOAD PUSH8 0xFFFFFFFFFFFFFFFF DUP2 GT ISZERO PUSH2 0x1102 JUMPI PUSH2 0x1101 PUSH2 0xDA4 JUMP JUMPDEST JUMPDEST PUSH2 0x110E DUP8 DUP3 DUP9 ADD PUSH2 0x106F JUMP JUMPDEST SWAP4 POP POP PUSH1 0x40 PUSH2 0x111F DUP8 DUP3 DUP9 ADD PUSH2 0xEC0 JUMP JUMPDEST SWAP3 POP POP PUSH1 0x60 PUSH2 0x1130 DUP8 DUP3 DUP9 ADD PUSH2 0xEC0 JUMP JUMPDEST SWAP2 POP POP SWAP3 SWAP6 SWAP2 SWAP5 POP SWAP3 POP JUMP JUMPDEST PUSH1 0x0 PUSH20 0xFFFFFFFFFFFFFFFFFFFFFFFFFFFFFFFFFFFFFFFF DUP3 AND SWAP1 POP SWAP2 SWAP1 POP JUMP JUMPDEST PUSH1 0x0 PUSH2 0x1167 DUP3 PUSH2 0x113C JUMP JUMPDEST SWAP1 POP SWAP2 SWAP1 POP JUMP JUMPDEST PUSH2 0x1177 DUP2 PUSH2 0x115C JUMP JUMPDEST DUP3 MSTORE POP POP JUMP JUMPDEST PUSH1 0x0 PUSH1 0x20 DUP3 ADD SWAP1 POP PUSH2 0x1192 PUSH1 0x0 DUP4 ADD DUP5 PUSH2 0x116E JUMP JUMPDEST SWAP3 SWAP2 POP POP JUMP JUMPDEST PUSH1 0x0 PUSH1 0x20 DUP3 ADD SWAP1 POP DUP2 DUP2 SUB PUSH1 0x0 DUP4 ADD MSTORE PUSH2 0x11B2 DUP2 DUP5 PUSH2 0xE1D JUMP JUMPDEST SWAP1 POP SWAP3 SWAP2 POP POP JUMP JUMPDEST PUSH32 0x4E487B7100000000000000000000000000000000000000000000000000000000 PUSH1 0x0 MSTORE PUSH1 0x22 PUSH1 0x4 MSTORE PUSH1 0x24 PUSH1 0x0 REVERT JUMPDEST PUSH1 0x0 PUSH1 0x2 DUP3 DIV SWAP1 POP PUSH1 0x1 DUP3 AND DUP1 PUSH2 0x1201 JUMPI PUSH1 0x7F DUP3 AND SWAP2 POP JUMPDEST PUSH1 0x20 DUP3 LT DUP2 EQ ISZERO PUSH2 0x1215 JUMPI PUSH2 0x1214 PUSH2 0x11BA JUMP JUMPDEST JUMPDEST POP SWAP2 SWAP1 POP JUMP JUMPDEST PUSH32 0x496E646578206F7574206F6620626F756E647300000000000000000000000000 PUSH1 0x0 DUP3 ADD MSTORE POP JUMP JUMPDEST PUSH1 0x0 PUSH2 0x1251 PUSH1 0x13 DUP4 PUSH2 0xE0C JUMP JUMPDEST SWAP2 POP PUSH2 0x125C DUP3 PUSH2 0x121B JUMP JUMPDEST PUSH1 0x20 DUP3 ADD SWAP1 POP SWAP2 SWAP1 POP JUMP JUMPDEST PUSH1 0x0 PUSH1 0x20 DUP3 ADD SWAP1 POP DUP2 DUP2 SUB PUSH1 0x0 DUP4 ADD MSTORE PUSH2 0x1280 DUP2 PUSH2 0x1244 JUMP JUMPDEST SWAP1 POP SWAP2 SWAP1 POP JUMP JUMPDEST PUSH32 0x4E487B7100000000000000000000000000000000000000000000000000000000 PUSH1 0x0 MSTORE PUSH1 0x32 PUSH1 0x4 MSTORE PUSH1 0x24 PUSH1 0x0 REVERT JUMPDEST PUSH32 0x496E73756666696369656E74207175616E746974790000000000000000000000 PUSH1 0x0 DUP3 ADD MSTORE POP JUMP JUMPDEST PUSH1 0x0 PUSH2 0x12EC PUSH1 0x15 DUP4 PUSH2 0xE0C JUMP JUMPDEST SWAP2 POP PUSH2 0x12F7 DUP3 PUSH2 0x12B6 JUMP JUMPDEST PUSH1 0x20 DUP3 ADD SWAP1 POP SWAP2 SWAP1 POP JUMP JUMPDEST PUSH1 0x0 PUSH1 0x20 DUP3 ADD SWAP1 POP DUP2 DUP2 SUB PUSH1 0x0 DUP4 ADD MSTORE PUSH2 0x131B DUP2 PUSH2 0x12DF JUMP JUMPDEST SWAP1 POP SWAP2 SWAP1 POP JUMP JUMPDEST PUSH32 0x4E487B7100000000000000000000000000000000000000000000000000000000 PUSH1 0x0 MSTORE PUSH1 0x11 PUSH1 0x4 MSTORE PUSH1 0x24 PUSH1 0x0 REVERT JUMPDEST PUSH1 0x0 PUSH2 0x135C DUP3 PUSH2 0xC30 JUMP JUMPDEST SWAP2 POP PUSH2 0x1367 DUP4 PUSH2 0xC30 JUMP JUMPDEST SWAP3 POP DUP3 PUSH32 0x7FFFFFFFFFFFFFFFFFFFFFFFFFFFFFFFFFFFFFFFFFFFFFFFFFFFFFFFFFFFFFFF DIV DUP3 GT PUSH1 0x0 DUP5 SGT PUSH1 0x0 DUP5 SGT AND AND ISZERO PUSH2 0x13A6 JUMPI PUSH2 0x13A5 PUSH2 0x1322 JUMP JUMPDEST JUMPDEST DUP2 PUSH32 0x8000000000000000000000000000000000000000000000000000000000000000 SDIV DUP4 SLT PUSH1 0x0 DUP5 SLT PUSH1 0x0 DUP5 SGT AND AND ISZERO PUSH2 0x13E3 JUMPI PUSH2 0x13E2 PUSH2 0x1322 JUMP JUMPDEST JUMPDEST DUP3 PUSH32 0x8000000000000000000000000000000000000000000000000000000000000000 SDIV DUP3 SLT PUSH1 0x0 DUP5 SGT PUSH1 0x0 DUP5 SLT AND AND ISZERO PUSH2 0x1420 JUMPI PUSH2 0x141F PUSH2 0x1322 JUMP JUMPDEST JUMPDEST DUP3 PUSH32 0x7FFFFFFFFFFFFFFFFFFFFFFFFFFFFFFFFFFFFFFFFFFFFFFFFFFFFFFFFFFFFFFF SDIV DUP3 SLT PUSH1 0x0 DUP5 SLT PUSH1 0x0 DUP5 SLT AND AND ISZERO PUSH2 0x145D JUMPI PUSH2 0x145C PUSH2 0x1322 JUMP JUMPDEST JUMPDEST DUP3 DUP3 MUL SWAP1 POP SWAP3 SWAP2 POP POP JUMP JUMPDEST PUSH1 0x0 PUSH2 0x1473 DUP3 PUSH2 0xC30 JUMP JUMPDEST SWAP2 POP PUSH2 0x147E DUP4 PUSH2 0xC30 JUMP JUMPDEST SWAP3 POP DUP3 PUSH32 0x8000000000000000000000000000000000000000000000000000000000000000 ADD DUP3 SLT PUSH1 0x0 DUP5 SLT ISZERO AND ISZERO PUSH2 0x14B9 JUMPI PUSH2 0x14B8 PUSH2 0x1322 JUMP JUMPDEST JUMPDEST DUP3 PUSH32 0x7FFFFFFFFFFFFFFFFFFFFFFFFFFFFFFFFFFFFFFFFFFFFFFFFFFFFFFFFFFFFFFF ADD DUP3 SGT PUSH1 0x0 DUP5 SLT AND ISZERO PUSH2 0x14F1 JUMPI PUSH2 0x14F0 PUSH2 0x1322 JUMP JUMPDEST JUMPDEST DUP3 DUP3 SUB SWAP1 POP SWAP3 SWAP2 POP POP JUMP JUMPDEST PUSH1 0x0 PUSH2 0x1507 DUP3 PUSH2 0xC30 JUMP JUMPDEST SWAP2 POP PUSH2 0x1512 DUP4 PUSH2 0xC30 JUMP JUMPDEST SWAP3 POP DUP2 PUSH32 0x7FFFFFFFFFFFFFFFFFFFFFFFFFFFFFFFFFFFFFFFFFFFFFFFFFFFFFFFFFFFFFFF SUB DUP4 SGT PUSH1 0x0 DUP4 SLT ISZERO AND ISZERO PUSH2 0x154D JUMPI PUSH2 0x154C PUSH2 0x1322 JUMP JUMPDEST JUMPDEST DUP2 PUSH32 0x8000000000000000000000000000000000000000000000000000000000000000 SUB DUP4 SLT PUSH1 0x0 DUP4 SLT AND ISZERO PUSH2 0x1585 JUMPI PUSH2 0x1584 PUSH2 0x1322 JUMP JUMPDEST JUMPDEST DUP3 DUP3 ADD SWAP1 POP SWAP3 SWAP2 POP POP JUMP JUMPDEST PUSH32 0x4F6E6C792070726F64756365722063616E206163636573732074686973206675 PUSH1 0x0 DUP3 ADD MSTORE PUSH32 0x6E6374696F6E0000000000000000000000000000000000000000000000000000 PUSH1 0x20 DUP3 ADD MSTORE POP JUMP JUMPDEST PUSH1 0x0 PUSH2 0x15EC PUSH1 0x26 DUP4 PUSH2 0xE0C JUMP JUMPDEST SWAP2 POP PUSH2 0x15F7 DUP3 PUSH2 0x1590 JUMP JUMPDEST PUSH1 0x40 DUP3 ADD SWAP1 POP SWAP2 SWAP1 POP JUMP JUMPDEST PUSH1 0x0 PUSH1 0x20 DUP3 ADD SWAP1 POP DUP2 DUP2 SUB PUSH1 0x0 DUP4 ADD MSTORE PUSH2 0x161B DUP2 PUSH2 0x15DF JUMP JUMPDEST SWAP1 POP SWAP2 SWAP1 POP JUMP INVALID LOG2 PUSH5 0x6970667358 0x22 SLT KECCAK256 0xA7 MLOAD SHR PUSH8 0x65BAC96E38BEF642 CALLDATALOAD EXP 0xA7 CREATE2 0xF6 0x22 RETURNDATACOPY SAR 0x2D 0x4A 0xD7 DUP6 CALL CODESIZE 0xC 0xE4 NOT PUSH14 0x83B964736F6C6343000809003300 "
        },
        "gasEstimates": {
            "creation": {
                "codeDepositCost": "1144000",
                "executionCost": "infinite",
                "totalCost": "infinite"
            },
            "external": {
                "addCrop(string,string,int256,int256)": "infinite",
                "adjustCropQuantity(uint256,int256)": "infinite",
                "crops(uint256)": "infinite",
                "getAllCrops()": "infinite",
                "getCrop(uint256)": "infinite",
                "producerName()": "infinite",
                "prroducerAddress()": "2555",
                "sellCrop(uint256,int256)": "infinite",
                "totalSales()": "2452"
            }
        },
        "methodIdentifiers": {
            "addCrop(string,string,int256,int256)": "8d8e11dc",
            "adjustCropQuantity(uint256,int256)": "c93bfbb5",
            "crops(uint256)": "70c9f1a5",
            "getAllCrops()": "1d48dc90",
            "getCrop(uint256)": "8bc7fa9c",
            "producerName()": "e4177269",
            "prroducerAddress()": "a7ca997d",
            "sellCrop(uint256,int256)": "8a23163f",
            "totalSales()": "6605ff66"
        }
    },
    "storageLayout": {
        "storage": [
            {
                "astId": 195,
                "contract": "Main.sol:ProducerContract",
                "label": "prroducerAddress",
                "offset": 0,
                "slot": "0",
                "type": "t_address"
            },
            {
                "astId": 197,
                "contract": "Main.sol:ProducerContract",
                "label": "producerName",
                "offset": 0,
                "slot": "1",
                "type": "t_string_storage"
            },
            {
                "astId": 201,
                "contract": "Main.sol:ProducerContract",
                "label": "crops",
                "offset": 0,
                "slot": "2",
                "type": "t_array(t_struct(Crop)212_storage)dyn_storage"
            },
            {
                "astId": 203,
                "contract": "Main.sol:ProducerContract",
                "label": "totalSales",
                "offset": 0,
                "slot": "3",
                "type": "t_int256"
            }
        ],
        "types": {
            "t_address": {
                "encoding": "inplace",
                "label": "address",
                "numberOfBytes": "20"
            },
            "t_array(t_struct(Crop)212_storage)dyn_storage": {
                "base": "t_struct(Crop)212_storage",
                "encoding": "dynamic_array",
                "label": "struct ProducerContract.Crop[]",
                "numberOfBytes": "32"
            },
            "t_int256": {
                "encoding": "inplace",
                "label": "int256",
                "numberOfBytes": "32"
            },
            "t_string_storage": {
                "encoding": "bytes",
                "label": "string",
                "numberOfBytes": "32"
            },
            "t_struct(Crop)212_storage": {
                "encoding": "inplace",
                "label": "struct ProducerContract.Crop",
                "members": [
                    {
                        "astId": 205,
                        "contract": "Main.sol:ProducerContract",
                        "label": "cropName",
                        "offset": 0,
                        "slot": "0",
                        "type": "t_string_storage"
                    },
                    {
                        "astId": 207,
                        "contract": "Main.sol:ProducerContract",
                        "label": "cropQuality",
                        "offset": 0,
                        "slot": "1",
                        "type": "t_string_storage"
                    },
                    {
                        "astId": 209,
                        "contract": "Main.sol:ProducerContract",
                        "label": "cropPrice",
                        "offset": 0,
                        "slot": "2",
                        "type": "t_int256"
                    },
                    {
                        "astId": 211,
                        "contract": "Main.sol:ProducerContract",
                        "label": "cropQuantity",
                        "offset": 0,
                        "slot": "3",
                        "type": "t_int256"
                    }
                ],
                "numberOfBytes": "128"
            }
        }
    },
    "userdoc": {
        "kind": "user",
        "methods": {},
        "version": 1
    }
}