{
    "abi": [
        {
            "inputs": [
                {
                    "internalType": "string",
                    "name": "_providerName",
                    "type": "string"
                }
            ],
            "stateMutability": "nonpayable",
            "type": "constructor"
        },
        {
            "inputs": [
                {
                    "internalType": "string",
                    "name": "_seedName",
                    "type": "string"
                },
                {
                    "internalType": "string",
                    "name": "_seedQuality",
                    "type": "string"
                },
                {
                    "internalType": "int256",
                    "name": "_seedPrice",
                    "type": "int256"
                },
                {
                    "internalType": "int256",
                    "name": "_seedQuantity",
                    "type": "int256"
                }
            ],
            "name": "addSeed",
            "outputs": [],
            "stateMutability": "nonpayable",
            "type": "function"
        },
        {
            "inputs": [
                {
                    "internalType": "uint256",
                    "name": "_index",
                    "type": "uint256"
                },
                {
                    "internalType": "int256",
                    "name": "_additionalQuantity",
                    "type": "int256"
                }
            ],
            "name": "adjustSeedQuantity",
            "outputs": [],
            "stateMutability": "nonpayable",
            "type": "function"
        },
        {
            "inputs": [],
            "name": "getAllSeeds",
            "outputs": [
                {
                    "components": [
                        {
                            "internalType": "string",
                            "name": "seedName",
                            "type": "string"
                        },
                        {
                            "internalType": "int256",
                            "name": "seedPrice",
                            "type": "int256"
                        },
                        {
                            "internalType": "string",
                            "name": "seedQuality",
                            "type": "string"
                        },
                        {
                            "internalType": "int256",
                            "name": "seedQuantity",
                            "type": "int256"
                        }
                    ],
                    "internalType": "struct ProviderContract.Seed[]",
                    "name": "",
                    "type": "tuple[]"
                }
            ],
            "stateMutability": "view",
            "type": "function"
        },
        {
            "inputs": [
                {
                    "internalType": "uint256",
                    "name": "_index",
                    "type": "uint256"
                }
            ],
            "name": "getSeed",
            "outputs": [
                {
                    "internalType": "string",
                    "name": "",
                    "type": "string"
                },
                {
                    "internalType": "int256",
                    "name": "",
                    "type": "int256"
                },
                {
                    "internalType": "string",
                    "name": "",
                    "type": "string"
                },
                {
                    "internalType": "int256",
                    "name": "",
                    "type": "int256"
                }
            ],
            "stateMutability": "view",
            "type": "function"
        },
        {
            "inputs": [],
            "name": "providerAddress",
            "outputs": [
                {
                    "internalType": "address",
                    "name": "",
                    "type": "address"
                }
            ],
            "stateMutability": "view",
            "type": "function"
        },
        {
            "inputs": [],
            "name": "providerName",
            "outputs": [
                {
                    "internalType": "string",
                    "name": "",
                    "type": "string"
                }
            ],
            "stateMutability": "view",
            "type": "function"
        },
        {
            "inputs": [
                {
                    "internalType": "uint256",
                    "name": "",
                    "type": "uint256"
                }
            ],
            "name": "seeds",
            "outputs": [
                {
                    "internalType": "string",
                    "name": "seedName",
                    "type": "string"
                },
                {
                    "internalType": "int256",
                    "name": "seedPrice",
                    "type": "int256"
                },
                {
                    "internalType": "string",
                    "name": "seedQuality",
                    "type": "string"
                },
                {
                    "internalType": "int256",
                    "name": "seedQuantity",
                    "type": "int256"
                }
            ],
            "stateMutability": "view",
            "type": "function"
        },
        {
            "inputs": [
                {
                    "internalType": "uint256",
                    "name": "_index",
                    "type": "uint256"
                },
                {
                    "internalType": "int256",
                    "name": "_quantity",
                    "type": "int256"
                }
            ],
            "name": "sellSeed",
            "outputs": [],
            "stateMutability": "nonpayable",
            "type": "function"
        },
        {
            "inputs": [],
            "name": "totalSales",
            "outputs": [
                {
                    "internalType": "int256",
                    "name": "",
                    "type": "int256"
                }
            ],
            "stateMutability": "view",
            "type": "function"
        }
    ],
    "devdoc": {
        "kind": "dev",
        "methods": {},
        "version": 1
    },
    "evm": {
        "assembly": "    /* \"Main.sol\":60:2095  contract ProviderContract {... */\n  mstore(0x40, 0x80)\n    /* \"Main.sol\":542:669  constructor(string memory _providerName) {... */\n  callvalue\n  dup1\n  iszero\n  tag_1\n  jumpi\n  0x00\n  dup1\n  revert\ntag_1:\n  pop\n  mload(0x40)\n  sub(codesize, bytecodeSize)\n  dup1\n  bytecodeSize\n  dup4\n  codecopy\n  dup2\n  dup2\n  add\n  0x40\n  mstore\n  dup2\n  add\n  swap1\n  tag_2\n  swap2\n  swap1\n  tag_3\n  jump\t// in\ntag_2:\n    /* \"Main.sol\":612:622  msg.sender */\n  caller\n    /* \"Main.sol\":594:609  providerAddress */\n  0x00\n  dup1\n    /* \"Main.sol\":594:622  providerAddress = msg.sender */\n  0x0100\n  exp\n  dup2\n  sload\n  dup2\n  0xffffffffffffffffffffffffffffffffffffffff\n  mul\n  not\n  and\n  swap1\n  dup4\n  0xffffffffffffffffffffffffffffffffffffffff\n  and\n  mul\n  or\n  swap1\n  sstore\n  pop\n    /* \"Main.sol\":648:661  _providerName */\n  dup1\n    /* \"Main.sol\":633:645  providerName */\n  0x01\n    /* \"Main.sol\":633:661  providerName = _providerName */\n  swap1\n  dup1\n  mload\n  swap1\n  0x20\n  add\n  swap1\n  tag_6\n  swap3\n  swap2\n  swap1\n  tag_7\n  jump\t// in\ntag_6:\n  pop\n    /* \"Main.sol\":542:669  constructor(string memory _providerName) {... */\n  pop\n    /* \"Main.sol\":60:2095  contract ProviderContract {... */\n  jump(tag_8)\ntag_7:\n  dup3\n  dup1\n  sload\n  tag_9\n  swap1\n  tag_10\n  jump\t// in\ntag_9:\n  swap1\n  0x00\n  mstore\n  keccak256(0x00, 0x20)\n  swap1\n  0x1f\n  add\n  0x20\n  swap1\n  div\n  dup2\n  add\n  swap3\n  dup3\n  tag_12\n  jumpi\n  0x00\n  dup6\n  sstore\n  jump(tag_11)\ntag_12:\n  dup3\n  0x1f\n  lt\n  tag_13\n  jumpi\n  dup1\n  mload\n  not(0xff)\n  and\n  dup4\n  dup1\n  add\n  or\n  dup6\n  sstore\n  jump(tag_11)\ntag_13:\n  dup3\n  dup1\n  add\n  0x01\n  add\n  dup6\n  sstore\n  dup3\n  iszero\n  tag_11\n  jumpi\n  swap2\n  dup3\n  add\ntag_14:\n  dup3\n  dup2\n  gt\n  iszero\n  tag_15\n  jumpi\n  dup3\n  mload\n  dup3\n  sstore\n  swap2\n  0x20\n  add\n  swap2\n  swap1\n  0x01\n  add\n  swap1\n  jump(tag_14)\ntag_15:\ntag_11:\n  pop\n  swap1\n  pop\n  tag_16\n  swap2\n  swap1\n  tag_17\n  jump\t// in\ntag_16:\n  pop\n  swap1\n  jump\t// out\ntag_17:\ntag_18:\n  dup1\n  dup3\n  gt\n  iszero\n  tag_19\n  jumpi\n  0x00\n  dup2\n  0x00\n  swap1\n  sstore\n  pop\n  0x01\n  add\n  jump(tag_18)\ntag_19:\n  pop\n  swap1\n  jump\t// out\n    /* \"#utility.yul\":7:82   */\ntag_20:\n    /* \"#utility.yul\":40:46   */\n  0x00\n    /* \"#utility.yul\":73:75   */\n  0x40\n    /* \"#utility.yul\":67:76   */\n  mload\n    /* \"#utility.yul\":57:76   */\n  swap1\n  pop\n    /* \"#utility.yul\":7:82   */\n  swap1\n  jump\t// out\n    /* \"#utility.yul\":88:205   */\ntag_21:\n    /* \"#utility.yul\":197:198   */\n  0x00\n    /* \"#utility.yul\":194:195   */\n  dup1\n    /* \"#utility.yul\":187:199   */\n  revert\n    /* \"#utility.yul\":211:328   */\ntag_22:\n    /* \"#utility.yul\":320:321   */\n  0x00\n    /* \"#utility.yul\":317:318   */\n  dup1\n    /* \"#utility.yul\":310:322   */\n  revert\n    /* \"#utility.yul\":334:451   */\ntag_23:\n    /* \"#utility.yul\":443:444   */\n  0x00\n    /* \"#utility.yul\":440:441   */\n  dup1\n    /* \"#utility.yul\":433:445   */\n  revert\n    /* \"#utility.yul\":457:574   */\ntag_24:\n    /* \"#utility.yul\":566:567   */\n  0x00\n    /* \"#utility.yul\":563:564   */\n  dup1\n    /* \"#utility.yul\":556:568   */\n  revert\n    /* \"#utility.yul\":580:682   */\ntag_25:\n    /* \"#utility.yul\":621:627   */\n  0x00\n    /* \"#utility.yul\":672:674   */\n  0x1f\n    /* \"#utility.yul\":668:675   */\n  not\n    /* \"#utility.yul\":663:665   */\n  0x1f\n    /* \"#utility.yul\":656:661   */\n  dup4\n    /* \"#utility.yul\":652:666   */\n  add\n    /* \"#utility.yul\":648:676   */\n  and\n    /* \"#utility.yul\":638:676   */\n  swap1\n  pop\n    /* \"#utility.yul\":580:682   */\n  swap2\n  swap1\n  pop\n  jump\t// out\n    /* \"#utility.yul\":688:868   */\ntag_26:\n    /* \"#utility.yul\":736:813   */\n  0x4e487b7100000000000000000000000000000000000000000000000000000000\n    /* \"#utility.yul\":733:734   */\n  0x00\n    /* \"#utility.yul\":726:814   */\n  mstore\n    /* \"#utility.yul\":833:837   */\n  0x41\n    /* \"#utility.yul\":830:831   */\n  0x04\n    /* \"#utility.yul\":823:838   */\n  mstore\n    /* \"#utility.yul\":857:861   */\n  0x24\n    /* \"#utility.yul\":854:855   */\n  0x00\n    /* \"#utility.yul\":847:862   */\n  revert\n    /* \"#utility.yul\":874:1155   */\ntag_27:\n    /* \"#utility.yul\":957:984   */\n  tag_43\n    /* \"#utility.yul\":979:983   */\n  dup3\n    /* \"#utility.yul\":957:984   */\n  tag_25\n  jump\t// in\ntag_43:\n    /* \"#utility.yul\":949:955   */\n  dup2\n    /* \"#utility.yul\":945:985   */\n  add\n    /* \"#utility.yul\":1087:1093   */\n  dup2\n    /* \"#utility.yul\":1075:1085   */\n  dup2\n    /* \"#utility.yul\":1072:1094   */\n  lt\n    /* \"#utility.yul\":1051:1069   */\n  0xffffffffffffffff\n    /* \"#utility.yul\":1039:1049   */\n  dup3\n    /* \"#utility.yul\":1036:1070   */\n  gt\n    /* \"#utility.yul\":1033:1095   */\n  or\n    /* \"#utility.yul\":1030:1118   */\n  iszero\n  tag_44\n  jumpi\n    /* \"#utility.yul\":1098:1116   */\n  tag_45\n  tag_26\n  jump\t// in\ntag_45:\n    /* \"#utility.yul\":1030:1118   */\ntag_44:\n    /* \"#utility.yul\":1138:1148   */\n  dup1\n    /* \"#utility.yul\":1134:1136   */\n  0x40\n    /* \"#utility.yul\":1127:1149   */\n  mstore\n    /* \"#utility.yul\":917:1155   */\n  pop\n    /* \"#utility.yul\":874:1155   */\n  pop\n  pop\n  jump\t// out\n    /* \"#utility.yul\":1161:1290   */\ntag_28:\n    /* \"#utility.yul\":1195:1201   */\n  0x00\n    /* \"#utility.yul\":1222:1242   */\n  tag_47\n  tag_20\n  jump\t// in\ntag_47:\n    /* \"#utility.yul\":1212:1242   */\n  swap1\n  pop\n    /* \"#utility.yul\":1251:1284   */\n  tag_48\n    /* \"#utility.yul\":1279:1283   */\n  dup3\n    /* \"#utility.yul\":1271:1277   */\n  dup3\n    /* \"#utility.yul\":1251:1284   */\n  tag_27\n  jump\t// in\ntag_48:\n    /* \"#utility.yul\":1161:1290   */\n  swap2\n  swap1\n  pop\n  jump\t// out\n    /* \"#utility.yul\":1296:1604   */\ntag_29:\n    /* \"#utility.yul\":1358:1362   */\n  0x00\n    /* \"#utility.yul\":1448:1466   */\n  0xffffffffffffffff\n    /* \"#utility.yul\":1440:1446   */\n  dup3\n    /* \"#utility.yul\":1437:1467   */\n  gt\n    /* \"#utility.yul\":1434:1490   */\n  iszero\n  tag_50\n  jumpi\n    /* \"#utility.yul\":1470:1488   */\n  tag_51\n  tag_26\n  jump\t// in\ntag_51:\n    /* \"#utility.yul\":1434:1490   */\ntag_50:\n    /* \"#utility.yul\":1508:1537   */\n  tag_52\n    /* \"#utility.yul\":1530:1536   */\n  dup3\n    /* \"#utility.yul\":1508:1537   */\n  tag_25\n  jump\t// in\ntag_52:\n    /* \"#utility.yul\":1500:1537   */\n  swap1\n  pop\n    /* \"#utility.yul\":1592:1596   */\n  0x20\n    /* \"#utility.yul\":1586:1590   */\n  dup2\n    /* \"#utility.yul\":1582:1597   */\n  add\n    /* \"#utility.yul\":1574:1597   */\n  swap1\n  pop\n    /* \"#utility.yul\":1296:1604   */\n  swap2\n  swap1\n  pop\n  jump\t// out\n    /* \"#utility.yul\":1610:1917   */\ntag_30:\n    /* \"#utility.yul\":1678:1679   */\n  0x00\n    /* \"#utility.yul\":1688:1801   */\ntag_54:\n    /* \"#utility.yul\":1702:1708   */\n  dup4\n    /* \"#utility.yul\":1699:1700   */\n  dup2\n    /* \"#utility.yul\":1696:1709   */\n  lt\n    /* \"#utility.yul\":1688:1801   */\n  iszero\n  tag_56\n  jumpi\n    /* \"#utility.yul\":1787:1788   */\n  dup1\n    /* \"#utility.yul\":1782:1785   */\n  dup3\n    /* \"#utility.yul\":1778:1789   */\n  add\n    /* \"#utility.yul\":1772:1790   */\n  mload\n    /* \"#utility.yul\":1768:1769   */\n  dup2\n    /* \"#utility.yul\":1763:1766   */\n  dup5\n    /* \"#utility.yul\":1759:1770   */\n  add\n    /* \"#utility.yul\":1752:1791   */\n  mstore\n    /* \"#utility.yul\":1724:1726   */\n  0x20\n    /* \"#utility.yul\":1721:1722   */\n  dup2\n    /* \"#utility.yul\":1717:1727   */\n  add\n    /* \"#utility.yul\":1712:1727   */\n  swap1\n  pop\n    /* \"#utility.yul\":1688:1801   */\n  jump(tag_54)\ntag_56:\n    /* \"#utility.yul\":1819:1825   */\n  dup4\n    /* \"#utility.yul\":1816:1817   */\n  dup2\n    /* \"#utility.yul\":1813:1826   */\n  gt\n    /* \"#utility.yul\":1810:1911   */\n  iszero\n  tag_57\n  jumpi\n    /* \"#utility.yul\":1899:1900   */\n  0x00\n    /* \"#utility.yul\":1890:1896   */\n  dup5\n    /* \"#utility.yul\":1885:1888   */\n  dup5\n    /* \"#utility.yul\":1881:1897   */\n  add\n    /* \"#utility.yul\":1874:1901   */\n  mstore\n    /* \"#utility.yul\":1810:1911   */\ntag_57:\n    /* \"#utility.yul\":1659:1917   */\n  pop\n    /* \"#utility.yul\":1610:1917   */\n  pop\n  pop\n  pop\n  jump\t// out\n    /* \"#utility.yul\":1923:2344   */\ntag_31:\n    /* \"#utility.yul\":2012:2017   */\n  0x00\n    /* \"#utility.yul\":2037:2103   */\n  tag_59\n    /* \"#utility.yul\":2053:2102   */\n  tag_60\n    /* \"#utility.yul\":2095:2101   */\n  dup5\n    /* \"#utility.yul\":2053:2102   */\n  tag_29\n  jump\t// in\ntag_60:\n    /* \"#utility.yul\":2037:2103   */\n  tag_28\n  jump\t// in\ntag_59:\n    /* \"#utility.yul\":2028:2103   */\n  swap1\n  pop\n    /* \"#utility.yul\":2126:2132   */\n  dup3\n    /* \"#utility.yul\":2119:2124   */\n  dup2\n    /* \"#utility.yul\":2112:2133   */\n  mstore\n    /* \"#utility.yul\":2164:2168   */\n  0x20\n    /* \"#utility.yul\":2157:2162   */\n  dup2\n    /* \"#utility.yul\":2153:2169   */\n  add\n    /* \"#utility.yul\":2202:2205   */\n  dup5\n    /* \"#utility.yul\":2193:2199   */\n  dup5\n    /* \"#utility.yul\":2188:2191   */\n  dup5\n    /* \"#utility.yul\":2184:2200   */\n  add\n    /* \"#utility.yul\":2181:2206   */\n  gt\n    /* \"#utility.yul\":2178:2290   */\n  iszero\n  tag_61\n  jumpi\n    /* \"#utility.yul\":2209:2288   */\n  tag_62\n  tag_24\n  jump\t// in\ntag_62:\n    /* \"#utility.yul\":2178:2290   */\ntag_61:\n    /* \"#utility.yul\":2299:2338   */\n  tag_63\n    /* \"#utility.yul\":2331:2337   */\n  dup5\n    /* \"#utility.yul\":2326:2329   */\n  dup3\n    /* \"#utility.yul\":2321:2324   */\n  dup6\n    /* \"#utility.yul\":2299:2338   */\n  tag_30\n  jump\t// in\ntag_63:\n    /* \"#utility.yul\":2018:2344   */\n  pop\n    /* \"#utility.yul\":1923:2344   */\n  swap4\n  swap3\n  pop\n  pop\n  pop\n  jump\t// out\n    /* \"#utility.yul\":2364:2719   */\ntag_32:\n    /* \"#utility.yul\":2431:2436   */\n  0x00\n    /* \"#utility.yul\":2480:2483   */\n  dup3\n    /* \"#utility.yul\":2473:2477   */\n  0x1f\n    /* \"#utility.yul\":2465:2471   */\n  dup4\n    /* \"#utility.yul\":2461:2478   */\n  add\n    /* \"#utility.yul\":2457:2484   */\n  slt\n    /* \"#utility.yul\":2447:2569   */\n  tag_65\n  jumpi\n    /* \"#utility.yul\":2488:2567   */\n  tag_66\n  tag_23\n  jump\t// in\ntag_66:\n    /* \"#utility.yul\":2447:2569   */\ntag_65:\n    /* \"#utility.yul\":2598:2604   */\n  dup2\n    /* \"#utility.yul\":2592:2605   */\n  mload\n    /* \"#utility.yul\":2623:2713   */\n  tag_67\n    /* \"#utility.yul\":2709:2712   */\n  dup5\n    /* \"#utility.yul\":2701:2707   */\n  dup3\n    /* \"#utility.yul\":2694:2698   */\n  0x20\n    /* \"#utility.yul\":2686:2692   */\n  dup7\n    /* \"#utility.yul\":2682:2699   */\n  add\n    /* \"#utility.yul\":2623:2713   */\n  tag_31\n  jump\t// in\ntag_67:\n    /* \"#utility.yul\":2614:2713   */\n  swap2\n  pop\n    /* \"#utility.yul\":2437:2719   */\n  pop\n    /* \"#utility.yul\":2364:2719   */\n  swap3\n  swap2\n  pop\n  pop\n  jump\t// out\n    /* \"#utility.yul\":2725:3249   */\ntag_3:\n    /* \"#utility.yul\":2805:2811   */\n  0x00\n    /* \"#utility.yul\":2854:2856   */\n  0x20\n    /* \"#utility.yul\":2842:2851   */\n  dup3\n    /* \"#utility.yul\":2833:2840   */\n  dup5\n    /* \"#utility.yul\":2829:2852   */\n  sub\n    /* \"#utility.yul\":2825:2857   */\n  slt\n    /* \"#utility.yul\":2822:2941   */\n  iszero\n  tag_69\n  jumpi\n    /* \"#utility.yul\":2860:2939   */\n  tag_70\n  tag_21\n  jump\t// in\ntag_70:\n    /* \"#utility.yul\":2822:2941   */\ntag_69:\n    /* \"#utility.yul\":3001:3002   */\n  0x00\n    /* \"#utility.yul\":2990:2999   */\n  dup3\n    /* \"#utility.yul\":2986:3003   */\n  add\n    /* \"#utility.yul\":2980:3004   */\n  mload\n    /* \"#utility.yul\":3031:3049   */\n  0xffffffffffffffff\n    /* \"#utility.yul\":3023:3029   */\n  dup2\n    /* \"#utility.yul\":3020:3050   */\n  gt\n    /* \"#utility.yul\":3017:3134   */\n  iszero\n  tag_71\n  jumpi\n    /* \"#utility.yul\":3053:3132   */\n  tag_72\n  tag_22\n  jump\t// in\ntag_72:\n    /* \"#utility.yul\":3017:3134   */\ntag_71:\n    /* \"#utility.yul\":3158:3232   */\n  tag_73\n    /* \"#utility.yul\":3224:3231   */\n  dup5\n    /* \"#utility.yul\":3215:3221   */\n  dup3\n    /* \"#utility.yul\":3204:3213   */\n  dup6\n    /* \"#utility.yul\":3200:3222   */\n  add\n    /* \"#utility.yul\":3158:3232   */\n  tag_32\n  jump\t// in\ntag_73:\n    /* \"#utility.yul\":3148:3232   */\n  swap2\n  pop\n    /* \"#utility.yul\":2951:3242   */\n  pop\n    /* \"#utility.yul\":2725:3249   */\n  swap3\n  swap2\n  pop\n  pop\n  jump\t// out\n    /* \"#utility.yul\":3255:3435   */\ntag_33:\n    /* \"#utility.yul\":3303:3380   */\n  0x4e487b7100000000000000000000000000000000000000000000000000000000\n    /* \"#utility.yul\":3300:3301   */\n  0x00\n    /* \"#utility.yul\":3293:3381   */\n  mstore\n    /* \"#utility.yul\":3400:3404   */\n  0x22\n    /* \"#utility.yul\":3397:3398   */\n  0x04\n    /* \"#utility.yul\":3390:3405   */\n  mstore\n    /* \"#utility.yul\":3424:3428   */\n  0x24\n    /* \"#utility.yul\":3421:3422   */\n  0x00\n    /* \"#utility.yul\":3414:3429   */\n  revert\n    /* \"#utility.yul\":3441:3761   */\ntag_10:\n    /* \"#utility.yul\":3485:3491   */\n  0x00\n    /* \"#utility.yul\":3522:3523   */\n  0x02\n    /* \"#utility.yul\":3516:3520   */\n  dup3\n    /* \"#utility.yul\":3512:3524   */\n  div\n    /* \"#utility.yul\":3502:3524   */\n  swap1\n  pop\n    /* \"#utility.yul\":3569:3570   */\n  0x01\n    /* \"#utility.yul\":3563:3567   */\n  dup3\n    /* \"#utility.yul\":3559:3571   */\n  and\n    /* \"#utility.yul\":3590:3608   */\n  dup1\n    /* \"#utility.yul\":3580:3661   */\n  tag_76\n  jumpi\n    /* \"#utility.yul\":3646:3650   */\n  0x7f\n    /* \"#utility.yul\":3638:3644   */\n  dup3\n    /* \"#utility.yul\":3634:3651   */\n  and\n    /* \"#utility.yul\":3624:3651   */\n  swap2\n  pop\n    /* \"#utility.yul\":3580:3661   */\ntag_76:\n    /* \"#utility.yul\":3708:3710   */\n  0x20\n    /* \"#utility.yul\":3700:3706   */\n  dup3\n    /* \"#utility.yul\":3697:3711   */\n  lt\n    /* \"#utility.yul\":3677:3695   */\n  dup2\n    /* \"#utility.yul\":3674:3712   */\n  eq\n    /* \"#utility.yul\":3671:3755   */\n  iszero\n  tag_77\n  jumpi\n    /* \"#utility.yul\":3727:3745   */\n  tag_78\n  tag_33\n  jump\t// in\ntag_78:\n    /* \"#utility.yul\":3671:3755   */\ntag_77:\n    /* \"#utility.yul\":3492:3761   */\n  pop\n    /* \"#utility.yul\":3441:3761   */\n  swap2\n  swap1\n  pop\n  jump\t// out\n    /* \"Main.sol\":60:2095  contract ProviderContract {... */\ntag_8:\n  dataSize(sub_0)\n  dup1\n  dataOffset(sub_0)\n  0x00\n  codecopy\n  0x00\n  return\nstop\n\nsub_0: assembly {\n        /* \"Main.sol\":60:2095  contract ProviderContract {... */\n      mstore(0x40, 0x80)\n      callvalue\n      dup1\n      iszero\n      tag_1\n      jumpi\n      0x00\n      dup1\n      revert\n    tag_1:\n      pop\n      jumpi(tag_2, lt(calldatasize, 0x04))\n      shr(0xe0, calldataload(0x00))\n      dup1\n      0xb46861a0\n      gt\n      tag_12\n      jumpi\n      dup1\n      0xb46861a0\n      eq\n      tag_7\n      jumpi\n      dup1\n      0xb90a9ad5\n      eq\n      tag_8\n      jumpi\n      dup1\n      0xdccb816d\n      eq\n      tag_9\n      jumpi\n      dup1\n      0xe0d4ea37\n      eq\n      tag_10\n      jumpi\n      dup1\n      0xf0503e80\n      eq\n      tag_11\n      jumpi\n      jump(tag_2)\n    tag_12:\n      dup1\n      0xdad7d4\n      eq\n      tag_3\n      jumpi\n      dup1\n      0x6605ff66\n      eq\n      tag_4\n      jumpi\n      dup1\n      0x706e5257\n      eq\n      tag_5\n      jumpi\n      dup1\n      0xa25b0561\n      eq\n      tag_6\n      jumpi\n    tag_2:\n      0x00\n      dup1\n      revert\n        /* \"Main.sol\":130:156  string public providerName */\n    tag_3:\n      tag_13\n      tag_14\n      jump\t// in\n    tag_13:\n      mload(0x40)\n      tag_15\n      swap2\n      swap1\n      tag_16\n      jump\t// in\n    tag_15:\n      mload(0x40)\n      dup1\n      swap2\n      sub\n      swap1\n      return\n        /* \"Main.sol\":189:213  int256 public totalSales */\n    tag_4:\n      tag_17\n      tag_18\n      jump\t// in\n    tag_17:\n      mload(0x40)\n      tag_19\n      swap2\n      swap1\n      tag_20\n      jump\t// in\n    tag_19:\n      mload(0x40)\n      dup1\n      swap2\n      sub\n      swap1\n      return\n        /* \"Main.sol\":93:123  address public providerAddress */\n    tag_5:\n      tag_21\n      tag_22\n      jump\t// in\n    tag_21:\n      mload(0x40)\n      tag_23\n      swap2\n      swap1\n      tag_24\n      jump\t// in\n    tag_23:\n      mload(0x40)\n      dup1\n      swap2\n      sub\n      swap1\n      return\n        /* \"Main.sol\":1745:1835  function getAllSeeds() public view returns (Seed[] memory) {... */\n    tag_6:\n      tag_25\n      tag_26\n      jump\t// in\n    tag_25:\n      mload(0x40)\n      tag_27\n      swap2\n      swap1\n      tag_28\n      jump\t// in\n    tag_27:\n      mload(0x40)\n      dup1\n      swap2\n      sub\n      swap1\n      return\n        /* \"Main.sol\":677:938  function addSeed(... */\n    tag_7:\n      tag_29\n      0x04\n      dup1\n      calldatasize\n      sub\n      dup2\n      add\n      swap1\n      tag_30\n      swap2\n      swap1\n      tag_31\n      jump\t// in\n    tag_30:\n      tag_32\n      jump\t// in\n    tag_29:\n      stop\n        /* \"Main.sol\":1843:2092  function adjustSeedQuantity(... */\n    tag_8:\n      tag_33\n      0x04\n      dup1\n      calldatasize\n      sub\n      dup2\n      add\n      swap1\n      tag_34\n      swap2\n      swap1\n      tag_35\n      jump\t// in\n    tag_34:\n      tag_36\n      jump\t// in\n    tag_33:\n      stop\n        /* \"Main.sol\":1334:1739  function sellSeed(uint256 _index, int256 _quantity) public {... */\n    tag_9:\n      tag_37\n      0x04\n      dup1\n      calldatasize\n      sub\n      dup2\n      add\n      swap1\n      tag_38\n      swap2\n      swap1\n      tag_35\n      jump\t// in\n    tag_38:\n      tag_39\n      jump\t// in\n    tag_37:\n      stop\n        /* \"Main.sol\":946:1326  function getSeed(... */\n    tag_10:\n      tag_40\n      0x04\n      dup1\n      calldatasize\n      sub\n      dup2\n      add\n      swap1\n      tag_41\n      swap2\n      swap1\n      tag_42\n      jump\t// in\n    tag_41:\n      tag_43\n      jump\t// in\n    tag_40:\n      mload(0x40)\n      tag_44\n      swap5\n      swap4\n      swap3\n      swap2\n      swap1\n      tag_45\n      jump\t// in\n    tag_44:\n      mload(0x40)\n      dup1\n      swap2\n      sub\n      swap1\n      return\n        /* \"Main.sol\":163:182  Seed[] public seeds */\n    tag_11:\n      tag_46\n      0x04\n      dup1\n      calldatasize\n      sub\n      dup2\n      add\n      swap1\n      tag_47\n      swap2\n      swap1\n      tag_42\n      jump\t// in\n    tag_47:\n      tag_48\n      jump\t// in\n    tag_46:\n      mload(0x40)\n      tag_49\n      swap5\n      swap4\n      swap3\n      swap2\n      swap1\n      tag_45\n      jump\t// in\n    tag_49:\n      mload(0x40)\n      dup1\n      swap2\n      sub\n      swap1\n      return\n        /* \"Main.sol\":130:156  string public providerName */\n    tag_14:\n      0x01\n      dup1\n      sload\n      tag_50\n      swap1\n      tag_51\n      jump\t// in\n    tag_50:\n      dup1\n      0x1f\n      add\n      0x20\n      dup1\n      swap2\n      div\n      mul\n      0x20\n      add\n      mload(0x40)\n      swap1\n      dup2\n      add\n      0x40\n      mstore\n      dup1\n      swap3\n      swap2\n      swap1\n      dup2\n      dup2\n      mstore\n      0x20\n      add\n      dup3\n      dup1\n      sload\n      tag_52\n      swap1\n      tag_51\n      jump\t// in\n    tag_52:\n      dup1\n      iszero\n      tag_53\n      jumpi\n      dup1\n      0x1f\n      lt\n      tag_54\n      jumpi\n      0x0100\n      dup1\n      dup4\n      sload\n      div\n      mul\n      dup4\n      mstore\n      swap2\n      0x20\n      add\n      swap2\n      jump(tag_53)\n    tag_54:\n      dup3\n      add\n      swap2\n      swap1\n      0x00\n      mstore\n      keccak256(0x00, 0x20)\n      swap1\n    tag_55:\n      dup2\n      sload\n      dup2\n      mstore\n      swap1\n      0x01\n      add\n      swap1\n      0x20\n      add\n      dup1\n      dup4\n      gt\n      tag_55\n      jumpi\n      dup3\n      swap1\n      sub\n      0x1f\n      and\n      dup3\n      add\n      swap2\n    tag_53:\n      pop\n      pop\n      pop\n      pop\n      pop\n      dup2\n      jump\t// out\n        /* \"Main.sol\":189:213  int256 public totalSales */\n    tag_18:\n      sload(0x03)\n      dup2\n      jump\t// out\n        /* \"Main.sol\":93:123  address public providerAddress */\n    tag_22:\n      0x00\n      dup1\n      sload\n      swap1\n      0x0100\n      exp\n      swap1\n      div\n      0xffffffffffffffffffffffffffffffffffffffff\n      and\n      dup2\n      jump\t// out\n        /* \"Main.sol\":1745:1835  function getAllSeeds() public view returns (Seed[] memory) {... */\n    tag_26:\n        /* \"Main.sol\":1789:1802  Seed[] memory */\n      0x60\n        /* \"Main.sol\":1822:1827  seeds */\n      0x02\n        /* \"Main.sol\":1815:1827  return seeds */\n      dup1\n      sload\n      dup1\n      0x20\n      mul\n      0x20\n      add\n      mload(0x40)\n      swap1\n      dup2\n      add\n      0x40\n      mstore\n      dup1\n      swap3\n      swap2\n      swap1\n      dup2\n      dup2\n      mstore\n      0x20\n      add\n      0x00\n      swap1\n    tag_57:\n      dup3\n      dup3\n      lt\n      iszero\n      tag_58\n      jumpi\n      dup4\n      dup3\n      swap1\n      0x00\n      mstore\n      keccak256(0x00, 0x20)\n      swap1\n      0x04\n      mul\n      add\n      mload(0x40)\n      dup1\n      0x80\n      add\n      0x40\n      mstore\n      swap1\n      dup2\n      0x00\n      dup3\n      add\n      dup1\n      sload\n      tag_60\n      swap1\n      tag_51\n      jump\t// in\n    tag_60:\n      dup1\n      0x1f\n      add\n      0x20\n      dup1\n      swap2\n      div\n      mul\n      0x20\n      add\n      mload(0x40)\n      swap1\n      dup2\n      add\n      0x40\n      mstore\n      dup1\n      swap3\n      swap2\n      swap1\n      dup2\n      dup2\n      mstore\n      0x20\n      add\n      dup3\n      dup1\n      sload\n      tag_61\n      swap1\n      tag_51\n      jump\t// in\n    tag_61:\n      dup1\n      iszero\n      tag_62\n      jumpi\n      dup1\n      0x1f\n      lt\n      tag_63\n      jumpi\n      0x0100\n      dup1\n      dup4\n      sload\n      div\n      mul\n      dup4\n      mstore\n      swap2\n      0x20\n      add\n      swap2\n      jump(tag_62)\n    tag_63:\n      dup3\n      add\n      swap2\n      swap1\n      0x00\n      mstore\n      keccak256(0x00, 0x20)\n      swap1\n    tag_64:\n      dup2\n      sload\n      dup2\n      mstore\n      swap1\n      0x01\n      add\n      swap1\n      0x20\n      add\n      dup1\n      dup4\n      gt\n      tag_64\n      jumpi\n      dup3\n      swap1\n      sub\n      0x1f\n      and\n      dup3\n      add\n      swap2\n    tag_62:\n      pop\n      pop\n      pop\n      pop\n      pop\n      dup2\n      mstore\n      0x20\n      add\n      0x01\n      dup3\n      add\n      sload\n      dup2\n      mstore\n      0x20\n      add\n      0x02\n      dup3\n      add\n      dup1\n      sload\n      tag_65\n      swap1\n      tag_51\n      jump\t// in\n    tag_65:\n      dup1\n      0x1f\n      add\n      0x20\n      dup1\n      swap2\n      div\n      mul\n      0x20\n      add\n      mload(0x40)\n      swap1\n      dup2\n      add\n      0x40\n      mstore\n      dup1\n      swap3\n      swap2\n      swap1\n      dup2\n      dup2\n      mstore\n      0x20\n      add\n      dup3\n      dup1\n      sload\n      tag_66\n      swap1\n      tag_51\n      jump\t// in\n    tag_66:\n      dup1\n      iszero\n      tag_67\n      jumpi\n      dup1\n      0x1f\n      lt\n      tag_68\n      jumpi\n      0x0100\n      dup1\n      dup4\n      sload\n      div\n      mul\n      dup4\n      mstore\n      swap2\n      0x20\n      add\n      swap2\n      jump(tag_67)\n    tag_68:\n      dup3\n      add\n      swap2\n      swap1\n      0x00\n      mstore\n      keccak256(0x00, 0x20)\n      swap1\n    tag_69:\n      dup2\n      sload\n      dup2\n      mstore\n      swap1\n      0x01\n      add\n      swap1\n      0x20\n      add\n      dup1\n      dup4\n      gt\n      tag_69\n      jumpi\n      dup3\n      swap1\n      sub\n      0x1f\n      and\n      dup3\n      add\n      swap2\n    tag_67:\n      pop\n      pop\n      pop\n      pop\n      pop\n      dup2\n      mstore\n      0x20\n      add\n      0x03\n      dup3\n      add\n      sload\n      dup2\n      mstore\n      pop\n      pop\n      dup2\n      mstore\n      0x20\n      add\n      swap1\n      0x01\n      add\n      swap1\n      jump(tag_57)\n    tag_58:\n      pop\n      pop\n      pop\n      pop\n      swap1\n      pop\n        /* \"Main.sol\":1745:1835  function getAllSeeds() public view returns (Seed[] memory) {... */\n      swap1\n      jump\t// out\n        /* \"Main.sol\":677:938  function addSeed(... */\n    tag_32:\n        /* \"Main.sol\":433:448  providerAddress */\n      0x00\n      dup1\n      sload\n      swap1\n      0x0100\n      exp\n      swap1\n      div\n      0xffffffffffffffffffffffffffffffffffffffff\n      and\n        /* \"Main.sol\":419:448  msg.sender == providerAddress */\n      0xffffffffffffffffffffffffffffffffffffffff\n      and\n        /* \"Main.sol\":419:429  msg.sender */\n      caller\n        /* \"Main.sol\":419:448  msg.sender == providerAddress */\n      0xffffffffffffffffffffffffffffffffffffffff\n      and\n      eq\n        /* \"Main.sol\":397:514  require(... */\n      tag_71\n      jumpi\n      mload(0x40)\n      0x08c379a000000000000000000000000000000000000000000000000000000000\n      dup2\n      mstore\n      0x04\n      add\n      tag_72\n      swap1\n      tag_73\n      jump\t// in\n    tag_72:\n      mload(0x40)\n      dup1\n      swap2\n      sub\n      swap1\n      revert\n    tag_71:\n        /* \"Main.sol\":862:867  seeds */\n      0x02\n        /* \"Main.sol\":873:929  Seed(_seedName, _seedPrice, _seedQuality, _seedQuantity) */\n      mload(0x40)\n      dup1\n      0x80\n      add\n      0x40\n      mstore\n      dup1\n        /* \"Main.sol\":878:887  _seedName */\n      dup7\n        /* \"Main.sol\":873:929  Seed(_seedName, _seedPrice, _seedQuality, _seedQuantity) */\n      dup2\n      mstore\n      0x20\n      add\n        /* \"Main.sol\":889:899  _seedPrice */\n      dup5\n        /* \"Main.sol\":873:929  Seed(_seedName, _seedPrice, _seedQuality, _seedQuantity) */\n      dup2\n      mstore\n      0x20\n      add\n        /* \"Main.sol\":901:913  _seedQuality */\n      dup6\n        /* \"Main.sol\":873:929  Seed(_seedName, _seedPrice, _seedQuality, _seedQuantity) */\n      dup2\n      mstore\n      0x20\n      add\n        /* \"Main.sol\":915:928  _seedQuantity */\n      dup4\n        /* \"Main.sol\":873:929  Seed(_seedName, _seedPrice, _seedQuality, _seedQuantity) */\n      dup2\n      mstore\n      pop\n        /* \"Main.sol\":862:930  seeds.push(Seed(_seedName, _seedPrice, _seedQuality, _seedQuantity)) */\n      swap1\n      dup1\n      0x01\n      dup2\n      sload\n      add\n      dup1\n      dup3\n      sstore\n      dup1\n      swap2\n      pop\n      pop\n      0x01\n      swap1\n      sub\n      swap1\n      0x00\n      mstore\n      keccak256(0x00, 0x20)\n      swap1\n      0x04\n      mul\n      add\n      0x00\n      swap1\n      swap2\n      swap1\n      swap2\n      swap1\n      swap2\n      pop\n      0x00\n      dup3\n      add\n      mload\n      dup2\n      0x00\n      add\n      swap1\n      dup1\n      mload\n      swap1\n      0x20\n      add\n      swap1\n      tag_76\n      swap3\n      swap2\n      swap1\n      tag_77\n      jump\t// in\n    tag_76:\n      pop\n      0x20\n      dup3\n      add\n      mload\n      dup2\n      0x01\n      add\n      sstore\n      0x40\n      dup3\n      add\n      mload\n      dup2\n      0x02\n      add\n      swap1\n      dup1\n      mload\n      swap1\n      0x20\n      add\n      swap1\n      tag_78\n      swap3\n      swap2\n      swap1\n      tag_77\n      jump\t// in\n    tag_78:\n      pop\n      0x60\n      dup3\n      add\n      mload\n      dup2\n      0x03\n      add\n      sstore\n      pop\n      pop\n        /* \"Main.sol\":677:938  function addSeed(... */\n      pop\n      pop\n      pop\n      pop\n      jump\t// out\n        /* \"Main.sol\":1843:2092  function adjustSeedQuantity(... */\n    tag_36:\n        /* \"Main.sol\":433:448  providerAddress */\n      0x00\n      dup1\n      sload\n      swap1\n      0x0100\n      exp\n      swap1\n      div\n      0xffffffffffffffffffffffffffffffffffffffff\n      and\n        /* \"Main.sol\":419:448  msg.sender == providerAddress */\n      0xffffffffffffffffffffffffffffffffffffffff\n      and\n        /* \"Main.sol\":419:429  msg.sender */\n      caller\n        /* \"Main.sol\":419:448  msg.sender == providerAddress */\n      0xffffffffffffffffffffffffffffffffffffffff\n      and\n      eq\n        /* \"Main.sol\":397:514  require(... */\n      tag_80\n      jumpi\n      mload(0x40)\n      0x08c379a000000000000000000000000000000000000000000000000000000000\n      dup2\n      mstore\n      0x04\n      add\n      tag_81\n      swap1\n      tag_73\n      jump\t// in\n    tag_81:\n      mload(0x40)\n      dup1\n      swap2\n      sub\n      swap1\n      revert\n    tag_80:\n        /* \"Main.sol\":1988:1993  seeds */\n      0x02\n        /* \"Main.sol\":1988:2000  seeds.length */\n      dup1\n      sload\n      swap1\n      pop\n        /* \"Main.sol\":1979:1985  _index */\n      dup3\n        /* \"Main.sol\":1979:2000  _index < seeds.length */\n      lt\n        /* \"Main.sol\":1971:2024  require(_index < seeds.length, \"Index out of bounds\") */\n      tag_83\n      jumpi\n      mload(0x40)\n      0x08c379a000000000000000000000000000000000000000000000000000000000\n      dup2\n      mstore\n      0x04\n      add\n      tag_84\n      swap1\n      tag_85\n      jump\t// in\n    tag_84:\n      mload(0x40)\n      dup1\n      swap2\n      sub\n      swap1\n      revert\n    tag_83:\n        /* \"Main.sol\":2065:2084  _additionalQuantity */\n      dup1\n        /* \"Main.sol\":2035:2040  seeds */\n      0x02\n        /* \"Main.sol\":2041:2047  _index */\n      dup4\n        /* \"Main.sol\":2035:2048  seeds[_index] */\n      dup2\n      sload\n      dup2\n      lt\n      tag_86\n      jumpi\n      tag_87\n      tag_88\n      jump\t// in\n    tag_87:\n    tag_86:\n      swap1\n      0x00\n      mstore\n      keccak256(0x00, 0x20)\n      swap1\n      0x04\n      mul\n      add\n        /* \"Main.sol\":2035:2061  seeds[_index].seedQuantity */\n      0x03\n      add\n      0x00\n        /* \"Main.sol\":2035:2084  seeds[_index].seedQuantity += _additionalQuantity */\n      dup3\n      dup3\n      sload\n      tag_90\n      swap2\n      swap1\n      tag_91\n      jump\t// in\n    tag_90:\n      swap3\n      pop\n      pop\n      dup2\n      swap1\n      sstore\n      pop\n        /* \"Main.sol\":1843:2092  function adjustSeedQuantity(... */\n      pop\n      pop\n      jump\t// out\n        /* \"Main.sol\":1334:1739  function sellSeed(uint256 _index, int256 _quantity) public {... */\n    tag_39:\n        /* \"Main.sol\":1421:1426  seeds */\n      0x02\n        /* \"Main.sol\":1421:1433  seeds.length */\n      dup1\n      sload\n      swap1\n      pop\n        /* \"Main.sol\":1412:1418  _index */\n      dup3\n        /* \"Main.sol\":1412:1433  _index < seeds.length */\n      lt\n        /* \"Main.sol\":1404:1457  require(_index < seeds.length, \"Index out of bounds\") */\n      tag_93\n      jumpi\n      mload(0x40)\n      0x08c379a000000000000000000000000000000000000000000000000000000000\n      dup2\n      mstore\n      0x04\n      add\n      tag_94\n      swap1\n      tag_85\n      jump\t// in\n    tag_94:\n      mload(0x40)\n      dup1\n      swap2\n      sub\n      swap1\n      revert\n    tag_93:\n        /* \"Main.sol\":1503:1508  seeds */\n      0x02\n        /* \"Main.sol\":1509:1515  _index */\n      dup3\n        /* \"Main.sol\":1503:1516  seeds[_index] */\n      dup2\n      sload\n      dup2\n      lt\n      tag_95\n      jumpi\n      tag_96\n      tag_88\n      jump\t// in\n    tag_96:\n    tag_95:\n      swap1\n      0x00\n      mstore\n      keccak256(0x00, 0x20)\n      swap1\n      0x04\n      mul\n      add\n        /* \"Main.sol\":1503:1529  seeds[_index].seedQuantity */\n      0x03\n      add\n      sload\n        /* \"Main.sol\":1490:1499  _quantity */\n      dup2\n        /* \"Main.sol\":1490:1529  _quantity <= seeds[_index].seedQuantity */\n      sgt\n      iszero\n        /* \"Main.sol\":1468:1578  require(... */\n      tag_98\n      jumpi\n      mload(0x40)\n      0x08c379a000000000000000000000000000000000000000000000000000000000\n      dup2\n      mstore\n      0x04\n      add\n      tag_99\n      swap1\n      tag_100\n      jump\t// in\n    tag_99:\n      mload(0x40)\n      dup1\n      swap2\n      sub\n      swap1\n      revert\n    tag_98:\n        /* \"Main.sol\":1591:1608  int256 totalPrice */\n      0x00\n        /* \"Main.sol\":1637:1646  _quantity */\n      dup2\n        /* \"Main.sol\":1611:1616  seeds */\n      0x02\n        /* \"Main.sol\":1617:1623  _index */\n      dup5\n        /* \"Main.sol\":1611:1624  seeds[_index] */\n      dup2\n      sload\n      dup2\n      lt\n      tag_101\n      jumpi\n      tag_102\n      tag_88\n      jump\t// in\n    tag_102:\n    tag_101:\n      swap1\n      0x00\n      mstore\n      keccak256(0x00, 0x20)\n      swap1\n      0x04\n      mul\n      add\n        /* \"Main.sol\":1611:1634  seeds[_index].seedPrice */\n      0x01\n      add\n      sload\n        /* \"Main.sol\":1611:1646  seeds[_index].seedPrice * _quantity */\n      tag_104\n      swap2\n      swap1\n      tag_105\n      jump\t// in\n    tag_104:\n        /* \"Main.sol\":1591:1646  int256 totalPrice = seeds[_index].seedPrice * _quantity */\n      swap1\n      pop\n        /* \"Main.sol\":1687:1696  _quantity */\n      dup2\n        /* \"Main.sol\":1657:1662  seeds */\n      0x02\n        /* \"Main.sol\":1663:1669  _index */\n      dup5\n        /* \"Main.sol\":1657:1670  seeds[_index] */\n      dup2\n      sload\n      dup2\n      lt\n      tag_106\n      jumpi\n      tag_107\n      tag_88\n      jump\t// in\n    tag_107:\n    tag_106:\n      swap1\n      0x00\n      mstore\n      keccak256(0x00, 0x20)\n      swap1\n      0x04\n      mul\n      add\n        /* \"Main.sol\":1657:1683  seeds[_index].seedQuantity */\n      0x03\n      add\n      0x00\n        /* \"Main.sol\":1657:1696  seeds[_index].seedQuantity -= _quantity */\n      dup3\n      dup3\n      sload\n      tag_109\n      swap2\n      swap1\n      tag_110\n      jump\t// in\n    tag_109:\n      swap3\n      pop\n      pop\n      dup2\n      swap1\n      sstore\n      pop\n        /* \"Main.sol\":1721:1731  totalPrice */\n      dup1\n        /* \"Main.sol\":1707:1717  totalSales */\n      0x03\n      0x00\n        /* \"Main.sol\":1707:1731  totalSales += totalPrice */\n      dup3\n      dup3\n      sload\n      tag_111\n      swap2\n      swap1\n      tag_91\n      jump\t// in\n    tag_111:\n      swap3\n      pop\n      pop\n      dup2\n      swap1\n      sstore\n      pop\n        /* \"Main.sol\":1393:1739  {... */\n      pop\n        /* \"Main.sol\":1334:1739  function sellSeed(uint256 _index, int256 _quantity) public {... */\n      pop\n      pop\n      jump\t// out\n        /* \"Main.sol\":946:1326  function getSeed(... */\n    tag_43:\n        /* \"Main.sol\":1016:1029  string memory */\n      0x60\n        /* \"Main.sol\":1031:1037  int256 */\n      0x00\n        /* \"Main.sol\":1039:1052  string memory */\n      0x60\n        /* \"Main.sol\":1054:1060  int256 */\n      0x00\n        /* \"Main.sol\":1090:1095  seeds */\n      0x02\n        /* \"Main.sol\":1090:1102  seeds.length */\n      dup1\n      sload\n      swap1\n      pop\n        /* \"Main.sol\":1081:1087  _index */\n      dup6\n        /* \"Main.sol\":1081:1102  _index < seeds.length */\n      lt\n        /* \"Main.sol\":1073:1126  require(_index < seeds.length, \"Index out of bounds\") */\n      tag_113\n      jumpi\n      mload(0x40)\n      0x08c379a000000000000000000000000000000000000000000000000000000000\n      dup2\n      mstore\n      0x04\n      add\n      tag_114\n      swap1\n      tag_85\n      jump\t// in\n    tag_114:\n      mload(0x40)\n      dup1\n      swap2\n      sub\n      swap1\n      revert\n    tag_113:\n        /* \"Main.sol\":1137:1153  Seed memory seed */\n      0x00\n        /* \"Main.sol\":1156:1161  seeds */\n      0x02\n        /* \"Main.sol\":1162:1168  _index */\n      dup7\n        /* \"Main.sol\":1156:1169  seeds[_index] */\n      dup2\n      sload\n      dup2\n      lt\n      tag_115\n      jumpi\n      tag_116\n      tag_88\n      jump\t// in\n    tag_116:\n    tag_115:\n      swap1\n      0x00\n      mstore\n      keccak256(0x00, 0x20)\n      swap1\n      0x04\n      mul\n      add\n        /* \"Main.sol\":1137:1169  Seed memory seed = seeds[_index] */\n      mload(0x40)\n      dup1\n      0x80\n      add\n      0x40\n      mstore\n      swap1\n      dup2\n      0x00\n      dup3\n      add\n      dup1\n      sload\n      tag_118\n      swap1\n      tag_51\n      jump\t// in\n    tag_118:\n      dup1\n      0x1f\n      add\n      0x20\n      dup1\n      swap2\n      div\n      mul\n      0x20\n      add\n      mload(0x40)\n      swap1\n      dup2\n      add\n      0x40\n      mstore\n      dup1\n      swap3\n      swap2\n      swap1\n      dup2\n      dup2\n      mstore\n      0x20\n      add\n      dup3\n      dup1\n      sload\n      tag_119\n      swap1\n      tag_51\n      jump\t// in\n    tag_119:\n      dup1\n      iszero\n      tag_120\n      jumpi\n      dup1\n      0x1f\n      lt\n      tag_121\n      jumpi\n      0x0100\n      dup1\n      dup4\n      sload\n      div\n      mul\n      dup4\n      mstore\n      swap2\n      0x20\n      add\n      swap2\n      jump(tag_120)\n    tag_121:\n      dup3\n      add\n      swap2\n      swap1\n      0x00\n      mstore\n      keccak256(0x00, 0x20)\n      swap1\n    tag_122:\n      dup2\n      sload\n      dup2\n      mstore\n      swap1\n      0x01\n      add\n      swap1\n      0x20\n      add\n      dup1\n      dup4\n      gt\n      tag_122\n      jumpi\n      dup3\n      swap1\n      sub\n      0x1f\n      and\n      dup3\n      add\n      swap2\n    tag_120:\n      pop\n      pop\n      pop\n      pop\n      pop\n      dup2\n      mstore\n      0x20\n      add\n      0x01\n      dup3\n      add\n      sload\n      dup2\n      mstore\n      0x20\n      add\n      0x02\n      dup3\n      add\n      dup1\n      sload\n      tag_123\n      swap1\n      tag_51\n      jump\t// in\n    tag_123:\n      dup1\n      0x1f\n      add\n      0x20\n      dup1\n      swap2\n      div\n      mul\n      0x20\n      add\n      mload(0x40)\n      swap1\n      dup2\n      add\n      0x40\n      mstore\n      dup1\n      swap3\n      swap2\n      swap1\n      dup2\n      dup2\n      mstore\n      0x20\n      add\n      dup3\n      dup1\n      sload\n      tag_124\n      swap1\n      tag_51\n      jump\t// in\n    tag_124:\n      dup1\n      iszero\n      tag_125\n      jumpi\n      dup1\n      0x1f\n      lt\n      tag_126\n      jumpi\n      0x0100\n      dup1\n      dup4\n      sload\n      div\n      mul\n      dup4\n      mstore\n      swap2\n      0x20\n      add\n      swap2\n      jump(tag_125)\n    tag_126:\n      dup3\n      add\n      swap2\n      swap1\n      0x00\n      mstore\n      keccak256(0x00, 0x20)\n      swap1\n    tag_127:\n      dup2\n      sload\n      dup2\n      mstore\n      swap1\n      0x01\n      add\n      swap1\n      0x20\n      add\n      dup1\n      dup4\n      gt\n      tag_127\n      jumpi\n      dup3\n      swap1\n      sub\n      0x1f\n      and\n      dup3\n      add\n      swap2\n    tag_125:\n      pop\n      pop\n      pop\n      pop\n      pop\n      dup2\n      mstore\n      0x20\n      add\n      0x03\n      dup3\n      add\n      sload\n      dup2\n      mstore\n      pop\n      pop\n      swap1\n      pop\n        /* \"Main.sol\":1202:1206  seed */\n      dup1\n        /* \"Main.sol\":1202:1215  seed.seedName */\n      0x00\n      add\n      mload\n        /* \"Main.sol\":1230:1234  seed */\n      dup2\n        /* \"Main.sol\":1230:1244  seed.seedPrice */\n      0x20\n      add\n      mload\n        /* \"Main.sol\":1259:1263  seed */\n      dup3\n        /* \"Main.sol\":1259:1275  seed.seedQuality */\n      0x40\n      add\n      mload\n        /* \"Main.sol\":1290:1294  seed */\n      dup4\n        /* \"Main.sol\":1290:1307  seed.seedQuantity */\n      0x60\n      add\n      mload\n        /* \"Main.sol\":1180:1318  return (... */\n      swap5\n      pop\n      swap5\n      pop\n      swap5\n      pop\n      swap5\n      pop\n      pop\n        /* \"Main.sol\":946:1326  function getSeed(... */\n      swap2\n      swap4\n      pop\n      swap2\n      swap4\n      jump\t// out\n        /* \"Main.sol\":163:182  Seed[] public seeds */\n    tag_48:\n      0x02\n      dup2\n      dup2\n      sload\n      dup2\n      lt\n      tag_128\n      jumpi\n      0x00\n      dup1\n      revert\n    tag_128:\n      swap1\n      0x00\n      mstore\n      keccak256(0x00, 0x20)\n      swap1\n      0x04\n      mul\n      add\n      0x00\n      swap2\n      pop\n      swap1\n      pop\n      dup1\n      0x00\n      add\n      dup1\n      sload\n      tag_130\n      swap1\n      tag_51\n      jump\t// in\n    tag_130:\n      dup1\n      0x1f\n      add\n      0x20\n      dup1\n      swap2\n      div\n      mul\n      0x20\n      add\n      mload(0x40)\n      swap1\n      dup2\n      add\n      0x40\n      mstore\n      dup1\n      swap3\n      swap2\n      swap1\n      dup2\n      dup2\n      mstore\n      0x20\n      add\n      dup3\n      dup1\n      sload\n      tag_131\n      swap1\n      tag_51\n      jump\t// in\n    tag_131:\n      dup1\n      iszero\n      tag_132\n      jumpi\n      dup1\n      0x1f\n      lt\n      tag_133\n      jumpi\n      0x0100\n      dup1\n      dup4\n      sload\n      div\n      mul\n      dup4\n      mstore\n      swap2\n      0x20\n      add\n      swap2\n      jump(tag_132)\n    tag_133:\n      dup3\n      add\n      swap2\n      swap1\n      0x00\n      mstore\n      keccak256(0x00, 0x20)\n      swap1\n    tag_134:\n      dup2\n      sload\n      dup2\n      mstore\n      swap1\n      0x01\n      add\n      swap1\n      0x20\n      add\n      dup1\n      dup4\n      gt\n      tag_134\n      jumpi\n      dup3\n      swap1\n      sub\n      0x1f\n      and\n      dup3\n      add\n      swap2\n    tag_132:\n      pop\n      pop\n      pop\n      pop\n      pop\n      swap1\n      dup1\n      0x01\n      add\n      sload\n      swap1\n      dup1\n      0x02\n      add\n      dup1\n      sload\n      tag_135\n      swap1\n      tag_51\n      jump\t// in\n    tag_135:\n      dup1\n      0x1f\n      add\n      0x20\n      dup1\n      swap2\n      div\n      mul\n      0x20\n      add\n      mload(0x40)\n      swap1\n      dup2\n      add\n      0x40\n      mstore\n      dup1\n      swap3\n      swap2\n      swap1\n      dup2\n      dup2\n      mstore\n      0x20\n      add\n      dup3\n      dup1\n      sload\n      tag_136\n      swap1\n      tag_51\n      jump\t// in\n    tag_136:\n      dup1\n      iszero\n      tag_137\n      jumpi\n      dup1\n      0x1f\n      lt\n      tag_138\n      jumpi\n      0x0100\n      dup1\n      dup4\n      sload\n      div\n      mul\n      dup4\n      mstore\n      swap2\n      0x20\n      add\n      swap2\n      jump(tag_137)\n    tag_138:\n      dup3\n      add\n      swap2\n      swap1\n      0x00\n      mstore\n      keccak256(0x00, 0x20)\n      swap1\n    tag_139:\n      dup2\n      sload\n      dup2\n      mstore\n      swap1\n      0x01\n      add\n      swap1\n      0x20\n      add\n      dup1\n      dup4\n      gt\n      tag_139\n      jumpi\n      dup3\n      swap1\n      sub\n      0x1f\n      and\n      dup3\n      add\n      swap2\n    tag_137:\n      pop\n      pop\n      pop\n      pop\n      pop\n      swap1\n      dup1\n      0x03\n      add\n      sload\n      swap1\n      pop\n      dup5\n      jump\t// out\n    tag_77:\n      dup3\n      dup1\n      sload\n      tag_140\n      swap1\n      tag_51\n      jump\t// in\n    tag_140:\n      swap1\n      0x00\n      mstore\n      keccak256(0x00, 0x20)\n      swap1\n      0x1f\n      add\n      0x20\n      swap1\n      div\n      dup2\n      add\n      swap3\n      dup3\n      tag_142\n      jumpi\n      0x00\n      dup6\n      sstore\n      jump(tag_141)\n    tag_142:\n      dup3\n      0x1f\n      lt\n      tag_143\n      jumpi\n      dup1\n      mload\n      not(0xff)\n      and\n      dup4\n      dup1\n      add\n      or\n      dup6\n      sstore\n      jump(tag_141)\n    tag_143:\n      dup3\n      dup1\n      add\n      0x01\n      add\n      dup6\n      sstore\n      dup3\n      iszero\n      tag_141\n      jumpi\n      swap2\n      dup3\n      add\n    tag_144:\n      dup3\n      dup2\n      gt\n      iszero\n      tag_145\n      jumpi\n      dup3\n      mload\n      dup3\n      sstore\n      swap2\n      0x20\n      add\n      swap2\n      swap1\n      0x01\n      add\n      swap1\n      jump(tag_144)\n    tag_145:\n    tag_141:\n      pop\n      swap1\n      pop\n      tag_146\n      swap2\n      swap1\n      tag_147\n      jump\t// in\n    tag_146:\n      pop\n      swap1\n      jump\t// out\n    tag_147:\n    tag_148:\n      dup1\n      dup3\n      gt\n      iszero\n      tag_149\n      jumpi\n      0x00\n      dup2\n      0x00\n      swap1\n      sstore\n      pop\n      0x01\n      add\n      jump(tag_148)\n    tag_149:\n      pop\n      swap1\n      jump\t// out\n        /* \"#utility.yul\":7:106   */\n    tag_150:\n        /* \"#utility.yul\":59:65   */\n      0x00\n        /* \"#utility.yul\":93:98   */\n      dup2\n        /* \"#utility.yul\":87:99   */\n      mload\n        /* \"#utility.yul\":77:99   */\n      swap1\n      pop\n        /* \"#utility.yul\":7:106   */\n      swap2\n      swap1\n      pop\n      jump\t// out\n        /* \"#utility.yul\":112:281   */\n    tag_151:\n        /* \"#utility.yul\":196:207   */\n      0x00\n        /* \"#utility.yul\":230:236   */\n      dup3\n        /* \"#utility.yul\":225:228   */\n      dup3\n        /* \"#utility.yul\":218:237   */\n      mstore\n        /* \"#utility.yul\":270:274   */\n      0x20\n        /* \"#utility.yul\":265:268   */\n      dup3\n        /* \"#utility.yul\":261:275   */\n      add\n        /* \"#utility.yul\":246:275   */\n      swap1\n      pop\n        /* \"#utility.yul\":112:281   */\n      swap3\n      swap2\n      pop\n      pop\n      jump\t// out\n        /* \"#utility.yul\":287:594   */\n    tag_152:\n        /* \"#utility.yul\":355:356   */\n      0x00\n        /* \"#utility.yul\":365:478   */\n    tag_199:\n        /* \"#utility.yul\":379:385   */\n      dup4\n        /* \"#utility.yul\":376:377   */\n      dup2\n        /* \"#utility.yul\":373:386   */\n      lt\n        /* \"#utility.yul\":365:478   */\n      iszero\n      tag_201\n      jumpi\n        /* \"#utility.yul\":464:465   */\n      dup1\n        /* \"#utility.yul\":459:462   */\n      dup3\n        /* \"#utility.yul\":455:466   */\n      add\n        /* \"#utility.yul\":449:467   */\n      mload\n        /* \"#utility.yul\":445:446   */\n      dup2\n        /* \"#utility.yul\":440:443   */\n      dup5\n        /* \"#utility.yul\":436:447   */\n      add\n        /* \"#utility.yul\":429:468   */\n      mstore\n        /* \"#utility.yul\":401:403   */\n      0x20\n        /* \"#utility.yul\":398:399   */\n      dup2\n        /* \"#utility.yul\":394:404   */\n      add\n        /* \"#utility.yul\":389:404   */\n      swap1\n      pop\n        /* \"#utility.yul\":365:478   */\n      jump(tag_199)\n    tag_201:\n        /* \"#utility.yul\":496:502   */\n      dup4\n        /* \"#utility.yul\":493:494   */\n      dup2\n        /* \"#utility.yul\":490:503   */\n      gt\n        /* \"#utility.yul\":487:588   */\n      iszero\n      tag_202\n      jumpi\n        /* \"#utility.yul\":576:577   */\n      0x00\n        /* \"#utility.yul\":567:573   */\n      dup5\n        /* \"#utility.yul\":562:565   */\n      dup5\n        /* \"#utility.yul\":558:574   */\n      add\n        /* \"#utility.yul\":551:578   */\n      mstore\n        /* \"#utility.yul\":487:588   */\n    tag_202:\n        /* \"#utility.yul\":336:594   */\n      pop\n        /* \"#utility.yul\":287:594   */\n      pop\n      pop\n      pop\n      jump\t// out\n        /* \"#utility.yul\":600:702   */\n    tag_153:\n        /* \"#utility.yul\":641:647   */\n      0x00\n        /* \"#utility.yul\":692:694   */\n      0x1f\n        /* \"#utility.yul\":688:695   */\n      not\n        /* \"#utility.yul\":683:685   */\n      0x1f\n        /* \"#utility.yul\":676:681   */\n      dup4\n        /* \"#utility.yul\":672:686   */\n      add\n        /* \"#utility.yul\":668:696   */\n      and\n        /* \"#utility.yul\":658:696   */\n      swap1\n      pop\n        /* \"#utility.yul\":600:702   */\n      swap2\n      swap1\n      pop\n      jump\t// out\n        /* \"#utility.yul\":708:1072   */\n    tag_154:\n        /* \"#utility.yul\":796:799   */\n      0x00\n        /* \"#utility.yul\":824:863   */\n      tag_205\n        /* \"#utility.yul\":857:862   */\n      dup3\n        /* \"#utility.yul\":824:863   */\n      tag_150\n      jump\t// in\n    tag_205:\n        /* \"#utility.yul\":879:950   */\n      tag_206\n        /* \"#utility.yul\":943:949   */\n      dup2\n        /* \"#utility.yul\":938:941   */\n      dup6\n        /* \"#utility.yul\":879:950   */\n      tag_151\n      jump\t// in\n    tag_206:\n        /* \"#utility.yul\":872:950   */\n      swap4\n      pop\n        /* \"#utility.yul\":959:1011   */\n      tag_207\n        /* \"#utility.yul\":1004:1010   */\n      dup2\n        /* \"#utility.yul\":999:1002   */\n      dup6\n        /* \"#utility.yul\":992:996   */\n      0x20\n        /* \"#utility.yul\":985:990   */\n      dup7\n        /* \"#utility.yul\":981:997   */\n      add\n        /* \"#utility.yul\":959:1011   */\n      tag_152\n      jump\t// in\n    tag_207:\n        /* \"#utility.yul\":1036:1065   */\n      tag_208\n        /* \"#utility.yul\":1058:1064   */\n      dup2\n        /* \"#utility.yul\":1036:1065   */\n      tag_153\n      jump\t// in\n    tag_208:\n        /* \"#utility.yul\":1031:1034   */\n      dup5\n        /* \"#utility.yul\":1027:1066   */\n      add\n        /* \"#utility.yul\":1020:1066   */\n      swap2\n      pop\n        /* \"#utility.yul\":800:1072   */\n      pop\n        /* \"#utility.yul\":708:1072   */\n      swap3\n      swap2\n      pop\n      pop\n      jump\t// out\n        /* \"#utility.yul\":1078:1391   */\n    tag_16:\n        /* \"#utility.yul\":1191:1195   */\n      0x00\n        /* \"#utility.yul\":1229:1231   */\n      0x20\n        /* \"#utility.yul\":1218:1227   */\n      dup3\n        /* \"#utility.yul\":1214:1232   */\n      add\n        /* \"#utility.yul\":1206:1232   */\n      swap1\n      pop\n        /* \"#utility.yul\":1278:1287   */\n      dup2\n        /* \"#utility.yul\":1272:1276   */\n      dup2\n        /* \"#utility.yul\":1268:1288   */\n      sub\n        /* \"#utility.yul\":1264:1265   */\n      0x00\n        /* \"#utility.yul\":1253:1262   */\n      dup4\n        /* \"#utility.yul\":1249:1266   */\n      add\n        /* \"#utility.yul\":1242:1289   */\n      mstore\n        /* \"#utility.yul\":1306:1384   */\n      tag_210\n        /* \"#utility.yul\":1379:1383   */\n      dup2\n        /* \"#utility.yul\":1370:1376   */\n      dup5\n        /* \"#utility.yul\":1306:1384   */\n      tag_154\n      jump\t// in\n    tag_210:\n        /* \"#utility.yul\":1298:1384   */\n      swap1\n      pop\n        /* \"#utility.yul\":1078:1391   */\n      swap3\n      swap2\n      pop\n      pop\n      jump\t// out\n        /* \"#utility.yul\":1397:1473   */\n    tag_155:\n        /* \"#utility.yul\":1433:1440   */\n      0x00\n        /* \"#utility.yul\":1462:1467   */\n      dup2\n        /* \"#utility.yul\":1451:1467   */\n      swap1\n      pop\n        /* \"#utility.yul\":1397:1473   */\n      swap2\n      swap1\n      pop\n      jump\t// out\n        /* \"#utility.yul\":1479:1594   */\n    tag_156:\n        /* \"#utility.yul\":1564:1587   */\n      tag_213\n        /* \"#utility.yul\":1581:1586   */\n      dup2\n        /* \"#utility.yul\":1564:1587   */\n      tag_155\n      jump\t// in\n    tag_213:\n        /* \"#utility.yul\":1559:1562   */\n      dup3\n        /* \"#utility.yul\":1552:1588   */\n      mstore\n        /* \"#utility.yul\":1479:1594   */\n      pop\n      pop\n      jump\t// out\n        /* \"#utility.yul\":1600:1818   */\n    tag_20:\n        /* \"#utility.yul\":1691:1695   */\n      0x00\n        /* \"#utility.yul\":1729:1731   */\n      0x20\n        /* \"#utility.yul\":1718:1727   */\n      dup3\n        /* \"#utility.yul\":1714:1732   */\n      add\n        /* \"#utility.yul\":1706:1732   */\n      swap1\n      pop\n        /* \"#utility.yul\":1742:1811   */\n      tag_215\n        /* \"#utility.yul\":1808:1809   */\n      0x00\n        /* \"#utility.yul\":1797:1806   */\n      dup4\n        /* \"#utility.yul\":1793:1810   */\n      add\n        /* \"#utility.yul\":1784:1790   */\n      dup5\n        /* \"#utility.yul\":1742:1811   */\n      tag_156\n      jump\t// in\n    tag_215:\n        /* \"#utility.yul\":1600:1818   */\n      swap3\n      swap2\n      pop\n      pop\n      jump\t// out\n        /* \"#utility.yul\":1824:1950   */\n    tag_157:\n        /* \"#utility.yul\":1861:1868   */\n      0x00\n        /* \"#utility.yul\":1901:1943   */\n      0xffffffffffffffffffffffffffffffffffffffff\n        /* \"#utility.yul\":1894:1899   */\n      dup3\n        /* \"#utility.yul\":1890:1944   */\n      and\n        /* \"#utility.yul\":1879:1944   */\n      swap1\n      pop\n        /* \"#utility.yul\":1824:1950   */\n      swap2\n      swap1\n      pop\n      jump\t// out\n        /* \"#utility.yul\":1956:2052   */\n    tag_158:\n        /* \"#utility.yul\":1993:2000   */\n      0x00\n        /* \"#utility.yul\":2022:2046   */\n      tag_218\n        /* \"#utility.yul\":2040:2045   */\n      dup3\n        /* \"#utility.yul\":2022:2046   */\n      tag_157\n      jump\t// in\n    tag_218:\n        /* \"#utility.yul\":2011:2046   */\n      swap1\n      pop\n        /* \"#utility.yul\":1956:2052   */\n      swap2\n      swap1\n      pop\n      jump\t// out\n        /* \"#utility.yul\":2058:2176   */\n    tag_159:\n        /* \"#utility.yul\":2145:2169   */\n      tag_220\n        /* \"#utility.yul\":2163:2168   */\n      dup2\n        /* \"#utility.yul\":2145:2169   */\n      tag_158\n      jump\t// in\n    tag_220:\n        /* \"#utility.yul\":2140:2143   */\n      dup3\n        /* \"#utility.yul\":2133:2170   */\n      mstore\n        /* \"#utility.yul\":2058:2176   */\n      pop\n      pop\n      jump\t// out\n        /* \"#utility.yul\":2182:2404   */\n    tag_24:\n        /* \"#utility.yul\":2275:2279   */\n      0x00\n        /* \"#utility.yul\":2313:2315   */\n      0x20\n        /* \"#utility.yul\":2302:2311   */\n      dup3\n        /* \"#utility.yul\":2298:2316   */\n      add\n        /* \"#utility.yul\":2290:2316   */\n      swap1\n      pop\n        /* \"#utility.yul\":2326:2397   */\n      tag_222\n        /* \"#utility.yul\":2394:2395   */\n      0x00\n        /* \"#utility.yul\":2383:2392   */\n      dup4\n        /* \"#utility.yul\":2379:2396   */\n      add\n        /* \"#utility.yul\":2370:2376   */\n      dup5\n        /* \"#utility.yul\":2326:2397   */\n      tag_159\n      jump\t// in\n    tag_222:\n        /* \"#utility.yul\":2182:2404   */\n      swap3\n      swap2\n      pop\n      pop\n      jump\t// out\n        /* \"#utility.yul\":2410:2544   */\n    tag_160:\n        /* \"#utility.yul\":2497:2503   */\n      0x00\n        /* \"#utility.yul\":2531:2536   */\n      dup2\n        /* \"#utility.yul\":2525:2537   */\n      mload\n        /* \"#utility.yul\":2515:2537   */\n      swap1\n      pop\n        /* \"#utility.yul\":2410:2544   */\n      swap2\n      swap1\n      pop\n      jump\t// out\n        /* \"#utility.yul\":2550:2754   */\n    tag_161:\n        /* \"#utility.yul\":2669:2680   */\n      0x00\n        /* \"#utility.yul\":2703:2709   */\n      dup3\n        /* \"#utility.yul\":2698:2701   */\n      dup3\n        /* \"#utility.yul\":2691:2710   */\n      mstore\n        /* \"#utility.yul\":2743:2747   */\n      0x20\n        /* \"#utility.yul\":2738:2741   */\n      dup3\n        /* \"#utility.yul\":2734:2748   */\n      add\n        /* \"#utility.yul\":2719:2748   */\n      swap1\n      pop\n        /* \"#utility.yul\":2550:2754   */\n      swap3\n      swap2\n      pop\n      pop\n      jump\t// out\n        /* \"#utility.yul\":2760:2912   */\n    tag_162:\n        /* \"#utility.yul\":2847:2851   */\n      0x00\n        /* \"#utility.yul\":2870:2873   */\n      dup2\n        /* \"#utility.yul\":2862:2873   */\n      swap1\n      pop\n        /* \"#utility.yul\":2900:2904   */\n      0x20\n        /* \"#utility.yul\":2895:2898   */\n      dup3\n        /* \"#utility.yul\":2891:2905   */\n      add\n        /* \"#utility.yul\":2883:2905   */\n      swap1\n      pop\n        /* \"#utility.yul\":2760:2912   */\n      swap2\n      swap1\n      pop\n      jump\t// out\n        /* \"#utility.yul\":2918:3077   */\n    tag_163:\n        /* \"#utility.yul\":2992:3003   */\n      0x00\n        /* \"#utility.yul\":3026:3032   */\n      dup3\n        /* \"#utility.yul\":3021:3024   */\n      dup3\n        /* \"#utility.yul\":3014:3033   */\n      mstore\n        /* \"#utility.yul\":3066:3070   */\n      0x20\n        /* \"#utility.yul\":3061:3064   */\n      dup3\n        /* \"#utility.yul\":3057:3071   */\n      add\n        /* \"#utility.yul\":3042:3071   */\n      swap1\n      pop\n        /* \"#utility.yul\":2918:3077   */\n      swap3\n      swap2\n      pop\n      pop\n      jump\t// out\n        /* \"#utility.yul\":3083:3427   */\n    tag_164:\n        /* \"#utility.yul\":3161:3164   */\n      0x00\n        /* \"#utility.yul\":3189:3228   */\n      tag_228\n        /* \"#utility.yul\":3222:3227   */\n      dup3\n        /* \"#utility.yul\":3189:3228   */\n      tag_150\n      jump\t// in\n    tag_228:\n        /* \"#utility.yul\":3244:3305   */\n      tag_229\n        /* \"#utility.yul\":3298:3304   */\n      dup2\n        /* \"#utility.yul\":3293:3296   */\n      dup6\n        /* \"#utility.yul\":3244:3305   */\n      tag_163\n      jump\t// in\n    tag_229:\n        /* \"#utility.yul\":3237:3305   */\n      swap4\n      pop\n        /* \"#utility.yul\":3314:3366   */\n      tag_230\n        /* \"#utility.yul\":3359:3365   */\n      dup2\n        /* \"#utility.yul\":3354:3357   */\n      dup6\n        /* \"#utility.yul\":3347:3351   */\n      0x20\n        /* \"#utility.yul\":3340:3345   */\n      dup7\n        /* \"#utility.yul\":3336:3352   */\n      add\n        /* \"#utility.yul\":3314:3366   */\n      tag_152\n      jump\t// in\n    tag_230:\n        /* \"#utility.yul\":3391:3420   */\n      tag_231\n        /* \"#utility.yul\":3413:3419   */\n      dup2\n        /* \"#utility.yul\":3391:3420   */\n      tag_153\n      jump\t// in\n    tag_231:\n        /* \"#utility.yul\":3386:3389   */\n      dup5\n        /* \"#utility.yul\":3382:3421   */\n      add\n        /* \"#utility.yul\":3375:3421   */\n      swap2\n      pop\n        /* \"#utility.yul\":3165:3427   */\n      pop\n        /* \"#utility.yul\":3083:3427   */\n      swap3\n      swap2\n      pop\n      pop\n      jump\t// out\n        /* \"#utility.yul\":3433:3538   */\n    tag_165:\n        /* \"#utility.yul\":3508:3531   */\n      tag_233\n        /* \"#utility.yul\":3525:3530   */\n      dup2\n        /* \"#utility.yul\":3508:3531   */\n      tag_155\n      jump\t// in\n    tag_233:\n        /* \"#utility.yul\":3503:3506   */\n      dup3\n        /* \"#utility.yul\":3496:3532   */\n      mstore\n        /* \"#utility.yul\":3433:3538   */\n      pop\n      pop\n      jump\t// out\n        /* \"#utility.yul\":3612:4637   */\n    tag_166:\n        /* \"#utility.yul\":3711:3714   */\n      0x00\n        /* \"#utility.yul\":3747:3751   */\n      0x80\n        /* \"#utility.yul\":3742:3745   */\n      dup4\n        /* \"#utility.yul\":3738:3752   */\n      add\n        /* \"#utility.yul\":3838:3842   */\n      0x00\n        /* \"#utility.yul\":3831:3836   */\n      dup4\n        /* \"#utility.yul\":3827:3843   */\n      add\n        /* \"#utility.yul\":3821:3844   */\n      mload\n        /* \"#utility.yul\":3891:3894   */\n      dup5\n        /* \"#utility.yul\":3885:3889   */\n      dup3\n        /* \"#utility.yul\":3881:3895   */\n      sub\n        /* \"#utility.yul\":3874:3878   */\n      0x00\n        /* \"#utility.yul\":3869:3872   */\n      dup7\n        /* \"#utility.yul\":3865:3879   */\n      add\n        /* \"#utility.yul\":3858:3896   */\n      mstore\n        /* \"#utility.yul\":3917:3990   */\n      tag_235\n        /* \"#utility.yul\":3985:3989   */\n      dup3\n        /* \"#utility.yul\":3971:3983   */\n      dup3\n        /* \"#utility.yul\":3917:3990   */\n      tag_164\n      jump\t// in\n    tag_235:\n        /* \"#utility.yul\":3909:3990   */\n      swap2\n      pop\n        /* \"#utility.yul\":3762:4001   */\n      pop\n        /* \"#utility.yul\":4088:4092   */\n      0x20\n        /* \"#utility.yul\":4081:4086   */\n      dup4\n        /* \"#utility.yul\":4077:4093   */\n      add\n        /* \"#utility.yul\":4071:4094   */\n      mload\n        /* \"#utility.yul\":4107:4168   */\n      tag_236\n        /* \"#utility.yul\":4162:4166   */\n      0x20\n        /* \"#utility.yul\":4157:4160   */\n      dup7\n        /* \"#utility.yul\":4153:4167   */\n      add\n        /* \"#utility.yul\":4139:4151   */\n      dup3\n        /* \"#utility.yul\":4107:4168   */\n      tag_165\n      jump\t// in\n    tag_236:\n        /* \"#utility.yul\":4011:4178   */\n      pop\n        /* \"#utility.yul\":4267:4271   */\n      0x40\n        /* \"#utility.yul\":4260:4265   */\n      dup4\n        /* \"#utility.yul\":4256:4272   */\n      add\n        /* \"#utility.yul\":4250:4273   */\n      mload\n        /* \"#utility.yul\":4320:4323   */\n      dup5\n        /* \"#utility.yul\":4314:4318   */\n      dup3\n        /* \"#utility.yul\":4310:4324   */\n      sub\n        /* \"#utility.yul\":4303:4307   */\n      0x40\n        /* \"#utility.yul\":4298:4301   */\n      dup7\n        /* \"#utility.yul\":4294:4308   */\n      add\n        /* \"#utility.yul\":4287:4325   */\n      mstore\n        /* \"#utility.yul\":4346:4419   */\n      tag_237\n        /* \"#utility.yul\":4414:4418   */\n      dup3\n        /* \"#utility.yul\":4400:4412   */\n      dup3\n        /* \"#utility.yul\":4346:4419   */\n      tag_164\n      jump\t// in\n    tag_237:\n        /* \"#utility.yul\":4338:4419   */\n      swap2\n      pop\n        /* \"#utility.yul\":4188:4430   */\n      pop\n        /* \"#utility.yul\":4520:4524   */\n      0x60\n        /* \"#utility.yul\":4513:4518   */\n      dup4\n        /* \"#utility.yul\":4509:4525   */\n      add\n        /* \"#utility.yul\":4503:4526   */\n      mload\n        /* \"#utility.yul\":4539:4600   */\n      tag_238\n        /* \"#utility.yul\":4594:4598   */\n      0x60\n        /* \"#utility.yul\":4589:4592   */\n      dup7\n        /* \"#utility.yul\":4585:4599   */\n      add\n        /* \"#utility.yul\":4571:4583   */\n      dup3\n        /* \"#utility.yul\":4539:4600   */\n      tag_165\n      jump\t// in\n    tag_238:\n        /* \"#utility.yul\":4440:4610   */\n      pop\n        /* \"#utility.yul\":4627:4631   */\n      dup1\n        /* \"#utility.yul\":4620:4631   */\n      swap2\n      pop\n        /* \"#utility.yul\":3716:4637   */\n      pop\n        /* \"#utility.yul\":3612:4637   */\n      swap3\n      swap2\n      pop\n      pop\n      jump\t// out\n        /* \"#utility.yul\":4643:4879   */\n    tag_167:\n        /* \"#utility.yul\":4752:4762   */\n      0x00\n        /* \"#utility.yul\":4787:4873   */\n      tag_240\n        /* \"#utility.yul\":4869:4872   */\n      dup4\n        /* \"#utility.yul\":4861:4867   */\n      dup4\n        /* \"#utility.yul\":4787:4873   */\n      tag_166\n      jump\t// in\n    tag_240:\n        /* \"#utility.yul\":4773:4873   */\n      swap1\n      pop\n        /* \"#utility.yul\":4643:4879   */\n      swap3\n      swap2\n      pop\n      pop\n      jump\t// out\n        /* \"#utility.yul\":4885:5018   */\n    tag_168:\n        /* \"#utility.yul\":4975:4979   */\n      0x00\n        /* \"#utility.yul\":5007:5011   */\n      0x20\n        /* \"#utility.yul\":5002:5005   */\n      dup3\n        /* \"#utility.yul\":4998:5012   */\n      add\n        /* \"#utility.yul\":4990:5012   */\n      swap1\n      pop\n        /* \"#utility.yul\":4885:5018   */\n      swap2\n      swap1\n      pop\n      jump\t// out\n        /* \"#utility.yul\":5096:6167   */\n    tag_169:\n        /* \"#utility.yul\":5255:5258   */\n      0x00\n        /* \"#utility.yul\":5284:5358   */\n      tag_243\n        /* \"#utility.yul\":5352:5357   */\n      dup3\n        /* \"#utility.yul\":5284:5358   */\n      tag_160\n      jump\t// in\n    tag_243:\n        /* \"#utility.yul\":5374:5480   */\n      tag_244\n        /* \"#utility.yul\":5473:5479   */\n      dup2\n        /* \"#utility.yul\":5468:5471   */\n      dup6\n        /* \"#utility.yul\":5374:5480   */\n      tag_161\n      jump\t// in\n    tag_244:\n        /* \"#utility.yul\":5367:5480   */\n      swap4\n      pop\n        /* \"#utility.yul\":5506:5509   */\n      dup4\n        /* \"#utility.yul\":5551:5555   */\n      0x20\n        /* \"#utility.yul\":5543:5549   */\n      dup3\n        /* \"#utility.yul\":5539:5556   */\n      mul\n        /* \"#utility.yul\":5534:5537   */\n      dup6\n        /* \"#utility.yul\":5530:5557   */\n      add\n        /* \"#utility.yul\":5581:5657   */\n      tag_245\n        /* \"#utility.yul\":5651:5656   */\n      dup6\n        /* \"#utility.yul\":5581:5657   */\n      tag_162\n      jump\t// in\n    tag_245:\n        /* \"#utility.yul\":5680:5687   */\n      dup1\n        /* \"#utility.yul\":5711:5712   */\n      0x00\n        /* \"#utility.yul\":5696:6122   */\n    tag_246:\n        /* \"#utility.yul\":5721:5727   */\n      dup6\n        /* \"#utility.yul\":5718:5719   */\n      dup2\n        /* \"#utility.yul\":5715:5728   */\n      lt\n        /* \"#utility.yul\":5696:6122   */\n      iszero\n      tag_248\n      jumpi\n        /* \"#utility.yul\":5792:5801   */\n      dup5\n        /* \"#utility.yul\":5786:5790   */\n      dup5\n        /* \"#utility.yul\":5782:5802   */\n      sub\n        /* \"#utility.yul\":5777:5780   */\n      dup10\n        /* \"#utility.yul\":5770:5803   */\n      mstore\n        /* \"#utility.yul\":5843:5849   */\n      dup2\n        /* \"#utility.yul\":5837:5850   */\n      mload\n        /* \"#utility.yul\":5871:5975   */\n      tag_249\n        /* \"#utility.yul\":5970:5974   */\n      dup6\n        /* \"#utility.yul\":5955:5968   */\n      dup3\n        /* \"#utility.yul\":5871:5975   */\n      tag_167\n      jump\t// in\n    tag_249:\n        /* \"#utility.yul\":5863:5975   */\n      swap5\n      pop\n        /* \"#utility.yul\":5998:6078   */\n      tag_250\n        /* \"#utility.yul\":6071:6077   */\n      dup4\n        /* \"#utility.yul\":5998:6078   */\n      tag_168\n      jump\t// in\n    tag_250:\n        /* \"#utility.yul\":5988:6078   */\n      swap3\n      pop\n        /* \"#utility.yul\":6107:6111   */\n      0x20\n        /* \"#utility.yul\":6102:6105   */\n      dup11\n        /* \"#utility.yul\":6098:6112   */\n      add\n        /* \"#utility.yul\":6091:6112   */\n      swap10\n      pop\n        /* \"#utility.yul\":5756:6122   */\n      pop\n        /* \"#utility.yul\":5743:5744   */\n      0x01\n        /* \"#utility.yul\":5740:5741   */\n      dup2\n        /* \"#utility.yul\":5736:5745   */\n      add\n        /* \"#utility.yul\":5731:5745   */\n      swap1\n      pop\n        /* \"#utility.yul\":5696:6122   */\n      jump(tag_246)\n    tag_248:\n        /* \"#utility.yul\":5700:5714   */\n      pop\n        /* \"#utility.yul\":6138:6142   */\n      dup3\n        /* \"#utility.yul\":6131:6142   */\n      swap8\n      pop\n        /* \"#utility.yul\":6158:6161   */\n      dup8\n        /* \"#utility.yul\":6151:6161   */\n      swap6\n      pop\n        /* \"#utility.yul\":5260:6167   */\n      pop\n      pop\n      pop\n      pop\n      pop\n        /* \"#utility.yul\":5096:6167   */\n      swap3\n      swap2\n      pop\n      pop\n      jump\t// out\n        /* \"#utility.yul\":6173:6626   */\n    tag_28:\n        /* \"#utility.yul\":6356:6360   */\n      0x00\n        /* \"#utility.yul\":6394:6396   */\n      0x20\n        /* \"#utility.yul\":6383:6392   */\n      dup3\n        /* \"#utility.yul\":6379:6397   */\n      add\n        /* \"#utility.yul\":6371:6397   */\n      swap1\n      pop\n        /* \"#utility.yul\":6443:6452   */\n      dup2\n        /* \"#utility.yul\":6437:6441   */\n      dup2\n        /* \"#utility.yul\":6433:6453   */\n      sub\n        /* \"#utility.yul\":6429:6430   */\n      0x00\n        /* \"#utility.yul\":6418:6427   */\n      dup4\n        /* \"#utility.yul\":6414:6431   */\n      add\n        /* \"#utility.yul\":6407:6454   */\n      mstore\n        /* \"#utility.yul\":6471:6619   */\n      tag_252\n        /* \"#utility.yul\":6614:6618   */\n      dup2\n        /* \"#utility.yul\":6605:6611   */\n      dup5\n        /* \"#utility.yul\":6471:6619   */\n      tag_169\n      jump\t// in\n    tag_252:\n        /* \"#utility.yul\":6463:6619   */\n      swap1\n      pop\n        /* \"#utility.yul\":6173:6626   */\n      swap3\n      swap2\n      pop\n      pop\n      jump\t// out\n        /* \"#utility.yul\":6632:6707   */\n    tag_170:\n        /* \"#utility.yul\":6665:6671   */\n      0x00\n        /* \"#utility.yul\":6698:6700   */\n      0x40\n        /* \"#utility.yul\":6692:6701   */\n      mload\n        /* \"#utility.yul\":6682:6701   */\n      swap1\n      pop\n        /* \"#utility.yul\":6632:6707   */\n      swap1\n      jump\t// out\n        /* \"#utility.yul\":6713:6830   */\n    tag_171:\n        /* \"#utility.yul\":6822:6823   */\n      0x00\n        /* \"#utility.yul\":6819:6820   */\n      dup1\n        /* \"#utility.yul\":6812:6824   */\n      revert\n        /* \"#utility.yul\":6836:6953   */\n    tag_172:\n        /* \"#utility.yul\":6945:6946   */\n      0x00\n        /* \"#utility.yul\":6942:6943   */\n      dup1\n        /* \"#utility.yul\":6935:6947   */\n      revert\n        /* \"#utility.yul\":6959:7076   */\n    tag_173:\n        /* \"#utility.yul\":7068:7069   */\n      0x00\n        /* \"#utility.yul\":7065:7066   */\n      dup1\n        /* \"#utility.yul\":7058:7070   */\n      revert\n        /* \"#utility.yul\":7082:7199   */\n    tag_174:\n        /* \"#utility.yul\":7191:7192   */\n      0x00\n        /* \"#utility.yul\":7188:7189   */\n      dup1\n        /* \"#utility.yul\":7181:7193   */\n      revert\n        /* \"#utility.yul\":7205:7385   */\n    tag_175:\n        /* \"#utility.yul\":7253:7330   */\n      0x4e487b7100000000000000000000000000000000000000000000000000000000\n        /* \"#utility.yul\":7250:7251   */\n      0x00\n        /* \"#utility.yul\":7243:7331   */\n      mstore\n        /* \"#utility.yul\":7350:7354   */\n      0x41\n        /* \"#utility.yul\":7347:7348   */\n      0x04\n        /* \"#utility.yul\":7340:7355   */\n      mstore\n        /* \"#utility.yul\":7374:7378   */\n      0x24\n        /* \"#utility.yul\":7371:7372   */\n      0x00\n        /* \"#utility.yul\":7364:7379   */\n      revert\n        /* \"#utility.yul\":7391:7672   */\n    tag_176:\n        /* \"#utility.yul\":7474:7501   */\n      tag_260\n        /* \"#utility.yul\":7496:7500   */\n      dup3\n        /* \"#utility.yul\":7474:7501   */\n      tag_153\n      jump\t// in\n    tag_260:\n        /* \"#utility.yul\":7466:7472   */\n      dup2\n        /* \"#utility.yul\":7462:7502   */\n      add\n        /* \"#utility.yul\":7604:7610   */\n      dup2\n        /* \"#utility.yul\":7592:7602   */\n      dup2\n        /* \"#utility.yul\":7589:7611   */\n      lt\n        /* \"#utility.yul\":7568:7586   */\n      0xffffffffffffffff\n        /* \"#utility.yul\":7556:7566   */\n      dup3\n        /* \"#utility.yul\":7553:7587   */\n      gt\n        /* \"#utility.yul\":7550:7612   */\n      or\n        /* \"#utility.yul\":7547:7635   */\n      iszero\n      tag_261\n      jumpi\n        /* \"#utility.yul\":7615:7633   */\n      tag_262\n      tag_175\n      jump\t// in\n    tag_262:\n        /* \"#utility.yul\":7547:7635   */\n    tag_261:\n        /* \"#utility.yul\":7655:7665   */\n      dup1\n        /* \"#utility.yul\":7651:7653   */\n      0x40\n        /* \"#utility.yul\":7644:7666   */\n      mstore\n        /* \"#utility.yul\":7434:7672   */\n      pop\n        /* \"#utility.yul\":7391:7672   */\n      pop\n      pop\n      jump\t// out\n        /* \"#utility.yul\":7678:7807   */\n    tag_177:\n        /* \"#utility.yul\":7712:7718   */\n      0x00\n        /* \"#utility.yul\":7739:7759   */\n      tag_264\n      tag_170\n      jump\t// in\n    tag_264:\n        /* \"#utility.yul\":7729:7759   */\n      swap1\n      pop\n        /* \"#utility.yul\":7768:7801   */\n      tag_265\n        /* \"#utility.yul\":7796:7800   */\n      dup3\n        /* \"#utility.yul\":7788:7794   */\n      dup3\n        /* \"#utility.yul\":7768:7801   */\n      tag_176\n      jump\t// in\n    tag_265:\n        /* \"#utility.yul\":7678:7807   */\n      swap2\n      swap1\n      pop\n      jump\t// out\n        /* \"#utility.yul\":7813:8121   */\n    tag_178:\n        /* \"#utility.yul\":7875:7879   */\n      0x00\n        /* \"#utility.yul\":7965:7983   */\n      0xffffffffffffffff\n        /* \"#utility.yul\":7957:7963   */\n      dup3\n        /* \"#utility.yul\":7954:7984   */\n      gt\n        /* \"#utility.yul\":7951:8007   */\n      iszero\n      tag_267\n      jumpi\n        /* \"#utility.yul\":7987:8005   */\n      tag_268\n      tag_175\n      jump\t// in\n    tag_268:\n        /* \"#utility.yul\":7951:8007   */\n    tag_267:\n        /* \"#utility.yul\":8025:8054   */\n      tag_269\n        /* \"#utility.yul\":8047:8053   */\n      dup3\n        /* \"#utility.yul\":8025:8054   */\n      tag_153\n      jump\t// in\n    tag_269:\n        /* \"#utility.yul\":8017:8054   */\n      swap1\n      pop\n        /* \"#utility.yul\":8109:8113   */\n      0x20\n        /* \"#utility.yul\":8103:8107   */\n      dup2\n        /* \"#utility.yul\":8099:8114   */\n      add\n        /* \"#utility.yul\":8091:8114   */\n      swap1\n      pop\n        /* \"#utility.yul\":7813:8121   */\n      swap2\n      swap1\n      pop\n      jump\t// out\n        /* \"#utility.yul\":8127:8281   */\n    tag_179:\n        /* \"#utility.yul\":8211:8217   */\n      dup3\n        /* \"#utility.yul\":8206:8209   */\n      dup2\n        /* \"#utility.yul\":8201:8204   */\n      dup4\n        /* \"#utility.yul\":8188:8218   */\n      calldatacopy\n        /* \"#utility.yul\":8273:8274   */\n      0x00\n        /* \"#utility.yul\":8264:8270   */\n      dup4\n        /* \"#utility.yul\":8259:8262   */\n      dup4\n        /* \"#utility.yul\":8255:8271   */\n      add\n        /* \"#utility.yul\":8248:8275   */\n      mstore\n        /* \"#utility.yul\":8127:8281   */\n      pop\n      pop\n      pop\n      jump\t// out\n        /* \"#utility.yul\":8287:8699   */\n    tag_180:\n        /* \"#utility.yul\":8365:8370   */\n      0x00\n        /* \"#utility.yul\":8390:8456   */\n      tag_272\n        /* \"#utility.yul\":8406:8455   */\n      tag_273\n        /* \"#utility.yul\":8448:8454   */\n      dup5\n        /* \"#utility.yul\":8406:8455   */\n      tag_178\n      jump\t// in\n    tag_273:\n        /* \"#utility.yul\":8390:8456   */\n      tag_177\n      jump\t// in\n    tag_272:\n        /* \"#utility.yul\":8381:8456   */\n      swap1\n      pop\n        /* \"#utility.yul\":8479:8485   */\n      dup3\n        /* \"#utility.yul\":8472:8477   */\n      dup2\n        /* \"#utility.yul\":8465:8486   */\n      mstore\n        /* \"#utility.yul\":8517:8521   */\n      0x20\n        /* \"#utility.yul\":8510:8515   */\n      dup2\n        /* \"#utility.yul\":8506:8522   */\n      add\n        /* \"#utility.yul\":8555:8558   */\n      dup5\n        /* \"#utility.yul\":8546:8552   */\n      dup5\n        /* \"#utility.yul\":8541:8544   */\n      dup5\n        /* \"#utility.yul\":8537:8553   */\n      add\n        /* \"#utility.yul\":8534:8559   */\n      gt\n        /* \"#utility.yul\":8531:8643   */\n      iszero\n      tag_274\n      jumpi\n        /* \"#utility.yul\":8562:8641   */\n      tag_275\n      tag_174\n      jump\t// in\n    tag_275:\n        /* \"#utility.yul\":8531:8643   */\n    tag_274:\n        /* \"#utility.yul\":8652:8693   */\n      tag_276\n        /* \"#utility.yul\":8686:8692   */\n      dup5\n        /* \"#utility.yul\":8681:8684   */\n      dup3\n        /* \"#utility.yul\":8676:8679   */\n      dup6\n        /* \"#utility.yul\":8652:8693   */\n      tag_179\n      jump\t// in\n    tag_276:\n        /* \"#utility.yul\":8371:8699   */\n      pop\n        /* \"#utility.yul\":8287:8699   */\n      swap4\n      swap3\n      pop\n      pop\n      pop\n      jump\t// out\n        /* \"#utility.yul\":8719:9059   */\n    tag_181:\n        /* \"#utility.yul\":8775:8780   */\n      0x00\n        /* \"#utility.yul\":8824:8827   */\n      dup3\n        /* \"#utility.yul\":8817:8821   */\n      0x1f\n        /* \"#utility.yul\":8809:8815   */\n      dup4\n        /* \"#utility.yul\":8805:8822   */\n      add\n        /* \"#utility.yul\":8801:8828   */\n      slt\n        /* \"#utility.yul\":8791:8913   */\n      tag_278\n      jumpi\n        /* \"#utility.yul\":8832:8911   */\n      tag_279\n      tag_173\n      jump\t// in\n    tag_279:\n        /* \"#utility.yul\":8791:8913   */\n    tag_278:\n        /* \"#utility.yul\":8949:8955   */\n      dup2\n        /* \"#utility.yul\":8936:8956   */\n      calldataload\n        /* \"#utility.yul\":8974:9053   */\n      tag_280\n        /* \"#utility.yul\":9049:9052   */\n      dup5\n        /* \"#utility.yul\":9041:9047   */\n      dup3\n        /* \"#utility.yul\":9034:9038   */\n      0x20\n        /* \"#utility.yul\":9026:9032   */\n      dup7\n        /* \"#utility.yul\":9022:9039   */\n      add\n        /* \"#utility.yul\":8974:9053   */\n      tag_180\n      jump\t// in\n    tag_280:\n        /* \"#utility.yul\":8965:9053   */\n      swap2\n      pop\n        /* \"#utility.yul\":8781:9059   */\n      pop\n        /* \"#utility.yul\":8719:9059   */\n      swap3\n      swap2\n      pop\n      pop\n      jump\t// out\n        /* \"#utility.yul\":9065:9185   */\n    tag_182:\n        /* \"#utility.yul\":9137:9160   */\n      tag_282\n        /* \"#utility.yul\":9154:9159   */\n      dup2\n        /* \"#utility.yul\":9137:9160   */\n      tag_155\n      jump\t// in\n    tag_282:\n        /* \"#utility.yul\":9130:9135   */\n      dup2\n        /* \"#utility.yul\":9127:9161   */\n      eq\n        /* \"#utility.yul\":9117:9179   */\n      tag_283\n      jumpi\n        /* \"#utility.yul\":9175:9176   */\n      0x00\n        /* \"#utility.yul\":9172:9173   */\n      dup1\n        /* \"#utility.yul\":9165:9177   */\n      revert\n        /* \"#utility.yul\":9117:9179   */\n    tag_283:\n        /* \"#utility.yul\":9065:9185   */\n      pop\n      jump\t// out\n        /* \"#utility.yul\":9191:9328   */\n    tag_183:\n        /* \"#utility.yul\":9236:9241   */\n      0x00\n        /* \"#utility.yul\":9274:9280   */\n      dup2\n        /* \"#utility.yul\":9261:9281   */\n      calldataload\n        /* \"#utility.yul\":9252:9281   */\n      swap1\n      pop\n        /* \"#utility.yul\":9290:9322   */\n      tag_285\n        /* \"#utility.yul\":9316:9321   */\n      dup2\n        /* \"#utility.yul\":9290:9322   */\n      tag_182\n      jump\t// in\n    tag_285:\n        /* \"#utility.yul\":9191:9328   */\n      swap3\n      swap2\n      pop\n      pop\n      jump\t// out\n        /* \"#utility.yul\":9334:10455   */\n    tag_31:\n        /* \"#utility.yul\":9438:9444   */\n      0x00\n        /* \"#utility.yul\":9446:9452   */\n      dup1\n        /* \"#utility.yul\":9454:9460   */\n      0x00\n        /* \"#utility.yul\":9462:9468   */\n      dup1\n        /* \"#utility.yul\":9511:9514   */\n      0x80\n        /* \"#utility.yul\":9499:9508   */\n      dup6\n        /* \"#utility.yul\":9490:9497   */\n      dup8\n        /* \"#utility.yul\":9486:9509   */\n      sub\n        /* \"#utility.yul\":9482:9515   */\n      slt\n        /* \"#utility.yul\":9479:9599   */\n      iszero\n      tag_287\n      jumpi\n        /* \"#utility.yul\":9518:9597   */\n      tag_288\n      tag_171\n      jump\t// in\n    tag_288:\n        /* \"#utility.yul\":9479:9599   */\n    tag_287:\n        /* \"#utility.yul\":9666:9667   */\n      0x00\n        /* \"#utility.yul\":9655:9664   */\n      dup6\n        /* \"#utility.yul\":9651:9668   */\n      add\n        /* \"#utility.yul\":9638:9669   */\n      calldataload\n        /* \"#utility.yul\":9696:9714   */\n      0xffffffffffffffff\n        /* \"#utility.yul\":9688:9694   */\n      dup2\n        /* \"#utility.yul\":9685:9715   */\n      gt\n        /* \"#utility.yul\":9682:9799   */\n      iszero\n      tag_289\n      jumpi\n        /* \"#utility.yul\":9718:9797   */\n      tag_290\n      tag_172\n      jump\t// in\n    tag_290:\n        /* \"#utility.yul\":9682:9799   */\n    tag_289:\n        /* \"#utility.yul\":9823:9886   */\n      tag_291\n        /* \"#utility.yul\":9878:9885   */\n      dup8\n        /* \"#utility.yul\":9869:9875   */\n      dup3\n        /* \"#utility.yul\":9858:9867   */\n      dup9\n        /* \"#utility.yul\":9854:9876   */\n      add\n        /* \"#utility.yul\":9823:9886   */\n      tag_181\n      jump\t// in\n    tag_291:\n        /* \"#utility.yul\":9813:9886   */\n      swap5\n      pop\n        /* \"#utility.yul\":9609:9896   */\n      pop\n        /* \"#utility.yul\":9963:9965   */\n      0x20\n        /* \"#utility.yul\":9952:9961   */\n      dup6\n        /* \"#utility.yul\":9948:9966   */\n      add\n        /* \"#utility.yul\":9935:9967   */\n      calldataload\n        /* \"#utility.yul\":9994:10012   */\n      0xffffffffffffffff\n        /* \"#utility.yul\":9986:9992   */\n      dup2\n        /* \"#utility.yul\":9983:10013   */\n      gt\n        /* \"#utility.yul\":9980:10097   */\n      iszero\n      tag_292\n      jumpi\n        /* \"#utility.yul\":10016:10095   */\n      tag_293\n      tag_172\n      jump\t// in\n    tag_293:\n        /* \"#utility.yul\":9980:10097   */\n    tag_292:\n        /* \"#utility.yul\":10121:10184   */\n      tag_294\n        /* \"#utility.yul\":10176:10183   */\n      dup8\n        /* \"#utility.yul\":10167:10173   */\n      dup3\n        /* \"#utility.yul\":10156:10165   */\n      dup9\n        /* \"#utility.yul\":10152:10174   */\n      add\n        /* \"#utility.yul\":10121:10184   */\n      tag_181\n      jump\t// in\n    tag_294:\n        /* \"#utility.yul\":10111:10184   */\n      swap4\n      pop\n        /* \"#utility.yul\":9906:10194   */\n      pop\n        /* \"#utility.yul\":10233:10235   */\n      0x40\n        /* \"#utility.yul\":10259:10311   */\n      tag_295\n        /* \"#utility.yul\":10303:10310   */\n      dup8\n        /* \"#utility.yul\":10294:10300   */\n      dup3\n        /* \"#utility.yul\":10283:10292   */\n      dup9\n        /* \"#utility.yul\":10279:10301   */\n      add\n        /* \"#utility.yul\":10259:10311   */\n      tag_183\n      jump\t// in\n    tag_295:\n        /* \"#utility.yul\":10249:10311   */\n      swap3\n      pop\n        /* \"#utility.yul\":10204:10321   */\n      pop\n        /* \"#utility.yul\":10360:10362   */\n      0x60\n        /* \"#utility.yul\":10386:10438   */\n      tag_296\n        /* \"#utility.yul\":10430:10437   */\n      dup8\n        /* \"#utility.yul\":10421:10427   */\n      dup3\n        /* \"#utility.yul\":10410:10419   */\n      dup9\n        /* \"#utility.yul\":10406:10428   */\n      add\n        /* \"#utility.yul\":10386:10438   */\n      tag_183\n      jump\t// in\n    tag_296:\n        /* \"#utility.yul\":10376:10438   */\n      swap2\n      pop\n        /* \"#utility.yul\":10331:10448   */\n      pop\n        /* \"#utility.yul\":9334:10455   */\n      swap3\n      swap6\n      swap2\n      swap5\n      pop\n      swap3\n      pop\n      jump\t// out\n        /* \"#utility.yul\":10461:10538   */\n    tag_184:\n        /* \"#utility.yul\":10498:10505   */\n      0x00\n        /* \"#utility.yul\":10527:10532   */\n      dup2\n        /* \"#utility.yul\":10516:10532   */\n      swap1\n      pop\n        /* \"#utility.yul\":10461:10538   */\n      swap2\n      swap1\n      pop\n      jump\t// out\n        /* \"#utility.yul\":10544:10666   */\n    tag_185:\n        /* \"#utility.yul\":10617:10641   */\n      tag_299\n        /* \"#utility.yul\":10635:10640   */\n      dup2\n        /* \"#utility.yul\":10617:10641   */\n      tag_184\n      jump\t// in\n    tag_299:\n        /* \"#utility.yul\":10610:10615   */\n      dup2\n        /* \"#utility.yul\":10607:10642   */\n      eq\n        /* \"#utility.yul\":10597:10660   */\n      tag_300\n      jumpi\n        /* \"#utility.yul\":10656:10657   */\n      0x00\n        /* \"#utility.yul\":10653:10654   */\n      dup1\n        /* \"#utility.yul\":10646:10658   */\n      revert\n        /* \"#utility.yul\":10597:10660   */\n    tag_300:\n        /* \"#utility.yul\":10544:10666   */\n      pop\n      jump\t// out\n        /* \"#utility.yul\":10672:10811   */\n    tag_186:\n        /* \"#utility.yul\":10718:10723   */\n      0x00\n        /* \"#utility.yul\":10756:10762   */\n      dup2\n        /* \"#utility.yul\":10743:10763   */\n      calldataload\n        /* \"#utility.yul\":10734:10763   */\n      swap1\n      pop\n        /* \"#utility.yul\":10772:10805   */\n      tag_302\n        /* \"#utility.yul\":10799:10804   */\n      dup2\n        /* \"#utility.yul\":10772:10805   */\n      tag_185\n      jump\t// in\n    tag_302:\n        /* \"#utility.yul\":10672:10811   */\n      swap3\n      swap2\n      pop\n      pop\n      jump\t// out\n        /* \"#utility.yul\":10817:11289   */\n    tag_35:\n        /* \"#utility.yul\":10884:10890   */\n      0x00\n        /* \"#utility.yul\":10892:10898   */\n      dup1\n        /* \"#utility.yul\":10941:10943   */\n      0x40\n        /* \"#utility.yul\":10929:10938   */\n      dup4\n        /* \"#utility.yul\":10920:10927   */\n      dup6\n        /* \"#utility.yul\":10916:10939   */\n      sub\n        /* \"#utility.yul\":10912:10944   */\n      slt\n        /* \"#utility.yul\":10909:11028   */\n      iszero\n      tag_304\n      jumpi\n        /* \"#utility.yul\":10947:11026   */\n      tag_305\n      tag_171\n      jump\t// in\n    tag_305:\n        /* \"#utility.yul\":10909:11028   */\n    tag_304:\n        /* \"#utility.yul\":11067:11068   */\n      0x00\n        /* \"#utility.yul\":11092:11145   */\n      tag_306\n        /* \"#utility.yul\":11137:11144   */\n      dup6\n        /* \"#utility.yul\":11128:11134   */\n      dup3\n        /* \"#utility.yul\":11117:11126   */\n      dup7\n        /* \"#utility.yul\":11113:11135   */\n      add\n        /* \"#utility.yul\":11092:11145   */\n      tag_186\n      jump\t// in\n    tag_306:\n        /* \"#utility.yul\":11082:11145   */\n      swap3\n      pop\n        /* \"#utility.yul\":11038:11155   */\n      pop\n        /* \"#utility.yul\":11194:11196   */\n      0x20\n        /* \"#utility.yul\":11220:11272   */\n      tag_307\n        /* \"#utility.yul\":11264:11271   */\n      dup6\n        /* \"#utility.yul\":11255:11261   */\n      dup3\n        /* \"#utility.yul\":11244:11253   */\n      dup7\n        /* \"#utility.yul\":11240:11262   */\n      add\n        /* \"#utility.yul\":11220:11272   */\n      tag_183\n      jump\t// in\n    tag_307:\n        /* \"#utility.yul\":11210:11272   */\n      swap2\n      pop\n        /* \"#utility.yul\":11165:11282   */\n      pop\n        /* \"#utility.yul\":10817:11289   */\n      swap3\n      pop\n      swap3\n      swap1\n      pop\n      jump\t// out\n        /* \"#utility.yul\":11295:11624   */\n    tag_42:\n        /* \"#utility.yul\":11354:11360   */\n      0x00\n        /* \"#utility.yul\":11403:11405   */\n      0x20\n        /* \"#utility.yul\":11391:11400   */\n      dup3\n        /* \"#utility.yul\":11382:11389   */\n      dup5\n        /* \"#utility.yul\":11378:11401   */\n      sub\n        /* \"#utility.yul\":11374:11406   */\n      slt\n        /* \"#utility.yul\":11371:11490   */\n      iszero\n      tag_309\n      jumpi\n        /* \"#utility.yul\":11409:11488   */\n      tag_310\n      tag_171\n      jump\t// in\n    tag_310:\n        /* \"#utility.yul\":11371:11490   */\n    tag_309:\n        /* \"#utility.yul\":11529:11530   */\n      0x00\n        /* \"#utility.yul\":11554:11607   */\n      tag_311\n        /* \"#utility.yul\":11599:11606   */\n      dup5\n        /* \"#utility.yul\":11590:11596   */\n      dup3\n        /* \"#utility.yul\":11579:11588   */\n      dup6\n        /* \"#utility.yul\":11575:11597   */\n      add\n        /* \"#utility.yul\":11554:11607   */\n      tag_186\n      jump\t// in\n    tag_311:\n        /* \"#utility.yul\":11544:11607   */\n      swap2\n      pop\n        /* \"#utility.yul\":11500:11617   */\n      pop\n        /* \"#utility.yul\":11295:11624   */\n      swap3\n      swap2\n      pop\n      pop\n      jump\t// out\n        /* \"#utility.yul\":11630:12357   */\n    tag_45:\n        /* \"#utility.yul\":11843:11847   */\n      0x00\n        /* \"#utility.yul\":11881:11884   */\n      0x80\n        /* \"#utility.yul\":11870:11879   */\n      dup3\n        /* \"#utility.yul\":11866:11885   */\n      add\n        /* \"#utility.yul\":11858:11885   */\n      swap1\n      pop\n        /* \"#utility.yul\":11931:11940   */\n      dup2\n        /* \"#utility.yul\":11925:11929   */\n      dup2\n        /* \"#utility.yul\":11921:11941   */\n      sub\n        /* \"#utility.yul\":11917:11918   */\n      0x00\n        /* \"#utility.yul\":11906:11915   */\n      dup4\n        /* \"#utility.yul\":11902:11919   */\n      add\n        /* \"#utility.yul\":11895:11942   */\n      mstore\n        /* \"#utility.yul\":11959:12037   */\n      tag_313\n        /* \"#utility.yul\":12032:12036   */\n      dup2\n        /* \"#utility.yul\":12023:12029   */\n      dup8\n        /* \"#utility.yul\":11959:12037   */\n      tag_154\n      jump\t// in\n    tag_313:\n        /* \"#utility.yul\":11951:12037   */\n      swap1\n      pop\n        /* \"#utility.yul\":12047:12117   */\n      tag_314\n        /* \"#utility.yul\":12113:12115   */\n      0x20\n        /* \"#utility.yul\":12102:12111   */\n      dup4\n        /* \"#utility.yul\":12098:12116   */\n      add\n        /* \"#utility.yul\":12089:12095   */\n      dup7\n        /* \"#utility.yul\":12047:12117   */\n      tag_156\n      jump\t// in\n    tag_314:\n        /* \"#utility.yul\":12164:12173   */\n      dup2\n        /* \"#utility.yul\":12158:12162   */\n      dup2\n        /* \"#utility.yul\":12154:12174   */\n      sub\n        /* \"#utility.yul\":12149:12151   */\n      0x40\n        /* \"#utility.yul\":12138:12147   */\n      dup4\n        /* \"#utility.yul\":12134:12152   */\n      add\n        /* \"#utility.yul\":12127:12175   */\n      mstore\n        /* \"#utility.yul\":12192:12270   */\n      tag_315\n        /* \"#utility.yul\":12265:12269   */\n      dup2\n        /* \"#utility.yul\":12256:12262   */\n      dup6\n        /* \"#utility.yul\":12192:12270   */\n      tag_154\n      jump\t// in\n    tag_315:\n        /* \"#utility.yul\":12184:12270   */\n      swap1\n      pop\n        /* \"#utility.yul\":12280:12350   */\n      tag_316\n        /* \"#utility.yul\":12346:12348   */\n      0x60\n        /* \"#utility.yul\":12335:12344   */\n      dup4\n        /* \"#utility.yul\":12331:12349   */\n      add\n        /* \"#utility.yul\":12322:12328   */\n      dup5\n        /* \"#utility.yul\":12280:12350   */\n      tag_156\n      jump\t// in\n    tag_316:\n        /* \"#utility.yul\":11630:12357   */\n      swap6\n      swap5\n      pop\n      pop\n      pop\n      pop\n      pop\n      jump\t// out\n        /* \"#utility.yul\":12363:12543   */\n    tag_187:\n        /* \"#utility.yul\":12411:12488   */\n      0x4e487b7100000000000000000000000000000000000000000000000000000000\n        /* \"#utility.yul\":12408:12409   */\n      0x00\n        /* \"#utility.yul\":12401:12489   */\n      mstore\n        /* \"#utility.yul\":12508:12512   */\n      0x22\n        /* \"#utility.yul\":12505:12506   */\n      0x04\n        /* \"#utility.yul\":12498:12513   */\n      mstore\n        /* \"#utility.yul\":12532:12536   */\n      0x24\n        /* \"#utility.yul\":12529:12530   */\n      0x00\n        /* \"#utility.yul\":12522:12537   */\n      revert\n        /* \"#utility.yul\":12549:12869   */\n    tag_51:\n        /* \"#utility.yul\":12593:12599   */\n      0x00\n        /* \"#utility.yul\":12630:12631   */\n      0x02\n        /* \"#utility.yul\":12624:12628   */\n      dup3\n        /* \"#utility.yul\":12620:12632   */\n      div\n        /* \"#utility.yul\":12610:12632   */\n      swap1\n      pop\n        /* \"#utility.yul\":12677:12678   */\n      0x01\n        /* \"#utility.yul\":12671:12675   */\n      dup3\n        /* \"#utility.yul\":12667:12679   */\n      and\n        /* \"#utility.yul\":12698:12716   */\n      dup1\n        /* \"#utility.yul\":12688:12769   */\n      tag_319\n      jumpi\n        /* \"#utility.yul\":12754:12758   */\n      0x7f\n        /* \"#utility.yul\":12746:12752   */\n      dup3\n        /* \"#utility.yul\":12742:12759   */\n      and\n        /* \"#utility.yul\":12732:12759   */\n      swap2\n      pop\n        /* \"#utility.yul\":12688:12769   */\n    tag_319:\n        /* \"#utility.yul\":12816:12818   */\n      0x20\n        /* \"#utility.yul\":12808:12814   */\n      dup3\n        /* \"#utility.yul\":12805:12819   */\n      lt\n        /* \"#utility.yul\":12785:12803   */\n      dup2\n        /* \"#utility.yul\":12782:12820   */\n      eq\n        /* \"#utility.yul\":12779:12863   */\n      iszero\n      tag_320\n      jumpi\n        /* \"#utility.yul\":12835:12853   */\n      tag_321\n      tag_187\n      jump\t// in\n    tag_321:\n        /* \"#utility.yul\":12779:12863   */\n    tag_320:\n        /* \"#utility.yul\":12600:12869   */\n      pop\n        /* \"#utility.yul\":12549:12869   */\n      swap2\n      swap1\n      pop\n      jump\t// out\n        /* \"#utility.yul\":12875:13100   */\n    tag_188:\n        /* \"#utility.yul\":13015:13049   */\n      0x4f6e6c792070726f76696465722063616e206163636573732074686973206675\n        /* \"#utility.yul\":13011:13012   */\n      0x00\n        /* \"#utility.yul\":13003:13009   */\n      dup3\n        /* \"#utility.yul\":12999:13013   */\n      add\n        /* \"#utility.yul\":12992:13050   */\n      mstore\n        /* \"#utility.yul\":13084:13092   */\n      0x6e6374696f6e0000000000000000000000000000000000000000000000000000\n        /* \"#utility.yul\":13079:13081   */\n      0x20\n        /* \"#utility.yul\":13071:13077   */\n      dup3\n        /* \"#utility.yul\":13067:13082   */\n      add\n        /* \"#utility.yul\":13060:13093   */\n      mstore\n        /* \"#utility.yul\":12875:13100   */\n      pop\n      jump\t// out\n        /* \"#utility.yul\":13106:13472   */\n    tag_189:\n        /* \"#utility.yul\":13248:13251   */\n      0x00\n        /* \"#utility.yul\":13269:13336   */\n      tag_324\n        /* \"#utility.yul\":13333:13335   */\n      0x26\n        /* \"#utility.yul\":13328:13331   */\n      dup4\n        /* \"#utility.yul\":13269:13336   */\n      tag_151\n      jump\t// in\n    tag_324:\n        /* \"#utility.yul\":13262:13336   */\n      swap2\n      pop\n        /* \"#utility.yul\":13345:13438   */\n      tag_325\n        /* \"#utility.yul\":13434:13437   */\n      dup3\n        /* \"#utility.yul\":13345:13438   */\n      tag_188\n      jump\t// in\n    tag_325:\n        /* \"#utility.yul\":13463:13465   */\n      0x40\n        /* \"#utility.yul\":13458:13461   */\n      dup3\n        /* \"#utility.yul\":13454:13466   */\n      add\n        /* \"#utility.yul\":13447:13466   */\n      swap1\n      pop\n        /* \"#utility.yul\":13106:13472   */\n      swap2\n      swap1\n      pop\n      jump\t// out\n        /* \"#utility.yul\":13478:13897   */\n    tag_73:\n        /* \"#utility.yul\":13644:13648   */\n      0x00\n        /* \"#utility.yul\":13682:13684   */\n      0x20\n        /* \"#utility.yul\":13671:13680   */\n      dup3\n        /* \"#utility.yul\":13667:13685   */\n      add\n        /* \"#utility.yul\":13659:13685   */\n      swap1\n      pop\n        /* \"#utility.yul\":13731:13740   */\n      dup2\n        /* \"#utility.yul\":13725:13729   */\n      dup2\n        /* \"#utility.yul\":13721:13741   */\n      sub\n        /* \"#utility.yul\":13717:13718   */\n      0x00\n        /* \"#utility.yul\":13706:13715   */\n      dup4\n        /* \"#utility.yul\":13702:13719   */\n      add\n        /* \"#utility.yul\":13695:13742   */\n      mstore\n        /* \"#utility.yul\":13759:13890   */\n      tag_327\n        /* \"#utility.yul\":13885:13889   */\n      dup2\n        /* \"#utility.yul\":13759:13890   */\n      tag_189\n      jump\t// in\n    tag_327:\n        /* \"#utility.yul\":13751:13890   */\n      swap1\n      pop\n        /* \"#utility.yul\":13478:13897   */\n      swap2\n      swap1\n      pop\n      jump\t// out\n        /* \"#utility.yul\":13903:14072   */\n    tag_190:\n        /* \"#utility.yul\":14043:14064   */\n      0x496e646578206f7574206f6620626f756e647300000000000000000000000000\n        /* \"#utility.yul\":14039:14040   */\n      0x00\n        /* \"#utility.yul\":14031:14037   */\n      dup3\n        /* \"#utility.yul\":14027:14041   */\n      add\n        /* \"#utility.yul\":14020:14065   */\n      mstore\n        /* \"#utility.yul\":13903:14072   */\n      pop\n      jump\t// out\n        /* \"#utility.yul\":14078:14444   */\n    tag_191:\n        /* \"#utility.yul\":14220:14223   */\n      0x00\n        /* \"#utility.yul\":14241:14308   */\n      tag_330\n        /* \"#utility.yul\":14305:14307   */\n      0x13\n        /* \"#utility.yul\":14300:14303   */\n      dup4\n        /* \"#utility.yul\":14241:14308   */\n      tag_151\n      jump\t// in\n    tag_330:\n        /* \"#utility.yul\":14234:14308   */\n      swap2\n      pop\n        /* \"#utility.yul\":14317:14410   */\n      tag_331\n        /* \"#utility.yul\":14406:14409   */\n      dup3\n        /* \"#utility.yul\":14317:14410   */\n      tag_190\n      jump\t// in\n    tag_331:\n        /* \"#utility.yul\":14435:14437   */\n      0x20\n        /* \"#utility.yul\":14430:14433   */\n      dup3\n        /* \"#utility.yul\":14426:14438   */\n      add\n        /* \"#utility.yul\":14419:14438   */\n      swap1\n      pop\n        /* \"#utility.yul\":14078:14444   */\n      swap2\n      swap1\n      pop\n      jump\t// out\n        /* \"#utility.yul\":14450:14869   */\n    tag_85:\n        /* \"#utility.yul\":14616:14620   */\n      0x00\n        /* \"#utility.yul\":14654:14656   */\n      0x20\n        /* \"#utility.yul\":14643:14652   */\n      dup3\n        /* \"#utility.yul\":14639:14657   */\n      add\n        /* \"#utility.yul\":14631:14657   */\n      swap1\n      pop\n        /* \"#utility.yul\":14703:14712   */\n      dup2\n        /* \"#utility.yul\":14697:14701   */\n      dup2\n        /* \"#utility.yul\":14693:14713   */\n      sub\n        /* \"#utility.yul\":14689:14690   */\n      0x00\n        /* \"#utility.yul\":14678:14687   */\n      dup4\n        /* \"#utility.yul\":14674:14691   */\n      add\n        /* \"#utility.yul\":14667:14714   */\n      mstore\n        /* \"#utility.yul\":14731:14862   */\n      tag_333\n        /* \"#utility.yul\":14857:14861   */\n      dup2\n        /* \"#utility.yul\":14731:14862   */\n      tag_191\n      jump\t// in\n    tag_333:\n        /* \"#utility.yul\":14723:14862   */\n      swap1\n      pop\n        /* \"#utility.yul\":14450:14869   */\n      swap2\n      swap1\n      pop\n      jump\t// out\n        /* \"#utility.yul\":14875:15055   */\n    tag_88:\n        /* \"#utility.yul\":14923:15000   */\n      0x4e487b7100000000000000000000000000000000000000000000000000000000\n        /* \"#utility.yul\":14920:14921   */\n      0x00\n        /* \"#utility.yul\":14913:15001   */\n      mstore\n        /* \"#utility.yul\":15020:15024   */\n      0x32\n        /* \"#utility.yul\":15017:15018   */\n      0x04\n        /* \"#utility.yul\":15010:15025   */\n      mstore\n        /* \"#utility.yul\":15044:15048   */\n      0x24\n        /* \"#utility.yul\":15041:15042   */\n      0x00\n        /* \"#utility.yul\":15034:15049   */\n      revert\n        /* \"#utility.yul\":15061:15241   */\n    tag_192:\n        /* \"#utility.yul\":15109:15186   */\n      0x4e487b7100000000000000000000000000000000000000000000000000000000\n        /* \"#utility.yul\":15106:15107   */\n      0x00\n        /* \"#utility.yul\":15099:15187   */\n      mstore\n        /* \"#utility.yul\":15206:15210   */\n      0x11\n        /* \"#utility.yul\":15203:15204   */\n      0x04\n        /* \"#utility.yul\":15196:15211   */\n      mstore\n        /* \"#utility.yul\":15230:15234   */\n      0x24\n        /* \"#utility.yul\":15227:15228   */\n      0x00\n        /* \"#utility.yul\":15220:15235   */\n      revert\n        /* \"#utility.yul\":15247:15772   */\n    tag_91:\n        /* \"#utility.yul\":15286:15289   */\n      0x00\n        /* \"#utility.yul\":15305:15324   */\n      tag_337\n        /* \"#utility.yul\":15322:15323   */\n      dup3\n        /* \"#utility.yul\":15305:15324   */\n      tag_155\n      jump\t// in\n    tag_337:\n        /* \"#utility.yul\":15300:15324   */\n      swap2\n      pop\n        /* \"#utility.yul\":15338:15357   */\n      tag_338\n        /* \"#utility.yul\":15355:15356   */\n      dup4\n        /* \"#utility.yul\":15338:15357   */\n      tag_155\n      jump\t// in\n    tag_338:\n        /* \"#utility.yul\":15333:15357   */\n      swap3\n      pop\n        /* \"#utility.yul\":15526:15527   */\n      dup2\n        /* \"#utility.yul\":15458:15524   */\n      0x7fffffffffffffffffffffffffffffffffffffffffffffffffffffffffffffff\n        /* \"#utility.yul\":15454:15528   */\n      sub\n        /* \"#utility.yul\":15451:15452   */\n      dup4\n        /* \"#utility.yul\":15447:15529   */\n      sgt\n        /* \"#utility.yul\":15442:15443   */\n      0x00\n        /* \"#utility.yul\":15439:15440   */\n      dup4\n        /* \"#utility.yul\":15435:15444   */\n      slt\n        /* \"#utility.yul\":15428:15445   */\n      iszero\n        /* \"#utility.yul\":15424:15530   */\n      and\n        /* \"#utility.yul\":15421:15553   */\n      iszero\n      tag_339\n      jumpi\n        /* \"#utility.yul\":15533:15551   */\n      tag_340\n      tag_192\n      jump\t// in\n    tag_340:\n        /* \"#utility.yul\":15421:15553   */\n    tag_339:\n        /* \"#utility.yul\":15713:15714   */\n      dup2\n        /* \"#utility.yul\":15645:15711   */\n      0x8000000000000000000000000000000000000000000000000000000000000000\n        /* \"#utility.yul\":15641:15715   */\n      sub\n        /* \"#utility.yul\":15638:15639   */\n      dup4\n        /* \"#utility.yul\":15634:15716   */\n      slt\n        /* \"#utility.yul\":15630:15631   */\n      0x00\n        /* \"#utility.yul\":15627:15628   */\n      dup4\n        /* \"#utility.yul\":15623:15632   */\n      slt\n        /* \"#utility.yul\":15619:15717   */\n      and\n        /* \"#utility.yul\":15616:15740   */\n      iszero\n      tag_341\n      jumpi\n        /* \"#utility.yul\":15720:15738   */\n      tag_342\n      tag_192\n      jump\t// in\n    tag_342:\n        /* \"#utility.yul\":15616:15740   */\n    tag_341:\n        /* \"#utility.yul\":15764:15765   */\n      dup3\n        /* \"#utility.yul\":15761:15762   */\n      dup3\n        /* \"#utility.yul\":15757:15766   */\n      add\n        /* \"#utility.yul\":15750:15766   */\n      swap1\n      pop\n        /* \"#utility.yul\":15247:15772   */\n      swap3\n      swap2\n      pop\n      pop\n      jump\t// out\n        /* \"#utility.yul\":15778:15949   */\n    tag_193:\n        /* \"#utility.yul\":15918:15941   */\n      0x496e73756666696369656e74207175616e746974790000000000000000000000\n        /* \"#utility.yul\":15914:15915   */\n      0x00\n        /* \"#utility.yul\":15906:15912   */\n      dup3\n        /* \"#utility.yul\":15902:15916   */\n      add\n        /* \"#utility.yul\":15895:15942   */\n      mstore\n        /* \"#utility.yul\":15778:15949   */\n      pop\n      jump\t// out\n        /* \"#utility.yul\":15955:16321   */\n    tag_194:\n        /* \"#utility.yul\":16097:16100   */\n      0x00\n        /* \"#utility.yul\":16118:16185   */\n      tag_345\n        /* \"#utility.yul\":16182:16184   */\n      0x15\n        /* \"#utility.yul\":16177:16180   */\n      dup4\n        /* \"#utility.yul\":16118:16185   */\n      tag_151\n      jump\t// in\n    tag_345:\n        /* \"#utility.yul\":16111:16185   */\n      swap2\n      pop\n        /* \"#utility.yul\":16194:16287   */\n      tag_346\n        /* \"#utility.yul\":16283:16286   */\n      dup3\n        /* \"#utility.yul\":16194:16287   */\n      tag_193\n      jump\t// in\n    tag_346:\n        /* \"#utility.yul\":16312:16314   */\n      0x20\n        /* \"#utility.yul\":16307:16310   */\n      dup3\n        /* \"#utility.yul\":16303:16315   */\n      add\n        /* \"#utility.yul\":16296:16315   */\n      swap1\n      pop\n        /* \"#utility.yul\":15955:16321   */\n      swap2\n      swap1\n      pop\n      jump\t// out\n        /* \"#utility.yul\":16327:16746   */\n    tag_100:\n        /* \"#utility.yul\":16493:16497   */\n      0x00\n        /* \"#utility.yul\":16531:16533   */\n      0x20\n        /* \"#utility.yul\":16520:16529   */\n      dup3\n        /* \"#utility.yul\":16516:16534   */\n      add\n        /* \"#utility.yul\":16508:16534   */\n      swap1\n      pop\n        /* \"#utility.yul\":16580:16589   */\n      dup2\n        /* \"#utility.yul\":16574:16578   */\n      dup2\n        /* \"#utility.yul\":16570:16590   */\n      sub\n        /* \"#utility.yul\":16566:16567   */\n      0x00\n        /* \"#utility.yul\":16555:16564   */\n      dup4\n        /* \"#utility.yul\":16551:16568   */\n      add\n        /* \"#utility.yul\":16544:16591   */\n      mstore\n        /* \"#utility.yul\":16608:16739   */\n      tag_348\n        /* \"#utility.yul\":16734:16738   */\n      dup2\n        /* \"#utility.yul\":16608:16739   */\n      tag_194\n      jump\t// in\n    tag_348:\n        /* \"#utility.yul\":16600:16739   */\n      swap1\n      pop\n        /* \"#utility.yul\":16327:16746   */\n      swap2\n      swap1\n      pop\n      jump\t// out\n        /* \"#utility.yul\":16752:17743   */\n    tag_105:\n        /* \"#utility.yul\":16791:16798   */\n      0x00\n        /* \"#utility.yul\":16814:16833   */\n      tag_350\n        /* \"#utility.yul\":16831:16832   */\n      dup3\n        /* \"#utility.yul\":16814:16833   */\n      tag_155\n      jump\t// in\n    tag_350:\n        /* \"#utility.yul\":16809:16833   */\n      swap2\n      pop\n        /* \"#utility.yul\":16847:16866   */\n      tag_351\n        /* \"#utility.yul\":16864:16865   */\n      dup4\n        /* \"#utility.yul\":16847:16866   */\n      tag_155\n      jump\t// in\n    tag_351:\n        /* \"#utility.yul\":16842:16866   */\n      swap3\n      pop\n        /* \"#utility.yul\":17048:17049   */\n      dup3\n        /* \"#utility.yul\":16980:17046   */\n      0x7fffffffffffffffffffffffffffffffffffffffffffffffffffffffffffffff\n        /* \"#utility.yul\":16976:17050   */\n      div\n        /* \"#utility.yul\":16973:16974   */\n      dup3\n        /* \"#utility.yul\":16970:17051   */\n      gt\n        /* \"#utility.yul\":16965:16966   */\n      0x00\n        /* \"#utility.yul\":16962:16963   */\n      dup5\n        /* \"#utility.yul\":16958:16967   */\n      sgt\n        /* \"#utility.yul\":16954:16955   */\n      0x00\n        /* \"#utility.yul\":16951:16952   */\n      dup5\n        /* \"#utility.yul\":16947:16956   */\n      sgt\n        /* \"#utility.yul\":16943:16968   */\n      and\n        /* \"#utility.yul\":16939:17052   */\n      and\n        /* \"#utility.yul\":16936:17075   */\n      iszero\n      tag_352\n      jumpi\n        /* \"#utility.yul\":17055:17073   */\n      tag_353\n      tag_192\n      jump\t// in\n    tag_353:\n        /* \"#utility.yul\":16936:17075   */\n    tag_352:\n        /* \"#utility.yul\":17259:17260   */\n      dup2\n        /* \"#utility.yul\":17191:17257   */\n      0x8000000000000000000000000000000000000000000000000000000000000000\n        /* \"#utility.yul\":17186:17261   */\n      sdiv\n        /* \"#utility.yul\":17183:17184   */\n      dup4\n        /* \"#utility.yul\":17179:17262   */\n      slt\n        /* \"#utility.yul\":17174:17175   */\n      0x00\n        /* \"#utility.yul\":17171:17172   */\n      dup5\n        /* \"#utility.yul\":17167:17176   */\n      slt\n        /* \"#utility.yul\":17163:17164   */\n      0x00\n        /* \"#utility.yul\":17160:17161   */\n      dup5\n        /* \"#utility.yul\":17156:17165   */\n      sgt\n        /* \"#utility.yul\":17152:17177   */\n      and\n        /* \"#utility.yul\":17148:17263   */\n      and\n        /* \"#utility.yul\":17145:17286   */\n      iszero\n      tag_354\n      jumpi\n        /* \"#utility.yul\":17266:17284   */\n      tag_355\n      tag_192\n      jump\t// in\n    tag_355:\n        /* \"#utility.yul\":17145:17286   */\n    tag_354:\n        /* \"#utility.yul\":17470:17471   */\n      dup3\n        /* \"#utility.yul\":17402:17468   */\n      0x8000000000000000000000000000000000000000000000000000000000000000\n        /* \"#utility.yul\":17397:17472   */\n      sdiv\n        /* \"#utility.yul\":17394:17395   */\n      dup3\n        /* \"#utility.yul\":17390:17473   */\n      slt\n        /* \"#utility.yul\":17385:17386   */\n      0x00\n        /* \"#utility.yul\":17382:17383   */\n      dup5\n        /* \"#utility.yul\":17378:17387   */\n      sgt\n        /* \"#utility.yul\":17374:17375   */\n      0x00\n        /* \"#utility.yul\":17371:17372   */\n      dup5\n        /* \"#utility.yul\":17367:17376   */\n      slt\n        /* \"#utility.yul\":17363:17388   */\n      and\n        /* \"#utility.yul\":17359:17474   */\n      and\n        /* \"#utility.yul\":17356:17497   */\n      iszero\n      tag_356\n      jumpi\n        /* \"#utility.yul\":17477:17495   */\n      tag_357\n      tag_192\n      jump\t// in\n    tag_357:\n        /* \"#utility.yul\":17356:17497   */\n    tag_356:\n        /* \"#utility.yul\":17680:17681   */\n      dup3\n        /* \"#utility.yul\":17612:17678   */\n      0x7fffffffffffffffffffffffffffffffffffffffffffffffffffffffffffffff\n        /* \"#utility.yul\":17607:17682   */\n      sdiv\n        /* \"#utility.yul\":17604:17605   */\n      dup3\n        /* \"#utility.yul\":17600:17683   */\n      slt\n        /* \"#utility.yul\":17595:17596   */\n      0x00\n        /* \"#utility.yul\":17592:17593   */\n      dup5\n        /* \"#utility.yul\":17588:17597   */\n      slt\n        /* \"#utility.yul\":17584:17585   */\n      0x00\n        /* \"#utility.yul\":17581:17582   */\n      dup5\n        /* \"#utility.yul\":17577:17586   */\n      slt\n        /* \"#utility.yul\":17573:17598   */\n      and\n        /* \"#utility.yul\":17569:17684   */\n      and\n        /* \"#utility.yul\":17566:17707   */\n      iszero\n      tag_358\n      jumpi\n        /* \"#utility.yul\":17687:17705   */\n      tag_359\n      tag_192\n      jump\t// in\n    tag_359:\n        /* \"#utility.yul\":17566:17707   */\n    tag_358:\n        /* \"#utility.yul\":17735:17736   */\n      dup3\n        /* \"#utility.yul\":17732:17733   */\n      dup3\n        /* \"#utility.yul\":17728:17737   */\n      mul\n        /* \"#utility.yul\":17717:17737   */\n      swap1\n      pop\n        /* \"#utility.yul\":16752:17743   */\n      swap3\n      swap2\n      pop\n      pop\n      jump\t// out\n        /* \"#utility.yul\":17749:18276   */\n    tag_110:\n        /* \"#utility.yul\":17788:17792   */\n      0x00\n        /* \"#utility.yul\":17808:17827   */\n      tag_361\n        /* \"#utility.yul\":17825:17826   */\n      dup3\n        /* \"#utility.yul\":17808:17827   */\n      tag_155\n      jump\t// in\n    tag_361:\n        /* \"#utility.yul\":17803:17827   */\n      swap2\n      pop\n        /* \"#utility.yul\":17841:17860   */\n      tag_362\n        /* \"#utility.yul\":17858:17859   */\n      dup4\n        /* \"#utility.yul\":17841:17860   */\n      tag_155\n      jump\t// in\n    tag_362:\n        /* \"#utility.yul\":17836:17860   */\n      swap3\n      pop\n        /* \"#utility.yul\":18030:18031   */\n      dup3\n        /* \"#utility.yul\":17962:18028   */\n      0x8000000000000000000000000000000000000000000000000000000000000000\n        /* \"#utility.yul\":17958:18032   */\n      add\n        /* \"#utility.yul\":17955:17956   */\n      dup3\n        /* \"#utility.yul\":17951:18033   */\n      slt\n        /* \"#utility.yul\":17946:17947   */\n      0x00\n        /* \"#utility.yul\":17943:17944   */\n      dup5\n        /* \"#utility.yul\":17939:17948   */\n      slt\n        /* \"#utility.yul\":17932:17949   */\n      iszero\n        /* \"#utility.yul\":17928:18034   */\n      and\n        /* \"#utility.yul\":17925:18057   */\n      iszero\n      tag_363\n      jumpi\n        /* \"#utility.yul\":18037:18055   */\n      tag_364\n      tag_192\n      jump\t// in\n    tag_364:\n        /* \"#utility.yul\":17925:18057   */\n    tag_363:\n        /* \"#utility.yul\":18216:18217   */\n      dup3\n        /* \"#utility.yul\":18148:18214   */\n      0x7fffffffffffffffffffffffffffffffffffffffffffffffffffffffffffffff\n        /* \"#utility.yul\":18144:18218   */\n      add\n        /* \"#utility.yul\":18141:18142   */\n      dup3\n        /* \"#utility.yul\":18137:18219   */\n      sgt\n        /* \"#utility.yul\":18133:18134   */\n      0x00\n        /* \"#utility.yul\":18130:18131   */\n      dup5\n        /* \"#utility.yul\":18126:18135   */\n      slt\n        /* \"#utility.yul\":18122:18220   */\n      and\n        /* \"#utility.yul\":18119:18243   */\n      iszero\n      tag_365\n      jumpi\n        /* \"#utility.yul\":18223:18241   */\n      tag_366\n      tag_192\n      jump\t// in\n    tag_366:\n        /* \"#utility.yul\":18119:18243   */\n    tag_365:\n        /* \"#utility.yul\":18268:18269   */\n      dup3\n        /* \"#utility.yul\":18265:18266   */\n      dup3\n        /* \"#utility.yul\":18261:18270   */\n      sub\n        /* \"#utility.yul\":18253:18270   */\n      swap1\n      pop\n        /* \"#utility.yul\":17749:18276   */\n      swap3\n      swap2\n      pop\n      pop\n      jump\t// out\n\n    auxdata: 0xa2646970667358221220920c980f157780d182eb7172c9e9e5c1bba4f97d054d854d2869aaf4208387fb64736f6c63430008090033\n}\n",
        "bytecode": {
            "linkReferences": {},
            "object": "60806040523480156200001157600080fd5b50604051620019ae380380620019ae8339818101604052810190620000379190620002e4565b336000806101000a81548173ffffffffffffffffffffffffffffffffffffffff021916908373ffffffffffffffffffffffffffffffffffffffff16021790555080600190805190602001906200008f92919062000097565b50506200039a565b828054620000a59062000364565b90600052602060002090601f016020900481019282620000c9576000855562000115565b82601f10620000e457805160ff191683800117855562000115565b8280016001018555821562000115579182015b8281111562000114578251825591602001919060010190620000f7565b5b50905062000124919062000128565b5090565b5b808211156200014357600081600090555060010162000129565b5090565b6000604051905090565b600080fd5b600080fd5b600080fd5b600080fd5b6000601f19601f8301169050919050565b7f4e487b7100000000000000000000000000000000000000000000000000000000600052604160045260246000fd5b620001b08262000165565b810181811067ffffffffffffffff82111715620001d257620001d162000176565b5b80604052505050565b6000620001e762000147565b9050620001f58282620001a5565b919050565b600067ffffffffffffffff82111562000218576200021762000176565b5b620002238262000165565b9050602081019050919050565b60005b838110156200025057808201518184015260208101905062000233565b8381111562000260576000848401525b50505050565b60006200027d6200027784620001fa565b620001db565b9050828152602081018484840111156200029c576200029b62000160565b5b620002a984828562000230565b509392505050565b600082601f830112620002c957620002c86200015b565b5b8151620002db84826020860162000266565b91505092915050565b600060208284031215620002fd57620002fc62000151565b5b600082015167ffffffffffffffff8111156200031e576200031d62000156565b5b6200032c84828501620002b1565b91505092915050565b7f4e487b7100000000000000000000000000000000000000000000000000000000600052602260045260246000fd5b600060028204905060018216806200037d57607f821691505b6020821081141562000394576200039362000335565b5b50919050565b61160480620003aa6000396000f3fe608060405234801561001057600080fd5b50600436106100925760003560e01c8063b46861a011610066578063b46861a01461010f578063b90a9ad51461012b578063dccb816d14610147578063e0d4ea3714610163578063f0503e801461019657610092565b8062dad7d4146100975780636605ff66146100b5578063706e5257146100d3578063a25b0561146100f1575b600080fd5b61009f6101c9565b6040516100ac9190610c03565b60405180910390f35b6100bd610257565b6040516100ca9190610c3e565b60405180910390f35b6100db61025d565b6040516100e89190610c9a565b60405180910390f35b6100f9610281565b6040516101069190610e3a565b60405180910390f35b61012960048036038101906101249190610fd1565b610418565b005b610145600480360381019061014091906110a6565b610548565b005b610161600480360381019061015c91906110a6565b61065d565b005b61017d600480360381019061017891906110e6565b61079b565b60405161018d9493929190611113565b60405180910390f35b6101b060048036038101906101ab91906110e6565b610977565b6040516101c09493929190611113565b60405180910390f35b600180546101d690611195565b80601f016020809104026020016040519081016040528092919081815260200182805461020290611195565b801561024f5780601f106102245761010080835404028352916020019161024f565b820191906000526020600020905b81548152906001019060200180831161023257829003601f168201915b505050505081565b60035481565b60008054906101000a900473ffffffffffffffffffffffffffffffffffffffff1681565b60606002805480602002602001604051908101604052809291908181526020016000905b8282101561040f57838290600052602060002090600402016040518060800160405290816000820180546102d890611195565b80601f016020809104026020016040519081016040528092919081815260200182805461030490611195565b80156103515780601f1061032657610100808354040283529160200191610351565b820191906000526020600020905b81548152906001019060200180831161033457829003601f168201915b505050505081526020016001820154815260200160028201805461037490611195565b80601f01602080910402602001604051908101604052809291908181526020018280546103a090611195565b80156103ed5780601f106103c2576101008083540402835291602001916103ed565b820191906000526020600020905b8154815290600101906020018083116103d057829003601f168201915b50505050508152602001600382015481525050815260200190600101906102a5565b50505050905090565b60008054906101000a900473ffffffffffffffffffffffffffffffffffffffff1673ffffffffffffffffffffffffffffffffffffffff163373ffffffffffffffffffffffffffffffffffffffff16146104a6576040517f08c379a000000000000000000000000000000000000000000000000000000000815260040161049d90611239565b60405180910390fd5b60026040518060800160405280868152602001848152602001858152602001838152509080600181540180825580915050600190039060005260206000209060040201600090919091909150600082015181600001908051906020019061050e929190610ac7565b50602082015181600101556040820151816002019080519060200190610535929190610ac7565b5060608201518160030155505050505050565b60008054906101000a900473ffffffffffffffffffffffffffffffffffffffff1673ffffffffffffffffffffffffffffffffffffffff163373ffffffffffffffffffffffffffffffffffffffff16146105d6576040517f08c379a00000000000000000000000000000000000000000000000000000000081526004016105cd90611239565b60405180910390fd5b600280549050821061061d576040517f08c379a0000000000000000000000000000000000000000000000000000000008152600401610614906112a5565b60405180910390fd5b8060028381548110610632576106316112c5565b5b906000526020600020906004020160030160008282546106529190611323565b925050819055505050565b60028054905082106106a4576040517f08c379a000000000000000000000000000000000000000000000000000000000815260040161069b906112a5565b60405180910390fd5b600282815481106106b8576106b76112c5565b5b90600052602060002090600402016003015481131561070c576040517f08c379a000000000000000000000000000000000000000000000000000000000815260040161070390611403565b60405180910390fd5b60008160028481548110610723576107226112c5565b5b90600052602060002090600402016001015461073f9190611423565b90508160028481548110610756576107556112c5565b5b90600052602060002090600402016003016000828254610776919061153a565b92505081905550806003600082825461078f9190611323565b92505081905550505050565b606060006060600060028054905085106107ea576040517f08c379a00000000000000000000000000000000000000000000000000000000081526004016107e1906112a5565b60405180910390fd5b600060028681548110610800576107ff6112c5565b5b906000526020600020906004020160405180608001604052908160008201805461082990611195565b80601f016020809104026020016040519081016040528092919081815260200182805461085590611195565b80156108a25780601f10610877576101008083540402835291602001916108a2565b820191906000526020600020905b81548152906001019060200180831161088557829003601f168201915b50505050508152602001600182015481526020016002820180546108c590611195565b80601f01602080910402602001604051908101604052809291908181526020018280546108f190611195565b801561093e5780601f106109135761010080835404028352916020019161093e565b820191906000526020600020905b81548152906001019060200180831161092157829003601f168201915b50505050508152602001600382015481525050905080600001518160200151826040015183606001519450945094509450509193509193565b6002818154811061098757600080fd5b90600052602060002090600402016000915090508060000180546109aa90611195565b80601f01602080910402602001604051908101604052809291908181526020018280546109d690611195565b8015610a235780601f106109f857610100808354040283529160200191610a23565b820191906000526020600020905b815481529060010190602001808311610a0657829003601f168201915b505050505090806001015490806002018054610a3e90611195565b80601f0160208091040260200160405190810160405280929190818152602001828054610a6a90611195565b8015610ab75780601f10610a8c57610100808354040283529160200191610ab7565b820191906000526020600020905b815481529060010190602001808311610a9a57829003601f168201915b5050505050908060030154905084565b828054610ad390611195565b90600052602060002090601f016020900481019282610af55760008555610b3c565b82601f10610b0e57805160ff1916838001178555610b3c565b82800160010185558215610b3c579182015b82811115610b3b578251825591602001919060010190610b20565b5b509050610b499190610b4d565b5090565b5b80821115610b66576000816000905550600101610b4e565b5090565b600081519050919050565b600082825260208201905092915050565b60005b83811015610ba4578082015181840152602081019050610b89565b83811115610bb3576000848401525b50505050565b6000601f19601f8301169050919050565b6000610bd582610b6a565b610bdf8185610b75565b9350610bef818560208601610b86565b610bf881610bb9565b840191505092915050565b60006020820190508181036000830152610c1d8184610bca565b905092915050565b6000819050919050565b610c3881610c25565b82525050565b6000602082019050610c536000830184610c2f565b92915050565b600073ffffffffffffffffffffffffffffffffffffffff82169050919050565b6000610c8482610c59565b9050919050565b610c9481610c79565b82525050565b6000602082019050610caf6000830184610c8b565b92915050565b600081519050919050565b600082825260208201905092915050565b6000819050602082019050919050565b600082825260208201905092915050565b6000610cfd82610b6a565b610d078185610ce1565b9350610d17818560208601610b86565b610d2081610bb9565b840191505092915050565b610d3481610c25565b82525050565b60006080830160008301518482036000860152610d578282610cf2565b9150506020830151610d6c6020860182610d2b565b5060408301518482036040860152610d848282610cf2565b9150506060830151610d996060860182610d2b565b508091505092915050565b6000610db08383610d3a565b905092915050565b6000602082019050919050565b6000610dd082610cb5565b610dda8185610cc0565b935083602082028501610dec85610cd1565b8060005b85811015610e285784840389528151610e098582610da4565b9450610e1483610db8565b925060208a01995050600181019050610df0565b50829750879550505050505092915050565b60006020820190508181036000830152610e548184610dc5565b905092915050565b6000604051905090565b600080fd5b600080fd5b600080fd5b600080fd5b7f4e487b7100000000000000000000000000000000000000000000000000000000600052604160045260246000fd5b610eb282610bb9565b810181811067ffffffffffffffff82111715610ed157610ed0610e7a565b5b80604052505050565b6000610ee4610e5c565b9050610ef08282610ea9565b919050565b600067ffffffffffffffff821115610f1057610f0f610e7a565b5b610f1982610bb9565b9050602081019050919050565b82818337600083830152505050565b6000610f48610f4384610ef5565b610eda565b905082815260208101848484011115610f6457610f63610e75565b5b610f6f848285610f26565b509392505050565b600082601f830112610f8c57610f8b610e70565b5b8135610f9c848260208601610f35565b91505092915050565b610fae81610c25565b8114610fb957600080fd5b50565b600081359050610fcb81610fa5565b92915050565b60008060008060808587031215610feb57610fea610e66565b5b600085013567ffffffffffffffff81111561100957611008610e6b565b5b61101587828801610f77565b945050602085013567ffffffffffffffff81111561103657611035610e6b565b5b61104287828801610f77565b935050604061105387828801610fbc565b925050606061106487828801610fbc565b91505092959194509250565b6000819050919050565b61108381611070565b811461108e57600080fd5b50565b6000813590506110a08161107a565b92915050565b600080604083850312156110bd576110bc610e66565b5b60006110cb85828601611091565b92505060206110dc85828601610fbc565b9150509250929050565b6000602082840312156110fc576110fb610e66565b5b600061110a84828501611091565b91505092915050565b6000608082019050818103600083015261112d8187610bca565b905061113c6020830186610c2f565b818103604083015261114e8185610bca565b905061115d6060830184610c2f565b95945050505050565b7f4e487b7100000000000000000000000000000000000000000000000000000000600052602260045260246000fd5b600060028204905060018216806111ad57607f821691505b602082108114156111c1576111c0611166565b5b50919050565b7f4f6e6c792070726f76696465722063616e20616363657373207468697320667560008201527f6e6374696f6e0000000000000000000000000000000000000000000000000000602082015250565b6000611223602683610b75565b915061122e826111c7565b604082019050919050565b6000602082019050818103600083015261125281611216565b9050919050565b7f496e646578206f7574206f6620626f756e647300000000000000000000000000600082015250565b600061128f601383610b75565b915061129a82611259565b602082019050919050565b600060208201905081810360008301526112be81611282565b9050919050565b7f4e487b7100000000000000000000000000000000000000000000000000000000600052603260045260246000fd5b7f4e487b7100000000000000000000000000000000000000000000000000000000600052601160045260246000fd5b600061132e82610c25565b915061133983610c25565b9250817f7fffffffffffffffffffffffffffffffffffffffffffffffffffffffffffffff03831360008312151615611374576113736112f4565b5b817f80000000000000000000000000000000000000000000000000000000000000000383126000831216156113ac576113ab6112f4565b5b828201905092915050565b7f496e73756666696369656e74207175616e746974790000000000000000000000600082015250565b60006113ed601583610b75565b91506113f8826113b7565b602082019050919050565b6000602082019050818103600083015261141c816113e0565b9050919050565b600061142e82610c25565b915061143983610c25565b9250827f7fffffffffffffffffffffffffffffffffffffffffffffffffffffffffffffff0482116000841360008413161615611478576114776112f4565b5b817f800000000000000000000000000000000000000000000000000000000000000005831260008412600084131616156114b5576114b46112f4565b5b827f800000000000000000000000000000000000000000000000000000000000000005821260008413600084121616156114f2576114f16112f4565b5b827f7fffffffffffffffffffffffffffffffffffffffffffffffffffffffffffffff058212600084126000841216161561152f5761152e6112f4565b5b828202905092915050565b600061154582610c25565b915061155083610c25565b9250827f80000000000000000000000000000000000000000000000000000000000000000182126000841215161561158b5761158a6112f4565b5b827f7fffffffffffffffffffffffffffffffffffffffffffffffffffffffffffffff0182136000841216156115c3576115c26112f4565b5b82820390509291505056fea2646970667358221220920c980f157780d182eb7172c9e9e5c1bba4f97d054d854d2869aaf4208387fb64736f6c63430008090033",
            "opcodes": "PUSH1 0x80 PUSH1 0x40 MSTORE CALLVALUE DUP1 ISZERO PUSH3 0x11 JUMPI PUSH1 0x0 DUP1 REVERT JUMPDEST POP PUSH1 0x40 MLOAD PUSH3 0x19AE CODESIZE SUB DUP1 PUSH3 0x19AE DUP4 CODECOPY DUP2 DUP2 ADD PUSH1 0x40 MSTORE DUP2 ADD SWAP1 PUSH3 0x37 SWAP2 SWAP1 PUSH3 0x2E4 JUMP JUMPDEST CALLER PUSH1 0x0 DUP1 PUSH2 0x100 EXP DUP2 SLOAD DUP2 PUSH20 0xFFFFFFFFFFFFFFFFFFFFFFFFFFFFFFFFFFFFFFFF MUL NOT AND SWAP1 DUP4 PUSH20 0xFFFFFFFFFFFFFFFFFFFFFFFFFFFFFFFFFFFFFFFF AND MUL OR SWAP1 SSTORE POP DUP1 PUSH1 0x1 SWAP1 DUP1 MLOAD SWAP1 PUSH1 0x20 ADD SWAP1 PUSH3 0x8F SWAP3 SWAP2 SWAP1 PUSH3 0x97 JUMP JUMPDEST POP POP PUSH3 0x39A JUMP JUMPDEST DUP3 DUP1 SLOAD PUSH3 0xA5 SWAP1 PUSH3 0x364 JUMP JUMPDEST SWAP1 PUSH1 0x0 MSTORE PUSH1 0x20 PUSH1 0x0 KECCAK256 SWAP1 PUSH1 0x1F ADD PUSH1 0x20 SWAP1 DIV DUP2 ADD SWAP3 DUP3 PUSH3 0xC9 JUMPI PUSH1 0x0 DUP6 SSTORE PUSH3 0x115 JUMP JUMPDEST DUP3 PUSH1 0x1F LT PUSH3 0xE4 JUMPI DUP1 MLOAD PUSH1 0xFF NOT AND DUP4 DUP1 ADD OR DUP6 SSTORE PUSH3 0x115 JUMP JUMPDEST DUP3 DUP1 ADD PUSH1 0x1 ADD DUP6 SSTORE DUP3 ISZERO PUSH3 0x115 JUMPI SWAP2 DUP3 ADD JUMPDEST DUP3 DUP2 GT ISZERO PUSH3 0x114 JUMPI DUP3 MLOAD DUP3 SSTORE SWAP2 PUSH1 0x20 ADD SWAP2 SWAP1 PUSH1 0x1 ADD SWAP1 PUSH3 0xF7 JUMP JUMPDEST JUMPDEST POP SWAP1 POP PUSH3 0x124 SWAP2 SWAP1 PUSH3 0x128 JUMP JUMPDEST POP SWAP1 JUMP JUMPDEST JUMPDEST DUP1 DUP3 GT ISZERO PUSH3 0x143 JUMPI PUSH1 0x0 DUP2 PUSH1 0x0 SWAP1 SSTORE POP PUSH1 0x1 ADD PUSH3 0x129 JUMP JUMPDEST POP SWAP1 JUMP JUMPDEST PUSH1 0x0 PUSH1 0x40 MLOAD SWAP1 POP SWAP1 JUMP JUMPDEST PUSH1 0x0 DUP1 REVERT JUMPDEST PUSH1 0x0 DUP1 REVERT JUMPDEST PUSH1 0x0 DUP1 REVERT JUMPDEST PUSH1 0x0 DUP1 REVERT JUMPDEST PUSH1 0x0 PUSH1 0x1F NOT PUSH1 0x1F DUP4 ADD AND SWAP1 POP SWAP2 SWAP1 POP JUMP JUMPDEST PUSH32 0x4E487B7100000000000000000000000000000000000000000000000000000000 PUSH1 0x0 MSTORE PUSH1 0x41 PUSH1 0x4 MSTORE PUSH1 0x24 PUSH1 0x0 REVERT JUMPDEST PUSH3 0x1B0 DUP3 PUSH3 0x165 JUMP JUMPDEST DUP2 ADD DUP2 DUP2 LT PUSH8 0xFFFFFFFFFFFFFFFF DUP3 GT OR ISZERO PUSH3 0x1D2 JUMPI PUSH3 0x1D1 PUSH3 0x176 JUMP JUMPDEST JUMPDEST DUP1 PUSH1 0x40 MSTORE POP POP POP JUMP JUMPDEST PUSH1 0x0 PUSH3 0x1E7 PUSH3 0x147 JUMP JUMPDEST SWAP1 POP PUSH3 0x1F5 DUP3 DUP3 PUSH3 0x1A5 JUMP JUMPDEST SWAP2 SWAP1 POP JUMP JUMPDEST PUSH1 0x0 PUSH8 0xFFFFFFFFFFFFFFFF DUP3 GT ISZERO PUSH3 0x218 JUMPI PUSH3 0x217 PUSH3 0x176 JUMP JUMPDEST JUMPDEST PUSH3 0x223 DUP3 PUSH3 0x165 JUMP JUMPDEST SWAP1 POP PUSH1 0x20 DUP2 ADD SWAP1 POP SWAP2 SWAP1 POP JUMP JUMPDEST PUSH1 0x0 JUMPDEST DUP4 DUP2 LT ISZERO PUSH3 0x250 JUMPI DUP1 DUP3 ADD MLOAD DUP2 DUP5 ADD MSTORE PUSH1 0x20 DUP2 ADD SWAP1 POP PUSH3 0x233 JUMP JUMPDEST DUP4 DUP2 GT ISZERO PUSH3 0x260 JUMPI PUSH1 0x0 DUP5 DUP5 ADD MSTORE JUMPDEST POP POP POP POP JUMP JUMPDEST PUSH1 0x0 PUSH3 0x27D PUSH3 0x277 DUP5 PUSH3 0x1FA JUMP JUMPDEST PUSH3 0x1DB JUMP JUMPDEST SWAP1 POP DUP3 DUP2 MSTORE PUSH1 0x20 DUP2 ADD DUP5 DUP5 DUP5 ADD GT ISZERO PUSH3 0x29C JUMPI PUSH3 0x29B PUSH3 0x160 JUMP JUMPDEST JUMPDEST PUSH3 0x2A9 DUP5 DUP3 DUP6 PUSH3 0x230 JUMP JUMPDEST POP SWAP4 SWAP3 POP POP POP JUMP JUMPDEST PUSH1 0x0 DUP3 PUSH1 0x1F DUP4 ADD SLT PUSH3 0x2C9 JUMPI PUSH3 0x2C8 PUSH3 0x15B JUMP JUMPDEST JUMPDEST DUP2 MLOAD PUSH3 0x2DB DUP5 DUP3 PUSH1 0x20 DUP7 ADD PUSH3 0x266 JUMP JUMPDEST SWAP2 POP POP SWAP3 SWAP2 POP POP JUMP JUMPDEST PUSH1 0x0 PUSH1 0x20 DUP3 DUP5 SUB SLT ISZERO PUSH3 0x2FD JUMPI PUSH3 0x2FC PUSH3 0x151 JUMP JUMPDEST JUMPDEST PUSH1 0x0 DUP3 ADD MLOAD PUSH8 0xFFFFFFFFFFFFFFFF DUP2 GT ISZERO PUSH3 0x31E JUMPI PUSH3 0x31D PUSH3 0x156 JUMP JUMPDEST JUMPDEST PUSH3 0x32C DUP5 DUP3 DUP6 ADD PUSH3 0x2B1 JUMP JUMPDEST SWAP2 POP POP SWAP3 SWAP2 POP POP JUMP JUMPDEST PUSH32 0x4E487B7100000000000000000000000000000000000000000000000000000000 PUSH1 0x0 MSTORE PUSH1 0x22 PUSH1 0x4 MSTORE PUSH1 0x24 PUSH1 0x0 REVERT JUMPDEST PUSH1 0x0 PUSH1 0x2 DUP3 DIV SWAP1 POP PUSH1 0x1 DUP3 AND DUP1 PUSH3 0x37D JUMPI PUSH1 0x7F DUP3 AND SWAP2 POP JUMPDEST PUSH1 0x20 DUP3 LT DUP2 EQ ISZERO PUSH3 0x394 JUMPI PUSH3 0x393 PUSH3 0x335 JUMP JUMPDEST JUMPDEST POP SWAP2 SWAP1 POP JUMP JUMPDEST PUSH2 0x1604 DUP1 PUSH3 0x3AA PUSH1 0x0 CODECOPY PUSH1 0x0 RETURN INVALID PUSH1 0x80 PUSH1 0x40 MSTORE CALLVALUE DUP1 ISZERO PUSH2 0x10 JUMPI PUSH1 0x0 DUP1 REVERT JUMPDEST POP PUSH1 0x4 CALLDATASIZE LT PUSH2 0x92 JUMPI PUSH1 0x0 CALLDATALOAD PUSH1 0xE0 SHR DUP1 PUSH4 0xB46861A0 GT PUSH2 0x66 JUMPI DUP1 PUSH4 0xB46861A0 EQ PUSH2 0x10F JUMPI DUP1 PUSH4 0xB90A9AD5 EQ PUSH2 0x12B JUMPI DUP1 PUSH4 0xDCCB816D EQ PUSH2 0x147 JUMPI DUP1 PUSH4 0xE0D4EA37 EQ PUSH2 0x163 JUMPI DUP1 PUSH4 0xF0503E80 EQ PUSH2 0x196 JUMPI PUSH2 0x92 JUMP JUMPDEST DUP1 PUSH3 0xDAD7D4 EQ PUSH2 0x97 JUMPI DUP1 PUSH4 0x6605FF66 EQ PUSH2 0xB5 JUMPI DUP1 PUSH4 0x706E5257 EQ PUSH2 0xD3 JUMPI DUP1 PUSH4 0xA25B0561 EQ PUSH2 0xF1 JUMPI JUMPDEST PUSH1 0x0 DUP1 REVERT JUMPDEST PUSH2 0x9F PUSH2 0x1C9 JUMP JUMPDEST PUSH1 0x40 MLOAD PUSH2 0xAC SWAP2 SWAP1 PUSH2 0xC03 JUMP JUMPDEST PUSH1 0x40 MLOAD DUP1 SWAP2 SUB SWAP1 RETURN JUMPDEST PUSH2 0xBD PUSH2 0x257 JUMP JUMPDEST PUSH1 0x40 MLOAD PUSH2 0xCA SWAP2 SWAP1 PUSH2 0xC3E JUMP JUMPDEST PUSH1 0x40 MLOAD DUP1 SWAP2 SUB SWAP1 RETURN JUMPDEST PUSH2 0xDB PUSH2 0x25D JUMP JUMPDEST PUSH1 0x40 MLOAD PUSH2 0xE8 SWAP2 SWAP1 PUSH2 0xC9A JUMP JUMPDEST PUSH1 0x40 MLOAD DUP1 SWAP2 SUB SWAP1 RETURN JUMPDEST PUSH2 0xF9 PUSH2 0x281 JUMP JUMPDEST PUSH1 0x40 MLOAD PUSH2 0x106 SWAP2 SWAP1 PUSH2 0xE3A JUMP JUMPDEST PUSH1 0x40 MLOAD DUP1 SWAP2 SUB SWAP1 RETURN JUMPDEST PUSH2 0x129 PUSH1 0x4 DUP1 CALLDATASIZE SUB DUP2 ADD SWAP1 PUSH2 0x124 SWAP2 SWAP1 PUSH2 0xFD1 JUMP JUMPDEST PUSH2 0x418 JUMP JUMPDEST STOP JUMPDEST PUSH2 0x145 PUSH1 0x4 DUP1 CALLDATASIZE SUB DUP2 ADD SWAP1 PUSH2 0x140 SWAP2 SWAP1 PUSH2 0x10A6 JUMP JUMPDEST PUSH2 0x548 JUMP JUMPDEST STOP JUMPDEST PUSH2 0x161 PUSH1 0x4 DUP1 CALLDATASIZE SUB DUP2 ADD SWAP1 PUSH2 0x15C SWAP2 SWAP1 PUSH2 0x10A6 JUMP JUMPDEST PUSH2 0x65D JUMP JUMPDEST STOP JUMPDEST PUSH2 0x17D PUSH1 0x4 DUP1 CALLDATASIZE SUB DUP2 ADD SWAP1 PUSH2 0x178 SWAP2 SWAP1 PUSH2 0x10E6 JUMP JUMPDEST PUSH2 0x79B JUMP JUMPDEST PUSH1 0x40 MLOAD PUSH2 0x18D SWAP5 SWAP4 SWAP3 SWAP2 SWAP1 PUSH2 0x1113 JUMP JUMPDEST PUSH1 0x40 MLOAD DUP1 SWAP2 SUB SWAP1 RETURN JUMPDEST PUSH2 0x1B0 PUSH1 0x4 DUP1 CALLDATASIZE SUB DUP2 ADD SWAP1 PUSH2 0x1AB SWAP2 SWAP1 PUSH2 0x10E6 JUMP JUMPDEST PUSH2 0x977 JUMP JUMPDEST PUSH1 0x40 MLOAD PUSH2 0x1C0 SWAP5 SWAP4 SWAP3 SWAP2 SWAP1 PUSH2 0x1113 JUMP JUMPDEST PUSH1 0x40 MLOAD DUP1 SWAP2 SUB SWAP1 RETURN JUMPDEST PUSH1 0x1 DUP1 SLOAD PUSH2 0x1D6 SWAP1 PUSH2 0x1195 JUMP JUMPDEST DUP1 PUSH1 0x1F ADD PUSH1 0x20 DUP1 SWAP2 DIV MUL PUSH1 0x20 ADD PUSH1 0x40 MLOAD SWAP1 DUP2 ADD PUSH1 0x40 MSTORE DUP1 SWAP3 SWAP2 SWAP1 DUP2 DUP2 MSTORE PUSH1 0x20 ADD DUP3 DUP1 SLOAD PUSH2 0x202 SWAP1 PUSH2 0x1195 JUMP JUMPDEST DUP1 ISZERO PUSH2 0x24F JUMPI DUP1 PUSH1 0x1F LT PUSH2 0x224 JUMPI PUSH2 0x100 DUP1 DUP4 SLOAD DIV MUL DUP4 MSTORE SWAP2 PUSH1 0x20 ADD SWAP2 PUSH2 0x24F JUMP JUMPDEST DUP3 ADD SWAP2 SWAP1 PUSH1 0x0 MSTORE PUSH1 0x20 PUSH1 0x0 KECCAK256 SWAP1 JUMPDEST DUP2 SLOAD DUP2 MSTORE SWAP1 PUSH1 0x1 ADD SWAP1 PUSH1 0x20 ADD DUP1 DUP4 GT PUSH2 0x232 JUMPI DUP3 SWAP1 SUB PUSH1 0x1F AND DUP3 ADD SWAP2 JUMPDEST POP POP POP POP POP DUP2 JUMP JUMPDEST PUSH1 0x3 SLOAD DUP2 JUMP JUMPDEST PUSH1 0x0 DUP1 SLOAD SWAP1 PUSH2 0x100 EXP SWAP1 DIV PUSH20 0xFFFFFFFFFFFFFFFFFFFFFFFFFFFFFFFFFFFFFFFF AND DUP2 JUMP JUMPDEST PUSH1 0x60 PUSH1 0x2 DUP1 SLOAD DUP1 PUSH1 0x20 MUL PUSH1 0x20 ADD PUSH1 0x40 MLOAD SWAP1 DUP2 ADD PUSH1 0x40 MSTORE DUP1 SWAP3 SWAP2 SWAP1 DUP2 DUP2 MSTORE PUSH1 0x20 ADD PUSH1 0x0 SWAP1 JUMPDEST DUP3 DUP3 LT ISZERO PUSH2 0x40F JUMPI DUP4 DUP3 SWAP1 PUSH1 0x0 MSTORE PUSH1 0x20 PUSH1 0x0 KECCAK256 SWAP1 PUSH1 0x4 MUL ADD PUSH1 0x40 MLOAD DUP1 PUSH1 0x80 ADD PUSH1 0x40 MSTORE SWAP1 DUP2 PUSH1 0x0 DUP3 ADD DUP1 SLOAD PUSH2 0x2D8 SWAP1 PUSH2 0x1195 JUMP JUMPDEST DUP1 PUSH1 0x1F ADD PUSH1 0x20 DUP1 SWAP2 DIV MUL PUSH1 0x20 ADD PUSH1 0x40 MLOAD SWAP1 DUP2 ADD PUSH1 0x40 MSTORE DUP1 SWAP3 SWAP2 SWAP1 DUP2 DUP2 MSTORE PUSH1 0x20 ADD DUP3 DUP1 SLOAD PUSH2 0x304 SWAP1 PUSH2 0x1195 JUMP JUMPDEST DUP1 ISZERO PUSH2 0x351 JUMPI DUP1 PUSH1 0x1F LT PUSH2 0x326 JUMPI PUSH2 0x100 DUP1 DUP4 SLOAD DIV MUL DUP4 MSTORE SWAP2 PUSH1 0x20 ADD SWAP2 PUSH2 0x351 JUMP JUMPDEST DUP3 ADD SWAP2 SWAP1 PUSH1 0x0 MSTORE PUSH1 0x20 PUSH1 0x0 KECCAK256 SWAP1 JUMPDEST DUP2 SLOAD DUP2 MSTORE SWAP1 PUSH1 0x1 ADD SWAP1 PUSH1 0x20 ADD DUP1 DUP4 GT PUSH2 0x334 JUMPI DUP3 SWAP1 SUB PUSH1 0x1F AND DUP3 ADD SWAP2 JUMPDEST POP POP POP POP POP DUP2 MSTORE PUSH1 0x20 ADD PUSH1 0x1 DUP3 ADD SLOAD DUP2 MSTORE PUSH1 0x20 ADD PUSH1 0x2 DUP3 ADD DUP1 SLOAD PUSH2 0x374 SWAP1 PUSH2 0x1195 JUMP JUMPDEST DUP1 PUSH1 0x1F ADD PUSH1 0x20 DUP1 SWAP2 DIV MUL PUSH1 0x20 ADD PUSH1 0x40 MLOAD SWAP1 DUP2 ADD PUSH1 0x40 MSTORE DUP1 SWAP3 SWAP2 SWAP1 DUP2 DUP2 MSTORE PUSH1 0x20 ADD DUP3 DUP1 SLOAD PUSH2 0x3A0 SWAP1 PUSH2 0x1195 JUMP JUMPDEST DUP1 ISZERO PUSH2 0x3ED JUMPI DUP1 PUSH1 0x1F LT PUSH2 0x3C2 JUMPI PUSH2 0x100 DUP1 DUP4 SLOAD DIV MUL DUP4 MSTORE SWAP2 PUSH1 0x20 ADD SWAP2 PUSH2 0x3ED JUMP JUMPDEST DUP3 ADD SWAP2 SWAP1 PUSH1 0x0 MSTORE PUSH1 0x20 PUSH1 0x0 KECCAK256 SWAP1 JUMPDEST DUP2 SLOAD DUP2 MSTORE SWAP1 PUSH1 0x1 ADD SWAP1 PUSH1 0x20 ADD DUP1 DUP4 GT PUSH2 0x3D0 JUMPI DUP3 SWAP1 SUB PUSH1 0x1F AND DUP3 ADD SWAP2 JUMPDEST POP POP POP POP POP DUP2 MSTORE PUSH1 0x20 ADD PUSH1 0x3 DUP3 ADD SLOAD DUP2 MSTORE POP POP DUP2 MSTORE PUSH1 0x20 ADD SWAP1 PUSH1 0x1 ADD SWAP1 PUSH2 0x2A5 JUMP JUMPDEST POP POP POP POP SWAP1 POP SWAP1 JUMP JUMPDEST PUSH1 0x0 DUP1 SLOAD SWAP1 PUSH2 0x100 EXP SWAP1 DIV PUSH20 0xFFFFFFFFFFFFFFFFFFFFFFFFFFFFFFFFFFFFFFFF AND PUSH20 0xFFFFFFFFFFFFFFFFFFFFFFFFFFFFFFFFFFFFFFFF AND CALLER PUSH20 0xFFFFFFFFFFFFFFFFFFFFFFFFFFFFFFFFFFFFFFFF AND EQ PUSH2 0x4A6 JUMPI PUSH1 0x40 MLOAD PUSH32 0x8C379A000000000000000000000000000000000000000000000000000000000 DUP2 MSTORE PUSH1 0x4 ADD PUSH2 0x49D SWAP1 PUSH2 0x1239 JUMP JUMPDEST PUSH1 0x40 MLOAD DUP1 SWAP2 SUB SWAP1 REVERT JUMPDEST PUSH1 0x2 PUSH1 0x40 MLOAD DUP1 PUSH1 0x80 ADD PUSH1 0x40 MSTORE DUP1 DUP7 DUP2 MSTORE PUSH1 0x20 ADD DUP5 DUP2 MSTORE PUSH1 0x20 ADD DUP6 DUP2 MSTORE PUSH1 0x20 ADD DUP4 DUP2 MSTORE POP SWAP1 DUP1 PUSH1 0x1 DUP2 SLOAD ADD DUP1 DUP3 SSTORE DUP1 SWAP2 POP POP PUSH1 0x1 SWAP1 SUB SWAP1 PUSH1 0x0 MSTORE PUSH1 0x20 PUSH1 0x0 KECCAK256 SWAP1 PUSH1 0x4 MUL ADD PUSH1 0x0 SWAP1 SWAP2 SWAP1 SWAP2 SWAP1 SWAP2 POP PUSH1 0x0 DUP3 ADD MLOAD DUP2 PUSH1 0x0 ADD SWAP1 DUP1 MLOAD SWAP1 PUSH1 0x20 ADD SWAP1 PUSH2 0x50E SWAP3 SWAP2 SWAP1 PUSH2 0xAC7 JUMP JUMPDEST POP PUSH1 0x20 DUP3 ADD MLOAD DUP2 PUSH1 0x1 ADD SSTORE PUSH1 0x40 DUP3 ADD MLOAD DUP2 PUSH1 0x2 ADD SWAP1 DUP1 MLOAD SWAP1 PUSH1 0x20 ADD SWAP1 PUSH2 0x535 SWAP3 SWAP2 SWAP1 PUSH2 0xAC7 JUMP JUMPDEST POP PUSH1 0x60 DUP3 ADD MLOAD DUP2 PUSH1 0x3 ADD SSTORE POP POP POP POP POP POP JUMP JUMPDEST PUSH1 0x0 DUP1 SLOAD SWAP1 PUSH2 0x100 EXP SWAP1 DIV PUSH20 0xFFFFFFFFFFFFFFFFFFFFFFFFFFFFFFFFFFFFFFFF AND PUSH20 0xFFFFFFFFFFFFFFFFFFFFFFFFFFFFFFFFFFFFFFFF AND CALLER PUSH20 0xFFFFFFFFFFFFFFFFFFFFFFFFFFFFFFFFFFFFFFFF AND EQ PUSH2 0x5D6 JUMPI PUSH1 0x40 MLOAD PUSH32 0x8C379A000000000000000000000000000000000000000000000000000000000 DUP2 MSTORE PUSH1 0x4 ADD PUSH2 0x5CD SWAP1 PUSH2 0x1239 JUMP JUMPDEST PUSH1 0x40 MLOAD DUP1 SWAP2 SUB SWAP1 REVERT JUMPDEST PUSH1 0x2 DUP1 SLOAD SWAP1 POP DUP3 LT PUSH2 0x61D JUMPI PUSH1 0x40 MLOAD PUSH32 0x8C379A000000000000000000000000000000000000000000000000000000000 DUP2 MSTORE PUSH1 0x4 ADD PUSH2 0x614 SWAP1 PUSH2 0x12A5 JUMP JUMPDEST PUSH1 0x40 MLOAD DUP1 SWAP2 SUB SWAP1 REVERT JUMPDEST DUP1 PUSH1 0x2 DUP4 DUP2 SLOAD DUP2 LT PUSH2 0x632 JUMPI PUSH2 0x631 PUSH2 0x12C5 JUMP JUMPDEST JUMPDEST SWAP1 PUSH1 0x0 MSTORE PUSH1 0x20 PUSH1 0x0 KECCAK256 SWAP1 PUSH1 0x4 MUL ADD PUSH1 0x3 ADD PUSH1 0x0 DUP3 DUP3 SLOAD PUSH2 0x652 SWAP2 SWAP1 PUSH2 0x1323 JUMP JUMPDEST SWAP3 POP POP DUP2 SWAP1 SSTORE POP POP POP JUMP JUMPDEST PUSH1 0x2 DUP1 SLOAD SWAP1 POP DUP3 LT PUSH2 0x6A4 JUMPI PUSH1 0x40 MLOAD PUSH32 0x8C379A000000000000000000000000000000000000000000000000000000000 DUP2 MSTORE PUSH1 0x4 ADD PUSH2 0x69B SWAP1 PUSH2 0x12A5 JUMP JUMPDEST PUSH1 0x40 MLOAD DUP1 SWAP2 SUB SWAP1 REVERT JUMPDEST PUSH1 0x2 DUP3 DUP2 SLOAD DUP2 LT PUSH2 0x6B8 JUMPI PUSH2 0x6B7 PUSH2 0x12C5 JUMP JUMPDEST JUMPDEST SWAP1 PUSH1 0x0 MSTORE PUSH1 0x20 PUSH1 0x0 KECCAK256 SWAP1 PUSH1 0x4 MUL ADD PUSH1 0x3 ADD SLOAD DUP2 SGT ISZERO PUSH2 0x70C JUMPI PUSH1 0x40 MLOAD PUSH32 0x8C379A000000000000000000000000000000000000000000000000000000000 DUP2 MSTORE PUSH1 0x4 ADD PUSH2 0x703 SWAP1 PUSH2 0x1403 JUMP JUMPDEST PUSH1 0x40 MLOAD DUP1 SWAP2 SUB SWAP1 REVERT JUMPDEST PUSH1 0x0 DUP2 PUSH1 0x2 DUP5 DUP2 SLOAD DUP2 LT PUSH2 0x723 JUMPI PUSH2 0x722 PUSH2 0x12C5 JUMP JUMPDEST JUMPDEST SWAP1 PUSH1 0x0 MSTORE PUSH1 0x20 PUSH1 0x0 KECCAK256 SWAP1 PUSH1 0x4 MUL ADD PUSH1 0x1 ADD SLOAD PUSH2 0x73F SWAP2 SWAP1 PUSH2 0x1423 JUMP JUMPDEST SWAP1 POP DUP2 PUSH1 0x2 DUP5 DUP2 SLOAD DUP2 LT PUSH2 0x756 JUMPI PUSH2 0x755 PUSH2 0x12C5 JUMP JUMPDEST JUMPDEST SWAP1 PUSH1 0x0 MSTORE PUSH1 0x20 PUSH1 0x0 KECCAK256 SWAP1 PUSH1 0x4 MUL ADD PUSH1 0x3 ADD PUSH1 0x0 DUP3 DUP3 SLOAD PUSH2 0x776 SWAP2 SWAP1 PUSH2 0x153A JUMP JUMPDEST SWAP3 POP POP DUP2 SWAP1 SSTORE POP DUP1 PUSH1 0x3 PUSH1 0x0 DUP3 DUP3 SLOAD PUSH2 0x78F SWAP2 SWAP1 PUSH2 0x1323 JUMP JUMPDEST SWAP3 POP POP DUP2 SWAP1 SSTORE POP POP POP POP JUMP JUMPDEST PUSH1 0x60 PUSH1 0x0 PUSH1 0x60 PUSH1 0x0 PUSH1 0x2 DUP1 SLOAD SWAP1 POP DUP6 LT PUSH2 0x7EA JUMPI PUSH1 0x40 MLOAD PUSH32 0x8C379A000000000000000000000000000000000000000000000000000000000 DUP2 MSTORE PUSH1 0x4 ADD PUSH2 0x7E1 SWAP1 PUSH2 0x12A5 JUMP JUMPDEST PUSH1 0x40 MLOAD DUP1 SWAP2 SUB SWAP1 REVERT JUMPDEST PUSH1 0x0 PUSH1 0x2 DUP7 DUP2 SLOAD DUP2 LT PUSH2 0x800 JUMPI PUSH2 0x7FF PUSH2 0x12C5 JUMP JUMPDEST JUMPDEST SWAP1 PUSH1 0x0 MSTORE PUSH1 0x20 PUSH1 0x0 KECCAK256 SWAP1 PUSH1 0x4 MUL ADD PUSH1 0x40 MLOAD DUP1 PUSH1 0x80 ADD PUSH1 0x40 MSTORE SWAP1 DUP2 PUSH1 0x0 DUP3 ADD DUP1 SLOAD PUSH2 0x829 SWAP1 PUSH2 0x1195 JUMP JUMPDEST DUP1 PUSH1 0x1F ADD PUSH1 0x20 DUP1 SWAP2 DIV MUL PUSH1 0x20 ADD PUSH1 0x40 MLOAD SWAP1 DUP2 ADD PUSH1 0x40 MSTORE DUP1 SWAP3 SWAP2 SWAP1 DUP2 DUP2 MSTORE PUSH1 0x20 ADD DUP3 DUP1 SLOAD PUSH2 0x855 SWAP1 PUSH2 0x1195 JUMP JUMPDEST DUP1 ISZERO PUSH2 0x8A2 JUMPI DUP1 PUSH1 0x1F LT PUSH2 0x877 JUMPI PUSH2 0x100 DUP1 DUP4 SLOAD DIV MUL DUP4 MSTORE SWAP2 PUSH1 0x20 ADD SWAP2 PUSH2 0x8A2 JUMP JUMPDEST DUP3 ADD SWAP2 SWAP1 PUSH1 0x0 MSTORE PUSH1 0x20 PUSH1 0x0 KECCAK256 SWAP1 JUMPDEST DUP2 SLOAD DUP2 MSTORE SWAP1 PUSH1 0x1 ADD SWAP1 PUSH1 0x20 ADD DUP1 DUP4 GT PUSH2 0x885 JUMPI DUP3 SWAP1 SUB PUSH1 0x1F AND DUP3 ADD SWAP2 JUMPDEST POP POP POP POP POP DUP2 MSTORE PUSH1 0x20 ADD PUSH1 0x1 DUP3 ADD SLOAD DUP2 MSTORE PUSH1 0x20 ADD PUSH1 0x2 DUP3 ADD DUP1 SLOAD PUSH2 0x8C5 SWAP1 PUSH2 0x1195 JUMP JUMPDEST DUP1 PUSH1 0x1F ADD PUSH1 0x20 DUP1 SWAP2 DIV MUL PUSH1 0x20 ADD PUSH1 0x40 MLOAD SWAP1 DUP2 ADD PUSH1 0x40 MSTORE DUP1 SWAP3 SWAP2 SWAP1 DUP2 DUP2 MSTORE PUSH1 0x20 ADD DUP3 DUP1 SLOAD PUSH2 0x8F1 SWAP1 PUSH2 0x1195 JUMP JUMPDEST DUP1 ISZERO PUSH2 0x93E JUMPI DUP1 PUSH1 0x1F LT PUSH2 0x913 JUMPI PUSH2 0x100 DUP1 DUP4 SLOAD DIV MUL DUP4 MSTORE SWAP2 PUSH1 0x20 ADD SWAP2 PUSH2 0x93E JUMP JUMPDEST DUP3 ADD SWAP2 SWAP1 PUSH1 0x0 MSTORE PUSH1 0x20 PUSH1 0x0 KECCAK256 SWAP1 JUMPDEST DUP2 SLOAD DUP2 MSTORE SWAP1 PUSH1 0x1 ADD SWAP1 PUSH1 0x20 ADD DUP1 DUP4 GT PUSH2 0x921 JUMPI DUP3 SWAP1 SUB PUSH1 0x1F AND DUP3 ADD SWAP2 JUMPDEST POP POP POP POP POP DUP2 MSTORE PUSH1 0x20 ADD PUSH1 0x3 DUP3 ADD SLOAD DUP2 MSTORE POP POP SWAP1 POP DUP1 PUSH1 0x0 ADD MLOAD DUP2 PUSH1 0x20 ADD MLOAD DUP3 PUSH1 0x40 ADD MLOAD DUP4 PUSH1 0x60 ADD MLOAD SWAP5 POP SWAP5 POP SWAP5 POP SWAP5 POP POP SWAP2 SWAP4 POP SWAP2 SWAP4 JUMP JUMPDEST PUSH1 0x2 DUP2 DUP2 SLOAD DUP2 LT PUSH2 0x987 JUMPI PUSH1 0x0 DUP1 REVERT JUMPDEST SWAP1 PUSH1 0x0 MSTORE PUSH1 0x20 PUSH1 0x0 KECCAK256 SWAP1 PUSH1 0x4 MUL ADD PUSH1 0x0 SWAP2 POP SWAP1 POP DUP1 PUSH1 0x0 ADD DUP1 SLOAD PUSH2 0x9AA SWAP1 PUSH2 0x1195 JUMP JUMPDEST DUP1 PUSH1 0x1F ADD PUSH1 0x20 DUP1 SWAP2 DIV MUL PUSH1 0x20 ADD PUSH1 0x40 MLOAD SWAP1 DUP2 ADD PUSH1 0x40 MSTORE DUP1 SWAP3 SWAP2 SWAP1 DUP2 DUP2 MSTORE PUSH1 0x20 ADD DUP3 DUP1 SLOAD PUSH2 0x9D6 SWAP1 PUSH2 0x1195 JUMP JUMPDEST DUP1 ISZERO PUSH2 0xA23 JUMPI DUP1 PUSH1 0x1F LT PUSH2 0x9F8 JUMPI PUSH2 0x100 DUP1 DUP4 SLOAD DIV MUL DUP4 MSTORE SWAP2 PUSH1 0x20 ADD SWAP2 PUSH2 0xA23 JUMP JUMPDEST DUP3 ADD SWAP2 SWAP1 PUSH1 0x0 MSTORE PUSH1 0x20 PUSH1 0x0 KECCAK256 SWAP1 JUMPDEST DUP2 SLOAD DUP2 MSTORE SWAP1 PUSH1 0x1 ADD SWAP1 PUSH1 0x20 ADD DUP1 DUP4 GT PUSH2 0xA06 JUMPI DUP3 SWAP1 SUB PUSH1 0x1F AND DUP3 ADD SWAP2 JUMPDEST POP POP POP POP POP SWAP1 DUP1 PUSH1 0x1 ADD SLOAD SWAP1 DUP1 PUSH1 0x2 ADD DUP1 SLOAD PUSH2 0xA3E SWAP1 PUSH2 0x1195 JUMP JUMPDEST DUP1 PUSH1 0x1F ADD PUSH1 0x20 DUP1 SWAP2 DIV MUL PUSH1 0x20 ADD PUSH1 0x40 MLOAD SWAP1 DUP2 ADD PUSH1 0x40 MSTORE DUP1 SWAP3 SWAP2 SWAP1 DUP2 DUP2 MSTORE PUSH1 0x20 ADD DUP3 DUP1 SLOAD PUSH2 0xA6A SWAP1 PUSH2 0x1195 JUMP JUMPDEST DUP1 ISZERO PUSH2 0xAB7 JUMPI DUP1 PUSH1 0x1F LT PUSH2 0xA8C JUMPI PUSH2 0x100 DUP1 DUP4 SLOAD DIV MUL DUP4 MSTORE SWAP2 PUSH1 0x20 ADD SWAP2 PUSH2 0xAB7 JUMP JUMPDEST DUP3 ADD SWAP2 SWAP1 PUSH1 0x0 MSTORE PUSH1 0x20 PUSH1 0x0 KECCAK256 SWAP1 JUMPDEST DUP2 SLOAD DUP2 MSTORE SWAP1 PUSH1 0x1 ADD SWAP1 PUSH1 0x20 ADD DUP1 DUP4 GT PUSH2 0xA9A JUMPI DUP3 SWAP1 SUB PUSH1 0x1F AND DUP3 ADD SWAP2 JUMPDEST POP POP POP POP POP SWAP1 DUP1 PUSH1 0x3 ADD SLOAD SWAP1 POP DUP5 JUMP JUMPDEST DUP3 DUP1 SLOAD PUSH2 0xAD3 SWAP1 PUSH2 0x1195 JUMP JUMPDEST SWAP1 PUSH1 0x0 MSTORE PUSH1 0x20 PUSH1 0x0 KECCAK256 SWAP1 PUSH1 0x1F ADD PUSH1 0x20 SWAP1 DIV DUP2 ADD SWAP3 DUP3 PUSH2 0xAF5 JUMPI PUSH1 0x0 DUP6 SSTORE PUSH2 0xB3C JUMP JUMPDEST DUP3 PUSH1 0x1F LT PUSH2 0xB0E JUMPI DUP1 MLOAD PUSH1 0xFF NOT AND DUP4 DUP1 ADD OR DUP6 SSTORE PUSH2 0xB3C JUMP JUMPDEST DUP3 DUP1 ADD PUSH1 0x1 ADD DUP6 SSTORE DUP3 ISZERO PUSH2 0xB3C JUMPI SWAP2 DUP3 ADD JUMPDEST DUP3 DUP2 GT ISZERO PUSH2 0xB3B JUMPI DUP3 MLOAD DUP3 SSTORE SWAP2 PUSH1 0x20 ADD SWAP2 SWAP1 PUSH1 0x1 ADD SWAP1 PUSH2 0xB20 JUMP JUMPDEST JUMPDEST POP SWAP1 POP PUSH2 0xB49 SWAP2 SWAP1 PUSH2 0xB4D JUMP JUMPDEST POP SWAP1 JUMP JUMPDEST JUMPDEST DUP1 DUP3 GT ISZERO PUSH2 0xB66 JUMPI PUSH1 0x0 DUP2 PUSH1 0x0 SWAP1 SSTORE POP PUSH1 0x1 ADD PUSH2 0xB4E JUMP JUMPDEST POP SWAP1 JUMP JUMPDEST PUSH1 0x0 DUP2 MLOAD SWAP1 POP SWAP2 SWAP1 POP JUMP JUMPDEST PUSH1 0x0 DUP3 DUP3 MSTORE PUSH1 0x20 DUP3 ADD SWAP1 POP SWAP3 SWAP2 POP POP JUMP JUMPDEST PUSH1 0x0 JUMPDEST DUP4 DUP2 LT ISZERO PUSH2 0xBA4 JUMPI DUP1 DUP3 ADD MLOAD DUP2 DUP5 ADD MSTORE PUSH1 0x20 DUP2 ADD SWAP1 POP PUSH2 0xB89 JUMP JUMPDEST DUP4 DUP2 GT ISZERO PUSH2 0xBB3 JUMPI PUSH1 0x0 DUP5 DUP5 ADD MSTORE JUMPDEST POP POP POP POP JUMP JUMPDEST PUSH1 0x0 PUSH1 0x1F NOT PUSH1 0x1F DUP4 ADD AND SWAP1 POP SWAP2 SWAP1 POP JUMP JUMPDEST PUSH1 0x0 PUSH2 0xBD5 DUP3 PUSH2 0xB6A JUMP JUMPDEST PUSH2 0xBDF DUP2 DUP6 PUSH2 0xB75 JUMP JUMPDEST SWAP4 POP PUSH2 0xBEF DUP2 DUP6 PUSH1 0x20 DUP7 ADD PUSH2 0xB86 JUMP JUMPDEST PUSH2 0xBF8 DUP2 PUSH2 0xBB9 JUMP JUMPDEST DUP5 ADD SWAP2 POP POP SWAP3 SWAP2 POP POP JUMP JUMPDEST PUSH1 0x0 PUSH1 0x20 DUP3 ADD SWAP1 POP DUP2 DUP2 SUB PUSH1 0x0 DUP4 ADD MSTORE PUSH2 0xC1D DUP2 DUP5 PUSH2 0xBCA JUMP JUMPDEST SWAP1 POP SWAP3 SWAP2 POP POP JUMP JUMPDEST PUSH1 0x0 DUP2 SWAP1 POP SWAP2 SWAP1 POP JUMP JUMPDEST PUSH2 0xC38 DUP2 PUSH2 0xC25 JUMP JUMPDEST DUP3 MSTORE POP POP JUMP JUMPDEST PUSH1 0x0 PUSH1 0x20 DUP3 ADD SWAP1 POP PUSH2 0xC53 PUSH1 0x0 DUP4 ADD DUP5 PUSH2 0xC2F JUMP JUMPDEST SWAP3 SWAP2 POP POP JUMP JUMPDEST PUSH1 0x0 PUSH20 0xFFFFFFFFFFFFFFFFFFFFFFFFFFFFFFFFFFFFFFFF DUP3 AND SWAP1 POP SWAP2 SWAP1 POP JUMP JUMPDEST PUSH1 0x0 PUSH2 0xC84 DUP3 PUSH2 0xC59 JUMP JUMPDEST SWAP1 POP SWAP2 SWAP1 POP JUMP JUMPDEST PUSH2 0xC94 DUP2 PUSH2 0xC79 JUMP JUMPDEST DUP3 MSTORE POP POP JUMP JUMPDEST PUSH1 0x0 PUSH1 0x20 DUP3 ADD SWAP1 POP PUSH2 0xCAF PUSH1 0x0 DUP4 ADD DUP5 PUSH2 0xC8B JUMP JUMPDEST SWAP3 SWAP2 POP POP JUMP JUMPDEST PUSH1 0x0 DUP2 MLOAD SWAP1 POP SWAP2 SWAP1 POP JUMP JUMPDEST PUSH1 0x0 DUP3 DUP3 MSTORE PUSH1 0x20 DUP3 ADD SWAP1 POP SWAP3 SWAP2 POP POP JUMP JUMPDEST PUSH1 0x0 DUP2 SWAP1 POP PUSH1 0x20 DUP3 ADD SWAP1 POP SWAP2 SWAP1 POP JUMP JUMPDEST PUSH1 0x0 DUP3 DUP3 MSTORE PUSH1 0x20 DUP3 ADD SWAP1 POP SWAP3 SWAP2 POP POP JUMP JUMPDEST PUSH1 0x0 PUSH2 0xCFD DUP3 PUSH2 0xB6A JUMP JUMPDEST PUSH2 0xD07 DUP2 DUP6 PUSH2 0xCE1 JUMP JUMPDEST SWAP4 POP PUSH2 0xD17 DUP2 DUP6 PUSH1 0x20 DUP7 ADD PUSH2 0xB86 JUMP JUMPDEST PUSH2 0xD20 DUP2 PUSH2 0xBB9 JUMP JUMPDEST DUP5 ADD SWAP2 POP POP SWAP3 SWAP2 POP POP JUMP JUMPDEST PUSH2 0xD34 DUP2 PUSH2 0xC25 JUMP JUMPDEST DUP3 MSTORE POP POP JUMP JUMPDEST PUSH1 0x0 PUSH1 0x80 DUP4 ADD PUSH1 0x0 DUP4 ADD MLOAD DUP5 DUP3 SUB PUSH1 0x0 DUP7 ADD MSTORE PUSH2 0xD57 DUP3 DUP3 PUSH2 0xCF2 JUMP JUMPDEST SWAP2 POP POP PUSH1 0x20 DUP4 ADD MLOAD PUSH2 0xD6C PUSH1 0x20 DUP7 ADD DUP3 PUSH2 0xD2B JUMP JUMPDEST POP PUSH1 0x40 DUP4 ADD MLOAD DUP5 DUP3 SUB PUSH1 0x40 DUP7 ADD MSTORE PUSH2 0xD84 DUP3 DUP3 PUSH2 0xCF2 JUMP JUMPDEST SWAP2 POP POP PUSH1 0x60 DUP4 ADD MLOAD PUSH2 0xD99 PUSH1 0x60 DUP7 ADD DUP3 PUSH2 0xD2B JUMP JUMPDEST POP DUP1 SWAP2 POP POP SWAP3 SWAP2 POP POP JUMP JUMPDEST PUSH1 0x0 PUSH2 0xDB0 DUP4 DUP4 PUSH2 0xD3A JUMP JUMPDEST SWAP1 POP SWAP3 SWAP2 POP POP JUMP JUMPDEST PUSH1 0x0 PUSH1 0x20 DUP3 ADD SWAP1 POP SWAP2 SWAP1 POP JUMP JUMPDEST PUSH1 0x0 PUSH2 0xDD0 DUP3 PUSH2 0xCB5 JUMP JUMPDEST PUSH2 0xDDA DUP2 DUP6 PUSH2 0xCC0 JUMP JUMPDEST SWAP4 POP DUP4 PUSH1 0x20 DUP3 MUL DUP6 ADD PUSH2 0xDEC DUP6 PUSH2 0xCD1 JUMP JUMPDEST DUP1 PUSH1 0x0 JUMPDEST DUP6 DUP2 LT ISZERO PUSH2 0xE28 JUMPI DUP5 DUP5 SUB DUP10 MSTORE DUP2 MLOAD PUSH2 0xE09 DUP6 DUP3 PUSH2 0xDA4 JUMP JUMPDEST SWAP5 POP PUSH2 0xE14 DUP4 PUSH2 0xDB8 JUMP JUMPDEST SWAP3 POP PUSH1 0x20 DUP11 ADD SWAP10 POP POP PUSH1 0x1 DUP2 ADD SWAP1 POP PUSH2 0xDF0 JUMP JUMPDEST POP DUP3 SWAP8 POP DUP8 SWAP6 POP POP POP POP POP POP SWAP3 SWAP2 POP POP JUMP JUMPDEST PUSH1 0x0 PUSH1 0x20 DUP3 ADD SWAP1 POP DUP2 DUP2 SUB PUSH1 0x0 DUP4 ADD MSTORE PUSH2 0xE54 DUP2 DUP5 PUSH2 0xDC5 JUMP JUMPDEST SWAP1 POP SWAP3 SWAP2 POP POP JUMP JUMPDEST PUSH1 0x0 PUSH1 0x40 MLOAD SWAP1 POP SWAP1 JUMP JUMPDEST PUSH1 0x0 DUP1 REVERT JUMPDEST PUSH1 0x0 DUP1 REVERT JUMPDEST PUSH1 0x0 DUP1 REVERT JUMPDEST PUSH1 0x0 DUP1 REVERT JUMPDEST PUSH32 0x4E487B7100000000000000000000000000000000000000000000000000000000 PUSH1 0x0 MSTORE PUSH1 0x41 PUSH1 0x4 MSTORE PUSH1 0x24 PUSH1 0x0 REVERT JUMPDEST PUSH2 0xEB2 DUP3 PUSH2 0xBB9 JUMP JUMPDEST DUP2 ADD DUP2 DUP2 LT PUSH8 0xFFFFFFFFFFFFFFFF DUP3 GT OR ISZERO PUSH2 0xED1 JUMPI PUSH2 0xED0 PUSH2 0xE7A JUMP JUMPDEST JUMPDEST DUP1 PUSH1 0x40 MSTORE POP POP POP JUMP JUMPDEST PUSH1 0x0 PUSH2 0xEE4 PUSH2 0xE5C JUMP JUMPDEST SWAP1 POP PUSH2 0xEF0 DUP3 DUP3 PUSH2 0xEA9 JUMP JUMPDEST SWAP2 SWAP1 POP JUMP JUMPDEST PUSH1 0x0 PUSH8 0xFFFFFFFFFFFFFFFF DUP3 GT ISZERO PUSH2 0xF10 JUMPI PUSH2 0xF0F PUSH2 0xE7A JUMP JUMPDEST JUMPDEST PUSH2 0xF19 DUP3 PUSH2 0xBB9 JUMP JUMPDEST SWAP1 POP PUSH1 0x20 DUP2 ADD SWAP1 POP SWAP2 SWAP1 POP JUMP JUMPDEST DUP3 DUP2 DUP4 CALLDATACOPY PUSH1 0x0 DUP4 DUP4 ADD MSTORE POP POP POP JUMP JUMPDEST PUSH1 0x0 PUSH2 0xF48 PUSH2 0xF43 DUP5 PUSH2 0xEF5 JUMP JUMPDEST PUSH2 0xEDA JUMP JUMPDEST SWAP1 POP DUP3 DUP2 MSTORE PUSH1 0x20 DUP2 ADD DUP5 DUP5 DUP5 ADD GT ISZERO PUSH2 0xF64 JUMPI PUSH2 0xF63 PUSH2 0xE75 JUMP JUMPDEST JUMPDEST PUSH2 0xF6F DUP5 DUP3 DUP6 PUSH2 0xF26 JUMP JUMPDEST POP SWAP4 SWAP3 POP POP POP JUMP JUMPDEST PUSH1 0x0 DUP3 PUSH1 0x1F DUP4 ADD SLT PUSH2 0xF8C JUMPI PUSH2 0xF8B PUSH2 0xE70 JUMP JUMPDEST JUMPDEST DUP2 CALLDATALOAD PUSH2 0xF9C DUP5 DUP3 PUSH1 0x20 DUP7 ADD PUSH2 0xF35 JUMP JUMPDEST SWAP2 POP POP SWAP3 SWAP2 POP POP JUMP JUMPDEST PUSH2 0xFAE DUP2 PUSH2 0xC25 JUMP JUMPDEST DUP2 EQ PUSH2 0xFB9 JUMPI PUSH1 0x0 DUP1 REVERT JUMPDEST POP JUMP JUMPDEST PUSH1 0x0 DUP2 CALLDATALOAD SWAP1 POP PUSH2 0xFCB DUP2 PUSH2 0xFA5 JUMP JUMPDEST SWAP3 SWAP2 POP POP JUMP JUMPDEST PUSH1 0x0 DUP1 PUSH1 0x0 DUP1 PUSH1 0x80 DUP6 DUP8 SUB SLT ISZERO PUSH2 0xFEB JUMPI PUSH2 0xFEA PUSH2 0xE66 JUMP JUMPDEST JUMPDEST PUSH1 0x0 DUP6 ADD CALLDATALOAD PUSH8 0xFFFFFFFFFFFFFFFF DUP2 GT ISZERO PUSH2 0x1009 JUMPI PUSH2 0x1008 PUSH2 0xE6B JUMP JUMPDEST JUMPDEST PUSH2 0x1015 DUP8 DUP3 DUP9 ADD PUSH2 0xF77 JUMP JUMPDEST SWAP5 POP POP PUSH1 0x20 DUP6 ADD CALLDATALOAD PUSH8 0xFFFFFFFFFFFFFFFF DUP2 GT ISZERO PUSH2 0x1036 JUMPI PUSH2 0x1035 PUSH2 0xE6B JUMP JUMPDEST JUMPDEST PUSH2 0x1042 DUP8 DUP3 DUP9 ADD PUSH2 0xF77 JUMP JUMPDEST SWAP4 POP POP PUSH1 0x40 PUSH2 0x1053 DUP8 DUP3 DUP9 ADD PUSH2 0xFBC JUMP JUMPDEST SWAP3 POP POP PUSH1 0x60 PUSH2 0x1064 DUP8 DUP3 DUP9 ADD PUSH2 0xFBC JUMP JUMPDEST SWAP2 POP POP SWAP3 SWAP6 SWAP2 SWAP5 POP SWAP3 POP JUMP JUMPDEST PUSH1 0x0 DUP2 SWAP1 POP SWAP2 SWAP1 POP JUMP JUMPDEST PUSH2 0x1083 DUP2 PUSH2 0x1070 JUMP JUMPDEST DUP2 EQ PUSH2 0x108E JUMPI PUSH1 0x0 DUP1 REVERT JUMPDEST POP JUMP JUMPDEST PUSH1 0x0 DUP2 CALLDATALOAD SWAP1 POP PUSH2 0x10A0 DUP2 PUSH2 0x107A JUMP JUMPDEST SWAP3 SWAP2 POP POP JUMP JUMPDEST PUSH1 0x0 DUP1 PUSH1 0x40 DUP4 DUP6 SUB SLT ISZERO PUSH2 0x10BD JUMPI PUSH2 0x10BC PUSH2 0xE66 JUMP JUMPDEST JUMPDEST PUSH1 0x0 PUSH2 0x10CB DUP6 DUP3 DUP7 ADD PUSH2 0x1091 JUMP JUMPDEST SWAP3 POP POP PUSH1 0x20 PUSH2 0x10DC DUP6 DUP3 DUP7 ADD PUSH2 0xFBC JUMP JUMPDEST SWAP2 POP POP SWAP3 POP SWAP3 SWAP1 POP JUMP JUMPDEST PUSH1 0x0 PUSH1 0x20 DUP3 DUP5 SUB SLT ISZERO PUSH2 0x10FC JUMPI PUSH2 0x10FB PUSH2 0xE66 JUMP JUMPDEST JUMPDEST PUSH1 0x0 PUSH2 0x110A DUP5 DUP3 DUP6 ADD PUSH2 0x1091 JUMP JUMPDEST SWAP2 POP POP SWAP3 SWAP2 POP POP JUMP JUMPDEST PUSH1 0x0 PUSH1 0x80 DUP3 ADD SWAP1 POP DUP2 DUP2 SUB PUSH1 0x0 DUP4 ADD MSTORE PUSH2 0x112D DUP2 DUP8 PUSH2 0xBCA JUMP JUMPDEST SWAP1 POP PUSH2 0x113C PUSH1 0x20 DUP4 ADD DUP7 PUSH2 0xC2F JUMP JUMPDEST DUP2 DUP2 SUB PUSH1 0x40 DUP4 ADD MSTORE PUSH2 0x114E DUP2 DUP6 PUSH2 0xBCA JUMP JUMPDEST SWAP1 POP PUSH2 0x115D PUSH1 0x60 DUP4 ADD DUP5 PUSH2 0xC2F JUMP JUMPDEST SWAP6 SWAP5 POP POP POP POP POP JUMP JUMPDEST PUSH32 0x4E487B7100000000000000000000000000000000000000000000000000000000 PUSH1 0x0 MSTORE PUSH1 0x22 PUSH1 0x4 MSTORE PUSH1 0x24 PUSH1 0x0 REVERT JUMPDEST PUSH1 0x0 PUSH1 0x2 DUP3 DIV SWAP1 POP PUSH1 0x1 DUP3 AND DUP1 PUSH2 0x11AD JUMPI PUSH1 0x7F DUP3 AND SWAP2 POP JUMPDEST PUSH1 0x20 DUP3 LT DUP2 EQ ISZERO PUSH2 0x11C1 JUMPI PUSH2 0x11C0 PUSH2 0x1166 JUMP JUMPDEST JUMPDEST POP SWAP2 SWAP1 POP JUMP JUMPDEST PUSH32 0x4F6E6C792070726F76696465722063616E206163636573732074686973206675 PUSH1 0x0 DUP3 ADD MSTORE PUSH32 0x6E6374696F6E0000000000000000000000000000000000000000000000000000 PUSH1 0x20 DUP3 ADD MSTORE POP JUMP JUMPDEST PUSH1 0x0 PUSH2 0x1223 PUSH1 0x26 DUP4 PUSH2 0xB75 JUMP JUMPDEST SWAP2 POP PUSH2 0x122E DUP3 PUSH2 0x11C7 JUMP JUMPDEST PUSH1 0x40 DUP3 ADD SWAP1 POP SWAP2 SWAP1 POP JUMP JUMPDEST PUSH1 0x0 PUSH1 0x20 DUP3 ADD SWAP1 POP DUP2 DUP2 SUB PUSH1 0x0 DUP4 ADD MSTORE PUSH2 0x1252 DUP2 PUSH2 0x1216 JUMP JUMPDEST SWAP1 POP SWAP2 SWAP1 POP JUMP JUMPDEST PUSH32 0x496E646578206F7574206F6620626F756E647300000000000000000000000000 PUSH1 0x0 DUP3 ADD MSTORE POP JUMP JUMPDEST PUSH1 0x0 PUSH2 0x128F PUSH1 0x13 DUP4 PUSH2 0xB75 JUMP JUMPDEST SWAP2 POP PUSH2 0x129A DUP3 PUSH2 0x1259 JUMP JUMPDEST PUSH1 0x20 DUP3 ADD SWAP1 POP SWAP2 SWAP1 POP JUMP JUMPDEST PUSH1 0x0 PUSH1 0x20 DUP3 ADD SWAP1 POP DUP2 DUP2 SUB PUSH1 0x0 DUP4 ADD MSTORE PUSH2 0x12BE DUP2 PUSH2 0x1282 JUMP JUMPDEST SWAP1 POP SWAP2 SWAP1 POP JUMP JUMPDEST PUSH32 0x4E487B7100000000000000000000000000000000000000000000000000000000 PUSH1 0x0 MSTORE PUSH1 0x32 PUSH1 0x4 MSTORE PUSH1 0x24 PUSH1 0x0 REVERT JUMPDEST PUSH32 0x4E487B7100000000000000000000000000000000000000000000000000000000 PUSH1 0x0 MSTORE PUSH1 0x11 PUSH1 0x4 MSTORE PUSH1 0x24 PUSH1 0x0 REVERT JUMPDEST PUSH1 0x0 PUSH2 0x132E DUP3 PUSH2 0xC25 JUMP JUMPDEST SWAP2 POP PUSH2 0x1339 DUP4 PUSH2 0xC25 JUMP JUMPDEST SWAP3 POP DUP2 PUSH32 0x7FFFFFFFFFFFFFFFFFFFFFFFFFFFFFFFFFFFFFFFFFFFFFFFFFFFFFFFFFFFFFFF SUB DUP4 SGT PUSH1 0x0 DUP4 SLT ISZERO AND ISZERO PUSH2 0x1374 JUMPI PUSH2 0x1373 PUSH2 0x12F4 JUMP JUMPDEST JUMPDEST DUP2 PUSH32 0x8000000000000000000000000000000000000000000000000000000000000000 SUB DUP4 SLT PUSH1 0x0 DUP4 SLT AND ISZERO PUSH2 0x13AC JUMPI PUSH2 0x13AB PUSH2 0x12F4 JUMP JUMPDEST JUMPDEST DUP3 DUP3 ADD SWAP1 POP SWAP3 SWAP2 POP POP JUMP JUMPDEST PUSH32 0x496E73756666696369656E74207175616E746974790000000000000000000000 PUSH1 0x0 DUP3 ADD MSTORE POP JUMP JUMPDEST PUSH1 0x0 PUSH2 0x13ED PUSH1 0x15 DUP4 PUSH2 0xB75 JUMP JUMPDEST SWAP2 POP PUSH2 0x13F8 DUP3 PUSH2 0x13B7 JUMP JUMPDEST PUSH1 0x20 DUP3 ADD SWAP1 POP SWAP2 SWAP1 POP JUMP JUMPDEST PUSH1 0x0 PUSH1 0x20 DUP3 ADD SWAP1 POP DUP2 DUP2 SUB PUSH1 0x0 DUP4 ADD MSTORE PUSH2 0x141C DUP2 PUSH2 0x13E0 JUMP JUMPDEST SWAP1 POP SWAP2 SWAP1 POP JUMP JUMPDEST PUSH1 0x0 PUSH2 0x142E DUP3 PUSH2 0xC25 JUMP JUMPDEST SWAP2 POP PUSH2 0x1439 DUP4 PUSH2 0xC25 JUMP JUMPDEST SWAP3 POP DUP3 PUSH32 0x7FFFFFFFFFFFFFFFFFFFFFFFFFFFFFFFFFFFFFFFFFFFFFFFFFFFFFFFFFFFFFFF DIV DUP3 GT PUSH1 0x0 DUP5 SGT PUSH1 0x0 DUP5 SGT AND AND ISZERO PUSH2 0x1478 JUMPI PUSH2 0x1477 PUSH2 0x12F4 JUMP JUMPDEST JUMPDEST DUP2 PUSH32 0x8000000000000000000000000000000000000000000000000000000000000000 SDIV DUP4 SLT PUSH1 0x0 DUP5 SLT PUSH1 0x0 DUP5 SGT AND AND ISZERO PUSH2 0x14B5 JUMPI PUSH2 0x14B4 PUSH2 0x12F4 JUMP JUMPDEST JUMPDEST DUP3 PUSH32 0x8000000000000000000000000000000000000000000000000000000000000000 SDIV DUP3 SLT PUSH1 0x0 DUP5 SGT PUSH1 0x0 DUP5 SLT AND AND ISZERO PUSH2 0x14F2 JUMPI PUSH2 0x14F1 PUSH2 0x12F4 JUMP JUMPDEST JUMPDEST DUP3 PUSH32 0x7FFFFFFFFFFFFFFFFFFFFFFFFFFFFFFFFFFFFFFFFFFFFFFFFFFFFFFFFFFFFFFF SDIV DUP3 SLT PUSH1 0x0 DUP5 SLT PUSH1 0x0 DUP5 SLT AND AND ISZERO PUSH2 0x152F JUMPI PUSH2 0x152E PUSH2 0x12F4 JUMP JUMPDEST JUMPDEST DUP3 DUP3 MUL SWAP1 POP SWAP3 SWAP2 POP POP JUMP JUMPDEST PUSH1 0x0 PUSH2 0x1545 DUP3 PUSH2 0xC25 JUMP JUMPDEST SWAP2 POP PUSH2 0x1550 DUP4 PUSH2 0xC25 JUMP JUMPDEST SWAP3 POP DUP3 PUSH32 0x8000000000000000000000000000000000000000000000000000000000000000 ADD DUP3 SLT PUSH1 0x0 DUP5 SLT ISZERO AND ISZERO PUSH2 0x158B JUMPI PUSH2 0x158A PUSH2 0x12F4 JUMP JUMPDEST JUMPDEST DUP3 PUSH32 0x7FFFFFFFFFFFFFFFFFFFFFFFFFFFFFFFFFFFFFFFFFFFFFFFFFFFFFFFFFFFFFFF ADD DUP3 SGT PUSH1 0x0 DUP5 SLT AND ISZERO PUSH2 0x15C3 JUMPI PUSH2 0x15C2 PUSH2 0x12F4 JUMP JUMPDEST JUMPDEST DUP3 DUP3 SUB SWAP1 POP SWAP3 SWAP2 POP POP JUMP INVALID LOG2 PUSH5 0x6970667358 0x22 SLT KECCAK256 SWAP3 0xC SWAP9 0xF ISZERO PUSH24 0x80D182EB7172C9E9E5C1BBA4F97D054D854D2869AAF42083 DUP8 0xFB PUSH5 0x736F6C6343 STOP ADDMOD MULMOD STOP CALLER "
        },
        "gasEstimates": {
            "creation": {
                "codeDepositCost": "1127200",
                "executionCost": "infinite",
                "totalCost": "infinite"
            },
            "external": {
                "addSeed(string,string,int256,int256)": "infinite",
                "adjustSeedQuantity(uint256,int256)": "infinite",
                "getAllSeeds()": "infinite",
                "getSeed(uint256)": "infinite",
                "providerAddress()": "2556",
                "providerName()": "infinite",
                "seeds(uint256)": "infinite",
                "sellSeed(uint256,int256)": "infinite",
                "totalSales()": "2452"
            }
        },
        "methodIdentifiers": {
            "addSeed(string,string,int256,int256)": "b46861a0",
            "adjustSeedQuantity(uint256,int256)": "b90a9ad5",
            "getAllSeeds()": "a25b0561",
            "getSeed(uint256)": "e0d4ea37",
            "providerAddress()": "706e5257",
            "providerName()": "00dad7d4",
            "seeds(uint256)": "f0503e80",
            "sellSeed(uint256,int256)": "dccb816d",
            "totalSales()": "6605ff66"
        }
    },
    "storageLayout": {
        "storage": [
            {
                "astId": 3,
                "contract": "Main.sol:ProviderContract",
                "label": "providerAddress",
                "offset": 0,
                "slot": "0",
                "type": "t_address"
            },
            {
                "astId": 5,
                "contract": "Main.sol:ProviderContract",
                "label": "providerName",
                "offset": 0,
                "slot": "1",
                "type": "t_string_storage"
            },
            {
                "astId": 9,
                "contract": "Main.sol:ProviderContract",
                "label": "seeds",
                "offset": 0,
                "slot": "2",
                "type": "t_array(t_struct(Seed)20_storage)dyn_storage"
            },
            {
                "astId": 11,
                "contract": "Main.sol:ProviderContract",
                "label": "totalSales",
                "offset": 0,
                "slot": "3",
                "type": "t_int256"
            }
        ],
        "types": {
            "t_address": {
                "encoding": "inplace",
                "label": "address",
                "numberOfBytes": "20"
            },
            "t_array(t_struct(Seed)20_storage)dyn_storage": {
                "base": "t_struct(Seed)20_storage",
                "encoding": "dynamic_array",
                "label": "struct ProviderContract.Seed[]",
                "numberOfBytes": "32"
            },
            "t_int256": {
                "encoding": "inplace",
                "label": "int256",
                "numberOfBytes": "32"
            },
            "t_string_storage": {
                "encoding": "bytes",
                "label": "string",
                "numberOfBytes": "32"
            },
            "t_struct(Seed)20_storage": {
                "encoding": "inplace",
                "label": "struct ProviderContract.Seed",
                "members": [
                    {
                        "astId": 13,
                        "contract": "Main.sol:ProviderContract",
                        "label": "seedName",
                        "offset": 0,
                        "slot": "0",
                        "type": "t_string_storage"
                    },
                    {
                        "astId": 15,
                        "contract": "Main.sol:ProviderContract",
                        "label": "seedPrice",
                        "offset": 0,
                        "slot": "1",
                        "type": "t_int256"
                    },
                    {
                        "astId": 17,
                        "contract": "Main.sol:ProviderContract",
                        "label": "seedQuality",
                        "offset": 0,
                        "slot": "2",
                        "type": "t_string_storage"
                    },
                    {
                        "astId": 19,
                        "contract": "Main.sol:ProviderContract",
                        "label": "seedQuantity",
                        "offset": 0,
                        "slot": "3",
                        "type": "t_int256"
                    }
                ],
                "numberOfBytes": "128"
            }
        }
    },
    "userdoc": {
        "kind": "user",
        "methods": {},
        "version": 1
    }
}