{
    "abi": [
        {
            "inputs": [
                {
                    "internalType": "string",
                    "name": "_retailerName",
                    "type": "string"
                }
            ],
            "stateMutability": "nonpayable",
            "type": "constructor"
        },
        {
            "inputs": [
                {
                    "internalType": "string",
                    "name": "_itemName",
                    "type": "string"
                },
                {
                    "internalType": "string",
                    "name": "_itemQuality",
                    "type": "string"
                },
                {
                    "internalType": "int256",
                    "name": "_itemPrice",
                    "type": "int256"
                },
                {
                    "internalType": "int256",
                    "name": "_itemQuantity",
                    "type": "int256"
                }
            ],
            "name": "addItem",
            "outputs": [],
            "stateMutability": "nonpayable",
            "type": "function"
        },
        {
            "inputs": [
                {
                    "internalType": "uint256",
                    "name": "_index",
                    "type": "uint256"
                },
                {
                    "internalType": "int256",
                    "name": "_additionalQuantity",
                    "type": "int256"
                }
            ],
            "name": "adjustItemQuantity",
            "outputs": [],
            "stateMutability": "nonpayable",
            "type": "function"
        },
        {
            "inputs": [],
            "name": "getAllItems",
            "outputs": [
                {
                    "components": [
                        {
                            "internalType": "string",
                            "name": "itemName",
                            "type": "string"
                        },
                        {
                            "internalType": "int256",
                            "name": "itemPrice",
                            "type": "int256"
                        },
                        {
                            "internalType": "string",
                            "name": "itemQuality",
                            "type": "string"
                        },
                        {
                            "internalType": "int256",
                            "name": "itemQuantity",
                            "type": "int256"
                        }
                    ],
                    "internalType": "struct RetailerContract.Item[]",
                    "name": "",
                    "type": "tuple[]"
                }
            ],
            "stateMutability": "view",
            "type": "function"
        },
        {
            "inputs": [
                {
                    "internalType": "uint256",
                    "name": "_index",
                    "type": "uint256"
                }
            ],
            "name": "getItem",
            "outputs": [
                {
                    "internalType": "string",
                    "name": "",
                    "type": "string"
                },
                {
                    "internalType": "int256",
                    "name": "",
                    "type": "int256"
                },
                {
                    "internalType": "string",
                    "name": "",
                    "type": "string"
                },
                {
                    "internalType": "int256",
                    "name": "",
                    "type": "int256"
                }
            ],
            "stateMutability": "view",
            "type": "function"
        },
        {
            "inputs": [
                {
                    "internalType": "uint256",
                    "name": "",
                    "type": "uint256"
                }
            ],
            "name": "items",
            "outputs": [
                {
                    "internalType": "string",
                    "name": "itemName",
                    "type": "string"
                },
                {
                    "internalType": "int256",
                    "name": "itemPrice",
                    "type": "int256"
                },
                {
                    "internalType": "string",
                    "name": "itemQuality",
                    "type": "string"
                },
                {
                    "internalType": "int256",
                    "name": "itemQuantity",
                    "type": "int256"
                }
            ],
            "stateMutability": "view",
            "type": "function"
        },
        {
            "inputs": [],
            "name": "retailerAddress",
            "outputs": [
                {
                    "internalType": "address",
                    "name": "",
                    "type": "address"
                }
            ],
            "stateMutability": "view",
            "type": "function"
        },
        {
            "inputs": [],
            "name": "retailerName",
            "outputs": [
                {
                    "internalType": "string",
                    "name": "",
                    "type": "string"
                }
            ],
            "stateMutability": "view",
            "type": "function"
        },
        {
            "inputs": [
                {
                    "internalType": "uint256",
                    "name": "_index",
                    "type": "uint256"
                },
                {
                    "internalType": "int256",
                    "name": "_quantity",
                    "type": "int256"
                }
            ],
            "name": "sellItem",
            "outputs": [],
            "stateMutability": "nonpayable",
            "type": "function"
        },
        {
            "inputs": [],
            "name": "totalSales",
            "outputs": [
                {
                    "internalType": "int256",
                    "name": "",
                    "type": "int256"
                }
            ],
            "stateMutability": "view",
            "type": "function"
        }
    ],
    "devdoc": {
        "kind": "dev",
        "methods": {},
        "version": 1
    },
    "evm": {
        "assembly": "    /* \"Main.sol\":7997:10032  contract RetailerContract {... */\n  mstore(0x40, 0x80)\n    /* \"Main.sol\":8479:8606  constructor(string memory _retailerName) {... */\n  callvalue\n  dup1\n  iszero\n  tag_1\n  jumpi\n  0x00\n  dup1\n  revert\ntag_1:\n  pop\n  mload(0x40)\n  sub(codesize, bytecodeSize)\n  dup1\n  bytecodeSize\n  dup4\n  codecopy\n  dup2\n  dup2\n  add\n  0x40\n  mstore\n  dup2\n  add\n  swap1\n  tag_2\n  swap2\n  swap1\n  tag_3\n  jump\t// in\ntag_2:\n    /* \"Main.sol\":8549:8559  msg.sender */\n  caller\n    /* \"Main.sol\":8531:8546  retailerAddress */\n  0x00\n  dup1\n    /* \"Main.sol\":8531:8559  retailerAddress = msg.sender */\n  0x0100\n  exp\n  dup2\n  sload\n  dup2\n  0xffffffffffffffffffffffffffffffffffffffff\n  mul\n  not\n  and\n  swap1\n  dup4\n  0xffffffffffffffffffffffffffffffffffffffff\n  and\n  mul\n  or\n  swap1\n  sstore\n  pop\n    /* \"Main.sol\":8585:8598  _retailerName */\n  dup1\n    /* \"Main.sol\":8570:8582  retailerName */\n  0x01\n    /* \"Main.sol\":8570:8598  retailerName = _retailerName */\n  swap1\n  dup1\n  mload\n  swap1\n  0x20\n  add\n  swap1\n  tag_6\n  swap3\n  swap2\n  swap1\n  tag_7\n  jump\t// in\ntag_6:\n  pop\n    /* \"Main.sol\":8479:8606  constructor(string memory _retailerName) {... */\n  pop\n    /* \"Main.sol\":7997:10032  contract RetailerContract {... */\n  jump(tag_8)\ntag_7:\n  dup3\n  dup1\n  sload\n  tag_9\n  swap1\n  tag_10\n  jump\t// in\ntag_9:\n  swap1\n  0x00\n  mstore\n  keccak256(0x00, 0x20)\n  swap1\n  0x1f\n  add\n  0x20\n  swap1\n  div\n  dup2\n  add\n  swap3\n  dup3\n  tag_12\n  jumpi\n  0x00\n  dup6\n  sstore\n  jump(tag_11)\ntag_12:\n  dup3\n  0x1f\n  lt\n  tag_13\n  jumpi\n  dup1\n  mload\n  not(0xff)\n  and\n  dup4\n  dup1\n  add\n  or\n  dup6\n  sstore\n  jump(tag_11)\ntag_13:\n  dup3\n  dup1\n  add\n  0x01\n  add\n  dup6\n  sstore\n  dup3\n  iszero\n  tag_11\n  jumpi\n  swap2\n  dup3\n  add\ntag_14:\n  dup3\n  dup2\n  gt\n  iszero\n  tag_15\n  jumpi\n  dup3\n  mload\n  dup3\n  sstore\n  swap2\n  0x20\n  add\n  swap2\n  swap1\n  0x01\n  add\n  swap1\n  jump(tag_14)\ntag_15:\ntag_11:\n  pop\n  swap1\n  pop\n  tag_16\n  swap2\n  swap1\n  tag_17\n  jump\t// in\ntag_16:\n  pop\n  swap1\n  jump\t// out\ntag_17:\ntag_18:\n  dup1\n  dup3\n  gt\n  iszero\n  tag_19\n  jumpi\n  0x00\n  dup2\n  0x00\n  swap1\n  sstore\n  pop\n  0x01\n  add\n  jump(tag_18)\ntag_19:\n  pop\n  swap1\n  jump\t// out\n    /* \"#utility.yul\":7:82   */\ntag_20:\n    /* \"#utility.yul\":40:46   */\n  0x00\n    /* \"#utility.yul\":73:75   */\n  0x40\n    /* \"#utility.yul\":67:76   */\n  mload\n    /* \"#utility.yul\":57:76   */\n  swap1\n  pop\n    /* \"#utility.yul\":7:82   */\n  swap1\n  jump\t// out\n    /* \"#utility.yul\":88:205   */\ntag_21:\n    /* \"#utility.yul\":197:198   */\n  0x00\n    /* \"#utility.yul\":194:195   */\n  dup1\n    /* \"#utility.yul\":187:199   */\n  revert\n    /* \"#utility.yul\":211:328   */\ntag_22:\n    /* \"#utility.yul\":320:321   */\n  0x00\n    /* \"#utility.yul\":317:318   */\n  dup1\n    /* \"#utility.yul\":310:322   */\n  revert\n    /* \"#utility.yul\":334:451   */\ntag_23:\n    /* \"#utility.yul\":443:444   */\n  0x00\n    /* \"#utility.yul\":440:441   */\n  dup1\n    /* \"#utility.yul\":433:445   */\n  revert\n    /* \"#utility.yul\":457:574   */\ntag_24:\n    /* \"#utility.yul\":566:567   */\n  0x00\n    /* \"#utility.yul\":563:564   */\n  dup1\n    /* \"#utility.yul\":556:568   */\n  revert\n    /* \"#utility.yul\":580:682   */\ntag_25:\n    /* \"#utility.yul\":621:627   */\n  0x00\n    /* \"#utility.yul\":672:674   */\n  0x1f\n    /* \"#utility.yul\":668:675   */\n  not\n    /* \"#utility.yul\":663:665   */\n  0x1f\n    /* \"#utility.yul\":656:661   */\n  dup4\n    /* \"#utility.yul\":652:666   */\n  add\n    /* \"#utility.yul\":648:676   */\n  and\n    /* \"#utility.yul\":638:676   */\n  swap1\n  pop\n    /* \"#utility.yul\":580:682   */\n  swap2\n  swap1\n  pop\n  jump\t// out\n    /* \"#utility.yul\":688:868   */\ntag_26:\n    /* \"#utility.yul\":736:813   */\n  0x4e487b7100000000000000000000000000000000000000000000000000000000\n    /* \"#utility.yul\":733:734   */\n  0x00\n    /* \"#utility.yul\":726:814   */\n  mstore\n    /* \"#utility.yul\":833:837   */\n  0x41\n    /* \"#utility.yul\":830:831   */\n  0x04\n    /* \"#utility.yul\":823:838   */\n  mstore\n    /* \"#utility.yul\":857:861   */\n  0x24\n    /* \"#utility.yul\":854:855   */\n  0x00\n    /* \"#utility.yul\":847:862   */\n  revert\n    /* \"#utility.yul\":874:1155   */\ntag_27:\n    /* \"#utility.yul\":957:984   */\n  tag_43\n    /* \"#utility.yul\":979:983   */\n  dup3\n    /* \"#utility.yul\":957:984   */\n  tag_25\n  jump\t// in\ntag_43:\n    /* \"#utility.yul\":949:955   */\n  dup2\n    /* \"#utility.yul\":945:985   */\n  add\n    /* \"#utility.yul\":1087:1093   */\n  dup2\n    /* \"#utility.yul\":1075:1085   */\n  dup2\n    /* \"#utility.yul\":1072:1094   */\n  lt\n    /* \"#utility.yul\":1051:1069   */\n  0xffffffffffffffff\n    /* \"#utility.yul\":1039:1049   */\n  dup3\n    /* \"#utility.yul\":1036:1070   */\n  gt\n    /* \"#utility.yul\":1033:1095   */\n  or\n    /* \"#utility.yul\":1030:1118   */\n  iszero\n  tag_44\n  jumpi\n    /* \"#utility.yul\":1098:1116   */\n  tag_45\n  tag_26\n  jump\t// in\ntag_45:\n    /* \"#utility.yul\":1030:1118   */\ntag_44:\n    /* \"#utility.yul\":1138:1148   */\n  dup1\n    /* \"#utility.yul\":1134:1136   */\n  0x40\n    /* \"#utility.yul\":1127:1149   */\n  mstore\n    /* \"#utility.yul\":917:1155   */\n  pop\n    /* \"#utility.yul\":874:1155   */\n  pop\n  pop\n  jump\t// out\n    /* \"#utility.yul\":1161:1290   */\ntag_28:\n    /* \"#utility.yul\":1195:1201   */\n  0x00\n    /* \"#utility.yul\":1222:1242   */\n  tag_47\n  tag_20\n  jump\t// in\ntag_47:\n    /* \"#utility.yul\":1212:1242   */\n  swap1\n  pop\n    /* \"#utility.yul\":1251:1284   */\n  tag_48\n    /* \"#utility.yul\":1279:1283   */\n  dup3\n    /* \"#utility.yul\":1271:1277   */\n  dup3\n    /* \"#utility.yul\":1251:1284   */\n  tag_27\n  jump\t// in\ntag_48:\n    /* \"#utility.yul\":1161:1290   */\n  swap2\n  swap1\n  pop\n  jump\t// out\n    /* \"#utility.yul\":1296:1604   */\ntag_29:\n    /* \"#utility.yul\":1358:1362   */\n  0x00\n    /* \"#utility.yul\":1448:1466   */\n  0xffffffffffffffff\n    /* \"#utility.yul\":1440:1446   */\n  dup3\n    /* \"#utility.yul\":1437:1467   */\n  gt\n    /* \"#utility.yul\":1434:1490   */\n  iszero\n  tag_50\n  jumpi\n    /* \"#utility.yul\":1470:1488   */\n  tag_51\n  tag_26\n  jump\t// in\ntag_51:\n    /* \"#utility.yul\":1434:1490   */\ntag_50:\n    /* \"#utility.yul\":1508:1537   */\n  tag_52\n    /* \"#utility.yul\":1530:1536   */\n  dup3\n    /* \"#utility.yul\":1508:1537   */\n  tag_25\n  jump\t// in\ntag_52:\n    /* \"#utility.yul\":1500:1537   */\n  swap1\n  pop\n    /* \"#utility.yul\":1592:1596   */\n  0x20\n    /* \"#utility.yul\":1586:1590   */\n  dup2\n    /* \"#utility.yul\":1582:1597   */\n  add\n    /* \"#utility.yul\":1574:1597   */\n  swap1\n  pop\n    /* \"#utility.yul\":1296:1604   */\n  swap2\n  swap1\n  pop\n  jump\t// out\n    /* \"#utility.yul\":1610:1917   */\ntag_30:\n    /* \"#utility.yul\":1678:1679   */\n  0x00\n    /* \"#utility.yul\":1688:1801   */\ntag_54:\n    /* \"#utility.yul\":1702:1708   */\n  dup4\n    /* \"#utility.yul\":1699:1700   */\n  dup2\n    /* \"#utility.yul\":1696:1709   */\n  lt\n    /* \"#utility.yul\":1688:1801   */\n  iszero\n  tag_56\n  jumpi\n    /* \"#utility.yul\":1787:1788   */\n  dup1\n    /* \"#utility.yul\":1782:1785   */\n  dup3\n    /* \"#utility.yul\":1778:1789   */\n  add\n    /* \"#utility.yul\":1772:1790   */\n  mload\n    /* \"#utility.yul\":1768:1769   */\n  dup2\n    /* \"#utility.yul\":1763:1766   */\n  dup5\n    /* \"#utility.yul\":1759:1770   */\n  add\n    /* \"#utility.yul\":1752:1791   */\n  mstore\n    /* \"#utility.yul\":1724:1726   */\n  0x20\n    /* \"#utility.yul\":1721:1722   */\n  dup2\n    /* \"#utility.yul\":1717:1727   */\n  add\n    /* \"#utility.yul\":1712:1727   */\n  swap1\n  pop\n    /* \"#utility.yul\":1688:1801   */\n  jump(tag_54)\ntag_56:\n    /* \"#utility.yul\":1819:1825   */\n  dup4\n    /* \"#utility.yul\":1816:1817   */\n  dup2\n    /* \"#utility.yul\":1813:1826   */\n  gt\n    /* \"#utility.yul\":1810:1911   */\n  iszero\n  tag_57\n  jumpi\n    /* \"#utility.yul\":1899:1900   */\n  0x00\n    /* \"#utility.yul\":1890:1896   */\n  dup5\n    /* \"#utility.yul\":1885:1888   */\n  dup5\n    /* \"#utility.yul\":1881:1897   */\n  add\n    /* \"#utility.yul\":1874:1901   */\n  mstore\n    /* \"#utility.yul\":1810:1911   */\ntag_57:\n    /* \"#utility.yul\":1659:1917   */\n  pop\n    /* \"#utility.yul\":1610:1917   */\n  pop\n  pop\n  pop\n  jump\t// out\n    /* \"#utility.yul\":1923:2344   */\ntag_31:\n    /* \"#utility.yul\":2012:2017   */\n  0x00\n    /* \"#utility.yul\":2037:2103   */\n  tag_59\n    /* \"#utility.yul\":2053:2102   */\n  tag_60\n    /* \"#utility.yul\":2095:2101   */\n  dup5\n    /* \"#utility.yul\":2053:2102   */\n  tag_29\n  jump\t// in\ntag_60:\n    /* \"#utility.yul\":2037:2103   */\n  tag_28\n  jump\t// in\ntag_59:\n    /* \"#utility.yul\":2028:2103   */\n  swap1\n  pop\n    /* \"#utility.yul\":2126:2132   */\n  dup3\n    /* \"#utility.yul\":2119:2124   */\n  dup2\n    /* \"#utility.yul\":2112:2133   */\n  mstore\n    /* \"#utility.yul\":2164:2168   */\n  0x20\n    /* \"#utility.yul\":2157:2162   */\n  dup2\n    /* \"#utility.yul\":2153:2169   */\n  add\n    /* \"#utility.yul\":2202:2205   */\n  dup5\n    /* \"#utility.yul\":2193:2199   */\n  dup5\n    /* \"#utility.yul\":2188:2191   */\n  dup5\n    /* \"#utility.yul\":2184:2200   */\n  add\n    /* \"#utility.yul\":2181:2206   */\n  gt\n    /* \"#utility.yul\":2178:2290   */\n  iszero\n  tag_61\n  jumpi\n    /* \"#utility.yul\":2209:2288   */\n  tag_62\n  tag_24\n  jump\t// in\ntag_62:\n    /* \"#utility.yul\":2178:2290   */\ntag_61:\n    /* \"#utility.yul\":2299:2338   */\n  tag_63\n    /* \"#utility.yul\":2331:2337   */\n  dup5\n    /* \"#utility.yul\":2326:2329   */\n  dup3\n    /* \"#utility.yul\":2321:2324   */\n  dup6\n    /* \"#utility.yul\":2299:2338   */\n  tag_30\n  jump\t// in\ntag_63:\n    /* \"#utility.yul\":2018:2344   */\n  pop\n    /* \"#utility.yul\":1923:2344   */\n  swap4\n  swap3\n  pop\n  pop\n  pop\n  jump\t// out\n    /* \"#utility.yul\":2364:2719   */\ntag_32:\n    /* \"#utility.yul\":2431:2436   */\n  0x00\n    /* \"#utility.yul\":2480:2483   */\n  dup3\n    /* \"#utility.yul\":2473:2477   */\n  0x1f\n    /* \"#utility.yul\":2465:2471   */\n  dup4\n    /* \"#utility.yul\":2461:2478   */\n  add\n    /* \"#utility.yul\":2457:2484   */\n  slt\n    /* \"#utility.yul\":2447:2569   */\n  tag_65\n  jumpi\n    /* \"#utility.yul\":2488:2567   */\n  tag_66\n  tag_23\n  jump\t// in\ntag_66:\n    /* \"#utility.yul\":2447:2569   */\ntag_65:\n    /* \"#utility.yul\":2598:2604   */\n  dup2\n    /* \"#utility.yul\":2592:2605   */\n  mload\n    /* \"#utility.yul\":2623:2713   */\n  tag_67\n    /* \"#utility.yul\":2709:2712   */\n  dup5\n    /* \"#utility.yul\":2701:2707   */\n  dup3\n    /* \"#utility.yul\":2694:2698   */\n  0x20\n    /* \"#utility.yul\":2686:2692   */\n  dup7\n    /* \"#utility.yul\":2682:2699   */\n  add\n    /* \"#utility.yul\":2623:2713   */\n  tag_31\n  jump\t// in\ntag_67:\n    /* \"#utility.yul\":2614:2713   */\n  swap2\n  pop\n    /* \"#utility.yul\":2437:2719   */\n  pop\n    /* \"#utility.yul\":2364:2719   */\n  swap3\n  swap2\n  pop\n  pop\n  jump\t// out\n    /* \"#utility.yul\":2725:3249   */\ntag_3:\n    /* \"#utility.yul\":2805:2811   */\n  0x00\n    /* \"#utility.yul\":2854:2856   */\n  0x20\n    /* \"#utility.yul\":2842:2851   */\n  dup3\n    /* \"#utility.yul\":2833:2840   */\n  dup5\n    /* \"#utility.yul\":2829:2852   */\n  sub\n    /* \"#utility.yul\":2825:2857   */\n  slt\n    /* \"#utility.yul\":2822:2941   */\n  iszero\n  tag_69\n  jumpi\n    /* \"#utility.yul\":2860:2939   */\n  tag_70\n  tag_21\n  jump\t// in\ntag_70:\n    /* \"#utility.yul\":2822:2941   */\ntag_69:\n    /* \"#utility.yul\":3001:3002   */\n  0x00\n    /* \"#utility.yul\":2990:2999   */\n  dup3\n    /* \"#utility.yul\":2986:3003   */\n  add\n    /* \"#utility.yul\":2980:3004   */\n  mload\n    /* \"#utility.yul\":3031:3049   */\n  0xffffffffffffffff\n    /* \"#utility.yul\":3023:3029   */\n  dup2\n    /* \"#utility.yul\":3020:3050   */\n  gt\n    /* \"#utility.yul\":3017:3134   */\n  iszero\n  tag_71\n  jumpi\n    /* \"#utility.yul\":3053:3132   */\n  tag_72\n  tag_22\n  jump\t// in\ntag_72:\n    /* \"#utility.yul\":3017:3134   */\ntag_71:\n    /* \"#utility.yul\":3158:3232   */\n  tag_73\n    /* \"#utility.yul\":3224:3231   */\n  dup5\n    /* \"#utility.yul\":3215:3221   */\n  dup3\n    /* \"#utility.yul\":3204:3213   */\n  dup6\n    /* \"#utility.yul\":3200:3222   */\n  add\n    /* \"#utility.yul\":3158:3232   */\n  tag_32\n  jump\t// in\ntag_73:\n    /* \"#utility.yul\":3148:3232   */\n  swap2\n  pop\n    /* \"#utility.yul\":2951:3242   */\n  pop\n    /* \"#utility.yul\":2725:3249   */\n  swap3\n  swap2\n  pop\n  pop\n  jump\t// out\n    /* \"#utility.yul\":3255:3435   */\ntag_33:\n    /* \"#utility.yul\":3303:3380   */\n  0x4e487b7100000000000000000000000000000000000000000000000000000000\n    /* \"#utility.yul\":3300:3301   */\n  0x00\n    /* \"#utility.yul\":3293:3381   */\n  mstore\n    /* \"#utility.yul\":3400:3404   */\n  0x22\n    /* \"#utility.yul\":3397:3398   */\n  0x04\n    /* \"#utility.yul\":3390:3405   */\n  mstore\n    /* \"#utility.yul\":3424:3428   */\n  0x24\n    /* \"#utility.yul\":3421:3422   */\n  0x00\n    /* \"#utility.yul\":3414:3429   */\n  revert\n    /* \"#utility.yul\":3441:3761   */\ntag_10:\n    /* \"#utility.yul\":3485:3491   */\n  0x00\n    /* \"#utility.yul\":3522:3523   */\n  0x02\n    /* \"#utility.yul\":3516:3520   */\n  dup3\n    /* \"#utility.yul\":3512:3524   */\n  div\n    /* \"#utility.yul\":3502:3524   */\n  swap1\n  pop\n    /* \"#utility.yul\":3569:3570   */\n  0x01\n    /* \"#utility.yul\":3563:3567   */\n  dup3\n    /* \"#utility.yul\":3559:3571   */\n  and\n    /* \"#utility.yul\":3590:3608   */\n  dup1\n    /* \"#utility.yul\":3580:3661   */\n  tag_76\n  jumpi\n    /* \"#utility.yul\":3646:3650   */\n  0x7f\n    /* \"#utility.yul\":3638:3644   */\n  dup3\n    /* \"#utility.yul\":3634:3651   */\n  and\n    /* \"#utility.yul\":3624:3651   */\n  swap2\n  pop\n    /* \"#utility.yul\":3580:3661   */\ntag_76:\n    /* \"#utility.yul\":3708:3710   */\n  0x20\n    /* \"#utility.yul\":3700:3706   */\n  dup3\n    /* \"#utility.yul\":3697:3711   */\n  lt\n    /* \"#utility.yul\":3677:3695   */\n  dup2\n    /* \"#utility.yul\":3674:3712   */\n  eq\n    /* \"#utility.yul\":3671:3755   */\n  iszero\n  tag_77\n  jumpi\n    /* \"#utility.yul\":3727:3745   */\n  tag_78\n  tag_33\n  jump\t// in\ntag_78:\n    /* \"#utility.yul\":3671:3755   */\ntag_77:\n    /* \"#utility.yul\":3492:3761   */\n  pop\n    /* \"#utility.yul\":3441:3761   */\n  swap2\n  swap1\n  pop\n  jump\t// out\n    /* \"Main.sol\":7997:10032  contract RetailerContract {... */\ntag_8:\n  dataSize(sub_0)\n  dup1\n  dataOffset(sub_0)\n  0x00\n  codecopy\n  0x00\n  return\nstop\n\nsub_0: assembly {\n        /* \"Main.sol\":7997:10032  contract RetailerContract {... */\n      mstore(0x40, 0x80)\n      callvalue\n      dup1\n      iszero\n      tag_1\n      jumpi\n      0x00\n      dup1\n      revert\n    tag_1:\n      pop\n      jumpi(tag_2, lt(calldatasize, 0x04))\n      shr(0xe0, calldataload(0x00))\n      dup1\n      0x7dfe839b\n      gt\n      tag_12\n      jumpi\n      dup1\n      0x7dfe839b\n      eq\n      tag_7\n      jumpi\n      dup1\n      0xbfb231d2\n      eq\n      tag_8\n      jumpi\n      dup1\n      0xe0305f84\n      eq\n      tag_9\n      jumpi\n      dup1\n      0xec846ca7\n      eq\n      tag_10\n      jumpi\n      dup1\n      0xed0902c7\n      eq\n      tag_11\n      jumpi\n      jump(tag_2)\n    tag_12:\n      dup1\n      0x3129e773\n      eq\n      tag_3\n      jumpi\n      dup1\n      0x4ba1d6aa\n      eq\n      tag_4\n      jumpi\n      dup1\n      0x6605ff66\n      eq\n      tag_5\n      jumpi\n      dup1\n      0x6de2aff6\n      eq\n      tag_6\n      jumpi\n    tag_2:\n      0x00\n      dup1\n      revert\n        /* \"Main.sol\":8883:9263  function getItem(... */\n    tag_3:\n      tag_13\n      0x04\n      dup1\n      calldatasize\n      sub\n      dup2\n      add\n      swap1\n      tag_14\n      swap2\n      swap1\n      tag_15\n      jump\t// in\n    tag_14:\n      tag_16\n      jump\t// in\n    tag_13:\n      mload(0x40)\n      tag_17\n      swap5\n      swap4\n      swap3\n      swap2\n      swap1\n      tag_18\n      jump\t// in\n    tag_17:\n      mload(0x40)\n      dup1\n      swap2\n      sub\n      swap1\n      return\n        /* \"Main.sol\":9682:9772  function getAllItems() public view returns (Item[] memory) {... */\n    tag_4:\n      tag_19\n      tag_20\n      jump\t// in\n    tag_19:\n      mload(0x40)\n      tag_21\n      swap2\n      swap1\n      tag_22\n      jump\t// in\n    tag_21:\n      mload(0x40)\n      dup1\n      swap2\n      sub\n      swap1\n      return\n        /* \"Main.sol\":8126:8150  int256 public totalSales */\n    tag_5:\n      tag_23\n      tag_24\n      jump\t// in\n    tag_23:\n      mload(0x40)\n      tag_25\n      swap2\n      swap1\n      tag_26\n      jump\t// in\n    tag_25:\n      mload(0x40)\n      dup1\n      swap2\n      sub\n      swap1\n      return\n        /* \"Main.sol\":8030:8060  address public retailerAddress */\n    tag_6:\n      tag_27\n      tag_28\n      jump\t// in\n    tag_27:\n      mload(0x40)\n      tag_29\n      swap2\n      swap1\n      tag_30\n      jump\t// in\n    tag_29:\n      mload(0x40)\n      dup1\n      swap2\n      sub\n      swap1\n      return\n        /* \"Main.sol\":9780:10029  function adjustItemQuantity(... */\n    tag_7:\n      tag_31\n      0x04\n      dup1\n      calldatasize\n      sub\n      dup2\n      add\n      swap1\n      tag_32\n      swap2\n      swap1\n      tag_33\n      jump\t// in\n    tag_32:\n      tag_34\n      jump\t// in\n    tag_31:\n      stop\n        /* \"Main.sol\":8100:8119  Item[] public items */\n    tag_8:\n      tag_35\n      0x04\n      dup1\n      calldatasize\n      sub\n      dup2\n      add\n      swap1\n      tag_36\n      swap2\n      swap1\n      tag_15\n      jump\t// in\n    tag_36:\n      tag_37\n      jump\t// in\n    tag_35:\n      mload(0x40)\n      tag_38\n      swap5\n      swap4\n      swap3\n      swap2\n      swap1\n      tag_18\n      jump\t// in\n    tag_38:\n      mload(0x40)\n      dup1\n      swap2\n      sub\n      swap1\n      return\n        /* \"Main.sol\":8067:8093  string public retailerName */\n    tag_9:\n      tag_39\n      tag_40\n      jump\t// in\n    tag_39:\n      mload(0x40)\n      tag_41\n      swap2\n      swap1\n      tag_42\n      jump\t// in\n    tag_41:\n      mload(0x40)\n      dup1\n      swap2\n      sub\n      swap1\n      return\n        /* \"Main.sol\":8614:8875  function addItem(... */\n    tag_10:\n      tag_43\n      0x04\n      dup1\n      calldatasize\n      sub\n      dup2\n      add\n      swap1\n      tag_44\n      swap2\n      swap1\n      tag_45\n      jump\t// in\n    tag_44:\n      tag_46\n      jump\t// in\n    tag_43:\n      stop\n        /* \"Main.sol\":9271:9676  function sellItem(uint256 _index, int256 _quantity) public {... */\n    tag_11:\n      tag_47\n      0x04\n      dup1\n      calldatasize\n      sub\n      dup2\n      add\n      swap1\n      tag_48\n      swap2\n      swap1\n      tag_33\n      jump\t// in\n    tag_48:\n      tag_49\n      jump\t// in\n    tag_47:\n      stop\n        /* \"Main.sol\":8883:9263  function getItem(... */\n    tag_16:\n        /* \"Main.sol\":8953:8966  string memory */\n      0x60\n        /* \"Main.sol\":8968:8974  int256 */\n      0x00\n        /* \"Main.sol\":8976:8989  string memory */\n      0x60\n        /* \"Main.sol\":8991:8997  int256 */\n      0x00\n        /* \"Main.sol\":9027:9032  items */\n      0x02\n        /* \"Main.sol\":9027:9039  items.length */\n      dup1\n      sload\n      swap1\n      pop\n        /* \"Main.sol\":9018:9024  _index */\n      dup6\n        /* \"Main.sol\":9018:9039  _index < items.length */\n      lt\n        /* \"Main.sol\":9010:9063  require(_index < items.length, \"Index out of bounds\") */\n      tag_51\n      jumpi\n      mload(0x40)\n      0x08c379a000000000000000000000000000000000000000000000000000000000\n      dup2\n      mstore\n      0x04\n      add\n      tag_52\n      swap1\n      tag_53\n      jump\t// in\n    tag_52:\n      mload(0x40)\n      dup1\n      swap2\n      sub\n      swap1\n      revert\n    tag_51:\n        /* \"Main.sol\":9074:9090  Item memory item */\n      0x00\n        /* \"Main.sol\":9093:9098  items */\n      0x02\n        /* \"Main.sol\":9099:9105  _index */\n      dup7\n        /* \"Main.sol\":9093:9106  items[_index] */\n      dup2\n      sload\n      dup2\n      lt\n      tag_54\n      jumpi\n      tag_55\n      tag_56\n      jump\t// in\n    tag_55:\n    tag_54:\n      swap1\n      0x00\n      mstore\n      keccak256(0x00, 0x20)\n      swap1\n      0x04\n      mul\n      add\n        /* \"Main.sol\":9074:9106  Item memory item = items[_index] */\n      mload(0x40)\n      dup1\n      0x80\n      add\n      0x40\n      mstore\n      swap1\n      dup2\n      0x00\n      dup3\n      add\n      dup1\n      sload\n      tag_58\n      swap1\n      tag_59\n      jump\t// in\n    tag_58:\n      dup1\n      0x1f\n      add\n      0x20\n      dup1\n      swap2\n      div\n      mul\n      0x20\n      add\n      mload(0x40)\n      swap1\n      dup2\n      add\n      0x40\n      mstore\n      dup1\n      swap3\n      swap2\n      swap1\n      dup2\n      dup2\n      mstore\n      0x20\n      add\n      dup3\n      dup1\n      sload\n      tag_60\n      swap1\n      tag_59\n      jump\t// in\n    tag_60:\n      dup1\n      iszero\n      tag_61\n      jumpi\n      dup1\n      0x1f\n      lt\n      tag_62\n      jumpi\n      0x0100\n      dup1\n      dup4\n      sload\n      div\n      mul\n      dup4\n      mstore\n      swap2\n      0x20\n      add\n      swap2\n      jump(tag_61)\n    tag_62:\n      dup3\n      add\n      swap2\n      swap1\n      0x00\n      mstore\n      keccak256(0x00, 0x20)\n      swap1\n    tag_63:\n      dup2\n      sload\n      dup2\n      mstore\n      swap1\n      0x01\n      add\n      swap1\n      0x20\n      add\n      dup1\n      dup4\n      gt\n      tag_63\n      jumpi\n      dup3\n      swap1\n      sub\n      0x1f\n      and\n      dup3\n      add\n      swap2\n    tag_61:\n      pop\n      pop\n      pop\n      pop\n      pop\n      dup2\n      mstore\n      0x20\n      add\n      0x01\n      dup3\n      add\n      sload\n      dup2\n      mstore\n      0x20\n      add\n      0x02\n      dup3\n      add\n      dup1\n      sload\n      tag_64\n      swap1\n      tag_59\n      jump\t// in\n    tag_64:\n      dup1\n      0x1f\n      add\n      0x20\n      dup1\n      swap2\n      div\n      mul\n      0x20\n      add\n      mload(0x40)\n      swap1\n      dup2\n      add\n      0x40\n      mstore\n      dup1\n      swap3\n      swap2\n      swap1\n      dup2\n      dup2\n      mstore\n      0x20\n      add\n      dup3\n      dup1\n      sload\n      tag_65\n      swap1\n      tag_59\n      jump\t// in\n    tag_65:\n      dup1\n      iszero\n      tag_66\n      jumpi\n      dup1\n      0x1f\n      lt\n      tag_67\n      jumpi\n      0x0100\n      dup1\n      dup4\n      sload\n      div\n      mul\n      dup4\n      mstore\n      swap2\n      0x20\n      add\n      swap2\n      jump(tag_66)\n    tag_67:\n      dup3\n      add\n      swap2\n      swap1\n      0x00\n      mstore\n      keccak256(0x00, 0x20)\n      swap1\n    tag_68:\n      dup2\n      sload\n      dup2\n      mstore\n      swap1\n      0x01\n      add\n      swap1\n      0x20\n      add\n      dup1\n      dup4\n      gt\n      tag_68\n      jumpi\n      dup3\n      swap1\n      sub\n      0x1f\n      and\n      dup3\n      add\n      swap2\n    tag_66:\n      pop\n      pop\n      pop\n      pop\n      pop\n      dup2\n      mstore\n      0x20\n      add\n      0x03\n      dup3\n      add\n      sload\n      dup2\n      mstore\n      pop\n      pop\n      swap1\n      pop\n        /* \"Main.sol\":9139:9143  item */\n      dup1\n        /* \"Main.sol\":9139:9152  item.itemName */\n      0x00\n      add\n      mload\n        /* \"Main.sol\":9167:9171  item */\n      dup2\n        /* \"Main.sol\":9167:9181  item.itemPrice */\n      0x20\n      add\n      mload\n        /* \"Main.sol\":9196:9200  item */\n      dup3\n        /* \"Main.sol\":9196:9212  item.itemQuality */\n      0x40\n      add\n      mload\n        /* \"Main.sol\":9227:9231  item */\n      dup4\n        /* \"Main.sol\":9227:9244  item.itemQuantity */\n      0x60\n      add\n      mload\n        /* \"Main.sol\":9117:9255  return (... */\n      swap5\n      pop\n      swap5\n      pop\n      swap5\n      pop\n      swap5\n      pop\n      pop\n        /* \"Main.sol\":8883:9263  function getItem(... */\n      swap2\n      swap4\n      pop\n      swap2\n      swap4\n      jump\t// out\n        /* \"Main.sol\":9682:9772  function getAllItems() public view returns (Item[] memory) {... */\n    tag_20:\n        /* \"Main.sol\":9726:9739  Item[] memory */\n      0x60\n        /* \"Main.sol\":9759:9764  items */\n      0x02\n        /* \"Main.sol\":9752:9764  return items */\n      dup1\n      sload\n      dup1\n      0x20\n      mul\n      0x20\n      add\n      mload(0x40)\n      swap1\n      dup2\n      add\n      0x40\n      mstore\n      dup1\n      swap3\n      swap2\n      swap1\n      dup2\n      dup2\n      mstore\n      0x20\n      add\n      0x00\n      swap1\n    tag_70:\n      dup3\n      dup3\n      lt\n      iszero\n      tag_71\n      jumpi\n      dup4\n      dup3\n      swap1\n      0x00\n      mstore\n      keccak256(0x00, 0x20)\n      swap1\n      0x04\n      mul\n      add\n      mload(0x40)\n      dup1\n      0x80\n      add\n      0x40\n      mstore\n      swap1\n      dup2\n      0x00\n      dup3\n      add\n      dup1\n      sload\n      tag_73\n      swap1\n      tag_59\n      jump\t// in\n    tag_73:\n      dup1\n      0x1f\n      add\n      0x20\n      dup1\n      swap2\n      div\n      mul\n      0x20\n      add\n      mload(0x40)\n      swap1\n      dup2\n      add\n      0x40\n      mstore\n      dup1\n      swap3\n      swap2\n      swap1\n      dup2\n      dup2\n      mstore\n      0x20\n      add\n      dup3\n      dup1\n      sload\n      tag_74\n      swap1\n      tag_59\n      jump\t// in\n    tag_74:\n      dup1\n      iszero\n      tag_75\n      jumpi\n      dup1\n      0x1f\n      lt\n      tag_76\n      jumpi\n      0x0100\n      dup1\n      dup4\n      sload\n      div\n      mul\n      dup4\n      mstore\n      swap2\n      0x20\n      add\n      swap2\n      jump(tag_75)\n    tag_76:\n      dup3\n      add\n      swap2\n      swap1\n      0x00\n      mstore\n      keccak256(0x00, 0x20)\n      swap1\n    tag_77:\n      dup2\n      sload\n      dup2\n      mstore\n      swap1\n      0x01\n      add\n      swap1\n      0x20\n      add\n      dup1\n      dup4\n      gt\n      tag_77\n      jumpi\n      dup3\n      swap1\n      sub\n      0x1f\n      and\n      dup3\n      add\n      swap2\n    tag_75:\n      pop\n      pop\n      pop\n      pop\n      pop\n      dup2\n      mstore\n      0x20\n      add\n      0x01\n      dup3\n      add\n      sload\n      dup2\n      mstore\n      0x20\n      add\n      0x02\n      dup3\n      add\n      dup1\n      sload\n      tag_78\n      swap1\n      tag_59\n      jump\t// in\n    tag_78:\n      dup1\n      0x1f\n      add\n      0x20\n      dup1\n      swap2\n      div\n      mul\n      0x20\n      add\n      mload(0x40)\n      swap1\n      dup2\n      add\n      0x40\n      mstore\n      dup1\n      swap3\n      swap2\n      swap1\n      dup2\n      dup2\n      mstore\n      0x20\n      add\n      dup3\n      dup1\n      sload\n      tag_79\n      swap1\n      tag_59\n      jump\t// in\n    tag_79:\n      dup1\n      iszero\n      tag_80\n      jumpi\n      dup1\n      0x1f\n      lt\n      tag_81\n      jumpi\n      0x0100\n      dup1\n      dup4\n      sload\n      div\n      mul\n      dup4\n      mstore\n      swap2\n      0x20\n      add\n      swap2\n      jump(tag_80)\n    tag_81:\n      dup3\n      add\n      swap2\n      swap1\n      0x00\n      mstore\n      keccak256(0x00, 0x20)\n      swap1\n    tag_82:\n      dup2\n      sload\n      dup2\n      mstore\n      swap1\n      0x01\n      add\n      swap1\n      0x20\n      add\n      dup1\n      dup4\n      gt\n      tag_82\n      jumpi\n      dup3\n      swap1\n      sub\n      0x1f\n      and\n      dup3\n      add\n      swap2\n    tag_80:\n      pop\n      pop\n      pop\n      pop\n      pop\n      dup2\n      mstore\n      0x20\n      add\n      0x03\n      dup3\n      add\n      sload\n      dup2\n      mstore\n      pop\n      pop\n      dup2\n      mstore\n      0x20\n      add\n      swap1\n      0x01\n      add\n      swap1\n      jump(tag_70)\n    tag_71:\n      pop\n      pop\n      pop\n      pop\n      swap1\n      pop\n        /* \"Main.sol\":9682:9772  function getAllItems() public view returns (Item[] memory) {... */\n      swap1\n      jump\t// out\n        /* \"Main.sol\":8126:8150  int256 public totalSales */\n    tag_24:\n      sload(0x03)\n      dup2\n      jump\t// out\n        /* \"Main.sol\":8030:8060  address public retailerAddress */\n    tag_28:\n      0x00\n      dup1\n      sload\n      swap1\n      0x0100\n      exp\n      swap1\n      div\n      0xffffffffffffffffffffffffffffffffffffffff\n      and\n      dup2\n      jump\t// out\n        /* \"Main.sol\":9780:10029  function adjustItemQuantity(... */\n    tag_34:\n        /* \"Main.sol\":8370:8385  retailerAddress */\n      0x00\n      dup1\n      sload\n      swap1\n      0x0100\n      exp\n      swap1\n      div\n      0xffffffffffffffffffffffffffffffffffffffff\n      and\n        /* \"Main.sol\":8356:8385  msg.sender == retailerAddress */\n      0xffffffffffffffffffffffffffffffffffffffff\n      and\n        /* \"Main.sol\":8356:8366  msg.sender */\n      caller\n        /* \"Main.sol\":8356:8385  msg.sender == retailerAddress */\n      0xffffffffffffffffffffffffffffffffffffffff\n      and\n      eq\n        /* \"Main.sol\":8334:8451  require(... */\n      tag_84\n      jumpi\n      mload(0x40)\n      0x08c379a000000000000000000000000000000000000000000000000000000000\n      dup2\n      mstore\n      0x04\n      add\n      tag_85\n      swap1\n      tag_86\n      jump\t// in\n    tag_85:\n      mload(0x40)\n      dup1\n      swap2\n      sub\n      swap1\n      revert\n    tag_84:\n        /* \"Main.sol\":9925:9930  items */\n      0x02\n        /* \"Main.sol\":9925:9937  items.length */\n      dup1\n      sload\n      swap1\n      pop\n        /* \"Main.sol\":9916:9922  _index */\n      dup3\n        /* \"Main.sol\":9916:9937  _index < items.length */\n      lt\n        /* \"Main.sol\":9908:9961  require(_index < items.length, \"Index out of bounds\") */\n      tag_88\n      jumpi\n      mload(0x40)\n      0x08c379a000000000000000000000000000000000000000000000000000000000\n      dup2\n      mstore\n      0x04\n      add\n      tag_89\n      swap1\n      tag_53\n      jump\t// in\n    tag_89:\n      mload(0x40)\n      dup1\n      swap2\n      sub\n      swap1\n      revert\n    tag_88:\n        /* \"Main.sol\":10002:10021  _additionalQuantity */\n      dup1\n        /* \"Main.sol\":9972:9977  items */\n      0x02\n        /* \"Main.sol\":9978:9984  _index */\n      dup4\n        /* \"Main.sol\":9972:9985  items[_index] */\n      dup2\n      sload\n      dup2\n      lt\n      tag_90\n      jumpi\n      tag_91\n      tag_56\n      jump\t// in\n    tag_91:\n    tag_90:\n      swap1\n      0x00\n      mstore\n      keccak256(0x00, 0x20)\n      swap1\n      0x04\n      mul\n      add\n        /* \"Main.sol\":9972:9998  items[_index].itemQuantity */\n      0x03\n      add\n      0x00\n        /* \"Main.sol\":9972:10021  items[_index].itemQuantity += _additionalQuantity */\n      dup3\n      dup3\n      sload\n      tag_93\n      swap2\n      swap1\n      tag_94\n      jump\t// in\n    tag_93:\n      swap3\n      pop\n      pop\n      dup2\n      swap1\n      sstore\n      pop\n        /* \"Main.sol\":9780:10029  function adjustItemQuantity(... */\n      pop\n      pop\n      jump\t// out\n        /* \"Main.sol\":8100:8119  Item[] public items */\n    tag_37:\n      0x02\n      dup2\n      dup2\n      sload\n      dup2\n      lt\n      tag_95\n      jumpi\n      0x00\n      dup1\n      revert\n    tag_95:\n      swap1\n      0x00\n      mstore\n      keccak256(0x00, 0x20)\n      swap1\n      0x04\n      mul\n      add\n      0x00\n      swap2\n      pop\n      swap1\n      pop\n      dup1\n      0x00\n      add\n      dup1\n      sload\n      tag_97\n      swap1\n      tag_59\n      jump\t// in\n    tag_97:\n      dup1\n      0x1f\n      add\n      0x20\n      dup1\n      swap2\n      div\n      mul\n      0x20\n      add\n      mload(0x40)\n      swap1\n      dup2\n      add\n      0x40\n      mstore\n      dup1\n      swap3\n      swap2\n      swap1\n      dup2\n      dup2\n      mstore\n      0x20\n      add\n      dup3\n      dup1\n      sload\n      tag_98\n      swap1\n      tag_59\n      jump\t// in\n    tag_98:\n      dup1\n      iszero\n      tag_99\n      jumpi\n      dup1\n      0x1f\n      lt\n      tag_100\n      jumpi\n      0x0100\n      dup1\n      dup4\n      sload\n      div\n      mul\n      dup4\n      mstore\n      swap2\n      0x20\n      add\n      swap2\n      jump(tag_99)\n    tag_100:\n      dup3\n      add\n      swap2\n      swap1\n      0x00\n      mstore\n      keccak256(0x00, 0x20)\n      swap1\n    tag_101:\n      dup2\n      sload\n      dup2\n      mstore\n      swap1\n      0x01\n      add\n      swap1\n      0x20\n      add\n      dup1\n      dup4\n      gt\n      tag_101\n      jumpi\n      dup3\n      swap1\n      sub\n      0x1f\n      and\n      dup3\n      add\n      swap2\n    tag_99:\n      pop\n      pop\n      pop\n      pop\n      pop\n      swap1\n      dup1\n      0x01\n      add\n      sload\n      swap1\n      dup1\n      0x02\n      add\n      dup1\n      sload\n      tag_102\n      swap1\n      tag_59\n      jump\t// in\n    tag_102:\n      dup1\n      0x1f\n      add\n      0x20\n      dup1\n      swap2\n      div\n      mul\n      0x20\n      add\n      mload(0x40)\n      swap1\n      dup2\n      add\n      0x40\n      mstore\n      dup1\n      swap3\n      swap2\n      swap1\n      dup2\n      dup2\n      mstore\n      0x20\n      add\n      dup3\n      dup1\n      sload\n      tag_103\n      swap1\n      tag_59\n      jump\t// in\n    tag_103:\n      dup1\n      iszero\n      tag_104\n      jumpi\n      dup1\n      0x1f\n      lt\n      tag_105\n      jumpi\n      0x0100\n      dup1\n      dup4\n      sload\n      div\n      mul\n      dup4\n      mstore\n      swap2\n      0x20\n      add\n      swap2\n      jump(tag_104)\n    tag_105:\n      dup3\n      add\n      swap2\n      swap1\n      0x00\n      mstore\n      keccak256(0x00, 0x20)\n      swap1\n    tag_106:\n      dup2\n      sload\n      dup2\n      mstore\n      swap1\n      0x01\n      add\n      swap1\n      0x20\n      add\n      dup1\n      dup4\n      gt\n      tag_106\n      jumpi\n      dup3\n      swap1\n      sub\n      0x1f\n      and\n      dup3\n      add\n      swap2\n    tag_104:\n      pop\n      pop\n      pop\n      pop\n      pop\n      swap1\n      dup1\n      0x03\n      add\n      sload\n      swap1\n      pop\n      dup5\n      jump\t// out\n        /* \"Main.sol\":8067:8093  string public retailerName */\n    tag_40:\n      0x01\n      dup1\n      sload\n      tag_107\n      swap1\n      tag_59\n      jump\t// in\n    tag_107:\n      dup1\n      0x1f\n      add\n      0x20\n      dup1\n      swap2\n      div\n      mul\n      0x20\n      add\n      mload(0x40)\n      swap1\n      dup2\n      add\n      0x40\n      mstore\n      dup1\n      swap3\n      swap2\n      swap1\n      dup2\n      dup2\n      mstore\n      0x20\n      add\n      dup3\n      dup1\n      sload\n      tag_108\n      swap1\n      tag_59\n      jump\t// in\n    tag_108:\n      dup1\n      iszero\n      tag_109\n      jumpi\n      dup1\n      0x1f\n      lt\n      tag_110\n      jumpi\n      0x0100\n      dup1\n      dup4\n      sload\n      div\n      mul\n      dup4\n      mstore\n      swap2\n      0x20\n      add\n      swap2\n      jump(tag_109)\n    tag_110:\n      dup3\n      add\n      swap2\n      swap1\n      0x00\n      mstore\n      keccak256(0x00, 0x20)\n      swap1\n    tag_111:\n      dup2\n      sload\n      dup2\n      mstore\n      swap1\n      0x01\n      add\n      swap1\n      0x20\n      add\n      dup1\n      dup4\n      gt\n      tag_111\n      jumpi\n      dup3\n      swap1\n      sub\n      0x1f\n      and\n      dup3\n      add\n      swap2\n    tag_109:\n      pop\n      pop\n      pop\n      pop\n      pop\n      dup2\n      jump\t// out\n        /* \"Main.sol\":8614:8875  function addItem(... */\n    tag_46:\n        /* \"Main.sol\":8370:8385  retailerAddress */\n      0x00\n      dup1\n      sload\n      swap1\n      0x0100\n      exp\n      swap1\n      div\n      0xffffffffffffffffffffffffffffffffffffffff\n      and\n        /* \"Main.sol\":8356:8385  msg.sender == retailerAddress */\n      0xffffffffffffffffffffffffffffffffffffffff\n      and\n        /* \"Main.sol\":8356:8366  msg.sender */\n      caller\n        /* \"Main.sol\":8356:8385  msg.sender == retailerAddress */\n      0xffffffffffffffffffffffffffffffffffffffff\n      and\n      eq\n        /* \"Main.sol\":8334:8451  require(... */\n      tag_113\n      jumpi\n      mload(0x40)\n      0x08c379a000000000000000000000000000000000000000000000000000000000\n      dup2\n      mstore\n      0x04\n      add\n      tag_114\n      swap1\n      tag_86\n      jump\t// in\n    tag_114:\n      mload(0x40)\n      dup1\n      swap2\n      sub\n      swap1\n      revert\n    tag_113:\n        /* \"Main.sol\":8799:8804  items */\n      0x02\n        /* \"Main.sol\":8810:8866  Item(_itemName, _itemPrice, _itemQuality, _itemQuantity) */\n      mload(0x40)\n      dup1\n      0x80\n      add\n      0x40\n      mstore\n      dup1\n        /* \"Main.sol\":8815:8824  _itemName */\n      dup7\n        /* \"Main.sol\":8810:8866  Item(_itemName, _itemPrice, _itemQuality, _itemQuantity) */\n      dup2\n      mstore\n      0x20\n      add\n        /* \"Main.sol\":8826:8836  _itemPrice */\n      dup5\n        /* \"Main.sol\":8810:8866  Item(_itemName, _itemPrice, _itemQuality, _itemQuantity) */\n      dup2\n      mstore\n      0x20\n      add\n        /* \"Main.sol\":8838:8850  _itemQuality */\n      dup6\n        /* \"Main.sol\":8810:8866  Item(_itemName, _itemPrice, _itemQuality, _itemQuantity) */\n      dup2\n      mstore\n      0x20\n      add\n        /* \"Main.sol\":8852:8865  _itemQuantity */\n      dup4\n        /* \"Main.sol\":8810:8866  Item(_itemName, _itemPrice, _itemQuality, _itemQuantity) */\n      dup2\n      mstore\n      pop\n        /* \"Main.sol\":8799:8867  items.push(Item(_itemName, _itemPrice, _itemQuality, _itemQuantity)) */\n      swap1\n      dup1\n      0x01\n      dup2\n      sload\n      add\n      dup1\n      dup3\n      sstore\n      dup1\n      swap2\n      pop\n      pop\n      0x01\n      swap1\n      sub\n      swap1\n      0x00\n      mstore\n      keccak256(0x00, 0x20)\n      swap1\n      0x04\n      mul\n      add\n      0x00\n      swap1\n      swap2\n      swap1\n      swap2\n      swap1\n      swap2\n      pop\n      0x00\n      dup3\n      add\n      mload\n      dup2\n      0x00\n      add\n      swap1\n      dup1\n      mload\n      swap1\n      0x20\n      add\n      swap1\n      tag_117\n      swap3\n      swap2\n      swap1\n      tag_118\n      jump\t// in\n    tag_117:\n      pop\n      0x20\n      dup3\n      add\n      mload\n      dup2\n      0x01\n      add\n      sstore\n      0x40\n      dup3\n      add\n      mload\n      dup2\n      0x02\n      add\n      swap1\n      dup1\n      mload\n      swap1\n      0x20\n      add\n      swap1\n      tag_119\n      swap3\n      swap2\n      swap1\n      tag_118\n      jump\t// in\n    tag_119:\n      pop\n      0x60\n      dup3\n      add\n      mload\n      dup2\n      0x03\n      add\n      sstore\n      pop\n      pop\n        /* \"Main.sol\":8614:8875  function addItem(... */\n      pop\n      pop\n      pop\n      pop\n      jump\t// out\n        /* \"Main.sol\":9271:9676  function sellItem(uint256 _index, int256 _quantity) public {... */\n    tag_49:\n        /* \"Main.sol\":9358:9363  items */\n      0x02\n        /* \"Main.sol\":9358:9370  items.length */\n      dup1\n      sload\n      swap1\n      pop\n        /* \"Main.sol\":9349:9355  _index */\n      dup3\n        /* \"Main.sol\":9349:9370  _index < items.length */\n      lt\n        /* \"Main.sol\":9341:9394  require(_index < items.length, \"Index out of bounds\") */\n      tag_121\n      jumpi\n      mload(0x40)\n      0x08c379a000000000000000000000000000000000000000000000000000000000\n      dup2\n      mstore\n      0x04\n      add\n      tag_122\n      swap1\n      tag_53\n      jump\t// in\n    tag_122:\n      mload(0x40)\n      dup1\n      swap2\n      sub\n      swap1\n      revert\n    tag_121:\n        /* \"Main.sol\":9440:9445  items */\n      0x02\n        /* \"Main.sol\":9446:9452  _index */\n      dup3\n        /* \"Main.sol\":9440:9453  items[_index] */\n      dup2\n      sload\n      dup2\n      lt\n      tag_123\n      jumpi\n      tag_124\n      tag_56\n      jump\t// in\n    tag_124:\n    tag_123:\n      swap1\n      0x00\n      mstore\n      keccak256(0x00, 0x20)\n      swap1\n      0x04\n      mul\n      add\n        /* \"Main.sol\":9440:9466  items[_index].itemQuantity */\n      0x03\n      add\n      sload\n        /* \"Main.sol\":9427:9436  _quantity */\n      dup2\n        /* \"Main.sol\":9427:9466  _quantity <= items[_index].itemQuantity */\n      sgt\n      iszero\n        /* \"Main.sol\":9405:9515  require(... */\n      tag_126\n      jumpi\n      mload(0x40)\n      0x08c379a000000000000000000000000000000000000000000000000000000000\n      dup2\n      mstore\n      0x04\n      add\n      tag_127\n      swap1\n      tag_128\n      jump\t// in\n    tag_127:\n      mload(0x40)\n      dup1\n      swap2\n      sub\n      swap1\n      revert\n    tag_126:\n        /* \"Main.sol\":9528:9545  int256 totalPrice */\n      0x00\n        /* \"Main.sol\":9574:9583  _quantity */\n      dup2\n        /* \"Main.sol\":9548:9553  items */\n      0x02\n        /* \"Main.sol\":9554:9560  _index */\n      dup5\n        /* \"Main.sol\":9548:9561  items[_index] */\n      dup2\n      sload\n      dup2\n      lt\n      tag_129\n      jumpi\n      tag_130\n      tag_56\n      jump\t// in\n    tag_130:\n    tag_129:\n      swap1\n      0x00\n      mstore\n      keccak256(0x00, 0x20)\n      swap1\n      0x04\n      mul\n      add\n        /* \"Main.sol\":9548:9571  items[_index].itemPrice */\n      0x01\n      add\n      sload\n        /* \"Main.sol\":9548:9583  items[_index].itemPrice * _quantity */\n      tag_132\n      swap2\n      swap1\n      tag_133\n      jump\t// in\n    tag_132:\n        /* \"Main.sol\":9528:9583  int256 totalPrice = items[_index].itemPrice * _quantity */\n      swap1\n      pop\n        /* \"Main.sol\":9624:9633  _quantity */\n      dup2\n        /* \"Main.sol\":9594:9599  items */\n      0x02\n        /* \"Main.sol\":9600:9606  _index */\n      dup5\n        /* \"Main.sol\":9594:9607  items[_index] */\n      dup2\n      sload\n      dup2\n      lt\n      tag_134\n      jumpi\n      tag_135\n      tag_56\n      jump\t// in\n    tag_135:\n    tag_134:\n      swap1\n      0x00\n      mstore\n      keccak256(0x00, 0x20)\n      swap1\n      0x04\n      mul\n      add\n        /* \"Main.sol\":9594:9620  items[_index].itemQuantity */\n      0x03\n      add\n      0x00\n        /* \"Main.sol\":9594:9633  items[_index].itemQuantity -= _quantity */\n      dup3\n      dup3\n      sload\n      tag_137\n      swap2\n      swap1\n      tag_138\n      jump\t// in\n    tag_137:\n      swap3\n      pop\n      pop\n      dup2\n      swap1\n      sstore\n      pop\n        /* \"Main.sol\":9658:9668  totalPrice */\n      dup1\n        /* \"Main.sol\":9644:9654  totalSales */\n      0x03\n      0x00\n        /* \"Main.sol\":9644:9668  totalSales += totalPrice */\n      dup3\n      dup3\n      sload\n      tag_139\n      swap2\n      swap1\n      tag_94\n      jump\t// in\n    tag_139:\n      swap3\n      pop\n      pop\n      dup2\n      swap1\n      sstore\n      pop\n        /* \"Main.sol\":9330:9676  {... */\n      pop\n        /* \"Main.sol\":9271:9676  function sellItem(uint256 _index, int256 _quantity) public {... */\n      pop\n      pop\n      jump\t// out\n    tag_118:\n      dup3\n      dup1\n      sload\n      tag_140\n      swap1\n      tag_59\n      jump\t// in\n    tag_140:\n      swap1\n      0x00\n      mstore\n      keccak256(0x00, 0x20)\n      swap1\n      0x1f\n      add\n      0x20\n      swap1\n      div\n      dup2\n      add\n      swap3\n      dup3\n      tag_142\n      jumpi\n      0x00\n      dup6\n      sstore\n      jump(tag_141)\n    tag_142:\n      dup3\n      0x1f\n      lt\n      tag_143\n      jumpi\n      dup1\n      mload\n      not(0xff)\n      and\n      dup4\n      dup1\n      add\n      or\n      dup6\n      sstore\n      jump(tag_141)\n    tag_143:\n      dup3\n      dup1\n      add\n      0x01\n      add\n      dup6\n      sstore\n      dup3\n      iszero\n      tag_141\n      jumpi\n      swap2\n      dup3\n      add\n    tag_144:\n      dup3\n      dup2\n      gt\n      iszero\n      tag_145\n      jumpi\n      dup3\n      mload\n      dup3\n      sstore\n      swap2\n      0x20\n      add\n      swap2\n      swap1\n      0x01\n      add\n      swap1\n      jump(tag_144)\n    tag_145:\n    tag_141:\n      pop\n      swap1\n      pop\n      tag_146\n      swap2\n      swap1\n      tag_147\n      jump\t// in\n    tag_146:\n      pop\n      swap1\n      jump\t// out\n    tag_147:\n    tag_148:\n      dup1\n      dup3\n      gt\n      iszero\n      tag_149\n      jumpi\n      0x00\n      dup2\n      0x00\n      swap1\n      sstore\n      pop\n      0x01\n      add\n      jump(tag_148)\n    tag_149:\n      pop\n      swap1\n      jump\t// out\n        /* \"#utility.yul\":7:82   */\n    tag_150:\n        /* \"#utility.yul\":40:46   */\n      0x00\n        /* \"#utility.yul\":73:75   */\n      0x40\n        /* \"#utility.yul\":67:76   */\n      mload\n        /* \"#utility.yul\":57:76   */\n      swap1\n      pop\n        /* \"#utility.yul\":7:82   */\n      swap1\n      jump\t// out\n        /* \"#utility.yul\":88:205   */\n    tag_151:\n        /* \"#utility.yul\":197:198   */\n      0x00\n        /* \"#utility.yul\":194:195   */\n      dup1\n        /* \"#utility.yul\":187:199   */\n      revert\n        /* \"#utility.yul\":211:328   */\n    tag_152:\n        /* \"#utility.yul\":320:321   */\n      0x00\n        /* \"#utility.yul\":317:318   */\n      dup1\n        /* \"#utility.yul\":310:322   */\n      revert\n        /* \"#utility.yul\":334:411   */\n    tag_153:\n        /* \"#utility.yul\":371:378   */\n      0x00\n        /* \"#utility.yul\":400:405   */\n      dup2\n        /* \"#utility.yul\":389:405   */\n      swap1\n      pop\n        /* \"#utility.yul\":334:411   */\n      swap2\n      swap1\n      pop\n      jump\t// out\n        /* \"#utility.yul\":417:539   */\n    tag_154:\n        /* \"#utility.yul\":490:514   */\n      tag_201\n        /* \"#utility.yul\":508:513   */\n      dup2\n        /* \"#utility.yul\":490:514   */\n      tag_153\n      jump\t// in\n    tag_201:\n        /* \"#utility.yul\":483:488   */\n      dup2\n        /* \"#utility.yul\":480:515   */\n      eq\n        /* \"#utility.yul\":470:533   */\n      tag_202\n      jumpi\n        /* \"#utility.yul\":529:530   */\n      0x00\n        /* \"#utility.yul\":526:527   */\n      dup1\n        /* \"#utility.yul\":519:531   */\n      revert\n        /* \"#utility.yul\":470:533   */\n    tag_202:\n        /* \"#utility.yul\":417:539   */\n      pop\n      jump\t// out\n        /* \"#utility.yul\":545:684   */\n    tag_155:\n        /* \"#utility.yul\":591:596   */\n      0x00\n        /* \"#utility.yul\":629:635   */\n      dup2\n        /* \"#utility.yul\":616:636   */\n      calldataload\n        /* \"#utility.yul\":607:636   */\n      swap1\n      pop\n        /* \"#utility.yul\":645:678   */\n      tag_204\n        /* \"#utility.yul\":672:677   */\n      dup2\n        /* \"#utility.yul\":645:678   */\n      tag_154\n      jump\t// in\n    tag_204:\n        /* \"#utility.yul\":545:684   */\n      swap3\n      swap2\n      pop\n      pop\n      jump\t// out\n        /* \"#utility.yul\":690:1019   */\n    tag_15:\n        /* \"#utility.yul\":749:755   */\n      0x00\n        /* \"#utility.yul\":798:800   */\n      0x20\n        /* \"#utility.yul\":786:795   */\n      dup3\n        /* \"#utility.yul\":777:784   */\n      dup5\n        /* \"#utility.yul\":773:796   */\n      sub\n        /* \"#utility.yul\":769:801   */\n      slt\n        /* \"#utility.yul\":766:885   */\n      iszero\n      tag_206\n      jumpi\n        /* \"#utility.yul\":804:883   */\n      tag_207\n      tag_151\n      jump\t// in\n    tag_207:\n        /* \"#utility.yul\":766:885   */\n    tag_206:\n        /* \"#utility.yul\":924:925   */\n      0x00\n        /* \"#utility.yul\":949:1002   */\n      tag_208\n        /* \"#utility.yul\":994:1001   */\n      dup5\n        /* \"#utility.yul\":985:991   */\n      dup3\n        /* \"#utility.yul\":974:983   */\n      dup6\n        /* \"#utility.yul\":970:992   */\n      add\n        /* \"#utility.yul\":949:1002   */\n      tag_155\n      jump\t// in\n    tag_208:\n        /* \"#utility.yul\":939:1002   */\n      swap2\n      pop\n        /* \"#utility.yul\":895:1012   */\n      pop\n        /* \"#utility.yul\":690:1019   */\n      swap3\n      swap2\n      pop\n      pop\n      jump\t// out\n        /* \"#utility.yul\":1025:1124   */\n    tag_156:\n        /* \"#utility.yul\":1077:1083   */\n      0x00\n        /* \"#utility.yul\":1111:1116   */\n      dup2\n        /* \"#utility.yul\":1105:1117   */\n      mload\n        /* \"#utility.yul\":1095:1117   */\n      swap1\n      pop\n        /* \"#utility.yul\":1025:1124   */\n      swap2\n      swap1\n      pop\n      jump\t// out\n        /* \"#utility.yul\":1130:1299   */\n    tag_157:\n        /* \"#utility.yul\":1214:1225   */\n      0x00\n        /* \"#utility.yul\":1248:1254   */\n      dup3\n        /* \"#utility.yul\":1243:1246   */\n      dup3\n        /* \"#utility.yul\":1236:1255   */\n      mstore\n        /* \"#utility.yul\":1288:1292   */\n      0x20\n        /* \"#utility.yul\":1283:1286   */\n      dup3\n        /* \"#utility.yul\":1279:1293   */\n      add\n        /* \"#utility.yul\":1264:1293   */\n      swap1\n      pop\n        /* \"#utility.yul\":1130:1299   */\n      swap3\n      swap2\n      pop\n      pop\n      jump\t// out\n        /* \"#utility.yul\":1305:1612   */\n    tag_158:\n        /* \"#utility.yul\":1373:1374   */\n      0x00\n        /* \"#utility.yul\":1383:1496   */\n    tag_212:\n        /* \"#utility.yul\":1397:1403   */\n      dup4\n        /* \"#utility.yul\":1394:1395   */\n      dup2\n        /* \"#utility.yul\":1391:1404   */\n      lt\n        /* \"#utility.yul\":1383:1496   */\n      iszero\n      tag_214\n      jumpi\n        /* \"#utility.yul\":1482:1483   */\n      dup1\n        /* \"#utility.yul\":1477:1480   */\n      dup3\n        /* \"#utility.yul\":1473:1484   */\n      add\n        /* \"#utility.yul\":1467:1485   */\n      mload\n        /* \"#utility.yul\":1463:1464   */\n      dup2\n        /* \"#utility.yul\":1458:1461   */\n      dup5\n        /* \"#utility.yul\":1454:1465   */\n      add\n        /* \"#utility.yul\":1447:1486   */\n      mstore\n        /* \"#utility.yul\":1419:1421   */\n      0x20\n        /* \"#utility.yul\":1416:1417   */\n      dup2\n        /* \"#utility.yul\":1412:1422   */\n      add\n        /* \"#utility.yul\":1407:1422   */\n      swap1\n      pop\n        /* \"#utility.yul\":1383:1496   */\n      jump(tag_212)\n    tag_214:\n        /* \"#utility.yul\":1514:1520   */\n      dup4\n        /* \"#utility.yul\":1511:1512   */\n      dup2\n        /* \"#utility.yul\":1508:1521   */\n      gt\n        /* \"#utility.yul\":1505:1606   */\n      iszero\n      tag_215\n      jumpi\n        /* \"#utility.yul\":1594:1595   */\n      0x00\n        /* \"#utility.yul\":1585:1591   */\n      dup5\n        /* \"#utility.yul\":1580:1583   */\n      dup5\n        /* \"#utility.yul\":1576:1592   */\n      add\n        /* \"#utility.yul\":1569:1596   */\n      mstore\n        /* \"#utility.yul\":1505:1606   */\n    tag_215:\n        /* \"#utility.yul\":1354:1612   */\n      pop\n        /* \"#utility.yul\":1305:1612   */\n      pop\n      pop\n      pop\n      jump\t// out\n        /* \"#utility.yul\":1618:1720   */\n    tag_159:\n        /* \"#utility.yul\":1659:1665   */\n      0x00\n        /* \"#utility.yul\":1710:1712   */\n      0x1f\n        /* \"#utility.yul\":1706:1713   */\n      not\n        /* \"#utility.yul\":1701:1703   */\n      0x1f\n        /* \"#utility.yul\":1694:1699   */\n      dup4\n        /* \"#utility.yul\":1690:1704   */\n      add\n        /* \"#utility.yul\":1686:1714   */\n      and\n        /* \"#utility.yul\":1676:1714   */\n      swap1\n      pop\n        /* \"#utility.yul\":1618:1720   */\n      swap2\n      swap1\n      pop\n      jump\t// out\n        /* \"#utility.yul\":1726:2090   */\n    tag_160:\n        /* \"#utility.yul\":1814:1817   */\n      0x00\n        /* \"#utility.yul\":1842:1881   */\n      tag_218\n        /* \"#utility.yul\":1875:1880   */\n      dup3\n        /* \"#utility.yul\":1842:1881   */\n      tag_156\n      jump\t// in\n    tag_218:\n        /* \"#utility.yul\":1897:1968   */\n      tag_219\n        /* \"#utility.yul\":1961:1967   */\n      dup2\n        /* \"#utility.yul\":1956:1959   */\n      dup6\n        /* \"#utility.yul\":1897:1968   */\n      tag_157\n      jump\t// in\n    tag_219:\n        /* \"#utility.yul\":1890:1968   */\n      swap4\n      pop\n        /* \"#utility.yul\":1977:2029   */\n      tag_220\n        /* \"#utility.yul\":2022:2028   */\n      dup2\n        /* \"#utility.yul\":2017:2020   */\n      dup6\n        /* \"#utility.yul\":2010:2014   */\n      0x20\n        /* \"#utility.yul\":2003:2008   */\n      dup7\n        /* \"#utility.yul\":1999:2015   */\n      add\n        /* \"#utility.yul\":1977:2029   */\n      tag_158\n      jump\t// in\n    tag_220:\n        /* \"#utility.yul\":2054:2083   */\n      tag_221\n        /* \"#utility.yul\":2076:2082   */\n      dup2\n        /* \"#utility.yul\":2054:2083   */\n      tag_159\n      jump\t// in\n    tag_221:\n        /* \"#utility.yul\":2049:2052   */\n      dup5\n        /* \"#utility.yul\":2045:2084   */\n      add\n        /* \"#utility.yul\":2038:2084   */\n      swap2\n      pop\n        /* \"#utility.yul\":1818:2090   */\n      pop\n        /* \"#utility.yul\":1726:2090   */\n      swap3\n      swap2\n      pop\n      pop\n      jump\t// out\n        /* \"#utility.yul\":2096:2172   */\n    tag_161:\n        /* \"#utility.yul\":2132:2139   */\n      0x00\n        /* \"#utility.yul\":2161:2166   */\n      dup2\n        /* \"#utility.yul\":2150:2166   */\n      swap1\n      pop\n        /* \"#utility.yul\":2096:2172   */\n      swap2\n      swap1\n      pop\n      jump\t// out\n        /* \"#utility.yul\":2178:2293   */\n    tag_162:\n        /* \"#utility.yul\":2263:2286   */\n      tag_224\n        /* \"#utility.yul\":2280:2285   */\n      dup2\n        /* \"#utility.yul\":2263:2286   */\n      tag_161\n      jump\t// in\n    tag_224:\n        /* \"#utility.yul\":2258:2261   */\n      dup3\n        /* \"#utility.yul\":2251:2287   */\n      mstore\n        /* \"#utility.yul\":2178:2293   */\n      pop\n      pop\n      jump\t// out\n        /* \"#utility.yul\":2299:3026   */\n    tag_18:\n        /* \"#utility.yul\":2512:2516   */\n      0x00\n        /* \"#utility.yul\":2550:2553   */\n      0x80\n        /* \"#utility.yul\":2539:2548   */\n      dup3\n        /* \"#utility.yul\":2535:2554   */\n      add\n        /* \"#utility.yul\":2527:2554   */\n      swap1\n      pop\n        /* \"#utility.yul\":2600:2609   */\n      dup2\n        /* \"#utility.yul\":2594:2598   */\n      dup2\n        /* \"#utility.yul\":2590:2610   */\n      sub\n        /* \"#utility.yul\":2586:2587   */\n      0x00\n        /* \"#utility.yul\":2575:2584   */\n      dup4\n        /* \"#utility.yul\":2571:2588   */\n      add\n        /* \"#utility.yul\":2564:2611   */\n      mstore\n        /* \"#utility.yul\":2628:2706   */\n      tag_226\n        /* \"#utility.yul\":2701:2705   */\n      dup2\n        /* \"#utility.yul\":2692:2698   */\n      dup8\n        /* \"#utility.yul\":2628:2706   */\n      tag_160\n      jump\t// in\n    tag_226:\n        /* \"#utility.yul\":2620:2706   */\n      swap1\n      pop\n        /* \"#utility.yul\":2716:2786   */\n      tag_227\n        /* \"#utility.yul\":2782:2784   */\n      0x20\n        /* \"#utility.yul\":2771:2780   */\n      dup4\n        /* \"#utility.yul\":2767:2785   */\n      add\n        /* \"#utility.yul\":2758:2764   */\n      dup7\n        /* \"#utility.yul\":2716:2786   */\n      tag_162\n      jump\t// in\n    tag_227:\n        /* \"#utility.yul\":2833:2842   */\n      dup2\n        /* \"#utility.yul\":2827:2831   */\n      dup2\n        /* \"#utility.yul\":2823:2843   */\n      sub\n        /* \"#utility.yul\":2818:2820   */\n      0x40\n        /* \"#utility.yul\":2807:2816   */\n      dup4\n        /* \"#utility.yul\":2803:2821   */\n      add\n        /* \"#utility.yul\":2796:2844   */\n      mstore\n        /* \"#utility.yul\":2861:2939   */\n      tag_228\n        /* \"#utility.yul\":2934:2938   */\n      dup2\n        /* \"#utility.yul\":2925:2931   */\n      dup6\n        /* \"#utility.yul\":2861:2939   */\n      tag_160\n      jump\t// in\n    tag_228:\n        /* \"#utility.yul\":2853:2939   */\n      swap1\n      pop\n        /* \"#utility.yul\":2949:3019   */\n      tag_229\n        /* \"#utility.yul\":3015:3017   */\n      0x60\n        /* \"#utility.yul\":3004:3013   */\n      dup4\n        /* \"#utility.yul\":3000:3018   */\n      add\n        /* \"#utility.yul\":2991:2997   */\n      dup5\n        /* \"#utility.yul\":2949:3019   */\n      tag_162\n      jump\t// in\n    tag_229:\n        /* \"#utility.yul\":2299:3026   */\n      swap6\n      swap5\n      pop\n      pop\n      pop\n      pop\n      pop\n      jump\t// out\n        /* \"#utility.yul\":3032:3167   */\n    tag_163:\n        /* \"#utility.yul\":3120:3126   */\n      0x00\n        /* \"#utility.yul\":3154:3159   */\n      dup2\n        /* \"#utility.yul\":3148:3160   */\n      mload\n        /* \"#utility.yul\":3138:3160   */\n      swap1\n      pop\n        /* \"#utility.yul\":3032:3167   */\n      swap2\n      swap1\n      pop\n      jump\t// out\n        /* \"#utility.yul\":3173:3378   */\n    tag_164:\n        /* \"#utility.yul\":3293:3304   */\n      0x00\n        /* \"#utility.yul\":3327:3333   */\n      dup3\n        /* \"#utility.yul\":3322:3325   */\n      dup3\n        /* \"#utility.yul\":3315:3334   */\n      mstore\n        /* \"#utility.yul\":3367:3371   */\n      0x20\n        /* \"#utility.yul\":3362:3365   */\n      dup3\n        /* \"#utility.yul\":3358:3372   */\n      add\n        /* \"#utility.yul\":3343:3372   */\n      swap1\n      pop\n        /* \"#utility.yul\":3173:3378   */\n      swap3\n      swap2\n      pop\n      pop\n      jump\t// out\n        /* \"#utility.yul\":3384:3537   */\n    tag_165:\n        /* \"#utility.yul\":3472:3476   */\n      0x00\n        /* \"#utility.yul\":3495:3498   */\n      dup2\n        /* \"#utility.yul\":3487:3498   */\n      swap1\n      pop\n        /* \"#utility.yul\":3525:3529   */\n      0x20\n        /* \"#utility.yul\":3520:3523   */\n      dup3\n        /* \"#utility.yul\":3516:3530   */\n      add\n        /* \"#utility.yul\":3508:3530   */\n      swap1\n      pop\n        /* \"#utility.yul\":3384:3537   */\n      swap2\n      swap1\n      pop\n      jump\t// out\n        /* \"#utility.yul\":3543:3702   */\n    tag_166:\n        /* \"#utility.yul\":3617:3628   */\n      0x00\n        /* \"#utility.yul\":3651:3657   */\n      dup3\n        /* \"#utility.yul\":3646:3649   */\n      dup3\n        /* \"#utility.yul\":3639:3658   */\n      mstore\n        /* \"#utility.yul\":3691:3695   */\n      0x20\n        /* \"#utility.yul\":3686:3689   */\n      dup3\n        /* \"#utility.yul\":3682:3696   */\n      add\n        /* \"#utility.yul\":3667:3696   */\n      swap1\n      pop\n        /* \"#utility.yul\":3543:3702   */\n      swap3\n      swap2\n      pop\n      pop\n      jump\t// out\n        /* \"#utility.yul\":3708:4052   */\n    tag_167:\n        /* \"#utility.yul\":3786:3789   */\n      0x00\n        /* \"#utility.yul\":3814:3853   */\n      tag_235\n        /* \"#utility.yul\":3847:3852   */\n      dup3\n        /* \"#utility.yul\":3814:3853   */\n      tag_156\n      jump\t// in\n    tag_235:\n        /* \"#utility.yul\":3869:3930   */\n      tag_236\n        /* \"#utility.yul\":3923:3929   */\n      dup2\n        /* \"#utility.yul\":3918:3921   */\n      dup6\n        /* \"#utility.yul\":3869:3930   */\n      tag_166\n      jump\t// in\n    tag_236:\n        /* \"#utility.yul\":3862:3930   */\n      swap4\n      pop\n        /* \"#utility.yul\":3939:3991   */\n      tag_237\n        /* \"#utility.yul\":3984:3990   */\n      dup2\n        /* \"#utility.yul\":3979:3982   */\n      dup6\n        /* \"#utility.yul\":3972:3976   */\n      0x20\n        /* \"#utility.yul\":3965:3970   */\n      dup7\n        /* \"#utility.yul\":3961:3977   */\n      add\n        /* \"#utility.yul\":3939:3991   */\n      tag_158\n      jump\t// in\n    tag_237:\n        /* \"#utility.yul\":4016:4045   */\n      tag_238\n        /* \"#utility.yul\":4038:4044   */\n      dup2\n        /* \"#utility.yul\":4016:4045   */\n      tag_159\n      jump\t// in\n    tag_238:\n        /* \"#utility.yul\":4011:4014   */\n      dup5\n        /* \"#utility.yul\":4007:4046   */\n      add\n        /* \"#utility.yul\":4000:4046   */\n      swap2\n      pop\n        /* \"#utility.yul\":3790:4052   */\n      pop\n        /* \"#utility.yul\":3708:4052   */\n      swap3\n      swap2\n      pop\n      pop\n      jump\t// out\n        /* \"#utility.yul\":4058:4163   */\n    tag_168:\n        /* \"#utility.yul\":4133:4156   */\n      tag_240\n        /* \"#utility.yul\":4150:4155   */\n      dup2\n        /* \"#utility.yul\":4133:4156   */\n      tag_161\n      jump\t// in\n    tag_240:\n        /* \"#utility.yul\":4128:4131   */\n      dup3\n        /* \"#utility.yul\":4121:4157   */\n      mstore\n        /* \"#utility.yul\":4058:4163   */\n      pop\n      pop\n      jump\t// out\n        /* \"#utility.yul\":4237:5264   */\n    tag_169:\n        /* \"#utility.yul\":4338:4341   */\n      0x00\n        /* \"#utility.yul\":4374:4378   */\n      0x80\n        /* \"#utility.yul\":4369:4372   */\n      dup4\n        /* \"#utility.yul\":4365:4379   */\n      add\n        /* \"#utility.yul\":4465:4469   */\n      0x00\n        /* \"#utility.yul\":4458:4463   */\n      dup4\n        /* \"#utility.yul\":4454:4470   */\n      add\n        /* \"#utility.yul\":4448:4471   */\n      mload\n        /* \"#utility.yul\":4518:4521   */\n      dup5\n        /* \"#utility.yul\":4512:4516   */\n      dup3\n        /* \"#utility.yul\":4508:4522   */\n      sub\n        /* \"#utility.yul\":4501:4505   */\n      0x00\n        /* \"#utility.yul\":4496:4499   */\n      dup7\n        /* \"#utility.yul\":4492:4506   */\n      add\n        /* \"#utility.yul\":4485:4523   */\n      mstore\n        /* \"#utility.yul\":4544:4617   */\n      tag_242\n        /* \"#utility.yul\":4612:4616   */\n      dup3\n        /* \"#utility.yul\":4598:4610   */\n      dup3\n        /* \"#utility.yul\":4544:4617   */\n      tag_167\n      jump\t// in\n    tag_242:\n        /* \"#utility.yul\":4536:4617   */\n      swap2\n      pop\n        /* \"#utility.yul\":4389:4628   */\n      pop\n        /* \"#utility.yul\":4715:4719   */\n      0x20\n        /* \"#utility.yul\":4708:4713   */\n      dup4\n        /* \"#utility.yul\":4704:4720   */\n      add\n        /* \"#utility.yul\":4698:4721   */\n      mload\n        /* \"#utility.yul\":4734:4795   */\n      tag_243\n        /* \"#utility.yul\":4789:4793   */\n      0x20\n        /* \"#utility.yul\":4784:4787   */\n      dup7\n        /* \"#utility.yul\":4780:4794   */\n      add\n        /* \"#utility.yul\":4766:4778   */\n      dup3\n        /* \"#utility.yul\":4734:4795   */\n      tag_168\n      jump\t// in\n    tag_243:\n        /* \"#utility.yul\":4638:4805   */\n      pop\n        /* \"#utility.yul\":4894:4898   */\n      0x40\n        /* \"#utility.yul\":4887:4892   */\n      dup4\n        /* \"#utility.yul\":4883:4899   */\n      add\n        /* \"#utility.yul\":4877:4900   */\n      mload\n        /* \"#utility.yul\":4947:4950   */\n      dup5\n        /* \"#utility.yul\":4941:4945   */\n      dup3\n        /* \"#utility.yul\":4937:4951   */\n      sub\n        /* \"#utility.yul\":4930:4934   */\n      0x40\n        /* \"#utility.yul\":4925:4928   */\n      dup7\n        /* \"#utility.yul\":4921:4935   */\n      add\n        /* \"#utility.yul\":4914:4952   */\n      mstore\n        /* \"#utility.yul\":4973:5046   */\n      tag_244\n        /* \"#utility.yul\":5041:5045   */\n      dup3\n        /* \"#utility.yul\":5027:5039   */\n      dup3\n        /* \"#utility.yul\":4973:5046   */\n      tag_167\n      jump\t// in\n    tag_244:\n        /* \"#utility.yul\":4965:5046   */\n      swap2\n      pop\n        /* \"#utility.yul\":4815:5057   */\n      pop\n        /* \"#utility.yul\":5147:5151   */\n      0x60\n        /* \"#utility.yul\":5140:5145   */\n      dup4\n        /* \"#utility.yul\":5136:5152   */\n      add\n        /* \"#utility.yul\":5130:5153   */\n      mload\n        /* \"#utility.yul\":5166:5227   */\n      tag_245\n        /* \"#utility.yul\":5221:5225   */\n      0x60\n        /* \"#utility.yul\":5216:5219   */\n      dup7\n        /* \"#utility.yul\":5212:5226   */\n      add\n        /* \"#utility.yul\":5198:5210   */\n      dup3\n        /* \"#utility.yul\":5166:5227   */\n      tag_168\n      jump\t// in\n    tag_245:\n        /* \"#utility.yul\":5067:5237   */\n      pop\n        /* \"#utility.yul\":5254:5258   */\n      dup1\n        /* \"#utility.yul\":5247:5258   */\n      swap2\n      pop\n        /* \"#utility.yul\":4343:5264   */\n      pop\n        /* \"#utility.yul\":4237:5264   */\n      swap3\n      swap2\n      pop\n      pop\n      jump\t// out\n        /* \"#utility.yul\":5270:5510   */\n    tag_170:\n        /* \"#utility.yul\":5381:5391   */\n      0x00\n        /* \"#utility.yul\":5416:5504   */\n      tag_247\n        /* \"#utility.yul\":5500:5503   */\n      dup4\n        /* \"#utility.yul\":5492:5498   */\n      dup4\n        /* \"#utility.yul\":5416:5504   */\n      tag_169\n      jump\t// in\n    tag_247:\n        /* \"#utility.yul\":5402:5504   */\n      swap1\n      pop\n        /* \"#utility.yul\":5270:5510   */\n      swap3\n      swap2\n      pop\n      pop\n      jump\t// out\n        /* \"#utility.yul\":5516:5650   */\n    tag_171:\n        /* \"#utility.yul\":5607:5611   */\n      0x00\n        /* \"#utility.yul\":5639:5643   */\n      0x20\n        /* \"#utility.yul\":5634:5637   */\n      dup3\n        /* \"#utility.yul\":5630:5644   */\n      add\n        /* \"#utility.yul\":5622:5644   */\n      swap1\n      pop\n        /* \"#utility.yul\":5516:5650   */\n      swap2\n      swap1\n      pop\n      jump\t// out\n        /* \"#utility.yul\":5728:6807   */\n    tag_172:\n        /* \"#utility.yul\":5889:5892   */\n      0x00\n        /* \"#utility.yul\":5918:5993   */\n      tag_250\n        /* \"#utility.yul\":5987:5992   */\n      dup3\n        /* \"#utility.yul\":5918:5993   */\n      tag_163\n      jump\t// in\n    tag_250:\n        /* \"#utility.yul\":6009:6116   */\n      tag_251\n        /* \"#utility.yul\":6109:6115   */\n      dup2\n        /* \"#utility.yul\":6104:6107   */\n      dup6\n        /* \"#utility.yul\":6009:6116   */\n      tag_164\n      jump\t// in\n    tag_251:\n        /* \"#utility.yul\":6002:6116   */\n      swap4\n      pop\n        /* \"#utility.yul\":6142:6145   */\n      dup4\n        /* \"#utility.yul\":6187:6191   */\n      0x20\n        /* \"#utility.yul\":6179:6185   */\n      dup3\n        /* \"#utility.yul\":6175:6192   */\n      mul\n        /* \"#utility.yul\":6170:6173   */\n      dup6\n        /* \"#utility.yul\":6166:6193   */\n      add\n        /* \"#utility.yul\":6217:6294   */\n      tag_252\n        /* \"#utility.yul\":6288:6293   */\n      dup6\n        /* \"#utility.yul\":6217:6294   */\n      tag_165\n      jump\t// in\n    tag_252:\n        /* \"#utility.yul\":6317:6324   */\n      dup1\n        /* \"#utility.yul\":6348:6349   */\n      0x00\n        /* \"#utility.yul\":6333:6762   */\n    tag_253:\n        /* \"#utility.yul\":6358:6364   */\n      dup6\n        /* \"#utility.yul\":6355:6356   */\n      dup2\n        /* \"#utility.yul\":6352:6365   */\n      lt\n        /* \"#utility.yul\":6333:6762   */\n      iszero\n      tag_255\n      jumpi\n        /* \"#utility.yul\":6429:6438   */\n      dup5\n        /* \"#utility.yul\":6423:6427   */\n      dup5\n        /* \"#utility.yul\":6419:6439   */\n      sub\n        /* \"#utility.yul\":6414:6417   */\n      dup10\n        /* \"#utility.yul\":6407:6440   */\n      mstore\n        /* \"#utility.yul\":6480:6486   */\n      dup2\n        /* \"#utility.yul\":6474:6487   */\n      mload\n        /* \"#utility.yul\":6508:6614   */\n      tag_256\n        /* \"#utility.yul\":6609:6613   */\n      dup6\n        /* \"#utility.yul\":6594:6607   */\n      dup3\n        /* \"#utility.yul\":6508:6614   */\n      tag_170\n      jump\t// in\n    tag_256:\n        /* \"#utility.yul\":6500:6614   */\n      swap5\n      pop\n        /* \"#utility.yul\":6637:6718   */\n      tag_257\n        /* \"#utility.yul\":6711:6717   */\n      dup4\n        /* \"#utility.yul\":6637:6718   */\n      tag_171\n      jump\t// in\n    tag_257:\n        /* \"#utility.yul\":6627:6718   */\n      swap3\n      pop\n        /* \"#utility.yul\":6747:6751   */\n      0x20\n        /* \"#utility.yul\":6742:6745   */\n      dup11\n        /* \"#utility.yul\":6738:6752   */\n      add\n        /* \"#utility.yul\":6731:6752   */\n      swap10\n      pop\n        /* \"#utility.yul\":6393:6762   */\n      pop\n        /* \"#utility.yul\":6380:6381   */\n      0x01\n        /* \"#utility.yul\":6377:6378   */\n      dup2\n        /* \"#utility.yul\":6373:6382   */\n      add\n        /* \"#utility.yul\":6368:6382   */\n      swap1\n      pop\n        /* \"#utility.yul\":6333:6762   */\n      jump(tag_253)\n    tag_255:\n        /* \"#utility.yul\":6337:6351   */\n      pop\n        /* \"#utility.yul\":6778:6782   */\n      dup3\n        /* \"#utility.yul\":6771:6782   */\n      swap8\n      pop\n        /* \"#utility.yul\":6798:6801   */\n      dup8\n        /* \"#utility.yul\":6791:6801   */\n      swap6\n      pop\n        /* \"#utility.yul\":5894:6807   */\n      pop\n      pop\n      pop\n      pop\n      pop\n        /* \"#utility.yul\":5728:6807   */\n      swap3\n      swap2\n      pop\n      pop\n      jump\t// out\n        /* \"#utility.yul\":6813:7270   */\n    tag_22:\n        /* \"#utility.yul\":6998:7002   */\n      0x00\n        /* \"#utility.yul\":7036:7038   */\n      0x20\n        /* \"#utility.yul\":7025:7034   */\n      dup3\n        /* \"#utility.yul\":7021:7039   */\n      add\n        /* \"#utility.yul\":7013:7039   */\n      swap1\n      pop\n        /* \"#utility.yul\":7085:7094   */\n      dup2\n        /* \"#utility.yul\":7079:7083   */\n      dup2\n        /* \"#utility.yul\":7075:7095   */\n      sub\n        /* \"#utility.yul\":7071:7072   */\n      0x00\n        /* \"#utility.yul\":7060:7069   */\n      dup4\n        /* \"#utility.yul\":7056:7073   */\n      add\n        /* \"#utility.yul\":7049:7096   */\n      mstore\n        /* \"#utility.yul\":7113:7263   */\n      tag_259\n        /* \"#utility.yul\":7258:7262   */\n      dup2\n        /* \"#utility.yul\":7249:7255   */\n      dup5\n        /* \"#utility.yul\":7113:7263   */\n      tag_172\n      jump\t// in\n    tag_259:\n        /* \"#utility.yul\":7105:7263   */\n      swap1\n      pop\n        /* \"#utility.yul\":6813:7270   */\n      swap3\n      swap2\n      pop\n      pop\n      jump\t// out\n        /* \"#utility.yul\":7276:7494   */\n    tag_26:\n        /* \"#utility.yul\":7367:7371   */\n      0x00\n        /* \"#utility.yul\":7405:7407   */\n      0x20\n        /* \"#utility.yul\":7394:7403   */\n      dup3\n        /* \"#utility.yul\":7390:7408   */\n      add\n        /* \"#utility.yul\":7382:7408   */\n      swap1\n      pop\n        /* \"#utility.yul\":7418:7487   */\n      tag_261\n        /* \"#utility.yul\":7484:7485   */\n      0x00\n        /* \"#utility.yul\":7473:7482   */\n      dup4\n        /* \"#utility.yul\":7469:7486   */\n      add\n        /* \"#utility.yul\":7460:7466   */\n      dup5\n        /* \"#utility.yul\":7418:7487   */\n      tag_162\n      jump\t// in\n    tag_261:\n        /* \"#utility.yul\":7276:7494   */\n      swap3\n      swap2\n      pop\n      pop\n      jump\t// out\n        /* \"#utility.yul\":7500:7626   */\n    tag_173:\n        /* \"#utility.yul\":7537:7544   */\n      0x00\n        /* \"#utility.yul\":7577:7619   */\n      0xffffffffffffffffffffffffffffffffffffffff\n        /* \"#utility.yul\":7570:7575   */\n      dup3\n        /* \"#utility.yul\":7566:7620   */\n      and\n        /* \"#utility.yul\":7555:7620   */\n      swap1\n      pop\n        /* \"#utility.yul\":7500:7626   */\n      swap2\n      swap1\n      pop\n      jump\t// out\n        /* \"#utility.yul\":7632:7728   */\n    tag_174:\n        /* \"#utility.yul\":7669:7676   */\n      0x00\n        /* \"#utility.yul\":7698:7722   */\n      tag_264\n        /* \"#utility.yul\":7716:7721   */\n      dup3\n        /* \"#utility.yul\":7698:7722   */\n      tag_173\n      jump\t// in\n    tag_264:\n        /* \"#utility.yul\":7687:7722   */\n      swap1\n      pop\n        /* \"#utility.yul\":7632:7728   */\n      swap2\n      swap1\n      pop\n      jump\t// out\n        /* \"#utility.yul\":7734:7852   */\n    tag_175:\n        /* \"#utility.yul\":7821:7845   */\n      tag_266\n        /* \"#utility.yul\":7839:7844   */\n      dup2\n        /* \"#utility.yul\":7821:7845   */\n      tag_174\n      jump\t// in\n    tag_266:\n        /* \"#utility.yul\":7816:7819   */\n      dup3\n        /* \"#utility.yul\":7809:7846   */\n      mstore\n        /* \"#utility.yul\":7734:7852   */\n      pop\n      pop\n      jump\t// out\n        /* \"#utility.yul\":7858:8080   */\n    tag_30:\n        /* \"#utility.yul\":7951:7955   */\n      0x00\n        /* \"#utility.yul\":7989:7991   */\n      0x20\n        /* \"#utility.yul\":7978:7987   */\n      dup3\n        /* \"#utility.yul\":7974:7992   */\n      add\n        /* \"#utility.yul\":7966:7992   */\n      swap1\n      pop\n        /* \"#utility.yul\":8002:8073   */\n      tag_268\n        /* \"#utility.yul\":8070:8071   */\n      0x00\n        /* \"#utility.yul\":8059:8068   */\n      dup4\n        /* \"#utility.yul\":8055:8072   */\n      add\n        /* \"#utility.yul\":8046:8052   */\n      dup5\n        /* \"#utility.yul\":8002:8073   */\n      tag_175\n      jump\t// in\n    tag_268:\n        /* \"#utility.yul\":7858:8080   */\n      swap3\n      swap2\n      pop\n      pop\n      jump\t// out\n        /* \"#utility.yul\":8086:8206   */\n    tag_176:\n        /* \"#utility.yul\":8158:8181   */\n      tag_270\n        /* \"#utility.yul\":8175:8180   */\n      dup2\n        /* \"#utility.yul\":8158:8181   */\n      tag_161\n      jump\t// in\n    tag_270:\n        /* \"#utility.yul\":8151:8156   */\n      dup2\n        /* \"#utility.yul\":8148:8182   */\n      eq\n        /* \"#utility.yul\":8138:8200   */\n      tag_271\n      jumpi\n        /* \"#utility.yul\":8196:8197   */\n      0x00\n        /* \"#utility.yul\":8193:8194   */\n      dup1\n        /* \"#utility.yul\":8186:8198   */\n      revert\n        /* \"#utility.yul\":8138:8200   */\n    tag_271:\n        /* \"#utility.yul\":8086:8206   */\n      pop\n      jump\t// out\n        /* \"#utility.yul\":8212:8349   */\n    tag_177:\n        /* \"#utility.yul\":8257:8262   */\n      0x00\n        /* \"#utility.yul\":8295:8301   */\n      dup2\n        /* \"#utility.yul\":8282:8302   */\n      calldataload\n        /* \"#utility.yul\":8273:8302   */\n      swap1\n      pop\n        /* \"#utility.yul\":8311:8343   */\n      tag_273\n        /* \"#utility.yul\":8337:8342   */\n      dup2\n        /* \"#utility.yul\":8311:8343   */\n      tag_176\n      jump\t// in\n    tag_273:\n        /* \"#utility.yul\":8212:8349   */\n      swap3\n      swap2\n      pop\n      pop\n      jump\t// out\n        /* \"#utility.yul\":8355:8827   */\n    tag_33:\n        /* \"#utility.yul\":8422:8428   */\n      0x00\n        /* \"#utility.yul\":8430:8436   */\n      dup1\n        /* \"#utility.yul\":8479:8481   */\n      0x40\n        /* \"#utility.yul\":8467:8476   */\n      dup4\n        /* \"#utility.yul\":8458:8465   */\n      dup6\n        /* \"#utility.yul\":8454:8477   */\n      sub\n        /* \"#utility.yul\":8450:8482   */\n      slt\n        /* \"#utility.yul\":8447:8566   */\n      iszero\n      tag_275\n      jumpi\n        /* \"#utility.yul\":8485:8564   */\n      tag_276\n      tag_151\n      jump\t// in\n    tag_276:\n        /* \"#utility.yul\":8447:8566   */\n    tag_275:\n        /* \"#utility.yul\":8605:8606   */\n      0x00\n        /* \"#utility.yul\":8630:8683   */\n      tag_277\n        /* \"#utility.yul\":8675:8682   */\n      dup6\n        /* \"#utility.yul\":8666:8672   */\n      dup3\n        /* \"#utility.yul\":8655:8664   */\n      dup7\n        /* \"#utility.yul\":8651:8673   */\n      add\n        /* \"#utility.yul\":8630:8683   */\n      tag_155\n      jump\t// in\n    tag_277:\n        /* \"#utility.yul\":8620:8683   */\n      swap3\n      pop\n        /* \"#utility.yul\":8576:8693   */\n      pop\n        /* \"#utility.yul\":8732:8734   */\n      0x20\n        /* \"#utility.yul\":8758:8810   */\n      tag_278\n        /* \"#utility.yul\":8802:8809   */\n      dup6\n        /* \"#utility.yul\":8793:8799   */\n      dup3\n        /* \"#utility.yul\":8782:8791   */\n      dup7\n        /* \"#utility.yul\":8778:8800   */\n      add\n        /* \"#utility.yul\":8758:8810   */\n      tag_177\n      jump\t// in\n    tag_278:\n        /* \"#utility.yul\":8748:8810   */\n      swap2\n      pop\n        /* \"#utility.yul\":8703:8820   */\n      pop\n        /* \"#utility.yul\":8355:8827   */\n      swap3\n      pop\n      swap3\n      swap1\n      pop\n      jump\t// out\n        /* \"#utility.yul\":8833:9146   */\n    tag_42:\n        /* \"#utility.yul\":8946:8950   */\n      0x00\n        /* \"#utility.yul\":8984:8986   */\n      0x20\n        /* \"#utility.yul\":8973:8982   */\n      dup3\n        /* \"#utility.yul\":8969:8987   */\n      add\n        /* \"#utility.yul\":8961:8987   */\n      swap1\n      pop\n        /* \"#utility.yul\":9033:9042   */\n      dup2\n        /* \"#utility.yul\":9027:9031   */\n      dup2\n        /* \"#utility.yul\":9023:9043   */\n      sub\n        /* \"#utility.yul\":9019:9020   */\n      0x00\n        /* \"#utility.yul\":9008:9017   */\n      dup4\n        /* \"#utility.yul\":9004:9021   */\n      add\n        /* \"#utility.yul\":8997:9044   */\n      mstore\n        /* \"#utility.yul\":9061:9139   */\n      tag_280\n        /* \"#utility.yul\":9134:9138   */\n      dup2\n        /* \"#utility.yul\":9125:9131   */\n      dup5\n        /* \"#utility.yul\":9061:9139   */\n      tag_160\n      jump\t// in\n    tag_280:\n        /* \"#utility.yul\":9053:9139   */\n      swap1\n      pop\n        /* \"#utility.yul\":8833:9146   */\n      swap3\n      swap2\n      pop\n      pop\n      jump\t// out\n        /* \"#utility.yul\":9152:9269   */\n    tag_178:\n        /* \"#utility.yul\":9261:9262   */\n      0x00\n        /* \"#utility.yul\":9258:9259   */\n      dup1\n        /* \"#utility.yul\":9251:9263   */\n      revert\n        /* \"#utility.yul\":9275:9392   */\n    tag_179:\n        /* \"#utility.yul\":9384:9385   */\n      0x00\n        /* \"#utility.yul\":9381:9382   */\n      dup1\n        /* \"#utility.yul\":9374:9386   */\n      revert\n        /* \"#utility.yul\":9398:9578   */\n    tag_180:\n        /* \"#utility.yul\":9446:9523   */\n      0x4e487b7100000000000000000000000000000000000000000000000000000000\n        /* \"#utility.yul\":9443:9444   */\n      0x00\n        /* \"#utility.yul\":9436:9524   */\n      mstore\n        /* \"#utility.yul\":9543:9547   */\n      0x41\n        /* \"#utility.yul\":9540:9541   */\n      0x04\n        /* \"#utility.yul\":9533:9548   */\n      mstore\n        /* \"#utility.yul\":9567:9571   */\n      0x24\n        /* \"#utility.yul\":9564:9565   */\n      0x00\n        /* \"#utility.yul\":9557:9572   */\n      revert\n        /* \"#utility.yul\":9584:9865   */\n    tag_181:\n        /* \"#utility.yul\":9667:9694   */\n      tag_285\n        /* \"#utility.yul\":9689:9693   */\n      dup3\n        /* \"#utility.yul\":9667:9694   */\n      tag_159\n      jump\t// in\n    tag_285:\n        /* \"#utility.yul\":9659:9665   */\n      dup2\n        /* \"#utility.yul\":9655:9695   */\n      add\n        /* \"#utility.yul\":9797:9803   */\n      dup2\n        /* \"#utility.yul\":9785:9795   */\n      dup2\n        /* \"#utility.yul\":9782:9804   */\n      lt\n        /* \"#utility.yul\":9761:9779   */\n      0xffffffffffffffff\n        /* \"#utility.yul\":9749:9759   */\n      dup3\n        /* \"#utility.yul\":9746:9780   */\n      gt\n        /* \"#utility.yul\":9743:9805   */\n      or\n        /* \"#utility.yul\":9740:9828   */\n      iszero\n      tag_286\n      jumpi\n        /* \"#utility.yul\":9808:9826   */\n      tag_287\n      tag_180\n      jump\t// in\n    tag_287:\n        /* \"#utility.yul\":9740:9828   */\n    tag_286:\n        /* \"#utility.yul\":9848:9858   */\n      dup1\n        /* \"#utility.yul\":9844:9846   */\n      0x40\n        /* \"#utility.yul\":9837:9859   */\n      mstore\n        /* \"#utility.yul\":9627:9865   */\n      pop\n        /* \"#utility.yul\":9584:9865   */\n      pop\n      pop\n      jump\t// out\n        /* \"#utility.yul\":9871:10000   */\n    tag_182:\n        /* \"#utility.yul\":9905:9911   */\n      0x00\n        /* \"#utility.yul\":9932:9952   */\n      tag_289\n      tag_150\n      jump\t// in\n    tag_289:\n        /* \"#utility.yul\":9922:9952   */\n      swap1\n      pop\n        /* \"#utility.yul\":9961:9994   */\n      tag_290\n        /* \"#utility.yul\":9989:9993   */\n      dup3\n        /* \"#utility.yul\":9981:9987   */\n      dup3\n        /* \"#utility.yul\":9961:9994   */\n      tag_181\n      jump\t// in\n    tag_290:\n        /* \"#utility.yul\":9871:10000   */\n      swap2\n      swap1\n      pop\n      jump\t// out\n        /* \"#utility.yul\":10006:10314   */\n    tag_183:\n        /* \"#utility.yul\":10068:10072   */\n      0x00\n        /* \"#utility.yul\":10158:10176   */\n      0xffffffffffffffff\n        /* \"#utility.yul\":10150:10156   */\n      dup3\n        /* \"#utility.yul\":10147:10177   */\n      gt\n        /* \"#utility.yul\":10144:10200   */\n      iszero\n      tag_292\n      jumpi\n        /* \"#utility.yul\":10180:10198   */\n      tag_293\n      tag_180\n      jump\t// in\n    tag_293:\n        /* \"#utility.yul\":10144:10200   */\n    tag_292:\n        /* \"#utility.yul\":10218:10247   */\n      tag_294\n        /* \"#utility.yul\":10240:10246   */\n      dup3\n        /* \"#utility.yul\":10218:10247   */\n      tag_159\n      jump\t// in\n    tag_294:\n        /* \"#utility.yul\":10210:10247   */\n      swap1\n      pop\n        /* \"#utility.yul\":10302:10306   */\n      0x20\n        /* \"#utility.yul\":10296:10300   */\n      dup2\n        /* \"#utility.yul\":10292:10307   */\n      add\n        /* \"#utility.yul\":10284:10307   */\n      swap1\n      pop\n        /* \"#utility.yul\":10006:10314   */\n      swap2\n      swap1\n      pop\n      jump\t// out\n        /* \"#utility.yul\":10320:10474   */\n    tag_184:\n        /* \"#utility.yul\":10404:10410   */\n      dup3\n        /* \"#utility.yul\":10399:10402   */\n      dup2\n        /* \"#utility.yul\":10394:10397   */\n      dup4\n        /* \"#utility.yul\":10381:10411   */\n      calldatacopy\n        /* \"#utility.yul\":10466:10467   */\n      0x00\n        /* \"#utility.yul\":10457:10463   */\n      dup4\n        /* \"#utility.yul\":10452:10455   */\n      dup4\n        /* \"#utility.yul\":10448:10464   */\n      add\n        /* \"#utility.yul\":10441:10468   */\n      mstore\n        /* \"#utility.yul\":10320:10474   */\n      pop\n      pop\n      pop\n      jump\t// out\n        /* \"#utility.yul\":10480:10892   */\n    tag_185:\n        /* \"#utility.yul\":10558:10563   */\n      0x00\n        /* \"#utility.yul\":10583:10649   */\n      tag_297\n        /* \"#utility.yul\":10599:10648   */\n      tag_298\n        /* \"#utility.yul\":10641:10647   */\n      dup5\n        /* \"#utility.yul\":10599:10648   */\n      tag_183\n      jump\t// in\n    tag_298:\n        /* \"#utility.yul\":10583:10649   */\n      tag_182\n      jump\t// in\n    tag_297:\n        /* \"#utility.yul\":10574:10649   */\n      swap1\n      pop\n        /* \"#utility.yul\":10672:10678   */\n      dup3\n        /* \"#utility.yul\":10665:10670   */\n      dup2\n        /* \"#utility.yul\":10658:10679   */\n      mstore\n        /* \"#utility.yul\":10710:10714   */\n      0x20\n        /* \"#utility.yul\":10703:10708   */\n      dup2\n        /* \"#utility.yul\":10699:10715   */\n      add\n        /* \"#utility.yul\":10748:10751   */\n      dup5\n        /* \"#utility.yul\":10739:10745   */\n      dup5\n        /* \"#utility.yul\":10734:10737   */\n      dup5\n        /* \"#utility.yul\":10730:10746   */\n      add\n        /* \"#utility.yul\":10727:10752   */\n      gt\n        /* \"#utility.yul\":10724:10836   */\n      iszero\n      tag_299\n      jumpi\n        /* \"#utility.yul\":10755:10834   */\n      tag_300\n      tag_179\n      jump\t// in\n    tag_300:\n        /* \"#utility.yul\":10724:10836   */\n    tag_299:\n        /* \"#utility.yul\":10845:10886   */\n      tag_301\n        /* \"#utility.yul\":10879:10885   */\n      dup5\n        /* \"#utility.yul\":10874:10877   */\n      dup3\n        /* \"#utility.yul\":10869:10872   */\n      dup6\n        /* \"#utility.yul\":10845:10886   */\n      tag_184\n      jump\t// in\n    tag_301:\n        /* \"#utility.yul\":10564:10892   */\n      pop\n        /* \"#utility.yul\":10480:10892   */\n      swap4\n      swap3\n      pop\n      pop\n      pop\n      jump\t// out\n        /* \"#utility.yul\":10912:11252   */\n    tag_186:\n        /* \"#utility.yul\":10968:10973   */\n      0x00\n        /* \"#utility.yul\":11017:11020   */\n      dup3\n        /* \"#utility.yul\":11010:11014   */\n      0x1f\n        /* \"#utility.yul\":11002:11008   */\n      dup4\n        /* \"#utility.yul\":10998:11015   */\n      add\n        /* \"#utility.yul\":10994:11021   */\n      slt\n        /* \"#utility.yul\":10984:11106   */\n      tag_303\n      jumpi\n        /* \"#utility.yul\":11025:11104   */\n      tag_304\n      tag_178\n      jump\t// in\n    tag_304:\n        /* \"#utility.yul\":10984:11106   */\n    tag_303:\n        /* \"#utility.yul\":11142:11148   */\n      dup2\n        /* \"#utility.yul\":11129:11149   */\n      calldataload\n        /* \"#utility.yul\":11167:11246   */\n      tag_305\n        /* \"#utility.yul\":11242:11245   */\n      dup5\n        /* \"#utility.yul\":11234:11240   */\n      dup3\n        /* \"#utility.yul\":11227:11231   */\n      0x20\n        /* \"#utility.yul\":11219:11225   */\n      dup7\n        /* \"#utility.yul\":11215:11232   */\n      add\n        /* \"#utility.yul\":11167:11246   */\n      tag_185\n      jump\t// in\n    tag_305:\n        /* \"#utility.yul\":11158:11246   */\n      swap2\n      pop\n        /* \"#utility.yul\":10974:11252   */\n      pop\n        /* \"#utility.yul\":10912:11252   */\n      swap3\n      swap2\n      pop\n      pop\n      jump\t// out\n        /* \"#utility.yul\":11258:12379   */\n    tag_45:\n        /* \"#utility.yul\":11362:11368   */\n      0x00\n        /* \"#utility.yul\":11370:11376   */\n      dup1\n        /* \"#utility.yul\":11378:11384   */\n      0x00\n        /* \"#utility.yul\":11386:11392   */\n      dup1\n        /* \"#utility.yul\":11435:11438   */\n      0x80\n        /* \"#utility.yul\":11423:11432   */\n      dup6\n        /* \"#utility.yul\":11414:11421   */\n      dup8\n        /* \"#utility.yul\":11410:11433   */\n      sub\n        /* \"#utility.yul\":11406:11439   */\n      slt\n        /* \"#utility.yul\":11403:11523   */\n      iszero\n      tag_307\n      jumpi\n        /* \"#utility.yul\":11442:11521   */\n      tag_308\n      tag_151\n      jump\t// in\n    tag_308:\n        /* \"#utility.yul\":11403:11523   */\n    tag_307:\n        /* \"#utility.yul\":11590:11591   */\n      0x00\n        /* \"#utility.yul\":11579:11588   */\n      dup6\n        /* \"#utility.yul\":11575:11592   */\n      add\n        /* \"#utility.yul\":11562:11593   */\n      calldataload\n        /* \"#utility.yul\":11620:11638   */\n      0xffffffffffffffff\n        /* \"#utility.yul\":11612:11618   */\n      dup2\n        /* \"#utility.yul\":11609:11639   */\n      gt\n        /* \"#utility.yul\":11606:11723   */\n      iszero\n      tag_309\n      jumpi\n        /* \"#utility.yul\":11642:11721   */\n      tag_310\n      tag_152\n      jump\t// in\n    tag_310:\n        /* \"#utility.yul\":11606:11723   */\n    tag_309:\n        /* \"#utility.yul\":11747:11810   */\n      tag_311\n        /* \"#utility.yul\":11802:11809   */\n      dup8\n        /* \"#utility.yul\":11793:11799   */\n      dup3\n        /* \"#utility.yul\":11782:11791   */\n      dup9\n        /* \"#utility.yul\":11778:11800   */\n      add\n        /* \"#utility.yul\":11747:11810   */\n      tag_186\n      jump\t// in\n    tag_311:\n        /* \"#utility.yul\":11737:11810   */\n      swap5\n      pop\n        /* \"#utility.yul\":11533:11820   */\n      pop\n        /* \"#utility.yul\":11887:11889   */\n      0x20\n        /* \"#utility.yul\":11876:11885   */\n      dup6\n        /* \"#utility.yul\":11872:11890   */\n      add\n        /* \"#utility.yul\":11859:11891   */\n      calldataload\n        /* \"#utility.yul\":11918:11936   */\n      0xffffffffffffffff\n        /* \"#utility.yul\":11910:11916   */\n      dup2\n        /* \"#utility.yul\":11907:11937   */\n      gt\n        /* \"#utility.yul\":11904:12021   */\n      iszero\n      tag_312\n      jumpi\n        /* \"#utility.yul\":11940:12019   */\n      tag_313\n      tag_152\n      jump\t// in\n    tag_313:\n        /* \"#utility.yul\":11904:12021   */\n    tag_312:\n        /* \"#utility.yul\":12045:12108   */\n      tag_314\n        /* \"#utility.yul\":12100:12107   */\n      dup8\n        /* \"#utility.yul\":12091:12097   */\n      dup3\n        /* \"#utility.yul\":12080:12089   */\n      dup9\n        /* \"#utility.yul\":12076:12098   */\n      add\n        /* \"#utility.yul\":12045:12108   */\n      tag_186\n      jump\t// in\n    tag_314:\n        /* \"#utility.yul\":12035:12108   */\n      swap4\n      pop\n        /* \"#utility.yul\":11830:12118   */\n      pop\n        /* \"#utility.yul\":12157:12159   */\n      0x40\n        /* \"#utility.yul\":12183:12235   */\n      tag_315\n        /* \"#utility.yul\":12227:12234   */\n      dup8\n        /* \"#utility.yul\":12218:12224   */\n      dup3\n        /* \"#utility.yul\":12207:12216   */\n      dup9\n        /* \"#utility.yul\":12203:12225   */\n      add\n        /* \"#utility.yul\":12183:12235   */\n      tag_177\n      jump\t// in\n    tag_315:\n        /* \"#utility.yul\":12173:12235   */\n      swap3\n      pop\n        /* \"#utility.yul\":12128:12245   */\n      pop\n        /* \"#utility.yul\":12284:12286   */\n      0x60\n        /* \"#utility.yul\":12310:12362   */\n      tag_316\n        /* \"#utility.yul\":12354:12361   */\n      dup8\n        /* \"#utility.yul\":12345:12351   */\n      dup3\n        /* \"#utility.yul\":12334:12343   */\n      dup9\n        /* \"#utility.yul\":12330:12352   */\n      add\n        /* \"#utility.yul\":12310:12362   */\n      tag_177\n      jump\t// in\n    tag_316:\n        /* \"#utility.yul\":12300:12362   */\n      swap2\n      pop\n        /* \"#utility.yul\":12255:12372   */\n      pop\n        /* \"#utility.yul\":11258:12379   */\n      swap3\n      swap6\n      swap2\n      swap5\n      pop\n      swap3\n      pop\n      jump\t// out\n        /* \"#utility.yul\":12385:12554   */\n    tag_187:\n        /* \"#utility.yul\":12525:12546   */\n      0x496e646578206f7574206f6620626f756e647300000000000000000000000000\n        /* \"#utility.yul\":12521:12522   */\n      0x00\n        /* \"#utility.yul\":12513:12519   */\n      dup3\n        /* \"#utility.yul\":12509:12523   */\n      add\n        /* \"#utility.yul\":12502:12547   */\n      mstore\n        /* \"#utility.yul\":12385:12554   */\n      pop\n      jump\t// out\n        /* \"#utility.yul\":12560:12926   */\n    tag_188:\n        /* \"#utility.yul\":12702:12705   */\n      0x00\n        /* \"#utility.yul\":12723:12790   */\n      tag_319\n        /* \"#utility.yul\":12787:12789   */\n      0x13\n        /* \"#utility.yul\":12782:12785   */\n      dup4\n        /* \"#utility.yul\":12723:12790   */\n      tag_157\n      jump\t// in\n    tag_319:\n        /* \"#utility.yul\":12716:12790   */\n      swap2\n      pop\n        /* \"#utility.yul\":12799:12892   */\n      tag_320\n        /* \"#utility.yul\":12888:12891   */\n      dup3\n        /* \"#utility.yul\":12799:12892   */\n      tag_187\n      jump\t// in\n    tag_320:\n        /* \"#utility.yul\":12917:12919   */\n      0x20\n        /* \"#utility.yul\":12912:12915   */\n      dup3\n        /* \"#utility.yul\":12908:12920   */\n      add\n        /* \"#utility.yul\":12901:12920   */\n      swap1\n      pop\n        /* \"#utility.yul\":12560:12926   */\n      swap2\n      swap1\n      pop\n      jump\t// out\n        /* \"#utility.yul\":12932:13351   */\n    tag_53:\n        /* \"#utility.yul\":13098:13102   */\n      0x00\n        /* \"#utility.yul\":13136:13138   */\n      0x20\n        /* \"#utility.yul\":13125:13134   */\n      dup3\n        /* \"#utility.yul\":13121:13139   */\n      add\n        /* \"#utility.yul\":13113:13139   */\n      swap1\n      pop\n        /* \"#utility.yul\":13185:13194   */\n      dup2\n        /* \"#utility.yul\":13179:13183   */\n      dup2\n        /* \"#utility.yul\":13175:13195   */\n      sub\n        /* \"#utility.yul\":13171:13172   */\n      0x00\n        /* \"#utility.yul\":13160:13169   */\n      dup4\n        /* \"#utility.yul\":13156:13173   */\n      add\n        /* \"#utility.yul\":13149:13196   */\n      mstore\n        /* \"#utility.yul\":13213:13344   */\n      tag_322\n        /* \"#utility.yul\":13339:13343   */\n      dup2\n        /* \"#utility.yul\":13213:13344   */\n      tag_188\n      jump\t// in\n    tag_322:\n        /* \"#utility.yul\":13205:13344   */\n      swap1\n      pop\n        /* \"#utility.yul\":12932:13351   */\n      swap2\n      swap1\n      pop\n      jump\t// out\n        /* \"#utility.yul\":13357:13537   */\n    tag_56:\n        /* \"#utility.yul\":13405:13482   */\n      0x4e487b7100000000000000000000000000000000000000000000000000000000\n        /* \"#utility.yul\":13402:13403   */\n      0x00\n        /* \"#utility.yul\":13395:13483   */\n      mstore\n        /* \"#utility.yul\":13502:13506   */\n      0x32\n        /* \"#utility.yul\":13499:13500   */\n      0x04\n        /* \"#utility.yul\":13492:13507   */\n      mstore\n        /* \"#utility.yul\":13526:13530   */\n      0x24\n        /* \"#utility.yul\":13523:13524   */\n      0x00\n        /* \"#utility.yul\":13516:13531   */\n      revert\n        /* \"#utility.yul\":13543:13723   */\n    tag_189:\n        /* \"#utility.yul\":13591:13668   */\n      0x4e487b7100000000000000000000000000000000000000000000000000000000\n        /* \"#utility.yul\":13588:13589   */\n      0x00\n        /* \"#utility.yul\":13581:13669   */\n      mstore\n        /* \"#utility.yul\":13688:13692   */\n      0x22\n        /* \"#utility.yul\":13685:13686   */\n      0x04\n        /* \"#utility.yul\":13678:13693   */\n      mstore\n        /* \"#utility.yul\":13712:13716   */\n      0x24\n        /* \"#utility.yul\":13709:13710   */\n      0x00\n        /* \"#utility.yul\":13702:13717   */\n      revert\n        /* \"#utility.yul\":13729:14049   */\n    tag_59:\n        /* \"#utility.yul\":13773:13779   */\n      0x00\n        /* \"#utility.yul\":13810:13811   */\n      0x02\n        /* \"#utility.yul\":13804:13808   */\n      dup3\n        /* \"#utility.yul\":13800:13812   */\n      div\n        /* \"#utility.yul\":13790:13812   */\n      swap1\n      pop\n        /* \"#utility.yul\":13857:13858   */\n      0x01\n        /* \"#utility.yul\":13851:13855   */\n      dup3\n        /* \"#utility.yul\":13847:13859   */\n      and\n        /* \"#utility.yul\":13878:13896   */\n      dup1\n        /* \"#utility.yul\":13868:13949   */\n      tag_326\n      jumpi\n        /* \"#utility.yul\":13934:13938   */\n      0x7f\n        /* \"#utility.yul\":13926:13932   */\n      dup3\n        /* \"#utility.yul\":13922:13939   */\n      and\n        /* \"#utility.yul\":13912:13939   */\n      swap2\n      pop\n        /* \"#utility.yul\":13868:13949   */\n    tag_326:\n        /* \"#utility.yul\":13996:13998   */\n      0x20\n        /* \"#utility.yul\":13988:13994   */\n      dup3\n        /* \"#utility.yul\":13985:13999   */\n      lt\n        /* \"#utility.yul\":13965:13983   */\n      dup2\n        /* \"#utility.yul\":13962:14000   */\n      eq\n        /* \"#utility.yul\":13959:14043   */\n      iszero\n      tag_327\n      jumpi\n        /* \"#utility.yul\":14015:14033   */\n      tag_328\n      tag_189\n      jump\t// in\n    tag_328:\n        /* \"#utility.yul\":13959:14043   */\n    tag_327:\n        /* \"#utility.yul\":13780:14049   */\n      pop\n        /* \"#utility.yul\":13729:14049   */\n      swap2\n      swap1\n      pop\n      jump\t// out\n        /* \"#utility.yul\":14055:14280   */\n    tag_190:\n        /* \"#utility.yul\":14195:14229   */\n      0x4f6e6c792072657461696c65722063616e206163636573732074686973206675\n        /* \"#utility.yul\":14191:14192   */\n      0x00\n        /* \"#utility.yul\":14183:14189   */\n      dup3\n        /* \"#utility.yul\":14179:14193   */\n      add\n        /* \"#utility.yul\":14172:14230   */\n      mstore\n        /* \"#utility.yul\":14264:14272   */\n      0x6e6374696f6e0000000000000000000000000000000000000000000000000000\n        /* \"#utility.yul\":14259:14261   */\n      0x20\n        /* \"#utility.yul\":14251:14257   */\n      dup3\n        /* \"#utility.yul\":14247:14262   */\n      add\n        /* \"#utility.yul\":14240:14273   */\n      mstore\n        /* \"#utility.yul\":14055:14280   */\n      pop\n      jump\t// out\n        /* \"#utility.yul\":14286:14652   */\n    tag_191:\n        /* \"#utility.yul\":14428:14431   */\n      0x00\n        /* \"#utility.yul\":14449:14516   */\n      tag_331\n        /* \"#utility.yul\":14513:14515   */\n      0x26\n        /* \"#utility.yul\":14508:14511   */\n      dup4\n        /* \"#utility.yul\":14449:14516   */\n      tag_157\n      jump\t// in\n    tag_331:\n        /* \"#utility.yul\":14442:14516   */\n      swap2\n      pop\n        /* \"#utility.yul\":14525:14618   */\n      tag_332\n        /* \"#utility.yul\":14614:14617   */\n      dup3\n        /* \"#utility.yul\":14525:14618   */\n      tag_190\n      jump\t// in\n    tag_332:\n        /* \"#utility.yul\":14643:14645   */\n      0x40\n        /* \"#utility.yul\":14638:14641   */\n      dup3\n        /* \"#utility.yul\":14634:14646   */\n      add\n        /* \"#utility.yul\":14627:14646   */\n      swap1\n      pop\n        /* \"#utility.yul\":14286:14652   */\n      swap2\n      swap1\n      pop\n      jump\t// out\n        /* \"#utility.yul\":14658:15077   */\n    tag_86:\n        /* \"#utility.yul\":14824:14828   */\n      0x00\n        /* \"#utility.yul\":14862:14864   */\n      0x20\n        /* \"#utility.yul\":14851:14860   */\n      dup3\n        /* \"#utility.yul\":14847:14865   */\n      add\n        /* \"#utility.yul\":14839:14865   */\n      swap1\n      pop\n        /* \"#utility.yul\":14911:14920   */\n      dup2\n        /* \"#utility.yul\":14905:14909   */\n      dup2\n        /* \"#utility.yul\":14901:14921   */\n      sub\n        /* \"#utility.yul\":14897:14898   */\n      0x00\n        /* \"#utility.yul\":14886:14895   */\n      dup4\n        /* \"#utility.yul\":14882:14899   */\n      add\n        /* \"#utility.yul\":14875:14922   */\n      mstore\n        /* \"#utility.yul\":14939:15070   */\n      tag_334\n        /* \"#utility.yul\":15065:15069   */\n      dup2\n        /* \"#utility.yul\":14939:15070   */\n      tag_191\n      jump\t// in\n    tag_334:\n        /* \"#utility.yul\":14931:15070   */\n      swap1\n      pop\n        /* \"#utility.yul\":14658:15077   */\n      swap2\n      swap1\n      pop\n      jump\t// out\n        /* \"#utility.yul\":15083:15263   */\n    tag_192:\n        /* \"#utility.yul\":15131:15208   */\n      0x4e487b7100000000000000000000000000000000000000000000000000000000\n        /* \"#utility.yul\":15128:15129   */\n      0x00\n        /* \"#utility.yul\":15121:15209   */\n      mstore\n        /* \"#utility.yul\":15228:15232   */\n      0x11\n        /* \"#utility.yul\":15225:15226   */\n      0x04\n        /* \"#utility.yul\":15218:15233   */\n      mstore\n        /* \"#utility.yul\":15252:15256   */\n      0x24\n        /* \"#utility.yul\":15249:15250   */\n      0x00\n        /* \"#utility.yul\":15242:15257   */\n      revert\n        /* \"#utility.yul\":15269:15794   */\n    tag_94:\n        /* \"#utility.yul\":15308:15311   */\n      0x00\n        /* \"#utility.yul\":15327:15346   */\n      tag_337\n        /* \"#utility.yul\":15344:15345   */\n      dup3\n        /* \"#utility.yul\":15327:15346   */\n      tag_161\n      jump\t// in\n    tag_337:\n        /* \"#utility.yul\":15322:15346   */\n      swap2\n      pop\n        /* \"#utility.yul\":15360:15379   */\n      tag_338\n        /* \"#utility.yul\":15377:15378   */\n      dup4\n        /* \"#utility.yul\":15360:15379   */\n      tag_161\n      jump\t// in\n    tag_338:\n        /* \"#utility.yul\":15355:15379   */\n      swap3\n      pop\n        /* \"#utility.yul\":15548:15549   */\n      dup2\n        /* \"#utility.yul\":15480:15546   */\n      0x7fffffffffffffffffffffffffffffffffffffffffffffffffffffffffffffff\n        /* \"#utility.yul\":15476:15550   */\n      sub\n        /* \"#utility.yul\":15473:15474   */\n      dup4\n        /* \"#utility.yul\":15469:15551   */\n      sgt\n        /* \"#utility.yul\":15464:15465   */\n      0x00\n        /* \"#utility.yul\":15461:15462   */\n      dup4\n        /* \"#utility.yul\":15457:15466   */\n      slt\n        /* \"#utility.yul\":15450:15467   */\n      iszero\n        /* \"#utility.yul\":15446:15552   */\n      and\n        /* \"#utility.yul\":15443:15575   */\n      iszero\n      tag_339\n      jumpi\n        /* \"#utility.yul\":15555:15573   */\n      tag_340\n      tag_192\n      jump\t// in\n    tag_340:\n        /* \"#utility.yul\":15443:15575   */\n    tag_339:\n        /* \"#utility.yul\":15735:15736   */\n      dup2\n        /* \"#utility.yul\":15667:15733   */\n      0x8000000000000000000000000000000000000000000000000000000000000000\n        /* \"#utility.yul\":15663:15737   */\n      sub\n        /* \"#utility.yul\":15660:15661   */\n      dup4\n        /* \"#utility.yul\":15656:15738   */\n      slt\n        /* \"#utility.yul\":15652:15653   */\n      0x00\n        /* \"#utility.yul\":15649:15650   */\n      dup4\n        /* \"#utility.yul\":15645:15654   */\n      slt\n        /* \"#utility.yul\":15641:15739   */\n      and\n        /* \"#utility.yul\":15638:15762   */\n      iszero\n      tag_341\n      jumpi\n        /* \"#utility.yul\":15742:15760   */\n      tag_342\n      tag_192\n      jump\t// in\n    tag_342:\n        /* \"#utility.yul\":15638:15762   */\n    tag_341:\n        /* \"#utility.yul\":15786:15787   */\n      dup3\n        /* \"#utility.yul\":15783:15784   */\n      dup3\n        /* \"#utility.yul\":15779:15788   */\n      add\n        /* \"#utility.yul\":15772:15788   */\n      swap1\n      pop\n        /* \"#utility.yul\":15269:15794   */\n      swap3\n      swap2\n      pop\n      pop\n      jump\t// out\n        /* \"#utility.yul\":15800:15971   */\n    tag_193:\n        /* \"#utility.yul\":15940:15963   */\n      0x496e73756666696369656e74207175616e746974790000000000000000000000\n        /* \"#utility.yul\":15936:15937   */\n      0x00\n        /* \"#utility.yul\":15928:15934   */\n      dup3\n        /* \"#utility.yul\":15924:15938   */\n      add\n        /* \"#utility.yul\":15917:15964   */\n      mstore\n        /* \"#utility.yul\":15800:15971   */\n      pop\n      jump\t// out\n        /* \"#utility.yul\":15977:16343   */\n    tag_194:\n        /* \"#utility.yul\":16119:16122   */\n      0x00\n        /* \"#utility.yul\":16140:16207   */\n      tag_345\n        /* \"#utility.yul\":16204:16206   */\n      0x15\n        /* \"#utility.yul\":16199:16202   */\n      dup4\n        /* \"#utility.yul\":16140:16207   */\n      tag_157\n      jump\t// in\n    tag_345:\n        /* \"#utility.yul\":16133:16207   */\n      swap2\n      pop\n        /* \"#utility.yul\":16216:16309   */\n      tag_346\n        /* \"#utility.yul\":16305:16308   */\n      dup3\n        /* \"#utility.yul\":16216:16309   */\n      tag_193\n      jump\t// in\n    tag_346:\n        /* \"#utility.yul\":16334:16336   */\n      0x20\n        /* \"#utility.yul\":16329:16332   */\n      dup3\n        /* \"#utility.yul\":16325:16337   */\n      add\n        /* \"#utility.yul\":16318:16337   */\n      swap1\n      pop\n        /* \"#utility.yul\":15977:16343   */\n      swap2\n      swap1\n      pop\n      jump\t// out\n        /* \"#utility.yul\":16349:16768   */\n    tag_128:\n        /* \"#utility.yul\":16515:16519   */\n      0x00\n        /* \"#utility.yul\":16553:16555   */\n      0x20\n        /* \"#utility.yul\":16542:16551   */\n      dup3\n        /* \"#utility.yul\":16538:16556   */\n      add\n        /* \"#utility.yul\":16530:16556   */\n      swap1\n      pop\n        /* \"#utility.yul\":16602:16611   */\n      dup2\n        /* \"#utility.yul\":16596:16600   */\n      dup2\n        /* \"#utility.yul\":16592:16612   */\n      sub\n        /* \"#utility.yul\":16588:16589   */\n      0x00\n        /* \"#utility.yul\":16577:16586   */\n      dup4\n        /* \"#utility.yul\":16573:16590   */\n      add\n        /* \"#utility.yul\":16566:16613   */\n      mstore\n        /* \"#utility.yul\":16630:16761   */\n      tag_348\n        /* \"#utility.yul\":16756:16760   */\n      dup2\n        /* \"#utility.yul\":16630:16761   */\n      tag_194\n      jump\t// in\n    tag_348:\n        /* \"#utility.yul\":16622:16761   */\n      swap1\n      pop\n        /* \"#utility.yul\":16349:16768   */\n      swap2\n      swap1\n      pop\n      jump\t// out\n        /* \"#utility.yul\":16774:17765   */\n    tag_133:\n        /* \"#utility.yul\":16813:16820   */\n      0x00\n        /* \"#utility.yul\":16836:16855   */\n      tag_350\n        /* \"#utility.yul\":16853:16854   */\n      dup3\n        /* \"#utility.yul\":16836:16855   */\n      tag_161\n      jump\t// in\n    tag_350:\n        /* \"#utility.yul\":16831:16855   */\n      swap2\n      pop\n        /* \"#utility.yul\":16869:16888   */\n      tag_351\n        /* \"#utility.yul\":16886:16887   */\n      dup4\n        /* \"#utility.yul\":16869:16888   */\n      tag_161\n      jump\t// in\n    tag_351:\n        /* \"#utility.yul\":16864:16888   */\n      swap3\n      pop\n        /* \"#utility.yul\":17070:17071   */\n      dup3\n        /* \"#utility.yul\":17002:17068   */\n      0x7fffffffffffffffffffffffffffffffffffffffffffffffffffffffffffffff\n        /* \"#utility.yul\":16998:17072   */\n      div\n        /* \"#utility.yul\":16995:16996   */\n      dup3\n        /* \"#utility.yul\":16992:17073   */\n      gt\n        /* \"#utility.yul\":16987:16988   */\n      0x00\n        /* \"#utility.yul\":16984:16985   */\n      dup5\n        /* \"#utility.yul\":16980:16989   */\n      sgt\n        /* \"#utility.yul\":16976:16977   */\n      0x00\n        /* \"#utility.yul\":16973:16974   */\n      dup5\n        /* \"#utility.yul\":16969:16978   */\n      sgt\n        /* \"#utility.yul\":16965:16990   */\n      and\n        /* \"#utility.yul\":16961:17074   */\n      and\n        /* \"#utility.yul\":16958:17097   */\n      iszero\n      tag_352\n      jumpi\n        /* \"#utility.yul\":17077:17095   */\n      tag_353\n      tag_192\n      jump\t// in\n    tag_353:\n        /* \"#utility.yul\":16958:17097   */\n    tag_352:\n        /* \"#utility.yul\":17281:17282   */\n      dup2\n        /* \"#utility.yul\":17213:17279   */\n      0x8000000000000000000000000000000000000000000000000000000000000000\n        /* \"#utility.yul\":17208:17283   */\n      sdiv\n        /* \"#utility.yul\":17205:17206   */\n      dup4\n        /* \"#utility.yul\":17201:17284   */\n      slt\n        /* \"#utility.yul\":17196:17197   */\n      0x00\n        /* \"#utility.yul\":17193:17194   */\n      dup5\n        /* \"#utility.yul\":17189:17198   */\n      slt\n        /* \"#utility.yul\":17185:17186   */\n      0x00\n        /* \"#utility.yul\":17182:17183   */\n      dup5\n        /* \"#utility.yul\":17178:17187   */\n      sgt\n        /* \"#utility.yul\":17174:17199   */\n      and\n        /* \"#utility.yul\":17170:17285   */\n      and\n        /* \"#utility.yul\":17167:17308   */\n      iszero\n      tag_354\n      jumpi\n        /* \"#utility.yul\":17288:17306   */\n      tag_355\n      tag_192\n      jump\t// in\n    tag_355:\n        /* \"#utility.yul\":17167:17308   */\n    tag_354:\n        /* \"#utility.yul\":17492:17493   */\n      dup3\n        /* \"#utility.yul\":17424:17490   */\n      0x8000000000000000000000000000000000000000000000000000000000000000\n        /* \"#utility.yul\":17419:17494   */\n      sdiv\n        /* \"#utility.yul\":17416:17417   */\n      dup3\n        /* \"#utility.yul\":17412:17495   */\n      slt\n        /* \"#utility.yul\":17407:17408   */\n      0x00\n        /* \"#utility.yul\":17404:17405   */\n      dup5\n        /* \"#utility.yul\":17400:17409   */\n      sgt\n        /* \"#utility.yul\":17396:17397   */\n      0x00\n        /* \"#utility.yul\":17393:17394   */\n      dup5\n        /* \"#utility.yul\":17389:17398   */\n      slt\n        /* \"#utility.yul\":17385:17410   */\n      and\n        /* \"#utility.yul\":17381:17496   */\n      and\n        /* \"#utility.yul\":17378:17519   */\n      iszero\n      tag_356\n      jumpi\n        /* \"#utility.yul\":17499:17517   */\n      tag_357\n      tag_192\n      jump\t// in\n    tag_357:\n        /* \"#utility.yul\":17378:17519   */\n    tag_356:\n        /* \"#utility.yul\":17702:17703   */\n      dup3\n        /* \"#utility.yul\":17634:17700   */\n      0x7fffffffffffffffffffffffffffffffffffffffffffffffffffffffffffffff\n        /* \"#utility.yul\":17629:17704   */\n      sdiv\n        /* \"#utility.yul\":17626:17627   */\n      dup3\n        /* \"#utility.yul\":17622:17705   */\n      slt\n        /* \"#utility.yul\":17617:17618   */\n      0x00\n        /* \"#utility.yul\":17614:17615   */\n      dup5\n        /* \"#utility.yul\":17610:17619   */\n      slt\n        /* \"#utility.yul\":17606:17607   */\n      0x00\n        /* \"#utility.yul\":17603:17604   */\n      dup5\n        /* \"#utility.yul\":17599:17608   */\n      slt\n        /* \"#utility.yul\":17595:17620   */\n      and\n        /* \"#utility.yul\":17591:17706   */\n      and\n        /* \"#utility.yul\":17588:17729   */\n      iszero\n      tag_358\n      jumpi\n        /* \"#utility.yul\":17709:17727   */\n      tag_359\n      tag_192\n      jump\t// in\n    tag_359:\n        /* \"#utility.yul\":17588:17729   */\n    tag_358:\n        /* \"#utility.yul\":17757:17758   */\n      dup3\n        /* \"#utility.yul\":17754:17755   */\n      dup3\n        /* \"#utility.yul\":17750:17759   */\n      mul\n        /* \"#utility.yul\":17739:17759   */\n      swap1\n      pop\n        /* \"#utility.yul\":16774:17765   */\n      swap3\n      swap2\n      pop\n      pop\n      jump\t// out\n        /* \"#utility.yul\":17771:18298   */\n    tag_138:\n        /* \"#utility.yul\":17810:17814   */\n      0x00\n        /* \"#utility.yul\":17830:17849   */\n      tag_361\n        /* \"#utility.yul\":17847:17848   */\n      dup3\n        /* \"#utility.yul\":17830:17849   */\n      tag_161\n      jump\t// in\n    tag_361:\n        /* \"#utility.yul\":17825:17849   */\n      swap2\n      pop\n        /* \"#utility.yul\":17863:17882   */\n      tag_362\n        /* \"#utility.yul\":17880:17881   */\n      dup4\n        /* \"#utility.yul\":17863:17882   */\n      tag_161\n      jump\t// in\n    tag_362:\n        /* \"#utility.yul\":17858:17882   */\n      swap3\n      pop\n        /* \"#utility.yul\":18052:18053   */\n      dup3\n        /* \"#utility.yul\":17984:18050   */\n      0x8000000000000000000000000000000000000000000000000000000000000000\n        /* \"#utility.yul\":17980:18054   */\n      add\n        /* \"#utility.yul\":17977:17978   */\n      dup3\n        /* \"#utility.yul\":17973:18055   */\n      slt\n        /* \"#utility.yul\":17968:17969   */\n      0x00\n        /* \"#utility.yul\":17965:17966   */\n      dup5\n        /* \"#utility.yul\":17961:17970   */\n      slt\n        /* \"#utility.yul\":17954:17971   */\n      iszero\n        /* \"#utility.yul\":17950:18056   */\n      and\n        /* \"#utility.yul\":17947:18079   */\n      iszero\n      tag_363\n      jumpi\n        /* \"#utility.yul\":18059:18077   */\n      tag_364\n      tag_192\n      jump\t// in\n    tag_364:\n        /* \"#utility.yul\":17947:18079   */\n    tag_363:\n        /* \"#utility.yul\":18238:18239   */\n      dup3\n        /* \"#utility.yul\":18170:18236   */\n      0x7fffffffffffffffffffffffffffffffffffffffffffffffffffffffffffffff\n        /* \"#utility.yul\":18166:18240   */\n      add\n        /* \"#utility.yul\":18163:18164   */\n      dup3\n        /* \"#utility.yul\":18159:18241   */\n      sgt\n        /* \"#utility.yul\":18155:18156   */\n      0x00\n        /* \"#utility.yul\":18152:18153   */\n      dup5\n        /* \"#utility.yul\":18148:18157   */\n      slt\n        /* \"#utility.yul\":18144:18242   */\n      and\n        /* \"#utility.yul\":18141:18265   */\n      iszero\n      tag_365\n      jumpi\n        /* \"#utility.yul\":18245:18263   */\n      tag_366\n      tag_192\n      jump\t// in\n    tag_366:\n        /* \"#utility.yul\":18141:18265   */\n    tag_365:\n        /* \"#utility.yul\":18290:18291   */\n      dup3\n        /* \"#utility.yul\":18287:18288   */\n      dup3\n        /* \"#utility.yul\":18283:18292   */\n      sub\n        /* \"#utility.yul\":18275:18292   */\n      swap1\n      pop\n        /* \"#utility.yul\":17771:18298   */\n      swap3\n      swap2\n      pop\n      pop\n      jump\t// out\n\n    auxdata: 0xa26469706673582212206854670294d028cef1447127dc020440806e4f01477e710790072194251ef85b64736f6c63430008090033\n}\n",
        "bytecode": {
            "linkReferences": {},
            "object": "60806040523480156200001157600080fd5b50604051620019af380380620019af8339818101604052810190620000379190620002e4565b336000806101000a81548173ffffffffffffffffffffffffffffffffffffffff021916908373ffffffffffffffffffffffffffffffffffffffff16021790555080600190805190602001906200008f92919062000097565b50506200039a565b828054620000a59062000364565b90600052602060002090601f016020900481019282620000c9576000855562000115565b82601f10620000e457805160ff191683800117855562000115565b8280016001018555821562000115579182015b8281111562000114578251825591602001919060010190620000f7565b5b50905062000124919062000128565b5090565b5b808211156200014357600081600090555060010162000129565b5090565b6000604051905090565b600080fd5b600080fd5b600080fd5b600080fd5b6000601f19601f8301169050919050565b7f4e487b7100000000000000000000000000000000000000000000000000000000600052604160045260246000fd5b620001b08262000165565b810181811067ffffffffffffffff82111715620001d257620001d162000176565b5b80604052505050565b6000620001e762000147565b9050620001f58282620001a5565b919050565b600067ffffffffffffffff82111562000218576200021762000176565b5b620002238262000165565b9050602081019050919050565b60005b838110156200025057808201518184015260208101905062000233565b8381111562000260576000848401525b50505050565b60006200027d6200027784620001fa565b620001db565b9050828152602081018484840111156200029c576200029b62000160565b5b620002a984828562000230565b509392505050565b600082601f830112620002c957620002c86200015b565b5b8151620002db84826020860162000266565b91505092915050565b600060208284031215620002fd57620002fc62000151565b5b600082015167ffffffffffffffff8111156200031e576200031d62000156565b5b6200032c84828501620002b1565b91505092915050565b7f4e487b7100000000000000000000000000000000000000000000000000000000600052602260045260246000fd5b600060028204905060018216806200037d57607f821691505b6020821081141562000394576200039362000335565b5b50919050565b61160580620003aa6000396000f3fe608060405234801561001057600080fd5b50600436106100935760003560e01c80637dfe839b116100665780637dfe839b14610125578063bfb231d214610141578063e0305f8414610174578063ec846ca714610192578063ed0902c7146101ae57610093565b80633129e773146100985780634ba1d6aa146100cb5780636605ff66146100e95780636de2aff614610107575b600080fd5b6100b260048036038101906100ad9190610bb5565b6101ca565b6040516100c29493929190610c94565b60405180910390f35b6100d36103a6565b6040516100e09190610e6c565b60405180910390f35b6100f161053d565b6040516100fe9190610e8e565b60405180910390f35b61010f610543565b60405161011c9190610eea565b60405180910390f35b61013f600480360381019061013a9190610f31565b610567565b005b61015b60048036038101906101569190610bb5565b61067c565b60405161016b9493929190610c94565b60405180910390f35b61017c6107cc565b6040516101899190610f71565b60405180910390f35b6101ac60048036038101906101a791906110c8565b61085a565b005b6101c860048036038101906101c39190610f31565b61098a565b005b60606000606060006002805490508510610219576040517f08c379a0000000000000000000000000000000000000000000000000000000008152600401610210906111b3565b60405180910390fd5b60006002868154811061022f5761022e6111d3565b5b906000526020600020906004020160405180608001604052908160008201805461025890611231565b80601f016020809104026020016040519081016040528092919081815260200182805461028490611231565b80156102d15780601f106102a6576101008083540402835291602001916102d1565b820191906000526020600020905b8154815290600101906020018083116102b457829003601f168201915b50505050508152602001600182015481526020016002820180546102f490611231565b80601f016020809104026020016040519081016040528092919081815260200182805461032090611231565b801561036d5780601f106103425761010080835404028352916020019161036d565b820191906000526020600020905b81548152906001019060200180831161035057829003601f168201915b50505050508152602001600382015481525050905080600001518160200151826040015183606001519450945094509450509193509193565b60606002805480602002602001604051908101604052809291908181526020016000905b8282101561053457838290600052602060002090600402016040518060800160405290816000820180546103fd90611231565b80601f016020809104026020016040519081016040528092919081815260200182805461042990611231565b80156104765780601f1061044b57610100808354040283529160200191610476565b820191906000526020600020905b81548152906001019060200180831161045957829003601f168201915b505050505081526020016001820154815260200160028201805461049990611231565b80601f01602080910402602001604051908101604052809291908181526020018280546104c590611231565b80156105125780601f106104e757610100808354040283529160200191610512565b820191906000526020600020905b8154815290600101906020018083116104f557829003601f168201915b50505050508152602001600382015481525050815260200190600101906103ca565b50505050905090565b60035481565b60008054906101000a900473ffffffffffffffffffffffffffffffffffffffff1681565b60008054906101000a900473ffffffffffffffffffffffffffffffffffffffff1673ffffffffffffffffffffffffffffffffffffffff163373ffffffffffffffffffffffffffffffffffffffff16146105f5576040517f08c379a00000000000000000000000000000000000000000000000000000000081526004016105ec906112d5565b60405180910390fd5b600280549050821061063c576040517f08c379a0000000000000000000000000000000000000000000000000000000008152600401610633906111b3565b60405180910390fd5b8060028381548110610651576106506111d3565b5b906000526020600020906004020160030160008282546106719190611324565b925050819055505050565b6002818154811061068c57600080fd5b90600052602060002090600402016000915090508060000180546106af90611231565b80601f01602080910402602001604051908101604052809291908181526020018280546106db90611231565b80156107285780601f106106fd57610100808354040283529160200191610728565b820191906000526020600020905b81548152906001019060200180831161070b57829003601f168201915b50505050509080600101549080600201805461074390611231565b80601f016020809104026020016040519081016040528092919081815260200182805461076f90611231565b80156107bc5780601f10610791576101008083540402835291602001916107bc565b820191906000526020600020905b81548152906001019060200180831161079f57829003601f168201915b5050505050908060030154905084565b600180546107d990611231565b80601f016020809104026020016040519081016040528092919081815260200182805461080590611231565b80156108525780601f1061082757610100808354040283529160200191610852565b820191906000526020600020905b81548152906001019060200180831161083557829003601f168201915b505050505081565b60008054906101000a900473ffffffffffffffffffffffffffffffffffffffff1673ffffffffffffffffffffffffffffffffffffffff163373ffffffffffffffffffffffffffffffffffffffff16146108e8576040517f08c379a00000000000000000000000000000000000000000000000000000000081526004016108df906112d5565b60405180910390fd5b600260405180608001604052808681526020018481526020018581526020018381525090806001815401808255809150506001900390600052602060002090600402016000909190919091506000820151816000019080519060200190610950929190610ac8565b50602082015181600101556040820151816002019080519060200190610977929190610ac8565b5060608201518160030155505050505050565b60028054905082106109d1576040517f08c379a00000000000000000000000000000000000000000000000000000000081526004016109c8906111b3565b60405180910390fd5b600282815481106109e5576109e46111d3565b5b906000526020600020906004020160030154811315610a39576040517f08c379a0000000000000000000000000000000000000000000000000000000008152600401610a3090611404565b60405180910390fd5b60008160028481548110610a5057610a4f6111d3565b5b906000526020600020906004020160010154610a6c9190611424565b90508160028481548110610a8357610a826111d3565b5b90600052602060002090600402016003016000828254610aa3919061153b565b925050819055508060036000828254610abc9190611324565b92505081905550505050565b828054610ad490611231565b90600052602060002090601f016020900481019282610af65760008555610b3d565b82601f10610b0f57805160ff1916838001178555610b3d565b82800160010185558215610b3d579182015b82811115610b3c578251825591602001919060010190610b21565b5b509050610b4a9190610b4e565b5090565b5b80821115610b67576000816000905550600101610b4f565b5090565b6000604051905090565b600080fd5b600080fd5b6000819050919050565b610b9281610b7f565b8114610b9d57600080fd5b50565b600081359050610baf81610b89565b92915050565b600060208284031215610bcb57610bca610b75565b5b6000610bd984828501610ba0565b91505092915050565b600081519050919050565b600082825260208201905092915050565b60005b83811015610c1c578082015181840152602081019050610c01565b83811115610c2b576000848401525b50505050565b6000601f19601f8301169050919050565b6000610c4d82610be2565b610c578185610bed565b9350610c67818560208601610bfe565b610c7081610c31565b840191505092915050565b6000819050919050565b610c8e81610c7b565b82525050565b60006080820190508181036000830152610cae8187610c42565b9050610cbd6020830186610c85565b8181036040830152610ccf8185610c42565b9050610cde6060830184610c85565b95945050505050565b600081519050919050565b600082825260208201905092915050565b6000819050602082019050919050565b600082825260208201905092915050565b6000610d2f82610be2565b610d398185610d13565b9350610d49818560208601610bfe565b610d5281610c31565b840191505092915050565b610d6681610c7b565b82525050565b60006080830160008301518482036000860152610d898282610d24565b9150506020830151610d9e6020860182610d5d565b5060408301518482036040860152610db68282610d24565b9150506060830151610dcb6060860182610d5d565b508091505092915050565b6000610de28383610d6c565b905092915050565b6000602082019050919050565b6000610e0282610ce7565b610e0c8185610cf2565b935083602082028501610e1e85610d03565b8060005b85811015610e5a5784840389528151610e3b8582610dd6565b9450610e4683610dea565b925060208a01995050600181019050610e22565b50829750879550505050505092915050565b60006020820190508181036000830152610e868184610df7565b905092915050565b6000602082019050610ea36000830184610c85565b92915050565b600073ffffffffffffffffffffffffffffffffffffffff82169050919050565b6000610ed482610ea9565b9050919050565b610ee481610ec9565b82525050565b6000602082019050610eff6000830184610edb565b92915050565b610f0e81610c7b565b8114610f1957600080fd5b50565b600081359050610f2b81610f05565b92915050565b60008060408385031215610f4857610f47610b75565b5b6000610f5685828601610ba0565b9250506020610f6785828601610f1c565b9150509250929050565b60006020820190508181036000830152610f8b8184610c42565b905092915050565b600080fd5b600080fd5b7f4e487b7100000000000000000000000000000000000000000000000000000000600052604160045260246000fd5b610fd582610c31565b810181811067ffffffffffffffff82111715610ff457610ff3610f9d565b5b80604052505050565b6000611007610b6b565b90506110138282610fcc565b919050565b600067ffffffffffffffff82111561103357611032610f9d565b5b61103c82610c31565b9050602081019050919050565b82818337600083830152505050565b600061106b61106684611018565b610ffd565b90508281526020810184848401111561108757611086610f98565b5b611092848285611049565b509392505050565b600082601f8301126110af576110ae610f93565b5b81356110bf848260208601611058565b91505092915050565b600080600080608085870312156110e2576110e1610b75565b5b600085013567ffffffffffffffff811115611100576110ff610b7a565b5b61110c8782880161109a565b945050602085013567ffffffffffffffff81111561112d5761112c610b7a565b5b6111398782880161109a565b935050604061114a87828801610f1c565b925050606061115b87828801610f1c565b91505092959194509250565b7f496e646578206f7574206f6620626f756e647300000000000000000000000000600082015250565b600061119d601383610bed565b91506111a882611167565b602082019050919050565b600060208201905081810360008301526111cc81611190565b9050919050565b7f4e487b7100000000000000000000000000000000000000000000000000000000600052603260045260246000fd5b7f4e487b7100000000000000000000000000000000000000000000000000000000600052602260045260246000fd5b6000600282049050600182168061124957607f821691505b6020821081141561125d5761125c611202565b5b50919050565b7f4f6e6c792072657461696c65722063616e20616363657373207468697320667560008201527f6e6374696f6e0000000000000000000000000000000000000000000000000000602082015250565b60006112bf602683610bed565b91506112ca82611263565b604082019050919050565b600060208201905081810360008301526112ee816112b2565b9050919050565b7f4e487b7100000000000000000000000000000000000000000000000000000000600052601160045260246000fd5b600061132f82610c7b565b915061133a83610c7b565b9250817f7fffffffffffffffffffffffffffffffffffffffffffffffffffffffffffffff03831360008312151615611375576113746112f5565b5b817f80000000000000000000000000000000000000000000000000000000000000000383126000831216156113ad576113ac6112f5565b5b828201905092915050565b7f496e73756666696369656e74207175616e746974790000000000000000000000600082015250565b60006113ee601583610bed565b91506113f9826113b8565b602082019050919050565b6000602082019050818103600083015261141d816113e1565b9050919050565b600061142f82610c7b565b915061143a83610c7b565b9250827f7fffffffffffffffffffffffffffffffffffffffffffffffffffffffffffffff0482116000841360008413161615611479576114786112f5565b5b817f800000000000000000000000000000000000000000000000000000000000000005831260008412600084131616156114b6576114b56112f5565b5b827f800000000000000000000000000000000000000000000000000000000000000005821260008413600084121616156114f3576114f26112f5565b5b827f7fffffffffffffffffffffffffffffffffffffffffffffffffffffffffffffff05821260008412600084121616156115305761152f6112f5565b5b828202905092915050565b600061154682610c7b565b915061155183610c7b565b9250827f80000000000000000000000000000000000000000000000000000000000000000182126000841215161561158c5761158b6112f5565b5b827f7fffffffffffffffffffffffffffffffffffffffffffffffffffffffffffffff0182136000841216156115c4576115c36112f5565b5b82820390509291505056fea26469706673582212206854670294d028cef1447127dc020440806e4f01477e710790072194251ef85b64736f6c63430008090033",
            "opcodes": "PUSH1 0x80 PUSH1 0x40 MSTORE CALLVALUE DUP1 ISZERO PUSH3 0x11 JUMPI PUSH1 0x0 DUP1 REVERT JUMPDEST POP PUSH1 0x40 MLOAD PUSH3 0x19AF CODESIZE SUB DUP1 PUSH3 0x19AF DUP4 CODECOPY DUP2 DUP2 ADD PUSH1 0x40 MSTORE DUP2 ADD SWAP1 PUSH3 0x37 SWAP2 SWAP1 PUSH3 0x2E4 JUMP JUMPDEST CALLER PUSH1 0x0 DUP1 PUSH2 0x100 EXP DUP2 SLOAD DUP2 PUSH20 0xFFFFFFFFFFFFFFFFFFFFFFFFFFFFFFFFFFFFFFFF MUL NOT AND SWAP1 DUP4 PUSH20 0xFFFFFFFFFFFFFFFFFFFFFFFFFFFFFFFFFFFFFFFF AND MUL OR SWAP1 SSTORE POP DUP1 PUSH1 0x1 SWAP1 DUP1 MLOAD SWAP1 PUSH1 0x20 ADD SWAP1 PUSH3 0x8F SWAP3 SWAP2 SWAP1 PUSH3 0x97 JUMP JUMPDEST POP POP PUSH3 0x39A JUMP JUMPDEST DUP3 DUP1 SLOAD PUSH3 0xA5 SWAP1 PUSH3 0x364 JUMP JUMPDEST SWAP1 PUSH1 0x0 MSTORE PUSH1 0x20 PUSH1 0x0 KECCAK256 SWAP1 PUSH1 0x1F ADD PUSH1 0x20 SWAP1 DIV DUP2 ADD SWAP3 DUP3 PUSH3 0xC9 JUMPI PUSH1 0x0 DUP6 SSTORE PUSH3 0x115 JUMP JUMPDEST DUP3 PUSH1 0x1F LT PUSH3 0xE4 JUMPI DUP1 MLOAD PUSH1 0xFF NOT AND DUP4 DUP1 ADD OR DUP6 SSTORE PUSH3 0x115 JUMP JUMPDEST DUP3 DUP1 ADD PUSH1 0x1 ADD DUP6 SSTORE DUP3 ISZERO PUSH3 0x115 JUMPI SWAP2 DUP3 ADD JUMPDEST DUP3 DUP2 GT ISZERO PUSH3 0x114 JUMPI DUP3 MLOAD DUP3 SSTORE SWAP2 PUSH1 0x20 ADD SWAP2 SWAP1 PUSH1 0x1 ADD SWAP1 PUSH3 0xF7 JUMP JUMPDEST JUMPDEST POP SWAP1 POP PUSH3 0x124 SWAP2 SWAP1 PUSH3 0x128 JUMP JUMPDEST POP SWAP1 JUMP JUMPDEST JUMPDEST DUP1 DUP3 GT ISZERO PUSH3 0x143 JUMPI PUSH1 0x0 DUP2 PUSH1 0x0 SWAP1 SSTORE POP PUSH1 0x1 ADD PUSH3 0x129 JUMP JUMPDEST POP SWAP1 JUMP JUMPDEST PUSH1 0x0 PUSH1 0x40 MLOAD SWAP1 POP SWAP1 JUMP JUMPDEST PUSH1 0x0 DUP1 REVERT JUMPDEST PUSH1 0x0 DUP1 REVERT JUMPDEST PUSH1 0x0 DUP1 REVERT JUMPDEST PUSH1 0x0 DUP1 REVERT JUMPDEST PUSH1 0x0 PUSH1 0x1F NOT PUSH1 0x1F DUP4 ADD AND SWAP1 POP SWAP2 SWAP1 POP JUMP JUMPDEST PUSH32 0x4E487B7100000000000000000000000000000000000000000000000000000000 PUSH1 0x0 MSTORE PUSH1 0x41 PUSH1 0x4 MSTORE PUSH1 0x24 PUSH1 0x0 REVERT JUMPDEST PUSH3 0x1B0 DUP3 PUSH3 0x165 JUMP JUMPDEST DUP2 ADD DUP2 DUP2 LT PUSH8 0xFFFFFFFFFFFFFFFF DUP3 GT OR ISZERO PUSH3 0x1D2 JUMPI PUSH3 0x1D1 PUSH3 0x176 JUMP JUMPDEST JUMPDEST DUP1 PUSH1 0x40 MSTORE POP POP POP JUMP JUMPDEST PUSH1 0x0 PUSH3 0x1E7 PUSH3 0x147 JUMP JUMPDEST SWAP1 POP PUSH3 0x1F5 DUP3 DUP3 PUSH3 0x1A5 JUMP JUMPDEST SWAP2 SWAP1 POP JUMP JUMPDEST PUSH1 0x0 PUSH8 0xFFFFFFFFFFFFFFFF DUP3 GT ISZERO PUSH3 0x218 JUMPI PUSH3 0x217 PUSH3 0x176 JUMP JUMPDEST JUMPDEST PUSH3 0x223 DUP3 PUSH3 0x165 JUMP JUMPDEST SWAP1 POP PUSH1 0x20 DUP2 ADD SWAP1 POP SWAP2 SWAP1 POP JUMP JUMPDEST PUSH1 0x0 JUMPDEST DUP4 DUP2 LT ISZERO PUSH3 0x250 JUMPI DUP1 DUP3 ADD MLOAD DUP2 DUP5 ADD MSTORE PUSH1 0x20 DUP2 ADD SWAP1 POP PUSH3 0x233 JUMP JUMPDEST DUP4 DUP2 GT ISZERO PUSH3 0x260 JUMPI PUSH1 0x0 DUP5 DUP5 ADD MSTORE JUMPDEST POP POP POP POP JUMP JUMPDEST PUSH1 0x0 PUSH3 0x27D PUSH3 0x277 DUP5 PUSH3 0x1FA JUMP JUMPDEST PUSH3 0x1DB JUMP JUMPDEST SWAP1 POP DUP3 DUP2 MSTORE PUSH1 0x20 DUP2 ADD DUP5 DUP5 DUP5 ADD GT ISZERO PUSH3 0x29C JUMPI PUSH3 0x29B PUSH3 0x160 JUMP JUMPDEST JUMPDEST PUSH3 0x2A9 DUP5 DUP3 DUP6 PUSH3 0x230 JUMP JUMPDEST POP SWAP4 SWAP3 POP POP POP JUMP JUMPDEST PUSH1 0x0 DUP3 PUSH1 0x1F DUP4 ADD SLT PUSH3 0x2C9 JUMPI PUSH3 0x2C8 PUSH3 0x15B JUMP JUMPDEST JUMPDEST DUP2 MLOAD PUSH3 0x2DB DUP5 DUP3 PUSH1 0x20 DUP7 ADD PUSH3 0x266 JUMP JUMPDEST SWAP2 POP POP SWAP3 SWAP2 POP POP JUMP JUMPDEST PUSH1 0x0 PUSH1 0x20 DUP3 DUP5 SUB SLT ISZERO PUSH3 0x2FD JUMPI PUSH3 0x2FC PUSH3 0x151 JUMP JUMPDEST JUMPDEST PUSH1 0x0 DUP3 ADD MLOAD PUSH8 0xFFFFFFFFFFFFFFFF DUP2 GT ISZERO PUSH3 0x31E JUMPI PUSH3 0x31D PUSH3 0x156 JUMP JUMPDEST JUMPDEST PUSH3 0x32C DUP5 DUP3 DUP6 ADD PUSH3 0x2B1 JUMP JUMPDEST SWAP2 POP POP SWAP3 SWAP2 POP POP JUMP JUMPDEST PUSH32 0x4E487B7100000000000000000000000000000000000000000000000000000000 PUSH1 0x0 MSTORE PUSH1 0x22 PUSH1 0x4 MSTORE PUSH1 0x24 PUSH1 0x0 REVERT JUMPDEST PUSH1 0x0 PUSH1 0x2 DUP3 DIV SWAP1 POP PUSH1 0x1 DUP3 AND DUP1 PUSH3 0x37D JUMPI PUSH1 0x7F DUP3 AND SWAP2 POP JUMPDEST PUSH1 0x20 DUP3 LT DUP2 EQ ISZERO PUSH3 0x394 JUMPI PUSH3 0x393 PUSH3 0x335 JUMP JUMPDEST JUMPDEST POP SWAP2 SWAP1 POP JUMP JUMPDEST PUSH2 0x1605 DUP1 PUSH3 0x3AA PUSH1 0x0 CODECOPY PUSH1 0x0 RETURN INVALID PUSH1 0x80 PUSH1 0x40 MSTORE CALLVALUE DUP1 ISZERO PUSH2 0x10 JUMPI PUSH1 0x0 DUP1 REVERT JUMPDEST POP PUSH1 0x4 CALLDATASIZE LT PUSH2 0x93 JUMPI PUSH1 0x0 CALLDATALOAD PUSH1 0xE0 SHR DUP1 PUSH4 0x7DFE839B GT PUSH2 0x66 JUMPI DUP1 PUSH4 0x7DFE839B EQ PUSH2 0x125 JUMPI DUP1 PUSH4 0xBFB231D2 EQ PUSH2 0x141 JUMPI DUP1 PUSH4 0xE0305F84 EQ PUSH2 0x174 JUMPI DUP1 PUSH4 0xEC846CA7 EQ PUSH2 0x192 JUMPI DUP1 PUSH4 0xED0902C7 EQ PUSH2 0x1AE JUMPI PUSH2 0x93 JUMP JUMPDEST DUP1 PUSH4 0x3129E773 EQ PUSH2 0x98 JUMPI DUP1 PUSH4 0x4BA1D6AA EQ PUSH2 0xCB JUMPI DUP1 PUSH4 0x6605FF66 EQ PUSH2 0xE9 JUMPI DUP1 PUSH4 0x6DE2AFF6 EQ PUSH2 0x107 JUMPI JUMPDEST PUSH1 0x0 DUP1 REVERT JUMPDEST PUSH2 0xB2 PUSH1 0x4 DUP1 CALLDATASIZE SUB DUP2 ADD SWAP1 PUSH2 0xAD SWAP2 SWAP1 PUSH2 0xBB5 JUMP JUMPDEST PUSH2 0x1CA JUMP JUMPDEST PUSH1 0x40 MLOAD PUSH2 0xC2 SWAP5 SWAP4 SWAP3 SWAP2 SWAP1 PUSH2 0xC94 JUMP JUMPDEST PUSH1 0x40 MLOAD DUP1 SWAP2 SUB SWAP1 RETURN JUMPDEST PUSH2 0xD3 PUSH2 0x3A6 JUMP JUMPDEST PUSH1 0x40 MLOAD PUSH2 0xE0 SWAP2 SWAP1 PUSH2 0xE6C JUMP JUMPDEST PUSH1 0x40 MLOAD DUP1 SWAP2 SUB SWAP1 RETURN JUMPDEST PUSH2 0xF1 PUSH2 0x53D JUMP JUMPDEST PUSH1 0x40 MLOAD PUSH2 0xFE SWAP2 SWAP1 PUSH2 0xE8E JUMP JUMPDEST PUSH1 0x40 MLOAD DUP1 SWAP2 SUB SWAP1 RETURN JUMPDEST PUSH2 0x10F PUSH2 0x543 JUMP JUMPDEST PUSH1 0x40 MLOAD PUSH2 0x11C SWAP2 SWAP1 PUSH2 0xEEA JUMP JUMPDEST PUSH1 0x40 MLOAD DUP1 SWAP2 SUB SWAP1 RETURN JUMPDEST PUSH2 0x13F PUSH1 0x4 DUP1 CALLDATASIZE SUB DUP2 ADD SWAP1 PUSH2 0x13A SWAP2 SWAP1 PUSH2 0xF31 JUMP JUMPDEST PUSH2 0x567 JUMP JUMPDEST STOP JUMPDEST PUSH2 0x15B PUSH1 0x4 DUP1 CALLDATASIZE SUB DUP2 ADD SWAP1 PUSH2 0x156 SWAP2 SWAP1 PUSH2 0xBB5 JUMP JUMPDEST PUSH2 0x67C JUMP JUMPDEST PUSH1 0x40 MLOAD PUSH2 0x16B SWAP5 SWAP4 SWAP3 SWAP2 SWAP1 PUSH2 0xC94 JUMP JUMPDEST PUSH1 0x40 MLOAD DUP1 SWAP2 SUB SWAP1 RETURN JUMPDEST PUSH2 0x17C PUSH2 0x7CC JUMP JUMPDEST PUSH1 0x40 MLOAD PUSH2 0x189 SWAP2 SWAP1 PUSH2 0xF71 JUMP JUMPDEST PUSH1 0x40 MLOAD DUP1 SWAP2 SUB SWAP1 RETURN JUMPDEST PUSH2 0x1AC PUSH1 0x4 DUP1 CALLDATASIZE SUB DUP2 ADD SWAP1 PUSH2 0x1A7 SWAP2 SWAP1 PUSH2 0x10C8 JUMP JUMPDEST PUSH2 0x85A JUMP JUMPDEST STOP JUMPDEST PUSH2 0x1C8 PUSH1 0x4 DUP1 CALLDATASIZE SUB DUP2 ADD SWAP1 PUSH2 0x1C3 SWAP2 SWAP1 PUSH2 0xF31 JUMP JUMPDEST PUSH2 0x98A JUMP JUMPDEST STOP JUMPDEST PUSH1 0x60 PUSH1 0x0 PUSH1 0x60 PUSH1 0x0 PUSH1 0x2 DUP1 SLOAD SWAP1 POP DUP6 LT PUSH2 0x219 JUMPI PUSH1 0x40 MLOAD PUSH32 0x8C379A000000000000000000000000000000000000000000000000000000000 DUP2 MSTORE PUSH1 0x4 ADD PUSH2 0x210 SWAP1 PUSH2 0x11B3 JUMP JUMPDEST PUSH1 0x40 MLOAD DUP1 SWAP2 SUB SWAP1 REVERT JUMPDEST PUSH1 0x0 PUSH1 0x2 DUP7 DUP2 SLOAD DUP2 LT PUSH2 0x22F JUMPI PUSH2 0x22E PUSH2 0x11D3 JUMP JUMPDEST JUMPDEST SWAP1 PUSH1 0x0 MSTORE PUSH1 0x20 PUSH1 0x0 KECCAK256 SWAP1 PUSH1 0x4 MUL ADD PUSH1 0x40 MLOAD DUP1 PUSH1 0x80 ADD PUSH1 0x40 MSTORE SWAP1 DUP2 PUSH1 0x0 DUP3 ADD DUP1 SLOAD PUSH2 0x258 SWAP1 PUSH2 0x1231 JUMP JUMPDEST DUP1 PUSH1 0x1F ADD PUSH1 0x20 DUP1 SWAP2 DIV MUL PUSH1 0x20 ADD PUSH1 0x40 MLOAD SWAP1 DUP2 ADD PUSH1 0x40 MSTORE DUP1 SWAP3 SWAP2 SWAP1 DUP2 DUP2 MSTORE PUSH1 0x20 ADD DUP3 DUP1 SLOAD PUSH2 0x284 SWAP1 PUSH2 0x1231 JUMP JUMPDEST DUP1 ISZERO PUSH2 0x2D1 JUMPI DUP1 PUSH1 0x1F LT PUSH2 0x2A6 JUMPI PUSH2 0x100 DUP1 DUP4 SLOAD DIV MUL DUP4 MSTORE SWAP2 PUSH1 0x20 ADD SWAP2 PUSH2 0x2D1 JUMP JUMPDEST DUP3 ADD SWAP2 SWAP1 PUSH1 0x0 MSTORE PUSH1 0x20 PUSH1 0x0 KECCAK256 SWAP1 JUMPDEST DUP2 SLOAD DUP2 MSTORE SWAP1 PUSH1 0x1 ADD SWAP1 PUSH1 0x20 ADD DUP1 DUP4 GT PUSH2 0x2B4 JUMPI DUP3 SWAP1 SUB PUSH1 0x1F AND DUP3 ADD SWAP2 JUMPDEST POP POP POP POP POP DUP2 MSTORE PUSH1 0x20 ADD PUSH1 0x1 DUP3 ADD SLOAD DUP2 MSTORE PUSH1 0x20 ADD PUSH1 0x2 DUP3 ADD DUP1 SLOAD PUSH2 0x2F4 SWAP1 PUSH2 0x1231 JUMP JUMPDEST DUP1 PUSH1 0x1F ADD PUSH1 0x20 DUP1 SWAP2 DIV MUL PUSH1 0x20 ADD PUSH1 0x40 MLOAD SWAP1 DUP2 ADD PUSH1 0x40 MSTORE DUP1 SWAP3 SWAP2 SWAP1 DUP2 DUP2 MSTORE PUSH1 0x20 ADD DUP3 DUP1 SLOAD PUSH2 0x320 SWAP1 PUSH2 0x1231 JUMP JUMPDEST DUP1 ISZERO PUSH2 0x36D JUMPI DUP1 PUSH1 0x1F LT PUSH2 0x342 JUMPI PUSH2 0x100 DUP1 DUP4 SLOAD DIV MUL DUP4 MSTORE SWAP2 PUSH1 0x20 ADD SWAP2 PUSH2 0x36D JUMP JUMPDEST DUP3 ADD SWAP2 SWAP1 PUSH1 0x0 MSTORE PUSH1 0x20 PUSH1 0x0 KECCAK256 SWAP1 JUMPDEST DUP2 SLOAD DUP2 MSTORE SWAP1 PUSH1 0x1 ADD SWAP1 PUSH1 0x20 ADD DUP1 DUP4 GT PUSH2 0x350 JUMPI DUP3 SWAP1 SUB PUSH1 0x1F AND DUP3 ADD SWAP2 JUMPDEST POP POP POP POP POP DUP2 MSTORE PUSH1 0x20 ADD PUSH1 0x3 DUP3 ADD SLOAD DUP2 MSTORE POP POP SWAP1 POP DUP1 PUSH1 0x0 ADD MLOAD DUP2 PUSH1 0x20 ADD MLOAD DUP3 PUSH1 0x40 ADD MLOAD DUP4 PUSH1 0x60 ADD MLOAD SWAP5 POP SWAP5 POP SWAP5 POP SWAP5 POP POP SWAP2 SWAP4 POP SWAP2 SWAP4 JUMP JUMPDEST PUSH1 0x60 PUSH1 0x2 DUP1 SLOAD DUP1 PUSH1 0x20 MUL PUSH1 0x20 ADD PUSH1 0x40 MLOAD SWAP1 DUP2 ADD PUSH1 0x40 MSTORE DUP1 SWAP3 SWAP2 SWAP1 DUP2 DUP2 MSTORE PUSH1 0x20 ADD PUSH1 0x0 SWAP1 JUMPDEST DUP3 DUP3 LT ISZERO PUSH2 0x534 JUMPI DUP4 DUP3 SWAP1 PUSH1 0x0 MSTORE PUSH1 0x20 PUSH1 0x0 KECCAK256 SWAP1 PUSH1 0x4 MUL ADD PUSH1 0x40 MLOAD DUP1 PUSH1 0x80 ADD PUSH1 0x40 MSTORE SWAP1 DUP2 PUSH1 0x0 DUP3 ADD DUP1 SLOAD PUSH2 0x3FD SWAP1 PUSH2 0x1231 JUMP JUMPDEST DUP1 PUSH1 0x1F ADD PUSH1 0x20 DUP1 SWAP2 DIV MUL PUSH1 0x20 ADD PUSH1 0x40 MLOAD SWAP1 DUP2 ADD PUSH1 0x40 MSTORE DUP1 SWAP3 SWAP2 SWAP1 DUP2 DUP2 MSTORE PUSH1 0x20 ADD DUP3 DUP1 SLOAD PUSH2 0x429 SWAP1 PUSH2 0x1231 JUMP JUMPDEST DUP1 ISZERO PUSH2 0x476 JUMPI DUP1 PUSH1 0x1F LT PUSH2 0x44B JUMPI PUSH2 0x100 DUP1 DUP4 SLOAD DIV MUL DUP4 MSTORE SWAP2 PUSH1 0x20 ADD SWAP2 PUSH2 0x476 JUMP JUMPDEST DUP3 ADD SWAP2 SWAP1 PUSH1 0x0 MSTORE PUSH1 0x20 PUSH1 0x0 KECCAK256 SWAP1 JUMPDEST DUP2 SLOAD DUP2 MSTORE SWAP1 PUSH1 0x1 ADD SWAP1 PUSH1 0x20 ADD DUP1 DUP4 GT PUSH2 0x459 JUMPI DUP3 SWAP1 SUB PUSH1 0x1F AND DUP3 ADD SWAP2 JUMPDEST POP POP POP POP POP DUP2 MSTORE PUSH1 0x20 ADD PUSH1 0x1 DUP3 ADD SLOAD DUP2 MSTORE PUSH1 0x20 ADD PUSH1 0x2 DUP3 ADD DUP1 SLOAD PUSH2 0x499 SWAP1 PUSH2 0x1231 JUMP JUMPDEST DUP1 PUSH1 0x1F ADD PUSH1 0x20 DUP1 SWAP2 DIV MUL PUSH1 0x20 ADD PUSH1 0x40 MLOAD SWAP1 DUP2 ADD PUSH1 0x40 MSTORE DUP1 SWAP3 SWAP2 SWAP1 DUP2 DUP2 MSTORE PUSH1 0x20 ADD DUP3 DUP1 SLOAD PUSH2 0x4C5 SWAP1 PUSH2 0x1231 JUMP JUMPDEST DUP1 ISZERO PUSH2 0x512 JUMPI DUP1 PUSH1 0x1F LT PUSH2 0x4E7 JUMPI PUSH2 0x100 DUP1 DUP4 SLOAD DIV MUL DUP4 MSTORE SWAP2 PUSH1 0x20 ADD SWAP2 PUSH2 0x512 JUMP JUMPDEST DUP3 ADD SWAP2 SWAP1 PUSH1 0x0 MSTORE PUSH1 0x20 PUSH1 0x0 KECCAK256 SWAP1 JUMPDEST DUP2 SLOAD DUP2 MSTORE SWAP1 PUSH1 0x1 ADD SWAP1 PUSH1 0x20 ADD DUP1 DUP4 GT PUSH2 0x4F5 JUMPI DUP3 SWAP1 SUB PUSH1 0x1F AND DUP3 ADD SWAP2 JUMPDEST POP POP POP POP POP DUP2 MSTORE PUSH1 0x20 ADD PUSH1 0x3 DUP3 ADD SLOAD DUP2 MSTORE POP POP DUP2 MSTORE PUSH1 0x20 ADD SWAP1 PUSH1 0x1 ADD SWAP1 PUSH2 0x3CA JUMP JUMPDEST POP POP POP POP SWAP1 POP SWAP1 JUMP JUMPDEST PUSH1 0x3 SLOAD DUP2 JUMP JUMPDEST PUSH1 0x0 DUP1 SLOAD SWAP1 PUSH2 0x100 EXP SWAP1 DIV PUSH20 0xFFFFFFFFFFFFFFFFFFFFFFFFFFFFFFFFFFFFFFFF AND DUP2 JUMP JUMPDEST PUSH1 0x0 DUP1 SLOAD SWAP1 PUSH2 0x100 EXP SWAP1 DIV PUSH20 0xFFFFFFFFFFFFFFFFFFFFFFFFFFFFFFFFFFFFFFFF AND PUSH20 0xFFFFFFFFFFFFFFFFFFFFFFFFFFFFFFFFFFFFFFFF AND CALLER PUSH20 0xFFFFFFFFFFFFFFFFFFFFFFFFFFFFFFFFFFFFFFFF AND EQ PUSH2 0x5F5 JUMPI PUSH1 0x40 MLOAD PUSH32 0x8C379A000000000000000000000000000000000000000000000000000000000 DUP2 MSTORE PUSH1 0x4 ADD PUSH2 0x5EC SWAP1 PUSH2 0x12D5 JUMP JUMPDEST PUSH1 0x40 MLOAD DUP1 SWAP2 SUB SWAP1 REVERT JUMPDEST PUSH1 0x2 DUP1 SLOAD SWAP1 POP DUP3 LT PUSH2 0x63C JUMPI PUSH1 0x40 MLOAD PUSH32 0x8C379A000000000000000000000000000000000000000000000000000000000 DUP2 MSTORE PUSH1 0x4 ADD PUSH2 0x633 SWAP1 PUSH2 0x11B3 JUMP JUMPDEST PUSH1 0x40 MLOAD DUP1 SWAP2 SUB SWAP1 REVERT JUMPDEST DUP1 PUSH1 0x2 DUP4 DUP2 SLOAD DUP2 LT PUSH2 0x651 JUMPI PUSH2 0x650 PUSH2 0x11D3 JUMP JUMPDEST JUMPDEST SWAP1 PUSH1 0x0 MSTORE PUSH1 0x20 PUSH1 0x0 KECCAK256 SWAP1 PUSH1 0x4 MUL ADD PUSH1 0x3 ADD PUSH1 0x0 DUP3 DUP3 SLOAD PUSH2 0x671 SWAP2 SWAP1 PUSH2 0x1324 JUMP JUMPDEST SWAP3 POP POP DUP2 SWAP1 SSTORE POP POP POP JUMP JUMPDEST PUSH1 0x2 DUP2 DUP2 SLOAD DUP2 LT PUSH2 0x68C JUMPI PUSH1 0x0 DUP1 REVERT JUMPDEST SWAP1 PUSH1 0x0 MSTORE PUSH1 0x20 PUSH1 0x0 KECCAK256 SWAP1 PUSH1 0x4 MUL ADD PUSH1 0x0 SWAP2 POP SWAP1 POP DUP1 PUSH1 0x0 ADD DUP1 SLOAD PUSH2 0x6AF SWAP1 PUSH2 0x1231 JUMP JUMPDEST DUP1 PUSH1 0x1F ADD PUSH1 0x20 DUP1 SWAP2 DIV MUL PUSH1 0x20 ADD PUSH1 0x40 MLOAD SWAP1 DUP2 ADD PUSH1 0x40 MSTORE DUP1 SWAP3 SWAP2 SWAP1 DUP2 DUP2 MSTORE PUSH1 0x20 ADD DUP3 DUP1 SLOAD PUSH2 0x6DB SWAP1 PUSH2 0x1231 JUMP JUMPDEST DUP1 ISZERO PUSH2 0x728 JUMPI DUP1 PUSH1 0x1F LT PUSH2 0x6FD JUMPI PUSH2 0x100 DUP1 DUP4 SLOAD DIV MUL DUP4 MSTORE SWAP2 PUSH1 0x20 ADD SWAP2 PUSH2 0x728 JUMP JUMPDEST DUP3 ADD SWAP2 SWAP1 PUSH1 0x0 MSTORE PUSH1 0x20 PUSH1 0x0 KECCAK256 SWAP1 JUMPDEST DUP2 SLOAD DUP2 MSTORE SWAP1 PUSH1 0x1 ADD SWAP1 PUSH1 0x20 ADD DUP1 DUP4 GT PUSH2 0x70B JUMPI DUP3 SWAP1 SUB PUSH1 0x1F AND DUP3 ADD SWAP2 JUMPDEST POP POP POP POP POP SWAP1 DUP1 PUSH1 0x1 ADD SLOAD SWAP1 DUP1 PUSH1 0x2 ADD DUP1 SLOAD PUSH2 0x743 SWAP1 PUSH2 0x1231 JUMP JUMPDEST DUP1 PUSH1 0x1F ADD PUSH1 0x20 DUP1 SWAP2 DIV MUL PUSH1 0x20 ADD PUSH1 0x40 MLOAD SWAP1 DUP2 ADD PUSH1 0x40 MSTORE DUP1 SWAP3 SWAP2 SWAP1 DUP2 DUP2 MSTORE PUSH1 0x20 ADD DUP3 DUP1 SLOAD PUSH2 0x76F SWAP1 PUSH2 0x1231 JUMP JUMPDEST DUP1 ISZERO PUSH2 0x7BC JUMPI DUP1 PUSH1 0x1F LT PUSH2 0x791 JUMPI PUSH2 0x100 DUP1 DUP4 SLOAD DIV MUL DUP4 MSTORE SWAP2 PUSH1 0x20 ADD SWAP2 PUSH2 0x7BC JUMP JUMPDEST DUP3 ADD SWAP2 SWAP1 PUSH1 0x0 MSTORE PUSH1 0x20 PUSH1 0x0 KECCAK256 SWAP1 JUMPDEST DUP2 SLOAD DUP2 MSTORE SWAP1 PUSH1 0x1 ADD SWAP1 PUSH1 0x20 ADD DUP1 DUP4 GT PUSH2 0x79F JUMPI DUP3 SWAP1 SUB PUSH1 0x1F AND DUP3 ADD SWAP2 JUMPDEST POP POP POP POP POP SWAP1 DUP1 PUSH1 0x3 ADD SLOAD SWAP1 POP DUP5 JUMP JUMPDEST PUSH1 0x1 DUP1 SLOAD PUSH2 0x7D9 SWAP1 PUSH2 0x1231 JUMP JUMPDEST DUP1 PUSH1 0x1F ADD PUSH1 0x20 DUP1 SWAP2 DIV MUL PUSH1 0x20 ADD PUSH1 0x40 MLOAD SWAP1 DUP2 ADD PUSH1 0x40 MSTORE DUP1 SWAP3 SWAP2 SWAP1 DUP2 DUP2 MSTORE PUSH1 0x20 ADD DUP3 DUP1 SLOAD PUSH2 0x805 SWAP1 PUSH2 0x1231 JUMP JUMPDEST DUP1 ISZERO PUSH2 0x852 JUMPI DUP1 PUSH1 0x1F LT PUSH2 0x827 JUMPI PUSH2 0x100 DUP1 DUP4 SLOAD DIV MUL DUP4 MSTORE SWAP2 PUSH1 0x20 ADD SWAP2 PUSH2 0x852 JUMP JUMPDEST DUP3 ADD SWAP2 SWAP1 PUSH1 0x0 MSTORE PUSH1 0x20 PUSH1 0x0 KECCAK256 SWAP1 JUMPDEST DUP2 SLOAD DUP2 MSTORE SWAP1 PUSH1 0x1 ADD SWAP1 PUSH1 0x20 ADD DUP1 DUP4 GT PUSH2 0x835 JUMPI DUP3 SWAP1 SUB PUSH1 0x1F AND DUP3 ADD SWAP2 JUMPDEST POP POP POP POP POP DUP2 JUMP JUMPDEST PUSH1 0x0 DUP1 SLOAD SWAP1 PUSH2 0x100 EXP SWAP1 DIV PUSH20 0xFFFFFFFFFFFFFFFFFFFFFFFFFFFFFFFFFFFFFFFF AND PUSH20 0xFFFFFFFFFFFFFFFFFFFFFFFFFFFFFFFFFFFFFFFF AND CALLER PUSH20 0xFFFFFFFFFFFFFFFFFFFFFFFFFFFFFFFFFFFFFFFF AND EQ PUSH2 0x8E8 JUMPI PUSH1 0x40 MLOAD PUSH32 0x8C379A000000000000000000000000000000000000000000000000000000000 DUP2 MSTORE PUSH1 0x4 ADD PUSH2 0x8DF SWAP1 PUSH2 0x12D5 JUMP JUMPDEST PUSH1 0x40 MLOAD DUP1 SWAP2 SUB SWAP1 REVERT JUMPDEST PUSH1 0x2 PUSH1 0x40 MLOAD DUP1 PUSH1 0x80 ADD PUSH1 0x40 MSTORE DUP1 DUP7 DUP2 MSTORE PUSH1 0x20 ADD DUP5 DUP2 MSTORE PUSH1 0x20 ADD DUP6 DUP2 MSTORE PUSH1 0x20 ADD DUP4 DUP2 MSTORE POP SWAP1 DUP1 PUSH1 0x1 DUP2 SLOAD ADD DUP1 DUP3 SSTORE DUP1 SWAP2 POP POP PUSH1 0x1 SWAP1 SUB SWAP1 PUSH1 0x0 MSTORE PUSH1 0x20 PUSH1 0x0 KECCAK256 SWAP1 PUSH1 0x4 MUL ADD PUSH1 0x0 SWAP1 SWAP2 SWAP1 SWAP2 SWAP1 SWAP2 POP PUSH1 0x0 DUP3 ADD MLOAD DUP2 PUSH1 0x0 ADD SWAP1 DUP1 MLOAD SWAP1 PUSH1 0x20 ADD SWAP1 PUSH2 0x950 SWAP3 SWAP2 SWAP1 PUSH2 0xAC8 JUMP JUMPDEST POP PUSH1 0x20 DUP3 ADD MLOAD DUP2 PUSH1 0x1 ADD SSTORE PUSH1 0x40 DUP3 ADD MLOAD DUP2 PUSH1 0x2 ADD SWAP1 DUP1 MLOAD SWAP1 PUSH1 0x20 ADD SWAP1 PUSH2 0x977 SWAP3 SWAP2 SWAP1 PUSH2 0xAC8 JUMP JUMPDEST POP PUSH1 0x60 DUP3 ADD MLOAD DUP2 PUSH1 0x3 ADD SSTORE POP POP POP POP POP POP JUMP JUMPDEST PUSH1 0x2 DUP1 SLOAD SWAP1 POP DUP3 LT PUSH2 0x9D1 JUMPI PUSH1 0x40 MLOAD PUSH32 0x8C379A000000000000000000000000000000000000000000000000000000000 DUP2 MSTORE PUSH1 0x4 ADD PUSH2 0x9C8 SWAP1 PUSH2 0x11B3 JUMP JUMPDEST PUSH1 0x40 MLOAD DUP1 SWAP2 SUB SWAP1 REVERT JUMPDEST PUSH1 0x2 DUP3 DUP2 SLOAD DUP2 LT PUSH2 0x9E5 JUMPI PUSH2 0x9E4 PUSH2 0x11D3 JUMP JUMPDEST JUMPDEST SWAP1 PUSH1 0x0 MSTORE PUSH1 0x20 PUSH1 0x0 KECCAK256 SWAP1 PUSH1 0x4 MUL ADD PUSH1 0x3 ADD SLOAD DUP2 SGT ISZERO PUSH2 0xA39 JUMPI PUSH1 0x40 MLOAD PUSH32 0x8C379A000000000000000000000000000000000000000000000000000000000 DUP2 MSTORE PUSH1 0x4 ADD PUSH2 0xA30 SWAP1 PUSH2 0x1404 JUMP JUMPDEST PUSH1 0x40 MLOAD DUP1 SWAP2 SUB SWAP1 REVERT JUMPDEST PUSH1 0x0 DUP2 PUSH1 0x2 DUP5 DUP2 SLOAD DUP2 LT PUSH2 0xA50 JUMPI PUSH2 0xA4F PUSH2 0x11D3 JUMP JUMPDEST JUMPDEST SWAP1 PUSH1 0x0 MSTORE PUSH1 0x20 PUSH1 0x0 KECCAK256 SWAP1 PUSH1 0x4 MUL ADD PUSH1 0x1 ADD SLOAD PUSH2 0xA6C SWAP2 SWAP1 PUSH2 0x1424 JUMP JUMPDEST SWAP1 POP DUP2 PUSH1 0x2 DUP5 DUP2 SLOAD DUP2 LT PUSH2 0xA83 JUMPI PUSH2 0xA82 PUSH2 0x11D3 JUMP JUMPDEST JUMPDEST SWAP1 PUSH1 0x0 MSTORE PUSH1 0x20 PUSH1 0x0 KECCAK256 SWAP1 PUSH1 0x4 MUL ADD PUSH1 0x3 ADD PUSH1 0x0 DUP3 DUP3 SLOAD PUSH2 0xAA3 SWAP2 SWAP1 PUSH2 0x153B JUMP JUMPDEST SWAP3 POP POP DUP2 SWAP1 SSTORE POP DUP1 PUSH1 0x3 PUSH1 0x0 DUP3 DUP3 SLOAD PUSH2 0xABC SWAP2 SWAP1 PUSH2 0x1324 JUMP JUMPDEST SWAP3 POP POP DUP2 SWAP1 SSTORE POP POP POP POP JUMP JUMPDEST DUP3 DUP1 SLOAD PUSH2 0xAD4 SWAP1 PUSH2 0x1231 JUMP JUMPDEST SWAP1 PUSH1 0x0 MSTORE PUSH1 0x20 PUSH1 0x0 KECCAK256 SWAP1 PUSH1 0x1F ADD PUSH1 0x20 SWAP1 DIV DUP2 ADD SWAP3 DUP3 PUSH2 0xAF6 JUMPI PUSH1 0x0 DUP6 SSTORE PUSH2 0xB3D JUMP JUMPDEST DUP3 PUSH1 0x1F LT PUSH2 0xB0F JUMPI DUP1 MLOAD PUSH1 0xFF NOT AND DUP4 DUP1 ADD OR DUP6 SSTORE PUSH2 0xB3D JUMP JUMPDEST DUP3 DUP1 ADD PUSH1 0x1 ADD DUP6 SSTORE DUP3 ISZERO PUSH2 0xB3D JUMPI SWAP2 DUP3 ADD JUMPDEST DUP3 DUP2 GT ISZERO PUSH2 0xB3C JUMPI DUP3 MLOAD DUP3 SSTORE SWAP2 PUSH1 0x20 ADD SWAP2 SWAP1 PUSH1 0x1 ADD SWAP1 PUSH2 0xB21 JUMP JUMPDEST JUMPDEST POP SWAP1 POP PUSH2 0xB4A SWAP2 SWAP1 PUSH2 0xB4E JUMP JUMPDEST POP SWAP1 JUMP JUMPDEST JUMPDEST DUP1 DUP3 GT ISZERO PUSH2 0xB67 JUMPI PUSH1 0x0 DUP2 PUSH1 0x0 SWAP1 SSTORE POP PUSH1 0x1 ADD PUSH2 0xB4F JUMP JUMPDEST POP SWAP1 JUMP JUMPDEST PUSH1 0x0 PUSH1 0x40 MLOAD SWAP1 POP SWAP1 JUMP JUMPDEST PUSH1 0x0 DUP1 REVERT JUMPDEST PUSH1 0x0 DUP1 REVERT JUMPDEST PUSH1 0x0 DUP2 SWAP1 POP SWAP2 SWAP1 POP JUMP JUMPDEST PUSH2 0xB92 DUP2 PUSH2 0xB7F JUMP JUMPDEST DUP2 EQ PUSH2 0xB9D JUMPI PUSH1 0x0 DUP1 REVERT JUMPDEST POP JUMP JUMPDEST PUSH1 0x0 DUP2 CALLDATALOAD SWAP1 POP PUSH2 0xBAF DUP2 PUSH2 0xB89 JUMP JUMPDEST SWAP3 SWAP2 POP POP JUMP JUMPDEST PUSH1 0x0 PUSH1 0x20 DUP3 DUP5 SUB SLT ISZERO PUSH2 0xBCB JUMPI PUSH2 0xBCA PUSH2 0xB75 JUMP JUMPDEST JUMPDEST PUSH1 0x0 PUSH2 0xBD9 DUP5 DUP3 DUP6 ADD PUSH2 0xBA0 JUMP JUMPDEST SWAP2 POP POP SWAP3 SWAP2 POP POP JUMP JUMPDEST PUSH1 0x0 DUP2 MLOAD SWAP1 POP SWAP2 SWAP1 POP JUMP JUMPDEST PUSH1 0x0 DUP3 DUP3 MSTORE PUSH1 0x20 DUP3 ADD SWAP1 POP SWAP3 SWAP2 POP POP JUMP JUMPDEST PUSH1 0x0 JUMPDEST DUP4 DUP2 LT ISZERO PUSH2 0xC1C JUMPI DUP1 DUP3 ADD MLOAD DUP2 DUP5 ADD MSTORE PUSH1 0x20 DUP2 ADD SWAP1 POP PUSH2 0xC01 JUMP JUMPDEST DUP4 DUP2 GT ISZERO PUSH2 0xC2B JUMPI PUSH1 0x0 DUP5 DUP5 ADD MSTORE JUMPDEST POP POP POP POP JUMP JUMPDEST PUSH1 0x0 PUSH1 0x1F NOT PUSH1 0x1F DUP4 ADD AND SWAP1 POP SWAP2 SWAP1 POP JUMP JUMPDEST PUSH1 0x0 PUSH2 0xC4D DUP3 PUSH2 0xBE2 JUMP JUMPDEST PUSH2 0xC57 DUP2 DUP6 PUSH2 0xBED JUMP JUMPDEST SWAP4 POP PUSH2 0xC67 DUP2 DUP6 PUSH1 0x20 DUP7 ADD PUSH2 0xBFE JUMP JUMPDEST PUSH2 0xC70 DUP2 PUSH2 0xC31 JUMP JUMPDEST DUP5 ADD SWAP2 POP POP SWAP3 SWAP2 POP POP JUMP JUMPDEST PUSH1 0x0 DUP2 SWAP1 POP SWAP2 SWAP1 POP JUMP JUMPDEST PUSH2 0xC8E DUP2 PUSH2 0xC7B JUMP JUMPDEST DUP3 MSTORE POP POP JUMP JUMPDEST PUSH1 0x0 PUSH1 0x80 DUP3 ADD SWAP1 POP DUP2 DUP2 SUB PUSH1 0x0 DUP4 ADD MSTORE PUSH2 0xCAE DUP2 DUP8 PUSH2 0xC42 JUMP JUMPDEST SWAP1 POP PUSH2 0xCBD PUSH1 0x20 DUP4 ADD DUP7 PUSH2 0xC85 JUMP JUMPDEST DUP2 DUP2 SUB PUSH1 0x40 DUP4 ADD MSTORE PUSH2 0xCCF DUP2 DUP6 PUSH2 0xC42 JUMP JUMPDEST SWAP1 POP PUSH2 0xCDE PUSH1 0x60 DUP4 ADD DUP5 PUSH2 0xC85 JUMP JUMPDEST SWAP6 SWAP5 POP POP POP POP POP JUMP JUMPDEST PUSH1 0x0 DUP2 MLOAD SWAP1 POP SWAP2 SWAP1 POP JUMP JUMPDEST PUSH1 0x0 DUP3 DUP3 MSTORE PUSH1 0x20 DUP3 ADD SWAP1 POP SWAP3 SWAP2 POP POP JUMP JUMPDEST PUSH1 0x0 DUP2 SWAP1 POP PUSH1 0x20 DUP3 ADD SWAP1 POP SWAP2 SWAP1 POP JUMP JUMPDEST PUSH1 0x0 DUP3 DUP3 MSTORE PUSH1 0x20 DUP3 ADD SWAP1 POP SWAP3 SWAP2 POP POP JUMP JUMPDEST PUSH1 0x0 PUSH2 0xD2F DUP3 PUSH2 0xBE2 JUMP JUMPDEST PUSH2 0xD39 DUP2 DUP6 PUSH2 0xD13 JUMP JUMPDEST SWAP4 POP PUSH2 0xD49 DUP2 DUP6 PUSH1 0x20 DUP7 ADD PUSH2 0xBFE JUMP JUMPDEST PUSH2 0xD52 DUP2 PUSH2 0xC31 JUMP JUMPDEST DUP5 ADD SWAP2 POP POP SWAP3 SWAP2 POP POP JUMP JUMPDEST PUSH2 0xD66 DUP2 PUSH2 0xC7B JUMP JUMPDEST DUP3 MSTORE POP POP JUMP JUMPDEST PUSH1 0x0 PUSH1 0x80 DUP4 ADD PUSH1 0x0 DUP4 ADD MLOAD DUP5 DUP3 SUB PUSH1 0x0 DUP7 ADD MSTORE PUSH2 0xD89 DUP3 DUP3 PUSH2 0xD24 JUMP JUMPDEST SWAP2 POP POP PUSH1 0x20 DUP4 ADD MLOAD PUSH2 0xD9E PUSH1 0x20 DUP7 ADD DUP3 PUSH2 0xD5D JUMP JUMPDEST POP PUSH1 0x40 DUP4 ADD MLOAD DUP5 DUP3 SUB PUSH1 0x40 DUP7 ADD MSTORE PUSH2 0xDB6 DUP3 DUP3 PUSH2 0xD24 JUMP JUMPDEST SWAP2 POP POP PUSH1 0x60 DUP4 ADD MLOAD PUSH2 0xDCB PUSH1 0x60 DUP7 ADD DUP3 PUSH2 0xD5D JUMP JUMPDEST POP DUP1 SWAP2 POP POP SWAP3 SWAP2 POP POP JUMP JUMPDEST PUSH1 0x0 PUSH2 0xDE2 DUP4 DUP4 PUSH2 0xD6C JUMP JUMPDEST SWAP1 POP SWAP3 SWAP2 POP POP JUMP JUMPDEST PUSH1 0x0 PUSH1 0x20 DUP3 ADD SWAP1 POP SWAP2 SWAP1 POP JUMP JUMPDEST PUSH1 0x0 PUSH2 0xE02 DUP3 PUSH2 0xCE7 JUMP JUMPDEST PUSH2 0xE0C DUP2 DUP6 PUSH2 0xCF2 JUMP JUMPDEST SWAP4 POP DUP4 PUSH1 0x20 DUP3 MUL DUP6 ADD PUSH2 0xE1E DUP6 PUSH2 0xD03 JUMP JUMPDEST DUP1 PUSH1 0x0 JUMPDEST DUP6 DUP2 LT ISZERO PUSH2 0xE5A JUMPI DUP5 DUP5 SUB DUP10 MSTORE DUP2 MLOAD PUSH2 0xE3B DUP6 DUP3 PUSH2 0xDD6 JUMP JUMPDEST SWAP5 POP PUSH2 0xE46 DUP4 PUSH2 0xDEA JUMP JUMPDEST SWAP3 POP PUSH1 0x20 DUP11 ADD SWAP10 POP POP PUSH1 0x1 DUP2 ADD SWAP1 POP PUSH2 0xE22 JUMP JUMPDEST POP DUP3 SWAP8 POP DUP8 SWAP6 POP POP POP POP POP POP SWAP3 SWAP2 POP POP JUMP JUMPDEST PUSH1 0x0 PUSH1 0x20 DUP3 ADD SWAP1 POP DUP2 DUP2 SUB PUSH1 0x0 DUP4 ADD MSTORE PUSH2 0xE86 DUP2 DUP5 PUSH2 0xDF7 JUMP JUMPDEST SWAP1 POP SWAP3 SWAP2 POP POP JUMP JUMPDEST PUSH1 0x0 PUSH1 0x20 DUP3 ADD SWAP1 POP PUSH2 0xEA3 PUSH1 0x0 DUP4 ADD DUP5 PUSH2 0xC85 JUMP JUMPDEST SWAP3 SWAP2 POP POP JUMP JUMPDEST PUSH1 0x0 PUSH20 0xFFFFFFFFFFFFFFFFFFFFFFFFFFFFFFFFFFFFFFFF DUP3 AND SWAP1 POP SWAP2 SWAP1 POP JUMP JUMPDEST PUSH1 0x0 PUSH2 0xED4 DUP3 PUSH2 0xEA9 JUMP JUMPDEST SWAP1 POP SWAP2 SWAP1 POP JUMP JUMPDEST PUSH2 0xEE4 DUP2 PUSH2 0xEC9 JUMP JUMPDEST DUP3 MSTORE POP POP JUMP JUMPDEST PUSH1 0x0 PUSH1 0x20 DUP3 ADD SWAP1 POP PUSH2 0xEFF PUSH1 0x0 DUP4 ADD DUP5 PUSH2 0xEDB JUMP JUMPDEST SWAP3 SWAP2 POP POP JUMP JUMPDEST PUSH2 0xF0E DUP2 PUSH2 0xC7B JUMP JUMPDEST DUP2 EQ PUSH2 0xF19 JUMPI PUSH1 0x0 DUP1 REVERT JUMPDEST POP JUMP JUMPDEST PUSH1 0x0 DUP2 CALLDATALOAD SWAP1 POP PUSH2 0xF2B DUP2 PUSH2 0xF05 JUMP JUMPDEST SWAP3 SWAP2 POP POP JUMP JUMPDEST PUSH1 0x0 DUP1 PUSH1 0x40 DUP4 DUP6 SUB SLT ISZERO PUSH2 0xF48 JUMPI PUSH2 0xF47 PUSH2 0xB75 JUMP JUMPDEST JUMPDEST PUSH1 0x0 PUSH2 0xF56 DUP6 DUP3 DUP7 ADD PUSH2 0xBA0 JUMP JUMPDEST SWAP3 POP POP PUSH1 0x20 PUSH2 0xF67 DUP6 DUP3 DUP7 ADD PUSH2 0xF1C JUMP JUMPDEST SWAP2 POP POP SWAP3 POP SWAP3 SWAP1 POP JUMP JUMPDEST PUSH1 0x0 PUSH1 0x20 DUP3 ADD SWAP1 POP DUP2 DUP2 SUB PUSH1 0x0 DUP4 ADD MSTORE PUSH2 0xF8B DUP2 DUP5 PUSH2 0xC42 JUMP JUMPDEST SWAP1 POP SWAP3 SWAP2 POP POP JUMP JUMPDEST PUSH1 0x0 DUP1 REVERT JUMPDEST PUSH1 0x0 DUP1 REVERT JUMPDEST PUSH32 0x4E487B7100000000000000000000000000000000000000000000000000000000 PUSH1 0x0 MSTORE PUSH1 0x41 PUSH1 0x4 MSTORE PUSH1 0x24 PUSH1 0x0 REVERT JUMPDEST PUSH2 0xFD5 DUP3 PUSH2 0xC31 JUMP JUMPDEST DUP2 ADD DUP2 DUP2 LT PUSH8 0xFFFFFFFFFFFFFFFF DUP3 GT OR ISZERO PUSH2 0xFF4 JUMPI PUSH2 0xFF3 PUSH2 0xF9D JUMP JUMPDEST JUMPDEST DUP1 PUSH1 0x40 MSTORE POP POP POP JUMP JUMPDEST PUSH1 0x0 PUSH2 0x1007 PUSH2 0xB6B JUMP JUMPDEST SWAP1 POP PUSH2 0x1013 DUP3 DUP3 PUSH2 0xFCC JUMP JUMPDEST SWAP2 SWAP1 POP JUMP JUMPDEST PUSH1 0x0 PUSH8 0xFFFFFFFFFFFFFFFF DUP3 GT ISZERO PUSH2 0x1033 JUMPI PUSH2 0x1032 PUSH2 0xF9D JUMP JUMPDEST JUMPDEST PUSH2 0x103C DUP3 PUSH2 0xC31 JUMP JUMPDEST SWAP1 POP PUSH1 0x20 DUP2 ADD SWAP1 POP SWAP2 SWAP1 POP JUMP JUMPDEST DUP3 DUP2 DUP4 CALLDATACOPY PUSH1 0x0 DUP4 DUP4 ADD MSTORE POP POP POP JUMP JUMPDEST PUSH1 0x0 PUSH2 0x106B PUSH2 0x1066 DUP5 PUSH2 0x1018 JUMP JUMPDEST PUSH2 0xFFD JUMP JUMPDEST SWAP1 POP DUP3 DUP2 MSTORE PUSH1 0x20 DUP2 ADD DUP5 DUP5 DUP5 ADD GT ISZERO PUSH2 0x1087 JUMPI PUSH2 0x1086 PUSH2 0xF98 JUMP JUMPDEST JUMPDEST PUSH2 0x1092 DUP5 DUP3 DUP6 PUSH2 0x1049 JUMP JUMPDEST POP SWAP4 SWAP3 POP POP POP JUMP JUMPDEST PUSH1 0x0 DUP3 PUSH1 0x1F DUP4 ADD SLT PUSH2 0x10AF JUMPI PUSH2 0x10AE PUSH2 0xF93 JUMP JUMPDEST JUMPDEST DUP2 CALLDATALOAD PUSH2 0x10BF DUP5 DUP3 PUSH1 0x20 DUP7 ADD PUSH2 0x1058 JUMP JUMPDEST SWAP2 POP POP SWAP3 SWAP2 POP POP JUMP JUMPDEST PUSH1 0x0 DUP1 PUSH1 0x0 DUP1 PUSH1 0x80 DUP6 DUP8 SUB SLT ISZERO PUSH2 0x10E2 JUMPI PUSH2 0x10E1 PUSH2 0xB75 JUMP JUMPDEST JUMPDEST PUSH1 0x0 DUP6 ADD CALLDATALOAD PUSH8 0xFFFFFFFFFFFFFFFF DUP2 GT ISZERO PUSH2 0x1100 JUMPI PUSH2 0x10FF PUSH2 0xB7A JUMP JUMPDEST JUMPDEST PUSH2 0x110C DUP8 DUP3 DUP9 ADD PUSH2 0x109A JUMP JUMPDEST SWAP5 POP POP PUSH1 0x20 DUP6 ADD CALLDATALOAD PUSH8 0xFFFFFFFFFFFFFFFF DUP2 GT ISZERO PUSH2 0x112D JUMPI PUSH2 0x112C PUSH2 0xB7A JUMP JUMPDEST JUMPDEST PUSH2 0x1139 DUP8 DUP3 DUP9 ADD PUSH2 0x109A JUMP JUMPDEST SWAP4 POP POP PUSH1 0x40 PUSH2 0x114A DUP8 DUP3 DUP9 ADD PUSH2 0xF1C JUMP JUMPDEST SWAP3 POP POP PUSH1 0x60 PUSH2 0x115B DUP8 DUP3 DUP9 ADD PUSH2 0xF1C JUMP JUMPDEST SWAP2 POP POP SWAP3 SWAP6 SWAP2 SWAP5 POP SWAP3 POP JUMP JUMPDEST PUSH32 0x496E646578206F7574206F6620626F756E647300000000000000000000000000 PUSH1 0x0 DUP3 ADD MSTORE POP JUMP JUMPDEST PUSH1 0x0 PUSH2 0x119D PUSH1 0x13 DUP4 PUSH2 0xBED JUMP JUMPDEST SWAP2 POP PUSH2 0x11A8 DUP3 PUSH2 0x1167 JUMP JUMPDEST PUSH1 0x20 DUP3 ADD SWAP1 POP SWAP2 SWAP1 POP JUMP JUMPDEST PUSH1 0x0 PUSH1 0x20 DUP3 ADD SWAP1 POP DUP2 DUP2 SUB PUSH1 0x0 DUP4 ADD MSTORE PUSH2 0x11CC DUP2 PUSH2 0x1190 JUMP JUMPDEST SWAP1 POP SWAP2 SWAP1 POP JUMP JUMPDEST PUSH32 0x4E487B7100000000000000000000000000000000000000000000000000000000 PUSH1 0x0 MSTORE PUSH1 0x32 PUSH1 0x4 MSTORE PUSH1 0x24 PUSH1 0x0 REVERT JUMPDEST PUSH32 0x4E487B7100000000000000000000000000000000000000000000000000000000 PUSH1 0x0 MSTORE PUSH1 0x22 PUSH1 0x4 MSTORE PUSH1 0x24 PUSH1 0x0 REVERT JUMPDEST PUSH1 0x0 PUSH1 0x2 DUP3 DIV SWAP1 POP PUSH1 0x1 DUP3 AND DUP1 PUSH2 0x1249 JUMPI PUSH1 0x7F DUP3 AND SWAP2 POP JUMPDEST PUSH1 0x20 DUP3 LT DUP2 EQ ISZERO PUSH2 0x125D JUMPI PUSH2 0x125C PUSH2 0x1202 JUMP JUMPDEST JUMPDEST POP SWAP2 SWAP1 POP JUMP JUMPDEST PUSH32 0x4F6E6C792072657461696C65722063616E206163636573732074686973206675 PUSH1 0x0 DUP3 ADD MSTORE PUSH32 0x6E6374696F6E0000000000000000000000000000000000000000000000000000 PUSH1 0x20 DUP3 ADD MSTORE POP JUMP JUMPDEST PUSH1 0x0 PUSH2 0x12BF PUSH1 0x26 DUP4 PUSH2 0xBED JUMP JUMPDEST SWAP2 POP PUSH2 0x12CA DUP3 PUSH2 0x1263 JUMP JUMPDEST PUSH1 0x40 DUP3 ADD SWAP1 POP SWAP2 SWAP1 POP JUMP JUMPDEST PUSH1 0x0 PUSH1 0x20 DUP3 ADD SWAP1 POP DUP2 DUP2 SUB PUSH1 0x0 DUP4 ADD MSTORE PUSH2 0x12EE DUP2 PUSH2 0x12B2 JUMP JUMPDEST SWAP1 POP SWAP2 SWAP1 POP JUMP JUMPDEST PUSH32 0x4E487B7100000000000000000000000000000000000000000000000000000000 PUSH1 0x0 MSTORE PUSH1 0x11 PUSH1 0x4 MSTORE PUSH1 0x24 PUSH1 0x0 REVERT JUMPDEST PUSH1 0x0 PUSH2 0x132F DUP3 PUSH2 0xC7B JUMP JUMPDEST SWAP2 POP PUSH2 0x133A DUP4 PUSH2 0xC7B JUMP JUMPDEST SWAP3 POP DUP2 PUSH32 0x7FFFFFFFFFFFFFFFFFFFFFFFFFFFFFFFFFFFFFFFFFFFFFFFFFFFFFFFFFFFFFFF SUB DUP4 SGT PUSH1 0x0 DUP4 SLT ISZERO AND ISZERO PUSH2 0x1375 JUMPI PUSH2 0x1374 PUSH2 0x12F5 JUMP JUMPDEST JUMPDEST DUP2 PUSH32 0x8000000000000000000000000000000000000000000000000000000000000000 SUB DUP4 SLT PUSH1 0x0 DUP4 SLT AND ISZERO PUSH2 0x13AD JUMPI PUSH2 0x13AC PUSH2 0x12F5 JUMP JUMPDEST JUMPDEST DUP3 DUP3 ADD SWAP1 POP SWAP3 SWAP2 POP POP JUMP JUMPDEST PUSH32 0x496E73756666696369656E74207175616E746974790000000000000000000000 PUSH1 0x0 DUP3 ADD MSTORE POP JUMP JUMPDEST PUSH1 0x0 PUSH2 0x13EE PUSH1 0x15 DUP4 PUSH2 0xBED JUMP JUMPDEST SWAP2 POP PUSH2 0x13F9 DUP3 PUSH2 0x13B8 JUMP JUMPDEST PUSH1 0x20 DUP3 ADD SWAP1 POP SWAP2 SWAP1 POP JUMP JUMPDEST PUSH1 0x0 PUSH1 0x20 DUP3 ADD SWAP1 POP DUP2 DUP2 SUB PUSH1 0x0 DUP4 ADD MSTORE PUSH2 0x141D DUP2 PUSH2 0x13E1 JUMP JUMPDEST SWAP1 POP SWAP2 SWAP1 POP JUMP JUMPDEST PUSH1 0x0 PUSH2 0x142F DUP3 PUSH2 0xC7B JUMP JUMPDEST SWAP2 POP PUSH2 0x143A DUP4 PUSH2 0xC7B JUMP JUMPDEST SWAP3 POP DUP3 PUSH32 0x7FFFFFFFFFFFFFFFFFFFFFFFFFFFFFFFFFFFFFFFFFFFFFFFFFFFFFFFFFFFFFFF DIV DUP3 GT PUSH1 0x0 DUP5 SGT PUSH1 0x0 DUP5 SGT AND AND ISZERO PUSH2 0x1479 JUMPI PUSH2 0x1478 PUSH2 0x12F5 JUMP JUMPDEST JUMPDEST DUP2 PUSH32 0x8000000000000000000000000000000000000000000000000000000000000000 SDIV DUP4 SLT PUSH1 0x0 DUP5 SLT PUSH1 0x0 DUP5 SGT AND AND ISZERO PUSH2 0x14B6 JUMPI PUSH2 0x14B5 PUSH2 0x12F5 JUMP JUMPDEST JUMPDEST DUP3 PUSH32 0x8000000000000000000000000000000000000000000000000000000000000000 SDIV DUP3 SLT PUSH1 0x0 DUP5 SGT PUSH1 0x0 DUP5 SLT AND AND ISZERO PUSH2 0x14F3 JUMPI PUSH2 0x14F2 PUSH2 0x12F5 JUMP JUMPDEST JUMPDEST DUP3 PUSH32 0x7FFFFFFFFFFFFFFFFFFFFFFFFFFFFFFFFFFFFFFFFFFFFFFFFFFFFFFFFFFFFFFF SDIV DUP3 SLT PUSH1 0x0 DUP5 SLT PUSH1 0x0 DUP5 SLT AND AND ISZERO PUSH2 0x1530 JUMPI PUSH2 0x152F PUSH2 0x12F5 JUMP JUMPDEST JUMPDEST DUP3 DUP3 MUL SWAP1 POP SWAP3 SWAP2 POP POP JUMP JUMPDEST PUSH1 0x0 PUSH2 0x1546 DUP3 PUSH2 0xC7B JUMP JUMPDEST SWAP2 POP PUSH2 0x1551 DUP4 PUSH2 0xC7B JUMP JUMPDEST SWAP3 POP DUP3 PUSH32 0x8000000000000000000000000000000000000000000000000000000000000000 ADD DUP3 SLT PUSH1 0x0 DUP5 SLT ISZERO AND ISZERO PUSH2 0x158C JUMPI PUSH2 0x158B PUSH2 0x12F5 JUMP JUMPDEST JUMPDEST DUP3 PUSH32 0x7FFFFFFFFFFFFFFFFFFFFFFFFFFFFFFFFFFFFFFFFFFFFFFFFFFFFFFFFFFFFFFF ADD DUP3 SGT PUSH1 0x0 DUP5 SLT AND ISZERO PUSH2 0x15C4 JUMPI PUSH2 0x15C3 PUSH2 0x12F5 JUMP JUMPDEST JUMPDEST DUP3 DUP3 SUB SWAP1 POP SWAP3 SWAP2 POP POP JUMP INVALID LOG2 PUSH5 0x6970667358 0x22 SLT KECCAK256 PUSH9 0x54670294D028CEF144 PUSH18 0x27DC020440806E4F01477E71079007219425 0x1E 0xF8 JUMPDEST PUSH5 0x736F6C6343 STOP ADDMOD MULMOD STOP CALLER "
        },
        "gasEstimates": {
            "creation": {
                "codeDepositCost": "1127400",
                "executionCost": "infinite",
                "totalCost": "infinite"
            },
            "external": {
                "addItem(string,string,int256,int256)": "infinite",
                "adjustItemQuantity(uint256,int256)": "infinite",
                "getAllItems()": "infinite",
                "getItem(uint256)": "infinite",
                "items(uint256)": "infinite",
                "retailerAddress()": "2578",
                "retailerName()": "infinite",
                "sellItem(uint256,int256)": "infinite",
                "totalSales()": "2474"
            }
        },
        "methodIdentifiers": {
            "addItem(string,string,int256,int256)": "ec846ca7",
            "adjustItemQuantity(uint256,int256)": "7dfe839b",
            "getAllItems()": "4ba1d6aa",
            "getItem(uint256)": "3129e773",
            "items(uint256)": "bfb231d2",
            "retailerAddress()": "6de2aff6",
            "retailerName()": "e0305f84",
            "sellItem(uint256,int256)": "ed0902c7",
            "totalSales()": "6605ff66"
        }
    },
    "storageLayout": {
        "storage": [
            {
                "astId": 705,
                "contract": "Main.sol:RetailerContract",
                "label": "retailerAddress",
                "offset": 0,
                "slot": "0",
                "type": "t_address"
            },
            {
                "astId": 707,
                "contract": "Main.sol:RetailerContract",
                "label": "retailerName",
                "offset": 0,
                "slot": "1",
                "type": "t_string_storage"
            },
            {
                "astId": 711,
                "contract": "Main.sol:RetailerContract",
                "label": "items",
                "offset": 0,
                "slot": "2",
                "type": "t_array(t_struct(Item)722_storage)dyn_storage"
            },
            {
                "astId": 713,
                "contract": "Main.sol:RetailerContract",
                "label": "totalSales",
                "offset": 0,
                "slot": "3",
                "type": "t_int256"
            }
        ],
        "types": {
            "t_address": {
                "encoding": "inplace",
                "label": "address",
                "numberOfBytes": "20"
            },
            "t_array(t_struct(Item)722_storage)dyn_storage": {
                "base": "t_struct(Item)722_storage",
                "encoding": "dynamic_array",
                "label": "struct RetailerContract.Item[]",
                "numberOfBytes": "32"
            },
            "t_int256": {
                "encoding": "inplace",
                "label": "int256",
                "numberOfBytes": "32"
            },
            "t_string_storage": {
                "encoding": "bytes",
                "label": "string",
                "numberOfBytes": "32"
            },
            "t_struct(Item)722_storage": {
                "encoding": "inplace",
                "label": "struct RetailerContract.Item",
                "members": [
                    {
                        "astId": 715,
                        "contract": "Main.sol:RetailerContract",
                        "label": "itemName",
                        "offset": 0,
                        "slot": "0",
                        "type": "t_string_storage"
                    },
                    {
                        "astId": 717,
                        "contract": "Main.sol:RetailerContract",
                        "label": "itemPrice",
                        "offset": 0,
                        "slot": "1",
                        "type": "t_int256"
                    },
                    {
                        "astId": 719,
                        "contract": "Main.sol:RetailerContract",
                        "label": "itemQuality",
                        "offset": 0,
                        "slot": "2",
                        "type": "t_string_storage"
                    },
                    {
                        "astId": 721,
                        "contract": "Main.sol:RetailerContract",
                        "label": "itemQuantity",
                        "offset": 0,
                        "slot": "3",
                        "type": "t_int256"
                    }
                ],
                "numberOfBytes": "128"
            }
        }
    },
    "userdoc": {
        "kind": "user",
        "methods": {},
        "version": 1
    }
}